{
  "contracts/game.sol": {
    "Game": {
      "abi": [
        {
          "inputs": [
            {
              "internalType": "address",
              "name": "_minterContract",
              "type": "address"
            },
            {
              "internalType": "address",
              "name": "_communityWallet",
              "type": "address"
            },
            {
              "internalType": "uint256",
              "name": "_Fee",
              "type": "uint256"
            },
            {
              "internalType": "address",
              "name": "_vrfCoordinator",
              "type": "address"
            },
            {
              "internalType": "address",
              "name": "_linkToken",
              "type": "address"
            },
            {
              "internalType": "bytes32",
              "name": "_keyHash",
              "type": "bytes32"
            },
            {
              "internalType": "uint256",
              "name": "_OracleFee",
              "type": "uint256"
            },
            {
              "internalType": "uint32",
              "name": "_distance",
              "type": "uint32"
            }
          ],
          "stateMutability": "nonpayable",
          "type": "constructor"
        },
        {
          "anonymous": false,
          "inputs": [],
          "name": "CompRandomRequested",
          "type": "event"
        },
        {
          "anonymous": false,
          "inputs": [],
          "name": "DRRandomRequested",
          "type": "event"
        },
        {
          "anonymous": false,
          "inputs": [
            {
              "indexed": false,
              "internalType": "address",
              "name": "admin",
              "type": "address"
            }
          ],
          "name": "NewAdmin",
          "type": "event"
        },
        {
          "anonymous": false,
          "inputs": [],
          "name": "QPRandomRequested",
          "type": "event"
        },
        {
          "anonymous": false,
          "inputs": [
            {
              "indexed": false,
              "internalType": "string",
              "name": "raceType",
              "type": "string"
            }
          ],
          "name": "RaceChosen",
          "type": "event"
        },
        {
          "anonymous": false,
          "inputs": [
            {
              "indexed": false,
              "internalType": "uint16",
              "name": "raptor",
              "type": "uint16"
            },
            {
              "components": [
                {
                  "internalType": "uint16",
                  "name": "speed",
                  "type": "uint16"
                },
                {
                  "internalType": "uint16",
                  "name": "strength",
                  "type": "uint16"
                },
                {
                  "internalType": "uint16",
                  "name": "fightsWon",
                  "type": "uint16"
                },
                {
                  "internalType": "uint16",
                  "name": "quickPlayRacesWon",
                  "type": "uint16"
                },
                {
                  "internalType": "uint16",
                  "name": "compRacesWon",
                  "type": "uint16"
                },
                {
                  "internalType": "uint16",
                  "name": "deathRacesWon",
                  "type": "uint16"
                },
                {
                  "internalType": "uint16",
                  "name": "totalRacesTop3Finish",
                  "type": "uint16"
                },
                {
                  "internalType": "uint32",
                  "name": "cooldownTime",
                  "type": "uint32"
                }
              ],
              "indexed": false,
              "internalType": "struct Stats",
              "name": "stats",
              "type": "tuple"
            }
          ],
          "name": "UpdatedStats",
          "type": "event"
        },
        {
          "inputs": [],
          "name": "CompFee",
          "outputs": [
            {
              "internalType": "uint256",
              "name": "",
              "type": "uint256"
            }
          ],
          "stateMutability": "view",
          "type": "function"
        },
        {
          "inputs": [],
          "name": "DRFee",
          "outputs": [
            {
              "internalType": "uint256",
              "name": "",
              "type": "uint256"
            }
          ],
          "stateMutability": "view",
          "type": "function"
        },
        {
          "inputs": [],
          "name": "QPFee",
          "outputs": [
            {
              "internalType": "uint256",
              "name": "",
              "type": "uint256"
            }
          ],
          "stateMutability": "view",
          "type": "function"
        },
        {
          "inputs": [],
          "name": "currentRace",
          "outputs": [
            {
              "internalType": "enum Game.CurrentRace",
              "name": "",
              "type": "uint8"
            }
          ],
          "stateMutability": "view",
          "type": "function"
        },
        {
          "inputs": [
            {
              "internalType": "uint256",
              "name": "",
              "type": "uint256"
            }
          ],
          "name": "currentRaptors",
          "outputs": [
            {
              "internalType": "uint16",
              "name": "",
              "type": "uint16"
            }
          ],
          "stateMutability": "view",
          "type": "function"
        },
        {
          "inputs": [
            {
              "internalType": "uint16",
              "name": "raptor",
              "type": "uint16"
            }
          ],
          "name": "enterRaptorIntoComp",
          "outputs": [],
          "stateMutability": "payable",
          "type": "function"
        },
        {
          "inputs": [
            {
              "internalType": "uint16",
              "name": "raptor",
              "type": "uint16"
            }
          ],
          "name": "enterRaptorIntoDR",
          "outputs": [],
          "stateMutability": "payable",
          "type": "function"
        },
        {
          "inputs": [
            {
              "internalType": "uint16",
              "name": "raptor",
              "type": "uint16"
            }
          ],
          "name": "enterRaptorIntoQuickPlay",
          "outputs": [],
          "stateMutability": "payable",
          "type": "function"
        },
        {
          "inputs": [],
          "name": "getCurrentQueue",
          "outputs": [
            {
              "internalType": "uint16[8]",
              "name": "raptors",
              "type": "uint16[8]"
            }
          ],
          "stateMutability": "view",
          "type": "function"
        },
        {
          "inputs": [
            {
              "internalType": "address",
              "name": "operator",
              "type": "address"
            },
            {
              "internalType": "address",
              "name": "from",
              "type": "address"
            },
            {
              "internalType": "uint256",
              "name": "tokenId",
              "type": "uint256"
            },
            {
              "internalType": "bytes",
              "name": "data",
              "type": "bytes"
            }
          ],
          "name": "onERC721Received",
          "outputs": [
            {
              "internalType": "bytes4",
              "name": "",
              "type": "bytes4"
            }
          ],
          "stateMutability": "pure",
          "type": "function"
        },
        {
          "inputs": [],
          "name": "pot",
          "outputs": [
            {
              "internalType": "uint256",
              "name": "",
              "type": "uint256"
            }
          ],
          "stateMutability": "view",
          "type": "function"
        },
        {
          "inputs": [
            {
              "internalType": "uint8",
              "name": "choice",
              "type": "uint8"
            }
          ],
          "name": "raceSelect",
          "outputs": [],
          "stateMutability": "nonpayable",
          "type": "function"
        },
        {
          "inputs": [
            {
              "internalType": "bytes32",
              "name": "requestId",
              "type": "bytes32"
            },
            {
              "internalType": "uint256",
              "name": "randomness",
              "type": "uint256"
            }
          ],
          "name": "rawFulfillRandomness",
          "outputs": [],
          "stateMutability": "nonpayable",
          "type": "function"
        },
        {
          "inputs": [],
          "name": "withdrawLink",
          "outputs": [],
          "stateMutability": "nonpayable",
          "type": "function"
        }
      ],
      "devdoc": {
        "kind": "dev",
        "methods": {
          "onERC721Received(address,address,uint256,bytes)": {
            "details": "Whenever an {IERC721} `tokenId` token is transferred to this contract via {IERC721-safeTransferFrom} by `operator` from `from`, this function is called. It must return its Solidity selector to confirm the token transfer. If any other value is returned or the interface is not implemented by the recipient, the transfer will be reverted. The selector can be obtained in Solidity with `IERC721.onERC721Received.selector`."
          }
        },
        "version": 1
      },
      "evm": {
        "bytecode": {
          "linkReferences": {},
          "object": "60c06040526040518061010001604052806119db61ffff168152602001611a3f61ffff168152602001611c8d61ffff168152602001611ce161ffff168152602001611ead61ffff168152602001611eef61ffff168152602001611e2f61ffff168152602001610c5f61ffff1681525060079060086200008092919062000528565b5060405180608001604052806040518060400160405280600781526020017f5374616e6442790000000000000000000000000000000000000000000000000081525081526020016040518060400160405280600981526020017f517569636b506c6179000000000000000000000000000000000000000000000081525081526020016040518060400160405280600b81526020017f436f6d706574697469766500000000000000000000000000000000000000000081525081526020016040518060400160405280600981526020017f4465617468526163650000000000000000000000000000000000000000000000815250815250601090600462000188929190620005e5565b503480156200019657600080fd5b5060405162005cd338038062005cd38339818101604052810190620001bc9190620007c6565b84848173ffffffffffffffffffffffffffffffffffffffff1660a08173ffffffffffffffffffffffffffffffffffffffff1660601b815250508073ffffffffffffffffffffffffffffffffffffffff1660808173ffffffffffffffffffffffffffffffffffffffff1660601b81525050505062000244816200043060201b62000fcc1760201c565b83600860040160006101000a81548173ffffffffffffffffffffffffffffffffffffffff021916908373ffffffffffffffffffffffffffffffffffffffff16021790555084600860000160006101000a81548173ffffffffffffffffffffffffffffffffffffffff021916908373ffffffffffffffffffffffffffffffffffffffff16021790555083600860010160006101000a81548173ffffffffffffffffffffffffffffffffffffffff021916908373ffffffffffffffffffffffffffffffffffffffff16021790555082600860020181905550816008600301819055506200033a886200046b60201b62000fff1760201c565b6200034a620004c660201b60201c565b600160006101000a81548173ffffffffffffffffffffffffffffffffffffffff021916908373ffffffffffffffffffffffffffffffffffffffff16021790555086601860006101000a81548173ffffffffffffffffffffffffffffffffffffffff021916908373ffffffffffffffffffffffffffffffffffffffff160217905550600060038190555085600481905550600586620003e991906200088f565b600581905550601986620003fe91906200088f565b6006819055506000601860146101000a81548161ffff021916908361ffff160217905550505050505050505062000a49565b600062000442620004ce60201b60201c565b9050818160000160006101000a81548163ffffffff021916908363ffffffff1602179055505050565b60006200047d620004fb60201b60201c565b9050818160000160006101000a81548173ffffffffffffffffffffffffffffffffffffffff021916908373ffffffffffffffffffffffffffffffffffffffff1602179055505050565b600033905090565b6000807fbd21b19d8cf926bda1233d510b187b736a1511d6ea3ecb5758b69f58b71d619e90508091505090565b6000807f1c2ba469bf3fce83211eff010708567fbeeae896c0a247fceb689567699266ec90508091505090565b82805482825590600052602060002090600301600490048101928215620005d25791602002820160005b838211156200059a57835183826101000a81548167ffffffffffffffff021916908361ffff160217905550926020019260080160208160070104928301926001030262000552565b8015620005d05782816101000a81549067ffffffffffffffff02191690556008016020816007010492830192600103026200059a565b505b509050620005e191906200064c565b5090565b82805482825590600052602060002090810192821562000639579160200282015b8281111562000638578251829080519060200190620006279291906200066b565b509160200191906001019062000606565b5b509050620006489190620006fc565b5090565b5b80821115620006675760008160009055506001016200064d565b5090565b828054620006799062000948565b90600052602060002090601f0160209004810192826200069d5760008555620006e9565b82601f10620006b857805160ff1916838001178555620006e9565b82800160010185558215620006e9579182015b82811115620006e8578251825591602001919060010190620006cb565b5b509050620006f891906200064c565b5090565b5b8082111562000720576000818162000716919062000724565b50600101620006fd565b5090565b508054620007329062000948565b6000825580601f1062000746575062000767565b601f0160209004906000526020600020908101906200076691906200064c565b5b50565b6000815190506200077b81620009e1565b92915050565b6000815190506200079281620009fb565b92915050565b600081519050620007a98162000a15565b92915050565b600081519050620007c08162000a2f565b92915050565b600080600080600080600080610100898b031215620007ea57620007e9620009dc565b5b6000620007fa8b828c016200076a565b98505060206200080d8b828c016200076a565b9750506040620008208b828c0162000798565b9650506060620008338b828c016200076a565b9550506080620008468b828c016200076a565b94505060a0620008598b828c0162000781565b93505060c06200086c8b828c0162000798565b92505060e06200087f8b828c01620007af565b9150509295985092959890939650565b60006200089c826200092e565b9150620008a9836200092e565b9250817fffffffffffffffffffffffffffffffffffffffffffffffffffffffffffffffff0483118215151615620008e557620008e46200097e565b5b828202905092915050565b6000620008fd826200090e565b9050919050565b6000819050919050565b600073ffffffffffffffffffffffffffffffffffffffff82169050919050565b6000819050919050565b600063ffffffff82169050919050565b600060028204905060018216806200096157607f821691505b60208210811415620009785762000977620009ad565b5b50919050565b7f4e487b7100000000000000000000000000000000000000000000000000000000600052601160045260246000fd5b7f4e487b7100000000000000000000000000000000000000000000000000000000600052602260045260246000fd5b600080fd5b620009ec81620008f0565b8114620009f857600080fd5b50565b62000a068162000904565b811462000a1257600080fd5b50565b62000a20816200092e565b811462000a2c57600080fd5b50565b62000a3a8162000938565b811462000a4657600080fd5b50565b60805160601c60a05160601c61526462000a6f60003960005050600050506152646000f3fe6080604052600436106100dd5760003560e01c80638dc654a21161007f578063a8aa4d0c11610059578063a8aa4d0c1461025d578063c4fc3b2e14610288578063c7a36bc9146102b3578063e4789a06146102de576100dd565b80638dc654a214610201578063948da4471461021857806394985ddd14610234576100dd565b80632e82967d116100bb5780632e82967d146101575780634ba2363a146101805780634d045e4e146101ab578063547b927f146101d6576100dd565b8063150b7a02146100e2578063173fabeb1461011f5780631e59cd6c1461013b575b600080fd5b3480156100ee57600080fd5b506101096004803603810190610104919061406e565b61031b565b60405161011691906147eb565b60405180910390f35b61013960048036038101906101349190614163565b610322565b005b61015560048036038101906101509190614163565b6105cd565b005b34801561016357600080fd5b5061017e60048036038101906101799190614244565b610878565b005b34801561018c57600080fd5b506101956109c2565b6040516101a291906149eb565b60405180910390f35b3480156101b757600080fd5b506101c06109c8565b6040516101cd9190614761565b60405180910390f35b3480156101e257600080fd5b506101eb610a3b565b6040516101f891906149eb565b60405180910390f35b34801561020d57600080fd5b50610216610a41565b005b610232600480360381019061022d9190614163565b610c33565b005b34801561024057600080fd5b5061025b60048036038101906102569190614123565b610ede565b005b34801561026957600080fd5b50610272610f7f565b60405161027f91906149eb565b60405180910390f35b34801561029457600080fd5b5061029d610f85565b6040516102aa9190614806565b60405180910390f35b3480156102bf57600080fd5b506102c8610f98565b6040516102d591906149eb565b60405180910390f35b3480156102ea57600080fd5b50610305600480360381019061030091906141bd565b610f9e565b6040516103129190614963565b60405180910390f35b6000806000fd5b6001601160009054906101000a900460ff16600381111561034657610345614f05565b5b14610386576040517f08c379a000000000000000000000000000000000000000000000000000000000815260040161037d90614923565b60405180910390fd5b6000600260076008811061039d5761039c614f63565b5b601091828204019190066002029054906101000a900461ffff1661ffff16146103fb576040517f08c379a00000000000000000000000000000000000000000000000000000000081526004016103f290614863565b60405180910390fd5b61040481611052565b610443576040517f08c379a000000000000000000000000000000000000000000000000000000000815260040161043a906148a3565b60405180910390fd5b4261044d82611150565b63ffffffff1610610493576040517f08c379a000000000000000000000000000000000000000000000000000000000815260040161048a90614883565b60405180910390fd5b60045434146104d7576040517f08c379a00000000000000000000000000000000000000000000000000000000081526004016104ce906148e3565b60405180910390fd5b34600360008282546104e99190614b30565b92505081905550806002601860149054906101000a900461ffff1661ffff166008811061051957610518614f63565b5b601091828204019190066002026101000a81548161ffff021916908361ffff1602179055506001601860148282829054906101000a900461ffff1661055e9190614af8565b92506101000a81548161ffff021916908361ffff1602179055506008601860149054906101000a900461ffff1661ffff1614156105ca5761059d611212565b7f4126aef55df6e72e0392d275943b4ab0a209e41cc536f747672dfeb33a749c1d60405160405180910390a15b50565b6002601160009054906101000a900460ff1660038111156105f1576105f0614f05565b5b14610631576040517f08c379a000000000000000000000000000000000000000000000000000000000815260040161062890614923565b60405180910390fd5b6000600260076008811061064857610647614f63565b5b601091828204019190066002029054906101000a900461ffff1661ffff16146106a6576040517f08c379a000000000000000000000000000000000000000000000000000000000815260040161069d90614863565b60405180910390fd5b426106b082611150565b63ffffffff16106106f6576040517f08c379a00000000000000000000000000000000000000000000000000000000081526004016106ed90614883565b60405180910390fd5b6106ff81611052565b61073e576040517f08c379a0000000000000000000000000000000000000000000000000000000008152600401610735906148a3565b60405180910390fd5b6005543414610782576040517f08c379a0000000000000000000000000000000000000000000000000000000008152600401610779906148e3565b60405180910390fd5b34600360008282546107949190614b30565b92505081905550806002601860149054906101000a900461ffff1661ffff16600881106107c4576107c3614f63565b5b601091828204019190066002026101000a81548161ffff021916908361ffff1602179055506001601860148282829054906101000a900461ffff166108099190614af8565b92506101000a81548161ffff021916908361ffff1602179055506008601860149054906101000a900461ffff1661ffff16141561087557610848611212565b7fd1770840e790ec4e01d36843ba94ddf02e08a36725abf42289b2b071b7f11bbf60405160405180910390a15b50565b600160009054906101000a900473ffffffffffffffffffffffffffffffffffffffff1673ffffffffffffffffffffffffffffffffffffffff163373ffffffffffffffffffffffffffffffffffffffff1614610908576040517f08c379a00000000000000000000000000000000000000000000000000000000081526004016108ff90614843565b60405180910390fd5b60008160ff1610158015610920575060038160ff1611155b61092957600080fd5b8060ff16600381111561093f5761093e614f05565b5b601160006101000a81548160ff0219169083600381111561096357610962614f05565b5b02179055507fed635755a5f2c0e0683dbac09037b703954d031a2b11cc1ad4d459e27f2f20e460108260ff16815481106109a05761099f614f63565b5b906000526020600020016040516109b79190614821565b60405180910390a150565b60035481565b6109d0613d4a565b6002600880602002604051908101604052809291908260088015610a31576020028201916000905b82829054906101000a900461ffff1661ffff16815260200190600201906020826001010492830192600103820291508084116109f85790505b5050505050905090565b60045481565b600160009054906101000a900473ffffffffffffffffffffffffffffffffffffffff1673ffffffffffffffffffffffffffffffffffffffff163373ffffffffffffffffffffffffffffffffffffffff1614610ad1576040517f08c379a0000000000000000000000000000000000000000000000000000000008152600401610ac890614843565b60405180910390fd5b600860040160009054906101000a900473ffffffffffffffffffffffffffffffffffffffff1673ffffffffffffffffffffffffffffffffffffffff1663a9059cbb33600860040160009054906101000a900473ffffffffffffffffffffffffffffffffffffffff1673ffffffffffffffffffffffffffffffffffffffff166370a08231306040518263ffffffff1660e01b8152600401610b719190614672565b60206040518083038186803b158015610b8957600080fd5b505afa158015610b9d573d6000803e3d6000fd5b505050506040513d601f19601f82011682018060405250810190610bc191906141ea565b6040518363ffffffff1660e01b8152600401610bde9291906146c4565b602060405180830381600087803b158015610bf857600080fd5b505af1158015610c0c573d6000803e3d6000fd5b505050506040513d601f19601f82011682018060405250810190610c3091906140f6565b50565b6003601160009054906101000a900460ff166003811115610c5757610c56614f05565b5b14610c97576040517f08c379a0000000000000000000000000000000000000000000000000000000008152600401610c8e90614923565b60405180910390fd5b60006002600760088110610cae57610cad614f63565b5b601091828204019190066002029054906101000a900461ffff1661ffff1614610d0c576040517f08c379a0000000000000000000000000000000000000000000000000000000008152600401610d0390614863565b60405180910390fd5b42610d1682611150565b63ffffffff1610610d5c576040517f08c379a0000000000000000000000000000000000000000000000000000000008152600401610d5390614883565b60405180910390fd5b610d6581611052565b610da4576040517f08c379a0000000000000000000000000000000000000000000000000000000008152600401610d9b906148a3565b60405180910390fd5b6006543414610de8576040517f08c379a0000000000000000000000000000000000000000000000000000000008152600401610ddf906148e3565b60405180910390fd5b3460036000828254610dfa9190614b30565b92505081905550806002601860149054906101000a900461ffff1661ffff1660088110610e2a57610e29614f63565b5b601091828204019190066002026101000a81548161ffff021916908361ffff1602179055506001601860148282829054906101000a900461ffff16610e6f9190614af8565b92506101000a81548161ffff021916908361ffff1602179055506008601860149054906101000a900461ffff1661ffff161415610edb57610eae611212565b7fb3e86b5679d90c44339c1a4699a5ab2db24870bc1bbffd9964596a5c4a813e9460405160405180910390a15b50565b600860000160009054906101000a900473ffffffffffffffffffffffffffffffffffffffff1673ffffffffffffffffffffffffffffffffffffffff163373ffffffffffffffffffffffffffffffffffffffff1614610f71576040517f08c379a0000000000000000000000000000000000000000000000000000000008152600401610f68906148c3565b60405180910390fd5b610f7b828261132c565b5050565b60055481565b601160009054906101000a900460ff1681565b60065481565b60028160088110610fae57600080fd5b60109182820401919006600202915054906101000a900461ffff1681565b6000610fd66117c1565b9050818160000160006101000a81548163ffffffff021916908363ffffffff1602179055505050565b60006110096117ee565b9050818160000160006101000a81548173ffffffffffffffffffffffffffffffffffffffff021916908373ffffffffffffffffffffffffffffffffffffffff1602179055505050565b60008061105d6117ee565b90503373ffffffffffffffffffffffffffffffffffffffff168160000160009054906101000a900473ffffffffffffffffffffffffffffffffffffffff1673ffffffffffffffffffffffffffffffffffffffff16636352211e856040518263ffffffff1660e01b81526004016110d3919061497e565b60206040518083038186803b1580156110eb57600080fd5b505afa1580156110ff573d6000803e3d6000fd5b505050506040513d601f19601f820116820180604052508101906111239190614041565b73ffffffffffffffffffffffffffffffffffffffff1614611145576000611148565b60015b915050919050565b60008061115b6117ee565b90508060000160009054906101000a900473ffffffffffffffffffffffffffffffffffffffff1673ffffffffffffffffffffffffffffffffffffffff16636201917f846040518263ffffffff1660e01b81526004016111ba9190614963565b60206040518083038186803b1580156111d257600080fd5b505afa1580156111e6573d6000803e3d6000fd5b505050506040513d601f19601f8201168201806040525081019061120a9190614217565b915050919050565b600860030154600860040160009054906101000a900473ffffffffffffffffffffffffffffffffffffffff1673ffffffffffffffffffffffffffffffffffffffff166370a08231306040518263ffffffff1660e01b81526004016112769190614672565b60206040518083038186803b15801561128e57600080fd5b505afa1580156112a2573d6000803e3d6000fd5b505050506040513d601f19601f820116820180604052508101906112c691906141ea565b1015611307576040517f08c379a00000000000000000000000000000000000000000000000000000000081526004016112fe90614903565b60405180910390fd5b600061131d60086002015460086003015461181b565b90508060086007018190555050565b600860070154821461133d57600080fd5b8060086005018190555061134f613d4a565b600061135f600860050154611990565b91506001601160009054906101000a900460ff16600381111561138557611384614f05565b5b14156114d5576114046113ff60026008806020026040519081016040528092919082600880156113f2576020028201916000905b82829054906101000a900461ffff1661ffff16815260200190600201906020826001010492830192600103820291508084116113b95790505b5050505050846000611a76565b611cc3565b90506000601860146101000a81548161ffff021916908361ffff16021790555061144381611433600354611f08565b61143e600354611f2a565b611f4c565b601160006101000a81549060ff0219169055600260006114639190613d6d565b6012600080820160006114769190613d6d565b6001820160006114869190613d6d565b6002820160006114969190613d74565b6003820160006101000a81549060ff02191690556004820160006114ba9190613d7b565b6005820160006101000a81549060ff021916905550506117bb565b6002601160009054906101000a900460ff1660038111156114f9576114f8614f05565b5b1415611649576115786115736002600880602002604051908101604052809291908260088015611566576020028201916000905b82829054906101000a900461ffff1661ffff168152602001906002019060208260010104928301926001038202915080841161152d5790505b5050505050846000611a76565b612011565b90506000601860146101000a81548161ffff021916908361ffff1602179055506115b7816115a7600354611f08565b6115b2600354611f2a565b611f4c565b601160006101000a81549060ff0219169055600260006115d79190613d6d565b6012600080820160006115ea9190613d6d565b6001820160006115fa9190613d6d565b60028201600061160a9190613d74565b6003820160006101000a81549060ff021916905560048201600061162e9190613d7b565b6005820160006101000a81549060ff021916905550506117ba565b6003601160009054906101000a900460ff16600381111561166d5761166c614f05565b5b14156117b9576116ec6116e760026008806020026040519081016040528092919082600880156116da576020028201916000905b82829054906101000a900461ffff1661ffff16815260200190600201906020826001010492830192600103820291508084116116a15790505b5050505050846001611a76565b612256565b90506000601860146101000a81548161ffff021916908361ffff16021790555061172b8161171b600354611f08565b611726600354611f2a565b611f4c565b601160006101000a81549060ff02191690556002600061174b9190613d6d565b60126000808201600061175e9190613d6d565b60018201600061176e9190613d6d565b60028201600061177e9190613d74565b6003820160006101000a81549060ff02191690556004820160006117a29190613d7b565b6005820160006101000a81549060ff021916905550505b5b5b50505050565b6000807fbd21b19d8cf926bda1233d510b187b736a1511d6ea3ecb5758b69f58b71d619e90508091505090565b6000807f1c2ba469bf3fce83211eff010708567fbeeae896c0a247fceb689567699266ec90508091505090565b6000600860040160009054906101000a900473ffffffffffffffffffffffffffffffffffffffff1673ffffffffffffffffffffffffffffffffffffffff16634000aea0600860000160009054906101000a900473ffffffffffffffffffffffffffffffffffffffff168486600060405160200161189992919061477d565b6040516020818303038152906040526040518463ffffffff1660e01b81526004016118c6939291906146ed565b602060405180830381600087803b1580156118e057600080fd5b505af11580156118f4573d6000803e3d6000fd5b505050506040513d601f19601f8201168201806040525081019061191891906140f6565b50600061193e84600030600860060160008981526020019081526020016000205461249b565b9050600160086006016000868152602001908152602001600020546119639190614b30565b600860060160008681526020019081526020016000208190555061198784826124d7565b91505092915050565b611998613d4a565b6119a0613d4a565b60005b60088160ff161015611a6c5760078160ff16815481106119c6576119c5614f63565b5b90600052602060002090600491828204019190066008029054906101000a900467ffffffffffffffff1667ffffffffffffffff168482604051602001611a0d929190614a06565b6040516020818303038152906040528051906020012060001c611a309190614e76565b828260ff1660088110611a4657611a45614f63565b5b602002019061ffff16908161ffff16815250508080611a6490614e07565b9150506119a3565b5080915050919050565b611a7e613d82565b836012600001906008611a92929190613dd5565b50826012600101906008611aa7929190613dd5565b5081601260050160006101000a81548160ff02191690831515021790555060126040518060c001604052908160008201600880602002604051908101604052809291908260088015611b36576020028201916000905b82829054906101000a900461ffff1661ffff1681526020019060020190602082600101049283019260010382029150808411611afd5790505b5050505050815260200160018201600880602002604051908101604052809291908260088015611ba3576020028201916000905b82829054906101000a900461ffff1661ffff1681526020019060020190602082600101049283019260010382029150808411611b6a5790505b5050505050815260200160028201600280602002604051908101604052809291908260028015611c0e576020028201916000905b82829054906101000a900460ff1660ff1681526020019060010190602082600001049283019260010382029150808411611bd75790505b505050505081526020016003820160009054906101000a900460ff1660ff1660ff16815260200160048201600380602002604051908101604052809291908260038015611c96576020028201916000905b82829054906101000a900460ff1660ff1681526020019060010190602082600001049283019260010382029150808411611c5f5790505b505050505081526020016005820160009054906101000a900460ff16151515158152505090509392505050565b60006008826020015150600814611cd957600080fd5b7f30ac06c3175d29725e284637cb9691f6975bfd75c28f7f552e66563977cac68d8260000151604051611d0c9190614761565b60405180910390a1611d1d8261250a565b9150611d288261277b565b9150611d3382612bf0565b91507f556f3838b96a3ed57ea8c6e614c3349ada0231b9c478a5f37478a627bb65e028604051806060016040528084600001518560800151600060038110611d7e57611d7d614f63565b5b602002015160ff1660088110611d9757611d96614f63565b5b602002015161ffff1661ffff16815260200184600001518560800151600160038110611dc657611dc5614f63565b5b602002015160ff1660088110611ddf57611dde614f63565b5b602002015161ffff1661ffff16815260200184600001518560800151600260038110611e0e57611e0d614f63565b5b602002015160ff1660088110611e2757611e26614f63565b5b602002015161ffff1661ffff16815250604051611e449190614746565b60405180910390a1611e5582612e7f565b7fbb51888c41405dffbec1fcc2dbda08dd1e43b3d9211de8e235921676cceba1e382600001518360800151600060038110611e9357611e92614f63565b5b602002015160ff1660088110611eac57611eab614f63565b5b6020020151604051611ebe9190614963565b60405180910390a181600001518260800151600060038110611ee357611ee2614f63565b5b602002015160ff1660088110611efc57611efb614f63565b5b60200201519050919050565b6000605f606483611f199190614bbd565b611f239190614c1f565b9050919050565b60006005606483611f3b9190614bbd565b611f459190614c1f565b9050919050565b611f5583612ea6565b73ffffffffffffffffffffffffffffffffffffffff166108fc839081150290604051600060405180830381858888f19350505050158015611f9a573d6000803e3d6000fd5b50601860009054906101000a900473ffffffffffffffffffffffffffffffffffffffff1673ffffffffffffffffffffffffffffffffffffffff166108fc829081150290604051600060405180830381858888f19350505050158015612003573d6000803e3d6000fd5b506000600381905550505050565b6000600882602001515060081461202757600080fd5b7f5cc59dcf45d0ffe822cc2d2ddecc363640094be98218bf9bda4ab082ca4942fb826000015160405161205a9190614761565b60405180910390a161206b8261250a565b91506120768261277b565b915061208182612bf0565b91507f556f3838b96a3ed57ea8c6e614c3349ada0231b9c478a5f37478a627bb65e0286040518060600160405280846000015185608001516000600381106120cc576120cb614f63565b5b602002015160ff16600881106120e5576120e4614f63565b5b602002015161ffff1661ffff1681526020018460000151856080015160016003811061211457612113614f63565b5b602002015160ff166008811061212d5761212c614f63565b5b602002015161ffff1661ffff1681526020018460000151856080015160026003811061215c5761215b614f63565b5b602002015160ff166008811061217557612174614f63565b5b602002015161ffff1661ffff168152506040516121929190614746565b60405180910390a16121a382612f68565b7fa623ca69cf849dca2d694b88e0bddd381352f2969d41f7dda7871c3d23084770826000015183608001516000600381106121e1576121e0614f63565b5b602002015160ff16600881106121fa576121f9614f63565b5b602002015160405161220c9190614963565b60405180910390a18160000151826080015160006003811061223157612230614f63565b5b602002015160ff166008811061224a57612249614f63565b5b60200201519050919050565b6000600882602001515060081461226c57600080fd5b7fda9fbb5433d3af0d13194d6e235811b2ac98662cd69d6bde9ec9435aadf33090826000015160405161229f9190614761565b60405180910390a16122b08261250a565b91506122bb8261277b565b91506122c682612bf0565b91507f556f3838b96a3ed57ea8c6e614c3349ada0231b9c478a5f37478a627bb65e02860405180606001604052808460000151856080015160006003811061231157612310614f63565b5b602002015160ff166008811061232a57612329614f63565b5b602002015161ffff1661ffff1681526020018460000151856080015160016003811061235957612358614f63565b5b602002015160ff166008811061237257612371614f63565b5b602002015161ffff1661ffff168152602001846000015185608001516002600381106123a1576123a0614f63565b5b602002015160ff16600881106123ba576123b9614f63565b5b602002015161ffff1661ffff168152506040516123d79190614746565b60405180910390a16123e882612f8f565b7f9ee531b4c9f9dd0ac16f44db9a3cb7695fe808db74bd6742920b21a434c852808260000151836080015160006003811061242657612425614f63565b5b602002015160ff166008811061243f5761243e614f63565b5b60200201516040516124519190614963565b60405180910390a18160000151826080015160006003811061247657612475614f63565b5b602002015160ff166008811061248f5761248e614f63565b5b60200201519050919050565b6000848484846040516020016124b494939291906147a6565b6040516020818303038152906040528051906020012060001c9050949350505050565b600082826040516020016124ec929190614646565b60405160208183030381529060405280519060200120905092915050565b612512613d82565b600282602001515060081461252657600080fd5b600882602001516000600881106125405761253f614f63565b5b602002015161254f9190614e45565b826040015160006002811061256757612566614f63565b5b602002019060ff16908160ff16815250506008826020015160016008811061259257612591614f63565b5b60200201516125a19190614e45565b82604001516001600281106125b9576125b8614f63565b5b602002019060ff16908160ff16815250505b81604001516001600281106125e3576125e2614f63565b5b602002015160ff16826040015160006002811061260357612602614f63565b5b602002015160ff1614156126a4576000612638836040015160006002811061262e5761262d614f63565b5b6020020151612fb6565b90508061269e576007836020015160036008811061265957612658614f63565b5b60200201516126689190614e45565b60006126749190614b86565b836040015160006002811061268c5761268b614f63565b5b602002019060ff16908160ff16815250505b506125cb565b7fd9dcfc5cbe089f518aff1babf0aee6928da985104f2026b8ad145190cce552ef6040518060400160405280846000015185604001516000600281106126ed576126ec614f63565b5b602002015160ff166008811061270657612705614f63565b5b602002015161ffff1661ffff1681526020018460000151856040015160016002811061273557612734614f63565b5b602002015160ff166008811061274e5761274d614f63565b5b602002015161ffff1661ffff1681525060405161276b919061472b565b60405180910390a1819050919050565b612783613d82565b600080600284602001516004600881106127a05761279f614f63565b5b60200201516127af9190614e45565b61ffff16146127dd5782604001516001600281106127d0576127cf614f63565b5b60200201519050806127fe565b82604001516000600281106127f5576127f4614f63565b5b60200201519050805b50826040015160006002811061281757612816614f63565b5b602002015160ff168160ff161415612a0a577f553875a05605845d3c0472fc96b9aeadc5f68b4d29d75fb80cdb82e6d3d7984c8360000151846040015160006002811061286757612866614f63565b5b602002015160ff16600881106128805761287f614f63565b5b60200201516040516128929190614963565b60405180910390a182604001516000600281106128b2576128b1614f63565b5b6020020151836060019060ff16908160ff16815250508260a00151612950577f58cf999f6795f5857eb2b3dc340e321768493fff3f14c70b6fdccfb57dae7ae48360000151846040015160016002811061290f5761290e614f63565b5b602002015160ff166008811061292857612927614f63565b5b602002015160405161293a9190614963565b60405180910390a161294b83612fe9565b612a05565b612993836000015184604001516001600281106129705761296f614f63565b5b602002015160ff166008811061298957612988614f63565b5b6020020151613195565b7fc98f482e8d4bd36b9d5e73a0ae52c1087fcbb72dff56af788ffd1846bb422b8a836000015184604001516001600281106129d1576129d0614f63565b5b602002015160ff16600881106129ea576129e9614f63565b5b60200201516040516129fc9190614963565b60405180910390a15b612be7565b8260400151600160028110612a2257612a21614f63565b5b6020020151836060019060ff16908160ff16815250507f553875a05605845d3c0472fc96b9aeadc5f68b4d29d75fb80cdb82e6d3d7984c83600001518460400151600160028110612a7657612a75614f63565b5b602002015160ff1660088110612a8f57612a8e614f63565b5b6020020151604051612aa19190614963565b60405180910390a18260a00151612b3157612abb83612fe9565b7f58cf999f6795f5857eb2b3dc340e321768493fff3f14c70b6fdccfb57dae7ae483600001518460400151600060028110612af957612af8614f63565b5b602002015160ff1660088110612b1257612b11614f63565b5b6020020151604051612b249190614963565b60405180910390a1612be6565b612b7483600001518460400151600060028110612b5157612b50614f63565b5b602002015160ff1660088110612b6a57612b69614f63565b5b6020020151613195565b7fc98f482e8d4bd36b9d5e73a0ae52c1087fcbb72dff56af788ffd1846bb422b8a83600001518460400151600060028110612bb257612bb1614f63565b5b602002015160ff1660088110612bcb57612bca614f63565b5b6020020151604051612bdd9190614963565b60405180910390a15b5b82915050919050565b612bf8613d82565b6008826020015150600814612c0c57600080fd5b6000612c16613d4a565b6000612c206117ee565b60000160009054906101000a900473ffffffffffffffffffffffffffffffffffffffff1690505b60088360ff161015612d36578073ffffffffffffffffffffffffffffffffffffffff16638bffef6286600001518560ff1660088110612c8957612c88614f63565b5b60200201516040518263ffffffff1660e01b8152600401612caa9190614963565b60206040518083038186803b158015612cc257600080fd5b505afa158015612cd6573d6000803e3d6000fd5b505050506040513d601f19601f82011682018060405250810190612cfa9190614190565b828460ff1660088110612d1057612d0f614f63565b5b602002019061ffff16908161ffff16815250508280612d2e90614e07565b935050612c47565b60009250612d42613e72565b612d4a613e95565b6000612d546117c1565b60000160009054906101000a900463ffffffff1690505b60088660ff161015612e5b57600588602001518760ff1660088110612d9357612d92614f63565b5b6020020151612da29190614e45565b838760ff1660088110612db857612db7614f63565b5b602002019060ff16908160ff1681525050828660ff1660088110612ddf57612dde614f63565b5b602002015160ff16858760ff1660088110612dfd57612dfc614f63565b5b6020020151612e0c9190614af8565b61ffff1681612e1b9190614bee565b828760ff1660088110612e3157612e30614f63565b5b602002019063ffffffff16908163ffffffff16815250508580612e5390614e07565b965050612d6b565b612e69886040015183613241565b8860800181905250879650505050505050919050565b612e8881613596565b612e91816136d4565b612e9a8161384e565b612ea3816139ab565b50565b600080612eb16117ee565b90508060000160009054906101000a900473ffffffffffffffffffffffffffffffffffffffff1673ffffffffffffffffffffffffffffffffffffffff16636352211e846040518263ffffffff1660e01b8152600401612f10919061497e565b60206040518083038186803b158015612f2857600080fd5b505afa158015612f3c573d6000803e3d6000fd5b505050506040513d601f19601f82011682018060405250810190612f609190614041565b915050919050565b612f7181613b4a565b612f7a816136d4565b612f838161384e565b612f8c816139ab565b50565b612f9881613b4a565b612fa1816136d4565b612faa8161384e565b612fb3816139ab565b50565b600060088260ff16108015612fcf575060008260ff1610155b612fdd576000905080612fe3565b60019050805b50919050565b6000612ff36117ee565b60000160009054906101000a900473ffffffffffffffffffffffffffffffffffffffff1690506000826040015160006002811061303357613032614f63565b5b602002015160ff16836060015160ff1614613052576000905080613058565b60019050805b50600061308284600001518360ff166008811061307857613077614f63565b5b6020020151613c88565b90506000816130965761a8c090508061309d565b6154609050805b5060008473ffffffffffffffffffffffffffffffffffffffff1663a57ce66187600001518660ff16600881106130d6576130d5614f63565b5b6020020151846040518363ffffffff1660e01b81526004016130f9929190614999565b602060405180830381600087803b15801561311357600080fd5b505af1158015613127573d6000803e3d6000fd5b505050506040513d601f19601f8201168201806040525081019061314b91906140f6565b90508061318d576040517f08c379a000000000000000000000000000000000000000000000000000000000815260040161318490614943565b60405180910390fd5b505050505050565b600061319f6117ee565b90508060000160009054906101000a900473ffffffffffffffffffffffffffffffffffffffff1673ffffffffffffffffffffffffffffffffffffffff166342842e0e6131ea84612ea6565b6000856040518463ffffffff1660e01b815260040161320b9392919061468d565b600060405180830381600087803b15801561322557600080fd5b505af1158015613239573d6000803e3d6000fd5b505050505050565b613249613eb8565b6000614e209050613258613eb8565b60005b60088160ff16101561333b578560006002811061327b5761327a614f63565b5b602002015160ff168160ff161415806132b25750856001600281106132a3576132a2614f63565b5b602002015160ff168160ff1614155b15613328578261ffff16858260ff16600881106132d2576132d1614f63565b5b602002015163ffffffff16101561332757848160ff16600881106132f9576132f8614f63565b5b60200201519250808260006003811061331557613314614f63565b5b602002019060ff16908160ff16815250505b5b808061333390614e07565b91505061325b565b614e209250600090505b60088160ff16101561344e578560006002811061336557613364614f63565b5b602002015160ff168160ff1614158061339c57508560016002811061338d5761338c614f63565b5b602002015160ff168160ff1614155b806133c55750816000600381106133b6576133b5614f63565b5b602002015160ff168160ff1614155b1561343b578261ffff16858260ff16600881106133e5576133e4614f63565b5b602002015163ffffffff16101561343a57848160ff166008811061340c5761340b614f63565b5b60200201519250808260016003811061342857613427614f63565b5b602002019060ff16908160ff16815250505b5b808061344690614e07565b915050613345565b614e209250600090505b60088160ff16101561358a578560006002811061347857613477614f63565b5b602002015160ff168160ff161415806134af5750856001600281106134a05761349f614f63565b5b602002015160ff168160ff1614155b806134d85750816000600381106134c9576134c8614f63565b5b602002015160ff168160ff1614155b806135015750816002600381106134f2576134f1614f63565b5b602002015160ff168160ff1614155b15613577578261ffff16858260ff166008811061352157613520614f63565b5b602002015163ffffffff16101561357657848160ff166008811061354857613547614f63565b5b60200201519250808260026003811061356457613563614f63565b5b602002019060ff16908160ff16815250505b5b808061358290614e07565b915050613458565b81935050505092915050565b60006135a06117ee565b60000160009054906101000a900473ffffffffffffffffffffffffffffffffffffffff16905060008173ffffffffffffffffffffffffffffffffffffffff16637e442efa8460000151856080015160006003811061360157613600614f63565b5b602002015160ff166008811061361a57613619614f63565b5b60200201516040518263ffffffff1660e01b815260040161363b9190614963565b602060405180830381600087803b15801561365557600080fd5b505af1158015613669573d6000803e3d6000fd5b505050506040513d601f19601f8201168201806040525081019061368d91906140f6565b9050806136cf576040517f08c379a00000000000000000000000000000000000000000000000000000000081526004016136c690614943565b60405180910390fd5b505050565b60006001600383602001516007600881106136f2576136f1614f63565b5b60200201516137019190614e45565b61370b9190614b86565b905060006137176117ee565b60000160009054906101000a900473ffffffffffffffffffffffffffffffffffffffff16905060008173ffffffffffffffffffffffffffffffffffffffff1663bb5553448560000151866080015160006003811061377857613777614f63565b5b602002015160ff166008811061379157613790614f63565b5b6020020151856040518363ffffffff1660e01b81526004016137b49291906149c2565b602060405180830381600087803b1580156137ce57600080fd5b505af11580156137e2573d6000803e3d6000fd5b505050506040513d601f19601f8201168201806040525081019061380691906140f6565b905080613848576040517f08c379a000000000000000000000000000000000000000000000000000000000815260040161383f90614943565b60405180910390fd5b50505050565b60006138586117ee565b60000160009054906101000a900473ffffffffffffffffffffffffffffffffffffffff16905060005b60038110156139a65760008273ffffffffffffffffffffffffffffffffffffffff16630c7c97078560000151866080015185600381106138c4576138c3614f63565b5b602002015160ff16600881106138dd576138dc614f63565b5b60200201516040518263ffffffff1660e01b81526004016138fe9190614963565b602060405180830381600087803b15801561391857600080fd5b505af115801561392c573d6000803e3d6000fd5b505050506040513d601f19601f8201168201806040525081019061395091906140f6565b905080613992576040517f08c379a000000000000000000000000000000000000000000000000000000000815260040161398990614943565b60405180910390fd5b50808061399e90614dbe565b915050613881565b505050565b60006001600383602001516004600881106139c9576139c8614f63565b5b60200201516139d89190614e45565b6139e29190614b86565b905060006139ee6117ee565b60000160009054906101000a900473ffffffffffffffffffffffffffffffffffffffff16905060008360400151600060028110613a2e57613a2d614f63565b5b602002015160ff16846060015160ff1614613a4d576001905080613a53565b60009050805b5060008273ffffffffffffffffffffffffffffffffffffffff1663b4dd385e86600001518460ff1660088110613a8c57613a8b614f63565b5b6020020151866040518363ffffffff1660e01b8152600401613aaf9291906149c2565b602060405180830381600087803b158015613ac957600080fd5b505af1158015613add573d6000803e3d6000fd5b505050506040513d601f19601f82011682018060405250810190613b0191906140f6565b905080613b43576040517f08c379a0000000000000000000000000000000000000000000000000000000008152600401613b3a90614943565b60405180910390fd5b5050505050565b6000613b546117ee565b60000160009054906101000a900473ffffffffffffffffffffffffffffffffffffffff16905060008173ffffffffffffffffffffffffffffffffffffffff16639d7182ee84600001518560800151600060038110613bb557613bb4614f63565b5b602002015160ff1660088110613bce57613bcd614f63565b5b60200201516040518263ffffffff1660e01b8152600401613bef9190614963565b602060405180830381600087803b158015613c0957600080fd5b505af1158015613c1d573d6000803e3d6000fd5b505050506040513d601f19601f82011682018060405250810190613c4191906140f6565b905080613c83576040517f08c379a0000000000000000000000000000000000000000000000000000000008152600401613c7a90614943565b60405180910390fd5b505050565b600080613c936117ee565b90508060000160009054906101000a900473ffffffffffffffffffffffffffffffffffffffff1673ffffffffffffffffffffffffffffffffffffffff166395d76d9d846040518263ffffffff1660e01b8152600401613cf29190614963565b60206040518083038186803b158015613d0a57600080fd5b505afa158015613d1e573d6000803e3d6000fd5b505050506040513d601f19601f82011682018060405250810190613d4291906140f6565b915050919050565b604051806101000160405280600890602082028036833780820191505090505090565b5060009055565b5060009055565b5060009055565b6040518060c00160405280613d95613d4a565b8152602001613da2613d4a565b8152602001613daf613eda565b8152602001600060ff168152602001613dc6613eb8565b81526020016000151581525090565b826008600f01601090048101928215613e615791602002820160005b83821115613e3157835183826101000a81548161ffff021916908361ffff1602179055509260200192600201602081600101049283019260010302613df1565b8015613e5f5782816101000a81549061ffff0219169055600201602081600101049283019260010302613e31565b505b509050613e6e9190613efc565b5090565b604051806101000160405280600890602082028036833780820191505090505090565b604051806101000160405280600890602082028036833780820191505090505090565b6040518060600160405280600390602082028036833780820191505090505090565b6040518060400160405280600290602082028036833780820191505090505090565b5b80821115613f15576000816000905550600101613efd565b5090565b600081359050613f288161518d565b92915050565b600081519050613f3d8161518d565b92915050565b600081519050613f52816151a4565b92915050565b600081359050613f67816151bb565b92915050565b60008083601f840112613f8357613f82614f97565b5b8235905067ffffffffffffffff811115613fa057613f9f614f92565b5b602083019150836001820283011115613fbc57613fbb614f9c565b5b9250929050565b600081359050613fd2816151d2565b92915050565b600081519050613fe7816151d2565b92915050565b600081359050613ffc816151e9565b92915050565b600081519050614011816151e9565b92915050565b60008151905061402681615200565b92915050565b60008135905061403b81615217565b92915050565b60006020828403121561405757614056614fa6565b5b600061406584828501613f2e565b91505092915050565b60008060008060006080868803121561408a57614089614fa6565b5b600061409888828901613f19565b95505060206140a988828901613f19565b94505060406140ba88828901613fed565b935050606086013567ffffffffffffffff8111156140db576140da614fa1565b5b6140e788828901613f6d565b92509250509295509295909350565b60006020828403121561410c5761410b614fa6565b5b600061411a84828501613f43565b91505092915050565b6000806040838503121561413a57614139614fa6565b5b600061414885828601613f58565b925050602061415985828601613fed565b9150509250929050565b60006020828403121561417957614178614fa6565b5b600061418784828501613fc3565b91505092915050565b6000602082840312156141a6576141a5614fa6565b5b60006141b484828501613fd8565b91505092915050565b6000602082840312156141d3576141d2614fa6565b5b60006141e184828501613fed565b91505092915050565b600060208284031215614200576141ff614fa6565b5b600061420e84828501614002565b91505092915050565b60006020828403121561422d5761422c614fa6565b5b600061423b84828501614017565b91505092915050565b60006020828403121561425a57614259614fa6565b5b60006142688482850161402c565b91505092915050565b600061427d83836145d5565b60208301905092915050565b61429281614c79565b82525050565b6142a181614a62565b6142ab8184614ab5565b92506142b682614a2f565b8060005b838110156142e75781516142ce8782614271565b96506142d983614a8e565b9250506001810190506142ba565b505050505050565b6142f881614a6d565b6143028184614ac0565b925061430d82614a39565b8060005b8381101561433e5781516143258782614271565b965061433083614a9b565b925050600181019050614311565b505050505050565b61434f81614a78565b6143598184614acb565b925061436482614a43565b8060005b8381101561439557815161437c8782614271565b965061438783614aa8565b925050600181019050614368565b505050505050565b6143a681614c97565b82525050565b6143bd6143b882614c97565b614e31565b82525050565b6143cc81614ca1565b82525050565b60006143dd82614a83565b6143e78185614ad6565b93506143f7818560208601614d59565b61440081614fab565b840191505092915050565b61441481614d35565b82525050565b6000815461442781614d8c565b6144318186614ae7565b9450600182166000811461444c576001811461445e57614491565b60ff1983168652602086019350614491565b61446785614a4d565b60005b838110156144895781548189015260018201915060208101905061446a565b808801955050505b50505092915050565b60006144a7601e83614ae7565b91506144b282614fbc565b602082019050919050565b60006144ca601d83614ae7565b91506144d582614fe5565b602082019050919050565b60006144ed602683614ae7565b91506144f88261500e565b604082019050919050565b6000614510601a83614ae7565b915061451b8261505d565b602082019050919050565b6000614533601f83614ae7565b915061453e82615086565b602082019050919050565b6000614556601e83614ae7565b9150614561826150af565b602082019050919050565b6000614579601783614ae7565b9150614584826150d8565b602082019050919050565b600061459c602e83614ae7565b91506145a782615101565b604082019050919050565b60006145bf600583614ae7565b91506145ca82615150565b602082019050919050565b6145de81614ce0565b82525050565b6145ed81614ce0565b82525050565b6145fc81614d47565b82525050565b61460b81614d0e565b82525050565b61462261461d82614d0e565b614e3b565b82525050565b61463181614d18565b82525050565b61464081614d28565b82525050565b600061465282856143ac565b6020820191506146628284614611565b6020820191508190509392505050565b60006020820190506146876000830184614289565b92915050565b60006060820190506146a26000830186614289565b6146af6020830185614289565b6146bc60408301846145f3565b949350505050565b60006040820190506146d96000830185614289565b6146e66020830184614602565b9392505050565b60006060820190506147026000830186614289565b61470f6020830185614602565b818103604083015261472181846143d2565b9050949350505050565b60006040820190506147406000830184614298565b92915050565b600060608201905061475b60008301846142ef565b92915050565b6000610100820190506147776000830184614346565b92915050565b6000604082019050614792600083018561439d565b61479f6020830184614602565b9392505050565b60006080820190506147bb600083018761439d565b6147c86020830186614602565b6147d56040830185614289565b6147e26060830184614602565b95945050505050565b600060208201905061480060008301846143c3565b92915050565b600060208201905061481b600083018461440b565b92915050565b6000602082019050818103600083015261483b818461441a565b905092915050565b6000602082019050818103600083015261485c8161449a565b9050919050565b6000602082019050818103600083015261487c816144bd565b9050919050565b6000602082019050818103600083015261489c816144e0565b9050919050565b600060208201905081810360008301526148bc81614503565b9050919050565b600060208201905081810360008301526148dc81614526565b9050919050565b600060208201905081810360008301526148fc81614549565b9050919050565b6000602082019050818103600083015261491c8161456c565b9050919050565b6000602082019050818103600083015261493c8161458f565b9050919050565b6000602082019050818103600083015261495c816145b2565b9050919050565b600060208201905061497860008301846145e4565b92915050565b600060208201905061499360008301846145f3565b92915050565b60006040820190506149ae60008301856145e4565b6149bb6020830184614628565b9392505050565b60006040820190506149d760008301856145e4565b6149e46020830184614637565b9392505050565b6000602082019050614a006000830184614602565b92915050565b6000604082019050614a1b6000830185614602565b614a286020830184614637565b9392505050565b6000819050919050565b6000819050919050565b6000819050919050565b60008190508160005260206000209050919050565b600060029050919050565b600060039050919050565b600060089050919050565b600081519050919050565b6000602082019050919050565b6000602082019050919050565b6000602082019050919050565b600081905092915050565b600081905092915050565b600081905092915050565b600082825260208201905092915050565b600082825260208201905092915050565b6000614b0382614ce0565b9150614b0e83614ce0565b92508261ffff03821115614b2557614b24614ea7565b5b828201905092915050565b6000614b3b82614d0e565b9150614b4683614d0e565b9250827fffffffffffffffffffffffffffffffffffffffffffffffffffffffffffffffff03821115614b7b57614b7a614ea7565b5b828201905092915050565b6000614b9182614d28565b9150614b9c83614d28565b92508260ff03821115614bb257614bb1614ea7565b5b828201905092915050565b6000614bc882614d0e565b9150614bd383614d0e565b925082614be357614be2614ed6565b5b828204905092915050565b6000614bf982614d18565b9150614c0483614d18565b925082614c1457614c13614ed6565b5b828204905092915050565b6000614c2a82614d0e565b9150614c3583614d0e565b9250817fffffffffffffffffffffffffffffffffffffffffffffffffffffffffffffffff0483118215151615614c6e57614c6d614ea7565b5b828202905092915050565b6000614c8482614cee565b9050919050565b60008115159050919050565b6000819050919050565b60007fffffffff0000000000000000000000000000000000000000000000000000000082169050919050565b6000819050614cdb82615179565b919050565b600061ffff82169050919050565b600073ffffffffffffffffffffffffffffffffffffffff82169050919050565b6000819050919050565b600063ffffffff82169050919050565b600060ff82169050919050565b6000614d4082614ccd565b9050919050565b6000614d5282614ce0565b9050919050565b60005b83811015614d77578082015181840152602081019050614d5c565b83811115614d86576000848401525b50505050565b60006002820490506001821680614da457607f821691505b60208210811415614db857614db7614f34565b5b50919050565b6000614dc982614d0e565b91507fffffffffffffffffffffffffffffffffffffffffffffffffffffffffffffffff821415614dfc57614dfb614ea7565b5b600182019050919050565b6000614e1282614d28565b915060ff821415614e2657614e25614ea7565b5b600182019050919050565b6000819050919050565b6000819050919050565b6000614e5082614ce0565b9150614e5b83614ce0565b925082614e6b57614e6a614ed6565b5b828206905092915050565b6000614e8182614d0e565b9150614e8c83614d0e565b925082614e9c57614e9b614ed6565b5b828206905092915050565b7f4e487b7100000000000000000000000000000000000000000000000000000000600052601160045260246000fd5b7f4e487b7100000000000000000000000000000000000000000000000000000000600052601260045260246000fd5b7f4e487b7100000000000000000000000000000000000000000000000000000000600052602160045260246000fd5b7f4e487b7100000000000000000000000000000000000000000000000000000000600052602260045260246000fd5b7f4e487b7100000000000000000000000000000000000000000000000000000000600052603260045260246000fd5b600080fd5b600080fd5b600080fd5b600080fd5b600080fd5b6000601f19601f8301169050919050565b7f596f752063616e206e6f742063616c6c20746869732066756e6374696f6e0000600082015250565b7f596f752063616e206e6f74206a6f696e20617420746869732074696d65000000600082015250565b7f596f757220726170746f72206973206e6f7420617661696c61626c652072696760008201527f6874206e6f770000000000000000000000000000000000000000000000000000602082015250565b7f596f7520646f206e6f74206f776e207468697320726170746f72000000000000600082015250565b7f4f6e6c7920565246436f6f7264696e61746f722063616e2066756c66696c6c00600082015250565b7f596f752068617665206e6f742073656e7420656e6f7567682066756e64730000600082015250565b7f4e6f7420656e6f756768204c494e4b2062616c616e6365000000000000000000600082015250565b7f546869732072616365207175657565206973206e6f7420617661696c61626c6560008201527f20617420746865206d6f6d656e74000000000000000000000000000000000000602082015250565b7f4572726f72000000000000000000000000000000000000000000000000000000600082015250565b6004811061518a57615189614f05565b5b50565b61519681614c79565b81146151a157600080fd5b50565b6151ad81614c8b565b81146151b857600080fd5b50565b6151c481614c97565b81146151cf57600080fd5b50565b6151db81614ce0565b81146151e657600080fd5b50565b6151f281614d0e565b81146151fd57600080fd5b50565b61520981614d18565b811461521457600080fd5b50565b61522081614d28565b811461522b57600080fd5b5056fea26469706673582212208ce326f57844d6b820c119fc5bc2debee83b6a53a0e96f238a04a39a00ce9c7e64736f6c63430008070033",
          "opcodes": "PUSH1 0xC0 PUSH1 0x40 MSTORE PUSH1 0x40 MLOAD DUP1 PUSH2 0x100 ADD PUSH1 0x40 MSTORE DUP1 PUSH2 0x19DB PUSH2 0xFFFF AND DUP2 MSTORE PUSH1 0x20 ADD PUSH2 0x1A3F PUSH2 0xFFFF AND DUP2 MSTORE PUSH1 0x20 ADD PUSH2 0x1C8D PUSH2 0xFFFF AND DUP2 MSTORE PUSH1 0x20 ADD PUSH2 0x1CE1 PUSH2 0xFFFF AND DUP2 MSTORE PUSH1 0x20 ADD PUSH2 0x1EAD PUSH2 0xFFFF AND DUP2 MSTORE PUSH1 0x20 ADD PUSH2 0x1EEF PUSH2 0xFFFF AND DUP2 MSTORE PUSH1 0x20 ADD PUSH2 0x1E2F PUSH2 0xFFFF AND DUP2 MSTORE PUSH1 0x20 ADD PUSH2 0xC5F PUSH2 0xFFFF AND DUP2 MSTORE POP PUSH1 0x7 SWAP1 PUSH1 0x8 PUSH3 0x80 SWAP3 SWAP2 SWAP1 PUSH3 0x528 JUMP JUMPDEST POP PUSH1 0x40 MLOAD DUP1 PUSH1 0x80 ADD PUSH1 0x40 MSTORE DUP1 PUSH1 0x40 MLOAD DUP1 PUSH1 0x40 ADD PUSH1 0x40 MSTORE DUP1 PUSH1 0x7 DUP2 MSTORE PUSH1 0x20 ADD PUSH32 0x5374616E64427900000000000000000000000000000000000000000000000000 DUP2 MSTORE POP DUP2 MSTORE PUSH1 0x20 ADD PUSH1 0x40 MLOAD DUP1 PUSH1 0x40 ADD PUSH1 0x40 MSTORE DUP1 PUSH1 0x9 DUP2 MSTORE PUSH1 0x20 ADD PUSH32 0x517569636B506C61790000000000000000000000000000000000000000000000 DUP2 MSTORE POP DUP2 MSTORE PUSH1 0x20 ADD PUSH1 0x40 MLOAD DUP1 PUSH1 0x40 ADD PUSH1 0x40 MSTORE DUP1 PUSH1 0xB DUP2 MSTORE PUSH1 0x20 ADD PUSH32 0x436F6D7065746974697665000000000000000000000000000000000000000000 DUP2 MSTORE POP DUP2 MSTORE PUSH1 0x20 ADD PUSH1 0x40 MLOAD DUP1 PUSH1 0x40 ADD PUSH1 0x40 MSTORE DUP1 PUSH1 0x9 DUP2 MSTORE PUSH1 0x20 ADD PUSH32 0x4465617468526163650000000000000000000000000000000000000000000000 DUP2 MSTORE POP DUP2 MSTORE POP PUSH1 0x10 SWAP1 PUSH1 0x4 PUSH3 0x188 SWAP3 SWAP2 SWAP1 PUSH3 0x5E5 JUMP JUMPDEST POP CALLVALUE DUP1 ISZERO PUSH3 0x196 JUMPI PUSH1 0x0 DUP1 REVERT JUMPDEST POP PUSH1 0x40 MLOAD PUSH3 0x5CD3 CODESIZE SUB DUP1 PUSH3 0x5CD3 DUP4 CODECOPY DUP2 DUP2 ADD PUSH1 0x40 MSTORE DUP2 ADD SWAP1 PUSH3 0x1BC SWAP2 SWAP1 PUSH3 0x7C6 JUMP JUMPDEST DUP5 DUP5 DUP2 PUSH20 0xFFFFFFFFFFFFFFFFFFFFFFFFFFFFFFFFFFFFFFFF AND PUSH1 0xA0 DUP2 PUSH20 0xFFFFFFFFFFFFFFFFFFFFFFFFFFFFFFFFFFFFFFFF AND PUSH1 0x60 SHL DUP2 MSTORE POP POP DUP1 PUSH20 0xFFFFFFFFFFFFFFFFFFFFFFFFFFFFFFFFFFFFFFFF AND PUSH1 0x80 DUP2 PUSH20 0xFFFFFFFFFFFFFFFFFFFFFFFFFFFFFFFFFFFFFFFF AND PUSH1 0x60 SHL DUP2 MSTORE POP POP POP POP PUSH3 0x244 DUP2 PUSH3 0x430 PUSH1 0x20 SHL PUSH3 0xFCC OR PUSH1 0x20 SHR JUMP JUMPDEST DUP4 PUSH1 0x8 PUSH1 0x4 ADD PUSH1 0x0 PUSH2 0x100 EXP DUP2 SLOAD DUP2 PUSH20 0xFFFFFFFFFFFFFFFFFFFFFFFFFFFFFFFFFFFFFFFF MUL NOT AND SWAP1 DUP4 PUSH20 0xFFFFFFFFFFFFFFFFFFFFFFFFFFFFFFFFFFFFFFFF AND MUL OR SWAP1 SSTORE POP DUP5 PUSH1 0x8 PUSH1 0x0 ADD PUSH1 0x0 PUSH2 0x100 EXP DUP2 SLOAD DUP2 PUSH20 0xFFFFFFFFFFFFFFFFFFFFFFFFFFFFFFFFFFFFFFFF MUL NOT AND SWAP1 DUP4 PUSH20 0xFFFFFFFFFFFFFFFFFFFFFFFFFFFFFFFFFFFFFFFF AND MUL OR SWAP1 SSTORE POP DUP4 PUSH1 0x8 PUSH1 0x1 ADD PUSH1 0x0 PUSH2 0x100 EXP DUP2 SLOAD DUP2 PUSH20 0xFFFFFFFFFFFFFFFFFFFFFFFFFFFFFFFFFFFFFFFF MUL NOT AND SWAP1 DUP4 PUSH20 0xFFFFFFFFFFFFFFFFFFFFFFFFFFFFFFFFFFFFFFFF AND MUL OR SWAP1 SSTORE POP DUP3 PUSH1 0x8 PUSH1 0x2 ADD DUP2 SWAP1 SSTORE POP DUP2 PUSH1 0x8 PUSH1 0x3 ADD DUP2 SWAP1 SSTORE POP PUSH3 0x33A DUP9 PUSH3 0x46B PUSH1 0x20 SHL PUSH3 0xFFF OR PUSH1 0x20 SHR JUMP JUMPDEST PUSH3 0x34A PUSH3 0x4C6 PUSH1 0x20 SHL PUSH1 0x20 SHR JUMP JUMPDEST PUSH1 0x1 PUSH1 0x0 PUSH2 0x100 EXP DUP2 SLOAD DUP2 PUSH20 0xFFFFFFFFFFFFFFFFFFFFFFFFFFFFFFFFFFFFFFFF MUL NOT AND SWAP1 DUP4 PUSH20 0xFFFFFFFFFFFFFFFFFFFFFFFFFFFFFFFFFFFFFFFF AND MUL OR SWAP1 SSTORE POP DUP7 PUSH1 0x18 PUSH1 0x0 PUSH2 0x100 EXP DUP2 SLOAD DUP2 PUSH20 0xFFFFFFFFFFFFFFFFFFFFFFFFFFFFFFFFFFFFFFFF MUL NOT AND SWAP1 DUP4 PUSH20 0xFFFFFFFFFFFFFFFFFFFFFFFFFFFFFFFFFFFFFFFF AND MUL OR SWAP1 SSTORE POP PUSH1 0x0 PUSH1 0x3 DUP2 SWAP1 SSTORE POP DUP6 PUSH1 0x4 DUP2 SWAP1 SSTORE POP PUSH1 0x5 DUP7 PUSH3 0x3E9 SWAP2 SWAP1 PUSH3 0x88F JUMP JUMPDEST PUSH1 0x5 DUP2 SWAP1 SSTORE POP PUSH1 0x19 DUP7 PUSH3 0x3FE SWAP2 SWAP1 PUSH3 0x88F JUMP JUMPDEST PUSH1 0x6 DUP2 SWAP1 SSTORE POP PUSH1 0x0 PUSH1 0x18 PUSH1 0x14 PUSH2 0x100 EXP DUP2 SLOAD DUP2 PUSH2 0xFFFF MUL NOT AND SWAP1 DUP4 PUSH2 0xFFFF AND MUL OR SWAP1 SSTORE POP POP POP POP POP POP POP POP POP PUSH3 0xA49 JUMP JUMPDEST PUSH1 0x0 PUSH3 0x442 PUSH3 0x4CE PUSH1 0x20 SHL PUSH1 0x20 SHR JUMP JUMPDEST SWAP1 POP DUP2 DUP2 PUSH1 0x0 ADD PUSH1 0x0 PUSH2 0x100 EXP DUP2 SLOAD DUP2 PUSH4 0xFFFFFFFF MUL NOT AND SWAP1 DUP4 PUSH4 0xFFFFFFFF AND MUL OR SWAP1 SSTORE POP POP POP JUMP JUMPDEST PUSH1 0x0 PUSH3 0x47D PUSH3 0x4FB PUSH1 0x20 SHL PUSH1 0x20 SHR JUMP JUMPDEST SWAP1 POP DUP2 DUP2 PUSH1 0x0 ADD PUSH1 0x0 PUSH2 0x100 EXP DUP2 SLOAD DUP2 PUSH20 0xFFFFFFFFFFFFFFFFFFFFFFFFFFFFFFFFFFFFFFFF MUL NOT AND SWAP1 DUP4 PUSH20 0xFFFFFFFFFFFFFFFFFFFFFFFFFFFFFFFFFFFFFFFF AND MUL OR SWAP1 SSTORE POP POP POP JUMP JUMPDEST PUSH1 0x0 CALLER SWAP1 POP SWAP1 JUMP JUMPDEST PUSH1 0x0 DUP1 PUSH32 0xBD21B19D8CF926BDA1233D510B187B736A1511D6EA3ECB5758B69F58B71D619E SWAP1 POP DUP1 SWAP2 POP POP SWAP1 JUMP JUMPDEST PUSH1 0x0 DUP1 PUSH32 0x1C2BA469BF3FCE83211EFF010708567FBEEAE896C0A247FCEB689567699266EC SWAP1 POP DUP1 SWAP2 POP POP SWAP1 JUMP JUMPDEST DUP3 DUP1 SLOAD DUP3 DUP3 SSTORE SWAP1 PUSH1 0x0 MSTORE PUSH1 0x20 PUSH1 0x0 KECCAK256 SWAP1 PUSH1 0x3 ADD PUSH1 0x4 SWAP1 DIV DUP2 ADD SWAP3 DUP3 ISZERO PUSH3 0x5D2 JUMPI SWAP2 PUSH1 0x20 MUL DUP3 ADD PUSH1 0x0 JUMPDEST DUP4 DUP3 GT ISZERO PUSH3 0x59A JUMPI DUP4 MLOAD DUP4 DUP3 PUSH2 0x100 EXP DUP2 SLOAD DUP2 PUSH8 0xFFFFFFFFFFFFFFFF MUL NOT AND SWAP1 DUP4 PUSH2 0xFFFF AND MUL OR SWAP1 SSTORE POP SWAP3 PUSH1 0x20 ADD SWAP3 PUSH1 0x8 ADD PUSH1 0x20 DUP2 PUSH1 0x7 ADD DIV SWAP3 DUP4 ADD SWAP3 PUSH1 0x1 SUB MUL PUSH3 0x552 JUMP JUMPDEST DUP1 ISZERO PUSH3 0x5D0 JUMPI DUP3 DUP2 PUSH2 0x100 EXP DUP2 SLOAD SWAP1 PUSH8 0xFFFFFFFFFFFFFFFF MUL NOT AND SWAP1 SSTORE PUSH1 0x8 ADD PUSH1 0x20 DUP2 PUSH1 0x7 ADD DIV SWAP3 DUP4 ADD SWAP3 PUSH1 0x1 SUB MUL PUSH3 0x59A JUMP JUMPDEST POP JUMPDEST POP SWAP1 POP PUSH3 0x5E1 SWAP2 SWAP1 PUSH3 0x64C JUMP JUMPDEST POP SWAP1 JUMP JUMPDEST DUP3 DUP1 SLOAD DUP3 DUP3 SSTORE SWAP1 PUSH1 0x0 MSTORE PUSH1 0x20 PUSH1 0x0 KECCAK256 SWAP1 DUP2 ADD SWAP3 DUP3 ISZERO PUSH3 0x639 JUMPI SWAP2 PUSH1 0x20 MUL DUP3 ADD JUMPDEST DUP3 DUP2 GT ISZERO PUSH3 0x638 JUMPI DUP3 MLOAD DUP3 SWAP1 DUP1 MLOAD SWAP1 PUSH1 0x20 ADD SWAP1 PUSH3 0x627 SWAP3 SWAP2 SWAP1 PUSH3 0x66B JUMP JUMPDEST POP SWAP2 PUSH1 0x20 ADD SWAP2 SWAP1 PUSH1 0x1 ADD SWAP1 PUSH3 0x606 JUMP JUMPDEST JUMPDEST POP SWAP1 POP PUSH3 0x648 SWAP2 SWAP1 PUSH3 0x6FC JUMP JUMPDEST POP SWAP1 JUMP JUMPDEST JUMPDEST DUP1 DUP3 GT ISZERO PUSH3 0x667 JUMPI PUSH1 0x0 DUP2 PUSH1 0x0 SWAP1 SSTORE POP PUSH1 0x1 ADD PUSH3 0x64D JUMP JUMPDEST POP SWAP1 JUMP JUMPDEST DUP3 DUP1 SLOAD PUSH3 0x679 SWAP1 PUSH3 0x948 JUMP JUMPDEST SWAP1 PUSH1 0x0 MSTORE PUSH1 0x20 PUSH1 0x0 KECCAK256 SWAP1 PUSH1 0x1F ADD PUSH1 0x20 SWAP1 DIV DUP2 ADD SWAP3 DUP3 PUSH3 0x69D JUMPI PUSH1 0x0 DUP6 SSTORE PUSH3 0x6E9 JUMP JUMPDEST DUP3 PUSH1 0x1F LT PUSH3 0x6B8 JUMPI DUP1 MLOAD PUSH1 0xFF NOT AND DUP4 DUP1 ADD OR DUP6 SSTORE PUSH3 0x6E9 JUMP JUMPDEST DUP3 DUP1 ADD PUSH1 0x1 ADD DUP6 SSTORE DUP3 ISZERO PUSH3 0x6E9 JUMPI SWAP2 DUP3 ADD JUMPDEST DUP3 DUP2 GT ISZERO PUSH3 0x6E8 JUMPI DUP3 MLOAD DUP3 SSTORE SWAP2 PUSH1 0x20 ADD SWAP2 SWAP1 PUSH1 0x1 ADD SWAP1 PUSH3 0x6CB JUMP JUMPDEST JUMPDEST POP SWAP1 POP PUSH3 0x6F8 SWAP2 SWAP1 PUSH3 0x64C JUMP JUMPDEST POP SWAP1 JUMP JUMPDEST JUMPDEST DUP1 DUP3 GT ISZERO PUSH3 0x720 JUMPI PUSH1 0x0 DUP2 DUP2 PUSH3 0x716 SWAP2 SWAP1 PUSH3 0x724 JUMP JUMPDEST POP PUSH1 0x1 ADD PUSH3 0x6FD JUMP JUMPDEST POP SWAP1 JUMP JUMPDEST POP DUP1 SLOAD PUSH3 0x732 SWAP1 PUSH3 0x948 JUMP JUMPDEST PUSH1 0x0 DUP3 SSTORE DUP1 PUSH1 0x1F LT PUSH3 0x746 JUMPI POP PUSH3 0x767 JUMP JUMPDEST PUSH1 0x1F ADD PUSH1 0x20 SWAP1 DIV SWAP1 PUSH1 0x0 MSTORE PUSH1 0x20 PUSH1 0x0 KECCAK256 SWAP1 DUP2 ADD SWAP1 PUSH3 0x766 SWAP2 SWAP1 PUSH3 0x64C JUMP JUMPDEST JUMPDEST POP JUMP JUMPDEST PUSH1 0x0 DUP2 MLOAD SWAP1 POP PUSH3 0x77B DUP2 PUSH3 0x9E1 JUMP JUMPDEST SWAP3 SWAP2 POP POP JUMP JUMPDEST PUSH1 0x0 DUP2 MLOAD SWAP1 POP PUSH3 0x792 DUP2 PUSH3 0x9FB JUMP JUMPDEST SWAP3 SWAP2 POP POP JUMP JUMPDEST PUSH1 0x0 DUP2 MLOAD SWAP1 POP PUSH3 0x7A9 DUP2 PUSH3 0xA15 JUMP JUMPDEST SWAP3 SWAP2 POP POP JUMP JUMPDEST PUSH1 0x0 DUP2 MLOAD SWAP1 POP PUSH3 0x7C0 DUP2 PUSH3 0xA2F JUMP JUMPDEST SWAP3 SWAP2 POP POP JUMP JUMPDEST PUSH1 0x0 DUP1 PUSH1 0x0 DUP1 PUSH1 0x0 DUP1 PUSH1 0x0 DUP1 PUSH2 0x100 DUP10 DUP12 SUB SLT ISZERO PUSH3 0x7EA JUMPI PUSH3 0x7E9 PUSH3 0x9DC JUMP JUMPDEST JUMPDEST PUSH1 0x0 PUSH3 0x7FA DUP12 DUP3 DUP13 ADD PUSH3 0x76A JUMP JUMPDEST SWAP9 POP POP PUSH1 0x20 PUSH3 0x80D DUP12 DUP3 DUP13 ADD PUSH3 0x76A JUMP JUMPDEST SWAP8 POP POP PUSH1 0x40 PUSH3 0x820 DUP12 DUP3 DUP13 ADD PUSH3 0x798 JUMP JUMPDEST SWAP7 POP POP PUSH1 0x60 PUSH3 0x833 DUP12 DUP3 DUP13 ADD PUSH3 0x76A JUMP JUMPDEST SWAP6 POP POP PUSH1 0x80 PUSH3 0x846 DUP12 DUP3 DUP13 ADD PUSH3 0x76A JUMP JUMPDEST SWAP5 POP POP PUSH1 0xA0 PUSH3 0x859 DUP12 DUP3 DUP13 ADD PUSH3 0x781 JUMP JUMPDEST SWAP4 POP POP PUSH1 0xC0 PUSH3 0x86C DUP12 DUP3 DUP13 ADD PUSH3 0x798 JUMP JUMPDEST SWAP3 POP POP PUSH1 0xE0 PUSH3 0x87F DUP12 DUP3 DUP13 ADD PUSH3 0x7AF JUMP JUMPDEST SWAP2 POP POP SWAP3 SWAP6 SWAP9 POP SWAP3 SWAP6 SWAP9 SWAP1 SWAP4 SWAP7 POP JUMP JUMPDEST PUSH1 0x0 PUSH3 0x89C DUP3 PUSH3 0x92E JUMP JUMPDEST SWAP2 POP PUSH3 0x8A9 DUP4 PUSH3 0x92E JUMP JUMPDEST SWAP3 POP DUP2 PUSH32 0xFFFFFFFFFFFFFFFFFFFFFFFFFFFFFFFFFFFFFFFFFFFFFFFFFFFFFFFFFFFFFFFF DIV DUP4 GT DUP3 ISZERO ISZERO AND ISZERO PUSH3 0x8E5 JUMPI PUSH3 0x8E4 PUSH3 0x97E JUMP JUMPDEST JUMPDEST DUP3 DUP3 MUL SWAP1 POP SWAP3 SWAP2 POP POP JUMP JUMPDEST PUSH1 0x0 PUSH3 0x8FD DUP3 PUSH3 0x90E JUMP JUMPDEST SWAP1 POP SWAP2 SWAP1 POP JUMP JUMPDEST PUSH1 0x0 DUP2 SWAP1 POP SWAP2 SWAP1 POP JUMP JUMPDEST PUSH1 0x0 PUSH20 0xFFFFFFFFFFFFFFFFFFFFFFFFFFFFFFFFFFFFFFFF DUP3 AND SWAP1 POP SWAP2 SWAP1 POP JUMP JUMPDEST PUSH1 0x0 DUP2 SWAP1 POP SWAP2 SWAP1 POP JUMP JUMPDEST PUSH1 0x0 PUSH4 0xFFFFFFFF DUP3 AND SWAP1 POP SWAP2 SWAP1 POP JUMP JUMPDEST PUSH1 0x0 PUSH1 0x2 DUP3 DIV SWAP1 POP PUSH1 0x1 DUP3 AND DUP1 PUSH3 0x961 JUMPI PUSH1 0x7F DUP3 AND SWAP2 POP JUMPDEST PUSH1 0x20 DUP3 LT DUP2 EQ ISZERO PUSH3 0x978 JUMPI PUSH3 0x977 PUSH3 0x9AD JUMP JUMPDEST JUMPDEST POP SWAP2 SWAP1 POP JUMP JUMPDEST PUSH32 0x4E487B7100000000000000000000000000000000000000000000000000000000 PUSH1 0x0 MSTORE PUSH1 0x11 PUSH1 0x4 MSTORE PUSH1 0x24 PUSH1 0x0 REVERT JUMPDEST PUSH32 0x4E487B7100000000000000000000000000000000000000000000000000000000 PUSH1 0x0 MSTORE PUSH1 0x22 PUSH1 0x4 MSTORE PUSH1 0x24 PUSH1 0x0 REVERT JUMPDEST PUSH1 0x0 DUP1 REVERT JUMPDEST PUSH3 0x9EC DUP2 PUSH3 0x8F0 JUMP JUMPDEST DUP2 EQ PUSH3 0x9F8 JUMPI PUSH1 0x0 DUP1 REVERT JUMPDEST POP JUMP JUMPDEST PUSH3 0xA06 DUP2 PUSH3 0x904 JUMP JUMPDEST DUP2 EQ PUSH3 0xA12 JUMPI PUSH1 0x0 DUP1 REVERT JUMPDEST POP JUMP JUMPDEST PUSH3 0xA20 DUP2 PUSH3 0x92E JUMP JUMPDEST DUP2 EQ PUSH3 0xA2C JUMPI PUSH1 0x0 DUP1 REVERT JUMPDEST POP JUMP JUMPDEST PUSH3 0xA3A DUP2 PUSH3 0x938 JUMP JUMPDEST DUP2 EQ PUSH3 0xA46 JUMPI PUSH1 0x0 DUP1 REVERT JUMPDEST POP JUMP JUMPDEST PUSH1 0x80 MLOAD PUSH1 0x60 SHR PUSH1 0xA0 MLOAD PUSH1 0x60 SHR PUSH2 0x5264 PUSH3 0xA6F PUSH1 0x0 CODECOPY PUSH1 0x0 POP POP PUSH1 0x0 POP POP PUSH2 0x5264 PUSH1 0x0 RETURN INVALID PUSH1 0x80 PUSH1 0x40 MSTORE PUSH1 0x4 CALLDATASIZE LT PUSH2 0xDD JUMPI PUSH1 0x0 CALLDATALOAD PUSH1 0xE0 SHR DUP1 PUSH4 0x8DC654A2 GT PUSH2 0x7F JUMPI DUP1 PUSH4 0xA8AA4D0C GT PUSH2 0x59 JUMPI DUP1 PUSH4 0xA8AA4D0C EQ PUSH2 0x25D JUMPI DUP1 PUSH4 0xC4FC3B2E EQ PUSH2 0x288 JUMPI DUP1 PUSH4 0xC7A36BC9 EQ PUSH2 0x2B3 JUMPI DUP1 PUSH4 0xE4789A06 EQ PUSH2 0x2DE JUMPI PUSH2 0xDD JUMP JUMPDEST DUP1 PUSH4 0x8DC654A2 EQ PUSH2 0x201 JUMPI DUP1 PUSH4 0x948DA447 EQ PUSH2 0x218 JUMPI DUP1 PUSH4 0x94985DDD EQ PUSH2 0x234 JUMPI PUSH2 0xDD JUMP JUMPDEST DUP1 PUSH4 0x2E82967D GT PUSH2 0xBB JUMPI DUP1 PUSH4 0x2E82967D EQ PUSH2 0x157 JUMPI DUP1 PUSH4 0x4BA2363A EQ PUSH2 0x180 JUMPI DUP1 PUSH4 0x4D045E4E EQ PUSH2 0x1AB JUMPI DUP1 PUSH4 0x547B927F EQ PUSH2 0x1D6 JUMPI PUSH2 0xDD JUMP JUMPDEST DUP1 PUSH4 0x150B7A02 EQ PUSH2 0xE2 JUMPI DUP1 PUSH4 0x173FABEB EQ PUSH2 0x11F JUMPI DUP1 PUSH4 0x1E59CD6C EQ PUSH2 0x13B JUMPI JUMPDEST PUSH1 0x0 DUP1 REVERT JUMPDEST CALLVALUE DUP1 ISZERO PUSH2 0xEE JUMPI PUSH1 0x0 DUP1 REVERT JUMPDEST POP PUSH2 0x109 PUSH1 0x4 DUP1 CALLDATASIZE SUB DUP2 ADD SWAP1 PUSH2 0x104 SWAP2 SWAP1 PUSH2 0x406E JUMP JUMPDEST PUSH2 0x31B JUMP JUMPDEST PUSH1 0x40 MLOAD PUSH2 0x116 SWAP2 SWAP1 PUSH2 0x47EB JUMP JUMPDEST PUSH1 0x40 MLOAD DUP1 SWAP2 SUB SWAP1 RETURN JUMPDEST PUSH2 0x139 PUSH1 0x4 DUP1 CALLDATASIZE SUB DUP2 ADD SWAP1 PUSH2 0x134 SWAP2 SWAP1 PUSH2 0x4163 JUMP JUMPDEST PUSH2 0x322 JUMP JUMPDEST STOP JUMPDEST PUSH2 0x155 PUSH1 0x4 DUP1 CALLDATASIZE SUB DUP2 ADD SWAP1 PUSH2 0x150 SWAP2 SWAP1 PUSH2 0x4163 JUMP JUMPDEST PUSH2 0x5CD JUMP JUMPDEST STOP JUMPDEST CALLVALUE DUP1 ISZERO PUSH2 0x163 JUMPI PUSH1 0x0 DUP1 REVERT JUMPDEST POP PUSH2 0x17E PUSH1 0x4 DUP1 CALLDATASIZE SUB DUP2 ADD SWAP1 PUSH2 0x179 SWAP2 SWAP1 PUSH2 0x4244 JUMP JUMPDEST PUSH2 0x878 JUMP JUMPDEST STOP JUMPDEST CALLVALUE DUP1 ISZERO PUSH2 0x18C JUMPI PUSH1 0x0 DUP1 REVERT JUMPDEST POP PUSH2 0x195 PUSH2 0x9C2 JUMP JUMPDEST PUSH1 0x40 MLOAD PUSH2 0x1A2 SWAP2 SWAP1 PUSH2 0x49EB JUMP JUMPDEST PUSH1 0x40 MLOAD DUP1 SWAP2 SUB SWAP1 RETURN JUMPDEST CALLVALUE DUP1 ISZERO PUSH2 0x1B7 JUMPI PUSH1 0x0 DUP1 REVERT JUMPDEST POP PUSH2 0x1C0 PUSH2 0x9C8 JUMP JUMPDEST PUSH1 0x40 MLOAD PUSH2 0x1CD SWAP2 SWAP1 PUSH2 0x4761 JUMP JUMPDEST PUSH1 0x40 MLOAD DUP1 SWAP2 SUB SWAP1 RETURN JUMPDEST CALLVALUE DUP1 ISZERO PUSH2 0x1E2 JUMPI PUSH1 0x0 DUP1 REVERT JUMPDEST POP PUSH2 0x1EB PUSH2 0xA3B JUMP JUMPDEST PUSH1 0x40 MLOAD PUSH2 0x1F8 SWAP2 SWAP1 PUSH2 0x49EB JUMP JUMPDEST PUSH1 0x40 MLOAD DUP1 SWAP2 SUB SWAP1 RETURN JUMPDEST CALLVALUE DUP1 ISZERO PUSH2 0x20D JUMPI PUSH1 0x0 DUP1 REVERT JUMPDEST POP PUSH2 0x216 PUSH2 0xA41 JUMP JUMPDEST STOP JUMPDEST PUSH2 0x232 PUSH1 0x4 DUP1 CALLDATASIZE SUB DUP2 ADD SWAP1 PUSH2 0x22D SWAP2 SWAP1 PUSH2 0x4163 JUMP JUMPDEST PUSH2 0xC33 JUMP JUMPDEST STOP JUMPDEST CALLVALUE DUP1 ISZERO PUSH2 0x240 JUMPI PUSH1 0x0 DUP1 REVERT JUMPDEST POP PUSH2 0x25B PUSH1 0x4 DUP1 CALLDATASIZE SUB DUP2 ADD SWAP1 PUSH2 0x256 SWAP2 SWAP1 PUSH2 0x4123 JUMP JUMPDEST PUSH2 0xEDE JUMP JUMPDEST STOP JUMPDEST CALLVALUE DUP1 ISZERO PUSH2 0x269 JUMPI PUSH1 0x0 DUP1 REVERT JUMPDEST POP PUSH2 0x272 PUSH2 0xF7F JUMP JUMPDEST PUSH1 0x40 MLOAD PUSH2 0x27F SWAP2 SWAP1 PUSH2 0x49EB JUMP JUMPDEST PUSH1 0x40 MLOAD DUP1 SWAP2 SUB SWAP1 RETURN JUMPDEST CALLVALUE DUP1 ISZERO PUSH2 0x294 JUMPI PUSH1 0x0 DUP1 REVERT JUMPDEST POP PUSH2 0x29D PUSH2 0xF85 JUMP JUMPDEST PUSH1 0x40 MLOAD PUSH2 0x2AA SWAP2 SWAP1 PUSH2 0x4806 JUMP JUMPDEST PUSH1 0x40 MLOAD DUP1 SWAP2 SUB SWAP1 RETURN JUMPDEST CALLVALUE DUP1 ISZERO PUSH2 0x2BF JUMPI PUSH1 0x0 DUP1 REVERT JUMPDEST POP PUSH2 0x2C8 PUSH2 0xF98 JUMP JUMPDEST PUSH1 0x40 MLOAD PUSH2 0x2D5 SWAP2 SWAP1 PUSH2 0x49EB JUMP JUMPDEST PUSH1 0x40 MLOAD DUP1 SWAP2 SUB SWAP1 RETURN JUMPDEST CALLVALUE DUP1 ISZERO PUSH2 0x2EA JUMPI PUSH1 0x0 DUP1 REVERT JUMPDEST POP PUSH2 0x305 PUSH1 0x4 DUP1 CALLDATASIZE SUB DUP2 ADD SWAP1 PUSH2 0x300 SWAP2 SWAP1 PUSH2 0x41BD JUMP JUMPDEST PUSH2 0xF9E JUMP JUMPDEST PUSH1 0x40 MLOAD PUSH2 0x312 SWAP2 SWAP1 PUSH2 0x4963 JUMP JUMPDEST PUSH1 0x40 MLOAD DUP1 SWAP2 SUB SWAP1 RETURN JUMPDEST PUSH1 0x0 DUP1 PUSH1 0x0 REVERT JUMPDEST PUSH1 0x1 PUSH1 0x11 PUSH1 0x0 SWAP1 SLOAD SWAP1 PUSH2 0x100 EXP SWAP1 DIV PUSH1 0xFF AND PUSH1 0x3 DUP2 GT ISZERO PUSH2 0x346 JUMPI PUSH2 0x345 PUSH2 0x4F05 JUMP JUMPDEST JUMPDEST EQ PUSH2 0x386 JUMPI PUSH1 0x40 MLOAD PUSH32 0x8C379A000000000000000000000000000000000000000000000000000000000 DUP2 MSTORE PUSH1 0x4 ADD PUSH2 0x37D SWAP1 PUSH2 0x4923 JUMP JUMPDEST PUSH1 0x40 MLOAD DUP1 SWAP2 SUB SWAP1 REVERT JUMPDEST PUSH1 0x0 PUSH1 0x2 PUSH1 0x7 PUSH1 0x8 DUP2 LT PUSH2 0x39D JUMPI PUSH2 0x39C PUSH2 0x4F63 JUMP JUMPDEST JUMPDEST PUSH1 0x10 SWAP2 DUP3 DUP3 DIV ADD SWAP2 SWAP1 MOD PUSH1 0x2 MUL SWAP1 SLOAD SWAP1 PUSH2 0x100 EXP SWAP1 DIV PUSH2 0xFFFF AND PUSH2 0xFFFF AND EQ PUSH2 0x3FB JUMPI PUSH1 0x40 MLOAD PUSH32 0x8C379A000000000000000000000000000000000000000000000000000000000 DUP2 MSTORE PUSH1 0x4 ADD PUSH2 0x3F2 SWAP1 PUSH2 0x4863 JUMP JUMPDEST PUSH1 0x40 MLOAD DUP1 SWAP2 SUB SWAP1 REVERT JUMPDEST PUSH2 0x404 DUP2 PUSH2 0x1052 JUMP JUMPDEST PUSH2 0x443 JUMPI PUSH1 0x40 MLOAD PUSH32 0x8C379A000000000000000000000000000000000000000000000000000000000 DUP2 MSTORE PUSH1 0x4 ADD PUSH2 0x43A SWAP1 PUSH2 0x48A3 JUMP JUMPDEST PUSH1 0x40 MLOAD DUP1 SWAP2 SUB SWAP1 REVERT JUMPDEST TIMESTAMP PUSH2 0x44D DUP3 PUSH2 0x1150 JUMP JUMPDEST PUSH4 0xFFFFFFFF AND LT PUSH2 0x493 JUMPI PUSH1 0x40 MLOAD PUSH32 0x8C379A000000000000000000000000000000000000000000000000000000000 DUP2 MSTORE PUSH1 0x4 ADD PUSH2 0x48A SWAP1 PUSH2 0x4883 JUMP JUMPDEST PUSH1 0x40 MLOAD DUP1 SWAP2 SUB SWAP1 REVERT JUMPDEST PUSH1 0x4 SLOAD CALLVALUE EQ PUSH2 0x4D7 JUMPI PUSH1 0x40 MLOAD PUSH32 0x8C379A000000000000000000000000000000000000000000000000000000000 DUP2 MSTORE PUSH1 0x4 ADD PUSH2 0x4CE SWAP1 PUSH2 0x48E3 JUMP JUMPDEST PUSH1 0x40 MLOAD DUP1 SWAP2 SUB SWAP1 REVERT JUMPDEST CALLVALUE PUSH1 0x3 PUSH1 0x0 DUP3 DUP3 SLOAD PUSH2 0x4E9 SWAP2 SWAP1 PUSH2 0x4B30 JUMP JUMPDEST SWAP3 POP POP DUP2 SWAP1 SSTORE POP DUP1 PUSH1 0x2 PUSH1 0x18 PUSH1 0x14 SWAP1 SLOAD SWAP1 PUSH2 0x100 EXP SWAP1 DIV PUSH2 0xFFFF AND PUSH2 0xFFFF AND PUSH1 0x8 DUP2 LT PUSH2 0x519 JUMPI PUSH2 0x518 PUSH2 0x4F63 JUMP JUMPDEST JUMPDEST PUSH1 0x10 SWAP2 DUP3 DUP3 DIV ADD SWAP2 SWAP1 MOD PUSH1 0x2 MUL PUSH2 0x100 EXP DUP2 SLOAD DUP2 PUSH2 0xFFFF MUL NOT AND SWAP1 DUP4 PUSH2 0xFFFF AND MUL OR SWAP1 SSTORE POP PUSH1 0x1 PUSH1 0x18 PUSH1 0x14 DUP3 DUP3 DUP3 SWAP1 SLOAD SWAP1 PUSH2 0x100 EXP SWAP1 DIV PUSH2 0xFFFF AND PUSH2 0x55E SWAP2 SWAP1 PUSH2 0x4AF8 JUMP JUMPDEST SWAP3 POP PUSH2 0x100 EXP DUP2 SLOAD DUP2 PUSH2 0xFFFF MUL NOT AND SWAP1 DUP4 PUSH2 0xFFFF AND MUL OR SWAP1 SSTORE POP PUSH1 0x8 PUSH1 0x18 PUSH1 0x14 SWAP1 SLOAD SWAP1 PUSH2 0x100 EXP SWAP1 DIV PUSH2 0xFFFF AND PUSH2 0xFFFF AND EQ ISZERO PUSH2 0x5CA JUMPI PUSH2 0x59D PUSH2 0x1212 JUMP JUMPDEST PUSH32 0x4126AEF55DF6E72E0392D275943B4AB0A209E41CC536F747672DFEB33A749C1D PUSH1 0x40 MLOAD PUSH1 0x40 MLOAD DUP1 SWAP2 SUB SWAP1 LOG1 JUMPDEST POP JUMP JUMPDEST PUSH1 0x2 PUSH1 0x11 PUSH1 0x0 SWAP1 SLOAD SWAP1 PUSH2 0x100 EXP SWAP1 DIV PUSH1 0xFF AND PUSH1 0x3 DUP2 GT ISZERO PUSH2 0x5F1 JUMPI PUSH2 0x5F0 PUSH2 0x4F05 JUMP JUMPDEST JUMPDEST EQ PUSH2 0x631 JUMPI PUSH1 0x40 MLOAD PUSH32 0x8C379A000000000000000000000000000000000000000000000000000000000 DUP2 MSTORE PUSH1 0x4 ADD PUSH2 0x628 SWAP1 PUSH2 0x4923 JUMP JUMPDEST PUSH1 0x40 MLOAD DUP1 SWAP2 SUB SWAP1 REVERT JUMPDEST PUSH1 0x0 PUSH1 0x2 PUSH1 0x7 PUSH1 0x8 DUP2 LT PUSH2 0x648 JUMPI PUSH2 0x647 PUSH2 0x4F63 JUMP JUMPDEST JUMPDEST PUSH1 0x10 SWAP2 DUP3 DUP3 DIV ADD SWAP2 SWAP1 MOD PUSH1 0x2 MUL SWAP1 SLOAD SWAP1 PUSH2 0x100 EXP SWAP1 DIV PUSH2 0xFFFF AND PUSH2 0xFFFF AND EQ PUSH2 0x6A6 JUMPI PUSH1 0x40 MLOAD PUSH32 0x8C379A000000000000000000000000000000000000000000000000000000000 DUP2 MSTORE PUSH1 0x4 ADD PUSH2 0x69D SWAP1 PUSH2 0x4863 JUMP JUMPDEST PUSH1 0x40 MLOAD DUP1 SWAP2 SUB SWAP1 REVERT JUMPDEST TIMESTAMP PUSH2 0x6B0 DUP3 PUSH2 0x1150 JUMP JUMPDEST PUSH4 0xFFFFFFFF AND LT PUSH2 0x6F6 JUMPI PUSH1 0x40 MLOAD PUSH32 0x8C379A000000000000000000000000000000000000000000000000000000000 DUP2 MSTORE PUSH1 0x4 ADD PUSH2 0x6ED SWAP1 PUSH2 0x4883 JUMP JUMPDEST PUSH1 0x40 MLOAD DUP1 SWAP2 SUB SWAP1 REVERT JUMPDEST PUSH2 0x6FF DUP2 PUSH2 0x1052 JUMP JUMPDEST PUSH2 0x73E JUMPI PUSH1 0x40 MLOAD PUSH32 0x8C379A000000000000000000000000000000000000000000000000000000000 DUP2 MSTORE PUSH1 0x4 ADD PUSH2 0x735 SWAP1 PUSH2 0x48A3 JUMP JUMPDEST PUSH1 0x40 MLOAD DUP1 SWAP2 SUB SWAP1 REVERT JUMPDEST PUSH1 0x5 SLOAD CALLVALUE EQ PUSH2 0x782 JUMPI PUSH1 0x40 MLOAD PUSH32 0x8C379A000000000000000000000000000000000000000000000000000000000 DUP2 MSTORE PUSH1 0x4 ADD PUSH2 0x779 SWAP1 PUSH2 0x48E3 JUMP JUMPDEST PUSH1 0x40 MLOAD DUP1 SWAP2 SUB SWAP1 REVERT JUMPDEST CALLVALUE PUSH1 0x3 PUSH1 0x0 DUP3 DUP3 SLOAD PUSH2 0x794 SWAP2 SWAP1 PUSH2 0x4B30 JUMP JUMPDEST SWAP3 POP POP DUP2 SWAP1 SSTORE POP DUP1 PUSH1 0x2 PUSH1 0x18 PUSH1 0x14 SWAP1 SLOAD SWAP1 PUSH2 0x100 EXP SWAP1 DIV PUSH2 0xFFFF AND PUSH2 0xFFFF AND PUSH1 0x8 DUP2 LT PUSH2 0x7C4 JUMPI PUSH2 0x7C3 PUSH2 0x4F63 JUMP JUMPDEST JUMPDEST PUSH1 0x10 SWAP2 DUP3 DUP3 DIV ADD SWAP2 SWAP1 MOD PUSH1 0x2 MUL PUSH2 0x100 EXP DUP2 SLOAD DUP2 PUSH2 0xFFFF MUL NOT AND SWAP1 DUP4 PUSH2 0xFFFF AND MUL OR SWAP1 SSTORE POP PUSH1 0x1 PUSH1 0x18 PUSH1 0x14 DUP3 DUP3 DUP3 SWAP1 SLOAD SWAP1 PUSH2 0x100 EXP SWAP1 DIV PUSH2 0xFFFF AND PUSH2 0x809 SWAP2 SWAP1 PUSH2 0x4AF8 JUMP JUMPDEST SWAP3 POP PUSH2 0x100 EXP DUP2 SLOAD DUP2 PUSH2 0xFFFF MUL NOT AND SWAP1 DUP4 PUSH2 0xFFFF AND MUL OR SWAP1 SSTORE POP PUSH1 0x8 PUSH1 0x18 PUSH1 0x14 SWAP1 SLOAD SWAP1 PUSH2 0x100 EXP SWAP1 DIV PUSH2 0xFFFF AND PUSH2 0xFFFF AND EQ ISZERO PUSH2 0x875 JUMPI PUSH2 0x848 PUSH2 0x1212 JUMP JUMPDEST PUSH32 0xD1770840E790EC4E01D36843BA94DDF02E08A36725ABF42289B2B071B7F11BBF PUSH1 0x40 MLOAD PUSH1 0x40 MLOAD DUP1 SWAP2 SUB SWAP1 LOG1 JUMPDEST POP JUMP JUMPDEST PUSH1 0x1 PUSH1 0x0 SWAP1 SLOAD SWAP1 PUSH2 0x100 EXP SWAP1 DIV PUSH20 0xFFFFFFFFFFFFFFFFFFFFFFFFFFFFFFFFFFFFFFFF AND PUSH20 0xFFFFFFFFFFFFFFFFFFFFFFFFFFFFFFFFFFFFFFFF AND CALLER PUSH20 0xFFFFFFFFFFFFFFFFFFFFFFFFFFFFFFFFFFFFFFFF AND EQ PUSH2 0x908 JUMPI PUSH1 0x40 MLOAD PUSH32 0x8C379A000000000000000000000000000000000000000000000000000000000 DUP2 MSTORE PUSH1 0x4 ADD PUSH2 0x8FF SWAP1 PUSH2 0x4843 JUMP JUMPDEST PUSH1 0x40 MLOAD DUP1 SWAP2 SUB SWAP1 REVERT JUMPDEST PUSH1 0x0 DUP2 PUSH1 0xFF AND LT ISZERO DUP1 ISZERO PUSH2 0x920 JUMPI POP PUSH1 0x3 DUP2 PUSH1 0xFF AND GT ISZERO JUMPDEST PUSH2 0x929 JUMPI PUSH1 0x0 DUP1 REVERT JUMPDEST DUP1 PUSH1 0xFF AND PUSH1 0x3 DUP2 GT ISZERO PUSH2 0x93F JUMPI PUSH2 0x93E PUSH2 0x4F05 JUMP JUMPDEST JUMPDEST PUSH1 0x11 PUSH1 0x0 PUSH2 0x100 EXP DUP2 SLOAD DUP2 PUSH1 0xFF MUL NOT AND SWAP1 DUP4 PUSH1 0x3 DUP2 GT ISZERO PUSH2 0x963 JUMPI PUSH2 0x962 PUSH2 0x4F05 JUMP JUMPDEST JUMPDEST MUL OR SWAP1 SSTORE POP PUSH32 0xED635755A5F2C0E0683DBAC09037B703954D031A2B11CC1AD4D459E27F2F20E4 PUSH1 0x10 DUP3 PUSH1 0xFF AND DUP2 SLOAD DUP2 LT PUSH2 0x9A0 JUMPI PUSH2 0x99F PUSH2 0x4F63 JUMP JUMPDEST JUMPDEST SWAP1 PUSH1 0x0 MSTORE PUSH1 0x20 PUSH1 0x0 KECCAK256 ADD PUSH1 0x40 MLOAD PUSH2 0x9B7 SWAP2 SWAP1 PUSH2 0x4821 JUMP JUMPDEST PUSH1 0x40 MLOAD DUP1 SWAP2 SUB SWAP1 LOG1 POP JUMP JUMPDEST PUSH1 0x3 SLOAD DUP2 JUMP JUMPDEST PUSH2 0x9D0 PUSH2 0x3D4A JUMP JUMPDEST PUSH1 0x2 PUSH1 0x8 DUP1 PUSH1 0x20 MUL PUSH1 0x40 MLOAD SWAP1 DUP2 ADD PUSH1 0x40 MSTORE DUP1 SWAP3 SWAP2 SWAP1 DUP3 PUSH1 0x8 DUP1 ISZERO PUSH2 0xA31 JUMPI PUSH1 0x20 MUL DUP3 ADD SWAP2 PUSH1 0x0 SWAP1 JUMPDEST DUP3 DUP3 SWAP1 SLOAD SWAP1 PUSH2 0x100 EXP SWAP1 DIV PUSH2 0xFFFF AND PUSH2 0xFFFF AND DUP2 MSTORE PUSH1 0x20 ADD SWAP1 PUSH1 0x2 ADD SWAP1 PUSH1 0x20 DUP3 PUSH1 0x1 ADD DIV SWAP3 DUP4 ADD SWAP3 PUSH1 0x1 SUB DUP3 MUL SWAP2 POP DUP1 DUP5 GT PUSH2 0x9F8 JUMPI SWAP1 POP JUMPDEST POP POP POP POP POP SWAP1 POP SWAP1 JUMP JUMPDEST PUSH1 0x4 SLOAD DUP2 JUMP JUMPDEST PUSH1 0x1 PUSH1 0x0 SWAP1 SLOAD SWAP1 PUSH2 0x100 EXP SWAP1 DIV PUSH20 0xFFFFFFFFFFFFFFFFFFFFFFFFFFFFFFFFFFFFFFFF AND PUSH20 0xFFFFFFFFFFFFFFFFFFFFFFFFFFFFFFFFFFFFFFFF AND CALLER PUSH20 0xFFFFFFFFFFFFFFFFFFFFFFFFFFFFFFFFFFFFFFFF AND EQ PUSH2 0xAD1 JUMPI PUSH1 0x40 MLOAD PUSH32 0x8C379A000000000000000000000000000000000000000000000000000000000 DUP2 MSTORE PUSH1 0x4 ADD PUSH2 0xAC8 SWAP1 PUSH2 0x4843 JUMP JUMPDEST PUSH1 0x40 MLOAD DUP1 SWAP2 SUB SWAP1 REVERT JUMPDEST PUSH1 0x8 PUSH1 0x4 ADD PUSH1 0x0 SWAP1 SLOAD SWAP1 PUSH2 0x100 EXP SWAP1 DIV PUSH20 0xFFFFFFFFFFFFFFFFFFFFFFFFFFFFFFFFFFFFFFFF AND PUSH20 0xFFFFFFFFFFFFFFFFFFFFFFFFFFFFFFFFFFFFFFFF AND PUSH4 0xA9059CBB CALLER PUSH1 0x8 PUSH1 0x4 ADD PUSH1 0x0 SWAP1 SLOAD SWAP1 PUSH2 0x100 EXP SWAP1 DIV PUSH20 0xFFFFFFFFFFFFFFFFFFFFFFFFFFFFFFFFFFFFFFFF AND PUSH20 0xFFFFFFFFFFFFFFFFFFFFFFFFFFFFFFFFFFFFFFFF AND PUSH4 0x70A08231 ADDRESS PUSH1 0x40 MLOAD DUP3 PUSH4 0xFFFFFFFF AND PUSH1 0xE0 SHL DUP2 MSTORE PUSH1 0x4 ADD PUSH2 0xB71 SWAP2 SWAP1 PUSH2 0x4672 JUMP JUMPDEST PUSH1 0x20 PUSH1 0x40 MLOAD DUP1 DUP4 SUB DUP2 DUP7 DUP1 EXTCODESIZE ISZERO DUP1 ISZERO PUSH2 0xB89 JUMPI PUSH1 0x0 DUP1 REVERT JUMPDEST POP GAS STATICCALL ISZERO DUP1 ISZERO PUSH2 0xB9D JUMPI RETURNDATASIZE PUSH1 0x0 DUP1 RETURNDATACOPY RETURNDATASIZE PUSH1 0x0 REVERT JUMPDEST POP POP POP POP PUSH1 0x40 MLOAD RETURNDATASIZE PUSH1 0x1F NOT PUSH1 0x1F DUP3 ADD AND DUP3 ADD DUP1 PUSH1 0x40 MSTORE POP DUP2 ADD SWAP1 PUSH2 0xBC1 SWAP2 SWAP1 PUSH2 0x41EA JUMP JUMPDEST PUSH1 0x40 MLOAD DUP4 PUSH4 0xFFFFFFFF AND PUSH1 0xE0 SHL DUP2 MSTORE PUSH1 0x4 ADD PUSH2 0xBDE SWAP3 SWAP2 SWAP1 PUSH2 0x46C4 JUMP JUMPDEST PUSH1 0x20 PUSH1 0x40 MLOAD DUP1 DUP4 SUB DUP2 PUSH1 0x0 DUP8 DUP1 EXTCODESIZE ISZERO DUP1 ISZERO PUSH2 0xBF8 JUMPI PUSH1 0x0 DUP1 REVERT JUMPDEST POP GAS CALL ISZERO DUP1 ISZERO PUSH2 0xC0C JUMPI RETURNDATASIZE PUSH1 0x0 DUP1 RETURNDATACOPY RETURNDATASIZE PUSH1 0x0 REVERT JUMPDEST POP POP POP POP PUSH1 0x40 MLOAD RETURNDATASIZE PUSH1 0x1F NOT PUSH1 0x1F DUP3 ADD AND DUP3 ADD DUP1 PUSH1 0x40 MSTORE POP DUP2 ADD SWAP1 PUSH2 0xC30 SWAP2 SWAP1 PUSH2 0x40F6 JUMP JUMPDEST POP JUMP JUMPDEST PUSH1 0x3 PUSH1 0x11 PUSH1 0x0 SWAP1 SLOAD SWAP1 PUSH2 0x100 EXP SWAP1 DIV PUSH1 0xFF AND PUSH1 0x3 DUP2 GT ISZERO PUSH2 0xC57 JUMPI PUSH2 0xC56 PUSH2 0x4F05 JUMP JUMPDEST JUMPDEST EQ PUSH2 0xC97 JUMPI PUSH1 0x40 MLOAD PUSH32 0x8C379A000000000000000000000000000000000000000000000000000000000 DUP2 MSTORE PUSH1 0x4 ADD PUSH2 0xC8E SWAP1 PUSH2 0x4923 JUMP JUMPDEST PUSH1 0x40 MLOAD DUP1 SWAP2 SUB SWAP1 REVERT JUMPDEST PUSH1 0x0 PUSH1 0x2 PUSH1 0x7 PUSH1 0x8 DUP2 LT PUSH2 0xCAE JUMPI PUSH2 0xCAD PUSH2 0x4F63 JUMP JUMPDEST JUMPDEST PUSH1 0x10 SWAP2 DUP3 DUP3 DIV ADD SWAP2 SWAP1 MOD PUSH1 0x2 MUL SWAP1 SLOAD SWAP1 PUSH2 0x100 EXP SWAP1 DIV PUSH2 0xFFFF AND PUSH2 0xFFFF AND EQ PUSH2 0xD0C JUMPI PUSH1 0x40 MLOAD PUSH32 0x8C379A000000000000000000000000000000000000000000000000000000000 DUP2 MSTORE PUSH1 0x4 ADD PUSH2 0xD03 SWAP1 PUSH2 0x4863 JUMP JUMPDEST PUSH1 0x40 MLOAD DUP1 SWAP2 SUB SWAP1 REVERT JUMPDEST TIMESTAMP PUSH2 0xD16 DUP3 PUSH2 0x1150 JUMP JUMPDEST PUSH4 0xFFFFFFFF AND LT PUSH2 0xD5C JUMPI PUSH1 0x40 MLOAD PUSH32 0x8C379A000000000000000000000000000000000000000000000000000000000 DUP2 MSTORE PUSH1 0x4 ADD PUSH2 0xD53 SWAP1 PUSH2 0x4883 JUMP JUMPDEST PUSH1 0x40 MLOAD DUP1 SWAP2 SUB SWAP1 REVERT JUMPDEST PUSH2 0xD65 DUP2 PUSH2 0x1052 JUMP JUMPDEST PUSH2 0xDA4 JUMPI PUSH1 0x40 MLOAD PUSH32 0x8C379A000000000000000000000000000000000000000000000000000000000 DUP2 MSTORE PUSH1 0x4 ADD PUSH2 0xD9B SWAP1 PUSH2 0x48A3 JUMP JUMPDEST PUSH1 0x40 MLOAD DUP1 SWAP2 SUB SWAP1 REVERT JUMPDEST PUSH1 0x6 SLOAD CALLVALUE EQ PUSH2 0xDE8 JUMPI PUSH1 0x40 MLOAD PUSH32 0x8C379A000000000000000000000000000000000000000000000000000000000 DUP2 MSTORE PUSH1 0x4 ADD PUSH2 0xDDF SWAP1 PUSH2 0x48E3 JUMP JUMPDEST PUSH1 0x40 MLOAD DUP1 SWAP2 SUB SWAP1 REVERT JUMPDEST CALLVALUE PUSH1 0x3 PUSH1 0x0 DUP3 DUP3 SLOAD PUSH2 0xDFA SWAP2 SWAP1 PUSH2 0x4B30 JUMP JUMPDEST SWAP3 POP POP DUP2 SWAP1 SSTORE POP DUP1 PUSH1 0x2 PUSH1 0x18 PUSH1 0x14 SWAP1 SLOAD SWAP1 PUSH2 0x100 EXP SWAP1 DIV PUSH2 0xFFFF AND PUSH2 0xFFFF AND PUSH1 0x8 DUP2 LT PUSH2 0xE2A JUMPI PUSH2 0xE29 PUSH2 0x4F63 JUMP JUMPDEST JUMPDEST PUSH1 0x10 SWAP2 DUP3 DUP3 DIV ADD SWAP2 SWAP1 MOD PUSH1 0x2 MUL PUSH2 0x100 EXP DUP2 SLOAD DUP2 PUSH2 0xFFFF MUL NOT AND SWAP1 DUP4 PUSH2 0xFFFF AND MUL OR SWAP1 SSTORE POP PUSH1 0x1 PUSH1 0x18 PUSH1 0x14 DUP3 DUP3 DUP3 SWAP1 SLOAD SWAP1 PUSH2 0x100 EXP SWAP1 DIV PUSH2 0xFFFF AND PUSH2 0xE6F SWAP2 SWAP1 PUSH2 0x4AF8 JUMP JUMPDEST SWAP3 POP PUSH2 0x100 EXP DUP2 SLOAD DUP2 PUSH2 0xFFFF MUL NOT AND SWAP1 DUP4 PUSH2 0xFFFF AND MUL OR SWAP1 SSTORE POP PUSH1 0x8 PUSH1 0x18 PUSH1 0x14 SWAP1 SLOAD SWAP1 PUSH2 0x100 EXP SWAP1 DIV PUSH2 0xFFFF AND PUSH2 0xFFFF AND EQ ISZERO PUSH2 0xEDB JUMPI PUSH2 0xEAE PUSH2 0x1212 JUMP JUMPDEST PUSH32 0xB3E86B5679D90C44339C1A4699A5AB2DB24870BC1BBFFD9964596A5C4A813E94 PUSH1 0x40 MLOAD PUSH1 0x40 MLOAD DUP1 SWAP2 SUB SWAP1 LOG1 JUMPDEST POP JUMP JUMPDEST PUSH1 0x8 PUSH1 0x0 ADD PUSH1 0x0 SWAP1 SLOAD SWAP1 PUSH2 0x100 EXP SWAP1 DIV PUSH20 0xFFFFFFFFFFFFFFFFFFFFFFFFFFFFFFFFFFFFFFFF AND PUSH20 0xFFFFFFFFFFFFFFFFFFFFFFFFFFFFFFFFFFFFFFFF AND CALLER PUSH20 0xFFFFFFFFFFFFFFFFFFFFFFFFFFFFFFFFFFFFFFFF AND EQ PUSH2 0xF71 JUMPI PUSH1 0x40 MLOAD PUSH32 0x8C379A000000000000000000000000000000000000000000000000000000000 DUP2 MSTORE PUSH1 0x4 ADD PUSH2 0xF68 SWAP1 PUSH2 0x48C3 JUMP JUMPDEST PUSH1 0x40 MLOAD DUP1 SWAP2 SUB SWAP1 REVERT JUMPDEST PUSH2 0xF7B DUP3 DUP3 PUSH2 0x132C JUMP JUMPDEST POP POP JUMP JUMPDEST PUSH1 0x5 SLOAD DUP2 JUMP JUMPDEST PUSH1 0x11 PUSH1 0x0 SWAP1 SLOAD SWAP1 PUSH2 0x100 EXP SWAP1 DIV PUSH1 0xFF AND DUP2 JUMP JUMPDEST PUSH1 0x6 SLOAD DUP2 JUMP JUMPDEST PUSH1 0x2 DUP2 PUSH1 0x8 DUP2 LT PUSH2 0xFAE JUMPI PUSH1 0x0 DUP1 REVERT JUMPDEST PUSH1 0x10 SWAP2 DUP3 DUP3 DIV ADD SWAP2 SWAP1 MOD PUSH1 0x2 MUL SWAP2 POP SLOAD SWAP1 PUSH2 0x100 EXP SWAP1 DIV PUSH2 0xFFFF AND DUP2 JUMP JUMPDEST PUSH1 0x0 PUSH2 0xFD6 PUSH2 0x17C1 JUMP JUMPDEST SWAP1 POP DUP2 DUP2 PUSH1 0x0 ADD PUSH1 0x0 PUSH2 0x100 EXP DUP2 SLOAD DUP2 PUSH4 0xFFFFFFFF MUL NOT AND SWAP1 DUP4 PUSH4 0xFFFFFFFF AND MUL OR SWAP1 SSTORE POP POP POP JUMP JUMPDEST PUSH1 0x0 PUSH2 0x1009 PUSH2 0x17EE JUMP JUMPDEST SWAP1 POP DUP2 DUP2 PUSH1 0x0 ADD PUSH1 0x0 PUSH2 0x100 EXP DUP2 SLOAD DUP2 PUSH20 0xFFFFFFFFFFFFFFFFFFFFFFFFFFFFFFFFFFFFFFFF MUL NOT AND SWAP1 DUP4 PUSH20 0xFFFFFFFFFFFFFFFFFFFFFFFFFFFFFFFFFFFFFFFF AND MUL OR SWAP1 SSTORE POP POP POP JUMP JUMPDEST PUSH1 0x0 DUP1 PUSH2 0x105D PUSH2 0x17EE JUMP JUMPDEST SWAP1 POP CALLER PUSH20 0xFFFFFFFFFFFFFFFFFFFFFFFFFFFFFFFFFFFFFFFF AND DUP2 PUSH1 0x0 ADD PUSH1 0x0 SWAP1 SLOAD SWAP1 PUSH2 0x100 EXP SWAP1 DIV PUSH20 0xFFFFFFFFFFFFFFFFFFFFFFFFFFFFFFFFFFFFFFFF AND PUSH20 0xFFFFFFFFFFFFFFFFFFFFFFFFFFFFFFFFFFFFFFFF AND PUSH4 0x6352211E DUP6 PUSH1 0x40 MLOAD DUP3 PUSH4 0xFFFFFFFF AND PUSH1 0xE0 SHL DUP2 MSTORE PUSH1 0x4 ADD PUSH2 0x10D3 SWAP2 SWAP1 PUSH2 0x497E JUMP JUMPDEST PUSH1 0x20 PUSH1 0x40 MLOAD DUP1 DUP4 SUB DUP2 DUP7 DUP1 EXTCODESIZE ISZERO DUP1 ISZERO PUSH2 0x10EB JUMPI PUSH1 0x0 DUP1 REVERT JUMPDEST POP GAS STATICCALL ISZERO DUP1 ISZERO PUSH2 0x10FF JUMPI RETURNDATASIZE PUSH1 0x0 DUP1 RETURNDATACOPY RETURNDATASIZE PUSH1 0x0 REVERT JUMPDEST POP POP POP POP PUSH1 0x40 MLOAD RETURNDATASIZE PUSH1 0x1F NOT PUSH1 0x1F DUP3 ADD AND DUP3 ADD DUP1 PUSH1 0x40 MSTORE POP DUP2 ADD SWAP1 PUSH2 0x1123 SWAP2 SWAP1 PUSH2 0x4041 JUMP JUMPDEST PUSH20 0xFFFFFFFFFFFFFFFFFFFFFFFFFFFFFFFFFFFFFFFF AND EQ PUSH2 0x1145 JUMPI PUSH1 0x0 PUSH2 0x1148 JUMP JUMPDEST PUSH1 0x1 JUMPDEST SWAP2 POP POP SWAP2 SWAP1 POP JUMP JUMPDEST PUSH1 0x0 DUP1 PUSH2 0x115B PUSH2 0x17EE JUMP JUMPDEST SWAP1 POP DUP1 PUSH1 0x0 ADD PUSH1 0x0 SWAP1 SLOAD SWAP1 PUSH2 0x100 EXP SWAP1 DIV PUSH20 0xFFFFFFFFFFFFFFFFFFFFFFFFFFFFFFFFFFFFFFFF AND PUSH20 0xFFFFFFFFFFFFFFFFFFFFFFFFFFFFFFFFFFFFFFFF AND PUSH4 0x6201917F DUP5 PUSH1 0x40 MLOAD DUP3 PUSH4 0xFFFFFFFF AND PUSH1 0xE0 SHL DUP2 MSTORE PUSH1 0x4 ADD PUSH2 0x11BA SWAP2 SWAP1 PUSH2 0x4963 JUMP JUMPDEST PUSH1 0x20 PUSH1 0x40 MLOAD DUP1 DUP4 SUB DUP2 DUP7 DUP1 EXTCODESIZE ISZERO DUP1 ISZERO PUSH2 0x11D2 JUMPI PUSH1 0x0 DUP1 REVERT JUMPDEST POP GAS STATICCALL ISZERO DUP1 ISZERO PUSH2 0x11E6 JUMPI RETURNDATASIZE PUSH1 0x0 DUP1 RETURNDATACOPY RETURNDATASIZE PUSH1 0x0 REVERT JUMPDEST POP POP POP POP PUSH1 0x40 MLOAD RETURNDATASIZE PUSH1 0x1F NOT PUSH1 0x1F DUP3 ADD AND DUP3 ADD DUP1 PUSH1 0x40 MSTORE POP DUP2 ADD SWAP1 PUSH2 0x120A SWAP2 SWAP1 PUSH2 0x4217 JUMP JUMPDEST SWAP2 POP POP SWAP2 SWAP1 POP JUMP JUMPDEST PUSH1 0x8 PUSH1 0x3 ADD SLOAD PUSH1 0x8 PUSH1 0x4 ADD PUSH1 0x0 SWAP1 SLOAD SWAP1 PUSH2 0x100 EXP SWAP1 DIV PUSH20 0xFFFFFFFFFFFFFFFFFFFFFFFFFFFFFFFFFFFFFFFF AND PUSH20 0xFFFFFFFFFFFFFFFFFFFFFFFFFFFFFFFFFFFFFFFF AND PUSH4 0x70A08231 ADDRESS PUSH1 0x40 MLOAD DUP3 PUSH4 0xFFFFFFFF AND PUSH1 0xE0 SHL DUP2 MSTORE PUSH1 0x4 ADD PUSH2 0x1276 SWAP2 SWAP1 PUSH2 0x4672 JUMP JUMPDEST PUSH1 0x20 PUSH1 0x40 MLOAD DUP1 DUP4 SUB DUP2 DUP7 DUP1 EXTCODESIZE ISZERO DUP1 ISZERO PUSH2 0x128E JUMPI PUSH1 0x0 DUP1 REVERT JUMPDEST POP GAS STATICCALL ISZERO DUP1 ISZERO PUSH2 0x12A2 JUMPI RETURNDATASIZE PUSH1 0x0 DUP1 RETURNDATACOPY RETURNDATASIZE PUSH1 0x0 REVERT JUMPDEST POP POP POP POP PUSH1 0x40 MLOAD RETURNDATASIZE PUSH1 0x1F NOT PUSH1 0x1F DUP3 ADD AND DUP3 ADD DUP1 PUSH1 0x40 MSTORE POP DUP2 ADD SWAP1 PUSH2 0x12C6 SWAP2 SWAP1 PUSH2 0x41EA JUMP JUMPDEST LT ISZERO PUSH2 0x1307 JUMPI PUSH1 0x40 MLOAD PUSH32 0x8C379A000000000000000000000000000000000000000000000000000000000 DUP2 MSTORE PUSH1 0x4 ADD PUSH2 0x12FE SWAP1 PUSH2 0x4903 JUMP JUMPDEST PUSH1 0x40 MLOAD DUP1 SWAP2 SUB SWAP1 REVERT JUMPDEST PUSH1 0x0 PUSH2 0x131D PUSH1 0x8 PUSH1 0x2 ADD SLOAD PUSH1 0x8 PUSH1 0x3 ADD SLOAD PUSH2 0x181B JUMP JUMPDEST SWAP1 POP DUP1 PUSH1 0x8 PUSH1 0x7 ADD DUP2 SWAP1 SSTORE POP POP JUMP JUMPDEST PUSH1 0x8 PUSH1 0x7 ADD SLOAD DUP3 EQ PUSH2 0x133D JUMPI PUSH1 0x0 DUP1 REVERT JUMPDEST DUP1 PUSH1 0x8 PUSH1 0x5 ADD DUP2 SWAP1 SSTORE POP PUSH2 0x134F PUSH2 0x3D4A JUMP JUMPDEST PUSH1 0x0 PUSH2 0x135F PUSH1 0x8 PUSH1 0x5 ADD SLOAD PUSH2 0x1990 JUMP JUMPDEST SWAP2 POP PUSH1 0x1 PUSH1 0x11 PUSH1 0x0 SWAP1 SLOAD SWAP1 PUSH2 0x100 EXP SWAP1 DIV PUSH1 0xFF AND PUSH1 0x3 DUP2 GT ISZERO PUSH2 0x1385 JUMPI PUSH2 0x1384 PUSH2 0x4F05 JUMP JUMPDEST JUMPDEST EQ ISZERO PUSH2 0x14D5 JUMPI PUSH2 0x1404 PUSH2 0x13FF PUSH1 0x2 PUSH1 0x8 DUP1 PUSH1 0x20 MUL PUSH1 0x40 MLOAD SWAP1 DUP2 ADD PUSH1 0x40 MSTORE DUP1 SWAP3 SWAP2 SWAP1 DUP3 PUSH1 0x8 DUP1 ISZERO PUSH2 0x13F2 JUMPI PUSH1 0x20 MUL DUP3 ADD SWAP2 PUSH1 0x0 SWAP1 JUMPDEST DUP3 DUP3 SWAP1 SLOAD SWAP1 PUSH2 0x100 EXP SWAP1 DIV PUSH2 0xFFFF AND PUSH2 0xFFFF AND DUP2 MSTORE PUSH1 0x20 ADD SWAP1 PUSH1 0x2 ADD SWAP1 PUSH1 0x20 DUP3 PUSH1 0x1 ADD DIV SWAP3 DUP4 ADD SWAP3 PUSH1 0x1 SUB DUP3 MUL SWAP2 POP DUP1 DUP5 GT PUSH2 0x13B9 JUMPI SWAP1 POP JUMPDEST POP POP POP POP POP DUP5 PUSH1 0x0 PUSH2 0x1A76 JUMP JUMPDEST PUSH2 0x1CC3 JUMP JUMPDEST SWAP1 POP PUSH1 0x0 PUSH1 0x18 PUSH1 0x14 PUSH2 0x100 EXP DUP2 SLOAD DUP2 PUSH2 0xFFFF MUL NOT AND SWAP1 DUP4 PUSH2 0xFFFF AND MUL OR SWAP1 SSTORE POP PUSH2 0x1443 DUP2 PUSH2 0x1433 PUSH1 0x3 SLOAD PUSH2 0x1F08 JUMP JUMPDEST PUSH2 0x143E PUSH1 0x3 SLOAD PUSH2 0x1F2A JUMP JUMPDEST PUSH2 0x1F4C JUMP JUMPDEST PUSH1 0x11 PUSH1 0x0 PUSH2 0x100 EXP DUP2 SLOAD SWAP1 PUSH1 0xFF MUL NOT AND SWAP1 SSTORE PUSH1 0x2 PUSH1 0x0 PUSH2 0x1463 SWAP2 SWAP1 PUSH2 0x3D6D JUMP JUMPDEST PUSH1 0x12 PUSH1 0x0 DUP1 DUP3 ADD PUSH1 0x0 PUSH2 0x1476 SWAP2 SWAP1 PUSH2 0x3D6D JUMP JUMPDEST PUSH1 0x1 DUP3 ADD PUSH1 0x0 PUSH2 0x1486 SWAP2 SWAP1 PUSH2 0x3D6D JUMP JUMPDEST PUSH1 0x2 DUP3 ADD PUSH1 0x0 PUSH2 0x1496 SWAP2 SWAP1 PUSH2 0x3D74 JUMP JUMPDEST PUSH1 0x3 DUP3 ADD PUSH1 0x0 PUSH2 0x100 EXP DUP2 SLOAD SWAP1 PUSH1 0xFF MUL NOT AND SWAP1 SSTORE PUSH1 0x4 DUP3 ADD PUSH1 0x0 PUSH2 0x14BA SWAP2 SWAP1 PUSH2 0x3D7B JUMP JUMPDEST PUSH1 0x5 DUP3 ADD PUSH1 0x0 PUSH2 0x100 EXP DUP2 SLOAD SWAP1 PUSH1 0xFF MUL NOT AND SWAP1 SSTORE POP POP PUSH2 0x17BB JUMP JUMPDEST PUSH1 0x2 PUSH1 0x11 PUSH1 0x0 SWAP1 SLOAD SWAP1 PUSH2 0x100 EXP SWAP1 DIV PUSH1 0xFF AND PUSH1 0x3 DUP2 GT ISZERO PUSH2 0x14F9 JUMPI PUSH2 0x14F8 PUSH2 0x4F05 JUMP JUMPDEST JUMPDEST EQ ISZERO PUSH2 0x1649 JUMPI PUSH2 0x1578 PUSH2 0x1573 PUSH1 0x2 PUSH1 0x8 DUP1 PUSH1 0x20 MUL PUSH1 0x40 MLOAD SWAP1 DUP2 ADD PUSH1 0x40 MSTORE DUP1 SWAP3 SWAP2 SWAP1 DUP3 PUSH1 0x8 DUP1 ISZERO PUSH2 0x1566 JUMPI PUSH1 0x20 MUL DUP3 ADD SWAP2 PUSH1 0x0 SWAP1 JUMPDEST DUP3 DUP3 SWAP1 SLOAD SWAP1 PUSH2 0x100 EXP SWAP1 DIV PUSH2 0xFFFF AND PUSH2 0xFFFF AND DUP2 MSTORE PUSH1 0x20 ADD SWAP1 PUSH1 0x2 ADD SWAP1 PUSH1 0x20 DUP3 PUSH1 0x1 ADD DIV SWAP3 DUP4 ADD SWAP3 PUSH1 0x1 SUB DUP3 MUL SWAP2 POP DUP1 DUP5 GT PUSH2 0x152D JUMPI SWAP1 POP JUMPDEST POP POP POP POP POP DUP5 PUSH1 0x0 PUSH2 0x1A76 JUMP JUMPDEST PUSH2 0x2011 JUMP JUMPDEST SWAP1 POP PUSH1 0x0 PUSH1 0x18 PUSH1 0x14 PUSH2 0x100 EXP DUP2 SLOAD DUP2 PUSH2 0xFFFF MUL NOT AND SWAP1 DUP4 PUSH2 0xFFFF AND MUL OR SWAP1 SSTORE POP PUSH2 0x15B7 DUP2 PUSH2 0x15A7 PUSH1 0x3 SLOAD PUSH2 0x1F08 JUMP JUMPDEST PUSH2 0x15B2 PUSH1 0x3 SLOAD PUSH2 0x1F2A JUMP JUMPDEST PUSH2 0x1F4C JUMP JUMPDEST PUSH1 0x11 PUSH1 0x0 PUSH2 0x100 EXP DUP2 SLOAD SWAP1 PUSH1 0xFF MUL NOT AND SWAP1 SSTORE PUSH1 0x2 PUSH1 0x0 PUSH2 0x15D7 SWAP2 SWAP1 PUSH2 0x3D6D JUMP JUMPDEST PUSH1 0x12 PUSH1 0x0 DUP1 DUP3 ADD PUSH1 0x0 PUSH2 0x15EA SWAP2 SWAP1 PUSH2 0x3D6D JUMP JUMPDEST PUSH1 0x1 DUP3 ADD PUSH1 0x0 PUSH2 0x15FA SWAP2 SWAP1 PUSH2 0x3D6D JUMP JUMPDEST PUSH1 0x2 DUP3 ADD PUSH1 0x0 PUSH2 0x160A SWAP2 SWAP1 PUSH2 0x3D74 JUMP JUMPDEST PUSH1 0x3 DUP3 ADD PUSH1 0x0 PUSH2 0x100 EXP DUP2 SLOAD SWAP1 PUSH1 0xFF MUL NOT AND SWAP1 SSTORE PUSH1 0x4 DUP3 ADD PUSH1 0x0 PUSH2 0x162E SWAP2 SWAP1 PUSH2 0x3D7B JUMP JUMPDEST PUSH1 0x5 DUP3 ADD PUSH1 0x0 PUSH2 0x100 EXP DUP2 SLOAD SWAP1 PUSH1 0xFF MUL NOT AND SWAP1 SSTORE POP POP PUSH2 0x17BA JUMP JUMPDEST PUSH1 0x3 PUSH1 0x11 PUSH1 0x0 SWAP1 SLOAD SWAP1 PUSH2 0x100 EXP SWAP1 DIV PUSH1 0xFF AND PUSH1 0x3 DUP2 GT ISZERO PUSH2 0x166D JUMPI PUSH2 0x166C PUSH2 0x4F05 JUMP JUMPDEST JUMPDEST EQ ISZERO PUSH2 0x17B9 JUMPI PUSH2 0x16EC PUSH2 0x16E7 PUSH1 0x2 PUSH1 0x8 DUP1 PUSH1 0x20 MUL PUSH1 0x40 MLOAD SWAP1 DUP2 ADD PUSH1 0x40 MSTORE DUP1 SWAP3 SWAP2 SWAP1 DUP3 PUSH1 0x8 DUP1 ISZERO PUSH2 0x16DA JUMPI PUSH1 0x20 MUL DUP3 ADD SWAP2 PUSH1 0x0 SWAP1 JUMPDEST DUP3 DUP3 SWAP1 SLOAD SWAP1 PUSH2 0x100 EXP SWAP1 DIV PUSH2 0xFFFF AND PUSH2 0xFFFF AND DUP2 MSTORE PUSH1 0x20 ADD SWAP1 PUSH1 0x2 ADD SWAP1 PUSH1 0x20 DUP3 PUSH1 0x1 ADD DIV SWAP3 DUP4 ADD SWAP3 PUSH1 0x1 SUB DUP3 MUL SWAP2 POP DUP1 DUP5 GT PUSH2 0x16A1 JUMPI SWAP1 POP JUMPDEST POP POP POP POP POP DUP5 PUSH1 0x1 PUSH2 0x1A76 JUMP JUMPDEST PUSH2 0x2256 JUMP JUMPDEST SWAP1 POP PUSH1 0x0 PUSH1 0x18 PUSH1 0x14 PUSH2 0x100 EXP DUP2 SLOAD DUP2 PUSH2 0xFFFF MUL NOT AND SWAP1 DUP4 PUSH2 0xFFFF AND MUL OR SWAP1 SSTORE POP PUSH2 0x172B DUP2 PUSH2 0x171B PUSH1 0x3 SLOAD PUSH2 0x1F08 JUMP JUMPDEST PUSH2 0x1726 PUSH1 0x3 SLOAD PUSH2 0x1F2A JUMP JUMPDEST PUSH2 0x1F4C JUMP JUMPDEST PUSH1 0x11 PUSH1 0x0 PUSH2 0x100 EXP DUP2 SLOAD SWAP1 PUSH1 0xFF MUL NOT AND SWAP1 SSTORE PUSH1 0x2 PUSH1 0x0 PUSH2 0x174B SWAP2 SWAP1 PUSH2 0x3D6D JUMP JUMPDEST PUSH1 0x12 PUSH1 0x0 DUP1 DUP3 ADD PUSH1 0x0 PUSH2 0x175E SWAP2 SWAP1 PUSH2 0x3D6D JUMP JUMPDEST PUSH1 0x1 DUP3 ADD PUSH1 0x0 PUSH2 0x176E SWAP2 SWAP1 PUSH2 0x3D6D JUMP JUMPDEST PUSH1 0x2 DUP3 ADD PUSH1 0x0 PUSH2 0x177E SWAP2 SWAP1 PUSH2 0x3D74 JUMP JUMPDEST PUSH1 0x3 DUP3 ADD PUSH1 0x0 PUSH2 0x100 EXP DUP2 SLOAD SWAP1 PUSH1 0xFF MUL NOT AND SWAP1 SSTORE PUSH1 0x4 DUP3 ADD PUSH1 0x0 PUSH2 0x17A2 SWAP2 SWAP1 PUSH2 0x3D7B JUMP JUMPDEST PUSH1 0x5 DUP3 ADD PUSH1 0x0 PUSH2 0x100 EXP DUP2 SLOAD SWAP1 PUSH1 0xFF MUL NOT AND SWAP1 SSTORE POP POP JUMPDEST JUMPDEST JUMPDEST POP POP POP POP JUMP JUMPDEST PUSH1 0x0 DUP1 PUSH32 0xBD21B19D8CF926BDA1233D510B187B736A1511D6EA3ECB5758B69F58B71D619E SWAP1 POP DUP1 SWAP2 POP POP SWAP1 JUMP JUMPDEST PUSH1 0x0 DUP1 PUSH32 0x1C2BA469BF3FCE83211EFF010708567FBEEAE896C0A247FCEB689567699266EC SWAP1 POP DUP1 SWAP2 POP POP SWAP1 JUMP JUMPDEST PUSH1 0x0 PUSH1 0x8 PUSH1 0x4 ADD PUSH1 0x0 SWAP1 SLOAD SWAP1 PUSH2 0x100 EXP SWAP1 DIV PUSH20 0xFFFFFFFFFFFFFFFFFFFFFFFFFFFFFFFFFFFFFFFF AND PUSH20 0xFFFFFFFFFFFFFFFFFFFFFFFFFFFFFFFFFFFFFFFF AND PUSH4 0x4000AEA0 PUSH1 0x8 PUSH1 0x0 ADD PUSH1 0x0 SWAP1 SLOAD SWAP1 PUSH2 0x100 EXP SWAP1 DIV PUSH20 0xFFFFFFFFFFFFFFFFFFFFFFFFFFFFFFFFFFFFFFFF AND DUP5 DUP7 PUSH1 0x0 PUSH1 0x40 MLOAD PUSH1 0x20 ADD PUSH2 0x1899 SWAP3 SWAP2 SWAP1 PUSH2 0x477D JUMP JUMPDEST PUSH1 0x40 MLOAD PUSH1 0x20 DUP2 DUP4 SUB SUB DUP2 MSTORE SWAP1 PUSH1 0x40 MSTORE PUSH1 0x40 MLOAD DUP5 PUSH4 0xFFFFFFFF AND PUSH1 0xE0 SHL DUP2 MSTORE PUSH1 0x4 ADD PUSH2 0x18C6 SWAP4 SWAP3 SWAP2 SWAP1 PUSH2 0x46ED JUMP JUMPDEST PUSH1 0x20 PUSH1 0x40 MLOAD DUP1 DUP4 SUB DUP2 PUSH1 0x0 DUP8 DUP1 EXTCODESIZE ISZERO DUP1 ISZERO PUSH2 0x18E0 JUMPI PUSH1 0x0 DUP1 REVERT JUMPDEST POP GAS CALL ISZERO DUP1 ISZERO PUSH2 0x18F4 JUMPI RETURNDATASIZE PUSH1 0x0 DUP1 RETURNDATACOPY RETURNDATASIZE PUSH1 0x0 REVERT JUMPDEST POP POP POP POP PUSH1 0x40 MLOAD RETURNDATASIZE PUSH1 0x1F NOT PUSH1 0x1F DUP3 ADD AND DUP3 ADD DUP1 PUSH1 0x40 MSTORE POP DUP2 ADD SWAP1 PUSH2 0x1918 SWAP2 SWAP1 PUSH2 0x40F6 JUMP JUMPDEST POP PUSH1 0x0 PUSH2 0x193E DUP5 PUSH1 0x0 ADDRESS PUSH1 0x8 PUSH1 0x6 ADD PUSH1 0x0 DUP10 DUP2 MSTORE PUSH1 0x20 ADD SWAP1 DUP2 MSTORE PUSH1 0x20 ADD PUSH1 0x0 KECCAK256 SLOAD PUSH2 0x249B JUMP JUMPDEST SWAP1 POP PUSH1 0x1 PUSH1 0x8 PUSH1 0x6 ADD PUSH1 0x0 DUP7 DUP2 MSTORE PUSH1 0x20 ADD SWAP1 DUP2 MSTORE PUSH1 0x20 ADD PUSH1 0x0 KECCAK256 SLOAD PUSH2 0x1963 SWAP2 SWAP1 PUSH2 0x4B30 JUMP JUMPDEST PUSH1 0x8 PUSH1 0x6 ADD PUSH1 0x0 DUP7 DUP2 MSTORE PUSH1 0x20 ADD SWAP1 DUP2 MSTORE PUSH1 0x20 ADD PUSH1 0x0 KECCAK256 DUP2 SWAP1 SSTORE POP PUSH2 0x1987 DUP5 DUP3 PUSH2 0x24D7 JUMP JUMPDEST SWAP2 POP POP SWAP3 SWAP2 POP POP JUMP JUMPDEST PUSH2 0x1998 PUSH2 0x3D4A JUMP JUMPDEST PUSH2 0x19A0 PUSH2 0x3D4A JUMP JUMPDEST PUSH1 0x0 JUMPDEST PUSH1 0x8 DUP2 PUSH1 0xFF AND LT ISZERO PUSH2 0x1A6C JUMPI PUSH1 0x7 DUP2 PUSH1 0xFF AND DUP2 SLOAD DUP2 LT PUSH2 0x19C6 JUMPI PUSH2 0x19C5 PUSH2 0x4F63 JUMP JUMPDEST JUMPDEST SWAP1 PUSH1 0x0 MSTORE PUSH1 0x20 PUSH1 0x0 KECCAK256 SWAP1 PUSH1 0x4 SWAP2 DUP3 DUP3 DIV ADD SWAP2 SWAP1 MOD PUSH1 0x8 MUL SWAP1 SLOAD SWAP1 PUSH2 0x100 EXP SWAP1 DIV PUSH8 0xFFFFFFFFFFFFFFFF AND PUSH8 0xFFFFFFFFFFFFFFFF AND DUP5 DUP3 PUSH1 0x40 MLOAD PUSH1 0x20 ADD PUSH2 0x1A0D SWAP3 SWAP2 SWAP1 PUSH2 0x4A06 JUMP JUMPDEST PUSH1 0x40 MLOAD PUSH1 0x20 DUP2 DUP4 SUB SUB DUP2 MSTORE SWAP1 PUSH1 0x40 MSTORE DUP1 MLOAD SWAP1 PUSH1 0x20 ADD KECCAK256 PUSH1 0x0 SHR PUSH2 0x1A30 SWAP2 SWAP1 PUSH2 0x4E76 JUMP JUMPDEST DUP3 DUP3 PUSH1 0xFF AND PUSH1 0x8 DUP2 LT PUSH2 0x1A46 JUMPI PUSH2 0x1A45 PUSH2 0x4F63 JUMP JUMPDEST JUMPDEST PUSH1 0x20 MUL ADD SWAP1 PUSH2 0xFFFF AND SWAP1 DUP2 PUSH2 0xFFFF AND DUP2 MSTORE POP POP DUP1 DUP1 PUSH2 0x1A64 SWAP1 PUSH2 0x4E07 JUMP JUMPDEST SWAP2 POP POP PUSH2 0x19A3 JUMP JUMPDEST POP DUP1 SWAP2 POP POP SWAP2 SWAP1 POP JUMP JUMPDEST PUSH2 0x1A7E PUSH2 0x3D82 JUMP JUMPDEST DUP4 PUSH1 0x12 PUSH1 0x0 ADD SWAP1 PUSH1 0x8 PUSH2 0x1A92 SWAP3 SWAP2 SWAP1 PUSH2 0x3DD5 JUMP JUMPDEST POP DUP3 PUSH1 0x12 PUSH1 0x1 ADD SWAP1 PUSH1 0x8 PUSH2 0x1AA7 SWAP3 SWAP2 SWAP1 PUSH2 0x3DD5 JUMP JUMPDEST POP DUP2 PUSH1 0x12 PUSH1 0x5 ADD PUSH1 0x0 PUSH2 0x100 EXP DUP2 SLOAD DUP2 PUSH1 0xFF MUL NOT AND SWAP1 DUP4 ISZERO ISZERO MUL OR SWAP1 SSTORE POP PUSH1 0x12 PUSH1 0x40 MLOAD DUP1 PUSH1 0xC0 ADD PUSH1 0x40 MSTORE SWAP1 DUP2 PUSH1 0x0 DUP3 ADD PUSH1 0x8 DUP1 PUSH1 0x20 MUL PUSH1 0x40 MLOAD SWAP1 DUP2 ADD PUSH1 0x40 MSTORE DUP1 SWAP3 SWAP2 SWAP1 DUP3 PUSH1 0x8 DUP1 ISZERO PUSH2 0x1B36 JUMPI PUSH1 0x20 MUL DUP3 ADD SWAP2 PUSH1 0x0 SWAP1 JUMPDEST DUP3 DUP3 SWAP1 SLOAD SWAP1 PUSH2 0x100 EXP SWAP1 DIV PUSH2 0xFFFF AND PUSH2 0xFFFF AND DUP2 MSTORE PUSH1 0x20 ADD SWAP1 PUSH1 0x2 ADD SWAP1 PUSH1 0x20 DUP3 PUSH1 0x1 ADD DIV SWAP3 DUP4 ADD SWAP3 PUSH1 0x1 SUB DUP3 MUL SWAP2 POP DUP1 DUP5 GT PUSH2 0x1AFD JUMPI SWAP1 POP JUMPDEST POP POP POP POP POP DUP2 MSTORE PUSH1 0x20 ADD PUSH1 0x1 DUP3 ADD PUSH1 0x8 DUP1 PUSH1 0x20 MUL PUSH1 0x40 MLOAD SWAP1 DUP2 ADD PUSH1 0x40 MSTORE DUP1 SWAP3 SWAP2 SWAP1 DUP3 PUSH1 0x8 DUP1 ISZERO PUSH2 0x1BA3 JUMPI PUSH1 0x20 MUL DUP3 ADD SWAP2 PUSH1 0x0 SWAP1 JUMPDEST DUP3 DUP3 SWAP1 SLOAD SWAP1 PUSH2 0x100 EXP SWAP1 DIV PUSH2 0xFFFF AND PUSH2 0xFFFF AND DUP2 MSTORE PUSH1 0x20 ADD SWAP1 PUSH1 0x2 ADD SWAP1 PUSH1 0x20 DUP3 PUSH1 0x1 ADD DIV SWAP3 DUP4 ADD SWAP3 PUSH1 0x1 SUB DUP3 MUL SWAP2 POP DUP1 DUP5 GT PUSH2 0x1B6A JUMPI SWAP1 POP JUMPDEST POP POP POP POP POP DUP2 MSTORE PUSH1 0x20 ADD PUSH1 0x2 DUP3 ADD PUSH1 0x2 DUP1 PUSH1 0x20 MUL PUSH1 0x40 MLOAD SWAP1 DUP2 ADD PUSH1 0x40 MSTORE DUP1 SWAP3 SWAP2 SWAP1 DUP3 PUSH1 0x2 DUP1 ISZERO PUSH2 0x1C0E JUMPI PUSH1 0x20 MUL DUP3 ADD SWAP2 PUSH1 0x0 SWAP1 JUMPDEST DUP3 DUP3 SWAP1 SLOAD SWAP1 PUSH2 0x100 EXP SWAP1 DIV PUSH1 0xFF AND PUSH1 0xFF AND DUP2 MSTORE PUSH1 0x20 ADD SWAP1 PUSH1 0x1 ADD SWAP1 PUSH1 0x20 DUP3 PUSH1 0x0 ADD DIV SWAP3 DUP4 ADD SWAP3 PUSH1 0x1 SUB DUP3 MUL SWAP2 POP DUP1 DUP5 GT PUSH2 0x1BD7 JUMPI SWAP1 POP JUMPDEST POP POP POP POP POP DUP2 MSTORE PUSH1 0x20 ADD PUSH1 0x3 DUP3 ADD PUSH1 0x0 SWAP1 SLOAD SWAP1 PUSH2 0x100 EXP SWAP1 DIV PUSH1 0xFF AND PUSH1 0xFF AND PUSH1 0xFF AND DUP2 MSTORE PUSH1 0x20 ADD PUSH1 0x4 DUP3 ADD PUSH1 0x3 DUP1 PUSH1 0x20 MUL PUSH1 0x40 MLOAD SWAP1 DUP2 ADD PUSH1 0x40 MSTORE DUP1 SWAP3 SWAP2 SWAP1 DUP3 PUSH1 0x3 DUP1 ISZERO PUSH2 0x1C96 JUMPI PUSH1 0x20 MUL DUP3 ADD SWAP2 PUSH1 0x0 SWAP1 JUMPDEST DUP3 DUP3 SWAP1 SLOAD SWAP1 PUSH2 0x100 EXP SWAP1 DIV PUSH1 0xFF AND PUSH1 0xFF AND DUP2 MSTORE PUSH1 0x20 ADD SWAP1 PUSH1 0x1 ADD SWAP1 PUSH1 0x20 DUP3 PUSH1 0x0 ADD DIV SWAP3 DUP4 ADD SWAP3 PUSH1 0x1 SUB DUP3 MUL SWAP2 POP DUP1 DUP5 GT PUSH2 0x1C5F JUMPI SWAP1 POP JUMPDEST POP POP POP POP POP DUP2 MSTORE PUSH1 0x20 ADD PUSH1 0x5 DUP3 ADD PUSH1 0x0 SWAP1 SLOAD SWAP1 PUSH2 0x100 EXP SWAP1 DIV PUSH1 0xFF AND ISZERO ISZERO ISZERO ISZERO DUP2 MSTORE POP POP SWAP1 POP SWAP4 SWAP3 POP POP POP JUMP JUMPDEST PUSH1 0x0 PUSH1 0x8 DUP3 PUSH1 0x20 ADD MLOAD POP PUSH1 0x8 EQ PUSH2 0x1CD9 JUMPI PUSH1 0x0 DUP1 REVERT JUMPDEST PUSH32 0x30AC06C3175D29725E284637CB9691F6975BFD75C28F7F552E66563977CAC68D DUP3 PUSH1 0x0 ADD MLOAD PUSH1 0x40 MLOAD PUSH2 0x1D0C SWAP2 SWAP1 PUSH2 0x4761 JUMP JUMPDEST PUSH1 0x40 MLOAD DUP1 SWAP2 SUB SWAP1 LOG1 PUSH2 0x1D1D DUP3 PUSH2 0x250A JUMP JUMPDEST SWAP2 POP PUSH2 0x1D28 DUP3 PUSH2 0x277B JUMP JUMPDEST SWAP2 POP PUSH2 0x1D33 DUP3 PUSH2 0x2BF0 JUMP JUMPDEST SWAP2 POP PUSH32 0x556F3838B96A3ED57EA8C6E614C3349ADA0231B9C478A5F37478A627BB65E028 PUSH1 0x40 MLOAD DUP1 PUSH1 0x60 ADD PUSH1 0x40 MSTORE DUP1 DUP5 PUSH1 0x0 ADD MLOAD DUP6 PUSH1 0x80 ADD MLOAD PUSH1 0x0 PUSH1 0x3 DUP2 LT PUSH2 0x1D7E JUMPI PUSH2 0x1D7D PUSH2 0x4F63 JUMP JUMPDEST JUMPDEST PUSH1 0x20 MUL ADD MLOAD PUSH1 0xFF AND PUSH1 0x8 DUP2 LT PUSH2 0x1D97 JUMPI PUSH2 0x1D96 PUSH2 0x4F63 JUMP JUMPDEST JUMPDEST PUSH1 0x20 MUL ADD MLOAD PUSH2 0xFFFF AND PUSH2 0xFFFF AND DUP2 MSTORE PUSH1 0x20 ADD DUP5 PUSH1 0x0 ADD MLOAD DUP6 PUSH1 0x80 ADD MLOAD PUSH1 0x1 PUSH1 0x3 DUP2 LT PUSH2 0x1DC6 JUMPI PUSH2 0x1DC5 PUSH2 0x4F63 JUMP JUMPDEST JUMPDEST PUSH1 0x20 MUL ADD MLOAD PUSH1 0xFF AND PUSH1 0x8 DUP2 LT PUSH2 0x1DDF JUMPI PUSH2 0x1DDE PUSH2 0x4F63 JUMP JUMPDEST JUMPDEST PUSH1 0x20 MUL ADD MLOAD PUSH2 0xFFFF AND PUSH2 0xFFFF AND DUP2 MSTORE PUSH1 0x20 ADD DUP5 PUSH1 0x0 ADD MLOAD DUP6 PUSH1 0x80 ADD MLOAD PUSH1 0x2 PUSH1 0x3 DUP2 LT PUSH2 0x1E0E JUMPI PUSH2 0x1E0D PUSH2 0x4F63 JUMP JUMPDEST JUMPDEST PUSH1 0x20 MUL ADD MLOAD PUSH1 0xFF AND PUSH1 0x8 DUP2 LT PUSH2 0x1E27 JUMPI PUSH2 0x1E26 PUSH2 0x4F63 JUMP JUMPDEST JUMPDEST PUSH1 0x20 MUL ADD MLOAD PUSH2 0xFFFF AND PUSH2 0xFFFF AND DUP2 MSTORE POP PUSH1 0x40 MLOAD PUSH2 0x1E44 SWAP2 SWAP1 PUSH2 0x4746 JUMP JUMPDEST PUSH1 0x40 MLOAD DUP1 SWAP2 SUB SWAP1 LOG1 PUSH2 0x1E55 DUP3 PUSH2 0x2E7F JUMP JUMPDEST PUSH32 0xBB51888C41405DFFBEC1FCC2DBDA08DD1E43B3D9211DE8E235921676CCEBA1E3 DUP3 PUSH1 0x0 ADD MLOAD DUP4 PUSH1 0x80 ADD MLOAD PUSH1 0x0 PUSH1 0x3 DUP2 LT PUSH2 0x1E93 JUMPI PUSH2 0x1E92 PUSH2 0x4F63 JUMP JUMPDEST JUMPDEST PUSH1 0x20 MUL ADD MLOAD PUSH1 0xFF AND PUSH1 0x8 DUP2 LT PUSH2 0x1EAC JUMPI PUSH2 0x1EAB PUSH2 0x4F63 JUMP JUMPDEST JUMPDEST PUSH1 0x20 MUL ADD MLOAD PUSH1 0x40 MLOAD PUSH2 0x1EBE SWAP2 SWAP1 PUSH2 0x4963 JUMP JUMPDEST PUSH1 0x40 MLOAD DUP1 SWAP2 SUB SWAP1 LOG1 DUP2 PUSH1 0x0 ADD MLOAD DUP3 PUSH1 0x80 ADD MLOAD PUSH1 0x0 PUSH1 0x3 DUP2 LT PUSH2 0x1EE3 JUMPI PUSH2 0x1EE2 PUSH2 0x4F63 JUMP JUMPDEST JUMPDEST PUSH1 0x20 MUL ADD MLOAD PUSH1 0xFF AND PUSH1 0x8 DUP2 LT PUSH2 0x1EFC JUMPI PUSH2 0x1EFB PUSH2 0x4F63 JUMP JUMPDEST JUMPDEST PUSH1 0x20 MUL ADD MLOAD SWAP1 POP SWAP2 SWAP1 POP JUMP JUMPDEST PUSH1 0x0 PUSH1 0x5F PUSH1 0x64 DUP4 PUSH2 0x1F19 SWAP2 SWAP1 PUSH2 0x4BBD JUMP JUMPDEST PUSH2 0x1F23 SWAP2 SWAP1 PUSH2 0x4C1F JUMP JUMPDEST SWAP1 POP SWAP2 SWAP1 POP JUMP JUMPDEST PUSH1 0x0 PUSH1 0x5 PUSH1 0x64 DUP4 PUSH2 0x1F3B SWAP2 SWAP1 PUSH2 0x4BBD JUMP JUMPDEST PUSH2 0x1F45 SWAP2 SWAP1 PUSH2 0x4C1F JUMP JUMPDEST SWAP1 POP SWAP2 SWAP1 POP JUMP JUMPDEST PUSH2 0x1F55 DUP4 PUSH2 0x2EA6 JUMP JUMPDEST PUSH20 0xFFFFFFFFFFFFFFFFFFFFFFFFFFFFFFFFFFFFFFFF AND PUSH2 0x8FC DUP4 SWAP1 DUP2 ISZERO MUL SWAP1 PUSH1 0x40 MLOAD PUSH1 0x0 PUSH1 0x40 MLOAD DUP1 DUP4 SUB DUP2 DUP6 DUP9 DUP9 CALL SWAP4 POP POP POP POP ISZERO DUP1 ISZERO PUSH2 0x1F9A JUMPI RETURNDATASIZE PUSH1 0x0 DUP1 RETURNDATACOPY RETURNDATASIZE PUSH1 0x0 REVERT JUMPDEST POP PUSH1 0x18 PUSH1 0x0 SWAP1 SLOAD SWAP1 PUSH2 0x100 EXP SWAP1 DIV PUSH20 0xFFFFFFFFFFFFFFFFFFFFFFFFFFFFFFFFFFFFFFFF AND PUSH20 0xFFFFFFFFFFFFFFFFFFFFFFFFFFFFFFFFFFFFFFFF AND PUSH2 0x8FC DUP3 SWAP1 DUP2 ISZERO MUL SWAP1 PUSH1 0x40 MLOAD PUSH1 0x0 PUSH1 0x40 MLOAD DUP1 DUP4 SUB DUP2 DUP6 DUP9 DUP9 CALL SWAP4 POP POP POP POP ISZERO DUP1 ISZERO PUSH2 0x2003 JUMPI RETURNDATASIZE PUSH1 0x0 DUP1 RETURNDATACOPY RETURNDATASIZE PUSH1 0x0 REVERT JUMPDEST POP PUSH1 0x0 PUSH1 0x3 DUP2 SWAP1 SSTORE POP POP POP POP JUMP JUMPDEST PUSH1 0x0 PUSH1 0x8 DUP3 PUSH1 0x20 ADD MLOAD POP PUSH1 0x8 EQ PUSH2 0x2027 JUMPI PUSH1 0x0 DUP1 REVERT JUMPDEST PUSH32 0x5CC59DCF45D0FFE822CC2D2DDECC363640094BE98218BF9BDA4AB082CA4942FB DUP3 PUSH1 0x0 ADD MLOAD PUSH1 0x40 MLOAD PUSH2 0x205A SWAP2 SWAP1 PUSH2 0x4761 JUMP JUMPDEST PUSH1 0x40 MLOAD DUP1 SWAP2 SUB SWAP1 LOG1 PUSH2 0x206B DUP3 PUSH2 0x250A JUMP JUMPDEST SWAP2 POP PUSH2 0x2076 DUP3 PUSH2 0x277B JUMP JUMPDEST SWAP2 POP PUSH2 0x2081 DUP3 PUSH2 0x2BF0 JUMP JUMPDEST SWAP2 POP PUSH32 0x556F3838B96A3ED57EA8C6E614C3349ADA0231B9C478A5F37478A627BB65E028 PUSH1 0x40 MLOAD DUP1 PUSH1 0x60 ADD PUSH1 0x40 MSTORE DUP1 DUP5 PUSH1 0x0 ADD MLOAD DUP6 PUSH1 0x80 ADD MLOAD PUSH1 0x0 PUSH1 0x3 DUP2 LT PUSH2 0x20CC JUMPI PUSH2 0x20CB PUSH2 0x4F63 JUMP JUMPDEST JUMPDEST PUSH1 0x20 MUL ADD MLOAD PUSH1 0xFF AND PUSH1 0x8 DUP2 LT PUSH2 0x20E5 JUMPI PUSH2 0x20E4 PUSH2 0x4F63 JUMP JUMPDEST JUMPDEST PUSH1 0x20 MUL ADD MLOAD PUSH2 0xFFFF AND PUSH2 0xFFFF AND DUP2 MSTORE PUSH1 0x20 ADD DUP5 PUSH1 0x0 ADD MLOAD DUP6 PUSH1 0x80 ADD MLOAD PUSH1 0x1 PUSH1 0x3 DUP2 LT PUSH2 0x2114 JUMPI PUSH2 0x2113 PUSH2 0x4F63 JUMP JUMPDEST JUMPDEST PUSH1 0x20 MUL ADD MLOAD PUSH1 0xFF AND PUSH1 0x8 DUP2 LT PUSH2 0x212D JUMPI PUSH2 0x212C PUSH2 0x4F63 JUMP JUMPDEST JUMPDEST PUSH1 0x20 MUL ADD MLOAD PUSH2 0xFFFF AND PUSH2 0xFFFF AND DUP2 MSTORE PUSH1 0x20 ADD DUP5 PUSH1 0x0 ADD MLOAD DUP6 PUSH1 0x80 ADD MLOAD PUSH1 0x2 PUSH1 0x3 DUP2 LT PUSH2 0x215C JUMPI PUSH2 0x215B PUSH2 0x4F63 JUMP JUMPDEST JUMPDEST PUSH1 0x20 MUL ADD MLOAD PUSH1 0xFF AND PUSH1 0x8 DUP2 LT PUSH2 0x2175 JUMPI PUSH2 0x2174 PUSH2 0x4F63 JUMP JUMPDEST JUMPDEST PUSH1 0x20 MUL ADD MLOAD PUSH2 0xFFFF AND PUSH2 0xFFFF AND DUP2 MSTORE POP PUSH1 0x40 MLOAD PUSH2 0x2192 SWAP2 SWAP1 PUSH2 0x4746 JUMP JUMPDEST PUSH1 0x40 MLOAD DUP1 SWAP2 SUB SWAP1 LOG1 PUSH2 0x21A3 DUP3 PUSH2 0x2F68 JUMP JUMPDEST PUSH32 0xA623CA69CF849DCA2D694B88E0BDDD381352F2969D41F7DDA7871C3D23084770 DUP3 PUSH1 0x0 ADD MLOAD DUP4 PUSH1 0x80 ADD MLOAD PUSH1 0x0 PUSH1 0x3 DUP2 LT PUSH2 0x21E1 JUMPI PUSH2 0x21E0 PUSH2 0x4F63 JUMP JUMPDEST JUMPDEST PUSH1 0x20 MUL ADD MLOAD PUSH1 0xFF AND PUSH1 0x8 DUP2 LT PUSH2 0x21FA JUMPI PUSH2 0x21F9 PUSH2 0x4F63 JUMP JUMPDEST JUMPDEST PUSH1 0x20 MUL ADD MLOAD PUSH1 0x40 MLOAD PUSH2 0x220C SWAP2 SWAP1 PUSH2 0x4963 JUMP JUMPDEST PUSH1 0x40 MLOAD DUP1 SWAP2 SUB SWAP1 LOG1 DUP2 PUSH1 0x0 ADD MLOAD DUP3 PUSH1 0x80 ADD MLOAD PUSH1 0x0 PUSH1 0x3 DUP2 LT PUSH2 0x2231 JUMPI PUSH2 0x2230 PUSH2 0x4F63 JUMP JUMPDEST JUMPDEST PUSH1 0x20 MUL ADD MLOAD PUSH1 0xFF AND PUSH1 0x8 DUP2 LT PUSH2 0x224A JUMPI PUSH2 0x2249 PUSH2 0x4F63 JUMP JUMPDEST JUMPDEST PUSH1 0x20 MUL ADD MLOAD SWAP1 POP SWAP2 SWAP1 POP JUMP JUMPDEST PUSH1 0x0 PUSH1 0x8 DUP3 PUSH1 0x20 ADD MLOAD POP PUSH1 0x8 EQ PUSH2 0x226C JUMPI PUSH1 0x0 DUP1 REVERT JUMPDEST PUSH32 0xDA9FBB5433D3AF0D13194D6E235811B2AC98662CD69D6BDE9EC9435AADF33090 DUP3 PUSH1 0x0 ADD MLOAD PUSH1 0x40 MLOAD PUSH2 0x229F SWAP2 SWAP1 PUSH2 0x4761 JUMP JUMPDEST PUSH1 0x40 MLOAD DUP1 SWAP2 SUB SWAP1 LOG1 PUSH2 0x22B0 DUP3 PUSH2 0x250A JUMP JUMPDEST SWAP2 POP PUSH2 0x22BB DUP3 PUSH2 0x277B JUMP JUMPDEST SWAP2 POP PUSH2 0x22C6 DUP3 PUSH2 0x2BF0 JUMP JUMPDEST SWAP2 POP PUSH32 0x556F3838B96A3ED57EA8C6E614C3349ADA0231B9C478A5F37478A627BB65E028 PUSH1 0x40 MLOAD DUP1 PUSH1 0x60 ADD PUSH1 0x40 MSTORE DUP1 DUP5 PUSH1 0x0 ADD MLOAD DUP6 PUSH1 0x80 ADD MLOAD PUSH1 0x0 PUSH1 0x3 DUP2 LT PUSH2 0x2311 JUMPI PUSH2 0x2310 PUSH2 0x4F63 JUMP JUMPDEST JUMPDEST PUSH1 0x20 MUL ADD MLOAD PUSH1 0xFF AND PUSH1 0x8 DUP2 LT PUSH2 0x232A JUMPI PUSH2 0x2329 PUSH2 0x4F63 JUMP JUMPDEST JUMPDEST PUSH1 0x20 MUL ADD MLOAD PUSH2 0xFFFF AND PUSH2 0xFFFF AND DUP2 MSTORE PUSH1 0x20 ADD DUP5 PUSH1 0x0 ADD MLOAD DUP6 PUSH1 0x80 ADD MLOAD PUSH1 0x1 PUSH1 0x3 DUP2 LT PUSH2 0x2359 JUMPI PUSH2 0x2358 PUSH2 0x4F63 JUMP JUMPDEST JUMPDEST PUSH1 0x20 MUL ADD MLOAD PUSH1 0xFF AND PUSH1 0x8 DUP2 LT PUSH2 0x2372 JUMPI PUSH2 0x2371 PUSH2 0x4F63 JUMP JUMPDEST JUMPDEST PUSH1 0x20 MUL ADD MLOAD PUSH2 0xFFFF AND PUSH2 0xFFFF AND DUP2 MSTORE PUSH1 0x20 ADD DUP5 PUSH1 0x0 ADD MLOAD DUP6 PUSH1 0x80 ADD MLOAD PUSH1 0x2 PUSH1 0x3 DUP2 LT PUSH2 0x23A1 JUMPI PUSH2 0x23A0 PUSH2 0x4F63 JUMP JUMPDEST JUMPDEST PUSH1 0x20 MUL ADD MLOAD PUSH1 0xFF AND PUSH1 0x8 DUP2 LT PUSH2 0x23BA JUMPI PUSH2 0x23B9 PUSH2 0x4F63 JUMP JUMPDEST JUMPDEST PUSH1 0x20 MUL ADD MLOAD PUSH2 0xFFFF AND PUSH2 0xFFFF AND DUP2 MSTORE POP PUSH1 0x40 MLOAD PUSH2 0x23D7 SWAP2 SWAP1 PUSH2 0x4746 JUMP JUMPDEST PUSH1 0x40 MLOAD DUP1 SWAP2 SUB SWAP1 LOG1 PUSH2 0x23E8 DUP3 PUSH2 0x2F8F JUMP JUMPDEST PUSH32 0x9EE531B4C9F9DD0AC16F44DB9A3CB7695FE808DB74BD6742920B21A434C85280 DUP3 PUSH1 0x0 ADD MLOAD DUP4 PUSH1 0x80 ADD MLOAD PUSH1 0x0 PUSH1 0x3 DUP2 LT PUSH2 0x2426 JUMPI PUSH2 0x2425 PUSH2 0x4F63 JUMP JUMPDEST JUMPDEST PUSH1 0x20 MUL ADD MLOAD PUSH1 0xFF AND PUSH1 0x8 DUP2 LT PUSH2 0x243F JUMPI PUSH2 0x243E PUSH2 0x4F63 JUMP JUMPDEST JUMPDEST PUSH1 0x20 MUL ADD MLOAD PUSH1 0x40 MLOAD PUSH2 0x2451 SWAP2 SWAP1 PUSH2 0x4963 JUMP JUMPDEST PUSH1 0x40 MLOAD DUP1 SWAP2 SUB SWAP1 LOG1 DUP2 PUSH1 0x0 ADD MLOAD DUP3 PUSH1 0x80 ADD MLOAD PUSH1 0x0 PUSH1 0x3 DUP2 LT PUSH2 0x2476 JUMPI PUSH2 0x2475 PUSH2 0x4F63 JUMP JUMPDEST JUMPDEST PUSH1 0x20 MUL ADD MLOAD PUSH1 0xFF AND PUSH1 0x8 DUP2 LT PUSH2 0x248F JUMPI PUSH2 0x248E PUSH2 0x4F63 JUMP JUMPDEST JUMPDEST PUSH1 0x20 MUL ADD MLOAD SWAP1 POP SWAP2 SWAP1 POP JUMP JUMPDEST PUSH1 0x0 DUP5 DUP5 DUP5 DUP5 PUSH1 0x40 MLOAD PUSH1 0x20 ADD PUSH2 0x24B4 SWAP5 SWAP4 SWAP3 SWAP2 SWAP1 PUSH2 0x47A6 JUMP JUMPDEST PUSH1 0x40 MLOAD PUSH1 0x20 DUP2 DUP4 SUB SUB DUP2 MSTORE SWAP1 PUSH1 0x40 MSTORE DUP1 MLOAD SWAP1 PUSH1 0x20 ADD KECCAK256 PUSH1 0x0 SHR SWAP1 POP SWAP5 SWAP4 POP POP POP POP JUMP JUMPDEST PUSH1 0x0 DUP3 DUP3 PUSH1 0x40 MLOAD PUSH1 0x20 ADD PUSH2 0x24EC SWAP3 SWAP2 SWAP1 PUSH2 0x4646 JUMP JUMPDEST PUSH1 0x40 MLOAD PUSH1 0x20 DUP2 DUP4 SUB SUB DUP2 MSTORE SWAP1 PUSH1 0x40 MSTORE DUP1 MLOAD SWAP1 PUSH1 0x20 ADD KECCAK256 SWAP1 POP SWAP3 SWAP2 POP POP JUMP JUMPDEST PUSH2 0x2512 PUSH2 0x3D82 JUMP JUMPDEST PUSH1 0x2 DUP3 PUSH1 0x20 ADD MLOAD POP PUSH1 0x8 EQ PUSH2 0x2526 JUMPI PUSH1 0x0 DUP1 REVERT JUMPDEST PUSH1 0x8 DUP3 PUSH1 0x20 ADD MLOAD PUSH1 0x0 PUSH1 0x8 DUP2 LT PUSH2 0x2540 JUMPI PUSH2 0x253F PUSH2 0x4F63 JUMP JUMPDEST JUMPDEST PUSH1 0x20 MUL ADD MLOAD PUSH2 0x254F SWAP2 SWAP1 PUSH2 0x4E45 JUMP JUMPDEST DUP3 PUSH1 0x40 ADD MLOAD PUSH1 0x0 PUSH1 0x2 DUP2 LT PUSH2 0x2567 JUMPI PUSH2 0x2566 PUSH2 0x4F63 JUMP JUMPDEST JUMPDEST PUSH1 0x20 MUL ADD SWAP1 PUSH1 0xFF AND SWAP1 DUP2 PUSH1 0xFF AND DUP2 MSTORE POP POP PUSH1 0x8 DUP3 PUSH1 0x20 ADD MLOAD PUSH1 0x1 PUSH1 0x8 DUP2 LT PUSH2 0x2592 JUMPI PUSH2 0x2591 PUSH2 0x4F63 JUMP JUMPDEST JUMPDEST PUSH1 0x20 MUL ADD MLOAD PUSH2 0x25A1 SWAP2 SWAP1 PUSH2 0x4E45 JUMP JUMPDEST DUP3 PUSH1 0x40 ADD MLOAD PUSH1 0x1 PUSH1 0x2 DUP2 LT PUSH2 0x25B9 JUMPI PUSH2 0x25B8 PUSH2 0x4F63 JUMP JUMPDEST JUMPDEST PUSH1 0x20 MUL ADD SWAP1 PUSH1 0xFF AND SWAP1 DUP2 PUSH1 0xFF AND DUP2 MSTORE POP POP JUMPDEST DUP2 PUSH1 0x40 ADD MLOAD PUSH1 0x1 PUSH1 0x2 DUP2 LT PUSH2 0x25E3 JUMPI PUSH2 0x25E2 PUSH2 0x4F63 JUMP JUMPDEST JUMPDEST PUSH1 0x20 MUL ADD MLOAD PUSH1 0xFF AND DUP3 PUSH1 0x40 ADD MLOAD PUSH1 0x0 PUSH1 0x2 DUP2 LT PUSH2 0x2603 JUMPI PUSH2 0x2602 PUSH2 0x4F63 JUMP JUMPDEST JUMPDEST PUSH1 0x20 MUL ADD MLOAD PUSH1 0xFF AND EQ ISZERO PUSH2 0x26A4 JUMPI PUSH1 0x0 PUSH2 0x2638 DUP4 PUSH1 0x40 ADD MLOAD PUSH1 0x0 PUSH1 0x2 DUP2 LT PUSH2 0x262E JUMPI PUSH2 0x262D PUSH2 0x4F63 JUMP JUMPDEST JUMPDEST PUSH1 0x20 MUL ADD MLOAD PUSH2 0x2FB6 JUMP JUMPDEST SWAP1 POP DUP1 PUSH2 0x269E JUMPI PUSH1 0x7 DUP4 PUSH1 0x20 ADD MLOAD PUSH1 0x3 PUSH1 0x8 DUP2 LT PUSH2 0x2659 JUMPI PUSH2 0x2658 PUSH2 0x4F63 JUMP JUMPDEST JUMPDEST PUSH1 0x20 MUL ADD MLOAD PUSH2 0x2668 SWAP2 SWAP1 PUSH2 0x4E45 JUMP JUMPDEST PUSH1 0x0 PUSH2 0x2674 SWAP2 SWAP1 PUSH2 0x4B86 JUMP JUMPDEST DUP4 PUSH1 0x40 ADD MLOAD PUSH1 0x0 PUSH1 0x2 DUP2 LT PUSH2 0x268C JUMPI PUSH2 0x268B PUSH2 0x4F63 JUMP JUMPDEST JUMPDEST PUSH1 0x20 MUL ADD SWAP1 PUSH1 0xFF AND SWAP1 DUP2 PUSH1 0xFF AND DUP2 MSTORE POP POP JUMPDEST POP PUSH2 0x25CB JUMP JUMPDEST PUSH32 0xD9DCFC5CBE089F518AFF1BABF0AEE6928DA985104F2026B8AD145190CCE552EF PUSH1 0x40 MLOAD DUP1 PUSH1 0x40 ADD PUSH1 0x40 MSTORE DUP1 DUP5 PUSH1 0x0 ADD MLOAD DUP6 PUSH1 0x40 ADD MLOAD PUSH1 0x0 PUSH1 0x2 DUP2 LT PUSH2 0x26ED JUMPI PUSH2 0x26EC PUSH2 0x4F63 JUMP JUMPDEST JUMPDEST PUSH1 0x20 MUL ADD MLOAD PUSH1 0xFF AND PUSH1 0x8 DUP2 LT PUSH2 0x2706 JUMPI PUSH2 0x2705 PUSH2 0x4F63 JUMP JUMPDEST JUMPDEST PUSH1 0x20 MUL ADD MLOAD PUSH2 0xFFFF AND PUSH2 0xFFFF AND DUP2 MSTORE PUSH1 0x20 ADD DUP5 PUSH1 0x0 ADD MLOAD DUP6 PUSH1 0x40 ADD MLOAD PUSH1 0x1 PUSH1 0x2 DUP2 LT PUSH2 0x2735 JUMPI PUSH2 0x2734 PUSH2 0x4F63 JUMP JUMPDEST JUMPDEST PUSH1 0x20 MUL ADD MLOAD PUSH1 0xFF AND PUSH1 0x8 DUP2 LT PUSH2 0x274E JUMPI PUSH2 0x274D PUSH2 0x4F63 JUMP JUMPDEST JUMPDEST PUSH1 0x20 MUL ADD MLOAD PUSH2 0xFFFF AND PUSH2 0xFFFF AND DUP2 MSTORE POP PUSH1 0x40 MLOAD PUSH2 0x276B SWAP2 SWAP1 PUSH2 0x472B JUMP JUMPDEST PUSH1 0x40 MLOAD DUP1 SWAP2 SUB SWAP1 LOG1 DUP2 SWAP1 POP SWAP2 SWAP1 POP JUMP JUMPDEST PUSH2 0x2783 PUSH2 0x3D82 JUMP JUMPDEST PUSH1 0x0 DUP1 PUSH1 0x2 DUP5 PUSH1 0x20 ADD MLOAD PUSH1 0x4 PUSH1 0x8 DUP2 LT PUSH2 0x27A0 JUMPI PUSH2 0x279F PUSH2 0x4F63 JUMP JUMPDEST JUMPDEST PUSH1 0x20 MUL ADD MLOAD PUSH2 0x27AF SWAP2 SWAP1 PUSH2 0x4E45 JUMP JUMPDEST PUSH2 0xFFFF AND EQ PUSH2 0x27DD JUMPI DUP3 PUSH1 0x40 ADD MLOAD PUSH1 0x1 PUSH1 0x2 DUP2 LT PUSH2 0x27D0 JUMPI PUSH2 0x27CF PUSH2 0x4F63 JUMP JUMPDEST JUMPDEST PUSH1 0x20 MUL ADD MLOAD SWAP1 POP DUP1 PUSH2 0x27FE JUMP JUMPDEST DUP3 PUSH1 0x40 ADD MLOAD PUSH1 0x0 PUSH1 0x2 DUP2 LT PUSH2 0x27F5 JUMPI PUSH2 0x27F4 PUSH2 0x4F63 JUMP JUMPDEST JUMPDEST PUSH1 0x20 MUL ADD MLOAD SWAP1 POP DUP1 JUMPDEST POP DUP3 PUSH1 0x40 ADD MLOAD PUSH1 0x0 PUSH1 0x2 DUP2 LT PUSH2 0x2817 JUMPI PUSH2 0x2816 PUSH2 0x4F63 JUMP JUMPDEST JUMPDEST PUSH1 0x20 MUL ADD MLOAD PUSH1 0xFF AND DUP2 PUSH1 0xFF AND EQ ISZERO PUSH2 0x2A0A JUMPI PUSH32 0x553875A05605845D3C0472FC96B9AEADC5F68B4D29D75FB80CDB82E6D3D7984C DUP4 PUSH1 0x0 ADD MLOAD DUP5 PUSH1 0x40 ADD MLOAD PUSH1 0x0 PUSH1 0x2 DUP2 LT PUSH2 0x2867 JUMPI PUSH2 0x2866 PUSH2 0x4F63 JUMP JUMPDEST JUMPDEST PUSH1 0x20 MUL ADD MLOAD PUSH1 0xFF AND PUSH1 0x8 DUP2 LT PUSH2 0x2880 JUMPI PUSH2 0x287F PUSH2 0x4F63 JUMP JUMPDEST JUMPDEST PUSH1 0x20 MUL ADD MLOAD PUSH1 0x40 MLOAD PUSH2 0x2892 SWAP2 SWAP1 PUSH2 0x4963 JUMP JUMPDEST PUSH1 0x40 MLOAD DUP1 SWAP2 SUB SWAP1 LOG1 DUP3 PUSH1 0x40 ADD MLOAD PUSH1 0x0 PUSH1 0x2 DUP2 LT PUSH2 0x28B2 JUMPI PUSH2 0x28B1 PUSH2 0x4F63 JUMP JUMPDEST JUMPDEST PUSH1 0x20 MUL ADD MLOAD DUP4 PUSH1 0x60 ADD SWAP1 PUSH1 0xFF AND SWAP1 DUP2 PUSH1 0xFF AND DUP2 MSTORE POP POP DUP3 PUSH1 0xA0 ADD MLOAD PUSH2 0x2950 JUMPI PUSH32 0x58CF999F6795F5857EB2B3DC340E321768493FFF3F14C70B6FDCCFB57DAE7AE4 DUP4 PUSH1 0x0 ADD MLOAD DUP5 PUSH1 0x40 ADD MLOAD PUSH1 0x1 PUSH1 0x2 DUP2 LT PUSH2 0x290F JUMPI PUSH2 0x290E PUSH2 0x4F63 JUMP JUMPDEST JUMPDEST PUSH1 0x20 MUL ADD MLOAD PUSH1 0xFF AND PUSH1 0x8 DUP2 LT PUSH2 0x2928 JUMPI PUSH2 0x2927 PUSH2 0x4F63 JUMP JUMPDEST JUMPDEST PUSH1 0x20 MUL ADD MLOAD PUSH1 0x40 MLOAD PUSH2 0x293A SWAP2 SWAP1 PUSH2 0x4963 JUMP JUMPDEST PUSH1 0x40 MLOAD DUP1 SWAP2 SUB SWAP1 LOG1 PUSH2 0x294B DUP4 PUSH2 0x2FE9 JUMP JUMPDEST PUSH2 0x2A05 JUMP JUMPDEST PUSH2 0x2993 DUP4 PUSH1 0x0 ADD MLOAD DUP5 PUSH1 0x40 ADD MLOAD PUSH1 0x1 PUSH1 0x2 DUP2 LT PUSH2 0x2970 JUMPI PUSH2 0x296F PUSH2 0x4F63 JUMP JUMPDEST JUMPDEST PUSH1 0x20 MUL ADD MLOAD PUSH1 0xFF AND PUSH1 0x8 DUP2 LT PUSH2 0x2989 JUMPI PUSH2 0x2988 PUSH2 0x4F63 JUMP JUMPDEST JUMPDEST PUSH1 0x20 MUL ADD MLOAD PUSH2 0x3195 JUMP JUMPDEST PUSH32 0xC98F482E8D4BD36B9D5E73A0AE52C1087FCBB72DFF56AF788FFD1846BB422B8A DUP4 PUSH1 0x0 ADD MLOAD DUP5 PUSH1 0x40 ADD MLOAD PUSH1 0x1 PUSH1 0x2 DUP2 LT PUSH2 0x29D1 JUMPI PUSH2 0x29D0 PUSH2 0x4F63 JUMP JUMPDEST JUMPDEST PUSH1 0x20 MUL ADD MLOAD PUSH1 0xFF AND PUSH1 0x8 DUP2 LT PUSH2 0x29EA JUMPI PUSH2 0x29E9 PUSH2 0x4F63 JUMP JUMPDEST JUMPDEST PUSH1 0x20 MUL ADD MLOAD PUSH1 0x40 MLOAD PUSH2 0x29FC SWAP2 SWAP1 PUSH2 0x4963 JUMP JUMPDEST PUSH1 0x40 MLOAD DUP1 SWAP2 SUB SWAP1 LOG1 JUMPDEST PUSH2 0x2BE7 JUMP JUMPDEST DUP3 PUSH1 0x40 ADD MLOAD PUSH1 0x1 PUSH1 0x2 DUP2 LT PUSH2 0x2A22 JUMPI PUSH2 0x2A21 PUSH2 0x4F63 JUMP JUMPDEST JUMPDEST PUSH1 0x20 MUL ADD MLOAD DUP4 PUSH1 0x60 ADD SWAP1 PUSH1 0xFF AND SWAP1 DUP2 PUSH1 0xFF AND DUP2 MSTORE POP POP PUSH32 0x553875A05605845D3C0472FC96B9AEADC5F68B4D29D75FB80CDB82E6D3D7984C DUP4 PUSH1 0x0 ADD MLOAD DUP5 PUSH1 0x40 ADD MLOAD PUSH1 0x1 PUSH1 0x2 DUP2 LT PUSH2 0x2A76 JUMPI PUSH2 0x2A75 PUSH2 0x4F63 JUMP JUMPDEST JUMPDEST PUSH1 0x20 MUL ADD MLOAD PUSH1 0xFF AND PUSH1 0x8 DUP2 LT PUSH2 0x2A8F JUMPI PUSH2 0x2A8E PUSH2 0x4F63 JUMP JUMPDEST JUMPDEST PUSH1 0x20 MUL ADD MLOAD PUSH1 0x40 MLOAD PUSH2 0x2AA1 SWAP2 SWAP1 PUSH2 0x4963 JUMP JUMPDEST PUSH1 0x40 MLOAD DUP1 SWAP2 SUB SWAP1 LOG1 DUP3 PUSH1 0xA0 ADD MLOAD PUSH2 0x2B31 JUMPI PUSH2 0x2ABB DUP4 PUSH2 0x2FE9 JUMP JUMPDEST PUSH32 0x58CF999F6795F5857EB2B3DC340E321768493FFF3F14C70B6FDCCFB57DAE7AE4 DUP4 PUSH1 0x0 ADD MLOAD DUP5 PUSH1 0x40 ADD MLOAD PUSH1 0x0 PUSH1 0x2 DUP2 LT PUSH2 0x2AF9 JUMPI PUSH2 0x2AF8 PUSH2 0x4F63 JUMP JUMPDEST JUMPDEST PUSH1 0x20 MUL ADD MLOAD PUSH1 0xFF AND PUSH1 0x8 DUP2 LT PUSH2 0x2B12 JUMPI PUSH2 0x2B11 PUSH2 0x4F63 JUMP JUMPDEST JUMPDEST PUSH1 0x20 MUL ADD MLOAD PUSH1 0x40 MLOAD PUSH2 0x2B24 SWAP2 SWAP1 PUSH2 0x4963 JUMP JUMPDEST PUSH1 0x40 MLOAD DUP1 SWAP2 SUB SWAP1 LOG1 PUSH2 0x2BE6 JUMP JUMPDEST PUSH2 0x2B74 DUP4 PUSH1 0x0 ADD MLOAD DUP5 PUSH1 0x40 ADD MLOAD PUSH1 0x0 PUSH1 0x2 DUP2 LT PUSH2 0x2B51 JUMPI PUSH2 0x2B50 PUSH2 0x4F63 JUMP JUMPDEST JUMPDEST PUSH1 0x20 MUL ADD MLOAD PUSH1 0xFF AND PUSH1 0x8 DUP2 LT PUSH2 0x2B6A JUMPI PUSH2 0x2B69 PUSH2 0x4F63 JUMP JUMPDEST JUMPDEST PUSH1 0x20 MUL ADD MLOAD PUSH2 0x3195 JUMP JUMPDEST PUSH32 0xC98F482E8D4BD36B9D5E73A0AE52C1087FCBB72DFF56AF788FFD1846BB422B8A DUP4 PUSH1 0x0 ADD MLOAD DUP5 PUSH1 0x40 ADD MLOAD PUSH1 0x0 PUSH1 0x2 DUP2 LT PUSH2 0x2BB2 JUMPI PUSH2 0x2BB1 PUSH2 0x4F63 JUMP JUMPDEST JUMPDEST PUSH1 0x20 MUL ADD MLOAD PUSH1 0xFF AND PUSH1 0x8 DUP2 LT PUSH2 0x2BCB JUMPI PUSH2 0x2BCA PUSH2 0x4F63 JUMP JUMPDEST JUMPDEST PUSH1 0x20 MUL ADD MLOAD PUSH1 0x40 MLOAD PUSH2 0x2BDD SWAP2 SWAP1 PUSH2 0x4963 JUMP JUMPDEST PUSH1 0x40 MLOAD DUP1 SWAP2 SUB SWAP1 LOG1 JUMPDEST JUMPDEST DUP3 SWAP2 POP POP SWAP2 SWAP1 POP JUMP JUMPDEST PUSH2 0x2BF8 PUSH2 0x3D82 JUMP JUMPDEST PUSH1 0x8 DUP3 PUSH1 0x20 ADD MLOAD POP PUSH1 0x8 EQ PUSH2 0x2C0C JUMPI PUSH1 0x0 DUP1 REVERT JUMPDEST PUSH1 0x0 PUSH2 0x2C16 PUSH2 0x3D4A JUMP JUMPDEST PUSH1 0x0 PUSH2 0x2C20 PUSH2 0x17EE JUMP JUMPDEST PUSH1 0x0 ADD PUSH1 0x0 SWAP1 SLOAD SWAP1 PUSH2 0x100 EXP SWAP1 DIV PUSH20 0xFFFFFFFFFFFFFFFFFFFFFFFFFFFFFFFFFFFFFFFF AND SWAP1 POP JUMPDEST PUSH1 0x8 DUP4 PUSH1 0xFF AND LT ISZERO PUSH2 0x2D36 JUMPI DUP1 PUSH20 0xFFFFFFFFFFFFFFFFFFFFFFFFFFFFFFFFFFFFFFFF AND PUSH4 0x8BFFEF62 DUP7 PUSH1 0x0 ADD MLOAD DUP6 PUSH1 0xFF AND PUSH1 0x8 DUP2 LT PUSH2 0x2C89 JUMPI PUSH2 0x2C88 PUSH2 0x4F63 JUMP JUMPDEST JUMPDEST PUSH1 0x20 MUL ADD MLOAD PUSH1 0x40 MLOAD DUP3 PUSH4 0xFFFFFFFF AND PUSH1 0xE0 SHL DUP2 MSTORE PUSH1 0x4 ADD PUSH2 0x2CAA SWAP2 SWAP1 PUSH2 0x4963 JUMP JUMPDEST PUSH1 0x20 PUSH1 0x40 MLOAD DUP1 DUP4 SUB DUP2 DUP7 DUP1 EXTCODESIZE ISZERO DUP1 ISZERO PUSH2 0x2CC2 JUMPI PUSH1 0x0 DUP1 REVERT JUMPDEST POP GAS STATICCALL ISZERO DUP1 ISZERO PUSH2 0x2CD6 JUMPI RETURNDATASIZE PUSH1 0x0 DUP1 RETURNDATACOPY RETURNDATASIZE PUSH1 0x0 REVERT JUMPDEST POP POP POP POP PUSH1 0x40 MLOAD RETURNDATASIZE PUSH1 0x1F NOT PUSH1 0x1F DUP3 ADD AND DUP3 ADD DUP1 PUSH1 0x40 MSTORE POP DUP2 ADD SWAP1 PUSH2 0x2CFA SWAP2 SWAP1 PUSH2 0x4190 JUMP JUMPDEST DUP3 DUP5 PUSH1 0xFF AND PUSH1 0x8 DUP2 LT PUSH2 0x2D10 JUMPI PUSH2 0x2D0F PUSH2 0x4F63 JUMP JUMPDEST JUMPDEST PUSH1 0x20 MUL ADD SWAP1 PUSH2 0xFFFF AND SWAP1 DUP2 PUSH2 0xFFFF AND DUP2 MSTORE POP POP DUP3 DUP1 PUSH2 0x2D2E SWAP1 PUSH2 0x4E07 JUMP JUMPDEST SWAP4 POP POP PUSH2 0x2C47 JUMP JUMPDEST PUSH1 0x0 SWAP3 POP PUSH2 0x2D42 PUSH2 0x3E72 JUMP JUMPDEST PUSH2 0x2D4A PUSH2 0x3E95 JUMP JUMPDEST PUSH1 0x0 PUSH2 0x2D54 PUSH2 0x17C1 JUMP JUMPDEST PUSH1 0x0 ADD PUSH1 0x0 SWAP1 SLOAD SWAP1 PUSH2 0x100 EXP SWAP1 DIV PUSH4 0xFFFFFFFF AND SWAP1 POP JUMPDEST PUSH1 0x8 DUP7 PUSH1 0xFF AND LT ISZERO PUSH2 0x2E5B JUMPI PUSH1 0x5 DUP9 PUSH1 0x20 ADD MLOAD DUP8 PUSH1 0xFF AND PUSH1 0x8 DUP2 LT PUSH2 0x2D93 JUMPI PUSH2 0x2D92 PUSH2 0x4F63 JUMP JUMPDEST JUMPDEST PUSH1 0x20 MUL ADD MLOAD PUSH2 0x2DA2 SWAP2 SWAP1 PUSH2 0x4E45 JUMP JUMPDEST DUP4 DUP8 PUSH1 0xFF AND PUSH1 0x8 DUP2 LT PUSH2 0x2DB8 JUMPI PUSH2 0x2DB7 PUSH2 0x4F63 JUMP JUMPDEST JUMPDEST PUSH1 0x20 MUL ADD SWAP1 PUSH1 0xFF AND SWAP1 DUP2 PUSH1 0xFF AND DUP2 MSTORE POP POP DUP3 DUP7 PUSH1 0xFF AND PUSH1 0x8 DUP2 LT PUSH2 0x2DDF JUMPI PUSH2 0x2DDE PUSH2 0x4F63 JUMP JUMPDEST JUMPDEST PUSH1 0x20 MUL ADD MLOAD PUSH1 0xFF AND DUP6 DUP8 PUSH1 0xFF AND PUSH1 0x8 DUP2 LT PUSH2 0x2DFD JUMPI PUSH2 0x2DFC PUSH2 0x4F63 JUMP JUMPDEST JUMPDEST PUSH1 0x20 MUL ADD MLOAD PUSH2 0x2E0C SWAP2 SWAP1 PUSH2 0x4AF8 JUMP JUMPDEST PUSH2 0xFFFF AND DUP2 PUSH2 0x2E1B SWAP2 SWAP1 PUSH2 0x4BEE JUMP JUMPDEST DUP3 DUP8 PUSH1 0xFF AND PUSH1 0x8 DUP2 LT PUSH2 0x2E31 JUMPI PUSH2 0x2E30 PUSH2 0x4F63 JUMP JUMPDEST JUMPDEST PUSH1 0x20 MUL ADD SWAP1 PUSH4 0xFFFFFFFF AND SWAP1 DUP2 PUSH4 0xFFFFFFFF AND DUP2 MSTORE POP POP DUP6 DUP1 PUSH2 0x2E53 SWAP1 PUSH2 0x4E07 JUMP JUMPDEST SWAP7 POP POP PUSH2 0x2D6B JUMP JUMPDEST PUSH2 0x2E69 DUP9 PUSH1 0x40 ADD MLOAD DUP4 PUSH2 0x3241 JUMP JUMPDEST DUP9 PUSH1 0x80 ADD DUP2 SWAP1 MSTORE POP DUP8 SWAP7 POP POP POP POP POP POP POP SWAP2 SWAP1 POP JUMP JUMPDEST PUSH2 0x2E88 DUP2 PUSH2 0x3596 JUMP JUMPDEST PUSH2 0x2E91 DUP2 PUSH2 0x36D4 JUMP JUMPDEST PUSH2 0x2E9A DUP2 PUSH2 0x384E JUMP JUMPDEST PUSH2 0x2EA3 DUP2 PUSH2 0x39AB JUMP JUMPDEST POP JUMP JUMPDEST PUSH1 0x0 DUP1 PUSH2 0x2EB1 PUSH2 0x17EE JUMP JUMPDEST SWAP1 POP DUP1 PUSH1 0x0 ADD PUSH1 0x0 SWAP1 SLOAD SWAP1 PUSH2 0x100 EXP SWAP1 DIV PUSH20 0xFFFFFFFFFFFFFFFFFFFFFFFFFFFFFFFFFFFFFFFF AND PUSH20 0xFFFFFFFFFFFFFFFFFFFFFFFFFFFFFFFFFFFFFFFF AND PUSH4 0x6352211E DUP5 PUSH1 0x40 MLOAD DUP3 PUSH4 0xFFFFFFFF AND PUSH1 0xE0 SHL DUP2 MSTORE PUSH1 0x4 ADD PUSH2 0x2F10 SWAP2 SWAP1 PUSH2 0x497E JUMP JUMPDEST PUSH1 0x20 PUSH1 0x40 MLOAD DUP1 DUP4 SUB DUP2 DUP7 DUP1 EXTCODESIZE ISZERO DUP1 ISZERO PUSH2 0x2F28 JUMPI PUSH1 0x0 DUP1 REVERT JUMPDEST POP GAS STATICCALL ISZERO DUP1 ISZERO PUSH2 0x2F3C JUMPI RETURNDATASIZE PUSH1 0x0 DUP1 RETURNDATACOPY RETURNDATASIZE PUSH1 0x0 REVERT JUMPDEST POP POP POP POP PUSH1 0x40 MLOAD RETURNDATASIZE PUSH1 0x1F NOT PUSH1 0x1F DUP3 ADD AND DUP3 ADD DUP1 PUSH1 0x40 MSTORE POP DUP2 ADD SWAP1 PUSH2 0x2F60 SWAP2 SWAP1 PUSH2 0x4041 JUMP JUMPDEST SWAP2 POP POP SWAP2 SWAP1 POP JUMP JUMPDEST PUSH2 0x2F71 DUP2 PUSH2 0x3B4A JUMP JUMPDEST PUSH2 0x2F7A DUP2 PUSH2 0x36D4 JUMP JUMPDEST PUSH2 0x2F83 DUP2 PUSH2 0x384E JUMP JUMPDEST PUSH2 0x2F8C DUP2 PUSH2 0x39AB JUMP JUMPDEST POP JUMP JUMPDEST PUSH2 0x2F98 DUP2 PUSH2 0x3B4A JUMP JUMPDEST PUSH2 0x2FA1 DUP2 PUSH2 0x36D4 JUMP JUMPDEST PUSH2 0x2FAA DUP2 PUSH2 0x384E JUMP JUMPDEST PUSH2 0x2FB3 DUP2 PUSH2 0x39AB JUMP JUMPDEST POP JUMP JUMPDEST PUSH1 0x0 PUSH1 0x8 DUP3 PUSH1 0xFF AND LT DUP1 ISZERO PUSH2 0x2FCF JUMPI POP PUSH1 0x0 DUP3 PUSH1 0xFF AND LT ISZERO JUMPDEST PUSH2 0x2FDD JUMPI PUSH1 0x0 SWAP1 POP DUP1 PUSH2 0x2FE3 JUMP JUMPDEST PUSH1 0x1 SWAP1 POP DUP1 JUMPDEST POP SWAP2 SWAP1 POP JUMP JUMPDEST PUSH1 0x0 PUSH2 0x2FF3 PUSH2 0x17EE JUMP JUMPDEST PUSH1 0x0 ADD PUSH1 0x0 SWAP1 SLOAD SWAP1 PUSH2 0x100 EXP SWAP1 DIV PUSH20 0xFFFFFFFFFFFFFFFFFFFFFFFFFFFFFFFFFFFFFFFF AND SWAP1 POP PUSH1 0x0 DUP3 PUSH1 0x40 ADD MLOAD PUSH1 0x0 PUSH1 0x2 DUP2 LT PUSH2 0x3033 JUMPI PUSH2 0x3032 PUSH2 0x4F63 JUMP JUMPDEST JUMPDEST PUSH1 0x20 MUL ADD MLOAD PUSH1 0xFF AND DUP4 PUSH1 0x60 ADD MLOAD PUSH1 0xFF AND EQ PUSH2 0x3052 JUMPI PUSH1 0x0 SWAP1 POP DUP1 PUSH2 0x3058 JUMP JUMPDEST PUSH1 0x1 SWAP1 POP DUP1 JUMPDEST POP PUSH1 0x0 PUSH2 0x3082 DUP5 PUSH1 0x0 ADD MLOAD DUP4 PUSH1 0xFF AND PUSH1 0x8 DUP2 LT PUSH2 0x3078 JUMPI PUSH2 0x3077 PUSH2 0x4F63 JUMP JUMPDEST JUMPDEST PUSH1 0x20 MUL ADD MLOAD PUSH2 0x3C88 JUMP JUMPDEST SWAP1 POP PUSH1 0x0 DUP2 PUSH2 0x3096 JUMPI PUSH2 0xA8C0 SWAP1 POP DUP1 PUSH2 0x309D JUMP JUMPDEST PUSH2 0x5460 SWAP1 POP DUP1 JUMPDEST POP PUSH1 0x0 DUP5 PUSH20 0xFFFFFFFFFFFFFFFFFFFFFFFFFFFFFFFFFFFFFFFF AND PUSH4 0xA57CE661 DUP8 PUSH1 0x0 ADD MLOAD DUP7 PUSH1 0xFF AND PUSH1 0x8 DUP2 LT PUSH2 0x30D6 JUMPI PUSH2 0x30D5 PUSH2 0x4F63 JUMP JUMPDEST JUMPDEST PUSH1 0x20 MUL ADD MLOAD DUP5 PUSH1 0x40 MLOAD DUP4 PUSH4 0xFFFFFFFF AND PUSH1 0xE0 SHL DUP2 MSTORE PUSH1 0x4 ADD PUSH2 0x30F9 SWAP3 SWAP2 SWAP1 PUSH2 0x4999 JUMP JUMPDEST PUSH1 0x20 PUSH1 0x40 MLOAD DUP1 DUP4 SUB DUP2 PUSH1 0x0 DUP8 DUP1 EXTCODESIZE ISZERO DUP1 ISZERO PUSH2 0x3113 JUMPI PUSH1 0x0 DUP1 REVERT JUMPDEST POP GAS CALL ISZERO DUP1 ISZERO PUSH2 0x3127 JUMPI RETURNDATASIZE PUSH1 0x0 DUP1 RETURNDATACOPY RETURNDATASIZE PUSH1 0x0 REVERT JUMPDEST POP POP POP POP PUSH1 0x40 MLOAD RETURNDATASIZE PUSH1 0x1F NOT PUSH1 0x1F DUP3 ADD AND DUP3 ADD DUP1 PUSH1 0x40 MSTORE POP DUP2 ADD SWAP1 PUSH2 0x314B SWAP2 SWAP1 PUSH2 0x40F6 JUMP JUMPDEST SWAP1 POP DUP1 PUSH2 0x318D JUMPI PUSH1 0x40 MLOAD PUSH32 0x8C379A000000000000000000000000000000000000000000000000000000000 DUP2 MSTORE PUSH1 0x4 ADD PUSH2 0x3184 SWAP1 PUSH2 0x4943 JUMP JUMPDEST PUSH1 0x40 MLOAD DUP1 SWAP2 SUB SWAP1 REVERT JUMPDEST POP POP POP POP POP POP JUMP JUMPDEST PUSH1 0x0 PUSH2 0x319F PUSH2 0x17EE JUMP JUMPDEST SWAP1 POP DUP1 PUSH1 0x0 ADD PUSH1 0x0 SWAP1 SLOAD SWAP1 PUSH2 0x100 EXP SWAP1 DIV PUSH20 0xFFFFFFFFFFFFFFFFFFFFFFFFFFFFFFFFFFFFFFFF AND PUSH20 0xFFFFFFFFFFFFFFFFFFFFFFFFFFFFFFFFFFFFFFFF AND PUSH4 0x42842E0E PUSH2 0x31EA DUP5 PUSH2 0x2EA6 JUMP JUMPDEST PUSH1 0x0 DUP6 PUSH1 0x40 MLOAD DUP5 PUSH4 0xFFFFFFFF AND PUSH1 0xE0 SHL DUP2 MSTORE PUSH1 0x4 ADD PUSH2 0x320B SWAP4 SWAP3 SWAP2 SWAP1 PUSH2 0x468D JUMP JUMPDEST PUSH1 0x0 PUSH1 0x40 MLOAD DUP1 DUP4 SUB DUP2 PUSH1 0x0 DUP8 DUP1 EXTCODESIZE ISZERO DUP1 ISZERO PUSH2 0x3225 JUMPI PUSH1 0x0 DUP1 REVERT JUMPDEST POP GAS CALL ISZERO DUP1 ISZERO PUSH2 0x3239 JUMPI RETURNDATASIZE PUSH1 0x0 DUP1 RETURNDATACOPY RETURNDATASIZE PUSH1 0x0 REVERT JUMPDEST POP POP POP POP POP POP JUMP JUMPDEST PUSH2 0x3249 PUSH2 0x3EB8 JUMP JUMPDEST PUSH1 0x0 PUSH2 0x4E20 SWAP1 POP PUSH2 0x3258 PUSH2 0x3EB8 JUMP JUMPDEST PUSH1 0x0 JUMPDEST PUSH1 0x8 DUP2 PUSH1 0xFF AND LT ISZERO PUSH2 0x333B JUMPI DUP6 PUSH1 0x0 PUSH1 0x2 DUP2 LT PUSH2 0x327B JUMPI PUSH2 0x327A PUSH2 0x4F63 JUMP JUMPDEST JUMPDEST PUSH1 0x20 MUL ADD MLOAD PUSH1 0xFF AND DUP2 PUSH1 0xFF AND EQ ISZERO DUP1 PUSH2 0x32B2 JUMPI POP DUP6 PUSH1 0x1 PUSH1 0x2 DUP2 LT PUSH2 0x32A3 JUMPI PUSH2 0x32A2 PUSH2 0x4F63 JUMP JUMPDEST JUMPDEST PUSH1 0x20 MUL ADD MLOAD PUSH1 0xFF AND DUP2 PUSH1 0xFF AND EQ ISZERO JUMPDEST ISZERO PUSH2 0x3328 JUMPI DUP3 PUSH2 0xFFFF AND DUP6 DUP3 PUSH1 0xFF AND PUSH1 0x8 DUP2 LT PUSH2 0x32D2 JUMPI PUSH2 0x32D1 PUSH2 0x4F63 JUMP JUMPDEST JUMPDEST PUSH1 0x20 MUL ADD MLOAD PUSH4 0xFFFFFFFF AND LT ISZERO PUSH2 0x3327 JUMPI DUP5 DUP2 PUSH1 0xFF AND PUSH1 0x8 DUP2 LT PUSH2 0x32F9 JUMPI PUSH2 0x32F8 PUSH2 0x4F63 JUMP JUMPDEST JUMPDEST PUSH1 0x20 MUL ADD MLOAD SWAP3 POP DUP1 DUP3 PUSH1 0x0 PUSH1 0x3 DUP2 LT PUSH2 0x3315 JUMPI PUSH2 0x3314 PUSH2 0x4F63 JUMP JUMPDEST JUMPDEST PUSH1 0x20 MUL ADD SWAP1 PUSH1 0xFF AND SWAP1 DUP2 PUSH1 0xFF AND DUP2 MSTORE POP POP JUMPDEST JUMPDEST DUP1 DUP1 PUSH2 0x3333 SWAP1 PUSH2 0x4E07 JUMP JUMPDEST SWAP2 POP POP PUSH2 0x325B JUMP JUMPDEST PUSH2 0x4E20 SWAP3 POP PUSH1 0x0 SWAP1 POP JUMPDEST PUSH1 0x8 DUP2 PUSH1 0xFF AND LT ISZERO PUSH2 0x344E JUMPI DUP6 PUSH1 0x0 PUSH1 0x2 DUP2 LT PUSH2 0x3365 JUMPI PUSH2 0x3364 PUSH2 0x4F63 JUMP JUMPDEST JUMPDEST PUSH1 0x20 MUL ADD MLOAD PUSH1 0xFF AND DUP2 PUSH1 0xFF AND EQ ISZERO DUP1 PUSH2 0x339C JUMPI POP DUP6 PUSH1 0x1 PUSH1 0x2 DUP2 LT PUSH2 0x338D JUMPI PUSH2 0x338C PUSH2 0x4F63 JUMP JUMPDEST JUMPDEST PUSH1 0x20 MUL ADD MLOAD PUSH1 0xFF AND DUP2 PUSH1 0xFF AND EQ ISZERO JUMPDEST DUP1 PUSH2 0x33C5 JUMPI POP DUP2 PUSH1 0x0 PUSH1 0x3 DUP2 LT PUSH2 0x33B6 JUMPI PUSH2 0x33B5 PUSH2 0x4F63 JUMP JUMPDEST JUMPDEST PUSH1 0x20 MUL ADD MLOAD PUSH1 0xFF AND DUP2 PUSH1 0xFF AND EQ ISZERO JUMPDEST ISZERO PUSH2 0x343B JUMPI DUP3 PUSH2 0xFFFF AND DUP6 DUP3 PUSH1 0xFF AND PUSH1 0x8 DUP2 LT PUSH2 0x33E5 JUMPI PUSH2 0x33E4 PUSH2 0x4F63 JUMP JUMPDEST JUMPDEST PUSH1 0x20 MUL ADD MLOAD PUSH4 0xFFFFFFFF AND LT ISZERO PUSH2 0x343A JUMPI DUP5 DUP2 PUSH1 0xFF AND PUSH1 0x8 DUP2 LT PUSH2 0x340C JUMPI PUSH2 0x340B PUSH2 0x4F63 JUMP JUMPDEST JUMPDEST PUSH1 0x20 MUL ADD MLOAD SWAP3 POP DUP1 DUP3 PUSH1 0x1 PUSH1 0x3 DUP2 LT PUSH2 0x3428 JUMPI PUSH2 0x3427 PUSH2 0x4F63 JUMP JUMPDEST JUMPDEST PUSH1 0x20 MUL ADD SWAP1 PUSH1 0xFF AND SWAP1 DUP2 PUSH1 0xFF AND DUP2 MSTORE POP POP JUMPDEST JUMPDEST DUP1 DUP1 PUSH2 0x3446 SWAP1 PUSH2 0x4E07 JUMP JUMPDEST SWAP2 POP POP PUSH2 0x3345 JUMP JUMPDEST PUSH2 0x4E20 SWAP3 POP PUSH1 0x0 SWAP1 POP JUMPDEST PUSH1 0x8 DUP2 PUSH1 0xFF AND LT ISZERO PUSH2 0x358A JUMPI DUP6 PUSH1 0x0 PUSH1 0x2 DUP2 LT PUSH2 0x3478 JUMPI PUSH2 0x3477 PUSH2 0x4F63 JUMP JUMPDEST JUMPDEST PUSH1 0x20 MUL ADD MLOAD PUSH1 0xFF AND DUP2 PUSH1 0xFF AND EQ ISZERO DUP1 PUSH2 0x34AF JUMPI POP DUP6 PUSH1 0x1 PUSH1 0x2 DUP2 LT PUSH2 0x34A0 JUMPI PUSH2 0x349F PUSH2 0x4F63 JUMP JUMPDEST JUMPDEST PUSH1 0x20 MUL ADD MLOAD PUSH1 0xFF AND DUP2 PUSH1 0xFF AND EQ ISZERO JUMPDEST DUP1 PUSH2 0x34D8 JUMPI POP DUP2 PUSH1 0x0 PUSH1 0x3 DUP2 LT PUSH2 0x34C9 JUMPI PUSH2 0x34C8 PUSH2 0x4F63 JUMP JUMPDEST JUMPDEST PUSH1 0x20 MUL ADD MLOAD PUSH1 0xFF AND DUP2 PUSH1 0xFF AND EQ ISZERO JUMPDEST DUP1 PUSH2 0x3501 JUMPI POP DUP2 PUSH1 0x2 PUSH1 0x3 DUP2 LT PUSH2 0x34F2 JUMPI PUSH2 0x34F1 PUSH2 0x4F63 JUMP JUMPDEST JUMPDEST PUSH1 0x20 MUL ADD MLOAD PUSH1 0xFF AND DUP2 PUSH1 0xFF AND EQ ISZERO JUMPDEST ISZERO PUSH2 0x3577 JUMPI DUP3 PUSH2 0xFFFF AND DUP6 DUP3 PUSH1 0xFF AND PUSH1 0x8 DUP2 LT PUSH2 0x3521 JUMPI PUSH2 0x3520 PUSH2 0x4F63 JUMP JUMPDEST JUMPDEST PUSH1 0x20 MUL ADD MLOAD PUSH4 0xFFFFFFFF AND LT ISZERO PUSH2 0x3576 JUMPI DUP5 DUP2 PUSH1 0xFF AND PUSH1 0x8 DUP2 LT PUSH2 0x3548 JUMPI PUSH2 0x3547 PUSH2 0x4F63 JUMP JUMPDEST JUMPDEST PUSH1 0x20 MUL ADD MLOAD SWAP3 POP DUP1 DUP3 PUSH1 0x2 PUSH1 0x3 DUP2 LT PUSH2 0x3564 JUMPI PUSH2 0x3563 PUSH2 0x4F63 JUMP JUMPDEST JUMPDEST PUSH1 0x20 MUL ADD SWAP1 PUSH1 0xFF AND SWAP1 DUP2 PUSH1 0xFF AND DUP2 MSTORE POP POP JUMPDEST JUMPDEST DUP1 DUP1 PUSH2 0x3582 SWAP1 PUSH2 0x4E07 JUMP JUMPDEST SWAP2 POP POP PUSH2 0x3458 JUMP JUMPDEST DUP2 SWAP4 POP POP POP POP SWAP3 SWAP2 POP POP JUMP JUMPDEST PUSH1 0x0 PUSH2 0x35A0 PUSH2 0x17EE JUMP JUMPDEST PUSH1 0x0 ADD PUSH1 0x0 SWAP1 SLOAD SWAP1 PUSH2 0x100 EXP SWAP1 DIV PUSH20 0xFFFFFFFFFFFFFFFFFFFFFFFFFFFFFFFFFFFFFFFF AND SWAP1 POP PUSH1 0x0 DUP2 PUSH20 0xFFFFFFFFFFFFFFFFFFFFFFFFFFFFFFFFFFFFFFFF AND PUSH4 0x7E442EFA DUP5 PUSH1 0x0 ADD MLOAD DUP6 PUSH1 0x80 ADD MLOAD PUSH1 0x0 PUSH1 0x3 DUP2 LT PUSH2 0x3601 JUMPI PUSH2 0x3600 PUSH2 0x4F63 JUMP JUMPDEST JUMPDEST PUSH1 0x20 MUL ADD MLOAD PUSH1 0xFF AND PUSH1 0x8 DUP2 LT PUSH2 0x361A JUMPI PUSH2 0x3619 PUSH2 0x4F63 JUMP JUMPDEST JUMPDEST PUSH1 0x20 MUL ADD MLOAD PUSH1 0x40 MLOAD DUP3 PUSH4 0xFFFFFFFF AND PUSH1 0xE0 SHL DUP2 MSTORE PUSH1 0x4 ADD PUSH2 0x363B SWAP2 SWAP1 PUSH2 0x4963 JUMP JUMPDEST PUSH1 0x20 PUSH1 0x40 MLOAD DUP1 DUP4 SUB DUP2 PUSH1 0x0 DUP8 DUP1 EXTCODESIZE ISZERO DUP1 ISZERO PUSH2 0x3655 JUMPI PUSH1 0x0 DUP1 REVERT JUMPDEST POP GAS CALL ISZERO DUP1 ISZERO PUSH2 0x3669 JUMPI RETURNDATASIZE PUSH1 0x0 DUP1 RETURNDATACOPY RETURNDATASIZE PUSH1 0x0 REVERT JUMPDEST POP POP POP POP PUSH1 0x40 MLOAD RETURNDATASIZE PUSH1 0x1F NOT PUSH1 0x1F DUP3 ADD AND DUP3 ADD DUP1 PUSH1 0x40 MSTORE POP DUP2 ADD SWAP1 PUSH2 0x368D SWAP2 SWAP1 PUSH2 0x40F6 JUMP JUMPDEST SWAP1 POP DUP1 PUSH2 0x36CF JUMPI PUSH1 0x40 MLOAD PUSH32 0x8C379A000000000000000000000000000000000000000000000000000000000 DUP2 MSTORE PUSH1 0x4 ADD PUSH2 0x36C6 SWAP1 PUSH2 0x4943 JUMP JUMPDEST PUSH1 0x40 MLOAD DUP1 SWAP2 SUB SWAP1 REVERT JUMPDEST POP POP POP JUMP JUMPDEST PUSH1 0x0 PUSH1 0x1 PUSH1 0x3 DUP4 PUSH1 0x20 ADD MLOAD PUSH1 0x7 PUSH1 0x8 DUP2 LT PUSH2 0x36F2 JUMPI PUSH2 0x36F1 PUSH2 0x4F63 JUMP JUMPDEST JUMPDEST PUSH1 0x20 MUL ADD MLOAD PUSH2 0x3701 SWAP2 SWAP1 PUSH2 0x4E45 JUMP JUMPDEST PUSH2 0x370B SWAP2 SWAP1 PUSH2 0x4B86 JUMP JUMPDEST SWAP1 POP PUSH1 0x0 PUSH2 0x3717 PUSH2 0x17EE JUMP JUMPDEST PUSH1 0x0 ADD PUSH1 0x0 SWAP1 SLOAD SWAP1 PUSH2 0x100 EXP SWAP1 DIV PUSH20 0xFFFFFFFFFFFFFFFFFFFFFFFFFFFFFFFFFFFFFFFF AND SWAP1 POP PUSH1 0x0 DUP2 PUSH20 0xFFFFFFFFFFFFFFFFFFFFFFFFFFFFFFFFFFFFFFFF AND PUSH4 0xBB555344 DUP6 PUSH1 0x0 ADD MLOAD DUP7 PUSH1 0x80 ADD MLOAD PUSH1 0x0 PUSH1 0x3 DUP2 LT PUSH2 0x3778 JUMPI PUSH2 0x3777 PUSH2 0x4F63 JUMP JUMPDEST JUMPDEST PUSH1 0x20 MUL ADD MLOAD PUSH1 0xFF AND PUSH1 0x8 DUP2 LT PUSH2 0x3791 JUMPI PUSH2 0x3790 PUSH2 0x4F63 JUMP JUMPDEST JUMPDEST PUSH1 0x20 MUL ADD MLOAD DUP6 PUSH1 0x40 MLOAD DUP4 PUSH4 0xFFFFFFFF AND PUSH1 0xE0 SHL DUP2 MSTORE PUSH1 0x4 ADD PUSH2 0x37B4 SWAP3 SWAP2 SWAP1 PUSH2 0x49C2 JUMP JUMPDEST PUSH1 0x20 PUSH1 0x40 MLOAD DUP1 DUP4 SUB DUP2 PUSH1 0x0 DUP8 DUP1 EXTCODESIZE ISZERO DUP1 ISZERO PUSH2 0x37CE JUMPI PUSH1 0x0 DUP1 REVERT JUMPDEST POP GAS CALL ISZERO DUP1 ISZERO PUSH2 0x37E2 JUMPI RETURNDATASIZE PUSH1 0x0 DUP1 RETURNDATACOPY RETURNDATASIZE PUSH1 0x0 REVERT JUMPDEST POP POP POP POP PUSH1 0x40 MLOAD RETURNDATASIZE PUSH1 0x1F NOT PUSH1 0x1F DUP3 ADD AND DUP3 ADD DUP1 PUSH1 0x40 MSTORE POP DUP2 ADD SWAP1 PUSH2 0x3806 SWAP2 SWAP1 PUSH2 0x40F6 JUMP JUMPDEST SWAP1 POP DUP1 PUSH2 0x3848 JUMPI PUSH1 0x40 MLOAD PUSH32 0x8C379A000000000000000000000000000000000000000000000000000000000 DUP2 MSTORE PUSH1 0x4 ADD PUSH2 0x383F SWAP1 PUSH2 0x4943 JUMP JUMPDEST PUSH1 0x40 MLOAD DUP1 SWAP2 SUB SWAP1 REVERT JUMPDEST POP POP POP POP JUMP JUMPDEST PUSH1 0x0 PUSH2 0x3858 PUSH2 0x17EE JUMP JUMPDEST PUSH1 0x0 ADD PUSH1 0x0 SWAP1 SLOAD SWAP1 PUSH2 0x100 EXP SWAP1 DIV PUSH20 0xFFFFFFFFFFFFFFFFFFFFFFFFFFFFFFFFFFFFFFFF AND SWAP1 POP PUSH1 0x0 JUMPDEST PUSH1 0x3 DUP2 LT ISZERO PUSH2 0x39A6 JUMPI PUSH1 0x0 DUP3 PUSH20 0xFFFFFFFFFFFFFFFFFFFFFFFFFFFFFFFFFFFFFFFF AND PUSH4 0xC7C9707 DUP6 PUSH1 0x0 ADD MLOAD DUP7 PUSH1 0x80 ADD MLOAD DUP6 PUSH1 0x3 DUP2 LT PUSH2 0x38C4 JUMPI PUSH2 0x38C3 PUSH2 0x4F63 JUMP JUMPDEST JUMPDEST PUSH1 0x20 MUL ADD MLOAD PUSH1 0xFF AND PUSH1 0x8 DUP2 LT PUSH2 0x38DD JUMPI PUSH2 0x38DC PUSH2 0x4F63 JUMP JUMPDEST JUMPDEST PUSH1 0x20 MUL ADD MLOAD PUSH1 0x40 MLOAD DUP3 PUSH4 0xFFFFFFFF AND PUSH1 0xE0 SHL DUP2 MSTORE PUSH1 0x4 ADD PUSH2 0x38FE SWAP2 SWAP1 PUSH2 0x4963 JUMP JUMPDEST PUSH1 0x20 PUSH1 0x40 MLOAD DUP1 DUP4 SUB DUP2 PUSH1 0x0 DUP8 DUP1 EXTCODESIZE ISZERO DUP1 ISZERO PUSH2 0x3918 JUMPI PUSH1 0x0 DUP1 REVERT JUMPDEST POP GAS CALL ISZERO DUP1 ISZERO PUSH2 0x392C JUMPI RETURNDATASIZE PUSH1 0x0 DUP1 RETURNDATACOPY RETURNDATASIZE PUSH1 0x0 REVERT JUMPDEST POP POP POP POP PUSH1 0x40 MLOAD RETURNDATASIZE PUSH1 0x1F NOT PUSH1 0x1F DUP3 ADD AND DUP3 ADD DUP1 PUSH1 0x40 MSTORE POP DUP2 ADD SWAP1 PUSH2 0x3950 SWAP2 SWAP1 PUSH2 0x40F6 JUMP JUMPDEST SWAP1 POP DUP1 PUSH2 0x3992 JUMPI PUSH1 0x40 MLOAD PUSH32 0x8C379A000000000000000000000000000000000000000000000000000000000 DUP2 MSTORE PUSH1 0x4 ADD PUSH2 0x3989 SWAP1 PUSH2 0x4943 JUMP JUMPDEST PUSH1 0x40 MLOAD DUP1 SWAP2 SUB SWAP1 REVERT JUMPDEST POP DUP1 DUP1 PUSH2 0x399E SWAP1 PUSH2 0x4DBE JUMP JUMPDEST SWAP2 POP POP PUSH2 0x3881 JUMP JUMPDEST POP POP POP JUMP JUMPDEST PUSH1 0x0 PUSH1 0x1 PUSH1 0x3 DUP4 PUSH1 0x20 ADD MLOAD PUSH1 0x4 PUSH1 0x8 DUP2 LT PUSH2 0x39C9 JUMPI PUSH2 0x39C8 PUSH2 0x4F63 JUMP JUMPDEST JUMPDEST PUSH1 0x20 MUL ADD MLOAD PUSH2 0x39D8 SWAP2 SWAP1 PUSH2 0x4E45 JUMP JUMPDEST PUSH2 0x39E2 SWAP2 SWAP1 PUSH2 0x4B86 JUMP JUMPDEST SWAP1 POP PUSH1 0x0 PUSH2 0x39EE PUSH2 0x17EE JUMP JUMPDEST PUSH1 0x0 ADD PUSH1 0x0 SWAP1 SLOAD SWAP1 PUSH2 0x100 EXP SWAP1 DIV PUSH20 0xFFFFFFFFFFFFFFFFFFFFFFFFFFFFFFFFFFFFFFFF AND SWAP1 POP PUSH1 0x0 DUP4 PUSH1 0x40 ADD MLOAD PUSH1 0x0 PUSH1 0x2 DUP2 LT PUSH2 0x3A2E JUMPI PUSH2 0x3A2D PUSH2 0x4F63 JUMP JUMPDEST JUMPDEST PUSH1 0x20 MUL ADD MLOAD PUSH1 0xFF AND DUP5 PUSH1 0x60 ADD MLOAD PUSH1 0xFF AND EQ PUSH2 0x3A4D JUMPI PUSH1 0x1 SWAP1 POP DUP1 PUSH2 0x3A53 JUMP JUMPDEST PUSH1 0x0 SWAP1 POP DUP1 JUMPDEST POP PUSH1 0x0 DUP3 PUSH20 0xFFFFFFFFFFFFFFFFFFFFFFFFFFFFFFFFFFFFFFFF AND PUSH4 0xB4DD385E DUP7 PUSH1 0x0 ADD MLOAD DUP5 PUSH1 0xFF AND PUSH1 0x8 DUP2 LT PUSH2 0x3A8C JUMPI PUSH2 0x3A8B PUSH2 0x4F63 JUMP JUMPDEST JUMPDEST PUSH1 0x20 MUL ADD MLOAD DUP7 PUSH1 0x40 MLOAD DUP4 PUSH4 0xFFFFFFFF AND PUSH1 0xE0 SHL DUP2 MSTORE PUSH1 0x4 ADD PUSH2 0x3AAF SWAP3 SWAP2 SWAP1 PUSH2 0x49C2 JUMP JUMPDEST PUSH1 0x20 PUSH1 0x40 MLOAD DUP1 DUP4 SUB DUP2 PUSH1 0x0 DUP8 DUP1 EXTCODESIZE ISZERO DUP1 ISZERO PUSH2 0x3AC9 JUMPI PUSH1 0x0 DUP1 REVERT JUMPDEST POP GAS CALL ISZERO DUP1 ISZERO PUSH2 0x3ADD JUMPI RETURNDATASIZE PUSH1 0x0 DUP1 RETURNDATACOPY RETURNDATASIZE PUSH1 0x0 REVERT JUMPDEST POP POP POP POP PUSH1 0x40 MLOAD RETURNDATASIZE PUSH1 0x1F NOT PUSH1 0x1F DUP3 ADD AND DUP3 ADD DUP1 PUSH1 0x40 MSTORE POP DUP2 ADD SWAP1 PUSH2 0x3B01 SWAP2 SWAP1 PUSH2 0x40F6 JUMP JUMPDEST SWAP1 POP DUP1 PUSH2 0x3B43 JUMPI PUSH1 0x40 MLOAD PUSH32 0x8C379A000000000000000000000000000000000000000000000000000000000 DUP2 MSTORE PUSH1 0x4 ADD PUSH2 0x3B3A SWAP1 PUSH2 0x4943 JUMP JUMPDEST PUSH1 0x40 MLOAD DUP1 SWAP2 SUB SWAP1 REVERT JUMPDEST POP POP POP POP POP JUMP JUMPDEST PUSH1 0x0 PUSH2 0x3B54 PUSH2 0x17EE JUMP JUMPDEST PUSH1 0x0 ADD PUSH1 0x0 SWAP1 SLOAD SWAP1 PUSH2 0x100 EXP SWAP1 DIV PUSH20 0xFFFFFFFFFFFFFFFFFFFFFFFFFFFFFFFFFFFFFFFF AND SWAP1 POP PUSH1 0x0 DUP2 PUSH20 0xFFFFFFFFFFFFFFFFFFFFFFFFFFFFFFFFFFFFFFFF AND PUSH4 0x9D7182EE DUP5 PUSH1 0x0 ADD MLOAD DUP6 PUSH1 0x80 ADD MLOAD PUSH1 0x0 PUSH1 0x3 DUP2 LT PUSH2 0x3BB5 JUMPI PUSH2 0x3BB4 PUSH2 0x4F63 JUMP JUMPDEST JUMPDEST PUSH1 0x20 MUL ADD MLOAD PUSH1 0xFF AND PUSH1 0x8 DUP2 LT PUSH2 0x3BCE JUMPI PUSH2 0x3BCD PUSH2 0x4F63 JUMP JUMPDEST JUMPDEST PUSH1 0x20 MUL ADD MLOAD PUSH1 0x40 MLOAD DUP3 PUSH4 0xFFFFFFFF AND PUSH1 0xE0 SHL DUP2 MSTORE PUSH1 0x4 ADD PUSH2 0x3BEF SWAP2 SWAP1 PUSH2 0x4963 JUMP JUMPDEST PUSH1 0x20 PUSH1 0x40 MLOAD DUP1 DUP4 SUB DUP2 PUSH1 0x0 DUP8 DUP1 EXTCODESIZE ISZERO DUP1 ISZERO PUSH2 0x3C09 JUMPI PUSH1 0x0 DUP1 REVERT JUMPDEST POP GAS CALL ISZERO DUP1 ISZERO PUSH2 0x3C1D JUMPI RETURNDATASIZE PUSH1 0x0 DUP1 RETURNDATACOPY RETURNDATASIZE PUSH1 0x0 REVERT JUMPDEST POP POP POP POP PUSH1 0x40 MLOAD RETURNDATASIZE PUSH1 0x1F NOT PUSH1 0x1F DUP3 ADD AND DUP3 ADD DUP1 PUSH1 0x40 MSTORE POP DUP2 ADD SWAP1 PUSH2 0x3C41 SWAP2 SWAP1 PUSH2 0x40F6 JUMP JUMPDEST SWAP1 POP DUP1 PUSH2 0x3C83 JUMPI PUSH1 0x40 MLOAD PUSH32 0x8C379A000000000000000000000000000000000000000000000000000000000 DUP2 MSTORE PUSH1 0x4 ADD PUSH2 0x3C7A SWAP1 PUSH2 0x4943 JUMP JUMPDEST PUSH1 0x40 MLOAD DUP1 SWAP2 SUB SWAP1 REVERT JUMPDEST POP POP POP JUMP JUMPDEST PUSH1 0x0 DUP1 PUSH2 0x3C93 PUSH2 0x17EE JUMP JUMPDEST SWAP1 POP DUP1 PUSH1 0x0 ADD PUSH1 0x0 SWAP1 SLOAD SWAP1 PUSH2 0x100 EXP SWAP1 DIV PUSH20 0xFFFFFFFFFFFFFFFFFFFFFFFFFFFFFFFFFFFFFFFF AND PUSH20 0xFFFFFFFFFFFFFFFFFFFFFFFFFFFFFFFFFFFFFFFF AND PUSH4 0x95D76D9D DUP5 PUSH1 0x40 MLOAD DUP3 PUSH4 0xFFFFFFFF AND PUSH1 0xE0 SHL DUP2 MSTORE PUSH1 0x4 ADD PUSH2 0x3CF2 SWAP2 SWAP1 PUSH2 0x4963 JUMP JUMPDEST PUSH1 0x20 PUSH1 0x40 MLOAD DUP1 DUP4 SUB DUP2 DUP7 DUP1 EXTCODESIZE ISZERO DUP1 ISZERO PUSH2 0x3D0A JUMPI PUSH1 0x0 DUP1 REVERT JUMPDEST POP GAS STATICCALL ISZERO DUP1 ISZERO PUSH2 0x3D1E JUMPI RETURNDATASIZE PUSH1 0x0 DUP1 RETURNDATACOPY RETURNDATASIZE PUSH1 0x0 REVERT JUMPDEST POP POP POP POP PUSH1 0x40 MLOAD RETURNDATASIZE PUSH1 0x1F NOT PUSH1 0x1F DUP3 ADD AND DUP3 ADD DUP1 PUSH1 0x40 MSTORE POP DUP2 ADD SWAP1 PUSH2 0x3D42 SWAP2 SWAP1 PUSH2 0x40F6 JUMP JUMPDEST SWAP2 POP POP SWAP2 SWAP1 POP JUMP JUMPDEST PUSH1 0x40 MLOAD DUP1 PUSH2 0x100 ADD PUSH1 0x40 MSTORE DUP1 PUSH1 0x8 SWAP1 PUSH1 0x20 DUP3 MUL DUP1 CALLDATASIZE DUP4 CALLDATACOPY DUP1 DUP3 ADD SWAP2 POP POP SWAP1 POP POP SWAP1 JUMP JUMPDEST POP PUSH1 0x0 SWAP1 SSTORE JUMP JUMPDEST POP PUSH1 0x0 SWAP1 SSTORE JUMP JUMPDEST POP PUSH1 0x0 SWAP1 SSTORE JUMP JUMPDEST PUSH1 0x40 MLOAD DUP1 PUSH1 0xC0 ADD PUSH1 0x40 MSTORE DUP1 PUSH2 0x3D95 PUSH2 0x3D4A JUMP JUMPDEST DUP2 MSTORE PUSH1 0x20 ADD PUSH2 0x3DA2 PUSH2 0x3D4A JUMP JUMPDEST DUP2 MSTORE PUSH1 0x20 ADD PUSH2 0x3DAF PUSH2 0x3EDA JUMP JUMPDEST DUP2 MSTORE PUSH1 0x20 ADD PUSH1 0x0 PUSH1 0xFF AND DUP2 MSTORE PUSH1 0x20 ADD PUSH2 0x3DC6 PUSH2 0x3EB8 JUMP JUMPDEST DUP2 MSTORE PUSH1 0x20 ADD PUSH1 0x0 ISZERO ISZERO DUP2 MSTORE POP SWAP1 JUMP JUMPDEST DUP3 PUSH1 0x8 PUSH1 0xF ADD PUSH1 0x10 SWAP1 DIV DUP2 ADD SWAP3 DUP3 ISZERO PUSH2 0x3E61 JUMPI SWAP2 PUSH1 0x20 MUL DUP3 ADD PUSH1 0x0 JUMPDEST DUP4 DUP3 GT ISZERO PUSH2 0x3E31 JUMPI DUP4 MLOAD DUP4 DUP3 PUSH2 0x100 EXP DUP2 SLOAD DUP2 PUSH2 0xFFFF MUL NOT AND SWAP1 DUP4 PUSH2 0xFFFF AND MUL OR SWAP1 SSTORE POP SWAP3 PUSH1 0x20 ADD SWAP3 PUSH1 0x2 ADD PUSH1 0x20 DUP2 PUSH1 0x1 ADD DIV SWAP3 DUP4 ADD SWAP3 PUSH1 0x1 SUB MUL PUSH2 0x3DF1 JUMP JUMPDEST DUP1 ISZERO PUSH2 0x3E5F JUMPI DUP3 DUP2 PUSH2 0x100 EXP DUP2 SLOAD SWAP1 PUSH2 0xFFFF MUL NOT AND SWAP1 SSTORE PUSH1 0x2 ADD PUSH1 0x20 DUP2 PUSH1 0x1 ADD DIV SWAP3 DUP4 ADD SWAP3 PUSH1 0x1 SUB MUL PUSH2 0x3E31 JUMP JUMPDEST POP JUMPDEST POP SWAP1 POP PUSH2 0x3E6E SWAP2 SWAP1 PUSH2 0x3EFC JUMP JUMPDEST POP SWAP1 JUMP JUMPDEST PUSH1 0x40 MLOAD DUP1 PUSH2 0x100 ADD PUSH1 0x40 MSTORE DUP1 PUSH1 0x8 SWAP1 PUSH1 0x20 DUP3 MUL DUP1 CALLDATASIZE DUP4 CALLDATACOPY DUP1 DUP3 ADD SWAP2 POP POP SWAP1 POP POP SWAP1 JUMP JUMPDEST PUSH1 0x40 MLOAD DUP1 PUSH2 0x100 ADD PUSH1 0x40 MSTORE DUP1 PUSH1 0x8 SWAP1 PUSH1 0x20 DUP3 MUL DUP1 CALLDATASIZE DUP4 CALLDATACOPY DUP1 DUP3 ADD SWAP2 POP POP SWAP1 POP POP SWAP1 JUMP JUMPDEST PUSH1 0x40 MLOAD DUP1 PUSH1 0x60 ADD PUSH1 0x40 MSTORE DUP1 PUSH1 0x3 SWAP1 PUSH1 0x20 DUP3 MUL DUP1 CALLDATASIZE DUP4 CALLDATACOPY DUP1 DUP3 ADD SWAP2 POP POP SWAP1 POP POP SWAP1 JUMP JUMPDEST PUSH1 0x40 MLOAD DUP1 PUSH1 0x40 ADD PUSH1 0x40 MSTORE DUP1 PUSH1 0x2 SWAP1 PUSH1 0x20 DUP3 MUL DUP1 CALLDATASIZE DUP4 CALLDATACOPY DUP1 DUP3 ADD SWAP2 POP POP SWAP1 POP POP SWAP1 JUMP JUMPDEST JUMPDEST DUP1 DUP3 GT ISZERO PUSH2 0x3F15 JUMPI PUSH1 0x0 DUP2 PUSH1 0x0 SWAP1 SSTORE POP PUSH1 0x1 ADD PUSH2 0x3EFD JUMP JUMPDEST POP SWAP1 JUMP JUMPDEST PUSH1 0x0 DUP2 CALLDATALOAD SWAP1 POP PUSH2 0x3F28 DUP2 PUSH2 0x518D JUMP JUMPDEST SWAP3 SWAP2 POP POP JUMP JUMPDEST PUSH1 0x0 DUP2 MLOAD SWAP1 POP PUSH2 0x3F3D DUP2 PUSH2 0x518D JUMP JUMPDEST SWAP3 SWAP2 POP POP JUMP JUMPDEST PUSH1 0x0 DUP2 MLOAD SWAP1 POP PUSH2 0x3F52 DUP2 PUSH2 0x51A4 JUMP JUMPDEST SWAP3 SWAP2 POP POP JUMP JUMPDEST PUSH1 0x0 DUP2 CALLDATALOAD SWAP1 POP PUSH2 0x3F67 DUP2 PUSH2 0x51BB JUMP JUMPDEST SWAP3 SWAP2 POP POP JUMP JUMPDEST PUSH1 0x0 DUP1 DUP4 PUSH1 0x1F DUP5 ADD SLT PUSH2 0x3F83 JUMPI PUSH2 0x3F82 PUSH2 0x4F97 JUMP JUMPDEST JUMPDEST DUP3 CALLDATALOAD SWAP1 POP PUSH8 0xFFFFFFFFFFFFFFFF DUP2 GT ISZERO PUSH2 0x3FA0 JUMPI PUSH2 0x3F9F PUSH2 0x4F92 JUMP JUMPDEST JUMPDEST PUSH1 0x20 DUP4 ADD SWAP2 POP DUP4 PUSH1 0x1 DUP3 MUL DUP4 ADD GT ISZERO PUSH2 0x3FBC JUMPI PUSH2 0x3FBB PUSH2 0x4F9C JUMP JUMPDEST JUMPDEST SWAP3 POP SWAP3 SWAP1 POP JUMP JUMPDEST PUSH1 0x0 DUP2 CALLDATALOAD SWAP1 POP PUSH2 0x3FD2 DUP2 PUSH2 0x51D2 JUMP JUMPDEST SWAP3 SWAP2 POP POP JUMP JUMPDEST PUSH1 0x0 DUP2 MLOAD SWAP1 POP PUSH2 0x3FE7 DUP2 PUSH2 0x51D2 JUMP JUMPDEST SWAP3 SWAP2 POP POP JUMP JUMPDEST PUSH1 0x0 DUP2 CALLDATALOAD SWAP1 POP PUSH2 0x3FFC DUP2 PUSH2 0x51E9 JUMP JUMPDEST SWAP3 SWAP2 POP POP JUMP JUMPDEST PUSH1 0x0 DUP2 MLOAD SWAP1 POP PUSH2 0x4011 DUP2 PUSH2 0x51E9 JUMP JUMPDEST SWAP3 SWAP2 POP POP JUMP JUMPDEST PUSH1 0x0 DUP2 MLOAD SWAP1 POP PUSH2 0x4026 DUP2 PUSH2 0x5200 JUMP JUMPDEST SWAP3 SWAP2 POP POP JUMP JUMPDEST PUSH1 0x0 DUP2 CALLDATALOAD SWAP1 POP PUSH2 0x403B DUP2 PUSH2 0x5217 JUMP JUMPDEST SWAP3 SWAP2 POP POP JUMP JUMPDEST PUSH1 0x0 PUSH1 0x20 DUP3 DUP5 SUB SLT ISZERO PUSH2 0x4057 JUMPI PUSH2 0x4056 PUSH2 0x4FA6 JUMP JUMPDEST JUMPDEST PUSH1 0x0 PUSH2 0x4065 DUP5 DUP3 DUP6 ADD PUSH2 0x3F2E JUMP JUMPDEST SWAP2 POP POP SWAP3 SWAP2 POP POP JUMP JUMPDEST PUSH1 0x0 DUP1 PUSH1 0x0 DUP1 PUSH1 0x0 PUSH1 0x80 DUP7 DUP9 SUB SLT ISZERO PUSH2 0x408A JUMPI PUSH2 0x4089 PUSH2 0x4FA6 JUMP JUMPDEST JUMPDEST PUSH1 0x0 PUSH2 0x4098 DUP9 DUP3 DUP10 ADD PUSH2 0x3F19 JUMP JUMPDEST SWAP6 POP POP PUSH1 0x20 PUSH2 0x40A9 DUP9 DUP3 DUP10 ADD PUSH2 0x3F19 JUMP JUMPDEST SWAP5 POP POP PUSH1 0x40 PUSH2 0x40BA DUP9 DUP3 DUP10 ADD PUSH2 0x3FED JUMP JUMPDEST SWAP4 POP POP PUSH1 0x60 DUP7 ADD CALLDATALOAD PUSH8 0xFFFFFFFFFFFFFFFF DUP2 GT ISZERO PUSH2 0x40DB JUMPI PUSH2 0x40DA PUSH2 0x4FA1 JUMP JUMPDEST JUMPDEST PUSH2 0x40E7 DUP9 DUP3 DUP10 ADD PUSH2 0x3F6D JUMP JUMPDEST SWAP3 POP SWAP3 POP POP SWAP3 SWAP6 POP SWAP3 SWAP6 SWAP1 SWAP4 POP JUMP JUMPDEST PUSH1 0x0 PUSH1 0x20 DUP3 DUP5 SUB SLT ISZERO PUSH2 0x410C JUMPI PUSH2 0x410B PUSH2 0x4FA6 JUMP JUMPDEST JUMPDEST PUSH1 0x0 PUSH2 0x411A DUP5 DUP3 DUP6 ADD PUSH2 0x3F43 JUMP JUMPDEST SWAP2 POP POP SWAP3 SWAP2 POP POP JUMP JUMPDEST PUSH1 0x0 DUP1 PUSH1 0x40 DUP4 DUP6 SUB SLT ISZERO PUSH2 0x413A JUMPI PUSH2 0x4139 PUSH2 0x4FA6 JUMP JUMPDEST JUMPDEST PUSH1 0x0 PUSH2 0x4148 DUP6 DUP3 DUP7 ADD PUSH2 0x3F58 JUMP JUMPDEST SWAP3 POP POP PUSH1 0x20 PUSH2 0x4159 DUP6 DUP3 DUP7 ADD PUSH2 0x3FED JUMP JUMPDEST SWAP2 POP POP SWAP3 POP SWAP3 SWAP1 POP JUMP JUMPDEST PUSH1 0x0 PUSH1 0x20 DUP3 DUP5 SUB SLT ISZERO PUSH2 0x4179 JUMPI PUSH2 0x4178 PUSH2 0x4FA6 JUMP JUMPDEST JUMPDEST PUSH1 0x0 PUSH2 0x4187 DUP5 DUP3 DUP6 ADD PUSH2 0x3FC3 JUMP JUMPDEST SWAP2 POP POP SWAP3 SWAP2 POP POP JUMP JUMPDEST PUSH1 0x0 PUSH1 0x20 DUP3 DUP5 SUB SLT ISZERO PUSH2 0x41A6 JUMPI PUSH2 0x41A5 PUSH2 0x4FA6 JUMP JUMPDEST JUMPDEST PUSH1 0x0 PUSH2 0x41B4 DUP5 DUP3 DUP6 ADD PUSH2 0x3FD8 JUMP JUMPDEST SWAP2 POP POP SWAP3 SWAP2 POP POP JUMP JUMPDEST PUSH1 0x0 PUSH1 0x20 DUP3 DUP5 SUB SLT ISZERO PUSH2 0x41D3 JUMPI PUSH2 0x41D2 PUSH2 0x4FA6 JUMP JUMPDEST JUMPDEST PUSH1 0x0 PUSH2 0x41E1 DUP5 DUP3 DUP6 ADD PUSH2 0x3FED JUMP JUMPDEST SWAP2 POP POP SWAP3 SWAP2 POP POP JUMP JUMPDEST PUSH1 0x0 PUSH1 0x20 DUP3 DUP5 SUB SLT ISZERO PUSH2 0x4200 JUMPI PUSH2 0x41FF PUSH2 0x4FA6 JUMP JUMPDEST JUMPDEST PUSH1 0x0 PUSH2 0x420E DUP5 DUP3 DUP6 ADD PUSH2 0x4002 JUMP JUMPDEST SWAP2 POP POP SWAP3 SWAP2 POP POP JUMP JUMPDEST PUSH1 0x0 PUSH1 0x20 DUP3 DUP5 SUB SLT ISZERO PUSH2 0x422D JUMPI PUSH2 0x422C PUSH2 0x4FA6 JUMP JUMPDEST JUMPDEST PUSH1 0x0 PUSH2 0x423B DUP5 DUP3 DUP6 ADD PUSH2 0x4017 JUMP JUMPDEST SWAP2 POP POP SWAP3 SWAP2 POP POP JUMP JUMPDEST PUSH1 0x0 PUSH1 0x20 DUP3 DUP5 SUB SLT ISZERO PUSH2 0x425A JUMPI PUSH2 0x4259 PUSH2 0x4FA6 JUMP JUMPDEST JUMPDEST PUSH1 0x0 PUSH2 0x4268 DUP5 DUP3 DUP6 ADD PUSH2 0x402C JUMP JUMPDEST SWAP2 POP POP SWAP3 SWAP2 POP POP JUMP JUMPDEST PUSH1 0x0 PUSH2 0x427D DUP4 DUP4 PUSH2 0x45D5 JUMP JUMPDEST PUSH1 0x20 DUP4 ADD SWAP1 POP SWAP3 SWAP2 POP POP JUMP JUMPDEST PUSH2 0x4292 DUP2 PUSH2 0x4C79 JUMP JUMPDEST DUP3 MSTORE POP POP JUMP JUMPDEST PUSH2 0x42A1 DUP2 PUSH2 0x4A62 JUMP JUMPDEST PUSH2 0x42AB DUP2 DUP5 PUSH2 0x4AB5 JUMP JUMPDEST SWAP3 POP PUSH2 0x42B6 DUP3 PUSH2 0x4A2F JUMP JUMPDEST DUP1 PUSH1 0x0 JUMPDEST DUP4 DUP2 LT ISZERO PUSH2 0x42E7 JUMPI DUP2 MLOAD PUSH2 0x42CE DUP8 DUP3 PUSH2 0x4271 JUMP JUMPDEST SWAP7 POP PUSH2 0x42D9 DUP4 PUSH2 0x4A8E JUMP JUMPDEST SWAP3 POP POP PUSH1 0x1 DUP2 ADD SWAP1 POP PUSH2 0x42BA JUMP JUMPDEST POP POP POP POP POP POP JUMP JUMPDEST PUSH2 0x42F8 DUP2 PUSH2 0x4A6D JUMP JUMPDEST PUSH2 0x4302 DUP2 DUP5 PUSH2 0x4AC0 JUMP JUMPDEST SWAP3 POP PUSH2 0x430D DUP3 PUSH2 0x4A39 JUMP JUMPDEST DUP1 PUSH1 0x0 JUMPDEST DUP4 DUP2 LT ISZERO PUSH2 0x433E JUMPI DUP2 MLOAD PUSH2 0x4325 DUP8 DUP3 PUSH2 0x4271 JUMP JUMPDEST SWAP7 POP PUSH2 0x4330 DUP4 PUSH2 0x4A9B JUMP JUMPDEST SWAP3 POP POP PUSH1 0x1 DUP2 ADD SWAP1 POP PUSH2 0x4311 JUMP JUMPDEST POP POP POP POP POP POP JUMP JUMPDEST PUSH2 0x434F DUP2 PUSH2 0x4A78 JUMP JUMPDEST PUSH2 0x4359 DUP2 DUP5 PUSH2 0x4ACB JUMP JUMPDEST SWAP3 POP PUSH2 0x4364 DUP3 PUSH2 0x4A43 JUMP JUMPDEST DUP1 PUSH1 0x0 JUMPDEST DUP4 DUP2 LT ISZERO PUSH2 0x4395 JUMPI DUP2 MLOAD PUSH2 0x437C DUP8 DUP3 PUSH2 0x4271 JUMP JUMPDEST SWAP7 POP PUSH2 0x4387 DUP4 PUSH2 0x4AA8 JUMP JUMPDEST SWAP3 POP POP PUSH1 0x1 DUP2 ADD SWAP1 POP PUSH2 0x4368 JUMP JUMPDEST POP POP POP POP POP POP JUMP JUMPDEST PUSH2 0x43A6 DUP2 PUSH2 0x4C97 JUMP JUMPDEST DUP3 MSTORE POP POP JUMP JUMPDEST PUSH2 0x43BD PUSH2 0x43B8 DUP3 PUSH2 0x4C97 JUMP JUMPDEST PUSH2 0x4E31 JUMP JUMPDEST DUP3 MSTORE POP POP JUMP JUMPDEST PUSH2 0x43CC DUP2 PUSH2 0x4CA1 JUMP JUMPDEST DUP3 MSTORE POP POP JUMP JUMPDEST PUSH1 0x0 PUSH2 0x43DD DUP3 PUSH2 0x4A83 JUMP JUMPDEST PUSH2 0x43E7 DUP2 DUP6 PUSH2 0x4AD6 JUMP JUMPDEST SWAP4 POP PUSH2 0x43F7 DUP2 DUP6 PUSH1 0x20 DUP7 ADD PUSH2 0x4D59 JUMP JUMPDEST PUSH2 0x4400 DUP2 PUSH2 0x4FAB JUMP JUMPDEST DUP5 ADD SWAP2 POP POP SWAP3 SWAP2 POP POP JUMP JUMPDEST PUSH2 0x4414 DUP2 PUSH2 0x4D35 JUMP JUMPDEST DUP3 MSTORE POP POP JUMP JUMPDEST PUSH1 0x0 DUP2 SLOAD PUSH2 0x4427 DUP2 PUSH2 0x4D8C JUMP JUMPDEST PUSH2 0x4431 DUP2 DUP7 PUSH2 0x4AE7 JUMP JUMPDEST SWAP5 POP PUSH1 0x1 DUP3 AND PUSH1 0x0 DUP2 EQ PUSH2 0x444C JUMPI PUSH1 0x1 DUP2 EQ PUSH2 0x445E JUMPI PUSH2 0x4491 JUMP JUMPDEST PUSH1 0xFF NOT DUP4 AND DUP7 MSTORE PUSH1 0x20 DUP7 ADD SWAP4 POP PUSH2 0x4491 JUMP JUMPDEST PUSH2 0x4467 DUP6 PUSH2 0x4A4D JUMP JUMPDEST PUSH1 0x0 JUMPDEST DUP4 DUP2 LT ISZERO PUSH2 0x4489 JUMPI DUP2 SLOAD DUP2 DUP10 ADD MSTORE PUSH1 0x1 DUP3 ADD SWAP2 POP PUSH1 0x20 DUP2 ADD SWAP1 POP PUSH2 0x446A JUMP JUMPDEST DUP1 DUP9 ADD SWAP6 POP POP POP JUMPDEST POP POP POP SWAP3 SWAP2 POP POP JUMP JUMPDEST PUSH1 0x0 PUSH2 0x44A7 PUSH1 0x1E DUP4 PUSH2 0x4AE7 JUMP JUMPDEST SWAP2 POP PUSH2 0x44B2 DUP3 PUSH2 0x4FBC JUMP JUMPDEST PUSH1 0x20 DUP3 ADD SWAP1 POP SWAP2 SWAP1 POP JUMP JUMPDEST PUSH1 0x0 PUSH2 0x44CA PUSH1 0x1D DUP4 PUSH2 0x4AE7 JUMP JUMPDEST SWAP2 POP PUSH2 0x44D5 DUP3 PUSH2 0x4FE5 JUMP JUMPDEST PUSH1 0x20 DUP3 ADD SWAP1 POP SWAP2 SWAP1 POP JUMP JUMPDEST PUSH1 0x0 PUSH2 0x44ED PUSH1 0x26 DUP4 PUSH2 0x4AE7 JUMP JUMPDEST SWAP2 POP PUSH2 0x44F8 DUP3 PUSH2 0x500E JUMP JUMPDEST PUSH1 0x40 DUP3 ADD SWAP1 POP SWAP2 SWAP1 POP JUMP JUMPDEST PUSH1 0x0 PUSH2 0x4510 PUSH1 0x1A DUP4 PUSH2 0x4AE7 JUMP JUMPDEST SWAP2 POP PUSH2 0x451B DUP3 PUSH2 0x505D JUMP JUMPDEST PUSH1 0x20 DUP3 ADD SWAP1 POP SWAP2 SWAP1 POP JUMP JUMPDEST PUSH1 0x0 PUSH2 0x4533 PUSH1 0x1F DUP4 PUSH2 0x4AE7 JUMP JUMPDEST SWAP2 POP PUSH2 0x453E DUP3 PUSH2 0x5086 JUMP JUMPDEST PUSH1 0x20 DUP3 ADD SWAP1 POP SWAP2 SWAP1 POP JUMP JUMPDEST PUSH1 0x0 PUSH2 0x4556 PUSH1 0x1E DUP4 PUSH2 0x4AE7 JUMP JUMPDEST SWAP2 POP PUSH2 0x4561 DUP3 PUSH2 0x50AF JUMP JUMPDEST PUSH1 0x20 DUP3 ADD SWAP1 POP SWAP2 SWAP1 POP JUMP JUMPDEST PUSH1 0x0 PUSH2 0x4579 PUSH1 0x17 DUP4 PUSH2 0x4AE7 JUMP JUMPDEST SWAP2 POP PUSH2 0x4584 DUP3 PUSH2 0x50D8 JUMP JUMPDEST PUSH1 0x20 DUP3 ADD SWAP1 POP SWAP2 SWAP1 POP JUMP JUMPDEST PUSH1 0x0 PUSH2 0x459C PUSH1 0x2E DUP4 PUSH2 0x4AE7 JUMP JUMPDEST SWAP2 POP PUSH2 0x45A7 DUP3 PUSH2 0x5101 JUMP JUMPDEST PUSH1 0x40 DUP3 ADD SWAP1 POP SWAP2 SWAP1 POP JUMP JUMPDEST PUSH1 0x0 PUSH2 0x45BF PUSH1 0x5 DUP4 PUSH2 0x4AE7 JUMP JUMPDEST SWAP2 POP PUSH2 0x45CA DUP3 PUSH2 0x5150 JUMP JUMPDEST PUSH1 0x20 DUP3 ADD SWAP1 POP SWAP2 SWAP1 POP JUMP JUMPDEST PUSH2 0x45DE DUP2 PUSH2 0x4CE0 JUMP JUMPDEST DUP3 MSTORE POP POP JUMP JUMPDEST PUSH2 0x45ED DUP2 PUSH2 0x4CE0 JUMP JUMPDEST DUP3 MSTORE POP POP JUMP JUMPDEST PUSH2 0x45FC DUP2 PUSH2 0x4D47 JUMP JUMPDEST DUP3 MSTORE POP POP JUMP JUMPDEST PUSH2 0x460B DUP2 PUSH2 0x4D0E JUMP JUMPDEST DUP3 MSTORE POP POP JUMP JUMPDEST PUSH2 0x4622 PUSH2 0x461D DUP3 PUSH2 0x4D0E JUMP JUMPDEST PUSH2 0x4E3B JUMP JUMPDEST DUP3 MSTORE POP POP JUMP JUMPDEST PUSH2 0x4631 DUP2 PUSH2 0x4D18 JUMP JUMPDEST DUP3 MSTORE POP POP JUMP JUMPDEST PUSH2 0x4640 DUP2 PUSH2 0x4D28 JUMP JUMPDEST DUP3 MSTORE POP POP JUMP JUMPDEST PUSH1 0x0 PUSH2 0x4652 DUP3 DUP6 PUSH2 0x43AC JUMP JUMPDEST PUSH1 0x20 DUP3 ADD SWAP2 POP PUSH2 0x4662 DUP3 DUP5 PUSH2 0x4611 JUMP JUMPDEST PUSH1 0x20 DUP3 ADD SWAP2 POP DUP2 SWAP1 POP SWAP4 SWAP3 POP POP POP JUMP JUMPDEST PUSH1 0x0 PUSH1 0x20 DUP3 ADD SWAP1 POP PUSH2 0x4687 PUSH1 0x0 DUP4 ADD DUP5 PUSH2 0x4289 JUMP JUMPDEST SWAP3 SWAP2 POP POP JUMP JUMPDEST PUSH1 0x0 PUSH1 0x60 DUP3 ADD SWAP1 POP PUSH2 0x46A2 PUSH1 0x0 DUP4 ADD DUP7 PUSH2 0x4289 JUMP JUMPDEST PUSH2 0x46AF PUSH1 0x20 DUP4 ADD DUP6 PUSH2 0x4289 JUMP JUMPDEST PUSH2 0x46BC PUSH1 0x40 DUP4 ADD DUP5 PUSH2 0x45F3 JUMP JUMPDEST SWAP5 SWAP4 POP POP POP POP JUMP JUMPDEST PUSH1 0x0 PUSH1 0x40 DUP3 ADD SWAP1 POP PUSH2 0x46D9 PUSH1 0x0 DUP4 ADD DUP6 PUSH2 0x4289 JUMP JUMPDEST PUSH2 0x46E6 PUSH1 0x20 DUP4 ADD DUP5 PUSH2 0x4602 JUMP JUMPDEST SWAP4 SWAP3 POP POP POP JUMP JUMPDEST PUSH1 0x0 PUSH1 0x60 DUP3 ADD SWAP1 POP PUSH2 0x4702 PUSH1 0x0 DUP4 ADD DUP7 PUSH2 0x4289 JUMP JUMPDEST PUSH2 0x470F PUSH1 0x20 DUP4 ADD DUP6 PUSH2 0x4602 JUMP JUMPDEST DUP2 DUP2 SUB PUSH1 0x40 DUP4 ADD MSTORE PUSH2 0x4721 DUP2 DUP5 PUSH2 0x43D2 JUMP JUMPDEST SWAP1 POP SWAP5 SWAP4 POP POP POP POP JUMP JUMPDEST PUSH1 0x0 PUSH1 0x40 DUP3 ADD SWAP1 POP PUSH2 0x4740 PUSH1 0x0 DUP4 ADD DUP5 PUSH2 0x4298 JUMP JUMPDEST SWAP3 SWAP2 POP POP JUMP JUMPDEST PUSH1 0x0 PUSH1 0x60 DUP3 ADD SWAP1 POP PUSH2 0x475B PUSH1 0x0 DUP4 ADD DUP5 PUSH2 0x42EF JUMP JUMPDEST SWAP3 SWAP2 POP POP JUMP JUMPDEST PUSH1 0x0 PUSH2 0x100 DUP3 ADD SWAP1 POP PUSH2 0x4777 PUSH1 0x0 DUP4 ADD DUP5 PUSH2 0x4346 JUMP JUMPDEST SWAP3 SWAP2 POP POP JUMP JUMPDEST PUSH1 0x0 PUSH1 0x40 DUP3 ADD SWAP1 POP PUSH2 0x4792 PUSH1 0x0 DUP4 ADD DUP6 PUSH2 0x439D JUMP JUMPDEST PUSH2 0x479F PUSH1 0x20 DUP4 ADD DUP5 PUSH2 0x4602 JUMP JUMPDEST SWAP4 SWAP3 POP POP POP JUMP JUMPDEST PUSH1 0x0 PUSH1 0x80 DUP3 ADD SWAP1 POP PUSH2 0x47BB PUSH1 0x0 DUP4 ADD DUP8 PUSH2 0x439D JUMP JUMPDEST PUSH2 0x47C8 PUSH1 0x20 DUP4 ADD DUP7 PUSH2 0x4602 JUMP JUMPDEST PUSH2 0x47D5 PUSH1 0x40 DUP4 ADD DUP6 PUSH2 0x4289 JUMP JUMPDEST PUSH2 0x47E2 PUSH1 0x60 DUP4 ADD DUP5 PUSH2 0x4602 JUMP JUMPDEST SWAP6 SWAP5 POP POP POP POP POP JUMP JUMPDEST PUSH1 0x0 PUSH1 0x20 DUP3 ADD SWAP1 POP PUSH2 0x4800 PUSH1 0x0 DUP4 ADD DUP5 PUSH2 0x43C3 JUMP JUMPDEST SWAP3 SWAP2 POP POP JUMP JUMPDEST PUSH1 0x0 PUSH1 0x20 DUP3 ADD SWAP1 POP PUSH2 0x481B PUSH1 0x0 DUP4 ADD DUP5 PUSH2 0x440B JUMP JUMPDEST SWAP3 SWAP2 POP POP JUMP JUMPDEST PUSH1 0x0 PUSH1 0x20 DUP3 ADD SWAP1 POP DUP2 DUP2 SUB PUSH1 0x0 DUP4 ADD MSTORE PUSH2 0x483B DUP2 DUP5 PUSH2 0x441A JUMP JUMPDEST SWAP1 POP SWAP3 SWAP2 POP POP JUMP JUMPDEST PUSH1 0x0 PUSH1 0x20 DUP3 ADD SWAP1 POP DUP2 DUP2 SUB PUSH1 0x0 DUP4 ADD MSTORE PUSH2 0x485C DUP2 PUSH2 0x449A JUMP JUMPDEST SWAP1 POP SWAP2 SWAP1 POP JUMP JUMPDEST PUSH1 0x0 PUSH1 0x20 DUP3 ADD SWAP1 POP DUP2 DUP2 SUB PUSH1 0x0 DUP4 ADD MSTORE PUSH2 0x487C DUP2 PUSH2 0x44BD JUMP JUMPDEST SWAP1 POP SWAP2 SWAP1 POP JUMP JUMPDEST PUSH1 0x0 PUSH1 0x20 DUP3 ADD SWAP1 POP DUP2 DUP2 SUB PUSH1 0x0 DUP4 ADD MSTORE PUSH2 0x489C DUP2 PUSH2 0x44E0 JUMP JUMPDEST SWAP1 POP SWAP2 SWAP1 POP JUMP JUMPDEST PUSH1 0x0 PUSH1 0x20 DUP3 ADD SWAP1 POP DUP2 DUP2 SUB PUSH1 0x0 DUP4 ADD MSTORE PUSH2 0x48BC DUP2 PUSH2 0x4503 JUMP JUMPDEST SWAP1 POP SWAP2 SWAP1 POP JUMP JUMPDEST PUSH1 0x0 PUSH1 0x20 DUP3 ADD SWAP1 POP DUP2 DUP2 SUB PUSH1 0x0 DUP4 ADD MSTORE PUSH2 0x48DC DUP2 PUSH2 0x4526 JUMP JUMPDEST SWAP1 POP SWAP2 SWAP1 POP JUMP JUMPDEST PUSH1 0x0 PUSH1 0x20 DUP3 ADD SWAP1 POP DUP2 DUP2 SUB PUSH1 0x0 DUP4 ADD MSTORE PUSH2 0x48FC DUP2 PUSH2 0x4549 JUMP JUMPDEST SWAP1 POP SWAP2 SWAP1 POP JUMP JUMPDEST PUSH1 0x0 PUSH1 0x20 DUP3 ADD SWAP1 POP DUP2 DUP2 SUB PUSH1 0x0 DUP4 ADD MSTORE PUSH2 0x491C DUP2 PUSH2 0x456C JUMP JUMPDEST SWAP1 POP SWAP2 SWAP1 POP JUMP JUMPDEST PUSH1 0x0 PUSH1 0x20 DUP3 ADD SWAP1 POP DUP2 DUP2 SUB PUSH1 0x0 DUP4 ADD MSTORE PUSH2 0x493C DUP2 PUSH2 0x458F JUMP JUMPDEST SWAP1 POP SWAP2 SWAP1 POP JUMP JUMPDEST PUSH1 0x0 PUSH1 0x20 DUP3 ADD SWAP1 POP DUP2 DUP2 SUB PUSH1 0x0 DUP4 ADD MSTORE PUSH2 0x495C DUP2 PUSH2 0x45B2 JUMP JUMPDEST SWAP1 POP SWAP2 SWAP1 POP JUMP JUMPDEST PUSH1 0x0 PUSH1 0x20 DUP3 ADD SWAP1 POP PUSH2 0x4978 PUSH1 0x0 DUP4 ADD DUP5 PUSH2 0x45E4 JUMP JUMPDEST SWAP3 SWAP2 POP POP JUMP JUMPDEST PUSH1 0x0 PUSH1 0x20 DUP3 ADD SWAP1 POP PUSH2 0x4993 PUSH1 0x0 DUP4 ADD DUP5 PUSH2 0x45F3 JUMP JUMPDEST SWAP3 SWAP2 POP POP JUMP JUMPDEST PUSH1 0x0 PUSH1 0x40 DUP3 ADD SWAP1 POP PUSH2 0x49AE PUSH1 0x0 DUP4 ADD DUP6 PUSH2 0x45E4 JUMP JUMPDEST PUSH2 0x49BB PUSH1 0x20 DUP4 ADD DUP5 PUSH2 0x4628 JUMP JUMPDEST SWAP4 SWAP3 POP POP POP JUMP JUMPDEST PUSH1 0x0 PUSH1 0x40 DUP3 ADD SWAP1 POP PUSH2 0x49D7 PUSH1 0x0 DUP4 ADD DUP6 PUSH2 0x45E4 JUMP JUMPDEST PUSH2 0x49E4 PUSH1 0x20 DUP4 ADD DUP5 PUSH2 0x4637 JUMP JUMPDEST SWAP4 SWAP3 POP POP POP JUMP JUMPDEST PUSH1 0x0 PUSH1 0x20 DUP3 ADD SWAP1 POP PUSH2 0x4A00 PUSH1 0x0 DUP4 ADD DUP5 PUSH2 0x4602 JUMP JUMPDEST SWAP3 SWAP2 POP POP JUMP JUMPDEST PUSH1 0x0 PUSH1 0x40 DUP3 ADD SWAP1 POP PUSH2 0x4A1B PUSH1 0x0 DUP4 ADD DUP6 PUSH2 0x4602 JUMP JUMPDEST PUSH2 0x4A28 PUSH1 0x20 DUP4 ADD DUP5 PUSH2 0x4637 JUMP JUMPDEST SWAP4 SWAP3 POP POP POP JUMP JUMPDEST PUSH1 0x0 DUP2 SWAP1 POP SWAP2 SWAP1 POP JUMP JUMPDEST PUSH1 0x0 DUP2 SWAP1 POP SWAP2 SWAP1 POP JUMP JUMPDEST PUSH1 0x0 DUP2 SWAP1 POP SWAP2 SWAP1 POP JUMP JUMPDEST PUSH1 0x0 DUP2 SWAP1 POP DUP2 PUSH1 0x0 MSTORE PUSH1 0x20 PUSH1 0x0 KECCAK256 SWAP1 POP SWAP2 SWAP1 POP JUMP JUMPDEST PUSH1 0x0 PUSH1 0x2 SWAP1 POP SWAP2 SWAP1 POP JUMP JUMPDEST PUSH1 0x0 PUSH1 0x3 SWAP1 POP SWAP2 SWAP1 POP JUMP JUMPDEST PUSH1 0x0 PUSH1 0x8 SWAP1 POP SWAP2 SWAP1 POP JUMP JUMPDEST PUSH1 0x0 DUP2 MLOAD SWAP1 POP SWAP2 SWAP1 POP JUMP JUMPDEST PUSH1 0x0 PUSH1 0x20 DUP3 ADD SWAP1 POP SWAP2 SWAP1 POP JUMP JUMPDEST PUSH1 0x0 PUSH1 0x20 DUP3 ADD SWAP1 POP SWAP2 SWAP1 POP JUMP JUMPDEST PUSH1 0x0 PUSH1 0x20 DUP3 ADD SWAP1 POP SWAP2 SWAP1 POP JUMP JUMPDEST PUSH1 0x0 DUP2 SWAP1 POP SWAP3 SWAP2 POP POP JUMP JUMPDEST PUSH1 0x0 DUP2 SWAP1 POP SWAP3 SWAP2 POP POP JUMP JUMPDEST PUSH1 0x0 DUP2 SWAP1 POP SWAP3 SWAP2 POP POP JUMP JUMPDEST PUSH1 0x0 DUP3 DUP3 MSTORE PUSH1 0x20 DUP3 ADD SWAP1 POP SWAP3 SWAP2 POP POP JUMP JUMPDEST PUSH1 0x0 DUP3 DUP3 MSTORE PUSH1 0x20 DUP3 ADD SWAP1 POP SWAP3 SWAP2 POP POP JUMP JUMPDEST PUSH1 0x0 PUSH2 0x4B03 DUP3 PUSH2 0x4CE0 JUMP JUMPDEST SWAP2 POP PUSH2 0x4B0E DUP4 PUSH2 0x4CE0 JUMP JUMPDEST SWAP3 POP DUP3 PUSH2 0xFFFF SUB DUP3 GT ISZERO PUSH2 0x4B25 JUMPI PUSH2 0x4B24 PUSH2 0x4EA7 JUMP JUMPDEST JUMPDEST DUP3 DUP3 ADD SWAP1 POP SWAP3 SWAP2 POP POP JUMP JUMPDEST PUSH1 0x0 PUSH2 0x4B3B DUP3 PUSH2 0x4D0E JUMP JUMPDEST SWAP2 POP PUSH2 0x4B46 DUP4 PUSH2 0x4D0E JUMP JUMPDEST SWAP3 POP DUP3 PUSH32 0xFFFFFFFFFFFFFFFFFFFFFFFFFFFFFFFFFFFFFFFFFFFFFFFFFFFFFFFFFFFFFFFF SUB DUP3 GT ISZERO PUSH2 0x4B7B JUMPI PUSH2 0x4B7A PUSH2 0x4EA7 JUMP JUMPDEST JUMPDEST DUP3 DUP3 ADD SWAP1 POP SWAP3 SWAP2 POP POP JUMP JUMPDEST PUSH1 0x0 PUSH2 0x4B91 DUP3 PUSH2 0x4D28 JUMP JUMPDEST SWAP2 POP PUSH2 0x4B9C DUP4 PUSH2 0x4D28 JUMP JUMPDEST SWAP3 POP DUP3 PUSH1 0xFF SUB DUP3 GT ISZERO PUSH2 0x4BB2 JUMPI PUSH2 0x4BB1 PUSH2 0x4EA7 JUMP JUMPDEST JUMPDEST DUP3 DUP3 ADD SWAP1 POP SWAP3 SWAP2 POP POP JUMP JUMPDEST PUSH1 0x0 PUSH2 0x4BC8 DUP3 PUSH2 0x4D0E JUMP JUMPDEST SWAP2 POP PUSH2 0x4BD3 DUP4 PUSH2 0x4D0E JUMP JUMPDEST SWAP3 POP DUP3 PUSH2 0x4BE3 JUMPI PUSH2 0x4BE2 PUSH2 0x4ED6 JUMP JUMPDEST JUMPDEST DUP3 DUP3 DIV SWAP1 POP SWAP3 SWAP2 POP POP JUMP JUMPDEST PUSH1 0x0 PUSH2 0x4BF9 DUP3 PUSH2 0x4D18 JUMP JUMPDEST SWAP2 POP PUSH2 0x4C04 DUP4 PUSH2 0x4D18 JUMP JUMPDEST SWAP3 POP DUP3 PUSH2 0x4C14 JUMPI PUSH2 0x4C13 PUSH2 0x4ED6 JUMP JUMPDEST JUMPDEST DUP3 DUP3 DIV SWAP1 POP SWAP3 SWAP2 POP POP JUMP JUMPDEST PUSH1 0x0 PUSH2 0x4C2A DUP3 PUSH2 0x4D0E JUMP JUMPDEST SWAP2 POP PUSH2 0x4C35 DUP4 PUSH2 0x4D0E JUMP JUMPDEST SWAP3 POP DUP2 PUSH32 0xFFFFFFFFFFFFFFFFFFFFFFFFFFFFFFFFFFFFFFFFFFFFFFFFFFFFFFFFFFFFFFFF DIV DUP4 GT DUP3 ISZERO ISZERO AND ISZERO PUSH2 0x4C6E JUMPI PUSH2 0x4C6D PUSH2 0x4EA7 JUMP JUMPDEST JUMPDEST DUP3 DUP3 MUL SWAP1 POP SWAP3 SWAP2 POP POP JUMP JUMPDEST PUSH1 0x0 PUSH2 0x4C84 DUP3 PUSH2 0x4CEE JUMP JUMPDEST SWAP1 POP SWAP2 SWAP1 POP JUMP JUMPDEST PUSH1 0x0 DUP2 ISZERO ISZERO SWAP1 POP SWAP2 SWAP1 POP JUMP JUMPDEST PUSH1 0x0 DUP2 SWAP1 POP SWAP2 SWAP1 POP JUMP JUMPDEST PUSH1 0x0 PUSH32 0xFFFFFFFF00000000000000000000000000000000000000000000000000000000 DUP3 AND SWAP1 POP SWAP2 SWAP1 POP JUMP JUMPDEST PUSH1 0x0 DUP2 SWAP1 POP PUSH2 0x4CDB DUP3 PUSH2 0x5179 JUMP JUMPDEST SWAP2 SWAP1 POP JUMP JUMPDEST PUSH1 0x0 PUSH2 0xFFFF DUP3 AND SWAP1 POP SWAP2 SWAP1 POP JUMP JUMPDEST PUSH1 0x0 PUSH20 0xFFFFFFFFFFFFFFFFFFFFFFFFFFFFFFFFFFFFFFFF DUP3 AND SWAP1 POP SWAP2 SWAP1 POP JUMP JUMPDEST PUSH1 0x0 DUP2 SWAP1 POP SWAP2 SWAP1 POP JUMP JUMPDEST PUSH1 0x0 PUSH4 0xFFFFFFFF DUP3 AND SWAP1 POP SWAP2 SWAP1 POP JUMP JUMPDEST PUSH1 0x0 PUSH1 0xFF DUP3 AND SWAP1 POP SWAP2 SWAP1 POP JUMP JUMPDEST PUSH1 0x0 PUSH2 0x4D40 DUP3 PUSH2 0x4CCD JUMP JUMPDEST SWAP1 POP SWAP2 SWAP1 POP JUMP JUMPDEST PUSH1 0x0 PUSH2 0x4D52 DUP3 PUSH2 0x4CE0 JUMP JUMPDEST SWAP1 POP SWAP2 SWAP1 POP JUMP JUMPDEST PUSH1 0x0 JUMPDEST DUP4 DUP2 LT ISZERO PUSH2 0x4D77 JUMPI DUP1 DUP3 ADD MLOAD DUP2 DUP5 ADD MSTORE PUSH1 0x20 DUP2 ADD SWAP1 POP PUSH2 0x4D5C JUMP JUMPDEST DUP4 DUP2 GT ISZERO PUSH2 0x4D86 JUMPI PUSH1 0x0 DUP5 DUP5 ADD MSTORE JUMPDEST POP POP POP POP JUMP JUMPDEST PUSH1 0x0 PUSH1 0x2 DUP3 DIV SWAP1 POP PUSH1 0x1 DUP3 AND DUP1 PUSH2 0x4DA4 JUMPI PUSH1 0x7F DUP3 AND SWAP2 POP JUMPDEST PUSH1 0x20 DUP3 LT DUP2 EQ ISZERO PUSH2 0x4DB8 JUMPI PUSH2 0x4DB7 PUSH2 0x4F34 JUMP JUMPDEST JUMPDEST POP SWAP2 SWAP1 POP JUMP JUMPDEST PUSH1 0x0 PUSH2 0x4DC9 DUP3 PUSH2 0x4D0E JUMP JUMPDEST SWAP2 POP PUSH32 0xFFFFFFFFFFFFFFFFFFFFFFFFFFFFFFFFFFFFFFFFFFFFFFFFFFFFFFFFFFFFFFFF DUP3 EQ ISZERO PUSH2 0x4DFC JUMPI PUSH2 0x4DFB PUSH2 0x4EA7 JUMP JUMPDEST JUMPDEST PUSH1 0x1 DUP3 ADD SWAP1 POP SWAP2 SWAP1 POP JUMP JUMPDEST PUSH1 0x0 PUSH2 0x4E12 DUP3 PUSH2 0x4D28 JUMP JUMPDEST SWAP2 POP PUSH1 0xFF DUP3 EQ ISZERO PUSH2 0x4E26 JUMPI PUSH2 0x4E25 PUSH2 0x4EA7 JUMP JUMPDEST JUMPDEST PUSH1 0x1 DUP3 ADD SWAP1 POP SWAP2 SWAP1 POP JUMP JUMPDEST PUSH1 0x0 DUP2 SWAP1 POP SWAP2 SWAP1 POP JUMP JUMPDEST PUSH1 0x0 DUP2 SWAP1 POP SWAP2 SWAP1 POP JUMP JUMPDEST PUSH1 0x0 PUSH2 0x4E50 DUP3 PUSH2 0x4CE0 JUMP JUMPDEST SWAP2 POP PUSH2 0x4E5B DUP4 PUSH2 0x4CE0 JUMP JUMPDEST SWAP3 POP DUP3 PUSH2 0x4E6B JUMPI PUSH2 0x4E6A PUSH2 0x4ED6 JUMP JUMPDEST JUMPDEST DUP3 DUP3 MOD SWAP1 POP SWAP3 SWAP2 POP POP JUMP JUMPDEST PUSH1 0x0 PUSH2 0x4E81 DUP3 PUSH2 0x4D0E JUMP JUMPDEST SWAP2 POP PUSH2 0x4E8C DUP4 PUSH2 0x4D0E JUMP JUMPDEST SWAP3 POP DUP3 PUSH2 0x4E9C JUMPI PUSH2 0x4E9B PUSH2 0x4ED6 JUMP JUMPDEST JUMPDEST DUP3 DUP3 MOD SWAP1 POP SWAP3 SWAP2 POP POP JUMP JUMPDEST PUSH32 0x4E487B7100000000000000000000000000000000000000000000000000000000 PUSH1 0x0 MSTORE PUSH1 0x11 PUSH1 0x4 MSTORE PUSH1 0x24 PUSH1 0x0 REVERT JUMPDEST PUSH32 0x4E487B7100000000000000000000000000000000000000000000000000000000 PUSH1 0x0 MSTORE PUSH1 0x12 PUSH1 0x4 MSTORE PUSH1 0x24 PUSH1 0x0 REVERT JUMPDEST PUSH32 0x4E487B7100000000000000000000000000000000000000000000000000000000 PUSH1 0x0 MSTORE PUSH1 0x21 PUSH1 0x4 MSTORE PUSH1 0x24 PUSH1 0x0 REVERT JUMPDEST PUSH32 0x4E487B7100000000000000000000000000000000000000000000000000000000 PUSH1 0x0 MSTORE PUSH1 0x22 PUSH1 0x4 MSTORE PUSH1 0x24 PUSH1 0x0 REVERT JUMPDEST PUSH32 0x4E487B7100000000000000000000000000000000000000000000000000000000 PUSH1 0x0 MSTORE PUSH1 0x32 PUSH1 0x4 MSTORE PUSH1 0x24 PUSH1 0x0 REVERT JUMPDEST PUSH1 0x0 DUP1 REVERT JUMPDEST PUSH1 0x0 DUP1 REVERT JUMPDEST PUSH1 0x0 DUP1 REVERT JUMPDEST PUSH1 0x0 DUP1 REVERT JUMPDEST PUSH1 0x0 DUP1 REVERT JUMPDEST PUSH1 0x0 PUSH1 0x1F NOT PUSH1 0x1F DUP4 ADD AND SWAP1 POP SWAP2 SWAP1 POP JUMP JUMPDEST PUSH32 0x596F752063616E206E6F742063616C6C20746869732066756E6374696F6E0000 PUSH1 0x0 DUP3 ADD MSTORE POP JUMP JUMPDEST PUSH32 0x596F752063616E206E6F74206A6F696E20617420746869732074696D65000000 PUSH1 0x0 DUP3 ADD MSTORE POP JUMP JUMPDEST PUSH32 0x596F757220726170746F72206973206E6F7420617661696C61626C6520726967 PUSH1 0x0 DUP3 ADD MSTORE PUSH32 0x6874206E6F770000000000000000000000000000000000000000000000000000 PUSH1 0x20 DUP3 ADD MSTORE POP JUMP JUMPDEST PUSH32 0x596F7520646F206E6F74206F776E207468697320726170746F72000000000000 PUSH1 0x0 DUP3 ADD MSTORE POP JUMP JUMPDEST PUSH32 0x4F6E6C7920565246436F6F7264696E61746F722063616E2066756C66696C6C00 PUSH1 0x0 DUP3 ADD MSTORE POP JUMP JUMPDEST PUSH32 0x596F752068617665206E6F742073656E7420656E6F7567682066756E64730000 PUSH1 0x0 DUP3 ADD MSTORE POP JUMP JUMPDEST PUSH32 0x4E6F7420656E6F756768204C494E4B2062616C616E6365000000000000000000 PUSH1 0x0 DUP3 ADD MSTORE POP JUMP JUMPDEST PUSH32 0x546869732072616365207175657565206973206E6F7420617661696C61626C65 PUSH1 0x0 DUP3 ADD MSTORE PUSH32 0x20617420746865206D6F6D656E74000000000000000000000000000000000000 PUSH1 0x20 DUP3 ADD MSTORE POP JUMP JUMPDEST PUSH32 0x4572726F72000000000000000000000000000000000000000000000000000000 PUSH1 0x0 DUP3 ADD MSTORE POP JUMP JUMPDEST PUSH1 0x4 DUP2 LT PUSH2 0x518A JUMPI PUSH2 0x5189 PUSH2 0x4F05 JUMP JUMPDEST JUMPDEST POP JUMP JUMPDEST PUSH2 0x5196 DUP2 PUSH2 0x4C79 JUMP JUMPDEST DUP2 EQ PUSH2 0x51A1 JUMPI PUSH1 0x0 DUP1 REVERT JUMPDEST POP JUMP JUMPDEST PUSH2 0x51AD DUP2 PUSH2 0x4C8B JUMP JUMPDEST DUP2 EQ PUSH2 0x51B8 JUMPI PUSH1 0x0 DUP1 REVERT JUMPDEST POP JUMP JUMPDEST PUSH2 0x51C4 DUP2 PUSH2 0x4C97 JUMP JUMPDEST DUP2 EQ PUSH2 0x51CF JUMPI PUSH1 0x0 DUP1 REVERT JUMPDEST POP JUMP JUMPDEST PUSH2 0x51DB DUP2 PUSH2 0x4CE0 JUMP JUMPDEST DUP2 EQ PUSH2 0x51E6 JUMPI PUSH1 0x0 DUP1 REVERT JUMPDEST POP JUMP JUMPDEST PUSH2 0x51F2 DUP2 PUSH2 0x4D0E JUMP JUMPDEST DUP2 EQ PUSH2 0x51FD JUMPI PUSH1 0x0 DUP1 REVERT JUMPDEST POP JUMP JUMPDEST PUSH2 0x5209 DUP2 PUSH2 0x4D18 JUMP JUMPDEST DUP2 EQ PUSH2 0x5214 JUMPI PUSH1 0x0 DUP1 REVERT JUMPDEST POP JUMP JUMPDEST PUSH2 0x5220 DUP2 PUSH2 0x4D28 JUMP JUMPDEST DUP2 EQ PUSH2 0x522B JUMPI PUSH1 0x0 DUP1 REVERT JUMPDEST POP JUMP INVALID LOG2 PUSH5 0x6970667358 0x22 SLT KECCAK256 DUP13 0xE3 0x26 CREATE2 PUSH25 0x44D6B820C119FC5BC2DEBEE83B6A53A0E96F238A04A39A00CE SWAP13 PUSH31 0x64736F6C634300080700330000000000000000000000000000000000000000 "
        },
        "gasEstimates": {
          "creation": {
            "codeDepositCost": "4218400",
            "executionCost": "infinite",
            "totalCost": "infinite"
          },
          "external": {
            "CompFee()": "2451",
            "DRFee()": "2495",
            "QPFee()": "2518",
            "currentRace()": "2604",
            "currentRaptors(uint256)": "4483",
            "enterRaptorIntoComp(uint16)": "infinite",
            "enterRaptorIntoDR(uint16)": "infinite",
            "enterRaptorIntoQuickPlay(uint16)": "infinite",
            "getCurrentQueue()": "infinite",
            "onERC721Received(address,address,uint256,bytes)": "infinite",
            "pot()": "2474",
            "raceSelect(uint8)": "infinite",
            "rawFulfillRandomness(bytes32,uint256)": "infinite",
            "withdrawLink()": "infinite"
          },
          "internal": {
            "_payOut(uint16,uint256,uint256)": "infinite",
            "buildVars(uint16[8] memory,uint16[8] memory,bool)": "infinite",
            "expand(uint256)": "infinite",
            "fulfillRandomness(bytes32,uint256)": "infinite",
            "getRandomNumber()": "infinite",
            "makeRequestId(bytes32,uint256)": "infinite",
            "makeVRFInputSeed(bytes32,uint256,address,uint256)": "infinite",
            "requestRandomness(bytes32,uint256)": "infinite"
          }
        },
        "methodIdentifiers": {
          "CompFee()": "a8aa4d0c",
          "DRFee()": "c7a36bc9",
          "QPFee()": "547b927f",
          "currentRace()": "c4fc3b2e",
          "currentRaptors(uint256)": "e4789a06",
          "enterRaptorIntoComp(uint16)": "1e59cd6c",
          "enterRaptorIntoDR(uint16)": "948da447",
          "enterRaptorIntoQuickPlay(uint16)": "173fabeb",
          "getCurrentQueue()": "4d045e4e",
          "onERC721Received(address,address,uint256,bytes)": "150b7a02",
          "pot()": "4ba2363a",
          "raceSelect(uint8)": "2e82967d",
          "rawFulfillRandomness(bytes32,uint256)": "94985ddd",
          "withdrawLink()": "8dc654a2"
        }
      },
      "storageLayout": {
        "storage": [
          {
            "astId": 79,
            "contract": "contracts/game.sol:Game",
            "label": "nonces",
            "offset": 0,
            "slot": "0",
            "type": "t_mapping(t_bytes32,t_uint256)"
          },
          {
            "astId": 474,
            "contract": "contracts/game.sol:Game",
            "label": "admin",
            "offset": 0,
            "slot": "1",
            "type": "t_address"
          },
          {
            "astId": 478,
            "contract": "contracts/game.sol:Game",
            "label": "currentRaptors",
            "offset": 0,
            "slot": "2",
            "type": "t_array(t_uint16)8_storage"
          },
          {
            "astId": 480,
            "contract": "contracts/game.sol:Game",
            "label": "pot",
            "offset": 0,
            "slot": "3",
            "type": "t_uint256"
          },
          {
            "astId": 482,
            "contract": "contracts/game.sol:Game",
            "label": "QPFee",
            "offset": 0,
            "slot": "4",
            "type": "t_uint256"
          },
          {
            "astId": 484,
            "contract": "contracts/game.sol:Game",
            "label": "CompFee",
            "offset": 0,
            "slot": "5",
            "type": "t_uint256"
          },
          {
            "astId": 486,
            "contract": "contracts/game.sol:Game",
            "label": "DRFee",
            "offset": 0,
            "slot": "6",
            "type": "t_uint256"
          },
          {
            "astId": 501,
            "contract": "contracts/game.sol:Game",
            "label": "primes",
            "offset": 0,
            "slot": "7",
            "type": "t_array(t_uint64)dyn_storage"
          },
          {
            "astId": 524,
            "contract": "contracts/game.sol:Game",
            "label": "vrf",
            "offset": 0,
            "slot": "8",
            "type": "t_struct(VRF)521_storage"
          },
          {
            "astId": 537,
            "contract": "contracts/game.sol:Game",
            "label": "raceNames",
            "offset": 0,
            "slot": "16",
            "type": "t_array(t_string_storage)dyn_storage"
          },
          {
            "astId": 540,
            "contract": "contracts/game.sol:Game",
            "label": "currentRace",
            "offset": 0,
            "slot": "17",
            "type": "t_enum(CurrentRace)529"
          },
          {
            "astId": 543,
            "contract": "contracts/game.sol:Game",
            "label": "currentVars",
            "offset": 0,
            "slot": "18",
            "type": "t_struct(GameVars)3223_storage"
          },
          {
            "astId": 545,
            "contract": "contracts/game.sol:Game",
            "label": "communityWallet",
            "offset": 0,
            "slot": "24",
            "type": "t_address_payable"
          },
          {
            "astId": 547,
            "contract": "contracts/game.sol:Game",
            "label": "currentPosition",
            "offset": 20,
            "slot": "24",
            "type": "t_uint16"
          },
          {
            "astId": 549,
            "contract": "contracts/game.sol:Game",
            "label": "distance",
            "offset": 22,
            "slot": "24",
            "type": "t_uint32"
          }
        ],
        "types": {
          "t_address": {
            "encoding": "inplace",
            "label": "address",
            "numberOfBytes": "20"
          },
          "t_address_payable": {
            "encoding": "inplace",
            "label": "address payable",
            "numberOfBytes": "20"
          },
          "t_array(t_string_storage)dyn_storage": {
            "base": "t_string_storage",
            "encoding": "dynamic_array",
            "label": "string[]",
            "numberOfBytes": "32"
          },
          "t_array(t_uint16)8_storage": {
            "base": "t_uint16",
            "encoding": "inplace",
            "label": "uint16[8]",
            "numberOfBytes": "32"
          },
          "t_array(t_uint64)dyn_storage": {
            "base": "t_uint64",
            "encoding": "dynamic_array",
            "label": "uint64[]",
            "numberOfBytes": "32"
          },
          "t_array(t_uint8)2_storage": {
            "base": "t_uint8",
            "encoding": "inplace",
            "label": "uint8[2]",
            "numberOfBytes": "32"
          },
          "t_array(t_uint8)3_storage": {
            "base": "t_uint8",
            "encoding": "inplace",
            "label": "uint8[3]",
            "numberOfBytes": "32"
          },
          "t_bool": {
            "encoding": "inplace",
            "label": "bool",
            "numberOfBytes": "1"
          },
          "t_bytes32": {
            "encoding": "inplace",
            "label": "bytes32",
            "numberOfBytes": "32"
          },
          "t_contract(LinkTokenInterface)265": {
            "encoding": "inplace",
            "label": "contract LinkTokenInterface",
            "numberOfBytes": "20"
          },
          "t_enum(CurrentRace)529": {
            "encoding": "inplace",
            "label": "enum Game.CurrentRace",
            "numberOfBytes": "1"
          },
          "t_mapping(t_bytes32,t_uint256)": {
            "encoding": "mapping",
            "key": "t_bytes32",
            "label": "mapping(bytes32 => uint256)",
            "numberOfBytes": "32",
            "value": "t_uint256"
          },
          "t_string_storage": {
            "encoding": "bytes",
            "label": "string",
            "numberOfBytes": "32"
          },
          "t_struct(GameVars)3223_storage": {
            "encoding": "inplace",
            "label": "struct GameVars",
            "members": [
              {
                "astId": 3206,
                "contract": "contracts/game.sol:Game",
                "label": "raptors",
                "offset": 0,
                "slot": "0",
                "type": "t_array(t_uint16)8_storage"
              },
              {
                "astId": 3210,
                "contract": "contracts/game.sol:Game",
                "label": "expandedNums",
                "offset": 0,
                "slot": "1",
                "type": "t_array(t_uint16)8_storage"
              },
              {
                "astId": 3214,
                "contract": "contracts/game.sol:Game",
                "label": "fighters",
                "offset": 0,
                "slot": "2",
                "type": "t_array(t_uint8)2_storage"
              },
              {
                "astId": 3216,
                "contract": "contracts/game.sol:Game",
                "label": "fightWinner",
                "offset": 0,
                "slot": "3",
                "type": "t_uint8"
              },
              {
                "astId": 3220,
                "contract": "contracts/game.sol:Game",
                "label": "places",
                "offset": 0,
                "slot": "4",
                "type": "t_array(t_uint8)3_storage"
              },
              {
                "astId": 3222,
                "contract": "contracts/game.sol:Game",
                "label": "dr",
                "offset": 0,
                "slot": "5",
                "type": "t_bool"
              }
            ],
            "numberOfBytes": "192"
          },
          "t_struct(VRF)521_storage": {
            "encoding": "inplace",
            "label": "struct Game.VRF",
            "members": [
              {
                "astId": 503,
                "contract": "contracts/game.sol:Game",
                "label": "vrfCoordinator",
                "offset": 0,
                "slot": "0",
                "type": "t_address"
              },
              {
                "astId": 505,
                "contract": "contracts/game.sol:Game",
                "label": "linkToken",
                "offset": 0,
                "slot": "1",
                "type": "t_address"
              },
              {
                "astId": 507,
                "contract": "contracts/game.sol:Game",
                "label": "keyHash",
                "offset": 0,
                "slot": "2",
                "type": "t_bytes32"
              },
              {
                "astId": 509,
                "contract": "contracts/game.sol:Game",
                "label": "fee",
                "offset": 0,
                "slot": "3",
                "type": "t_uint256"
              },
              {
                "astId": 512,
                "contract": "contracts/game.sol:Game",
                "label": "LINK",
                "offset": 0,
                "slot": "4",
                "type": "t_contract(LinkTokenInterface)265"
              },
              {
                "astId": 514,
                "contract": "contracts/game.sol:Game",
                "label": "randomResult",
                "offset": 0,
                "slot": "5",
                "type": "t_uint256"
              },
              {
                "astId": 518,
                "contract": "contracts/game.sol:Game",
                "label": "nonces",
                "offset": 0,
                "slot": "6",
                "type": "t_mapping(t_bytes32,t_uint256)"
              },
              {
                "astId": 520,
                "contract": "contracts/game.sol:Game",
                "label": "lastRequestId",
                "offset": 0,
                "slot": "7",
                "type": "t_bytes32"
              }
            ],
            "numberOfBytes": "256"
          },
          "t_uint16": {
            "encoding": "inplace",
            "label": "uint16",
            "numberOfBytes": "2"
          },
          "t_uint256": {
            "encoding": "inplace",
            "label": "uint256",
            "numberOfBytes": "32"
          },
          "t_uint32": {
            "encoding": "inplace",
            "label": "uint32",
            "numberOfBytes": "4"
          },
          "t_uint64": {
            "encoding": "inplace",
            "label": "uint64",
            "numberOfBytes": "8"
          },
          "t_uint8": {
            "encoding": "inplace",
            "label": "uint8",
            "numberOfBytes": "1"
          }
        }
      },
      "userdoc": {
        "kind": "user",
        "methods": {},
        "version": 1
      }
    }
  }
}