{
  "_format": "hh-sol-artifact-1",
  "contractName": "Game",
  "sourceName": "contracts/game.sol",
  "abi": [
    {
      "inputs": [
        {
          "internalType": "address",
          "name": "_minterContract",
          "type": "address"
        },
        {
          "internalType": "address",
          "name": "_communityWallet",
          "type": "address"
        },
        {
          "internalType": "uint256",
          "name": "_Fee",
          "type": "uint256"
        },
        {
          "internalType": "address",
          "name": "_vrfCoordinator",
          "type": "address"
        },
        {
          "internalType": "address",
          "name": "_linkToken",
          "type": "address"
        },
        {
          "internalType": "bytes32",
          "name": "_keyHash",
          "type": "bytes32"
        },
        {
          "internalType": "uint256",
          "name": "_OracleFee",
          "type": "uint256"
        },
        {
          "internalType": "uint32",
          "name": "_distance",
          "type": "uint32"
        }
      ],
      "stateMutability": "nonpayable",
      "type": "constructor"
    },
    {
      "anonymous": false,
      "inputs": [
        {
          "indexed": false,
          "internalType": "address",
          "name": "admin",
          "type": "address"
        }
      ],
      "name": "NewAdmin",
      "type": "event"
    },
    {
      "anonymous": false,
      "inputs": [
        {
          "indexed": false,
          "internalType": "string",
          "name": "raceType",
          "type": "string"
        }
      ],
      "name": "RaceChosen",
      "type": "event"
    },
    {
      "anonymous": false,
      "inputs": [
        {
          "indexed": false,
          "internalType": "uint16",
          "name": "raptor",
          "type": "uint16"
        },
        {
          "components": [
            {
              "internalType": "uint16",
              "name": "speed",
              "type": "uint16"
            },
            {
              "internalType": "uint16",
              "name": "strength",
              "type": "uint16"
            },
            {
              "internalType": "uint16",
              "name": "fightsWon",
              "type": "uint16"
            },
            {
              "internalType": "uint16",
              "name": "quickPlayRacesWon",
              "type": "uint16"
            },
            {
              "internalType": "uint16",
              "name": "compRacesWon",
              "type": "uint16"
            },
            {
              "internalType": "uint16",
              "name": "deathRacesWon",
              "type": "uint16"
            },
            {
              "internalType": "uint16",
              "name": "totalRacesTop3Finish",
              "type": "uint16"
            },
            {
              "internalType": "uint32",
              "name": "cooldownTime",
              "type": "uint32"
            }
          ],
          "indexed": false,
          "internalType": "struct Stats",
          "name": "stats",
          "type": "tuple"
        }
      ],
      "name": "UpdatedStats",
      "type": "event"
    },
    {
      "inputs": [],
      "name": "CompFee",
      "outputs": [
        {
          "internalType": "uint256",
          "name": "",
          "type": "uint256"
        }
      ],
      "stateMutability": "view",
      "type": "function"
    },
    {
      "inputs": [],
      "name": "DRFee",
      "outputs": [
        {
          "internalType": "uint256",
          "name": "",
          "type": "uint256"
        }
      ],
      "stateMutability": "view",
      "type": "function"
    },
    {
      "inputs": [],
      "name": "QPFee",
      "outputs": [
        {
          "internalType": "uint256",
          "name": "",
          "type": "uint256"
        }
      ],
      "stateMutability": "view",
      "type": "function"
    },
    {
      "inputs": [],
      "name": "currentRace",
      "outputs": [
        {
          "internalType": "enum Game.CurrentRace",
          "name": "",
          "type": "uint8"
        }
      ],
      "stateMutability": "view",
      "type": "function"
    },
    {
      "inputs": [
        {
          "internalType": "uint256",
          "name": "",
          "type": "uint256"
        }
      ],
      "name": "currentRaptors",
      "outputs": [
        {
          "internalType": "uint16",
          "name": "",
          "type": "uint16"
        }
      ],
      "stateMutability": "view",
      "type": "function"
    },
    {
      "inputs": [
        {
          "internalType": "uint16",
          "name": "raptor",
          "type": "uint16"
        }
      ],
      "name": "enterRaptorIntoComp",
      "outputs": [],
      "stateMutability": "payable",
      "type": "function"
    },
    {
      "inputs": [
        {
          "internalType": "uint16",
          "name": "raptor",
          "type": "uint16"
        }
      ],
      "name": "enterRaptorIntoDR",
      "outputs": [],
      "stateMutability": "payable",
      "type": "function"
    },
    {
      "inputs": [
        {
          "internalType": "uint16",
          "name": "raptor",
          "type": "uint16"
        }
      ],
      "name": "enterRaptorIntoQuickPlay",
      "outputs": [],
      "stateMutability": "payable",
      "type": "function"
    },
    {
      "inputs": [],
      "name": "getCurrentQueue",
      "outputs": [
        {
          "internalType": "uint16[8]",
          "name": "raptors",
          "type": "uint16[8]"
        }
      ],
      "stateMutability": "view",
      "type": "function"
    },
    {
      "inputs": [
        {
          "internalType": "address",
          "name": "operator",
          "type": "address"
        },
        {
          "internalType": "address",
          "name": "from",
          "type": "address"
        },
        {
          "internalType": "uint256",
          "name": "tokenId",
          "type": "uint256"
        },
        {
          "internalType": "bytes",
          "name": "data",
          "type": "bytes"
        }
      ],
      "name": "onERC721Received",
      "outputs": [
        {
          "internalType": "bytes4",
          "name": "",
          "type": "bytes4"
        }
      ],
      "stateMutability": "pure",
      "type": "function"
    },
    {
      "inputs": [],
      "name": "pot",
      "outputs": [
        {
          "internalType": "uint256",
          "name": "",
          "type": "uint256"
        }
      ],
      "stateMutability": "view",
      "type": "function"
    },
    {
      "inputs": [
        {
          "internalType": "uint8",
          "name": "choice",
          "type": "uint8"
        }
      ],
      "name": "raceSelect",
      "outputs": [],
      "stateMutability": "nonpayable",
      "type": "function"
    },
    {
      "inputs": [
        {
          "internalType": "bytes32",
          "name": "requestId",
          "type": "bytes32"
        },
        {
          "internalType": "uint256",
          "name": "randomness",
          "type": "uint256"
        }
      ],
      "name": "rawFulfillRandomness",
      "outputs": [],
      "stateMutability": "nonpayable",
      "type": "function"
    },
    {
      "inputs": [],
      "name": "withdrawLink",
      "outputs": [],
      "stateMutability": "nonpayable",
      "type": "function"
    }
  ],
  "bytecode": "0x60c06040526040518061010001604052806119db61ffff168152602001611a3f61ffff168152602001611c8d61ffff168152602001611ce161ffff168152602001611ead61ffff168152602001611eef61ffff168152602001611e2f61ffff168152602001610c5f61ffff1681525060079060086200008092919062000528565b5060405180608001604052806040518060400160405280600781526020017f5374616e6442790000000000000000000000000000000000000000000000000081525081526020016040518060400160405280600981526020017f517569636b506c6179000000000000000000000000000000000000000000000081525081526020016040518060400160405280600b81526020017f436f6d706574697469766500000000000000000000000000000000000000000081525081526020016040518060400160405280600981526020017f4465617468526163650000000000000000000000000000000000000000000000815250815250601090600462000188929190620005e5565b503480156200019657600080fd5b5060405162005d0038038062005d008339818101604052810190620001bc9190620007c6565b84848173ffffffffffffffffffffffffffffffffffffffff1660a08173ffffffffffffffffffffffffffffffffffffffff1660601b815250508073ffffffffffffffffffffffffffffffffffffffff1660808173ffffffffffffffffffffffffffffffffffffffff1660601b81525050505062000244816200043060201b62000e3d1760201c565b83600860040160006101000a81548173ffffffffffffffffffffffffffffffffffffffff021916908373ffffffffffffffffffffffffffffffffffffffff16021790555084600860000160006101000a81548173ffffffffffffffffffffffffffffffffffffffff021916908373ffffffffffffffffffffffffffffffffffffffff16021790555083600860010160006101000a81548173ffffffffffffffffffffffffffffffffffffffff021916908373ffffffffffffffffffffffffffffffffffffffff16021790555082600860020181905550816008600301819055506200033a886200046b60201b62000e701760201c565b6200034a620004c660201b60201c565b600160006101000a81548173ffffffffffffffffffffffffffffffffffffffff021916908373ffffffffffffffffffffffffffffffffffffffff16021790555086601860006101000a81548173ffffffffffffffffffffffffffffffffffffffff021916908373ffffffffffffffffffffffffffffffffffffffff160217905550600060038190555085600481905550600586620003e991906200088f565b600581905550601986620003fe91906200088f565b6006819055506000601860146101000a81548161ffff021916908361ffff160217905550505050505050505062000a49565b600062000442620004ce60201b60201c565b9050818160000160006101000a81548163ffffffff021916908363ffffffff1602179055505050565b60006200047d620004fb60201b60201c565b9050818160000160006101000a81548173ffffffffffffffffffffffffffffffffffffffff021916908373ffffffffffffffffffffffffffffffffffffffff1602179055505050565b600033905090565b6000807fbd21b19d8cf926bda1233d510b187b736a1511d6ea3ecb5758b69f58b71d619e90508091505090565b6000807f1c2ba469bf3fce83211eff010708567fbeeae896c0a247fceb689567699266ec90508091505090565b82805482825590600052602060002090600301600490048101928215620005d25791602002820160005b838211156200059a57835183826101000a81548167ffffffffffffffff021916908361ffff160217905550926020019260080160208160070104928301926001030262000552565b8015620005d05782816101000a81549067ffffffffffffffff02191690556008016020816007010492830192600103026200059a565b505b509050620005e191906200064c565b5090565b82805482825590600052602060002090810192821562000639579160200282015b8281111562000638578251829080519060200190620006279291906200066b565b509160200191906001019062000606565b5b509050620006489190620006fc565b5090565b5b80821115620006675760008160009055506001016200064d565b5090565b828054620006799062000948565b90600052602060002090601f0160209004810192826200069d5760008555620006e9565b82601f10620006b857805160ff1916838001178555620006e9565b82800160010185558215620006e9579182015b82811115620006e8578251825591602001919060010190620006cb565b5b509050620006f891906200064c565b5090565b5b8082111562000720576000818162000716919062000724565b50600101620006fd565b5090565b508054620007329062000948565b6000825580601f1062000746575062000767565b601f0160209004906000526020600020908101906200076691906200064c565b5b50565b6000815190506200077b81620009e1565b92915050565b6000815190506200079281620009fb565b92915050565b600081519050620007a98162000a15565b92915050565b600081519050620007c08162000a2f565b92915050565b600080600080600080600080610100898b031215620007ea57620007e9620009dc565b5b6000620007fa8b828c016200076a565b98505060206200080d8b828c016200076a565b9750506040620008208b828c0162000798565b9650506060620008338b828c016200076a565b9550506080620008468b828c016200076a565b94505060a0620008598b828c0162000781565b93505060c06200086c8b828c0162000798565b92505060e06200087f8b828c01620007af565b9150509295985092959890939650565b60006200089c826200092e565b9150620008a9836200092e565b9250817fffffffffffffffffffffffffffffffffffffffffffffffffffffffffffffffff0483118215151615620008e557620008e46200097e565b5b828202905092915050565b6000620008fd826200090e565b9050919050565b6000819050919050565b600073ffffffffffffffffffffffffffffffffffffffff82169050919050565b6000819050919050565b600063ffffffff82169050919050565b600060028204905060018216806200096157607f821691505b60208210811415620009785762000977620009ad565b5b50919050565b7f4e487b7100000000000000000000000000000000000000000000000000000000600052601160045260246000fd5b7f4e487b7100000000000000000000000000000000000000000000000000000000600052602260045260246000fd5b600080fd5b620009ec81620008f0565b8114620009f857600080fd5b50565b62000a068162000904565b811462000a1257600080fd5b50565b62000a20816200092e565b811462000a2c57600080fd5b50565b62000a3a8162000938565b811462000a4657600080fd5b50565b60805160601c60a05160601c61529162000a6f60003960005050600050506152916000f3fe6080604052600436106100dd5760003560e01c80638dc654a21161007f578063a8aa4d0c11610059578063a8aa4d0c1461025d578063c4fc3b2e14610288578063c7a36bc9146102b3578063e4789a06146102de576100dd565b80638dc654a214610201578063948da4471461021857806394985ddd14610234576100dd565b80632e82967d116100bb5780632e82967d146101575780634ba2363a146101805780634d045e4e146101ab578063547b927f146101d6576100dd565b8063150b7a02146100e2578063173fabeb1461011f5780631e59cd6c1461013b575b600080fd5b3480156100ee57600080fd5b506101096004803603810190610104919061403a565b61031b565b6040516101169190614818565b60405180910390f35b6101396004803603810190610134919061412f565b610322565b005b6101556004803603810190610150919061412f565b610547565b005b34801561016357600080fd5b5061017e60048036038101906101799190614210565b610769565b005b34801561018c57600080fd5b506101956108b3565b6040516101a29190614a18565b60405180910390f35b3480156101b757600080fd5b506101c06108b9565b6040516101cd919061478e565b60405180910390f35b3480156101e257600080fd5b506101eb61092c565b6040516101f89190614a18565b60405180910390f35b34801561020d57600080fd5b50610216610932565b005b610232600480360381019061022d919061412f565b610b24565b005b34801561024057600080fd5b5061025b600480360381019061025691906140ef565b610d4f565b005b34801561026957600080fd5b50610272610df0565b60405161027f9190614a18565b60405180910390f35b34801561029457600080fd5b5061029d610df6565b6040516102aa9190614833565b60405180910390f35b3480156102bf57600080fd5b506102c8610e09565b6040516102d59190614a18565b60405180910390f35b3480156102ea57600080fd5b5061030560048036038101906103009190614189565b610e0f565b6040516103129190614990565b60405180910390f35b6000806000fd5b6001601160009054906101000a900460ff16600381111561034657610345614f32565b5b14610386576040517f08c379a000000000000000000000000000000000000000000000000000000000815260040161037d90614950565b60405180910390fd5b600880106103c9576040517f08c379a00000000000000000000000000000000000000000000000000000000081526004016103c090614890565b60405180910390fd5b6103d281610ec3565b610411576040517f08c379a0000000000000000000000000000000000000000000000000000000008152600401610408906148d0565b60405180910390fd5b4261041b82610fc1565b63ffffffff1610610461576040517f08c379a0000000000000000000000000000000000000000000000000000000008152600401610458906148b0565b60405180910390fd5b60045434146104a5576040517f08c379a000000000000000000000000000000000000000000000000000000000815260040161049c90614910565b60405180910390fd5b34600360008282546104b79190614b5d565b925050819055506002601860149054906101000a900461ffff1661ffff16600881106104e6576104e5614f90565b5b601091828204019190066002029054906101000a905050600860ff16601860146101000a81548161ffff021916908361ffff1602179055506008601860149054906101000a900461ffff1661ffff16141561054457610543611083565b5b50565b6002601160009054906101000a900460ff16600381111561056b5761056a614f32565b5b146105ab576040517f08c379a00000000000000000000000000000000000000000000000000000000081526004016105a290614950565b60405180910390fd5b600880106105ee576040517f08c379a00000000000000000000000000000000000000000000000000000000081526004016105e590614890565b60405180910390fd5b426105f882610fc1565b63ffffffff161061063e576040517f08c379a0000000000000000000000000000000000000000000000000000000008152600401610635906148b0565b60405180910390fd5b61064781610ec3565b610686576040517f08c379a000000000000000000000000000000000000000000000000000000000815260040161067d906148d0565b60405180910390fd5b60055434146106ca576040517f08c379a00000000000000000000000000000000000000000000000000000000081526004016106c190614910565b60405180910390fd5b34600360008282546106dc9190614b5d565b925050819055506002601860149054906101000a900461ffff1661ffff166008811061070b5761070a614f90565b5b601091828204019190066002029054906101000a9050506008601860146101000a81548161ffff021916908361ffff1602179055506008601860149054906101000a900461ffff1661ffff16141561076657610765611083565b5b50565b600160009054906101000a900473ffffffffffffffffffffffffffffffffffffffff1673ffffffffffffffffffffffffffffffffffffffff163373ffffffffffffffffffffffffffffffffffffffff16146107f9576040517f08c379a00000000000000000000000000000000000000000000000000000000081526004016107f090614870565b60405180910390fd5b60008160ff1610158015610811575060038160ff1611155b61081a57600080fd5b8060ff1660038111156108305761082f614f32565b5b601160006101000a81548160ff0219169083600381111561085457610853614f32565b5b02179055507fed635755a5f2c0e0683dbac09037b703954d031a2b11cc1ad4d459e27f2f20e460108260ff168154811061089157610890614f90565b5b906000526020600020016040516108a8919061484e565b60405180910390a150565b60035481565b6108c1613d16565b6002600880602002604051908101604052809291908260088015610922576020028201916000905b82829054906101000a900461ffff1661ffff16815260200190600201906020826001010492830192600103820291508084116108e95790505b5050505050905090565b60045481565b600160009054906101000a900473ffffffffffffffffffffffffffffffffffffffff1673ffffffffffffffffffffffffffffffffffffffff163373ffffffffffffffffffffffffffffffffffffffff16146109c2576040517f08c379a00000000000000000000000000000000000000000000000000000000081526004016109b990614870565b60405180910390fd5b600860040160009054906101000a900473ffffffffffffffffffffffffffffffffffffffff1673ffffffffffffffffffffffffffffffffffffffff1663a9059cbb33600860040160009054906101000a900473ffffffffffffffffffffffffffffffffffffffff1673ffffffffffffffffffffffffffffffffffffffff166370a08231306040518263ffffffff1660e01b8152600401610a62919061464d565b60206040518083038186803b158015610a7a57600080fd5b505afa158015610a8e573d6000803e3d6000fd5b505050506040513d601f19601f82011682018060405250810190610ab291906141b6565b6040518363ffffffff1660e01b8152600401610acf9291906146f1565b602060405180830381600087803b158015610ae957600080fd5b505af1158015610afd573d6000803e3d6000fd5b505050506040513d601f19601f82011682018060405250810190610b2191906140c2565b50565b6003601160009054906101000a900460ff166003811115610b4857610b47614f32565b5b14610b88576040517f08c379a0000000000000000000000000000000000000000000000000000000008152600401610b7f90614950565b60405180910390fd5b60088010610bcb576040517f08c379a0000000000000000000000000000000000000000000000000000000008152600401610bc290614890565b60405180910390fd5b42610bd582610fc1565b63ffffffff1610610c1b576040517f08c379a0000000000000000000000000000000000000000000000000000000008152600401610c12906148b0565b60405180910390fd5b610c2481610ec3565b610c63576040517f08c379a0000000000000000000000000000000000000000000000000000000008152600401610c5a906148d0565b60405180910390fd5b610c6c8161119d565b6006543414610cb0576040517f08c379a0000000000000000000000000000000000000000000000000000000008152600401610ca790614910565b60405180910390fd5b3460036000828254610cc29190614b5d565b925050819055506002601860149054906101000a900461ffff1661ffff1660088110610cf157610cf0614f90565b5b601091828204019190066002029054906101000a9050506008601860146101000a81548161ffff021916908361ffff1602179055506008601860149054906101000a900461ffff1661ffff161415610d4c57610d4b611083565b5b50565b600860000160009054906101000a900473ffffffffffffffffffffffffffffffffffffffff1673ffffffffffffffffffffffffffffffffffffffff163373ffffffffffffffffffffffffffffffffffffffff1614610de2576040517f08c379a0000000000000000000000000000000000000000000000000000000008152600401610dd9906148f0565b60405180910390fd5b610dec828261123e565b5050565b60055481565b601160009054906101000a900460ff1681565b60065481565b60028160088110610e1f57600080fd5b60109182820401919006600202915054906101000a900461ffff1681565b6000610e476116e3565b9050818160000160006101000a81548163ffffffff021916908363ffffffff1602179055505050565b6000610e7a611710565b9050818160000160006101000a81548173ffffffffffffffffffffffffffffffffffffffff021916908373ffffffffffffffffffffffffffffffffffffffff1602179055505050565b600080610ece611710565b90503373ffffffffffffffffffffffffffffffffffffffff168160000160009054906101000a900473ffffffffffffffffffffffffffffffffffffffff1673ffffffffffffffffffffffffffffffffffffffff16636352211e856040518263ffffffff1660e01b8152600401610f4491906149ab565b60206040518083038186803b158015610f5c57600080fd5b505afa158015610f70573d6000803e3d6000fd5b505050506040513d601f19601f82011682018060405250810190610f94919061400d565b73ffffffffffffffffffffffffffffffffffffffff1614610fb6576000610fb9565b60015b915050919050565b600080610fcc611710565b90508060000160009054906101000a900473ffffffffffffffffffffffffffffffffffffffff1673ffffffffffffffffffffffffffffffffffffffff16636201917f846040518263ffffffff1660e01b815260040161102b9190614990565b60206040518083038186803b15801561104357600080fd5b505afa158015611057573d6000803e3d6000fd5b505050506040513d601f19601f8201168201806040525081019061107b91906141e3565b915050919050565b600860030154600860040160009054906101000a900473ffffffffffffffffffffffffffffffffffffffff1673ffffffffffffffffffffffffffffffffffffffff166370a08231306040518263ffffffff1660e01b81526004016110e7919061464d565b60206040518083038186803b1580156110ff57600080fd5b505afa158015611113573d6000803e3d6000fd5b505050506040513d601f19601f8201168201806040525081019061113791906141b6565b1015611178576040517f08c379a000000000000000000000000000000000000000000000000000000000815260040161116f90614930565b60405180910390fd5b600061118e60086002015460086003015461173d565b90508060086007018190555050565b60006111a7611710565b90508060000160009054906101000a900473ffffffffffffffffffffffffffffffffffffffff1673ffffffffffffffffffffffffffffffffffffffff1663095ea7b330846040518363ffffffff1660e01b81526004016112089291906146c8565b600060405180830381600087803b15801561122257600080fd5b505af1158015611236573d6000803e3d6000fd5b505050505050565b600860070154821461124f57600080fd5b80600860050181905550611261613d16565b60008060006112746008600501546118b5565b93506001601160009054906101000a900460ff16600381111561129a57611299614f32565b5b14156113eb576113196113146002600880602002604051908101604052809291908260088015611307576020028201916000905b82829054906101000a900461ffff1661ffff16815260200190600201906020826001010492830192600103820291508084116112ce5790505b5050505050866000611992565b611bdf565b92506000601860146101000a81548161ffff021916908361ffff16021790555061135883611348600354611e24565b611353600354611e46565b611e68565b50601160006101000a81549060ff0219169055600260006113799190613d39565b60126000808201600061138c9190613d39565b60018201600061139c9190613d39565b6002820160006113ac9190613d40565b6003820160006101000a81549060ff02191690556004820160006113d09190613d47565b6005820160006101000a81549060ff021916905550506116db565b6002601160009054906101000a900460ff16600381111561140f5761140e614f32565b5b14156115605761148e611489600260088060200260405190810160405280929190826008801561147c576020028201916000905b82829054906101000a900461ffff1661ffff16815260200190600201906020826001010492830192600103820291508084116114435790505b5050505050866000611992565b611f35565b92506000601860146101000a81548161ffff021916908361ffff1602179055506114cd836114bd600354611e24565b6114c8600354611e46565b611e68565b50601160006101000a81549060ff0219169055600260006114ee9190613d39565b6012600080820160006115019190613d39565b6001820160006115119190613d39565b6002820160006115219190613d40565b6003820160006101000a81549060ff02191690556004820160006115459190613d47565b6005820160006101000a81549060ff021916905550506116da565b6003601160009054906101000a900460ff16600381111561158457611583614f32565b5b14156116d9576116036115fe60026008806020026040519081016040528092919082600880156115f1576020028201916000905b82829054906101000a900461ffff1661ffff16815260200190600201906020826001010492830192600103820291508084116115b85790505b5050505050866001611992565b61217a565b92506000601860146101000a81548161ffff021916908361ffff16021790555061164283611632600354611e24565b61163d600354611e46565b611e68565b50601160006101000a81549060ff0219169055600260006116639190613d39565b6012600080820160006116769190613d39565b6001820160006116869190613d39565b6002820160006116969190613d40565b6003820160006101000a81549060ff02191690556004820160006116ba9190613d47565b6005820160006101000a81549060ff021916905550506116d86123bf565b5b5b5b505050505050565b6000807fbd21b19d8cf926bda1233d510b187b736a1511d6ea3ecb5758b69f58b71d619e90508091505090565b6000807f1c2ba469bf3fce83211eff010708567fbeeae896c0a247fceb689567699266ec90508091505090565b6000600860040160009054906101000a900473ffffffffffffffffffffffffffffffffffffffff1673ffffffffffffffffffffffffffffffffffffffff16634000aea0600860000160009054906101000a900473ffffffffffffffffffffffffffffffffffffffff16848660006040516020016117bb9291906147aa565b6040516020818303038152906040526040518463ffffffff1660e01b81526004016117e89392919061471a565b602060405180830381600087803b15801561180257600080fd5b505af1158015611816573d6000803e3d6000fd5b505050506040513d601f19601f8201168201806040525081019061183a91906140c2565b506000611860846000306008600601600089815260200190815260200160002054612460565b9050600160086006016000868152602001908152602001600020546118859190614b5d565b600860060160008681526020019081526020016000208190555060006118ab858361249c565b9050505092915050565b6118bd613d16565b6118c5613d16565b60005b600881101561198857600781815481106118e5576118e4614f90565b5b90600052602060002090600491828204019190066008029054906101000a900467ffffffffffffffff1667ffffffffffffffff16848260405160200161192c929190614a33565b6040516020818303038152906040528051906020012060001c61194f9190614ea3565b82826008811061196257611961614f90565b5b602002019061ffff16908161ffff1681525050808061198090614deb565b9150506118c8565b5080915050919050565b61199a613d4e565b8360126000019060086119ae929190613da1565b508260126001019060086119c3929190613da1565b5081601260050160006101000a81548160ff02191690831515021790555060126040518060c001604052908160008201600880602002604051908101604052809291908260088015611a52576020028201916000905b82829054906101000a900461ffff1661ffff1681526020019060020190602082600101049283019260010382029150808411611a195790505b5050505050815260200160018201600880602002604051908101604052809291908260088015611abf576020028201916000905b82829054906101000a900461ffff1661ffff1681526020019060020190602082600101049283019260010382029150808411611a865790505b5050505050815260200160028201600280602002604051908101604052809291908260028015611b2a576020028201916000905b82829054906101000a900460ff1660ff1681526020019060010190602082600001049283019260010382029150808411611af35790505b505050505081526020016003820160009054906101000a900460ff1660ff1660ff16815260200160048201600380602002604051908101604052809291908260038015611bb2576020028201916000905b82829054906101000a900460ff1660ff1681526020019060010190602082600001049283019260010382029150808411611b7b5790505b505050505081526020016005820160009054906101000a900460ff16151515158152505090509392505050565b60006008826020015150600814611bf557600080fd5b7f30ac06c3175d29725e284637cb9691f6975bfd75c28f7f552e66563977cac68d8260000151604051611c28919061478e565b60405180910390a1611c39826124cf565b9150611c4482612740565b9150611c4f82612bb5565b91507f556f3838b96a3ed57ea8c6e614c3349ada0231b9c478a5f37478a627bb65e028604051806060016040528084600001518560800151600060038110611c9a57611c99614f90565b5b602002015160ff1660088110611cb357611cb2614f90565b5b602002015161ffff1661ffff16815260200184600001518560800151600160038110611ce257611ce1614f90565b5b602002015160ff1660088110611cfb57611cfa614f90565b5b602002015161ffff1661ffff16815260200184600001518560800151600260038110611d2a57611d29614f90565b5b602002015160ff1660088110611d4357611d42614f90565b5b602002015161ffff1661ffff16815250604051611d609190614773565b60405180910390a1611d7182612e43565b7fbb51888c41405dffbec1fcc2dbda08dd1e43b3d9211de8e235921676cceba1e382600001518360800151600060038110611daf57611dae614f90565b5b602002015160ff1660088110611dc857611dc7614f90565b5b6020020151604051611dda9190614990565b60405180910390a181600001518260800151600060038110611dff57611dfe614f90565b5b602002015160ff1660088110611e1857611e17614f90565b5b60200201519050919050565b6000605f606483611e359190614bea565b611e3f9190614c4c565b9050919050565b60006005606483611e579190614bea565b611e619190614c4c565b9050919050565b6000611e7384612e6a565b73ffffffffffffffffffffffffffffffffffffffff166108fc849081150290604051600060405180830381858888f19350505050158015611eb8573d6000803e3d6000fd5b50601860009054906101000a900473ffffffffffffffffffffffffffffffffffffffff1673ffffffffffffffffffffffffffffffffffffffff166108fc839081150290604051600060405180830381858888f19350505050158015611f21573d6000803e3d6000fd5b506000600381905550600190509392505050565b60006008826020015150600814611f4b57600080fd5b7f5cc59dcf45d0ffe822cc2d2ddecc363640094be98218bf9bda4ab082ca4942fb8260000151604051611f7e919061478e565b60405180910390a1611f8f826124cf565b9150611f9a82612740565b9150611fa582612bb5565b91507f556f3838b96a3ed57ea8c6e614c3349ada0231b9c478a5f37478a627bb65e028604051806060016040528084600001518560800151600060038110611ff057611fef614f90565b5b602002015160ff166008811061200957612008614f90565b5b602002015161ffff1661ffff1681526020018460000151856080015160016003811061203857612037614f90565b5b602002015160ff166008811061205157612050614f90565b5b602002015161ffff1661ffff168152602001846000015185608001516002600381106120805761207f614f90565b5b602002015160ff166008811061209957612098614f90565b5b602002015161ffff1661ffff168152506040516120b69190614773565b60405180910390a16120c782612f2c565b7fa623ca69cf849dca2d694b88e0bddd381352f2969d41f7dda7871c3d230847708260000151836080015160006003811061210557612104614f90565b5b602002015160ff166008811061211e5761211d614f90565b5b60200201516040516121309190614990565b60405180910390a18160000151826080015160006003811061215557612154614f90565b5b602002015160ff166008811061216e5761216d614f90565b5b60200201519050919050565b6000600882602001515060081461219057600080fd5b7fda9fbb5433d3af0d13194d6e235811b2ac98662cd69d6bde9ec9435aadf3309082600001516040516121c3919061478e565b60405180910390a16121d4826124cf565b91506121df82612740565b91506121ea82612bb5565b91507f556f3838b96a3ed57ea8c6e614c3349ada0231b9c478a5f37478a627bb65e02860405180606001604052808460000151856080015160006003811061223557612234614f90565b5b602002015160ff166008811061224e5761224d614f90565b5b602002015161ffff1661ffff1681526020018460000151856080015160016003811061227d5761227c614f90565b5b602002015160ff166008811061229657612295614f90565b5b602002015161ffff1661ffff168152602001846000015185608001516002600381106122c5576122c4614f90565b5b602002015160ff16600881106122de576122dd614f90565b5b602002015161ffff1661ffff168152506040516122fb9190614773565b60405180910390a161230c82612f53565b7f9ee531b4c9f9dd0ac16f44db9a3cb7695fe808db74bd6742920b21a434c852808260000151836080015160006003811061234a57612349614f90565b5b602002015160ff166008811061236357612362614f90565b5b60200201516040516123759190614990565b60405180910390a18160000151826080015160006003811061239a57612399614f90565b5b602002015160ff16600881106123b3576123b2614f90565b5b60200201519050919050565b60006123c9611710565b90508060000160009054906101000a900473ffffffffffffffffffffffffffffffffffffffff1673ffffffffffffffffffffffffffffffffffffffff1663a22cb4653060006040518363ffffffff1660e01b815260040161242b92919061469f565b600060405180830381600087803b15801561244557600080fd5b505af1158015612459573d6000803e3d6000fd5b5050505050565b60008484848460405160200161247994939291906147d3565b6040516020818303038152906040528051906020012060001c9050949350505050565b600082826040516020016124b1929190614621565b60405160208183030381529060405280519060200120905092915050565b6124d7613d4e565b60028260200151506008146124eb57600080fd5b6008826020015160006008811061250557612504614f90565b5b60200201516125149190614e72565b826040015160006002811061252c5761252b614f90565b5b602002019060ff16908160ff16815250506008826020015160016008811061255757612556614f90565b5b60200201516125669190614e72565b826040015160016002811061257e5761257d614f90565b5b602002019060ff16908160ff16815250505b81604001516001600281106125a8576125a7614f90565b5b602002015160ff1682604001516000600281106125c8576125c7614f90565b5b602002015160ff1614156126695760006125fd83604001516000600281106125f3576125f2614f90565b5b6020020151612f7a565b905080612663576007836020015160036008811061261e5761261d614f90565b5b602002015161262d9190614e72565b60006126399190614bb3565b836040015160006002811061265157612650614f90565b5b602002019060ff16908160ff16815250505b50612590565b7fd9dcfc5cbe089f518aff1babf0aee6928da985104f2026b8ad145190cce552ef6040518060400160405280846000015185604001516000600281106126b2576126b1614f90565b5b602002015160ff16600881106126cb576126ca614f90565b5b602002015161ffff1661ffff168152602001846000015185604001516001600281106126fa576126f9614f90565b5b602002015160ff166008811061271357612712614f90565b5b602002015161ffff1661ffff168152506040516127309190614758565b60405180910390a1819050919050565b612748613d4e565b6000806002846020015160046008811061276557612764614f90565b5b60200201516127749190614e72565b61ffff16146127a257826040015160016002811061279557612794614f90565b5b60200201519050806127c3565b82604001516000600281106127ba576127b9614f90565b5b60200201519050805b5082604001516000600281106127dc576127db614f90565b5b602002015160ff168160ff1614156129cf577f553875a05605845d3c0472fc96b9aeadc5f68b4d29d75fb80cdb82e6d3d7984c8360000151846040015160006002811061282c5761282b614f90565b5b602002015160ff166008811061284557612844614f90565b5b60200201516040516128579190614990565b60405180910390a1826040015160006002811061287757612876614f90565b5b6020020151836060019060ff16908160ff16815250508260a00151612915577f58cf999f6795f5857eb2b3dc340e321768493fff3f14c70b6fdccfb57dae7ae4836000015184604001516001600281106128d4576128d3614f90565b5b602002015160ff16600881106128ed576128ec614f90565b5b60200201516040516128ff9190614990565b60405180910390a161291083612fad565b6129ca565b6129588360000151846040015160016002811061293557612934614f90565b5b602002015160ff166008811061294e5761294d614f90565b5b6020020151613159565b7fc98f482e8d4bd36b9d5e73a0ae52c1087fcbb72dff56af788ffd1846bb422b8a8360000151846040015160016002811061299657612995614f90565b5b602002015160ff16600881106129af576129ae614f90565b5b60200201516040516129c19190614990565b60405180910390a15b612bac565b82604001516001600281106129e7576129e6614f90565b5b6020020151836060019060ff16908160ff16815250507f553875a05605845d3c0472fc96b9aeadc5f68b4d29d75fb80cdb82e6d3d7984c83600001518460400151600160028110612a3b57612a3a614f90565b5b602002015160ff1660088110612a5457612a53614f90565b5b6020020151604051612a669190614990565b60405180910390a18260a00151612af657612a8083612fad565b7f58cf999f6795f5857eb2b3dc340e321768493fff3f14c70b6fdccfb57dae7ae483600001518460400151600060028110612abe57612abd614f90565b5b602002015160ff1660088110612ad757612ad6614f90565b5b6020020151604051612ae99190614990565b60405180910390a1612bab565b612b3983600001518460400151600060028110612b1657612b15614f90565b5b602002015160ff1660088110612b2f57612b2e614f90565b5b6020020151613159565b7fc98f482e8d4bd36b9d5e73a0ae52c1087fcbb72dff56af788ffd1846bb422b8a83600001518460400151600060028110612b7757612b76614f90565b5b602002015160ff1660088110612b9057612b8f614f90565b5b6020020151604051612ba29190614990565b60405180910390a15b5b82915050919050565b612bbd613d4e565b6008826020015150600814612bd157600080fd5b612bd9613d16565b6000612be3611710565b60000160009054906101000a900473ffffffffffffffffffffffffffffffffffffffff16905060005b60088160ff161015612cfb578173ffffffffffffffffffffffffffffffffffffffff16638bffef6286600001518360ff1660088110612c4e57612c4d614f90565b5b60200201516040518263ffffffff1660e01b8152600401612c6f9190614990565b60206040518083038186803b158015612c8757600080fd5b505afa158015612c9b573d6000803e3d6000fd5b505050506040513d601f19601f82011682018060405250810190612cbf919061415c565b838260ff1660088110612cd557612cd4614f90565b5b602002019061ffff16908161ffff16815250508080612cf390614e34565b915050612c0c565b506000612d06613e3e565b612d0e613e61565b6000612d186116e3565b60000160009054906101000a900463ffffffff1690505b60088460ff161015612e1f57600588602001518560ff1660088110612d5757612d56614f90565b5b6020020151612d669190614e72565b838560ff1660088110612d7c57612d7b614f90565b5b602002019060ff16908160ff1681525050828460ff1660088110612da357612da2614f90565b5b602002015160ff16868560ff1660088110612dc157612dc0614f90565b5b6020020151612dd09190614b25565b61ffff1681612ddf9190614c1b565b828560ff1660088110612df557612df4614f90565b5b602002019063ffffffff16908163ffffffff16815250508380612e1790614e34565b945050612d2f565b612e2d886040015183613205565b8860800181905250879650505050505050919050565b612e4c81613562565b612e55816136a0565b612e5e8161381a565b612e6781613977565b50565b600080612e75611710565b90508060000160009054906101000a900473ffffffffffffffffffffffffffffffffffffffff1673ffffffffffffffffffffffffffffffffffffffff16636352211e846040518263ffffffff1660e01b8152600401612ed491906149ab565b60206040518083038186803b158015612eec57600080fd5b505afa158015612f00573d6000803e3d6000fd5b505050506040513d601f19601f82011682018060405250810190612f24919061400d565b915050919050565b612f3581613b16565b612f3e816136a0565b612f478161381a565b612f5081613977565b50565b612f5c81613b16565b612f65816136a0565b612f6e8161381a565b612f7781613977565b50565b600060088260ff16108015612f93575060008260ff1610155b612fa1576000905080612fa7565b60019050805b50919050565b6000612fb7611710565b60000160009054906101000a900473ffffffffffffffffffffffffffffffffffffffff16905060008260400151600060028110612ff757612ff6614f90565b5b602002015160ff16836060015160ff161461301657600090508061301c565b60019050805b50600061304684600001518360ff166008811061303c5761303b614f90565b5b6020020151613c54565b905060008161305a5761a8c0905080613061565b6154609050805b5060008473ffffffffffffffffffffffffffffffffffffffff1663a57ce66187600001518660ff166008811061309a57613099614f90565b5b6020020151846040518363ffffffff1660e01b81526004016130bd9291906149c6565b602060405180830381600087803b1580156130d757600080fd5b505af11580156130eb573d6000803e3d6000fd5b505050506040513d601f19601f8201168201806040525081019061310f91906140c2565b905080613151576040517f08c379a000000000000000000000000000000000000000000000000000000000815260040161314890614970565b60405180910390fd5b505050505050565b6000613163611710565b90508060000160009054906101000a900473ffffffffffffffffffffffffffffffffffffffff1673ffffffffffffffffffffffffffffffffffffffff166342842e0e6131ae84612e6a565b6000856040518463ffffffff1660e01b81526004016131cf93929190614668565b600060405180830381600087803b1580156131e957600080fd5b505af11580156131fd573d6000803e3d6000fd5b505050505050565b61320d613e84565b6000614e2090506000806000613221613e84565b60005b60088160ff161015613304578860006002811061324457613243614f90565b5b602002015160ff168160ff1614158061327b57508860016002811061326c5761326b614f90565b5b602002015160ff168160ff1614155b156132f1578561ffff16888260ff166008811061329b5761329a614f90565b5b602002015163ffffffff1610156132f057878160ff16600881106132c2576132c1614f90565b5b6020020151955080826000600381106132de576132dd614f90565b5b602002019060ff16908160ff16815250505b5b80806132fc90614e34565b915050613224565b614e209550600090505b60088160ff161015613417578860006002811061332e5761332d614f90565b5b602002015160ff168160ff1614158061336557508860016002811061335657613355614f90565b5b602002015160ff168160ff1614155b8061338e57508160006003811061337f5761337e614f90565b5b602002015160ff168160ff1614155b15613404578561ffff16888260ff16600881106133ae576133ad614f90565b5b602002015163ffffffff16101561340357878160ff16600881106133d5576133d4614f90565b5b6020020151955080826001600381106133f1576133f0614f90565b5b602002019060ff16908160ff16815250505b5b808061340f90614e34565b91505061330e565b614e209550600090505b60088160ff161015613553578860006002811061344157613440614f90565b5b602002015160ff168160ff1614158061347857508860016002811061346957613468614f90565b5b602002015160ff168160ff1614155b806134a157508160006003811061349257613491614f90565b5b602002015160ff168160ff1614155b806134ca5750816002600381106134bb576134ba614f90565b5b602002015160ff168160ff1614155b15613540578561ffff16888260ff16600881106134ea576134e9614f90565b5b602002015163ffffffff16101561353f57878160ff166008811061351157613510614f90565b5b60200201519550808260026003811061352d5761352c614f90565b5b602002019060ff16908160ff16815250505b5b808061354b90614e34565b915050613421565b81965050505050505092915050565b600061356c611710565b60000160009054906101000a900473ffffffffffffffffffffffffffffffffffffffff16905060008173ffffffffffffffffffffffffffffffffffffffff16637e442efa846000015185608001516000600381106135cd576135cc614f90565b5b602002015160ff16600881106135e6576135e5614f90565b5b60200201516040518263ffffffff1660e01b81526004016136079190614990565b602060405180830381600087803b15801561362157600080fd5b505af1158015613635573d6000803e3d6000fd5b505050506040513d601f19601f8201168201806040525081019061365991906140c2565b90508061369b576040517f08c379a000000000000000000000000000000000000000000000000000000000815260040161369290614970565b60405180910390fd5b505050565b60006001600383602001516007600881106136be576136bd614f90565b5b60200201516136cd9190614e72565b6136d79190614bb3565b905060006136e3611710565b60000160009054906101000a900473ffffffffffffffffffffffffffffffffffffffff16905060008173ffffffffffffffffffffffffffffffffffffffff1663bb5553448560000151866080015160006003811061374457613743614f90565b5b602002015160ff166008811061375d5761375c614f90565b5b6020020151856040518363ffffffff1660e01b81526004016137809291906149ef565b602060405180830381600087803b15801561379a57600080fd5b505af11580156137ae573d6000803e3d6000fd5b505050506040513d601f19601f820116820180604052508101906137d291906140c2565b905080613814576040517f08c379a000000000000000000000000000000000000000000000000000000000815260040161380b90614970565b60405180910390fd5b50505050565b6000613824611710565b60000160009054906101000a900473ffffffffffffffffffffffffffffffffffffffff16905060005b60038110156139725760008273ffffffffffffffffffffffffffffffffffffffff16630c7c97078560000151866080015185600381106138905761388f614f90565b5b602002015160ff16600881106138a9576138a8614f90565b5b60200201516040518263ffffffff1660e01b81526004016138ca9190614990565b602060405180830381600087803b1580156138e457600080fd5b505af11580156138f8573d6000803e3d6000fd5b505050506040513d601f19601f8201168201806040525081019061391c91906140c2565b90508061395e576040517f08c379a000000000000000000000000000000000000000000000000000000000815260040161395590614970565b60405180910390fd5b50808061396a90614deb565b91505061384d565b505050565b600060016003836020015160046008811061399557613994614f90565b5b60200201516139a49190614e72565b6139ae9190614bb3565b905060006139ba611710565b60000160009054906101000a900473ffffffffffffffffffffffffffffffffffffffff169050600083604001516000600281106139fa576139f9614f90565b5b602002015160ff16846060015160ff1614613a19576001905080613a1f565b60009050805b5060008273ffffffffffffffffffffffffffffffffffffffff1663b4dd385e86600001518460ff1660088110613a5857613a57614f90565b5b6020020151866040518363ffffffff1660e01b8152600401613a7b9291906149ef565b602060405180830381600087803b158015613a9557600080fd5b505af1158015613aa9573d6000803e3d6000fd5b505050506040513d601f19601f82011682018060405250810190613acd91906140c2565b905080613b0f576040517f08c379a0000000000000000000000000000000000000000000000000000000008152600401613b0690614970565b60405180910390fd5b5050505050565b6000613b20611710565b60000160009054906101000a900473ffffffffffffffffffffffffffffffffffffffff16905060008173ffffffffffffffffffffffffffffffffffffffff16639d7182ee84600001518560800151600060038110613b8157613b80614f90565b5b602002015160ff1660088110613b9a57613b99614f90565b5b60200201516040518263ffffffff1660e01b8152600401613bbb9190614990565b602060405180830381600087803b158015613bd557600080fd5b505af1158015613be9573d6000803e3d6000fd5b505050506040513d601f19601f82011682018060405250810190613c0d91906140c2565b905080613c4f576040517f08c379a0000000000000000000000000000000000000000000000000000000008152600401613c4690614970565b60405180910390fd5b505050565b600080613c5f611710565b90508060000160009054906101000a900473ffffffffffffffffffffffffffffffffffffffff1673ffffffffffffffffffffffffffffffffffffffff166395d76d9d846040518263ffffffff1660e01b8152600401613cbe9190614990565b60206040518083038186803b158015613cd657600080fd5b505afa158015613cea573d6000803e3d6000fd5b505050506040513d601f19601f82011682018060405250810190613d0e91906140c2565b915050919050565b604051806101000160405280600890602082028036833780820191505090505090565b5060009055565b5060009055565b5060009055565b6040518060c00160405280613d61613d16565b8152602001613d6e613d16565b8152602001613d7b613ea6565b8152602001600060ff168152602001613d92613e84565b81526020016000151581525090565b826008600f01601090048101928215613e2d5791602002820160005b83821115613dfd57835183826101000a81548161ffff021916908361ffff1602179055509260200192600201602081600101049283019260010302613dbd565b8015613e2b5782816101000a81549061ffff0219169055600201602081600101049283019260010302613dfd565b505b509050613e3a9190613ec8565b5090565b604051806101000160405280600890602082028036833780820191505090505090565b604051806101000160405280600890602082028036833780820191505090505090565b6040518060600160405280600390602082028036833780820191505090505090565b6040518060400160405280600290602082028036833780820191505090505090565b5b80821115613ee1576000816000905550600101613ec9565b5090565b600081359050613ef4816151ba565b92915050565b600081519050613f09816151ba565b92915050565b600081519050613f1e816151d1565b92915050565b600081359050613f33816151e8565b92915050565b60008083601f840112613f4f57613f4e614fc4565b5b8235905067ffffffffffffffff811115613f6c57613f6b614fbf565b5b602083019150836001820283011115613f8857613f87614fc9565b5b9250929050565b600081359050613f9e816151ff565b92915050565b600081519050613fb3816151ff565b92915050565b600081359050613fc881615216565b92915050565b600081519050613fdd81615216565b92915050565b600081519050613ff28161522d565b92915050565b60008135905061400781615244565b92915050565b60006020828403121561402357614022614fd3565b5b600061403184828501613efa565b91505092915050565b60008060008060006080868803121561405657614055614fd3565b5b600061406488828901613ee5565b955050602061407588828901613ee5565b945050604061408688828901613fb9565b935050606086013567ffffffffffffffff8111156140a7576140a6614fce565b5b6140b388828901613f39565b92509250509295509295909350565b6000602082840312156140d8576140d7614fd3565b5b60006140e684828501613f0f565b91505092915050565b6000806040838503121561410657614105614fd3565b5b600061411485828601613f24565b925050602061412585828601613fb9565b9150509250929050565b60006020828403121561414557614144614fd3565b5b600061415384828501613f8f565b91505092915050565b60006020828403121561417257614171614fd3565b5b600061418084828501613fa4565b91505092915050565b60006020828403121561419f5761419e614fd3565b5b60006141ad84828501613fb9565b91505092915050565b6000602082840312156141cc576141cb614fd3565b5b60006141da84828501613fce565b91505092915050565b6000602082840312156141f9576141f8614fd3565b5b600061420784828501613fe3565b91505092915050565b60006020828403121561422657614225614fd3565b5b600061423484828501613ff8565b91505092915050565b600061424983836145b0565b60208301905092915050565b61425e81614ca6565b82525050565b61426d81614a8f565b6142778184614ae2565b925061428282614a5c565b8060005b838110156142b357815161429a878261423d565b96506142a583614abb565b925050600181019050614286565b505050505050565b6142c481614a9a565b6142ce8184614aed565b92506142d982614a66565b8060005b8381101561430a5781516142f1878261423d565b96506142fc83614ac8565b9250506001810190506142dd565b505050505050565b61431b81614aa5565b6143258184614af8565b925061433082614a70565b8060005b83811015614361578151614348878261423d565b965061435383614ad5565b925050600181019050614334565b505050505050565b61437281614cb8565b82525050565b61438181614cc4565b82525050565b61439861439382614cc4565b614e5e565b82525050565b6143a781614cce565b82525050565b60006143b882614ab0565b6143c28185614b03565b93506143d2818560208601614d86565b6143db81614fd8565b840191505092915050565b6143ef81614d62565b82525050565b6000815461440281614db9565b61440c8186614b14565b9450600182166000811461442757600181146144395761446c565b60ff198316865260208601935061446c565b61444285614a7a565b60005b8381101561446457815481890152600182019150602081019050614445565b808801955050505b50505092915050565b6000614482601e83614b14565b915061448d82614fe9565b602082019050919050565b60006144a5601d83614b14565b91506144b082615012565b602082019050919050565b60006144c8602683614b14565b91506144d38261503b565b604082019050919050565b60006144eb601a83614b14565b91506144f68261508a565b602082019050919050565b600061450e601f83614b14565b9150614519826150b3565b602082019050919050565b6000614531601e83614b14565b915061453c826150dc565b602082019050919050565b6000614554601783614b14565b915061455f82615105565b602082019050919050565b6000614577602e83614b14565b91506145828261512e565b604082019050919050565b600061459a600583614b14565b91506145a58261517d565b602082019050919050565b6145b981614d0d565b82525050565b6145c881614d0d565b82525050565b6145d781614d74565b82525050565b6145e681614d3b565b82525050565b6145fd6145f882614d3b565b614e68565b82525050565b61460c81614d45565b82525050565b61461b81614d55565b82525050565b600061462d8285614387565b60208201915061463d82846145ec565b6020820191508190509392505050565b60006020820190506146626000830184614255565b92915050565b600060608201905061467d6000830186614255565b61468a6020830185614255565b61469760408301846145ce565b949350505050565b60006040820190506146b46000830185614255565b6146c16020830184614369565b9392505050565b60006040820190506146dd6000830185614255565b6146ea60208301846145ce565b9392505050565b60006040820190506147066000830185614255565b61471360208301846145dd565b9392505050565b600060608201905061472f6000830186614255565b61473c60208301856145dd565b818103604083015261474e81846143ad565b9050949350505050565b600060408201905061476d6000830184614264565b92915050565b600060608201905061478860008301846142bb565b92915050565b6000610100820190506147a46000830184614312565b92915050565b60006040820190506147bf6000830185614378565b6147cc60208301846145dd565b9392505050565b60006080820190506147e86000830187614378565b6147f560208301866145dd565b6148026040830185614255565b61480f60608301846145dd565b95945050505050565b600060208201905061482d600083018461439e565b92915050565b600060208201905061484860008301846143e6565b92915050565b6000602082019050818103600083015261486881846143f5565b905092915050565b6000602082019050818103600083015261488981614475565b9050919050565b600060208201905081810360008301526148a981614498565b9050919050565b600060208201905081810360008301526148c9816144bb565b9050919050565b600060208201905081810360008301526148e9816144de565b9050919050565b6000602082019050818103600083015261490981614501565b9050919050565b6000602082019050818103600083015261492981614524565b9050919050565b6000602082019050818103600083015261494981614547565b9050919050565b600060208201905081810360008301526149698161456a565b9050919050565b600060208201905081810360008301526149898161458d565b9050919050565b60006020820190506149a560008301846145bf565b92915050565b60006020820190506149c060008301846145ce565b92915050565b60006040820190506149db60008301856145bf565b6149e86020830184614603565b9392505050565b6000604082019050614a0460008301856145bf565b614a116020830184614612565b9392505050565b6000602082019050614a2d60008301846145dd565b92915050565b6000604082019050614a4860008301856145dd565b614a5560208301846145dd565b9392505050565b6000819050919050565b6000819050919050565b6000819050919050565b60008190508160005260206000209050919050565b600060029050919050565b600060039050919050565b600060089050919050565b600081519050919050565b6000602082019050919050565b6000602082019050919050565b6000602082019050919050565b600081905092915050565b600081905092915050565b600081905092915050565b600082825260208201905092915050565b600082825260208201905092915050565b6000614b3082614d0d565b9150614b3b83614d0d565b92508261ffff03821115614b5257614b51614ed4565b5b828201905092915050565b6000614b6882614d3b565b9150614b7383614d3b565b9250827fffffffffffffffffffffffffffffffffffffffffffffffffffffffffffffffff03821115614ba857614ba7614ed4565b5b828201905092915050565b6000614bbe82614d55565b9150614bc983614d55565b92508260ff03821115614bdf57614bde614ed4565b5b828201905092915050565b6000614bf582614d3b565b9150614c0083614d3b565b925082614c1057614c0f614f03565b5b828204905092915050565b6000614c2682614d45565b9150614c3183614d45565b925082614c4157614c40614f03565b5b828204905092915050565b6000614c5782614d3b565b9150614c6283614d3b565b9250817fffffffffffffffffffffffffffffffffffffffffffffffffffffffffffffffff0483118215151615614c9b57614c9a614ed4565b5b828202905092915050565b6000614cb182614d1b565b9050919050565b60008115159050919050565b6000819050919050565b60007fffffffff0000000000000000000000000000000000000000000000000000000082169050919050565b6000819050614d08826151a6565b919050565b600061ffff82169050919050565b600073ffffffffffffffffffffffffffffffffffffffff82169050919050565b6000819050919050565b600063ffffffff82169050919050565b600060ff82169050919050565b6000614d6d82614cfa565b9050919050565b6000614d7f82614d0d565b9050919050565b60005b83811015614da4578082015181840152602081019050614d89565b83811115614db3576000848401525b50505050565b60006002820490506001821680614dd157607f821691505b60208210811415614de557614de4614f61565b5b50919050565b6000614df682614d3b565b91507fffffffffffffffffffffffffffffffffffffffffffffffffffffffffffffffff821415614e2957614e28614ed4565b5b600182019050919050565b6000614e3f82614d55565b915060ff821415614e5357614e52614ed4565b5b600182019050919050565b6000819050919050565b6000819050919050565b6000614e7d82614d0d565b9150614e8883614d0d565b925082614e9857614e97614f03565b5b828206905092915050565b6000614eae82614d3b565b9150614eb983614d3b565b925082614ec957614ec8614f03565b5b828206905092915050565b7f4e487b7100000000000000000000000000000000000000000000000000000000600052601160045260246000fd5b7f4e487b7100000000000000000000000000000000000000000000000000000000600052601260045260246000fd5b7f4e487b7100000000000000000000000000000000000000000000000000000000600052602160045260246000fd5b7f4e487b7100000000000000000000000000000000000000000000000000000000600052602260045260246000fd5b7f4e487b7100000000000000000000000000000000000000000000000000000000600052603260045260246000fd5b600080fd5b600080fd5b600080fd5b600080fd5b600080fd5b6000601f19601f8301169050919050565b7f596f752063616e206e6f742063616c6c20746869732066756e6374696f6e0000600082015250565b7f596f752063616e206e6f74206a6f696e20617420746869732074696d65000000600082015250565b7f596f757220726170746f72206973206e6f7420617661696c61626c652072696760008201527f6874206e6f770000000000000000000000000000000000000000000000000000602082015250565b7f596f7520646f206e6f74206f776e207468697320726170746f72000000000000600082015250565b7f4f6e6c7920565246436f6f7264696e61746f722063616e2066756c66696c6c00600082015250565b7f596f752068617665206e6f742073656e7420656e6f7567682066756e64730000600082015250565b7f4e6f7420656e6f756768204c494e4b2062616c616e6365000000000000000000600082015250565b7f546869732072616365207175657565206973206e6f7420617661696c61626c6560008201527f20617420746865206d6f6d656e74000000000000000000000000000000000000602082015250565b7f4572726f72000000000000000000000000000000000000000000000000000000600082015250565b600481106151b7576151b6614f32565b5b50565b6151c381614ca6565b81146151ce57600080fd5b50565b6151da81614cb8565b81146151e557600080fd5b50565b6151f181614cc4565b81146151fc57600080fd5b50565b61520881614d0d565b811461521357600080fd5b50565b61521f81614d3b565b811461522a57600080fd5b50565b61523681614d45565b811461524157600080fd5b50565b61524d81614d55565b811461525857600080fd5b5056fea2646970667358221220fd825a6045fcbda839edc4bd906906a4abc57a09dece531f5411d117cf97c15e64736f6c63430008070033",
  "linkReferences": {},
  "deployedLinkReferences": {}
}