{
  "_format": "hh-sol-artifact-1",
  "contractName": "Game",
  "sourceName": "contracts/game.sol",
  "abi": [
    {
      "inputs": [
        {
          "internalType": "address",
          "name": "_minterContract",
          "type": "address"
        },
        {
          "internalType": "address",
          "name": "_communityWallet",
          "type": "address"
        },
        {
          "internalType": "uint256",
          "name": "_Fee",
          "type": "uint256"
        },
        {
          "internalType": "address",
          "name": "_vrfCoordinator",
          "type": "address"
        },
        {
          "internalType": "address",
          "name": "_linkToken",
          "type": "address"
        },
        {
          "internalType": "bytes32",
          "name": "_keyHash",
          "type": "bytes32"
        },
        {
          "internalType": "uint256",
          "name": "_OracleFee",
          "type": "uint256"
        },
        {
          "internalType": "uint32",
          "name": "_distance",
          "type": "uint32"
        }
      ],
      "stateMutability": "nonpayable",
      "type": "constructor"
    },
    {
      "anonymous": false,
      "inputs": [],
      "name": "CompRandomRequested",
      "type": "event"
    },
    {
      "anonymous": false,
      "inputs": [],
      "name": "DRRandomRequested",
      "type": "event"
    },
    {
      "anonymous": false,
      "inputs": [
        {
          "indexed": false,
          "internalType": "address",
          "name": "admin",
          "type": "address"
        }
      ],
      "name": "NewAdmin",
      "type": "event"
    },
    {
      "anonymous": false,
      "inputs": [],
      "name": "QPRandomRequested",
      "type": "event"
    },
    {
      "anonymous": false,
      "inputs": [
        {
          "indexed": false,
          "internalType": "string",
          "name": "raceType",
          "type": "string"
        }
      ],
      "name": "RaceChosen",
      "type": "event"
    },
    {
      "anonymous": false,
      "inputs": [
        {
          "indexed": false,
          "internalType": "uint16",
          "name": "raptor",
          "type": "uint16"
        },
        {
          "components": [
            {
              "internalType": "uint16",
              "name": "speed",
              "type": "uint16"
            },
            {
              "internalType": "uint16",
              "name": "strength",
              "type": "uint16"
            },
            {
              "internalType": "uint16",
              "name": "fightsWon",
              "type": "uint16"
            },
            {
              "internalType": "uint16",
              "name": "quickPlayRacesWon",
              "type": "uint16"
            },
            {
              "internalType": "uint16",
              "name": "compRacesWon",
              "type": "uint16"
            },
            {
              "internalType": "uint16",
              "name": "deathRacesWon",
              "type": "uint16"
            },
            {
              "internalType": "uint16",
              "name": "totalRacesTop3Finish",
              "type": "uint16"
            },
            {
              "internalType": "uint32",
              "name": "cooldownTime",
              "type": "uint32"
            }
          ],
          "indexed": false,
          "internalType": "struct Stats",
          "name": "stats",
          "type": "tuple"
        }
      ],
      "name": "UpdatedStats",
      "type": "event"
    },
    {
      "inputs": [],
      "name": "CompFee",
      "outputs": [
        {
          "internalType": "uint256",
          "name": "",
          "type": "uint256"
        }
      ],
      "stateMutability": "view",
      "type": "function"
    },
    {
      "inputs": [],
      "name": "DRFee",
      "outputs": [
        {
          "internalType": "uint256",
          "name": "",
          "type": "uint256"
        }
      ],
      "stateMutability": "view",
      "type": "function"
    },
    {
      "inputs": [],
      "name": "QPFee",
      "outputs": [
        {
          "internalType": "uint256",
          "name": "",
          "type": "uint256"
        }
      ],
      "stateMutability": "view",
      "type": "function"
    },
    {
      "inputs": [],
      "name": "currentRace",
      "outputs": [
        {
          "internalType": "enum Game.CurrentRace",
          "name": "",
          "type": "uint8"
        }
      ],
      "stateMutability": "view",
      "type": "function"
    },
    {
      "inputs": [
        {
          "internalType": "uint256",
          "name": "",
          "type": "uint256"
        }
      ],
      "name": "currentRaptors",
      "outputs": [
        {
          "internalType": "uint16",
          "name": "",
          "type": "uint16"
        }
      ],
      "stateMutability": "view",
      "type": "function"
    },
    {
      "inputs": [
        {
          "internalType": "uint16",
          "name": "raptor",
          "type": "uint16"
        }
      ],
      "name": "enterRaptorIntoComp",
      "outputs": [],
      "stateMutability": "payable",
      "type": "function"
    },
    {
      "inputs": [
        {
          "internalType": "uint16",
          "name": "raptor",
          "type": "uint16"
        }
      ],
      "name": "enterRaptorIntoDR",
      "outputs": [],
      "stateMutability": "payable",
      "type": "function"
    },
    {
      "inputs": [
        {
          "internalType": "uint16",
          "name": "raptor",
          "type": "uint16"
        }
      ],
      "name": "enterRaptorIntoQuickPlay",
      "outputs": [],
      "stateMutability": "payable",
      "type": "function"
    },
    {
      "inputs": [],
      "name": "getCurrentQueue",
      "outputs": [
        {
          "internalType": "uint16[8]",
          "name": "raptors",
          "type": "uint16[8]"
        }
      ],
      "stateMutability": "view",
      "type": "function"
    },
    {
      "inputs": [
        {
          "internalType": "address",
          "name": "operator",
          "type": "address"
        },
        {
          "internalType": "address",
          "name": "from",
          "type": "address"
        },
        {
          "internalType": "uint256",
          "name": "tokenId",
          "type": "uint256"
        },
        {
          "internalType": "bytes",
          "name": "data",
          "type": "bytes"
        }
      ],
      "name": "onERC721Received",
      "outputs": [
        {
          "internalType": "bytes4",
          "name": "",
          "type": "bytes4"
        }
      ],
      "stateMutability": "pure",
      "type": "function"
    },
    {
      "inputs": [],
      "name": "pot",
      "outputs": [
        {
          "internalType": "uint256",
          "name": "",
          "type": "uint256"
        }
      ],
      "stateMutability": "view",
      "type": "function"
    },
    {
      "inputs": [
        {
          "internalType": "uint8",
          "name": "choice",
          "type": "uint8"
        }
      ],
      "name": "raceSelect",
      "outputs": [],
      "stateMutability": "nonpayable",
      "type": "function"
    },
    {
      "inputs": [
        {
          "internalType": "bytes32",
          "name": "requestId",
          "type": "bytes32"
        },
        {
          "internalType": "uint256",
          "name": "randomness",
          "type": "uint256"
        }
      ],
      "name": "rawFulfillRandomness",
      "outputs": [],
      "stateMutability": "nonpayable",
      "type": "function"
    },
    {
      "inputs": [],
      "name": "withdrawLink",
      "outputs": [],
      "stateMutability": "nonpayable",
      "type": "function"
    }
  ],
  "bytecode": "0x60c06040526040518061010001604052806119db61ffff168152602001611a3f61ffff168152602001611c8d61ffff168152602001611ce161ffff168152602001611ead61ffff168152602001611eef61ffff168152602001611e2f61ffff168152602001610c5f61ffff1681525060079060086200008092919062000528565b5060405180608001604052806040518060400160405280600781526020017f5374616e6442790000000000000000000000000000000000000000000000000081525081526020016040518060400160405280600981526020017f517569636b506c6179000000000000000000000000000000000000000000000081525081526020016040518060400160405280600b81526020017f436f6d706574697469766500000000000000000000000000000000000000000081525081526020016040518060400160405280600981526020017f4465617468526163650000000000000000000000000000000000000000000000815250815250601090600462000188929190620005e5565b503480156200019657600080fd5b5060405162005cd338038062005cd38339818101604052810190620001bc9190620007c6565b84848173ffffffffffffffffffffffffffffffffffffffff1660a08173ffffffffffffffffffffffffffffffffffffffff1660601b815250508073ffffffffffffffffffffffffffffffffffffffff1660808173ffffffffffffffffffffffffffffffffffffffff1660601b81525050505062000244816200043060201b62000fcc1760201c565b83600860040160006101000a81548173ffffffffffffffffffffffffffffffffffffffff021916908373ffffffffffffffffffffffffffffffffffffffff16021790555084600860000160006101000a81548173ffffffffffffffffffffffffffffffffffffffff021916908373ffffffffffffffffffffffffffffffffffffffff16021790555083600860010160006101000a81548173ffffffffffffffffffffffffffffffffffffffff021916908373ffffffffffffffffffffffffffffffffffffffff16021790555082600860020181905550816008600301819055506200033a886200046b60201b62000fff1760201c565b6200034a620004c660201b60201c565b600160006101000a81548173ffffffffffffffffffffffffffffffffffffffff021916908373ffffffffffffffffffffffffffffffffffffffff16021790555086601860006101000a81548173ffffffffffffffffffffffffffffffffffffffff021916908373ffffffffffffffffffffffffffffffffffffffff160217905550600060038190555085600481905550600586620003e991906200088f565b600581905550601986620003fe91906200088f565b6006819055506000601860146101000a81548161ffff021916908361ffff160217905550505050505050505062000a49565b600062000442620004ce60201b60201c565b9050818160000160006101000a81548163ffffffff021916908363ffffffff1602179055505050565b60006200047d620004fb60201b60201c565b9050818160000160006101000a81548173ffffffffffffffffffffffffffffffffffffffff021916908373ffffffffffffffffffffffffffffffffffffffff1602179055505050565b600033905090565b6000807fbd21b19d8cf926bda1233d510b187b736a1511d6ea3ecb5758b69f58b71d619e90508091505090565b6000807f1c2ba469bf3fce83211eff010708567fbeeae896c0a247fceb689567699266ec90508091505090565b82805482825590600052602060002090600301600490048101928215620005d25791602002820160005b838211156200059a57835183826101000a81548167ffffffffffffffff021916908361ffff160217905550926020019260080160208160070104928301926001030262000552565b8015620005d05782816101000a81549067ffffffffffffffff02191690556008016020816007010492830192600103026200059a565b505b509050620005e191906200064c565b5090565b82805482825590600052602060002090810192821562000639579160200282015b8281111562000638578251829080519060200190620006279291906200066b565b509160200191906001019062000606565b5b509050620006489190620006fc565b5090565b5b80821115620006675760008160009055506001016200064d565b5090565b828054620006799062000948565b90600052602060002090601f0160209004810192826200069d5760008555620006e9565b82601f10620006b857805160ff1916838001178555620006e9565b82800160010185558215620006e9579182015b82811115620006e8578251825591602001919060010190620006cb565b5b509050620006f891906200064c565b5090565b5b8082111562000720576000818162000716919062000724565b50600101620006fd565b5090565b508054620007329062000948565b6000825580601f1062000746575062000767565b601f0160209004906000526020600020908101906200076691906200064c565b5b50565b6000815190506200077b81620009e1565b92915050565b6000815190506200079281620009fb565b92915050565b600081519050620007a98162000a15565b92915050565b600081519050620007c08162000a2f565b92915050565b600080600080600080600080610100898b031215620007ea57620007e9620009dc565b5b6000620007fa8b828c016200076a565b98505060206200080d8b828c016200076a565b9750506040620008208b828c0162000798565b9650506060620008338b828c016200076a565b9550506080620008468b828c016200076a565b94505060a0620008598b828c0162000781565b93505060c06200086c8b828c0162000798565b92505060e06200087f8b828c01620007af565b9150509295985092959890939650565b60006200089c826200092e565b9150620008a9836200092e565b9250817fffffffffffffffffffffffffffffffffffffffffffffffffffffffffffffffff0483118215151615620008e557620008e46200097e565b5b828202905092915050565b6000620008fd826200090e565b9050919050565b6000819050919050565b600073ffffffffffffffffffffffffffffffffffffffff82169050919050565b6000819050919050565b600063ffffffff82169050919050565b600060028204905060018216806200096157607f821691505b60208210811415620009785762000977620009ad565b5b50919050565b7f4e487b7100000000000000000000000000000000000000000000000000000000600052601160045260246000fd5b7f4e487b7100000000000000000000000000000000000000000000000000000000600052602260045260246000fd5b600080fd5b620009ec81620008f0565b8114620009f857600080fd5b50565b62000a068162000904565b811462000a1257600080fd5b50565b62000a20816200092e565b811462000a2c57600080fd5b50565b62000a3a8162000938565b811462000a4657600080fd5b50565b60805160601c60a05160601c61526462000a6f60003960005050600050506152646000f3fe6080604052600436106100dd5760003560e01c80638dc654a21161007f578063a8aa4d0c11610059578063a8aa4d0c1461025d578063c4fc3b2e14610288578063c7a36bc9146102b3578063e4789a06146102de576100dd565b80638dc654a214610201578063948da4471461021857806394985ddd14610234576100dd565b80632e82967d116100bb5780632e82967d146101575780634ba2363a146101805780634d045e4e146101ab578063547b927f146101d6576100dd565b8063150b7a02146100e2578063173fabeb1461011f5780631e59cd6c1461013b575b600080fd5b3480156100ee57600080fd5b506101096004803603810190610104919061406e565b61031b565b60405161011691906147eb565b60405180910390f35b61013960048036038101906101349190614163565b610322565b005b61015560048036038101906101509190614163565b6105cd565b005b34801561016357600080fd5b5061017e60048036038101906101799190614244565b610878565b005b34801561018c57600080fd5b506101956109c2565b6040516101a291906149eb565b60405180910390f35b3480156101b757600080fd5b506101c06109c8565b6040516101cd9190614761565b60405180910390f35b3480156101e257600080fd5b506101eb610a3b565b6040516101f891906149eb565b60405180910390f35b34801561020d57600080fd5b50610216610a41565b005b610232600480360381019061022d9190614163565b610c33565b005b34801561024057600080fd5b5061025b60048036038101906102569190614123565b610ede565b005b34801561026957600080fd5b50610272610f7f565b60405161027f91906149eb565b60405180910390f35b34801561029457600080fd5b5061029d610f85565b6040516102aa9190614806565b60405180910390f35b3480156102bf57600080fd5b506102c8610f98565b6040516102d591906149eb565b60405180910390f35b3480156102ea57600080fd5b50610305600480360381019061030091906141bd565b610f9e565b6040516103129190614963565b60405180910390f35b6000806000fd5b6001601160009054906101000a900460ff16600381111561034657610345614f05565b5b14610386576040517f08c379a000000000000000000000000000000000000000000000000000000000815260040161037d90614923565b60405180910390fd5b6000600260076008811061039d5761039c614f63565b5b601091828204019190066002029054906101000a900461ffff1661ffff16146103fb576040517f08c379a00000000000000000000000000000000000000000000000000000000081526004016103f290614863565b60405180910390fd5b61040481611052565b610443576040517f08c379a000000000000000000000000000000000000000000000000000000000815260040161043a906148a3565b60405180910390fd5b4261044d82611150565b63ffffffff1610610493576040517f08c379a000000000000000000000000000000000000000000000000000000000815260040161048a90614883565b60405180910390fd5b60045434146104d7576040517f08c379a00000000000000000000000000000000000000000000000000000000081526004016104ce906148e3565b60405180910390fd5b34600360008282546104e99190614b30565b92505081905550806002601860149054906101000a900461ffff1661ffff166008811061051957610518614f63565b5b601091828204019190066002026101000a81548161ffff021916908361ffff1602179055506001601860148282829054906101000a900461ffff1661055e9190614af8565b92506101000a81548161ffff021916908361ffff1602179055506008601860149054906101000a900461ffff1661ffff1614156105ca5761059d611212565b7f4126aef55df6e72e0392d275943b4ab0a209e41cc536f747672dfeb33a749c1d60405160405180910390a15b50565b6002601160009054906101000a900460ff1660038111156105f1576105f0614f05565b5b14610631576040517f08c379a000000000000000000000000000000000000000000000000000000000815260040161062890614923565b60405180910390fd5b6000600260076008811061064857610647614f63565b5b601091828204019190066002029054906101000a900461ffff1661ffff16146106a6576040517f08c379a000000000000000000000000000000000000000000000000000000000815260040161069d90614863565b60405180910390fd5b426106b082611150565b63ffffffff16106106f6576040517f08c379a00000000000000000000000000000000000000000000000000000000081526004016106ed90614883565b60405180910390fd5b6106ff81611052565b61073e576040517f08c379a0000000000000000000000000000000000000000000000000000000008152600401610735906148a3565b60405180910390fd5b6005543414610782576040517f08c379a0000000000000000000000000000000000000000000000000000000008152600401610779906148e3565b60405180910390fd5b34600360008282546107949190614b30565b92505081905550806002601860149054906101000a900461ffff1661ffff16600881106107c4576107c3614f63565b5b601091828204019190066002026101000a81548161ffff021916908361ffff1602179055506001601860148282829054906101000a900461ffff166108099190614af8565b92506101000a81548161ffff021916908361ffff1602179055506008601860149054906101000a900461ffff1661ffff16141561087557610848611212565b7fd1770840e790ec4e01d36843ba94ddf02e08a36725abf42289b2b071b7f11bbf60405160405180910390a15b50565b600160009054906101000a900473ffffffffffffffffffffffffffffffffffffffff1673ffffffffffffffffffffffffffffffffffffffff163373ffffffffffffffffffffffffffffffffffffffff1614610908576040517f08c379a00000000000000000000000000000000000000000000000000000000081526004016108ff90614843565b60405180910390fd5b60008160ff1610158015610920575060038160ff1611155b61092957600080fd5b8060ff16600381111561093f5761093e614f05565b5b601160006101000a81548160ff0219169083600381111561096357610962614f05565b5b02179055507fed635755a5f2c0e0683dbac09037b703954d031a2b11cc1ad4d459e27f2f20e460108260ff16815481106109a05761099f614f63565b5b906000526020600020016040516109b79190614821565b60405180910390a150565b60035481565b6109d0613d4a565b6002600880602002604051908101604052809291908260088015610a31576020028201916000905b82829054906101000a900461ffff1661ffff16815260200190600201906020826001010492830192600103820291508084116109f85790505b5050505050905090565b60045481565b600160009054906101000a900473ffffffffffffffffffffffffffffffffffffffff1673ffffffffffffffffffffffffffffffffffffffff163373ffffffffffffffffffffffffffffffffffffffff1614610ad1576040517f08c379a0000000000000000000000000000000000000000000000000000000008152600401610ac890614843565b60405180910390fd5b600860040160009054906101000a900473ffffffffffffffffffffffffffffffffffffffff1673ffffffffffffffffffffffffffffffffffffffff1663a9059cbb33600860040160009054906101000a900473ffffffffffffffffffffffffffffffffffffffff1673ffffffffffffffffffffffffffffffffffffffff166370a08231306040518263ffffffff1660e01b8152600401610b719190614672565b60206040518083038186803b158015610b8957600080fd5b505afa158015610b9d573d6000803e3d6000fd5b505050506040513d601f19601f82011682018060405250810190610bc191906141ea565b6040518363ffffffff1660e01b8152600401610bde9291906146c4565b602060405180830381600087803b158015610bf857600080fd5b505af1158015610c0c573d6000803e3d6000fd5b505050506040513d601f19601f82011682018060405250810190610c3091906140f6565b50565b6003601160009054906101000a900460ff166003811115610c5757610c56614f05565b5b14610c97576040517f08c379a0000000000000000000000000000000000000000000000000000000008152600401610c8e90614923565b60405180910390fd5b60006002600760088110610cae57610cad614f63565b5b601091828204019190066002029054906101000a900461ffff1661ffff1614610d0c576040517f08c379a0000000000000000000000000000000000000000000000000000000008152600401610d0390614863565b60405180910390fd5b42610d1682611150565b63ffffffff1610610d5c576040517f08c379a0000000000000000000000000000000000000000000000000000000008152600401610d5390614883565b60405180910390fd5b610d6581611052565b610da4576040517f08c379a0000000000000000000000000000000000000000000000000000000008152600401610d9b906148a3565b60405180910390fd5b6006543414610de8576040517f08c379a0000000000000000000000000000000000000000000000000000000008152600401610ddf906148e3565b60405180910390fd5b3460036000828254610dfa9190614b30565b92505081905550806002601860149054906101000a900461ffff1661ffff1660088110610e2a57610e29614f63565b5b601091828204019190066002026101000a81548161ffff021916908361ffff1602179055506001601860148282829054906101000a900461ffff16610e6f9190614af8565b92506101000a81548161ffff021916908361ffff1602179055506008601860149054906101000a900461ffff1661ffff161415610edb57610eae611212565b7fb3e86b5679d90c44339c1a4699a5ab2db24870bc1bbffd9964596a5c4a813e9460405160405180910390a15b50565b600860000160009054906101000a900473ffffffffffffffffffffffffffffffffffffffff1673ffffffffffffffffffffffffffffffffffffffff163373ffffffffffffffffffffffffffffffffffffffff1614610f71576040517f08c379a0000000000000000000000000000000000000000000000000000000008152600401610f68906148c3565b60405180910390fd5b610f7b828261132c565b5050565b60055481565b601160009054906101000a900460ff1681565b60065481565b60028160088110610fae57600080fd5b60109182820401919006600202915054906101000a900461ffff1681565b6000610fd66117c1565b9050818160000160006101000a81548163ffffffff021916908363ffffffff1602179055505050565b60006110096117ee565b9050818160000160006101000a81548173ffffffffffffffffffffffffffffffffffffffff021916908373ffffffffffffffffffffffffffffffffffffffff1602179055505050565b60008061105d6117ee565b90503373ffffffffffffffffffffffffffffffffffffffff168160000160009054906101000a900473ffffffffffffffffffffffffffffffffffffffff1673ffffffffffffffffffffffffffffffffffffffff16636352211e856040518263ffffffff1660e01b81526004016110d3919061497e565b60206040518083038186803b1580156110eb57600080fd5b505afa1580156110ff573d6000803e3d6000fd5b505050506040513d601f19601f820116820180604052508101906111239190614041565b73ffffffffffffffffffffffffffffffffffffffff1614611145576000611148565b60015b915050919050565b60008061115b6117ee565b90508060000160009054906101000a900473ffffffffffffffffffffffffffffffffffffffff1673ffffffffffffffffffffffffffffffffffffffff16636201917f846040518263ffffffff1660e01b81526004016111ba9190614963565b60206040518083038186803b1580156111d257600080fd5b505afa1580156111e6573d6000803e3d6000fd5b505050506040513d601f19601f8201168201806040525081019061120a9190614217565b915050919050565b600860030154600860040160009054906101000a900473ffffffffffffffffffffffffffffffffffffffff1673ffffffffffffffffffffffffffffffffffffffff166370a08231306040518263ffffffff1660e01b81526004016112769190614672565b60206040518083038186803b15801561128e57600080fd5b505afa1580156112a2573d6000803e3d6000fd5b505050506040513d601f19601f820116820180604052508101906112c691906141ea565b1015611307576040517f08c379a00000000000000000000000000000000000000000000000000000000081526004016112fe90614903565b60405180910390fd5b600061131d60086002015460086003015461181b565b90508060086007018190555050565b600860070154821461133d57600080fd5b8060086005018190555061134f613d4a565b600061135f600860050154611990565b91506001601160009054906101000a900460ff16600381111561138557611384614f05565b5b14156114d5576114046113ff60026008806020026040519081016040528092919082600880156113f2576020028201916000905b82829054906101000a900461ffff1661ffff16815260200190600201906020826001010492830192600103820291508084116113b95790505b5050505050846000611a76565b611cc3565b90506000601860146101000a81548161ffff021916908361ffff16021790555061144381611433600354611f08565b61143e600354611f2a565b611f4c565b601160006101000a81549060ff0219169055600260006114639190613d6d565b6012600080820160006114769190613d6d565b6001820160006114869190613d6d565b6002820160006114969190613d74565b6003820160006101000a81549060ff02191690556004820160006114ba9190613d7b565b6005820160006101000a81549060ff021916905550506117bb565b6002601160009054906101000a900460ff1660038111156114f9576114f8614f05565b5b1415611649576115786115736002600880602002604051908101604052809291908260088015611566576020028201916000905b82829054906101000a900461ffff1661ffff168152602001906002019060208260010104928301926001038202915080841161152d5790505b5050505050846000611a76565b612011565b90506000601860146101000a81548161ffff021916908361ffff1602179055506115b7816115a7600354611f08565b6115b2600354611f2a565b611f4c565b601160006101000a81549060ff0219169055600260006115d79190613d6d565b6012600080820160006115ea9190613d6d565b6001820160006115fa9190613d6d565b60028201600061160a9190613d74565b6003820160006101000a81549060ff021916905560048201600061162e9190613d7b565b6005820160006101000a81549060ff021916905550506117ba565b6003601160009054906101000a900460ff16600381111561166d5761166c614f05565b5b14156117b9576116ec6116e760026008806020026040519081016040528092919082600880156116da576020028201916000905b82829054906101000a900461ffff1661ffff16815260200190600201906020826001010492830192600103820291508084116116a15790505b5050505050846001611a76565b612256565b90506000601860146101000a81548161ffff021916908361ffff16021790555061172b8161171b600354611f08565b611726600354611f2a565b611f4c565b601160006101000a81549060ff02191690556002600061174b9190613d6d565b60126000808201600061175e9190613d6d565b60018201600061176e9190613d6d565b60028201600061177e9190613d74565b6003820160006101000a81549060ff02191690556004820160006117a29190613d7b565b6005820160006101000a81549060ff021916905550505b5b5b50505050565b6000807fbd21b19d8cf926bda1233d510b187b736a1511d6ea3ecb5758b69f58b71d619e90508091505090565b6000807f1c2ba469bf3fce83211eff010708567fbeeae896c0a247fceb689567699266ec90508091505090565b6000600860040160009054906101000a900473ffffffffffffffffffffffffffffffffffffffff1673ffffffffffffffffffffffffffffffffffffffff16634000aea0600860000160009054906101000a900473ffffffffffffffffffffffffffffffffffffffff168486600060405160200161189992919061477d565b6040516020818303038152906040526040518463ffffffff1660e01b81526004016118c6939291906146ed565b602060405180830381600087803b1580156118e057600080fd5b505af11580156118f4573d6000803e3d6000fd5b505050506040513d601f19601f8201168201806040525081019061191891906140f6565b50600061193e84600030600860060160008981526020019081526020016000205461249b565b9050600160086006016000868152602001908152602001600020546119639190614b30565b600860060160008681526020019081526020016000208190555061198784826124d7565b91505092915050565b611998613d4a565b6119a0613d4a565b60005b60088160ff161015611a6c5760078160ff16815481106119c6576119c5614f63565b5b90600052602060002090600491828204019190066008029054906101000a900467ffffffffffffffff1667ffffffffffffffff168482604051602001611a0d929190614a06565b6040516020818303038152906040528051906020012060001c611a309190614e76565b828260ff1660088110611a4657611a45614f63565b5b602002019061ffff16908161ffff16815250508080611a6490614e07565b9150506119a3565b5080915050919050565b611a7e613d82565b836012600001906008611a92929190613dd5565b50826012600101906008611aa7929190613dd5565b5081601260050160006101000a81548160ff02191690831515021790555060126040518060c001604052908160008201600880602002604051908101604052809291908260088015611b36576020028201916000905b82829054906101000a900461ffff1661ffff1681526020019060020190602082600101049283019260010382029150808411611afd5790505b5050505050815260200160018201600880602002604051908101604052809291908260088015611ba3576020028201916000905b82829054906101000a900461ffff1661ffff1681526020019060020190602082600101049283019260010382029150808411611b6a5790505b5050505050815260200160028201600280602002604051908101604052809291908260028015611c0e576020028201916000905b82829054906101000a900460ff1660ff1681526020019060010190602082600001049283019260010382029150808411611bd75790505b505050505081526020016003820160009054906101000a900460ff1660ff1660ff16815260200160048201600380602002604051908101604052809291908260038015611c96576020028201916000905b82829054906101000a900460ff1660ff1681526020019060010190602082600001049283019260010382029150808411611c5f5790505b505050505081526020016005820160009054906101000a900460ff16151515158152505090509392505050565b60006008826020015150600814611cd957600080fd5b7f30ac06c3175d29725e284637cb9691f6975bfd75c28f7f552e66563977cac68d8260000151604051611d0c9190614761565b60405180910390a1611d1d8261250a565b9150611d288261277b565b9150611d3382612bf0565b91507f556f3838b96a3ed57ea8c6e614c3349ada0231b9c478a5f37478a627bb65e028604051806060016040528084600001518560800151600060038110611d7e57611d7d614f63565b5b602002015160ff1660088110611d9757611d96614f63565b5b602002015161ffff1661ffff16815260200184600001518560800151600160038110611dc657611dc5614f63565b5b602002015160ff1660088110611ddf57611dde614f63565b5b602002015161ffff1661ffff16815260200184600001518560800151600260038110611e0e57611e0d614f63565b5b602002015160ff1660088110611e2757611e26614f63565b5b602002015161ffff1661ffff16815250604051611e449190614746565b60405180910390a1611e5582612e7f565b7fbb51888c41405dffbec1fcc2dbda08dd1e43b3d9211de8e235921676cceba1e382600001518360800151600060038110611e9357611e92614f63565b5b602002015160ff1660088110611eac57611eab614f63565b5b6020020151604051611ebe9190614963565b60405180910390a181600001518260800151600060038110611ee357611ee2614f63565b5b602002015160ff1660088110611efc57611efb614f63565b5b60200201519050919050565b6000605f606483611f199190614bbd565b611f239190614c1f565b9050919050565b60006005606483611f3b9190614bbd565b611f459190614c1f565b9050919050565b611f5583612ea6565b73ffffffffffffffffffffffffffffffffffffffff166108fc839081150290604051600060405180830381858888f19350505050158015611f9a573d6000803e3d6000fd5b50601860009054906101000a900473ffffffffffffffffffffffffffffffffffffffff1673ffffffffffffffffffffffffffffffffffffffff166108fc829081150290604051600060405180830381858888f19350505050158015612003573d6000803e3d6000fd5b506000600381905550505050565b6000600882602001515060081461202757600080fd5b7f5cc59dcf45d0ffe822cc2d2ddecc363640094be98218bf9bda4ab082ca4942fb826000015160405161205a9190614761565b60405180910390a161206b8261250a565b91506120768261277b565b915061208182612bf0565b91507f556f3838b96a3ed57ea8c6e614c3349ada0231b9c478a5f37478a627bb65e0286040518060600160405280846000015185608001516000600381106120cc576120cb614f63565b5b602002015160ff16600881106120e5576120e4614f63565b5b602002015161ffff1661ffff1681526020018460000151856080015160016003811061211457612113614f63565b5b602002015160ff166008811061212d5761212c614f63565b5b602002015161ffff1661ffff1681526020018460000151856080015160026003811061215c5761215b614f63565b5b602002015160ff166008811061217557612174614f63565b5b602002015161ffff1661ffff168152506040516121929190614746565b60405180910390a16121a382612f68565b7fa623ca69cf849dca2d694b88e0bddd381352f2969d41f7dda7871c3d23084770826000015183608001516000600381106121e1576121e0614f63565b5b602002015160ff16600881106121fa576121f9614f63565b5b602002015160405161220c9190614963565b60405180910390a18160000151826080015160006003811061223157612230614f63565b5b602002015160ff166008811061224a57612249614f63565b5b60200201519050919050565b6000600882602001515060081461226c57600080fd5b7fda9fbb5433d3af0d13194d6e235811b2ac98662cd69d6bde9ec9435aadf33090826000015160405161229f9190614761565b60405180910390a16122b08261250a565b91506122bb8261277b565b91506122c682612bf0565b91507f556f3838b96a3ed57ea8c6e614c3349ada0231b9c478a5f37478a627bb65e02860405180606001604052808460000151856080015160006003811061231157612310614f63565b5b602002015160ff166008811061232a57612329614f63565b5b602002015161ffff1661ffff1681526020018460000151856080015160016003811061235957612358614f63565b5b602002015160ff166008811061237257612371614f63565b5b602002015161ffff1661ffff168152602001846000015185608001516002600381106123a1576123a0614f63565b5b602002015160ff16600881106123ba576123b9614f63565b5b602002015161ffff1661ffff168152506040516123d79190614746565b60405180910390a16123e882612f8f565b7f9ee531b4c9f9dd0ac16f44db9a3cb7695fe808db74bd6742920b21a434c852808260000151836080015160006003811061242657612425614f63565b5b602002015160ff166008811061243f5761243e614f63565b5b60200201516040516124519190614963565b60405180910390a18160000151826080015160006003811061247657612475614f63565b5b602002015160ff166008811061248f5761248e614f63565b5b60200201519050919050565b6000848484846040516020016124b494939291906147a6565b6040516020818303038152906040528051906020012060001c9050949350505050565b600082826040516020016124ec929190614646565b60405160208183030381529060405280519060200120905092915050565b612512613d82565b600282602001515060081461252657600080fd5b600882602001516000600881106125405761253f614f63565b5b602002015161254f9190614e45565b826040015160006002811061256757612566614f63565b5b602002019060ff16908160ff16815250506008826020015160016008811061259257612591614f63565b5b60200201516125a19190614e45565b82604001516001600281106125b9576125b8614f63565b5b602002019060ff16908160ff16815250505b81604001516001600281106125e3576125e2614f63565b5b602002015160ff16826040015160006002811061260357612602614f63565b5b602002015160ff1614156126a4576000612638836040015160006002811061262e5761262d614f63565b5b6020020151612fb6565b90508061269e576007836020015160036008811061265957612658614f63565b5b60200201516126689190614e45565b60006126749190614b86565b836040015160006002811061268c5761268b614f63565b5b602002019060ff16908160ff16815250505b506125cb565b7fd9dcfc5cbe089f518aff1babf0aee6928da985104f2026b8ad145190cce552ef6040518060400160405280846000015185604001516000600281106126ed576126ec614f63565b5b602002015160ff166008811061270657612705614f63565b5b602002015161ffff1661ffff1681526020018460000151856040015160016002811061273557612734614f63565b5b602002015160ff166008811061274e5761274d614f63565b5b602002015161ffff1661ffff1681525060405161276b919061472b565b60405180910390a1819050919050565b612783613d82565b600080600284602001516004600881106127a05761279f614f63565b5b60200201516127af9190614e45565b61ffff16146127dd5782604001516001600281106127d0576127cf614f63565b5b60200201519050806127fe565b82604001516000600281106127f5576127f4614f63565b5b60200201519050805b50826040015160006002811061281757612816614f63565b5b602002015160ff168160ff161415612a0a577f553875a05605845d3c0472fc96b9aeadc5f68b4d29d75fb80cdb82e6d3d7984c8360000151846040015160006002811061286757612866614f63565b5b602002015160ff16600881106128805761287f614f63565b5b60200201516040516128929190614963565b60405180910390a182604001516000600281106128b2576128b1614f63565b5b6020020151836060019060ff16908160ff16815250508260a00151612950577f58cf999f6795f5857eb2b3dc340e321768493fff3f14c70b6fdccfb57dae7ae48360000151846040015160016002811061290f5761290e614f63565b5b602002015160ff166008811061292857612927614f63565b5b602002015160405161293a9190614963565b60405180910390a161294b83612fe9565b612a05565b612993836000015184604001516001600281106129705761296f614f63565b5b602002015160ff166008811061298957612988614f63565b5b6020020151613195565b7fc98f482e8d4bd36b9d5e73a0ae52c1087fcbb72dff56af788ffd1846bb422b8a836000015184604001516001600281106129d1576129d0614f63565b5b602002015160ff16600881106129ea576129e9614f63565b5b60200201516040516129fc9190614963565b60405180910390a15b612be7565b8260400151600160028110612a2257612a21614f63565b5b6020020151836060019060ff16908160ff16815250507f553875a05605845d3c0472fc96b9aeadc5f68b4d29d75fb80cdb82e6d3d7984c83600001518460400151600160028110612a7657612a75614f63565b5b602002015160ff1660088110612a8f57612a8e614f63565b5b6020020151604051612aa19190614963565b60405180910390a18260a00151612b3157612abb83612fe9565b7f58cf999f6795f5857eb2b3dc340e321768493fff3f14c70b6fdccfb57dae7ae483600001518460400151600060028110612af957612af8614f63565b5b602002015160ff1660088110612b1257612b11614f63565b5b6020020151604051612b249190614963565b60405180910390a1612be6565b612b7483600001518460400151600060028110612b5157612b50614f63565b5b602002015160ff1660088110612b6a57612b69614f63565b5b6020020151613195565b7fc98f482e8d4bd36b9d5e73a0ae52c1087fcbb72dff56af788ffd1846bb422b8a83600001518460400151600060028110612bb257612bb1614f63565b5b602002015160ff1660088110612bcb57612bca614f63565b5b6020020151604051612bdd9190614963565b60405180910390a15b5b82915050919050565b612bf8613d82565b6008826020015150600814612c0c57600080fd5b6000612c16613d4a565b6000612c206117ee565b60000160009054906101000a900473ffffffffffffffffffffffffffffffffffffffff1690505b60088360ff161015612d36578073ffffffffffffffffffffffffffffffffffffffff16638bffef6286600001518560ff1660088110612c8957612c88614f63565b5b60200201516040518263ffffffff1660e01b8152600401612caa9190614963565b60206040518083038186803b158015612cc257600080fd5b505afa158015612cd6573d6000803e3d6000fd5b505050506040513d601f19601f82011682018060405250810190612cfa9190614190565b828460ff1660088110612d1057612d0f614f63565b5b602002019061ffff16908161ffff16815250508280612d2e90614e07565b935050612c47565b60009250612d42613e72565b612d4a613e95565b6000612d546117c1565b60000160009054906101000a900463ffffffff1690505b60088660ff161015612e5b57600588602001518760ff1660088110612d9357612d92614f63565b5b6020020151612da29190614e45565b838760ff1660088110612db857612db7614f63565b5b602002019060ff16908160ff1681525050828660ff1660088110612ddf57612dde614f63565b5b602002015160ff16858760ff1660088110612dfd57612dfc614f63565b5b6020020151612e0c9190614af8565b61ffff1681612e1b9190614bee565b828760ff1660088110612e3157612e30614f63565b5b602002019063ffffffff16908163ffffffff16815250508580612e5390614e07565b965050612d6b565b612e69886040015183613241565b8860800181905250879650505050505050919050565b612e8881613596565b612e91816136d4565b612e9a8161384e565b612ea3816139ab565b50565b600080612eb16117ee565b90508060000160009054906101000a900473ffffffffffffffffffffffffffffffffffffffff1673ffffffffffffffffffffffffffffffffffffffff16636352211e846040518263ffffffff1660e01b8152600401612f10919061497e565b60206040518083038186803b158015612f2857600080fd5b505afa158015612f3c573d6000803e3d6000fd5b505050506040513d601f19601f82011682018060405250810190612f609190614041565b915050919050565b612f7181613b4a565b612f7a816136d4565b612f838161384e565b612f8c816139ab565b50565b612f9881613b4a565b612fa1816136d4565b612faa8161384e565b612fb3816139ab565b50565b600060088260ff16108015612fcf575060008260ff1610155b612fdd576000905080612fe3565b60019050805b50919050565b6000612ff36117ee565b60000160009054906101000a900473ffffffffffffffffffffffffffffffffffffffff1690506000826040015160006002811061303357613032614f63565b5b602002015160ff16836060015160ff1614613052576000905080613058565b60019050805b50600061308284600001518360ff166008811061307857613077614f63565b5b6020020151613c88565b90506000816130965761a8c090508061309d565b6154609050805b5060008473ffffffffffffffffffffffffffffffffffffffff1663a57ce66187600001518660ff16600881106130d6576130d5614f63565b5b6020020151846040518363ffffffff1660e01b81526004016130f9929190614999565b602060405180830381600087803b15801561311357600080fd5b505af1158015613127573d6000803e3d6000fd5b505050506040513d601f19601f8201168201806040525081019061314b91906140f6565b90508061318d576040517f08c379a000000000000000000000000000000000000000000000000000000000815260040161318490614943565b60405180910390fd5b505050505050565b600061319f6117ee565b90508060000160009054906101000a900473ffffffffffffffffffffffffffffffffffffffff1673ffffffffffffffffffffffffffffffffffffffff166342842e0e6131ea84612ea6565b6000856040518463ffffffff1660e01b815260040161320b9392919061468d565b600060405180830381600087803b15801561322557600080fd5b505af1158015613239573d6000803e3d6000fd5b505050505050565b613249613eb8565b6000614e209050613258613eb8565b60005b60088160ff16101561333b578560006002811061327b5761327a614f63565b5b602002015160ff168160ff161415806132b25750856001600281106132a3576132a2614f63565b5b602002015160ff168160ff1614155b15613328578261ffff16858260ff16600881106132d2576132d1614f63565b5b602002015163ffffffff16101561332757848160ff16600881106132f9576132f8614f63565b5b60200201519250808260006003811061331557613314614f63565b5b602002019060ff16908160ff16815250505b5b808061333390614e07565b91505061325b565b614e209250600090505b60088160ff16101561344e578560006002811061336557613364614f63565b5b602002015160ff168160ff1614158061339c57508560016002811061338d5761338c614f63565b5b602002015160ff168160ff1614155b806133c55750816000600381106133b6576133b5614f63565b5b602002015160ff168160ff1614155b1561343b578261ffff16858260ff16600881106133e5576133e4614f63565b5b602002015163ffffffff16101561343a57848160ff166008811061340c5761340b614f63565b5b60200201519250808260016003811061342857613427614f63565b5b602002019060ff16908160ff16815250505b5b808061344690614e07565b915050613345565b614e209250600090505b60088160ff16101561358a578560006002811061347857613477614f63565b5b602002015160ff168160ff161415806134af5750856001600281106134a05761349f614f63565b5b602002015160ff168160ff1614155b806134d85750816000600381106134c9576134c8614f63565b5b602002015160ff168160ff1614155b806135015750816002600381106134f2576134f1614f63565b5b602002015160ff168160ff1614155b15613577578261ffff16858260ff166008811061352157613520614f63565b5b602002015163ffffffff16101561357657848160ff166008811061354857613547614f63565b5b60200201519250808260026003811061356457613563614f63565b5b602002019060ff16908160ff16815250505b5b808061358290614e07565b915050613458565b81935050505092915050565b60006135a06117ee565b60000160009054906101000a900473ffffffffffffffffffffffffffffffffffffffff16905060008173ffffffffffffffffffffffffffffffffffffffff16637e442efa8460000151856080015160006003811061360157613600614f63565b5b602002015160ff166008811061361a57613619614f63565b5b60200201516040518263ffffffff1660e01b815260040161363b9190614963565b602060405180830381600087803b15801561365557600080fd5b505af1158015613669573d6000803e3d6000fd5b505050506040513d601f19601f8201168201806040525081019061368d91906140f6565b9050806136cf576040517f08c379a00000000000000000000000000000000000000000000000000000000081526004016136c690614943565b60405180910390fd5b505050565b60006001600383602001516007600881106136f2576136f1614f63565b5b60200201516137019190614e45565b61370b9190614b86565b905060006137176117ee565b60000160009054906101000a900473ffffffffffffffffffffffffffffffffffffffff16905060008173ffffffffffffffffffffffffffffffffffffffff1663bb5553448560000151866080015160006003811061377857613777614f63565b5b602002015160ff166008811061379157613790614f63565b5b6020020151856040518363ffffffff1660e01b81526004016137b49291906149c2565b602060405180830381600087803b1580156137ce57600080fd5b505af11580156137e2573d6000803e3d6000fd5b505050506040513d601f19601f8201168201806040525081019061380691906140f6565b905080613848576040517f08c379a000000000000000000000000000000000000000000000000000000000815260040161383f90614943565b60405180910390fd5b50505050565b60006138586117ee565b60000160009054906101000a900473ffffffffffffffffffffffffffffffffffffffff16905060005b60038110156139a65760008273ffffffffffffffffffffffffffffffffffffffff16630c7c97078560000151866080015185600381106138c4576138c3614f63565b5b602002015160ff16600881106138dd576138dc614f63565b5b60200201516040518263ffffffff1660e01b81526004016138fe9190614963565b602060405180830381600087803b15801561391857600080fd5b505af115801561392c573d6000803e3d6000fd5b505050506040513d601f19601f8201168201806040525081019061395091906140f6565b905080613992576040517f08c379a000000000000000000000000000000000000000000000000000000000815260040161398990614943565b60405180910390fd5b50808061399e90614dbe565b915050613881565b505050565b60006001600383602001516004600881106139c9576139c8614f63565b5b60200201516139d89190614e45565b6139e29190614b86565b905060006139ee6117ee565b60000160009054906101000a900473ffffffffffffffffffffffffffffffffffffffff16905060008360400151600060028110613a2e57613a2d614f63565b5b602002015160ff16846060015160ff1614613a4d576001905080613a53565b60009050805b5060008273ffffffffffffffffffffffffffffffffffffffff1663b4dd385e86600001518460ff1660088110613a8c57613a8b614f63565b5b6020020151866040518363ffffffff1660e01b8152600401613aaf9291906149c2565b602060405180830381600087803b158015613ac957600080fd5b505af1158015613add573d6000803e3d6000fd5b505050506040513d601f19601f82011682018060405250810190613b0191906140f6565b905080613b43576040517f08c379a0000000000000000000000000000000000000000000000000000000008152600401613b3a90614943565b60405180910390fd5b5050505050565b6000613b546117ee565b60000160009054906101000a900473ffffffffffffffffffffffffffffffffffffffff16905060008173ffffffffffffffffffffffffffffffffffffffff16639d7182ee84600001518560800151600060038110613bb557613bb4614f63565b5b602002015160ff1660088110613bce57613bcd614f63565b5b60200201516040518263ffffffff1660e01b8152600401613bef9190614963565b602060405180830381600087803b158015613c0957600080fd5b505af1158015613c1d573d6000803e3d6000fd5b505050506040513d601f19601f82011682018060405250810190613c4191906140f6565b905080613c83576040517f08c379a0000000000000000000000000000000000000000000000000000000008152600401613c7a90614943565b60405180910390fd5b505050565b600080613c936117ee565b90508060000160009054906101000a900473ffffffffffffffffffffffffffffffffffffffff1673ffffffffffffffffffffffffffffffffffffffff166395d76d9d846040518263ffffffff1660e01b8152600401613cf29190614963565b60206040518083038186803b158015613d0a57600080fd5b505afa158015613d1e573d6000803e3d6000fd5b505050506040513d601f19601f82011682018060405250810190613d4291906140f6565b915050919050565b604051806101000160405280600890602082028036833780820191505090505090565b5060009055565b5060009055565b5060009055565b6040518060c00160405280613d95613d4a565b8152602001613da2613d4a565b8152602001613daf613eda565b8152602001600060ff168152602001613dc6613eb8565b81526020016000151581525090565b826008600f01601090048101928215613e615791602002820160005b83821115613e3157835183826101000a81548161ffff021916908361ffff1602179055509260200192600201602081600101049283019260010302613df1565b8015613e5f5782816101000a81549061ffff0219169055600201602081600101049283019260010302613e31565b505b509050613e6e9190613efc565b5090565b604051806101000160405280600890602082028036833780820191505090505090565b604051806101000160405280600890602082028036833780820191505090505090565b6040518060600160405280600390602082028036833780820191505090505090565b6040518060400160405280600290602082028036833780820191505090505090565b5b80821115613f15576000816000905550600101613efd565b5090565b600081359050613f288161518d565b92915050565b600081519050613f3d8161518d565b92915050565b600081519050613f52816151a4565b92915050565b600081359050613f67816151bb565b92915050565b60008083601f840112613f8357613f82614f97565b5b8235905067ffffffffffffffff811115613fa057613f9f614f92565b5b602083019150836001820283011115613fbc57613fbb614f9c565b5b9250929050565b600081359050613fd2816151d2565b92915050565b600081519050613fe7816151d2565b92915050565b600081359050613ffc816151e9565b92915050565b600081519050614011816151e9565b92915050565b60008151905061402681615200565b92915050565b60008135905061403b81615217565b92915050565b60006020828403121561405757614056614fa6565b5b600061406584828501613f2e565b91505092915050565b60008060008060006080868803121561408a57614089614fa6565b5b600061409888828901613f19565b95505060206140a988828901613f19565b94505060406140ba88828901613fed565b935050606086013567ffffffffffffffff8111156140db576140da614fa1565b5b6140e788828901613f6d565b92509250509295509295909350565b60006020828403121561410c5761410b614fa6565b5b600061411a84828501613f43565b91505092915050565b6000806040838503121561413a57614139614fa6565b5b600061414885828601613f58565b925050602061415985828601613fed565b9150509250929050565b60006020828403121561417957614178614fa6565b5b600061418784828501613fc3565b91505092915050565b6000602082840312156141a6576141a5614fa6565b5b60006141b484828501613fd8565b91505092915050565b6000602082840312156141d3576141d2614fa6565b5b60006141e184828501613fed565b91505092915050565b600060208284031215614200576141ff614fa6565b5b600061420e84828501614002565b91505092915050565b60006020828403121561422d5761422c614fa6565b5b600061423b84828501614017565b91505092915050565b60006020828403121561425a57614259614fa6565b5b60006142688482850161402c565b91505092915050565b600061427d83836145d5565b60208301905092915050565b61429281614c79565b82525050565b6142a181614a62565b6142ab8184614ab5565b92506142b682614a2f565b8060005b838110156142e75781516142ce8782614271565b96506142d983614a8e565b9250506001810190506142ba565b505050505050565b6142f881614a6d565b6143028184614ac0565b925061430d82614a39565b8060005b8381101561433e5781516143258782614271565b965061433083614a9b565b925050600181019050614311565b505050505050565b61434f81614a78565b6143598184614acb565b925061436482614a43565b8060005b8381101561439557815161437c8782614271565b965061438783614aa8565b925050600181019050614368565b505050505050565b6143a681614c97565b82525050565b6143bd6143b882614c97565b614e31565b82525050565b6143cc81614ca1565b82525050565b60006143dd82614a83565b6143e78185614ad6565b93506143f7818560208601614d59565b61440081614fab565b840191505092915050565b61441481614d35565b82525050565b6000815461442781614d8c565b6144318186614ae7565b9450600182166000811461444c576001811461445e57614491565b60ff1983168652602086019350614491565b61446785614a4d565b60005b838110156144895781548189015260018201915060208101905061446a565b808801955050505b50505092915050565b60006144a7601e83614ae7565b91506144b282614fbc565b602082019050919050565b60006144ca601d83614ae7565b91506144d582614fe5565b602082019050919050565b60006144ed602683614ae7565b91506144f88261500e565b604082019050919050565b6000614510601a83614ae7565b915061451b8261505d565b602082019050919050565b6000614533601f83614ae7565b915061453e82615086565b602082019050919050565b6000614556601e83614ae7565b9150614561826150af565b602082019050919050565b6000614579601783614ae7565b9150614584826150d8565b602082019050919050565b600061459c602e83614ae7565b91506145a782615101565b604082019050919050565b60006145bf600583614ae7565b91506145ca82615150565b602082019050919050565b6145de81614ce0565b82525050565b6145ed81614ce0565b82525050565b6145fc81614d47565b82525050565b61460b81614d0e565b82525050565b61462261461d82614d0e565b614e3b565b82525050565b61463181614d18565b82525050565b61464081614d28565b82525050565b600061465282856143ac565b6020820191506146628284614611565b6020820191508190509392505050565b60006020820190506146876000830184614289565b92915050565b60006060820190506146a26000830186614289565b6146af6020830185614289565b6146bc60408301846145f3565b949350505050565b60006040820190506146d96000830185614289565b6146e66020830184614602565b9392505050565b60006060820190506147026000830186614289565b61470f6020830185614602565b818103604083015261472181846143d2565b9050949350505050565b60006040820190506147406000830184614298565b92915050565b600060608201905061475b60008301846142ef565b92915050565b6000610100820190506147776000830184614346565b92915050565b6000604082019050614792600083018561439d565b61479f6020830184614602565b9392505050565b60006080820190506147bb600083018761439d565b6147c86020830186614602565b6147d56040830185614289565b6147e26060830184614602565b95945050505050565b600060208201905061480060008301846143c3565b92915050565b600060208201905061481b600083018461440b565b92915050565b6000602082019050818103600083015261483b818461441a565b905092915050565b6000602082019050818103600083015261485c8161449a565b9050919050565b6000602082019050818103600083015261487c816144bd565b9050919050565b6000602082019050818103600083015261489c816144e0565b9050919050565b600060208201905081810360008301526148bc81614503565b9050919050565b600060208201905081810360008301526148dc81614526565b9050919050565b600060208201905081810360008301526148fc81614549565b9050919050565b6000602082019050818103600083015261491c8161456c565b9050919050565b6000602082019050818103600083015261493c8161458f565b9050919050565b6000602082019050818103600083015261495c816145b2565b9050919050565b600060208201905061497860008301846145e4565b92915050565b600060208201905061499360008301846145f3565b92915050565b60006040820190506149ae60008301856145e4565b6149bb6020830184614628565b9392505050565b60006040820190506149d760008301856145e4565b6149e46020830184614637565b9392505050565b6000602082019050614a006000830184614602565b92915050565b6000604082019050614a1b6000830185614602565b614a286020830184614637565b9392505050565b6000819050919050565b6000819050919050565b6000819050919050565b60008190508160005260206000209050919050565b600060029050919050565b600060039050919050565b600060089050919050565b600081519050919050565b6000602082019050919050565b6000602082019050919050565b6000602082019050919050565b600081905092915050565b600081905092915050565b600081905092915050565b600082825260208201905092915050565b600082825260208201905092915050565b6000614b0382614ce0565b9150614b0e83614ce0565b92508261ffff03821115614b2557614b24614ea7565b5b828201905092915050565b6000614b3b82614d0e565b9150614b4683614d0e565b9250827fffffffffffffffffffffffffffffffffffffffffffffffffffffffffffffffff03821115614b7b57614b7a614ea7565b5b828201905092915050565b6000614b9182614d28565b9150614b9c83614d28565b92508260ff03821115614bb257614bb1614ea7565b5b828201905092915050565b6000614bc882614d0e565b9150614bd383614d0e565b925082614be357614be2614ed6565b5b828204905092915050565b6000614bf982614d18565b9150614c0483614d18565b925082614c1457614c13614ed6565b5b828204905092915050565b6000614c2a82614d0e565b9150614c3583614d0e565b9250817fffffffffffffffffffffffffffffffffffffffffffffffffffffffffffffffff0483118215151615614c6e57614c6d614ea7565b5b828202905092915050565b6000614c8482614cee565b9050919050565b60008115159050919050565b6000819050919050565b60007fffffffff0000000000000000000000000000000000000000000000000000000082169050919050565b6000819050614cdb82615179565b919050565b600061ffff82169050919050565b600073ffffffffffffffffffffffffffffffffffffffff82169050919050565b6000819050919050565b600063ffffffff82169050919050565b600060ff82169050919050565b6000614d4082614ccd565b9050919050565b6000614d5282614ce0565b9050919050565b60005b83811015614d77578082015181840152602081019050614d5c565b83811115614d86576000848401525b50505050565b60006002820490506001821680614da457607f821691505b60208210811415614db857614db7614f34565b5b50919050565b6000614dc982614d0e565b91507fffffffffffffffffffffffffffffffffffffffffffffffffffffffffffffffff821415614dfc57614dfb614ea7565b5b600182019050919050565b6000614e1282614d28565b915060ff821415614e2657614e25614ea7565b5b600182019050919050565b6000819050919050565b6000819050919050565b6000614e5082614ce0565b9150614e5b83614ce0565b925082614e6b57614e6a614ed6565b5b828206905092915050565b6000614e8182614d0e565b9150614e8c83614d0e565b925082614e9c57614e9b614ed6565b5b828206905092915050565b7f4e487b7100000000000000000000000000000000000000000000000000000000600052601160045260246000fd5b7f4e487b7100000000000000000000000000000000000000000000000000000000600052601260045260246000fd5b7f4e487b7100000000000000000000000000000000000000000000000000000000600052602160045260246000fd5b7f4e487b7100000000000000000000000000000000000000000000000000000000600052602260045260246000fd5b7f4e487b7100000000000000000000000000000000000000000000000000000000600052603260045260246000fd5b600080fd5b600080fd5b600080fd5b600080fd5b600080fd5b6000601f19601f8301169050919050565b7f596f752063616e206e6f742063616c6c20746869732066756e6374696f6e0000600082015250565b7f596f752063616e206e6f74206a6f696e20617420746869732074696d65000000600082015250565b7f596f757220726170746f72206973206e6f7420617661696c61626c652072696760008201527f6874206e6f770000000000000000000000000000000000000000000000000000602082015250565b7f596f7520646f206e6f74206f776e207468697320726170746f72000000000000600082015250565b7f4f6e6c7920565246436f6f7264696e61746f722063616e2066756c66696c6c00600082015250565b7f596f752068617665206e6f742073656e7420656e6f7567682066756e64730000600082015250565b7f4e6f7420656e6f756768204c494e4b2062616c616e6365000000000000000000600082015250565b7f546869732072616365207175657565206973206e6f7420617661696c61626c6560008201527f20617420746865206d6f6d656e74000000000000000000000000000000000000602082015250565b7f4572726f72000000000000000000000000000000000000000000000000000000600082015250565b6004811061518a57615189614f05565b5b50565b61519681614c79565b81146151a157600080fd5b50565b6151ad81614c8b565b81146151b857600080fd5b50565b6151c481614c97565b81146151cf57600080fd5b50565b6151db81614ce0565b81146151e657600080fd5b50565b6151f281614d0e565b81146151fd57600080fd5b50565b61520981614d18565b811461521457600080fd5b50565b61522081614d28565b811461522b57600080fd5b5056fea26469706673582212208ce326f57844d6b820c119fc5bc2debee83b6a53a0e96f238a04a39a00ce9c7e64736f6c63430008070033",
  "linkReferences": {},
  "deployedLinkReferences": {}
}