{
  "_format": "hh-sol-artifact-1",
  "contractName": "Game",
  "sourceName": "contracts/game.sol",
  "abi": [
    {
      "inputs": [
        {
          "internalType": "address",
          "name": "_minterContract",
          "type": "address"
        },
        {
          "internalType": "address",
          "name": "_communityWallet",
          "type": "address"
        },
        {
          "internalType": "uint256",
          "name": "_QPFee",
          "type": "uint256"
        },
        {
          "internalType": "uint256",
          "name": "_CompFee",
          "type": "uint256"
        },
        {
          "internalType": "uint256",
          "name": "_DRFee",
          "type": "uint256"
        }
      ],
      "stateMutability": "nonpayable",
      "type": "constructor"
    },
    {
      "anonymous": false,
      "inputs": [
        {
          "indexed": false,
          "internalType": "address",
          "name": "admin",
          "type": "address"
        }
      ],
      "name": "NewAdmin",
      "type": "event"
    },
    {
      "anonymous": false,
      "inputs": [
        {
          "indexed": false,
          "internalType": "string",
          "name": "raceType",
          "type": "string"
        }
      ],
      "name": "RaceChosen",
      "type": "event"
    },
    {
      "anonymous": false,
      "inputs": [
        {
          "indexed": false,
          "internalType": "uint16",
          "name": "raptor",
          "type": "uint16"
        },
        {
          "components": [
            {
              "internalType": "uint16",
              "name": "speed",
              "type": "uint16"
            },
            {
              "internalType": "uint16",
              "name": "strength",
              "type": "uint16"
            },
            {
              "internalType": "uint16",
              "name": "agressiveness",
              "type": "uint16"
            },
            {
              "internalType": "uint16",
              "name": "fightsWon",
              "type": "uint16"
            },
            {
              "internalType": "uint16",
              "name": "fightsLost",
              "type": "uint16"
            },
            {
              "internalType": "uint16",
              "name": "quickPlayRacesWon",
              "type": "uint16"
            },
            {
              "internalType": "uint16",
              "name": "quickPlayRacesLost",
              "type": "uint16"
            },
            {
              "internalType": "uint16",
              "name": "compRacesWon",
              "type": "uint16"
            },
            {
              "internalType": "uint16",
              "name": "compRacesLost",
              "type": "uint16"
            },
            {
              "internalType": "uint16",
              "name": "deathRacesWon",
              "type": "uint16"
            },
            {
              "internalType": "uint16",
              "name": "deathRacesLost",
              "type": "uint16"
            },
            {
              "internalType": "uint16",
              "name": "deathRacesSurvived",
              "type": "uint16"
            },
            {
              "internalType": "uint16",
              "name": "deathRaceFightsWon",
              "type": "uint16"
            },
            {
              "internalType": "uint16",
              "name": "totalRacesTop3Finish",
              "type": "uint16"
            },
            {
              "internalType": "uint256",
              "name": "cooldownTime",
              "type": "uint256"
            },
            {
              "internalType": "bool",
              "name": "foundingRaptor",
              "type": "bool"
            }
          ],
          "indexed": false,
          "internalType": "struct Stats",
          "name": "stats",
          "type": "tuple"
        }
      ],
      "name": "UpdatedStats",
      "type": "event"
    },
    {
      "inputs": [],
      "name": "CompFee",
      "outputs": [
        {
          "internalType": "uint256",
          "name": "",
          "type": "uint256"
        }
      ],
      "stateMutability": "view",
      "type": "function"
    },
    {
      "inputs": [],
      "name": "DRFee",
      "outputs": [
        {
          "internalType": "uint256",
          "name": "",
          "type": "uint256"
        }
      ],
      "stateMutability": "view",
      "type": "function"
    },
    {
      "inputs": [],
      "name": "QPFee",
      "outputs": [
        {
          "internalType": "uint256",
          "name": "",
          "type": "uint256"
        }
      ],
      "stateMutability": "view",
      "type": "function"
    },
    {
      "inputs": [],
      "name": "currentRace",
      "outputs": [
        {
          "internalType": "enum Game.CurrentRace",
          "name": "",
          "type": "uint8"
        }
      ],
      "stateMutability": "view",
      "type": "function"
    },
    {
      "inputs": [
        {
          "internalType": "uint256",
          "name": "",
          "type": "uint256"
        }
      ],
      "name": "currentRaptors",
      "outputs": [
        {
          "internalType": "uint16",
          "name": "",
          "type": "uint16"
        }
      ],
      "stateMutability": "view",
      "type": "function"
    },
    {
      "inputs": [
        {
          "internalType": "uint16",
          "name": "raptor",
          "type": "uint16"
        }
      ],
      "name": "enterRaptorIntoComp",
      "outputs": [],
      "stateMutability": "payable",
      "type": "function"
    },
    {
      "inputs": [
        {
          "internalType": "uint16",
          "name": "raptor",
          "type": "uint16"
        }
      ],
      "name": "enterRaptorIntoDR",
      "outputs": [],
      "stateMutability": "payable",
      "type": "function"
    },
    {
      "inputs": [
        {
          "internalType": "uint16",
          "name": "raptor",
          "type": "uint16"
        }
      ],
      "name": "enterRaptorIntoQuickPlay",
      "outputs": [],
      "stateMutability": "payable",
      "type": "function"
    },
    {
      "inputs": [],
      "name": "getCurrentQueue",
      "outputs": [
        {
          "internalType": "uint16[]",
          "name": "raptors",
          "type": "uint16[]"
        }
      ],
      "stateMutability": "view",
      "type": "function"
    },
    {
      "inputs": [
        {
          "internalType": "address",
          "name": "operator",
          "type": "address"
        },
        {
          "internalType": "address",
          "name": "from",
          "type": "address"
        },
        {
          "internalType": "uint256",
          "name": "tokenId",
          "type": "uint256"
        },
        {
          "internalType": "bytes",
          "name": "data",
          "type": "bytes"
        }
      ],
      "name": "onERC721Received",
      "outputs": [
        {
          "internalType": "bytes4",
          "name": "",
          "type": "bytes4"
        }
      ],
      "stateMutability": "pure",
      "type": "function"
    },
    {
      "inputs": [],
      "name": "pot",
      "outputs": [
        {
          "internalType": "uint256",
          "name": "",
          "type": "uint256"
        }
      ],
      "stateMutability": "view",
      "type": "function"
    },
    {
      "inputs": [
        {
          "internalType": "uint8",
          "name": "choice",
          "type": "uint8"
        }
      ],
      "name": "raceSelect",
      "outputs": [],
      "stateMutability": "nonpayable",
      "type": "function"
    }
  ],
  "bytecode": "0x6080604052600867ffffffffffffffff81111562000022576200002162000725565b5b604051908082528060200260200182016040528015620000515781602001602082028036833780820191505090505b50600190805190602001906200006992919062000367565b5060405180608001604052806040518060400160405280600781526020017f5374616e6442790000000000000000000000000000000000000000000000000081525081526020016040518060400160405280600981526020017f517569636b506c6179000000000000000000000000000000000000000000000081525081526020016040518060400160405280600b81526020017f436f6d706574697469766500000000000000000000000000000000000000000081525081526020016040518060400160405280600981526020017f446561746852616365000000000000000000000000000000000000000000000081525081525060069060046200017192919062000418565b503480156200017f57600080fd5b5060405162005616380380620056168339818101604052810190620001a59190620005cb565b620001bb85620002d560201b62000e0d1760201c565b50620001cc6200033260201b60201c565b6000806101000a81548173ffffffffffffffffffffffffffffffffffffffff021916908373ffffffffffffffffffffffffffffffffffffffff16021790555083600760016101000a81548173ffffffffffffffffffffffffffffffffffffffff021916908373ffffffffffffffffffffffffffffffffffffffff16021790555060006003811115620002635762000262620006c7565b5b600760006101000a81548160ff021916908360038111156200028a5762000289620006c7565b5b021790555060006002819055508260038190555081600481905550806005819055506000600760156101000a81548161ffff021916908361ffff16021790555050505050506200078d565b600081620002e86200033a60201b60201c565b60000160006101000a81548173ffffffffffffffffffffffffffffffffffffffff021916908373ffffffffffffffffffffffffffffffffffffffff16021790555060019050919050565b600033905090565b6000807f6e58ad548d72b425ea94c15f453bf26caddb061d82b2551db7fdd3cefe0e994090508091505090565b82805482825590600052602060002090600f01601090048101928215620004055791602002820160005b83821115620003d357835183826101000a81548161ffff021916908361ffff160217905550926020019260020160208160010104928301926001030262000391565b8015620004035782816101000a81549061ffff0219169055600201602081600101049283019260010302620003d3565b505b5090506200041491906200047f565b5090565b8280548282559060005260206000209081019282156200046c579160200282015b828111156200046b5782518290805190602001906200045a9291906200049e565b509160200191906001019062000439565b5b5090506200047b91906200052f565b5090565b5b808211156200049a57600081600090555060010162000480565b5090565b828054620004ac9062000691565b90600052602060002090601f016020900481019282620004d057600085556200051c565b82601f10620004eb57805160ff19168380011785556200051c565b828001600101855582156200051c579182015b828111156200051b578251825591602001919060010190620004fe565b5b5090506200052b91906200047f565b5090565b5b8082111562000553576000818162000549919062000557565b5060010162000530565b5090565b508054620005659062000691565b6000825580601f106200057957506200059a565b601f0160209004906000526020600020908101906200059991906200047f565b5b50565b600081519050620005ae8162000759565b92915050565b600081519050620005c58162000773565b92915050565b600080600080600060a08688031215620005ea57620005e962000754565b5b6000620005fa888289016200059d565b95505060206200060d888289016200059d565b94505060406200062088828901620005b4565b93505060606200063388828901620005b4565b92505060806200064688828901620005b4565b9150509295509295909350565b6000620006608262000667565b9050919050565b600073ffffffffffffffffffffffffffffffffffffffff82169050919050565b6000819050919050565b60006002820490506001821680620006aa57607f821691505b60208210811415620006c157620006c0620006f6565b5b50919050565b7f4e487b7100000000000000000000000000000000000000000000000000000000600052602160045260246000fd5b7f4e487b7100000000000000000000000000000000000000000000000000000000600052602260045260246000fd5b7f4e487b7100000000000000000000000000000000000000000000000000000000600052604160045260246000fd5b600080fd5b620007648162000653565b81146200077057600080fd5b50565b6200077e8162000687565b81146200078a57600080fd5b50565b614e79806200079d6000396000f3fe6080604052600436106100a75760003560e01c8063547b927f11610064578063547b927f146101a0578063948da447146101cb578063a8aa4d0c146101e7578063c4fc3b2e14610212578063c7a36bc91461023d578063e4789a0614610268576100a7565b8063150b7a02146100ac578063173fabeb146100e95780631e59cd6c146101055780632e82967d146101215780634ba2363a1461014a5780634d045e4e14610175575b600080fd5b3480156100b857600080fd5b506100d360048036038101906100ce9190613be5565b6102a5565b6040516100e091906143de565b60405180910390f35b61010360048036038101906100fe9190613cc8565b6102ac565b005b61011f600480360381019061011a9190613cc8565b6105c0565b005b34801561012d57600080fd5b5061014860048036038101906101439190613d4f565b6108d1565b005b34801561015657600080fd5b5061015f610a19565b60405161016c91906145b9565b60405180910390f35b34801561018157600080fd5b5061018a610a1f565b604051610197919061431e565b60405180910390f35b3480156101ac57600080fd5b506101b5610a9f565b6040516101c291906145b9565b60405180910390f35b6101e560048036038101906101e09190613cc8565b610aa5565b005b3480156101f357600080fd5b506101fc610db6565b60405161020991906145b9565b60405180910390f35b34801561021e57600080fd5b50610227610dbc565b60405161023491906143f9565b60405180910390f35b34801561024957600080fd5b50610252610dcf565b60405161025f91906145b9565b60405180910390f35b34801561027457600080fd5b5061028f600480360381019061028a9190613cf5565b610dd5565b60405161029c9190614583565b60405180910390f35b6000806000fd5b6001600760009054906101000a900460ff1660038111156102d0576102cf614b14565b5b14610310576040517f08c379a000000000000000000000000000000000000000000000000000000000815260040161030790614538565b60405180910390fd5b60086001805490501115610359576040517f08c379a000000000000000000000000000000000000000000000000000000000815260040161035090614478565b60405180910390fd5b61036281610e62565b6103a1576040517f08c379a0000000000000000000000000000000000000000000000000000000008152600401610398906144b8565b60405180910390fd5b426103ab82610f37565b6101c00151106103f0576040517f08c379a00000000000000000000000000000000000000000000000000000000081526004016103e790614498565b60405180910390fd5b6003543414610434576040517f08c379a000000000000000000000000000000000000000000000000000000000815260040161042b906144d8565b60405180910390fd5b3460026000828254610446919061473d565b925050819055506001600760159054906101000a900461ffff1661ffff168154811061047557610474614b72565b5b90600052602060002090601091828204019190066002029054906101000a90505060018054905060ff16600760156101000a81548161ffff021916908361ffff160217905550600860018054905014156105bd57600061054f600180548060200260200160405190810160405280929190818152602001828054801561054257602002820191906000526020600020906000905b82829054906101000a900461ffff1661ffff16815260200190600201906020826001010492830192600103820291508084116105095790505b5050505050600254610fd7565b90506000600760156101000a81548161ffff021916908361ffff160217905550600061057c6002546118c5565b9050600061058b6002546118e7565b9050610598838284611909565b50600760006101000a81549060ff0219169055600160006105b991906137dd565b5050505b50565b6002600760009054906101000a900460ff1660038111156105e4576105e3614b14565b5b14610624576040517f08c379a000000000000000000000000000000000000000000000000000000000815260040161061b90614538565b60405180910390fd5b6008600180549050111561066d576040517f08c379a000000000000000000000000000000000000000000000000000000000815260040161066490614478565b60405180910390fd5b4261067782610f37565b6101c00151106106bc576040517f08c379a00000000000000000000000000000000000000000000000000000000081526004016106b390614498565b60405180910390fd5b6106c581610e62565b610704576040517f08c379a00000000000000000000000000000000000000000000000000000000081526004016106fb906144b8565b60405180910390fd5b6004543414610748576040517f08c379a000000000000000000000000000000000000000000000000000000000815260040161073f906144d8565b60405180910390fd5b346002600082825461075a919061473d565b925050819055506001600760159054906101000a900461ffff1661ffff168154811061078957610788614b72565b5b90600052602060002090601091828204019190066002029054906101000a905050600180549050600760156101000a81548161ffff021916908361ffff160217905550600860018054905014156108ce576000610860600180548060200260200160405190810160405280929190818152602001828054801561085357602002820191906000526020600020906000905b82829054906101000a900461ffff1661ffff168152602001906002019060208260010104928301926001038202915080841161081a5790505b50505050506002546119ce565b90506000600760156101000a81548161ffff021916908361ffff160217905550600061088d6002546118c5565b9050600061089c6002546118e7565b90506108a9838284611909565b50600760006101000a81549060ff0219169055600160006108ca91906137dd565b5050505b50565b60008054906101000a900473ffffffffffffffffffffffffffffffffffffffff1673ffffffffffffffffffffffffffffffffffffffff163373ffffffffffffffffffffffffffffffffffffffff161461095f576040517f08c379a000000000000000000000000000000000000000000000000000000000815260040161095690614458565b60405180910390fd5b60008160ff1610158015610977575060038160ff1611155b61098057600080fd5b8060ff16600381111561099657610995614b14565b5b600760006101000a81548160ff021916908360038111156109ba576109b9614b14565b5b02179055507fed635755a5f2c0e0683dbac09037b703954d031a2b11cc1ad4d459e27f2f20e460068260ff16815481106109f7576109f6614b72565b5b90600052602060002001604051610a0e9190614436565b60405180910390a150565b60025481565b60606001805480602002602001604051908101604052809291908181526020018280548015610a9557602002820191906000526020600020906000905b82829054906101000a900461ffff1661ffff1681526020019060020190602082600101049283019260010382029150808411610a5c5790505b5050505050905090565b60035481565b6003600760009054906101000a900460ff166003811115610ac957610ac8614b14565b5b14610b09576040517f08c379a0000000000000000000000000000000000000000000000000000000008152600401610b0090614538565b60405180910390fd5b60086001805490501115610b52576040517f08c379a0000000000000000000000000000000000000000000000000000000008152600401610b4990614478565b60405180910390fd5b42610b5c82610f37565b6101c0015110610ba1576040517f08c379a0000000000000000000000000000000000000000000000000000000008152600401610b9890614498565b60405180910390fd5b610baa81610e62565b610be9576040517f08c379a0000000000000000000000000000000000000000000000000000000008152600401610be0906144b8565b60405180910390fd5b6005543414610c2d576040517f08c379a0000000000000000000000000000000000000000000000000000000008152600401610c24906144d8565b60405180910390fd5b3460026000828254610c3f919061473d565b925050819055506001600760159054906101000a900461ffff1661ffff1681548110610c6e57610c6d614b72565b5b90600052602060002090601091828204019190066002029054906101000a905050600180549050600760156101000a81548161ffff021916908361ffff16021790555060086001805490501415610db3576000610d456001805480602002602001604051908101604052809291908181526020018280548015610d3857602002820191906000526020600020906000905b82829054906101000a900461ffff1661ffff1681526020019060020190602082600101049283019260010382029150808411610cff5790505b505050505060025461222a565b90506000600760156101000a81548161ffff021916908361ffff1602179055506000610d726002546118c5565b90506000610d816002546118e7565b9050610d8e838284611909565b50600760006101000a81549060ff021916905560016000610daf91906137dd565b5050505b50565b60045481565b600760009054906101000a900460ff1681565b60055481565b60018181548110610de557600080fd5b9060005260206000209060109182820401919006600202915054906101000a900461ffff1681565b600081610e18612943565b60000160006101000a81548173ffffffffffffffffffffffffffffffffffffffff021916908373ffffffffffffffffffffffffffffffffffffffff16021790555060019050919050565b60003373ffffffffffffffffffffffffffffffffffffffff16610e83612970565b73ffffffffffffffffffffffffffffffffffffffff16636352211e846040518263ffffffff1660e01b8152600401610ebb919061459e565b60206040518083038186803b158015610ed357600080fd5b505afa158015610ee7573d6000803e3d6000fd5b505050506040513d601f19601f82011682018060405250810190610f0b9190613bb8565b73ffffffffffffffffffffffffffffffffffffffff1614610f2d576000610f30565b60015b9050919050565b610f3f613805565b610f47612970565b73ffffffffffffffffffffffffffffffffffffffff1663887078be836040518263ffffffff1660e01b8152600401610f7f9190614583565b6102006040518083038186803b158015610f9857600080fd5b505afa158015610fac573d6000803e3d6000fd5b505050506040513d601f19601f82011682018060405250810190610fd09190613c9a565b9050919050565b60007f83fb918dc7fb80d7a3033bf8f1ebd673fbbd82c802b01000a09d54a153462e34838360405161100a929190614340565b60405180910390a16000600867ffffffffffffffff81111561102f5761102e614ba1565b5b60405190808252806020026020018201604052801561106857816020015b611055613805565b81526020019060019003908161104d5790505b50905060005b60088160ff1610156110d4576110a0858260ff168151811061109357611092614b72565b5b6020026020010151610f37565b828260ff16815181106110b6576110b5614b72565b5b602002602001018190525080806110cc90614a16565b91505061106e565b5060006110df6129a3565b9050600061111d826000600281106110fa576110f9614b72565b5b60200201518360016002811061111357611112614b72565b5b6020020151612abd565b905060006040518060400160405280846000600281106111405761113f614b72565b5b602002015160ff1660ff1681526020018460016002811061116457611163614b72565b5b602002015160ff1660ff16815250905060006111808583612ae4565b90506111c0858260006003811061119a57611199614b72565b5b602002015160ff16815181106111b3576111b2614b72565b5b6020026020010151612c4c565b85826000600381106111d5576111d4614b72565b5b602002015160ff16815181106111ee576111ed614b72565b5b6020026020010181905250611237858260006003811061121157611210614b72565b5b602002015160ff168151811061122a57611229614b72565b5b6020026020010151612ca5565b858260006003811061124c5761124b614b72565b5b602002015160ff168151811061126557611264614b72565b5b60200260200101819052506112ae858260016003811061128857611287614b72565b5b602002015160ff16815181106112a1576112a0614b72565b5b6020026020010151612d03565b85826001600381106112c3576112c2614b72565b5b602002015160ff16815181106112dc576112db614b72565b5b602002602001018190525061132585826002600381106112ff576112fe614b72565b5b602002015160ff168151811061131857611317614b72565b5b6020026020010151612d03565b858260026003811061133a57611339614b72565b5b602002015160ff168151811061135357611352614b72565b5b6020026020010181905250611384858460ff168151811061137757611376614b72565b5b6020026020010151612d38565b858460ff168151811061139a57611399614b72565b5b6020026020010181905250836000600281106113b9576113b8614b72565b5b602002015160ff168360ff16141561150d5761140985856001600281106113e3576113e2614b72565b5b602002015160ff16815181106113fc576113fb614b72565b5b6020026020010151612d96565b858560016002811061141e5761141d614b72565b5b602002015160ff168151811061143757611436614b72565b5b6020026020010181905250611480858560016002811061145a57611459614b72565b5b602002015160ff168151811061147357611472614b72565b5b6020026020010151612df4565b858560016002811061149557611494614b72565b5b602002015160ff16815181106114ae576114ad614b72565b5b60200260200101819052507f58cf999f6795f5857eb2b3dc340e321768493fff3f14c70b6fdccfb57dae7ae4846001600281106114ee576114ed614b72565b5b602002015160405161150091906145d4565b60405180910390a161164b565b61154b858560006002811061152557611524614b72565b5b602002015160ff168151811061153e5761153d614b72565b5b6020026020010151612d96565b85856000600281106115605761155f614b72565b5b602002015160ff168151811061157957611578614b72565b5b60200260200101819052506115c2858560006002811061159c5761159b614b72565b5b602002015160ff16815181106115b5576115b4614b72565b5b6020026020010151612df4565b85856000600281106115d7576115d6614b72565b5b602002015160ff16815181106115f0576115ef614b72565b5b60200260200101819052507f58cf999f6795f5857eb2b3dc340e321768493fff3f14c70b6fdccfb57dae7ae4846000600281106116305761162f614b72565b5b602002015160405161164291906145d4565b60405180910390a15b7f553875a05605845d3c0472fc96b9aeadc5f68b4d29d75fb80cdb82e6d3d7984c8360405161167a91906145d4565b60405180910390a160005b60088160ff16101561181757846000600281106116a5576116a4614b72565b5b602002015160ff168160ff161415806116dc5750846001600281106116cd576116cc614b72565b5b602002015160ff168160ff1614155b806117055750816000600381106116f6576116f5614b72565b5b602002015160ff168160ff1614155b1561175257611730868260ff168151811061172357611722614b72565b5b6020026020010151612e5b565b868260ff168151811061174657611745614b72565b5b60200260200101819052505b8160006003811061176657611765614b72565b5b602002015160ff168160ff16146117bf5761179d868260ff16815181106117905761178f614b72565b5b6020026020010151612e90565b868260ff16815181106117b3576117b2614b72565b5b60200260200101819052505b611803868260ff16815181106117d8576117d7614b72565b5b60200260200101518a8360ff16815181106117f6576117f5614b72565b5b6020026020010151612ec4565b50808061180f90614a16565b915050611685565b506000611823886118e7565b90507f0dd461b3bce8ece8babd9a8d74634c83b1982571758bf7396925017ef3fa94db8260006003811061185a57611859614b72565b5b6020020151826118848560006003811061187757611876614b72565b5b602002015160ff16612fa2565b60405161189393929190614618565b60405180910390a1816000600381106118af576118ae614b72565b5b602002015160ff16965050505050505092915050565b600060056064836118d691906147ca565b6118e091906147fb565b9050919050565b6000605f6064836118f891906147ca565b61190291906147fb565b9050919050565b600061191484612fa2565b73ffffffffffffffffffffffffffffffffffffffff166108fc849081150290604051600060405180830381858888f19350505050158015611959573d6000803e3d6000fd5b50600760019054906101000a900473ffffffffffffffffffffffffffffffffffffffff1673ffffffffffffffffffffffffffffffffffffffff166108fc839081150290604051600060405180830381858888f193505050501580156119c2573d6000803e3d6000fd5b50600190509392505050565b60007f5ba069ac933e142a07029ea894d8bca55e0dcb57b727cb72b13f4de0f564e55e8383604051611a01929190614340565b60405180910390a16000600867ffffffffffffffff811115611a2657611a25614ba1565b5b604051908082528060200260200182016040528015611a5f57816020015b611a4c613805565b815260200190600190039081611a445790505b50905060005b60088160ff161015611acb57611a97858260ff1681518110611a8a57611a89614b72565b5b6020026020010151610f37565b828260ff1681518110611aad57611aac614b72565b5b60200260200101819052508080611ac390614a16565b915050611a65565b506000611ad66129a3565b90506000611b1482600060028110611af157611af0614b72565b5b602002015183600160028110611b0a57611b09614b72565b5b6020020151612abd565b90506000604051806040016040528084600060028110611b3757611b36614b72565b5b602002015160ff1660ff16815260200184600160028110611b5b57611b5a614b72565b5b602002015160ff1660ff1681525090506000611b778583612ae4565b9050611bb78582600060038110611b9157611b90614b72565b5b602002015160ff1681518110611baa57611ba9614b72565b5b602002602001015161303b565b8582600060038110611bcc57611bcb614b72565b5b602002015160ff1681518110611be557611be4614b72565b5b6020026020010181905250611c2e8582600060038110611c0857611c07614b72565b5b602002015160ff1681518110611c2157611c20614b72565b5b6020026020010151612ca5565b8582600060038110611c4357611c42614b72565b5b602002015160ff1681518110611c5c57611c5b614b72565b5b6020026020010181905250611ca58582600160038110611c7f57611c7e614b72565b5b602002015160ff1681518110611c9857611c97614b72565b5b6020026020010151612d03565b8582600160038110611cba57611cb9614b72565b5b602002015160ff1681518110611cd357611cd2614b72565b5b6020026020010181905250611d1c8582600260038110611cf657611cf5614b72565b5b602002015160ff1681518110611d0f57611d0e614b72565b5b6020026020010151612d03565b8582600260038110611d3157611d30614b72565b5b602002015160ff1681518110611d4a57611d49614b72565b5b6020026020010181905250611d7b858460ff1681518110611d6e57611d6d614b72565b5b6020026020010151612d38565b858460ff1681518110611d9157611d90614b72565b5b602002602001018190525083600060028110611db057611daf614b72565b5b602002015160ff168360ff161415611f2157611e008585600160028110611dda57611dd9614b72565b5b602002015160ff1681518110611df357611df2614b72565b5b6020026020010151612d96565b8585600160028110611e1557611e14614b72565b5b602002015160ff1681518110611e2e57611e2d614b72565b5b6020026020010181905250611e778585600160028110611e5157611e50614b72565b5b602002015160ff1681518110611e6a57611e69614b72565b5b6020026020010151612df4565b8585600160028110611e8c57611e8b614b72565b5b602002015160ff1681518110611ea557611ea4614b72565b5b60200260200101819052507f58cf999f6795f5857eb2b3dc340e321768493fff3f14c70b6fdccfb57dae7ae48885600160028110611ee657611ee5614b72565b5b602002015160ff1681518110611eff57611efe614b72565b5b6020026020010151604051611f149190614583565b60405180910390a161207c565b611f5f8585600060028110611f3957611f38614b72565b5b602002015160ff1681518110611f5257611f51614b72565b5b6020026020010151612d96565b8585600060028110611f7457611f73614b72565b5b602002015160ff1681518110611f8d57611f8c614b72565b5b6020026020010181905250611fd68585600060028110611fb057611faf614b72565b5b602002015160ff1681518110611fc957611fc8614b72565b5b6020026020010151612df4565b8585600060028110611feb57611fea614b72565b5b602002015160ff168151811061200457612003614b72565b5b60200260200101819052507f58cf999f6795f5857eb2b3dc340e321768493fff3f14c70b6fdccfb57dae7ae4888560006002811061204557612044614b72565b5b602002015160ff168151811061205e5761205d614b72565b5b60200260200101516040516120739190614583565b60405180910390a15b7f553875a05605845d3c0472fc96b9aeadc5f68b4d29d75fb80cdb82e6d3d7984c836040516120ab91906145d4565b60405180910390a160005b60088160ff16101561218757816000600381106120d6576120d5614b72565b5b602002015160ff168160ff161461212f5761210d868260ff1681518110612100576120ff614b72565b5b6020026020010151613094565b868260ff168151811061212357612122614b72565b5b60200260200101819052505b612173868260ff168151811061214857612147614b72565b5b60200260200101518a8360ff168151811061216657612165614b72565b5b6020026020010151612ec4565b50808061217f90614a16565b9150506120b6565b506000612193886118e7565b90507f1a1082bb7b98b6dbd3da461efa0d7c22ca97350b59a260eb8a3eb6da60a76558826000600381106121ca576121c9614b72565b5b6020020151826040516121de9291906145ef565b60405180910390a188826000600381106121fb576121fa614b72565b5b602002015160ff168151811061221457612213614b72565b5b6020026020010151965050505050505092915050565b60007fdcde15c3f599419a19f4ce155dacf1bd4b28928bf552f45cdd937297eacc0ae4838360405161225d929190614340565b60405180910390a16000600867ffffffffffffffff81111561228257612281614ba1565b5b6040519080825280602002602001820160405280156122bb57816020015b6122a8613805565b8152602001906001900390816122a05790505b50905060005b60088160ff161015612327576122f3858260ff16815181106122e6576122e5614b72565b5b6020026020010151610f37565b828260ff168151811061230957612308614b72565b5b6020026020010181905250808061231f90614a16565b9150506122c1565b5060006123326129a3565b905060006123708260006002811061234d5761234c614b72565b5b60200201518360016002811061236657612365614b72565b5b6020020151612abd565b9050600060405180604001604052808460006002811061239357612392614b72565b5b602002015160ff1660ff168152602001846001600281106123b7576123b6614b72565b5b602002015160ff1660ff16815250905060006123d38583612ae4565b905061241385826000600381106123ed576123ec614b72565b5b602002015160ff168151811061240657612405614b72565b5b60200260200101516130c9565b858260006003811061242857612427614b72565b5b602002015160ff168151811061244157612440614b72565b5b602002602001018190525061248a858260006003811061246457612463614b72565b5b602002015160ff168151811061247d5761247c614b72565b5b6020026020010151612ca5565b858260006003811061249f5761249e614b72565b5b602002015160ff16815181106124b8576124b7614b72565b5b602002602001018190525061250185826001600381106124db576124da614b72565b5b602002015160ff16815181106124f4576124f3614b72565b5b6020026020010151612d03565b858260016003811061251657612515614b72565b5b602002015160ff168151811061252f5761252e614b72565b5b6020026020010181905250612578858260026003811061255257612551614b72565b5b602002015160ff168151811061256b5761256a614b72565b5b6020026020010151612d03565b858260026003811061258d5761258c614b72565b5b602002015160ff16815181106125a6576125a5614b72565b5b60200260200101819052506125d7858460ff16815181106125ca576125c9614b72565b5b6020026020010151612d38565b858460ff16815181106125ed576125ec614b72565b5b60200260200101819052508360006002811061260c5761260b614b72565b5b602002015160ff168360ff1614156126cd5761265c888560016002811061263657612635614b72565b5b602002015160ff168151811061264f5761264e614b72565b5b6020026020010151613148565b7fc98f482e8d4bd36b9d5e73a0ae52c1087fcbb72dff56af788ffd1846bb422b8a888560016002811061269257612691614b72565b5b602002015160ff16815181106126ab576126aa614b72565b5b60200260200101516040516126c09190614583565b60405180910390a1612778565b61270b88856000600281106126e5576126e4614b72565b5b602002015160ff16815181106126fe576126fd614b72565b5b6020026020010151613148565b7fc98f482e8d4bd36b9d5e73a0ae52c1087fcbb72dff56af788ffd1846bb422b8a888560006002811061274157612740614b72565b5b602002015160ff168151811061275a57612759614b72565b5b602002602001015160405161276f9190614583565b60405180910390a15b7f553875a05605845d3c0472fc96b9aeadc5f68b4d29d75fb80cdb82e6d3d7984c888460ff16815181106127af576127ae614b72565b5b60200260200101516040516127c49190614583565b60405180910390a160005b60088160ff1610156128a057816000600381106127ef576127ee614b72565b5b602002015160ff168160ff161461284857612826868260ff168151811061281957612818614b72565b5b60200260200101516131ca565b868260ff168151811061283c5761283b614b72565b5b60200260200101819052505b61288c868260ff168151811061286157612860614b72565b5b60200260200101518a8360ff168151811061287f5761287e614b72565b5b6020026020010151612ec4565b50808061289890614a16565b9150506127cf565b5060006128ac886118e7565b90507f1368906ac3d78686ef434c7694b4169478fba0441d8708d5fac1552317d8dffe826000600381106128e3576128e2614b72565b5b6020020151826040516128f79291906145ef565b60405180910390a1888260006003811061291457612913614b72565b5b602002015160ff168151811061292d5761292c614b72565b5b6020026020010151965050505050505092915050565b6000807f6e58ad548d72b425ea94c15f453bf26caddb061d82b2551db7fdd3cefe0e994090508091505090565b600061297a612943565b60000160009054906101000a900473ffffffffffffffffffffffffffffffffffffffff16905090565b6129ab6138bc565b60006129b760936131ff565b90505b60006028826129c99190614a85565b60ff1614806129db575060088160ff16105b156129f1576129ea60a76131ff565b90506129ba565b6000600582612a009190614a85565b90506000600883612a119190614a85565b90508060ff168260ff161415612a3c57600383612a2e9190614a85565b82612a399190614793565b91505b6000612a4783613227565b905080612a6a57600384612a5b9190614a85565b6000612a679190614793565b92505b8285600060028110612a7f57612a7e614b72565b5b602002019060ff16908160ff16815250508185600160028110612aa557612aa4614b72565b5b602002019060ff16908160ff16815250505050505090565b600080612aca60026131ff565b14612ad85781905080612add565b829050805b5092915050565b612aec6138de565b6000600867ffffffffffffffff811115612b0957612b08614ba1565b5b604051908082528060200260200182016040528015612b375781602001602082028036833780820191505090505b50905060005b6008811015612b8a57612b5060056131ff565b828281518110612b6357612b62614b72565b5b602002602001019060ff16908160ff16815250508080612b82906149cd565b915050612b3d565b50612b93613900565b60005b60088160ff161015612c3757828160ff1681518110612bb857612bb7614b72565b5b602002602001015160ff16868260ff1681518110612bd957612bd8614b72565b5b602002602001015160000151612bef9190614705565b61ffff16612bfb61325a565b612c0591906147ca565b828260ff1660088110612c1b57612c1a614b72565b5b6020020181815250508080612c2f90614a16565b915050612b96565b50612c42818561326d565b9250505092915050565b612c54613805565b60018260a001818151612c679190614705565b91509061ffff16908161ffff16815250506001826101a001818151612c8c9190614705565b91509061ffff16908161ffff1681525050819050919050565b612cad613805565b600060016003612cbe61020b6131ff565b612cc89190614a54565b612cd29190614793565b90508060ff1683600001818151612ce99190614705565b91509061ffff16908161ffff168152505082915050919050565b612d0b613805565b6001826101a001818151612d1f9190614705565b91509061ffff16908161ffff1681525050819050919050565b612d40613805565b600060016003612d516103006131ff565b612d5b9190614a54565b612d659190614793565b90508060ff1683602001818151612d7c9190614705565b91509061ffff16908161ffff168152505082915050919050565b612d9e613805565b600060016003612daf6102506131ff565b612db99190614a54565b612dc39190614793565b90508060ff1683604001818151612dda9190614705565b91509061ffff16908161ffff168152505082915050919050565b612dfc613805565b60011515826101e0015115151415612e2b5761546042612e1c919061473d565b826101c0018181525050612e53565b61a8c042612e39919061473d565b826101c001818151612e4b919061473d565b915081815250505b819050919050565b612e63613805565b60018261016001818151612e779190614705565b91509061ffff16908161ffff1681525050819050919050565b612e98613805565b60018260c001818151612eab9190614705565b91509061ffff16908161ffff1681525050819050919050565b6000612ece612970565b73ffffffffffffffffffffffffffffffffffffffff166341c254ad84846040518363ffffffff1660e01b8152600401612f08929190614558565b602060405180830381600087803b158015612f2257600080fd5b505af1158015612f36573d6000803e3d6000fd5b505050506040513d601f19601f82011682018060405250810190612f5a9190613c6d565b905080612f9c576040517f08c379a0000000000000000000000000000000000000000000000000000000008152600401612f9390614518565b60405180910390fd5b92915050565b6000612fac612970565b73ffffffffffffffffffffffffffffffffffffffff16636352211e836040518263ffffffff1660e01b8152600401612fe4919061459e565b60206040518083038186803b158015612ffc57600080fd5b505afa158015613010573d6000803e3d6000fd5b505050506040513d601f19601f820116820180604052508101906130349190613bb8565b9050919050565b613043613805565b60018260e0018181516130569190614705565b91509061ffff16908161ffff16815250506001826101a00181815161307b9190614705565b91509061ffff16908161ffff1681525050819050919050565b61309c613805565b600182610100018181516130b09190614705565b91509061ffff16908161ffff1681525050819050919050565b6130d1613805565b600182610120018181516130e59190614705565b91509061ffff16908161ffff16815250506001826101600181815161310a9190614705565b91509061ffff16908161ffff16815250506001826101a00181815161312f9190614705565b91509061ffff16908161ffff1681525050819050919050565b613150612970565b73ffffffffffffffffffffffffffffffffffffffff166342842e0e61317483612fa2565b6000846040518463ffffffff1660e01b8152600401613195939291906142a9565b600060405180830381600087803b1580156131af57600080fd5b505af11580156131c3573d6000803e3d6000fd5b5050505050565b6131d2613805565b600182610140018181516131e69190614705565b91509061ffff16908161ffff1681525050819050919050565b600060018261320c61337e565b6132169190614a54565b613220919061473d565b9050919050565b600060088260ff16108015613240575060008260ff1610155b61324e576000905080613254565b60019050805b50919050565b60006132646134c7565b60000154905090565b6132756138de565b6000614e209050600080600080600090505b60088160ff16101561334457866000600281106132a7576132a6614b72565b5b602002015160ff168160ff161415806132de5750866001600281106132cf576132ce614b72565b5b602002015160ff168160ff1614155b15613331578461ffff16888260ff16600881106132fe576132fd614b72565b5b6020020151101561333057829150839250809350878160ff166008811061332857613327614b72565b5b602002015194505b5b808061333c90614a16565b915050613287565b5060405180606001604052808460ff1660ff1681526020018360ff1660ff1681526020018260ff1660ff1681525094505050505092915050565b6000806133896134f4565b905080600301548160040160009054906101000a900473ffffffffffffffffffffffffffffffffffffffff1673ffffffffffffffffffffffffffffffffffffffff166370a08231306040518263ffffffff1660e01b81526004016133ed919061428e565b60206040518083038186803b15801561340557600080fd5b505afa158015613419573d6000803e3d6000fd5b505050506040513d601f19601f8201168201806040525081019061343d9190613d22565b101561347e576040517f08c379a0000000000000000000000000000000000000000000000000000000008152600401613475906144f8565b60405180910390fd5b600061349282600201548360030154613521565b60001c90506134bf816040516020016134ab9190614268565b6040516020818303038152906040526136ac565b809250505090565b6000807f02fc0afcebaedec558e2b3aeb5934956cb807ee361f3900ac6f309e4fe30d45b90508091505090565b6000807fcd0c49d5c8438d0944f64e0d3825bed3b606f318474213a77860c93bca5ed99990508091505090565b60008061352c6134f4565b90508060040160009054906101000a900473ffffffffffffffffffffffffffffffffffffffff1673ffffffffffffffffffffffffffffffffffffffff16634000aea08260000160009054906101000a900473ffffffffffffffffffffffffffffffffffffffff16858760006040516020016135a8929190614370565b6040516020818303038152906040526040518463ffffffff1660e01b81526004016135d5939291906142e0565b602060405180830381600087803b1580156135ef57600080fd5b505af1158015613603573d6000803e3d6000fd5b505050506040513d601f19601f820116820180604052508101906136279190613c6d565b50600061364c856000308560060160008a815260200190815260200160002054613745565b9050600182600601600087815260200190815260200160002054613670919061473d565b8260060160008781526020019081526020016000208190555060006136958683613781565b905080836007018190555080935050505092915050565b613742816040516024016136c09190614414565b6040516020818303038152906040527f41304fac000000000000000000000000000000000000000000000000000000007bffffffffffffffffffffffffffffffffffffffffffffffffffffffff19166020820180517bffffffffffffffffffffffffffffffffffffffffffffffffffffffff83818316178352505050506137b4565b50565b60008484848460405160200161375e9493929190614399565b6040516020818303038152906040528051906020012060001c9050949350505050565b6000828260405160200161379692919061423c565b60405160208183030381529060405280519060200120905092915050565b60008151905060006a636f6e736f6c652e6c6f679050602083016000808483855afa5050505050565b50805460008255600f0160109004906000526020600020908101906138029190613923565b50565b604051806102000160405280600061ffff168152602001600061ffff168152602001600061ffff168152602001600061ffff168152602001600061ffff168152602001600061ffff168152602001600061ffff168152602001600061ffff168152602001600061ffff168152602001600061ffff168152602001600061ffff168152602001600061ffff168152602001600061ffff168152602001600061ffff168152602001600081526020016000151581525090565b6040518060400160405280600290602082028036833780820191505090505090565b6040518060600160405280600390602082028036833780820191505090505090565b604051806101000160405280600890602082028036833780820191505090505090565b5b8082111561393c576000816000905550600101613924565b5090565b60008135905061394f81614dd0565b92915050565b60008151905061396481614dd0565b92915050565b60008151905061397981614de7565b92915050565b60008083601f84011261399557613994614bd5565b5b8235905067ffffffffffffffff8111156139b2576139b1614bd0565b5b6020830191508360018202830111156139ce576139cd614bdf565b5b9250929050565b600061020082840312156139ec576139eb614bda565b5b6139f761020061464f565b90506000613a0784828501613b64565b6000830152506020613a1b84828501613b64565b6020830152506040613a2f84828501613b64565b6040830152506060613a4384828501613b64565b6060830152506080613a5784828501613b64565b60808301525060a0613a6b84828501613b64565b60a08301525060c0613a7f84828501613b64565b60c08301525060e0613a9384828501613b64565b60e083015250610100613aa884828501613b64565b61010083015250610120613abe84828501613b64565b61012083015250610140613ad484828501613b64565b61014083015250610160613aea84828501613b64565b61016083015250610180613b0084828501613b64565b610180830152506101a0613b1684828501613b64565b6101a0830152506101c0613b2c84828501613b8e565b6101c0830152506101e0613b428482850161396a565b6101e08301525092915050565b600081359050613b5e81614dfe565b92915050565b600081519050613b7381614dfe565b92915050565b600081359050613b8881614e15565b92915050565b600081519050613b9d81614e15565b92915050565b600081359050613bb281614e2c565b92915050565b600060208284031215613bce57613bcd614be9565b5b6000613bdc84828501613955565b91505092915050565b600080600080600060808688031215613c0157613c00614be9565b5b6000613c0f88828901613940565b9550506020613c2088828901613940565b9450506040613c3188828901613b79565b935050606086013567ffffffffffffffff811115613c5257613c51614be4565b5b613c5e8882890161397f565b92509250509295509295909350565b600060208284031215613c8357613c82614be9565b5b6000613c918482850161396a565b91505092915050565b60006102008284031215613cb157613cb0614be9565b5b6000613cbf848285016139d5565b91505092915050565b600060208284031215613cde57613cdd614be9565b5b6000613cec84828501613b4f565b91505092915050565b600060208284031215613d0b57613d0a614be9565b5b6000613d1984828501613b79565b91505092915050565b600060208284031215613d3857613d37614be9565b5b6000613d4684828501613b8e565b91505092915050565b600060208284031215613d6557613d64614be9565b5b6000613d7384828501613ba3565b91505092915050565b6000613d8883836141cb565b60208301905092915050565b613d9d81614855565b82525050565b6000613dae82614699565b613db881856146c7565b9350613dc383614674565b8060005b83811015613df4578151613ddb8882613d7c565b9750613de6836146ba565b925050600181019050613dc7565b5085935050505092915050565b613e0a81614867565b82525050565b613e1981614873565b82525050565b613e30613e2b82614873565b614a40565b82525050565b613e3f8161487d565b82525050565b6000613e50826146a4565b613e5a81856146d8565b9350613e6a818560208601614937565b613e7381614bee565b840191505092915050565b613e8781614901565b82525050565b6000613e98826146af565b613ea281856146e9565b9350613eb2818560208601614937565b613ebb81614bee565b840191505092915050565b60008154613ed38161496a565b613edd81866146e9565b94506001821660008114613ef85760018114613f0a57613f3d565b60ff1983168652602086019350613f3d565b613f1385614684565b60005b83811015613f3557815481890152600182019150602081019050613f16565b808801955050505b50505092915050565b6000613f53601e836146e9565b9150613f5e82614bff565b602082019050919050565b6000613f76600c836146fa565b9150613f8182614c28565b600c82019050919050565b6000613f99601d836146e9565b9150613fa482614c51565b602082019050919050565b6000613fbc6026836146e9565b9150613fc782614c7a565b604082019050919050565b6000613fdf601a836146e9565b9150613fea82614cc9565b602082019050919050565b6000614002601e836146e9565b915061400d82614cf2565b602082019050919050565b60006140256017836146e9565b915061403082614d1b565b602082019050919050565b60006140486013836146e9565b915061405382614d44565b602082019050919050565b600061406b602e836146e9565b915061407682614d6d565b604082019050919050565b6102008201600082015161409860008501826141cb565b5060208201516140ab60208501826141cb565b5060408201516140be60408501826141cb565b5060608201516140d160608501826141cb565b5060808201516140e460808501826141cb565b5060a08201516140f760a08501826141cb565b5060c082015161410a60c08501826141cb565b5060e082015161411d60e08501826141cb565b506101008201516141326101008501826141cb565b506101208201516141476101208501826141cb565b5061014082015161415c6101408501826141cb565b506101608201516141716101608501826141cb565b506101808201516141866101808501826141cb565b506101a082015161419b6101a08501826141cb565b506101c08201516141b06101c08501826141f8565b506101e08201516141c56101e0850182613e01565b50505050565b6141d4816148bc565b82525050565b6141e3816148bc565b82525050565b6141f281614913565b82525050565b614201816148ea565b82525050565b614210816148ea565b82525050565b614227614222826148ea565b614a4a565b82525050565b61423681614925565b82525050565b60006142488285613e1f565b6020820191506142588284614216565b6020820191508190509392505050565b600061427382613f69565b915061427f8284614216565b60208201915081905092915050565b60006020820190506142a36000830184613d94565b92915050565b60006060820190506142be6000830186613d94565b6142cb6020830185613d94565b6142d860408301846141e9565b949350505050565b60006060820190506142f56000830186613d94565b6143026020830185614207565b81810360408301526143148184613e45565b9050949350505050565b600060208201905081810360008301526143388184613da3565b905092915050565b6000604082019050818103600083015261435a8185613da3565b90506143696020830184614207565b9392505050565b60006040820190506143856000830185613e10565b6143926020830184614207565b9392505050565b60006080820190506143ae6000830187613e10565b6143bb6020830186614207565b6143c86040830185613d94565b6143d56060830184614207565b95945050505050565b60006020820190506143f36000830184613e36565b92915050565b600060208201905061440e6000830184613e7e565b92915050565b6000602082019050818103600083015261442e8184613e8d565b905092915050565b600060208201905081810360008301526144508184613ec6565b905092915050565b6000602082019050818103600083015261447181613f46565b9050919050565b6000602082019050818103600083015261449181613f8c565b9050919050565b600060208201905081810360008301526144b181613faf565b9050919050565b600060208201905081810360008301526144d181613fd2565b9050919050565b600060208201905081810360008301526144f181613ff5565b9050919050565b6000602082019050818103600083015261451181614018565b9050919050565b600060208201905081810360008301526145318161403b565b9050919050565b600060208201905081810360008301526145518161405e565b9050919050565b60006102208201905061456e6000830185614081565b61457c6102008301846141da565b9392505050565b600060208201905061459860008301846141da565b92915050565b60006020820190506145b360008301846141e9565b92915050565b60006020820190506145ce6000830184614207565b92915050565b60006020820190506145e9600083018461422d565b92915050565b6000604082019050614604600083018561422d565b6146116020830184614207565b9392505050565b600060608201905061462d600083018661422d565b61463a6020830185614207565b6146476040830184613d94565b949350505050565b600061465961466a565b9050614665828261499c565b919050565b6000604051905090565b6000819050602082019050919050565b60008190508160005260206000209050919050565b600081519050919050565b600081519050919050565b600081519050919050565b6000602082019050919050565b600082825260208201905092915050565b600082825260208201905092915050565b600082825260208201905092915050565b600081905092915050565b6000614710826148bc565b915061471b836148bc565b92508261ffff0382111561473257614731614ab6565b5b828201905092915050565b6000614748826148ea565b9150614753836148ea565b9250827fffffffffffffffffffffffffffffffffffffffffffffffffffffffffffffffff0382111561478857614787614ab6565b5b828201905092915050565b600061479e826148f4565b91506147a9836148f4565b92508260ff038211156147bf576147be614ab6565b5b828201905092915050565b60006147d5826148ea565b91506147e0836148ea565b9250826147f0576147ef614ae5565b5b828204905092915050565b6000614806826148ea565b9150614811836148ea565b9250817fffffffffffffffffffffffffffffffffffffffffffffffffffffffffffffffff048311821515161561484a57614849614ab6565b5b828202905092915050565b6000614860826148ca565b9050919050565b60008115159050919050565b6000819050919050565b60007fffffffff0000000000000000000000000000000000000000000000000000000082169050919050565b60008190506148b782614dbc565b919050565b600061ffff82169050919050565b600073ffffffffffffffffffffffffffffffffffffffff82169050919050565b6000819050919050565b600060ff82169050919050565b600061490c826148a9565b9050919050565b600061491e826148bc565b9050919050565b6000614930826148f4565b9050919050565b60005b8381101561495557808201518184015260208101905061493a565b83811115614964576000848401525b50505050565b6000600282049050600182168061498257607f821691505b6020821081141561499657614995614b43565b5b50919050565b6149a582614bee565b810181811067ffffffffffffffff821117156149c4576149c3614ba1565b5b80604052505050565b60006149d8826148ea565b91507fffffffffffffffffffffffffffffffffffffffffffffffffffffffffffffffff821415614a0b57614a0a614ab6565b5b600182019050919050565b6000614a21826148f4565b915060ff821415614a3557614a34614ab6565b5b600182019050919050565b6000819050919050565b6000819050919050565b6000614a5f826148ea565b9150614a6a836148ea565b925082614a7a57614a79614ae5565b5b828206905092915050565b6000614a90826148f4565b9150614a9b836148f4565b925082614aab57614aaa614ae5565b5b828206905092915050565b7f4e487b7100000000000000000000000000000000000000000000000000000000600052601160045260246000fd5b7f4e487b7100000000000000000000000000000000000000000000000000000000600052601260045260246000fd5b7f4e487b7100000000000000000000000000000000000000000000000000000000600052602160045260246000fd5b7f4e487b7100000000000000000000000000000000000000000000000000000000600052602260045260246000fd5b7f4e487b7100000000000000000000000000000000000000000000000000000000600052603260045260246000fd5b7f4e487b7100000000000000000000000000000000000000000000000000000000600052604160045260246000fd5b600080fd5b600080fd5b600080fd5b600080fd5b600080fd5b600080fd5b6000601f19601f8301169050919050565b7f596f752063616e206e6f742063616c6c20746869732066756e6374696f6e0000600082015250565b7f72616e646f6d206e756d3a200000000000000000000000000000000000000000600082015250565b7f596f752063616e206e6f74206a6f696e20617420746869732074696d65000000600082015250565b7f596f757220726170746f72206973206e6f7420617661696c61626c652072696760008201527f6874206e6f770000000000000000000000000000000000000000000000000000602082015250565b7f596f7520646f206e6f74206f776e207468697320726170746f72000000000000600082015250565b7f596f752068617665206e6f742073656e7420656e6f7567682066756e64730000600082015250565b7f4e6f7420656e6f756768204c494e4b2062616c616e6365000000000000000000600082015250565b7f54686572652077617320612070726f626c656d00000000000000000000000000600082015250565b7f546869732072616365207175657565206973206e6f7420617661696c61626c6560008201527f20617420746865206d6f6d656e74000000000000000000000000000000000000602082015250565b60048110614dcd57614dcc614b14565b5b50565b614dd981614855565b8114614de457600080fd5b50565b614df081614867565b8114614dfb57600080fd5b50565b614e07816148bc565b8114614e1257600080fd5b50565b614e1e816148ea565b8114614e2957600080fd5b50565b614e35816148f4565b8114614e4057600080fd5b5056fea2646970667358221220cea09cdf977603b3b6eca19f9486ecca6288f6133700b10e6c63d716970350ba64736f6c63430008070033",
  "linkReferences": {},
  "deployedLinkReferences": {}
}