{
  "_format": "hh-sol-artifact-1",
  "contractName": "Game",
  "sourceName": "contracts/game.sol",
  "abi": [
    {
      "inputs": [
        {
          "internalType": "address",
          "name": "_minterContract",
          "type": "address"
        },
        {
          "internalType": "address",
          "name": "_communityWallet",
          "type": "address"
        },
        {
          "internalType": "uint256",
          "name": "_QPFee",
          "type": "uint256"
        },
        {
          "internalType": "uint256",
          "name": "_CompFee",
          "type": "uint256"
        },
        {
          "internalType": "uint256",
          "name": "_DRFee",
          "type": "uint256"
        }
      ],
      "stateMutability": "nonpayable",
      "type": "constructor"
    },
    {
      "anonymous": false,
      "inputs": [
        {
          "indexed": false,
          "internalType": "address",
          "name": "admin",
          "type": "address"
        }
      ],
      "name": "NewAdmin",
      "type": "event"
    },
    {
      "anonymous": false,
      "inputs": [
        {
          "indexed": false,
          "internalType": "string",
          "name": "raceType",
          "type": "string"
        }
      ],
      "name": "RaceChosen",
      "type": "event"
    },
    {
      "anonymous": false,
      "inputs": [
        {
          "indexed": false,
          "internalType": "uint16",
          "name": "raptor",
          "type": "uint16"
        },
        {
          "components": [
            {
              "internalType": "uint16",
              "name": "speed",
              "type": "uint16"
            },
            {
              "internalType": "uint16",
              "name": "strength",
              "type": "uint16"
            },
            {
              "internalType": "uint16",
              "name": "agressiveness",
              "type": "uint16"
            },
            {
              "internalType": "uint16",
              "name": "fightsWon",
              "type": "uint16"
            },
            {
              "internalType": "uint16",
              "name": "fightsLost",
              "type": "uint16"
            },
            {
              "internalType": "uint16",
              "name": "quickPlayRacesWon",
              "type": "uint16"
            },
            {
              "internalType": "uint16",
              "name": "quickPlayRacesLost",
              "type": "uint16"
            },
            {
              "internalType": "uint16",
              "name": "compRacesWon",
              "type": "uint16"
            },
            {
              "internalType": "uint16",
              "name": "compRacesLost",
              "type": "uint16"
            },
            {
              "internalType": "uint16",
              "name": "deathRacesWon",
              "type": "uint16"
            },
            {
              "internalType": "uint16",
              "name": "deathRacesLost",
              "type": "uint16"
            },
            {
              "internalType": "uint16",
              "name": "deathRacesSurvived",
              "type": "uint16"
            },
            {
              "internalType": "uint16",
              "name": "deathRaceFightsWon",
              "type": "uint16"
            },
            {
              "internalType": "uint16",
              "name": "totalRacesTop3Finish",
              "type": "uint16"
            },
            {
              "internalType": "uint256",
              "name": "cooldownTime",
              "type": "uint256"
            },
            {
              "internalType": "bool",
              "name": "foundingRaptor",
              "type": "bool"
            }
          ],
          "indexed": false,
          "internalType": "struct Stats",
          "name": "stats",
          "type": "tuple"
        }
      ],
      "name": "UpdatedStats",
      "type": "event"
    },
    {
      "inputs": [],
      "name": "CompFee",
      "outputs": [
        {
          "internalType": "uint256",
          "name": "",
          "type": "uint256"
        }
      ],
      "stateMutability": "view",
      "type": "function"
    },
    {
      "inputs": [],
      "name": "DRFee",
      "outputs": [
        {
          "internalType": "uint256",
          "name": "",
          "type": "uint256"
        }
      ],
      "stateMutability": "view",
      "type": "function"
    },
    {
      "inputs": [],
      "name": "QPFee",
      "outputs": [
        {
          "internalType": "uint256",
          "name": "",
          "type": "uint256"
        }
      ],
      "stateMutability": "view",
      "type": "function"
    },
    {
      "inputs": [],
      "name": "currentRace",
      "outputs": [
        {
          "internalType": "enum Game.CurrentRace",
          "name": "",
          "type": "uint8"
        }
      ],
      "stateMutability": "view",
      "type": "function"
    },
    {
      "inputs": [
        {
          "internalType": "uint256",
          "name": "",
          "type": "uint256"
        }
      ],
      "name": "currentRaptors",
      "outputs": [
        {
          "internalType": "uint16",
          "name": "",
          "type": "uint16"
        }
      ],
      "stateMutability": "view",
      "type": "function"
    },
    {
      "inputs": [
        {
          "internalType": "uint16",
          "name": "raptor",
          "type": "uint16"
        }
      ],
      "name": "enterRaptorIntoComp",
      "outputs": [],
      "stateMutability": "payable",
      "type": "function"
    },
    {
      "inputs": [
        {
          "internalType": "uint16",
          "name": "raptor",
          "type": "uint16"
        }
      ],
      "name": "enterRaptorIntoDR",
      "outputs": [],
      "stateMutability": "payable",
      "type": "function"
    },
    {
      "inputs": [
        {
          "internalType": "uint16",
          "name": "raptor",
          "type": "uint16"
        }
      ],
      "name": "enterRaptorIntoQuickPlay",
      "outputs": [],
      "stateMutability": "payable",
      "type": "function"
    },
    {
      "inputs": [],
      "name": "getCurrentQueue",
      "outputs": [
        {
          "internalType": "uint16[]",
          "name": "raptors",
          "type": "uint16[]"
        }
      ],
      "stateMutability": "view",
      "type": "function"
    },
    {
      "inputs": [
        {
          "internalType": "address",
          "name": "operator",
          "type": "address"
        },
        {
          "internalType": "address",
          "name": "from",
          "type": "address"
        },
        {
          "internalType": "uint256",
          "name": "tokenId",
          "type": "uint256"
        },
        {
          "internalType": "bytes",
          "name": "data",
          "type": "bytes"
        }
      ],
      "name": "onERC721Received",
      "outputs": [
        {
          "internalType": "bytes4",
          "name": "",
          "type": "bytes4"
        }
      ],
      "stateMutability": "pure",
      "type": "function"
    },
    {
      "inputs": [],
      "name": "pot",
      "outputs": [
        {
          "internalType": "uint256",
          "name": "",
          "type": "uint256"
        }
      ],
      "stateMutability": "view",
      "type": "function"
    },
    {
      "inputs": [
        {
          "internalType": "uint8",
          "name": "choice",
          "type": "uint8"
        }
      ],
      "name": "raceSelect",
      "outputs": [],
      "stateMutability": "nonpayable",
      "type": "function"
    }
  ],
  "bytecode": "0x6080604052600867ffffffffffffffff81111562000022576200002162000725565b5b604051908082528060200260200182016040528015620000515781602001602082028036833780820191505090505b50600190805190602001906200006992919062000367565b5060405180608001604052806040518060400160405280600781526020017f5374616e6442790000000000000000000000000000000000000000000000000081525081526020016040518060400160405280600981526020017f517569636b506c6179000000000000000000000000000000000000000000000081525081526020016040518060400160405280600b81526020017f436f6d706574697469766500000000000000000000000000000000000000000081525081526020016040518060400160405280600981526020017f446561746852616365000000000000000000000000000000000000000000000081525081525060069060046200017192919062000418565b503480156200017f57600080fd5b5060405162005449380380620054498339818101604052810190620001a59190620005cb565b620001bb85620002d560201b62000e0d1760201c565b50620001cc6200033260201b60201c565b6000806101000a81548173ffffffffffffffffffffffffffffffffffffffff021916908373ffffffffffffffffffffffffffffffffffffffff16021790555083600760016101000a81548173ffffffffffffffffffffffffffffffffffffffff021916908373ffffffffffffffffffffffffffffffffffffffff16021790555060006003811115620002635762000262620006c7565b5b600760006101000a81548160ff021916908360038111156200028a5762000289620006c7565b5b021790555060006002819055508260038190555081600481905550806005819055506000600760156101000a81548161ffff021916908361ffff16021790555050505050506200078d565b600081620002e86200033a60201b60201c565b60000160006101000a81548173ffffffffffffffffffffffffffffffffffffffff021916908373ffffffffffffffffffffffffffffffffffffffff16021790555060019050919050565b600033905090565b6000807f6e58ad548d72b425ea94c15f453bf26caddb061d82b2551db7fdd3cefe0e994090508091505090565b82805482825590600052602060002090600f01601090048101928215620004055791602002820160005b83821115620003d357835183826101000a81548161ffff021916908361ffff160217905550926020019260020160208160010104928301926001030262000391565b8015620004035782816101000a81549061ffff0219169055600201602081600101049283019260010302620003d3565b505b5090506200041491906200047f565b5090565b8280548282559060005260206000209081019282156200046c579160200282015b828111156200046b5782518290805190602001906200045a9291906200049e565b509160200191906001019062000439565b5b5090506200047b91906200052f565b5090565b5b808211156200049a57600081600090555060010162000480565b5090565b828054620004ac9062000691565b90600052602060002090601f016020900481019282620004d057600085556200051c565b82601f10620004eb57805160ff19168380011785556200051c565b828001600101855582156200051c579182015b828111156200051b578251825591602001919060010190620004fe565b5b5090506200052b91906200047f565b5090565b5b8082111562000553576000818162000549919062000557565b5060010162000530565b5090565b508054620005659062000691565b6000825580601f106200057957506200059a565b601f0160209004906000526020600020908101906200059991906200047f565b5b50565b600081519050620005ae8162000759565b92915050565b600081519050620005c58162000773565b92915050565b600080600080600060a08688031215620005ea57620005e962000754565b5b6000620005fa888289016200059d565b95505060206200060d888289016200059d565b94505060406200062088828901620005b4565b93505060606200063388828901620005b4565b92505060806200064688828901620005b4565b9150509295509295909350565b6000620006608262000667565b9050919050565b600073ffffffffffffffffffffffffffffffffffffffff82169050919050565b6000819050919050565b60006002820490506001821680620006aa57607f821691505b60208210811415620006c157620006c0620006f6565b5b50919050565b7f4e487b7100000000000000000000000000000000000000000000000000000000600052602160045260246000fd5b7f4e487b7100000000000000000000000000000000000000000000000000000000600052602260045260246000fd5b7f4e487b7100000000000000000000000000000000000000000000000000000000600052604160045260246000fd5b600080fd5b620007648162000653565b81146200077057600080fd5b50565b6200077e8162000687565b81146200078a57600080fd5b50565b614cac806200079d6000396000f3fe6080604052600436106100a75760003560e01c8063547b927f11610064578063547b927f146101a0578063948da447146101cb578063a8aa4d0c146101e7578063c4fc3b2e14610212578063c7a36bc91461023d578063e4789a0614610268576100a7565b8063150b7a02146100ac578063173fabeb146100e95780631e59cd6c146101055780632e82967d146101215780634ba2363a1461014a5780634d045e4e14610175575b600080fd5b3480156100b857600080fd5b506100d360048036038101906100ce9190613afb565b6102a5565b6040516100e09190614272565b60405180910390f35b61010360048036038101906100fe9190613bde565b6102ac565b005b61011f600480360381019061011a9190613bde565b6105c0565b005b34801561012d57600080fd5b5061014860048036038101906101439190613c65565b6108d1565b005b34801561015657600080fd5b5061015f610a19565b60405161016c919061442b565b60405180910390f35b34801561018157600080fd5b5061018a610a1f565b60405161019791906141b2565b60405180910390f35b3480156101ac57600080fd5b506101b5610a9f565b6040516101c2919061442b565b60405180910390f35b6101e560048036038101906101e09190613bde565b610aa5565b005b3480156101f357600080fd5b506101fc610db6565b604051610209919061442b565b60405180910390f35b34801561021e57600080fd5b50610227610dbc565b604051610234919061428d565b60405180910390f35b34801561024957600080fd5b50610252610dcf565b60405161025f919061442b565b60405180910390f35b34801561027457600080fd5b5061028f600480360381019061028a9190613c0b565b610dd5565b60405161029c91906143f5565b60405180910390f35b6000806000fd5b6001600760009054906101000a900460ff1660038111156102d0576102cf614970565b5b14610310576040517f08c379a0000000000000000000000000000000000000000000000000000000008152600401610307906143aa565b60405180910390fd5b60086001805490501115610359576040517f08c379a0000000000000000000000000000000000000000000000000000000008152600401610350906142ea565b60405180910390fd5b61036281610e62565b6103a1576040517f08c379a00000000000000000000000000000000000000000000000000000000081526004016103989061432a565b60405180910390fd5b426103ab82610f37565b6101c00151106103f0576040517f08c379a00000000000000000000000000000000000000000000000000000000081526004016103e79061430a565b60405180910390fd5b6003543414610434576040517f08c379a000000000000000000000000000000000000000000000000000000000815260040161042b9061434a565b60405180910390fd5b34600260008282546104469190614599565b925050819055506001600760159054906101000a900461ffff1661ffff1681548110610475576104746149ce565b5b90600052602060002090601091828204019190066002029054906101000a90505060018054905060ff16600760156101000a81548161ffff021916908361ffff160217905550600860018054905014156105bd57600061054f600180548060200260200160405190810160405280929190818152602001828054801561054257602002820191906000526020600020906000905b82829054906101000a900461ffff1661ffff16815260200190600201906020826001010492830192600103820291508084116105095790505b5050505050600254610fd7565b90506000600760156101000a81548161ffff021916908361ffff160217905550600061057c6002546118c5565b9050600061058b6002546118e7565b9050610598838284611909565b50600760006101000a81549060ff0219169055600160006105b991906136f3565b5050505b50565b6002600760009054906101000a900460ff1660038111156105e4576105e3614970565b5b14610624576040517f08c379a000000000000000000000000000000000000000000000000000000000815260040161061b906143aa565b60405180910390fd5b6008600180549050111561066d576040517f08c379a0000000000000000000000000000000000000000000000000000000008152600401610664906142ea565b60405180910390fd5b4261067782610f37565b6101c00151106106bc576040517f08c379a00000000000000000000000000000000000000000000000000000000081526004016106b39061430a565b60405180910390fd5b6106c581610e62565b610704576040517f08c379a00000000000000000000000000000000000000000000000000000000081526004016106fb9061432a565b60405180910390fd5b6004543414610748576040517f08c379a000000000000000000000000000000000000000000000000000000000815260040161073f9061434a565b60405180910390fd5b346002600082825461075a9190614599565b925050819055506001600760159054906101000a900461ffff1661ffff1681548110610789576107886149ce565b5b90600052602060002090601091828204019190066002029054906101000a905050600180549050600760156101000a81548161ffff021916908361ffff160217905550600860018054905014156108ce576000610860600180548060200260200160405190810160405280929190818152602001828054801561085357602002820191906000526020600020906000905b82829054906101000a900461ffff1661ffff168152602001906002019060208260010104928301926001038202915080841161081a5790505b50505050506002546119ce565b90506000600760156101000a81548161ffff021916908361ffff160217905550600061088d6002546118c5565b9050600061089c6002546118e7565b90506108a9838284611909565b50600760006101000a81549060ff0219169055600160006108ca91906136f3565b5050505b50565b60008054906101000a900473ffffffffffffffffffffffffffffffffffffffff1673ffffffffffffffffffffffffffffffffffffffff163373ffffffffffffffffffffffffffffffffffffffff161461095f576040517f08c379a0000000000000000000000000000000000000000000000000000000008152600401610956906142ca565b60405180910390fd5b60008160ff1610158015610977575060038160ff1611155b61098057600080fd5b8060ff16600381111561099657610995614970565b5b600760006101000a81548160ff021916908360038111156109ba576109b9614970565b5b02179055507fed635755a5f2c0e0683dbac09037b703954d031a2b11cc1ad4d459e27f2f20e460068260ff16815481106109f7576109f66149ce565b5b90600052602060002001604051610a0e91906142a8565b60405180910390a150565b60025481565b60606001805480602002602001604051908101604052809291908181526020018280548015610a9557602002820191906000526020600020906000905b82829054906101000a900461ffff1661ffff1681526020019060020190602082600101049283019260010382029150808411610a5c5790505b5050505050905090565b60035481565b6003600760009054906101000a900460ff166003811115610ac957610ac8614970565b5b14610b09576040517f08c379a0000000000000000000000000000000000000000000000000000000008152600401610b00906143aa565b60405180910390fd5b60086001805490501115610b52576040517f08c379a0000000000000000000000000000000000000000000000000000000008152600401610b49906142ea565b60405180910390fd5b42610b5c82610f37565b6101c0015110610ba1576040517f08c379a0000000000000000000000000000000000000000000000000000000008152600401610b989061430a565b60405180910390fd5b610baa81610e62565b610be9576040517f08c379a0000000000000000000000000000000000000000000000000000000008152600401610be09061432a565b60405180910390fd5b6005543414610c2d576040517f08c379a0000000000000000000000000000000000000000000000000000000008152600401610c249061434a565b60405180910390fd5b3460026000828254610c3f9190614599565b925050819055506001600760159054906101000a900461ffff1661ffff1681548110610c6e57610c6d6149ce565b5b90600052602060002090601091828204019190066002029054906101000a905050600180549050600760156101000a81548161ffff021916908361ffff16021790555060086001805490501415610db3576000610d456001805480602002602001604051908101604052809291908181526020018280548015610d3857602002820191906000526020600020906000905b82829054906101000a900461ffff1661ffff1681526020019060020190602082600101049283019260010382029150808411610cff5790505b505050505060025461222a565b90506000600760156101000a81548161ffff021916908361ffff1602179055506000610d726002546118c5565b90506000610d816002546118e7565b9050610d8e838284611909565b50600760006101000a81549060ff021916905560016000610daf91906136f3565b5050505b50565b60045481565b600760009054906101000a900460ff1681565b60055481565b60018181548110610de557600080fd5b9060005260206000209060109182820401919006600202915054906101000a900461ffff1681565b600081610e18612945565b60000160006101000a81548173ffffffffffffffffffffffffffffffffffffffff021916908373ffffffffffffffffffffffffffffffffffffffff16021790555060019050919050565b60003373ffffffffffffffffffffffffffffffffffffffff16610e83612972565b73ffffffffffffffffffffffffffffffffffffffff16636352211e846040518263ffffffff1660e01b8152600401610ebb9190614410565b60206040518083038186803b158015610ed357600080fd5b505afa158015610ee7573d6000803e3d6000fd5b505050506040513d601f19601f82011682018060405250810190610f0b9190613ace565b73ffffffffffffffffffffffffffffffffffffffff1614610f2d576000610f30565b60015b9050919050565b610f3f61371b565b610f47612972565b73ffffffffffffffffffffffffffffffffffffffff1663887078be836040518263ffffffff1660e01b8152600401610f7f91906143f5565b6102006040518083038186803b158015610f9857600080fd5b505afa158015610fac573d6000803e3d6000fd5b505050506040513d601f19601f82011682018060405250810190610fd09190613bb0565b9050919050565b60007f83fb918dc7fb80d7a3033bf8f1ebd673fbbd82c802b01000a09d54a153462e34838360405161100a9291906141d4565b60405180910390a16000600867ffffffffffffffff81111561102f5761102e6149fd565b5b60405190808252806020026020018201604052801561106857816020015b61105561371b565b81526020019060019003908161104d5790505b50905060005b60088160ff1610156110d4576110a0858260ff1681518110611093576110926149ce565b5b6020026020010151610f37565b828260ff16815181106110b6576110b56149ce565b5b602002602001018190525080806110cc90614872565b91505061106e565b5060006110df6129a5565b9050600061111d826000600281106110fa576110f96149ce565b5b602002015183600160028110611113576111126149ce565b5b6020020151612abf565b905060006040518060400160405280846000600281106111405761113f6149ce565b5b602002015160ff1660ff16815260200184600160028110611164576111636149ce565b5b602002015160ff1660ff16815250905060006111808583612ae6565b90506111c0858260006003811061119a576111996149ce565b5b602002015160ff16815181106111b3576111b26149ce565b5b6020026020010151612c4e565b85826000600381106111d5576111d46149ce565b5b602002015160ff16815181106111ee576111ed6149ce565b5b60200260200101819052506112378582600060038110611211576112106149ce565b5b602002015160ff168151811061122a576112296149ce565b5b6020026020010151612ca7565b858260006003811061124c5761124b6149ce565b5b602002015160ff1681518110611265576112646149ce565b5b60200260200101819052506112ae8582600160038110611288576112876149ce565b5b602002015160ff16815181106112a1576112a06149ce565b5b6020026020010151612d05565b85826001600381106112c3576112c26149ce565b5b602002015160ff16815181106112dc576112db6149ce565b5b602002602001018190525061132585826002600381106112ff576112fe6149ce565b5b602002015160ff1681518110611318576113176149ce565b5b6020026020010151612d05565b858260026003811061133a576113396149ce565b5b602002015160ff1681518110611353576113526149ce565b5b6020026020010181905250611384858460ff1681518110611377576113766149ce565b5b6020026020010151612d3a565b858460ff168151811061139a576113996149ce565b5b6020026020010181905250836000600281106113b9576113b86149ce565b5b602002015160ff168360ff16141561150d5761140985856001600281106113e3576113e26149ce565b5b602002015160ff16815181106113fc576113fb6149ce565b5b6020026020010151612d98565b858560016002811061141e5761141d6149ce565b5b602002015160ff1681518110611437576114366149ce565b5b6020026020010181905250611480858560016002811061145a576114596149ce565b5b602002015160ff1681518110611473576114726149ce565b5b6020026020010151612df6565b8585600160028110611495576114946149ce565b5b602002015160ff16815181106114ae576114ad6149ce565b5b60200260200101819052507f58cf999f6795f5857eb2b3dc340e321768493fff3f14c70b6fdccfb57dae7ae4846001600281106114ee576114ed6149ce565b5b60200201516040516115009190614446565b60405180910390a161164b565b61154b8585600060028110611525576115246149ce565b5b602002015160ff168151811061153e5761153d6149ce565b5b6020026020010151612d98565b85856000600281106115605761155f6149ce565b5b602002015160ff1681518110611579576115786149ce565b5b60200260200101819052506115c2858560006002811061159c5761159b6149ce565b5b602002015160ff16815181106115b5576115b46149ce565b5b6020026020010151612df6565b85856000600281106115d7576115d66149ce565b5b602002015160ff16815181106115f0576115ef6149ce565b5b60200260200101819052507f58cf999f6795f5857eb2b3dc340e321768493fff3f14c70b6fdccfb57dae7ae4846000600281106116305761162f6149ce565b5b60200201516040516116429190614446565b60405180910390a15b7f553875a05605845d3c0472fc96b9aeadc5f68b4d29d75fb80cdb82e6d3d7984c8360405161167a9190614446565b60405180910390a160005b60088160ff16101561181757846000600281106116a5576116a46149ce565b5b602002015160ff168160ff161415806116dc5750846001600281106116cd576116cc6149ce565b5b602002015160ff168160ff1614155b806117055750816000600381106116f6576116f56149ce565b5b602002015160ff168160ff1614155b1561175257611730868260ff1681518110611723576117226149ce565b5b6020026020010151612e5d565b868260ff1681518110611746576117456149ce565b5b60200260200101819052505b81600060038110611766576117656149ce565b5b602002015160ff168160ff16146117bf5761179d868260ff16815181106117905761178f6149ce565b5b6020026020010151612e92565b868260ff16815181106117b3576117b26149ce565b5b60200260200101819052505b611803868260ff16815181106117d8576117d76149ce565b5b60200260200101518a8360ff16815181106117f6576117f56149ce565b5b6020026020010151612ec6565b50808061180f90614872565b915050611685565b506000611823886118e7565b90507f0dd461b3bce8ece8babd9a8d74634c83b1982571758bf7396925017ef3fa94db8260006003811061185a576118596149ce565b5b60200201518261188485600060038110611877576118766149ce565b5b602002015160ff16612fa4565b6040516118939392919061448a565b60405180910390a1816000600381106118af576118ae6149ce565b5b602002015160ff16965050505050505092915050565b600060056064836118d69190614626565b6118e09190614657565b9050919050565b6000605f6064836118f89190614626565b6119029190614657565b9050919050565b600061191484612fa4565b73ffffffffffffffffffffffffffffffffffffffff166108fc849081150290604051600060405180830381858888f19350505050158015611959573d6000803e3d6000fd5b50600760019054906101000a900473ffffffffffffffffffffffffffffffffffffffff1673ffffffffffffffffffffffffffffffffffffffff166108fc839081150290604051600060405180830381858888f193505050501580156119c2573d6000803e3d6000fd5b50600190509392505050565b60007f5ba069ac933e142a07029ea894d8bca55e0dcb57b727cb72b13f4de0f564e55e8383604051611a019291906141d4565b60405180910390a16000600867ffffffffffffffff811115611a2657611a256149fd565b5b604051908082528060200260200182016040528015611a5f57816020015b611a4c61371b565b815260200190600190039081611a445790505b50905060005b60088160ff161015611acb57611a97858260ff1681518110611a8a57611a896149ce565b5b6020026020010151610f37565b828260ff1681518110611aad57611aac6149ce565b5b60200260200101819052508080611ac390614872565b915050611a65565b506000611ad66129a5565b90506000611b1482600060028110611af157611af06149ce565b5b602002015183600160028110611b0a57611b096149ce565b5b6020020151612abf565b90506000604051806040016040528084600060028110611b3757611b366149ce565b5b602002015160ff1660ff16815260200184600160028110611b5b57611b5a6149ce565b5b602002015160ff1660ff1681525090506000611b778583612ae6565b9050611bb78582600060038110611b9157611b906149ce565b5b602002015160ff1681518110611baa57611ba96149ce565b5b602002602001015161303d565b8582600060038110611bcc57611bcb6149ce565b5b602002015160ff1681518110611be557611be46149ce565b5b6020026020010181905250611c2e8582600060038110611c0857611c076149ce565b5b602002015160ff1681518110611c2157611c206149ce565b5b6020026020010151612ca7565b8582600060038110611c4357611c426149ce565b5b602002015160ff1681518110611c5c57611c5b6149ce565b5b6020026020010181905250611ca58582600160038110611c7f57611c7e6149ce565b5b602002015160ff1681518110611c9857611c976149ce565b5b6020026020010151612d05565b8582600160038110611cba57611cb96149ce565b5b602002015160ff1681518110611cd357611cd26149ce565b5b6020026020010181905250611d1c8582600260038110611cf657611cf56149ce565b5b602002015160ff1681518110611d0f57611d0e6149ce565b5b6020026020010151612d05565b8582600260038110611d3157611d306149ce565b5b602002015160ff1681518110611d4a57611d496149ce565b5b6020026020010181905250611d7b858460ff1681518110611d6e57611d6d6149ce565b5b6020026020010151612d3a565b858460ff1681518110611d9157611d906149ce565b5b602002602001018190525083600060028110611db057611daf6149ce565b5b602002015160ff168360ff161415611f2157611e008585600160028110611dda57611dd96149ce565b5b602002015160ff1681518110611df357611df26149ce565b5b6020026020010151612d98565b8585600160028110611e1557611e146149ce565b5b602002015160ff1681518110611e2e57611e2d6149ce565b5b6020026020010181905250611e778585600160028110611e5157611e506149ce565b5b602002015160ff1681518110611e6a57611e696149ce565b5b6020026020010151612df6565b8585600160028110611e8c57611e8b6149ce565b5b602002015160ff1681518110611ea557611ea46149ce565b5b60200260200101819052507f58cf999f6795f5857eb2b3dc340e321768493fff3f14c70b6fdccfb57dae7ae48885600160028110611ee657611ee56149ce565b5b602002015160ff1681518110611eff57611efe6149ce565b5b6020026020010151604051611f1491906143f5565b60405180910390a161207c565b611f5f8585600060028110611f3957611f386149ce565b5b602002015160ff1681518110611f5257611f516149ce565b5b6020026020010151612d98565b8585600060028110611f7457611f736149ce565b5b602002015160ff1681518110611f8d57611f8c6149ce565b5b6020026020010181905250611fd68585600060028110611fb057611faf6149ce565b5b602002015160ff1681518110611fc957611fc86149ce565b5b6020026020010151612df6565b8585600060028110611feb57611fea6149ce565b5b602002015160ff1681518110612004576120036149ce565b5b60200260200101819052507f58cf999f6795f5857eb2b3dc340e321768493fff3f14c70b6fdccfb57dae7ae48885600060028110612045576120446149ce565b5b602002015160ff168151811061205e5761205d6149ce565b5b602002602001015160405161207391906143f5565b60405180910390a15b7f553875a05605845d3c0472fc96b9aeadc5f68b4d29d75fb80cdb82e6d3d7984c836040516120ab9190614446565b60405180910390a160005b60088160ff16101561218757816000600381106120d6576120d56149ce565b5b602002015160ff168160ff161461212f5761210d868260ff1681518110612100576120ff6149ce565b5b6020026020010151613096565b868260ff1681518110612123576121226149ce565b5b60200260200101819052505b612173868260ff1681518110612148576121476149ce565b5b60200260200101518a8360ff1681518110612166576121656149ce565b5b6020026020010151612ec6565b50808061217f90614872565b9150506120b6565b506000612193886118e7565b90507f1a1082bb7b98b6dbd3da461efa0d7c22ca97350b59a260eb8a3eb6da60a76558826000600381106121ca576121c96149ce565b5b6020020151826040516121de929190614461565b60405180910390a188826000600381106121fb576121fa6149ce565b5b602002015160ff1681518110612214576122136149ce565b5b6020026020010151965050505050505092915050565b60007fdcde15c3f599419a19f4ce155dacf1bd4b28928bf552f45cdd937297eacc0ae4838360405161225d9291906141d4565b60405180910390a16000600867ffffffffffffffff811115612282576122816149fd565b5b6040519080825280602002602001820160405280156122bb57816020015b6122a861371b565b8152602001906001900390816122a05790505b50905060005b60088160ff161015612327576122f3858260ff16815181106122e6576122e56149ce565b5b6020026020010151610f37565b828260ff1681518110612309576123086149ce565b5b6020026020010181905250808061231f90614872565b9150506122c1565b5060006123326129a5565b905060006123708260006002811061234d5761234c6149ce565b5b602002015183600160028110612366576123656149ce565b5b6020020151612abf565b90506000604051806040016040528084600060028110612393576123926149ce565b5b602002015160ff1660ff168152602001846001600281106123b7576123b66149ce565b5b602002015160ff1660ff16815250905060006123d38583612ae6565b905061241385826000600381106123ed576123ec6149ce565b5b602002015160ff1681518110612406576124056149ce565b5b60200260200101516130cb565b8582600060038110612428576124276149ce565b5b602002015160ff1681518110612441576124406149ce565b5b602002602001018190525061248a8582600060038110612464576124636149ce565b5b602002015160ff168151811061247d5761247c6149ce565b5b6020026020010151612ca7565b858260006003811061249f5761249e6149ce565b5b602002015160ff16815181106124b8576124b76149ce565b5b602002602001018190525061250185826001600381106124db576124da6149ce565b5b602002015160ff16815181106124f4576124f36149ce565b5b6020026020010151612d05565b8582600160038110612516576125156149ce565b5b602002015160ff168151811061252f5761252e6149ce565b5b60200260200101819052506125788582600260038110612552576125516149ce565b5b602002015160ff168151811061256b5761256a6149ce565b5b6020026020010151612d05565b858260026003811061258d5761258c6149ce565b5b602002015160ff16815181106125a6576125a56149ce565b5b60200260200101819052506125d7858460ff16815181106125ca576125c96149ce565b5b6020026020010151612d3a565b858460ff16815181106125ed576125ec6149ce565b5b60200260200101819052508360006002811061260c5761260b6149ce565b5b602002015160ff168360ff1614156126ce5761265c8885600160028110612636576126356149ce565b5b602002015160ff168151811061264f5761264e6149ce565b5b602002602001015161314a565b507fc98f482e8d4bd36b9d5e73a0ae52c1087fcbb72dff56af788ffd1846bb422b8a8885600160028110612693576126926149ce565b5b602002015160ff16815181106126ac576126ab6149ce565b5b60200260200101516040516126c191906143f5565b60405180910390a161277a565b61270c88856000600281106126e6576126e56149ce565b5b602002015160ff16815181106126ff576126fe6149ce565b5b602002602001015161314a565b507fc98f482e8d4bd36b9d5e73a0ae52c1087fcbb72dff56af788ffd1846bb422b8a8885600060028110612743576127426149ce565b5b602002015160ff168151811061275c5761275b6149ce565b5b602002602001015160405161277191906143f5565b60405180910390a15b7f553875a05605845d3c0472fc96b9aeadc5f68b4d29d75fb80cdb82e6d3d7984c888460ff16815181106127b1576127b06149ce565b5b60200260200101516040516127c691906143f5565b60405180910390a160005b60088160ff1610156128a257816000600381106127f1576127f06149ce565b5b602002015160ff168160ff161461284a57612828868260ff168151811061281b5761281a6149ce565b5b60200260200101516131d0565b868260ff168151811061283e5761283d6149ce565b5b60200260200101819052505b61288e868260ff1681518110612863576128626149ce565b5b60200260200101518a8360ff1681518110612881576128806149ce565b5b6020026020010151612ec6565b50808061289a90614872565b9150506127d1565b5060006128ae886118e7565b90507f1368906ac3d78686ef434c7694b4169478fba0441d8708d5fac1552317d8dffe826000600381106128e5576128e46149ce565b5b6020020151826040516128f9929190614461565b60405180910390a18882600060038110612916576129156149ce565b5b602002015160ff168151811061292f5761292e6149ce565b5b6020026020010151965050505050505092915050565b6000807f6e58ad548d72b425ea94c15f453bf26caddb061d82b2551db7fdd3cefe0e994090508091505090565b600061297c612945565b60000160009054906101000a900473ffffffffffffffffffffffffffffffffffffffff16905090565b6129ad6137d2565b60006129b96093613205565b90505b60006028826129cb91906148e1565b60ff1614806129dd575060088160ff16105b156129f3576129ec60a7613205565b90506129bc565b6000600582612a0291906148e1565b90506000600883612a1391906148e1565b90508060ff168260ff161415612a3e57600383612a3091906148e1565b82612a3b91906145ef565b91505b6000612a498361322d565b905080612a6c57600384612a5d91906148e1565b6000612a6991906145ef565b92505b8285600060028110612a8157612a806149ce565b5b602002019060ff16908160ff16815250508185600160028110612aa757612aa66149ce565b5b602002019060ff16908160ff16815250505050505090565b600080612acc6002613205565b14612ada5781905080612adf565b829050805b5092915050565b612aee6137f4565b6000600867ffffffffffffffff811115612b0b57612b0a6149fd565b5b604051908082528060200260200182016040528015612b395781602001602082028036833780820191505090505b50905060005b6008811015612b8c57612b526005613205565b828281518110612b6557612b646149ce565b5b602002602001019060ff16908160ff16815250508080612b8490614829565b915050612b3f565b50612b95613816565b60005b60088160ff161015612c3957828160ff1681518110612bba57612bb96149ce565b5b602002602001015160ff16868260ff1681518110612bdb57612bda6149ce565b5b602002602001015160000151612bf19190614561565b61ffff16612bfd613260565b612c079190614626565b828260ff1660088110612c1d57612c1c6149ce565b5b6020020181815250508080612c3190614872565b915050612b98565b50612c448185613273565b9250505092915050565b612c5661371b565b60018260a001818151612c699190614561565b91509061ffff16908161ffff16815250506001826101a001818151612c8e9190614561565b91509061ffff16908161ffff1681525050819050919050565b612caf61371b565b600060016003612cc061020b613205565b612cca91906148b0565b612cd491906145ef565b90508060ff1683600001818151612ceb9190614561565b91509061ffff16908161ffff168152505082915050919050565b612d0d61371b565b6001826101a001818151612d219190614561565b91509061ffff16908161ffff1681525050819050919050565b612d4261371b565b600060016003612d53610300613205565b612d5d91906148b0565b612d6791906145ef565b90508060ff1683602001818151612d7e9190614561565b91509061ffff16908161ffff168152505082915050919050565b612da061371b565b600060016003612db1610250613205565b612dbb91906148b0565b612dc591906145ef565b90508060ff1683604001818151612ddc9190614561565b91509061ffff16908161ffff168152505082915050919050565b612dfe61371b565b60011515826101e0015115151415612e2d5761546042612e1e9190614599565b826101c0018181525050612e55565b61a8c042612e3b9190614599565b826101c001818151612e4d9190614599565b915081815250505b819050919050565b612e6561371b565b60018261016001818151612e799190614561565b91509061ffff16908161ffff1681525050819050919050565b612e9a61371b565b60018260c001818151612ead9190614561565b91509061ffff16908161ffff1681525050819050919050565b6000612ed0612972565b73ffffffffffffffffffffffffffffffffffffffff166341c254ad84846040518363ffffffff1660e01b8152600401612f0a9291906143ca565b602060405180830381600087803b158015612f2457600080fd5b505af1158015612f38573d6000803e3d6000fd5b505050506040513d601f19601f82011682018060405250810190612f5c9190613b83565b905080612f9e576040517f08c379a0000000000000000000000000000000000000000000000000000000008152600401612f959061438a565b60405180910390fd5b92915050565b6000612fae612972565b73ffffffffffffffffffffffffffffffffffffffff16636352211e836040518263ffffffff1660e01b8152600401612fe69190614410565b60206040518083038186803b158015612ffe57600080fd5b505afa158015613012573d6000803e3d6000fd5b505050506040513d601f19601f820116820180604052508101906130369190613ace565b9050919050565b61304561371b565b60018260e0018181516130589190614561565b91509061ffff16908161ffff16815250506001826101a00181815161307d9190614561565b91509061ffff16908161ffff1681525050819050919050565b61309e61371b565b600182610100018181516130b29190614561565b91509061ffff16908161ffff1681525050819050919050565b6130d361371b565b600182610120018181516130e79190614561565b91509061ffff16908161ffff16815250506001826101600181815161310c9190614561565b91509061ffff16908161ffff16815250506001826101a0018181516131319190614561565b91509061ffff16908161ffff1681525050819050919050565b6000613154612972565b73ffffffffffffffffffffffffffffffffffffffff166342842e0e61317884612fa4565b6000856040518463ffffffff1660e01b81526004016131999392919061413d565b600060405180830381600087803b1580156131b357600080fd5b505af11580156131c7573d6000803e3d6000fd5b50505050919050565b6131d861371b565b600182610140018181516131ec9190614561565b91509061ffff16908161ffff1681525050819050919050565b6000600182613212613384565b61321c91906148b0565b6132269190614599565b9050919050565b600060088260ff16108015613246575060008260ff1610155b61325457600090508061325a565b60019050805b50919050565b600061326a61349f565b60000154905090565b61327b6137f4565b6000614e209050600080600080600090505b60088160ff16101561334a57866000600281106132ad576132ac6149ce565b5b602002015160ff168160ff161415806132e45750866001600281106132d5576132d46149ce565b5b602002015160ff168160ff1614155b15613337578461ffff16888260ff1660088110613304576133036149ce565b5b6020020151101561333657829150839250809350878160ff166008811061332e5761332d6149ce565b5b602002015194505b5b808061334290614872565b91505061328d565b5060405180606001604052808460ff1660ff1681526020018360ff1660ff1681526020018260ff1660ff1681525094505050505092915050565b60008061338f6134cc565b905080600301548160040160009054906101000a900473ffffffffffffffffffffffffffffffffffffffff1673ffffffffffffffffffffffffffffffffffffffff166370a08231306040518263ffffffff1660e01b81526004016133f39190614122565b60206040518083038186803b15801561340b57600080fd5b505afa15801561341f573d6000803e3d6000fd5b505050506040513d601f19601f820116820180604052508101906134439190613c38565b1015613484576040517f08c379a000000000000000000000000000000000000000000000000000000000815260040161347b9061436a565b60405180910390fd5b613496816002015482600301546134f9565b60001c91505090565b6000807f02fc0afcebaedec558e2b3aeb5934956cb807ee361f3900ac6f309e4fe30d45b90508091505090565b6000807fcd0c49d5c8438d0944f64e0d3825bed3b606f318474213a77860c93bca5ed99990508091505090565b6000806135046134cc565b90508060040160009054906101000a900473ffffffffffffffffffffffffffffffffffffffff1673ffffffffffffffffffffffffffffffffffffffff16634000aea08260000160009054906101000a900473ffffffffffffffffffffffffffffffffffffffff1685876000604051602001613580929190614204565b6040516020818303038152906040526040518463ffffffff1660e01b81526004016135ad93929190614174565b602060405180830381600087803b1580156135c757600080fd5b505af11580156135db573d6000803e3d6000fd5b505050506040513d601f19601f820116820180604052508101906135ff9190613b83565b506000613624856000308560060160008a815260200190815260200160002054613684565b90506001826006016000878152602001908152602001600020546136489190614599565b82600601600087815260200190815260200160002081905550600061366d86836136c0565b905080836007018190555080935050505092915050565b60008484848460405160200161369d949392919061422d565b6040516020818303038152906040528051906020012060001c9050949350505050565b600082826040516020016136d59291906140f6565b60405160208183030381529060405280519060200120905092915050565b50805460008255600f0160109004906000526020600020908101906137189190613839565b50565b604051806102000160405280600061ffff168152602001600061ffff168152602001600061ffff168152602001600061ffff168152602001600061ffff168152602001600061ffff168152602001600061ffff168152602001600061ffff168152602001600061ffff168152602001600061ffff168152602001600061ffff168152602001600061ffff168152602001600061ffff168152602001600061ffff168152602001600081526020016000151581525090565b6040518060400160405280600290602082028036833780820191505090505090565b6040518060600160405280600390602082028036833780820191505090505090565b604051806101000160405280600890602082028036833780820191505090505090565b5b8082111561385257600081600090555060010161383a565b5090565b60008135905061386581614c03565b92915050565b60008151905061387a81614c03565b92915050565b60008151905061388f81614c1a565b92915050565b60008083601f8401126138ab576138aa614a31565b5b8235905067ffffffffffffffff8111156138c8576138c7614a2c565b5b6020830191508360018202830111156138e4576138e3614a3b565b5b9250929050565b6000610200828403121561390257613901614a36565b5b61390d6102006144c1565b9050600061391d84828501613a7a565b600083015250602061393184828501613a7a565b602083015250604061394584828501613a7a565b604083015250606061395984828501613a7a565b606083015250608061396d84828501613a7a565b60808301525060a061398184828501613a7a565b60a08301525060c061399584828501613a7a565b60c08301525060e06139a984828501613a7a565b60e0830152506101006139be84828501613a7a565b610100830152506101206139d484828501613a7a565b610120830152506101406139ea84828501613a7a565b61014083015250610160613a0084828501613a7a565b61016083015250610180613a1684828501613a7a565b610180830152506101a0613a2c84828501613a7a565b6101a0830152506101c0613a4284828501613aa4565b6101c0830152506101e0613a5884828501613880565b6101e08301525092915050565b600081359050613a7481614c31565b92915050565b600081519050613a8981614c31565b92915050565b600081359050613a9e81614c48565b92915050565b600081519050613ab381614c48565b92915050565b600081359050613ac881614c5f565b92915050565b600060208284031215613ae457613ae3614a45565b5b6000613af28482850161386b565b91505092915050565b600080600080600060808688031215613b1757613b16614a45565b5b6000613b2588828901613856565b9550506020613b3688828901613856565b9450506040613b4788828901613a8f565b935050606086013567ffffffffffffffff811115613b6857613b67614a40565b5b613b7488828901613895565b92509250509295509295909350565b600060208284031215613b9957613b98614a45565b5b6000613ba784828501613880565b91505092915050565b60006102008284031215613bc757613bc6614a45565b5b6000613bd5848285016138eb565b91505092915050565b600060208284031215613bf457613bf3614a45565b5b6000613c0284828501613a65565b91505092915050565b600060208284031215613c2157613c20614a45565b5b6000613c2f84828501613a8f565b91505092915050565b600060208284031215613c4e57613c4d614a45565b5b6000613c5c84828501613aa4565b91505092915050565b600060208284031215613c7b57613c7a614a45565b5b6000613c8984828501613ab9565b91505092915050565b6000613c9e8383614085565b60208301905092915050565b613cb3816146b1565b82525050565b6000613cc48261450b565b613cce818561452e565b9350613cd9836144e6565b8060005b83811015613d0a578151613cf18882613c92565b9750613cfc83614521565b925050600181019050613cdd565b5085935050505092915050565b613d20816146c3565b82525050565b613d2f816146cf565b82525050565b613d46613d41826146cf565b61489c565b82525050565b613d55816146d9565b82525050565b6000613d6682614516565b613d70818561453f565b9350613d80818560208601614793565b613d8981614a4a565b840191505092915050565b613d9d8161475d565b82525050565b60008154613db0816147c6565b613dba8186614550565b94506001821660008114613dd55760018114613de757613e1a565b60ff1983168652602086019350613e1a565b613df0856144f6565b60005b83811015613e1257815481890152600182019150602081019050613df3565b808801955050505b50505092915050565b6000613e30601e83614550565b9150613e3b82614a5b565b602082019050919050565b6000613e53601d83614550565b9150613e5e82614a84565b602082019050919050565b6000613e76602683614550565b9150613e8182614aad565b604082019050919050565b6000613e99601a83614550565b9150613ea482614afc565b602082019050919050565b6000613ebc601e83614550565b9150613ec782614b25565b602082019050919050565b6000613edf601783614550565b9150613eea82614b4e565b602082019050919050565b6000613f02601383614550565b9150613f0d82614b77565b602082019050919050565b6000613f25602e83614550565b9150613f3082614ba0565b604082019050919050565b61020082016000820151613f526000850182614085565b506020820151613f656020850182614085565b506040820151613f786040850182614085565b506060820151613f8b6060850182614085565b506080820151613f9e6080850182614085565b5060a0820151613fb160a0850182614085565b5060c0820151613fc460c0850182614085565b5060e0820151613fd760e0850182614085565b50610100820151613fec610100850182614085565b50610120820151614001610120850182614085565b50610140820151614016610140850182614085565b5061016082015161402b610160850182614085565b50610180820151614040610180850182614085565b506101a08201516140556101a0850182614085565b506101c082015161406a6101c08501826140b2565b506101e082015161407f6101e0850182613d17565b50505050565b61408e81614718565b82525050565b61409d81614718565b82525050565b6140ac8161476f565b82525050565b6140bb81614746565b82525050565b6140ca81614746565b82525050565b6140e16140dc82614746565b6148a6565b82525050565b6140f081614781565b82525050565b60006141028285613d35565b60208201915061411282846140d0565b6020820191508190509392505050565b60006020820190506141376000830184613caa565b92915050565b60006060820190506141526000830186613caa565b61415f6020830185613caa565b61416c60408301846140a3565b949350505050565b60006060820190506141896000830186613caa565b61419660208301856140c1565b81810360408301526141a88184613d5b565b9050949350505050565b600060208201905081810360008301526141cc8184613cb9565b905092915050565b600060408201905081810360008301526141ee8185613cb9565b90506141fd60208301846140c1565b9392505050565b60006040820190506142196000830185613d26565b61422660208301846140c1565b9392505050565b60006080820190506142426000830187613d26565b61424f60208301866140c1565b61425c6040830185613caa565b61426960608301846140c1565b95945050505050565b60006020820190506142876000830184613d4c565b92915050565b60006020820190506142a26000830184613d94565b92915050565b600060208201905081810360008301526142c28184613da3565b905092915050565b600060208201905081810360008301526142e381613e23565b9050919050565b6000602082019050818103600083015261430381613e46565b9050919050565b6000602082019050818103600083015261432381613e69565b9050919050565b6000602082019050818103600083015261434381613e8c565b9050919050565b6000602082019050818103600083015261436381613eaf565b9050919050565b6000602082019050818103600083015261438381613ed2565b9050919050565b600060208201905081810360008301526143a381613ef5565b9050919050565b600060208201905081810360008301526143c381613f18565b9050919050565b6000610220820190506143e06000830185613f3b565b6143ee610200830184614094565b9392505050565b600060208201905061440a6000830184614094565b92915050565b600060208201905061442560008301846140a3565b92915050565b600060208201905061444060008301846140c1565b92915050565b600060208201905061445b60008301846140e7565b92915050565b600060408201905061447660008301856140e7565b61448360208301846140c1565b9392505050565b600060608201905061449f60008301866140e7565b6144ac60208301856140c1565b6144b96040830184613caa565b949350505050565b60006144cb6144dc565b90506144d782826147f8565b919050565b6000604051905090565b6000819050602082019050919050565b60008190508160005260206000209050919050565b600081519050919050565b600081519050919050565b6000602082019050919050565b600082825260208201905092915050565b600082825260208201905092915050565b600082825260208201905092915050565b600061456c82614718565b915061457783614718565b92508261ffff0382111561458e5761458d614912565b5b828201905092915050565b60006145a482614746565b91506145af83614746565b9250827fffffffffffffffffffffffffffffffffffffffffffffffffffffffffffffffff038211156145e4576145e3614912565b5b828201905092915050565b60006145fa82614750565b915061460583614750565b92508260ff0382111561461b5761461a614912565b5b828201905092915050565b600061463182614746565b915061463c83614746565b92508261464c5761464b614941565b5b828204905092915050565b600061466282614746565b915061466d83614746565b9250817fffffffffffffffffffffffffffffffffffffffffffffffffffffffffffffffff04831182151516156146a6576146a5614912565b5b828202905092915050565b60006146bc82614726565b9050919050565b60008115159050919050565b6000819050919050565b60007fffffffff0000000000000000000000000000000000000000000000000000000082169050919050565b600081905061471382614bef565b919050565b600061ffff82169050919050565b600073ffffffffffffffffffffffffffffffffffffffff82169050919050565b6000819050919050565b600060ff82169050919050565b600061476882614705565b9050919050565b600061477a82614718565b9050919050565b600061478c82614750565b9050919050565b60005b838110156147b1578082015181840152602081019050614796565b838111156147c0576000848401525b50505050565b600060028204905060018216806147de57607f821691505b602082108114156147f2576147f161499f565b5b50919050565b61480182614a4a565b810181811067ffffffffffffffff821117156148205761481f6149fd565b5b80604052505050565b600061483482614746565b91507fffffffffffffffffffffffffffffffffffffffffffffffffffffffffffffffff82141561486757614866614912565b5b600182019050919050565b600061487d82614750565b915060ff82141561489157614890614912565b5b600182019050919050565b6000819050919050565b6000819050919050565b60006148bb82614746565b91506148c683614746565b9250826148d6576148d5614941565b5b828206905092915050565b60006148ec82614750565b91506148f783614750565b92508261490757614906614941565b5b828206905092915050565b7f4e487b7100000000000000000000000000000000000000000000000000000000600052601160045260246000fd5b7f4e487b7100000000000000000000000000000000000000000000000000000000600052601260045260246000fd5b7f4e487b7100000000000000000000000000000000000000000000000000000000600052602160045260246000fd5b7f4e487b7100000000000000000000000000000000000000000000000000000000600052602260045260246000fd5b7f4e487b7100000000000000000000000000000000000000000000000000000000600052603260045260246000fd5b7f4e487b7100000000000000000000000000000000000000000000000000000000600052604160045260246000fd5b600080fd5b600080fd5b600080fd5b600080fd5b600080fd5b600080fd5b6000601f19601f8301169050919050565b7f596f752063616e206e6f742063616c6c20746869732066756e6374696f6e0000600082015250565b7f596f752063616e206e6f74206a6f696e20617420746869732074696d65000000600082015250565b7f596f757220726170746f72206973206e6f7420617661696c61626c652072696760008201527f6874206e6f770000000000000000000000000000000000000000000000000000602082015250565b7f596f7520646f206e6f74206f776e207468697320726170746f72000000000000600082015250565b7f596f752068617665206e6f742073656e7420656e6f7567682066756e64730000600082015250565b7f4e6f7420656e6f756768204c494e4b2062616c616e6365000000000000000000600082015250565b7f54686572652077617320612070726f626c656d00000000000000000000000000600082015250565b7f546869732072616365207175657565206973206e6f7420617661696c61626c6560008201527f20617420746865206d6f6d656e74000000000000000000000000000000000000602082015250565b60048110614c0057614bff614970565b5b50565b614c0c816146b1565b8114614c1757600080fd5b50565b614c23816146c3565b8114614c2e57600080fd5b50565b614c3a81614718565b8114614c4557600080fd5b50565b614c5181614746565b8114614c5c57600080fd5b50565b614c6881614750565b8114614c7357600080fd5b5056fea2646970667358221220e483012956f2dc81c2f7b53b52ca5cb579d41ebd1238d5f5fd324e8538c6f2cb64736f6c63430008070033",
  "linkReferences": {},
  "deployedLinkReferences": {}
}