{
  "_format": "hh-sol-artifact-1",
  "contractName": "Minter",
  "sourceName": "contracts/minter.sol",
  "abi": [
    {
      "inputs": [
        {
          "internalType": "address[]",
          "name": "_rewardedAddresses",
          "type": "address[]"
        },
        {
          "internalType": "address[]",
          "name": "_paymentsTo",
          "type": "address[]"
        },
        {
          "internalType": "address",
          "name": "_vrfCoordinator",
          "type": "address"
        },
        {
          "internalType": "address",
          "name": "_linkToken",
          "type": "address"
        },
        {
          "internalType": "bytes32",
          "name": "_keyHash",
          "type": "bytes32"
        },
        {
          "internalType": "uint256",
          "name": "_OracleFee",
          "type": "uint256"
        }
      ],
      "stateMutability": "nonpayable",
      "type": "constructor"
    },
    {
      "anonymous": false,
      "inputs": [
        {
          "indexed": true,
          "internalType": "address",
          "name": "owner",
          "type": "address"
        },
        {
          "indexed": true,
          "internalType": "address",
          "name": "approved",
          "type": "address"
        },
        {
          "indexed": true,
          "internalType": "uint256",
          "name": "tokenId",
          "type": "uint256"
        }
      ],
      "name": "Approval",
      "type": "event"
    },
    {
      "anonymous": false,
      "inputs": [
        {
          "indexed": true,
          "internalType": "address",
          "name": "owner",
          "type": "address"
        },
        {
          "indexed": true,
          "internalType": "address",
          "name": "operator",
          "type": "address"
        },
        {
          "indexed": false,
          "internalType": "bool",
          "name": "approved",
          "type": "bool"
        }
      ],
      "name": "ApprovalForAll",
      "type": "event"
    },
    {
      "anonymous": false,
      "inputs": [
        {
          "indexed": false,
          "internalType": "address",
          "name": "winner",
          "type": "address"
        }
      ],
      "name": "PorscheWinner",
      "type": "event"
    },
    {
      "anonymous": false,
      "inputs": [
        {
          "indexed": true,
          "internalType": "address",
          "name": "from",
          "type": "address"
        },
        {
          "indexed": true,
          "internalType": "address",
          "name": "to",
          "type": "address"
        },
        {
          "indexed": true,
          "internalType": "uint256",
          "name": "tokenId",
          "type": "uint256"
        }
      ],
      "name": "Transfer",
      "type": "event"
    },
    {
      "inputs": [
        {
          "internalType": "address",
          "name": "to",
          "type": "address"
        },
        {
          "internalType": "uint256",
          "name": "tokenId",
          "type": "uint256"
        }
      ],
      "name": "approve",
      "outputs": [],
      "stateMutability": "nonpayable",
      "type": "function"
    },
    {
      "inputs": [
        {
          "internalType": "address",
          "name": "owner",
          "type": "address"
        }
      ],
      "name": "balanceOf",
      "outputs": [
        {
          "internalType": "uint256",
          "name": "",
          "type": "uint256"
        }
      ],
      "stateMutability": "view",
      "type": "function"
    },
    {
      "inputs": [],
      "name": "flipSaleState",
      "outputs": [],
      "stateMutability": "nonpayable",
      "type": "function"
    },
    {
      "inputs": [
        {
          "internalType": "uint16",
          "name": "",
          "type": "uint16"
        }
      ],
      "name": "foundingRaptor",
      "outputs": [
        {
          "internalType": "bool",
          "name": "",
          "type": "bool"
        }
      ],
      "stateMutability": "view",
      "type": "function"
    },
    {
      "inputs": [
        {
          "internalType": "uint256",
          "name": "tokenId",
          "type": "uint256"
        }
      ],
      "name": "getApproved",
      "outputs": [
        {
          "internalType": "address",
          "name": "",
          "type": "address"
        }
      ],
      "stateMutability": "view",
      "type": "function"
    },
    {
      "inputs": [
        {
          "internalType": "uint16",
          "name": "_raptor",
          "type": "uint16"
        }
      ],
      "name": "getCoolDown",
      "outputs": [
        {
          "internalType": "uint32",
          "name": "",
          "type": "uint32"
        }
      ],
      "stateMutability": "view",
      "type": "function"
    },
    {
      "inputs": [
        {
          "internalType": "uint8",
          "name": "_amount",
          "type": "uint8"
        }
      ],
      "name": "getPrice",
      "outputs": [
        {
          "internalType": "uint256",
          "name": "givenPrice",
          "type": "uint256"
        }
      ],
      "stateMutability": "view",
      "type": "function"
    },
    {
      "inputs": [
        {
          "internalType": "uint16",
          "name": "_raptor",
          "type": "uint16"
        }
      ],
      "name": "getSpeed",
      "outputs": [
        {
          "internalType": "uint16",
          "name": "",
          "type": "uint16"
        }
      ],
      "stateMutability": "view",
      "type": "function"
    },
    {
      "inputs": [
        {
          "internalType": "uint16",
          "name": "_raptor",
          "type": "uint16"
        }
      ],
      "name": "getStrength",
      "outputs": [
        {
          "internalType": "uint16",
          "name": "",
          "type": "uint16"
        }
      ],
      "stateMutability": "view",
      "type": "function"
    },
    {
      "inputs": [
        {
          "internalType": "uint16",
          "name": "_raptor",
          "type": "uint16"
        },
        {
          "internalType": "uint32",
          "name": "newTime",
          "type": "uint32"
        }
      ],
      "name": "increaseCooldownTime",
      "outputs": [
        {
          "internalType": "bool",
          "name": "",
          "type": "bool"
        }
      ],
      "stateMutability": "nonpayable",
      "type": "function"
    },
    {
      "inputs": [
        {
          "internalType": "address",
          "name": "owner",
          "type": "address"
        },
        {
          "internalType": "address",
          "name": "operator",
          "type": "address"
        }
      ],
      "name": "isApprovedForAll",
      "outputs": [
        {
          "internalType": "bool",
          "name": "",
          "type": "bool"
        }
      ],
      "stateMutability": "view",
      "type": "function"
    },
    {
      "inputs": [
        {
          "internalType": "uint16",
          "name": "raptor",
          "type": "uint16"
        }
      ],
      "name": "isFoundingRaptor",
      "outputs": [
        {
          "internalType": "bool",
          "name": "",
          "type": "bool"
        }
      ],
      "stateMutability": "view",
      "type": "function"
    },
    {
      "inputs": [
        {
          "internalType": "uint8",
          "name": "_amount",
          "type": "uint8"
        }
      ],
      "name": "mint",
      "outputs": [],
      "stateMutability": "payable",
      "type": "function"
    },
    {
      "inputs": [],
      "name": "name",
      "outputs": [
        {
          "internalType": "string",
          "name": "",
          "type": "string"
        }
      ],
      "stateMutability": "view",
      "type": "function"
    },
    {
      "inputs": [
        {
          "internalType": "uint256",
          "name": "tokenId",
          "type": "uint256"
        }
      ],
      "name": "ownerOf",
      "outputs": [
        {
          "internalType": "address",
          "name": "",
          "type": "address"
        }
      ],
      "stateMutability": "view",
      "type": "function"
    },
    {
      "inputs": [
        {
          "internalType": "uint256",
          "name": "",
          "type": "uint256"
        }
      ],
      "name": "paymentsTo",
      "outputs": [
        {
          "internalType": "address",
          "name": "",
          "type": "address"
        }
      ],
      "stateMutability": "view",
      "type": "function"
    },
    {
      "inputs": [
        {
          "internalType": "uint16",
          "name": "",
          "type": "uint16"
        }
      ],
      "name": "raptorStats",
      "outputs": [
        {
          "internalType": "uint16",
          "name": "speed",
          "type": "uint16"
        },
        {
          "internalType": "uint16",
          "name": "strength",
          "type": "uint16"
        },
        {
          "internalType": "uint16",
          "name": "fightsWon",
          "type": "uint16"
        },
        {
          "internalType": "uint16",
          "name": "quickPlayRacesWon",
          "type": "uint16"
        },
        {
          "internalType": "uint16",
          "name": "compRacesWon",
          "type": "uint16"
        },
        {
          "internalType": "uint16",
          "name": "deathRacesWon",
          "type": "uint16"
        },
        {
          "internalType": "uint16",
          "name": "totalRacesTop3Finish",
          "type": "uint16"
        },
        {
          "internalType": "uint32",
          "name": "cooldownTime",
          "type": "uint32"
        }
      ],
      "stateMutability": "view",
      "type": "function"
    },
    {
      "inputs": [
        {
          "internalType": "bytes32",
          "name": "requestId",
          "type": "bytes32"
        },
        {
          "internalType": "uint256",
          "name": "randomness",
          "type": "uint256"
        }
      ],
      "name": "rawFulfillRandomness",
      "outputs": [],
      "stateMutability": "nonpayable",
      "type": "function"
    },
    {
      "inputs": [],
      "name": "reveal",
      "outputs": [],
      "stateMutability": "nonpayable",
      "type": "function"
    },
    {
      "inputs": [
        {
          "internalType": "address",
          "name": "from",
          "type": "address"
        },
        {
          "internalType": "address",
          "name": "to",
          "type": "address"
        },
        {
          "internalType": "uint256",
          "name": "tokenId",
          "type": "uint256"
        }
      ],
      "name": "safeTransferFrom",
      "outputs": [],
      "stateMutability": "nonpayable",
      "type": "function"
    },
    {
      "inputs": [
        {
          "internalType": "address",
          "name": "from",
          "type": "address"
        },
        {
          "internalType": "address",
          "name": "to",
          "type": "address"
        },
        {
          "internalType": "uint256",
          "name": "tokenId",
          "type": "uint256"
        },
        {
          "internalType": "bytes",
          "name": "_data",
          "type": "bytes"
        }
      ],
      "name": "safeTransferFrom",
      "outputs": [],
      "stateMutability": "nonpayable",
      "type": "function"
    },
    {
      "inputs": [
        {
          "internalType": "address",
          "name": "_admin",
          "type": "address"
        }
      ],
      "name": "setAdmin",
      "outputs": [],
      "stateMutability": "nonpayable",
      "type": "function"
    },
    {
      "inputs": [
        {
          "internalType": "address",
          "name": "operator",
          "type": "address"
        },
        {
          "internalType": "bool",
          "name": "approved",
          "type": "bool"
        }
      ],
      "name": "setApprovalForAll",
      "outputs": [],
      "stateMutability": "nonpayable",
      "type": "function"
    },
    {
      "inputs": [
        {
          "internalType": "uint256",
          "name": "fundsToSplit",
          "type": "uint256"
        }
      ],
      "name": "splitFunds",
      "outputs": [],
      "stateMutability": "payable",
      "type": "function"
    },
    {
      "inputs": [
        {
          "internalType": "bytes4",
          "name": "interfaceId",
          "type": "bytes4"
        }
      ],
      "name": "supportsInterface",
      "outputs": [
        {
          "internalType": "bool",
          "name": "",
          "type": "bool"
        }
      ],
      "stateMutability": "view",
      "type": "function"
    },
    {
      "inputs": [],
      "name": "symbol",
      "outputs": [
        {
          "internalType": "string",
          "name": "",
          "type": "string"
        }
      ],
      "stateMutability": "view",
      "type": "function"
    },
    {
      "inputs": [
        {
          "internalType": "uint256",
          "name": "index",
          "type": "uint256"
        }
      ],
      "name": "tokenByIndex",
      "outputs": [
        {
          "internalType": "uint256",
          "name": "",
          "type": "uint256"
        }
      ],
      "stateMutability": "view",
      "type": "function"
    },
    {
      "inputs": [
        {
          "internalType": "address",
          "name": "owner",
          "type": "address"
        },
        {
          "internalType": "uint256",
          "name": "index",
          "type": "uint256"
        }
      ],
      "name": "tokenOfOwnerByIndex",
      "outputs": [
        {
          "internalType": "uint256",
          "name": "",
          "type": "uint256"
        }
      ],
      "stateMutability": "view",
      "type": "function"
    },
    {
      "inputs": [
        {
          "internalType": "uint256",
          "name": "tokenId",
          "type": "uint256"
        }
      ],
      "name": "tokenURI",
      "outputs": [
        {
          "internalType": "string",
          "name": "",
          "type": "string"
        }
      ],
      "stateMutability": "view",
      "type": "function"
    },
    {
      "inputs": [
        {
          "internalType": "uint16",
          "name": "_tokenId",
          "type": "uint16"
        }
      ],
      "name": "tokenURI",
      "outputs": [
        {
          "internalType": "string",
          "name": "uri",
          "type": "string"
        }
      ],
      "stateMutability": "view",
      "type": "function"
    },
    {
      "inputs": [],
      "name": "totalSupply",
      "outputs": [
        {
          "internalType": "uint256",
          "name": "",
          "type": "uint256"
        }
      ],
      "stateMutability": "view",
      "type": "function"
    },
    {
      "inputs": [
        {
          "internalType": "address",
          "name": "from",
          "type": "address"
        },
        {
          "internalType": "address",
          "name": "to",
          "type": "address"
        },
        {
          "internalType": "uint256",
          "name": "tokenId",
          "type": "uint256"
        }
      ],
      "name": "transferFrom",
      "outputs": [],
      "stateMutability": "nonpayable",
      "type": "function"
    },
    {
      "inputs": [
        {
          "internalType": "address",
          "name": "_gameAddress",
          "type": "address"
        }
      ],
      "name": "updateGameAddress",
      "outputs": [],
      "stateMutability": "nonpayable",
      "type": "function"
    },
    {
      "inputs": [
        {
          "internalType": "address",
          "name": "_paymentTo",
          "type": "address"
        },
        {
          "internalType": "uint8",
          "name": "index",
          "type": "uint8"
        }
      ],
      "name": "updatePaymentTo",
      "outputs": [],
      "stateMutability": "nonpayable",
      "type": "function"
    },
    {
      "inputs": [
        {
          "internalType": "uint16",
          "name": "_raptor",
          "type": "uint16"
        }
      ],
      "name": "upgradeCompWins",
      "outputs": [
        {
          "internalType": "bool",
          "name": "",
          "type": "bool"
        }
      ],
      "stateMutability": "nonpayable",
      "type": "function"
    },
    {
      "inputs": [
        {
          "internalType": "uint16",
          "name": "_raptor",
          "type": "uint16"
        }
      ],
      "name": "upgradeDRWins",
      "outputs": [
        {
          "internalType": "bool",
          "name": "",
          "type": "bool"
        }
      ],
      "stateMutability": "nonpayable",
      "type": "function"
    },
    {
      "inputs": [
        {
          "internalType": "uint16",
          "name": "_raptor",
          "type": "uint16"
        }
      ],
      "name": "upgradeFightsWon",
      "outputs": [
        {
          "internalType": "bool",
          "name": "",
          "type": "bool"
        }
      ],
      "stateMutability": "nonpayable",
      "type": "function"
    },
    {
      "inputs": [
        {
          "internalType": "uint16",
          "name": "_raptor",
          "type": "uint16"
        }
      ],
      "name": "upgradeQPWins",
      "outputs": [
        {
          "internalType": "bool",
          "name": "",
          "type": "bool"
        }
      ],
      "stateMutability": "nonpayable",
      "type": "function"
    },
    {
      "inputs": [
        {
          "internalType": "uint16",
          "name": "_raptor",
          "type": "uint16"
        },
        {
          "internalType": "uint8",
          "name": "_amount",
          "type": "uint8"
        }
      ],
      "name": "upgradeSpeed",
      "outputs": [
        {
          "internalType": "bool",
          "name": "",
          "type": "bool"
        }
      ],
      "stateMutability": "nonpayable",
      "type": "function"
    },
    {
      "inputs": [
        {
          "internalType": "uint16",
          "name": "_raptor",
          "type": "uint16"
        },
        {
          "internalType": "uint8",
          "name": "_amount",
          "type": "uint8"
        }
      ],
      "name": "upgradeStrength",
      "outputs": [
        {
          "internalType": "bool",
          "name": "",
          "type": "bool"
        }
      ],
      "stateMutability": "nonpayable",
      "type": "function"
    },
    {
      "inputs": [
        {
          "internalType": "uint16",
          "name": "_raptor",
          "type": "uint16"
        }
      ],
      "name": "upgradeTop3Finishes",
      "outputs": [
        {
          "internalType": "bool",
          "name": "",
          "type": "bool"
        }
      ],
      "stateMutability": "nonpayable",
      "type": "function"
    },
    {
      "inputs": [
        {
          "internalType": "address",
          "name": "_wallet",
          "type": "address"
        }
      ],
      "name": "walletOfOwner",
      "outputs": [
        {
          "internalType": "uint16[]",
          "name": "ids",
          "type": "uint16[]"
        }
      ],
      "stateMutability": "view",
      "type": "function"
    },
    {
      "stateMutability": "payable",
      "type": "receive"
    }
  ],
  "bytecode": "0x60c06040526040518060400160405280601d81526020017f68747470733a2f2f676174657761792e70696e6174612e636c6f75642f000000815250600c90805190602001906200005192919062001048565b506040518060400160405280600981526020017f536f6d65204349442f0000000000000000000000000000000000000000000000815250600d90805190602001906200009f92919062001048565b506040518060400160405280600581526020017f2e4a534f4e000000000000000000000000000000000000000000000000000000815250600e9080519060200190620000ed92919062001048565b506040518060400160405280601081526020017f4e6f7452657665616c6564204861736800000000000000000000000000000000815250600f90805190602001906200013b92919062001048565b50671bc16d674ec800006014556000601560006101000a81548161ffff021916908361ffff160217905550612710601560026101000a81548161ffff021916908361ffff1602179055506040518060200160405280600360ff168152506017906001620001aa929190620010d9565b50348015620001b857600080fd5b5060405162007859380380620078598339818101604052810190620001de919062001328565b83836040518060400160405280601181526020017f526163696e6720526170746f72732056320000000000000000000000000000008152506040518060400160405280600281526020017f525200000000000000000000000000000000000000000000000000000000000081525081600090805190602001906200026492919062001048565b5080600190805190602001906200027d92919062001048565b5050508173ffffffffffffffffffffffffffffffffffffffff1660a08173ffffffffffffffffffffffffffffffffffffffff1660601b815250508073ffffffffffffffffffffffffffffffffffffffff1660808173ffffffffffffffffffffffffffffffffffffffff1660601b815250505050816011819055508060128190555085601690805190602001906200031692919062001187565b506001600b60146101000a81548160ff02191690831515021790555062000342620003b760201b60201c565b600b60006101000a81548173ffffffffffffffffffffffffffffffffffffffff021916908373ffffffffffffffffffffffffffffffffffffffff16021790555084601890805190602001906200039a92919062001187565b50620003ab620003bf60201b60201c565b505050505050620019b2565b600033905090565b60005b6016805490508160ff1610156200072a5760005b60178260ff1681548110620003f057620003ef620017f1565b5b90600052602060002090602091828204019190069054906101000a900460ff1660ff168160ff16101562000713576001601560008282829054906101000a900461ffff166200044091906200158f565b92506101000a81548161ffff021916908361ffff160217905550620004c460168360ff1681548110620004785762000477620017f1565b5b9060005260206000200160009054906101000a900473ffffffffffffffffffffffffffffffffffffffff16601560009054906101000a900461ffff1661ffff166200072d60201b60201c565b6200050c601560059054906101000a900473ffffffffffffffffffffffffffffffffffffffff16601560009054906101000a900461ffff1661ffff166200092760201b60201c565b604051806101000160405280600161ffff168152602001600161ffff168152602001600061ffff168152602001600061ffff168152602001600061ffff168152602001600061ffff168152602001600061ffff1681526020014263ffffffff1681525060136000601560009054906101000a900461ffff1661ffff1661ffff16815260200190815260200160002060008201518160000160006101000a81548161ffff021916908361ffff16021790555060208201518160000160026101000a81548161ffff021916908361ffff16021790555060408201518160000160046101000a81548161ffff021916908361ffff16021790555060608201518160000160066101000a81548161ffff021916908361ffff16021790555060808201518160000160086101000a81548161ffff021916908361ffff16021790555060a082015181600001600a6101000a81548161ffff021916908361ffff16021790555060c082015181600001600c6101000a81548161ffff021916908361ffff16021790555060e082015181600001600e6101000a81548163ffffffff021916908363ffffffff160217905550905050600160196000601560009054906101000a900461ffff1661ffff1661ffff16815260200190815260200160002060006101000a81548160ff02191690831515021790555080806200070a9062001735565b915050620003d6565b508080620007219062001735565b915050620003c2565b50565b600073ffffffffffffffffffffffffffffffffffffffff168273ffffffffffffffffffffffffffffffffffffffff161415620007a0576040517f08c379a0000000000000000000000000000000000000000000000000000000008152600401620007979062001504565b60405180910390fd5b620007b181620009ed60201b60201c565b15620007f4576040517f08c379a0000000000000000000000000000000000000000000000000000000008152600401620007eb906200149e565b60405180910390fd5b620008086000838362000a5960201b60201c565b6001600360008473ffffffffffffffffffffffffffffffffffffffff1673ffffffffffffffffffffffffffffffffffffffff16815260200190815260200160002060008282546200085a9190620015ce565b92505081905550816002600083815260200190815260200160002060006101000a81548173ffffffffffffffffffffffffffffffffffffffff021916908373ffffffffffffffffffffffffffffffffffffffff160217905550808273ffffffffffffffffffffffffffffffffffffffff16600073ffffffffffffffffffffffffffffffffffffffff167fddf252ad1be2c89b69c2b068fc378daa952ba7f163c4a11628f55a4df523b3ef60405160405180910390a4620009236000838362000ba060201b60201c565b5050565b816004600083815260200190815260200160002060006101000a81548173ffffffffffffffffffffffffffffffffffffffff021916908373ffffffffffffffffffffffffffffffffffffffff160217905550808273ffffffffffffffffffffffffffffffffffffffff16620009a78362000ba560201b620016b01760201c565b73ffffffffffffffffffffffffffffffffffffffff167f8c5be1e5ebec7d5bd14f71427d1e84f3dd0314c0f7b2291e5b200ac8c7c3b92560405160405180910390a45050565b60008073ffffffffffffffffffffffffffffffffffffffff166002600084815260200190815260200160002060009054906101000a900473ffffffffffffffffffffffffffffffffffffffff1673ffffffffffffffffffffffffffffffffffffffff1614159050919050565b62000a7183838362000c5a60201b620029c11760201c565b600073ffffffffffffffffffffffffffffffffffffffff168373ffffffffffffffffffffffffffffffffffffffff16141562000abe5762000ab88162000c5f60201b60201c565b62000b06565b8173ffffffffffffffffffffffffffffffffffffffff168373ffffffffffffffffffffffffffffffffffffffff161462000b055762000b04838262000ca860201b60201c565b5b5b600073ffffffffffffffffffffffffffffffffffffffff168273ffffffffffffffffffffffffffffffffffffffff16141562000b535762000b4d8162000e2560201b60201c565b62000b9b565b8273ffffffffffffffffffffffffffffffffffffffff168273ffffffffffffffffffffffffffffffffffffffff161462000b9a5762000b99828262000f0160201b60201c565b5b5b505050565b505050565b6000806002600084815260200190815260200160002060009054906101000a900473ffffffffffffffffffffffffffffffffffffffff169050600073ffffffffffffffffffffffffffffffffffffffff168173ffffffffffffffffffffffffffffffffffffffff16141562000c51576040517f08c379a000000000000000000000000000000000000000000000000000000000815260040162000c4890620014e2565b60405180910390fd5b80915050919050565b505050565b6008805490506009600083815260200190815260200160002081905550600881908060018154018082558091505060019003906000526020600020016000909190919091505550565b6000600162000cc28462000f8d60201b62001d9c1760201c565b62000cce91906200162b565b905060006007600084815260200190815260200160002054905081811462000db4576000600660008673ffffffffffffffffffffffffffffffffffffffff1673ffffffffffffffffffffffffffffffffffffffff168152602001908152602001600020600084815260200190815260200160002054905080600660008773ffffffffffffffffffffffffffffffffffffffff1673ffffffffffffffffffffffffffffffffffffffff168152602001908152602001600020600084815260200190815260200160002081905550816007600083815260200190815260200160002081905550505b6007600084815260200190815260200160002060009055600660008573ffffffffffffffffffffffffffffffffffffffff1673ffffffffffffffffffffffffffffffffffffffff16815260200190815260200160002060008381526020019081526020016000206000905550505050565b6000600160088054905062000e3b91906200162b565b905060006009600084815260200190815260200160002054905060006008838154811062000e6e5762000e6d620017f1565b5b90600052602060002001549050806008838154811062000e935762000e92620017f1565b5b90600052602060002001819055508160096000838152602001908152602001600020819055506009600085815260200190815260200160002060009055600880548062000ee55762000ee4620017c2565b5b6001900381819060005260206000200160009055905550505050565b600062000f198362000f8d60201b62001d9c1760201c565b905081600660008573ffffffffffffffffffffffffffffffffffffffff1673ffffffffffffffffffffffffffffffffffffffff168152602001908152602001600020600083815260200190815260200160002081905550806007600084815260200190815260200160002081905550505050565b60008073ffffffffffffffffffffffffffffffffffffffff168273ffffffffffffffffffffffffffffffffffffffff16141562001001576040517f08c379a000000000000000000000000000000000000000000000000000000000815260040162000ff890620014c0565b60405180910390fd5b600360008373ffffffffffffffffffffffffffffffffffffffff1673ffffffffffffffffffffffffffffffffffffffff168152602001908152602001600020549050919050565b8280546200105690620016c9565b90600052602060002090601f0160209004810192826200107a5760008555620010c6565b82601f106200109557805160ff1916838001178555620010c6565b82800160010185558215620010c6579182015b82811115620010c5578251825591602001919060010190620010a8565b5b509050620010d5919062001216565b5090565b82805482825590600052602060002090601f01602090048101928215620011745791602002820160005b838211156200114357835183826101000a81548160ff021916908360ff160217905550926020019260010160208160000104928301926001030262001103565b8015620011725782816101000a81549060ff021916905560010160208160000104928301926001030262001143565b505b50905062001183919062001216565b5090565b82805482825590600052602060002090810192821562001203579160200282015b82811115620012025782518260006101000a81548173ffffffffffffffffffffffffffffffffffffffff021916908373ffffffffffffffffffffffffffffffffffffffff16021790555091602001919060010190620011a8565b5b50905062001212919062001216565b5090565b5b808211156200123157600081600090555060010162001217565b5090565b60006200124c62001246846200154f565b62001526565b9050808382526020820190508285602086028201111562001272576200127162001854565b5b60005b85811015620012a657816200128b8882620012b0565b84526020840193506020830192505060018101905062001275565b5050509392505050565b600081519050620012c18162001964565b92915050565b600082601f830112620012df57620012de6200184f565b5b8151620012f184826020860162001235565b91505092915050565b6000815190506200130b816200197e565b92915050565b600081519050620013228162001998565b92915050565b60008060008060008060c087890312156200134857620013476200185e565b5b600087015167ffffffffffffffff81111562001369576200136862001859565b5b6200137789828a01620012c7565b965050602087015167ffffffffffffffff8111156200139b576200139a62001859565b5b620013a989828a01620012c7565b9550506040620013bc89828a01620012b0565b9450506060620013cf89828a01620012b0565b9350506080620013e289828a01620012fa565b92505060a0620013f589828a0162001311565b9150509295509295509295565b600062001411601c836200157e565b91506200141e8262001874565b602082019050919050565b600062001438602a836200157e565b915062001445826200189d565b604082019050919050565b60006200145f6029836200157e565b91506200146c82620018ec565b604082019050919050565b6000620014866020836200157e565b915062001493826200193b565b602082019050919050565b60006020820190508181036000830152620014b98162001402565b9050919050565b60006020820190508181036000830152620014db8162001429565b9050919050565b60006020820190508181036000830152620014fd8162001450565b9050919050565b600060208201905081810360008301526200151f8162001477565b9050919050565b60006200153262001545565b9050620015408282620016ff565b919050565b6000604051905090565b600067ffffffffffffffff8211156200156d576200156c62001820565b5b602082029050602081019050919050565b600082825260208201905092915050565b60006200159c8262001684565b9150620015a98362001684565b92508261ffff03821115620015c357620015c262001764565b5b828201905092915050565b6000620015db82620016b2565b9150620015e883620016b2565b9250827fffffffffffffffffffffffffffffffffffffffffffffffffffffffffffffffff0382111562001620576200161f62001764565b5b828201905092915050565b60006200163882620016b2565b91506200164583620016b2565b9250828210156200165b576200165a62001764565b5b828203905092915050565b6000620016738262001692565b9050919050565b6000819050919050565b600061ffff82169050919050565b600073ffffffffffffffffffffffffffffffffffffffff82169050919050565b6000819050919050565b600060ff82169050919050565b60006002820490506001821680620016e257607f821691505b60208210811415620016f957620016f862001793565b5b50919050565b6200170a8262001863565b810181811067ffffffffffffffff821117156200172c576200172b62001820565b5b80604052505050565b60006200174282620016bc565b915060ff82141562001759576200175862001764565b5b600182019050919050565b7f4e487b7100000000000000000000000000000000000000000000000000000000600052601160045260246000fd5b7f4e487b7100000000000000000000000000000000000000000000000000000000600052602260045260246000fd5b7f4e487b7100000000000000000000000000000000000000000000000000000000600052603160045260246000fd5b7f4e487b7100000000000000000000000000000000000000000000000000000000600052603260045260246000fd5b7f4e487b7100000000000000000000000000000000000000000000000000000000600052604160045260246000fd5b600080fd5b600080fd5b600080fd5b600080fd5b6000601f19601f8301169050919050565b7f4552433732313a20746f6b656e20616c7265616479206d696e74656400000000600082015250565b7f4552433732313a2062616c616e636520717565727920666f7220746865207a6560008201527f726f206164647265737300000000000000000000000000000000000000000000602082015250565b7f4552433732313a206f776e657220717565727920666f72206e6f6e657869737460008201527f656e7420746f6b656e0000000000000000000000000000000000000000000000602082015250565b7f4552433732313a206d696e7420746f20746865207a65726f2061646472657373600082015250565b6200196f8162001666565b81146200197b57600080fd5b50565b62001989816200167a565b81146200199557600080fd5b50565b620019a381620016b2565b8114620019af57600080fd5b50565b60805160601c60a05160601c615e6d620019ec6000396000818161203e015261393601526000818161327a01526138fa0152615e6d6000f3fe6080604052600436106102555760003560e01c806367c1fcfe116101395780639d7182ee116100b6578063b88d4fde1161007a578063b88d4fde146109b5578063bb555344146109de578063c87b56dd14610a1b578063db258f9c14610a58578063dd7d844014610a81578063e985e9c514610abe57610265565b80639d7182ee146108be578063a22cb465146108fb578063a475b5dd14610924578063a57ce6611461093b578063b4dd385e1461097857610265565b80638bffef62116100fd5780638bffef62146107ac5780638cc3b366146107e957806394985ddd1461082d57806395d76d9d1461085657806395d89b411461089357610265565b806367c1fcfe146106c45780636ecd2306146106ed578063704b6c021461070957806370a08231146107325780637e442efa1461076f57610265565b80632f1335cf116101d257806342842e0e1161019657806342842e0e1461056a578063438b6300146105935780634f6ccce7146105d0578063530180631461060d5780636201917f1461064a5780636352211e1461068757610265565b80632f1335cf146104805780632f745c591461049c57806334918dfd146104d957806337f1e7f2146104f057806342639a271461052d57610265565b80630a8dc157116102195780630a8dc157146103755780630c7c9707146103b257806310e1e2d2146103ef57806318160ddd1461042c57806323b872dd1461045757610265565b806301ffc9a71461026a57806306fdde03146102a7578063081812fc146102d2578063095ea7b31461030f5780630a4735361461033857610265565b366102655761026334610afb565b005b600080fd5b34801561027657600080fd5b50610291600480360381019061028c919061434e565b610d00565b60405161029e9190614c67565b60405180910390f35b3480156102b357600080fd5b506102bc610d7a565b6040516102c99190614cf0565b60405180910390f35b3480156102de57600080fd5b506102f960048036038101906102f49190614455565b610e0c565b6040516103069190614ba0565b60405180910390f35b34801561031b57600080fd5b5061033660048036038101906103319190614261565b610e91565b005b34801561034457600080fd5b5061035f600480360381019061035a91906143a8565b610fa9565b60405161036c9190614c67565b60405180910390f35b34801561038157600080fd5b5061039c60048036038101906103979190614455565b6110a1565b6040516103a99190614ba0565b60405180910390f35b3480156103be57600080fd5b506103d960048036038101906103d491906143a8565b6110e0565b6040516103e69190614c67565b60405180910390f35b3480156103fb57600080fd5b50610416600480360381019061041191906143a8565b6111d8565b6040516104239190615072565b60405180910390f35b34801561043857600080fd5b5061044161120e565b60405161044e919061510b565b60405180910390f35b34801561046357600080fd5b5061047e6004803603810190610479919061414b565b61121b565b005b61049a60048036038101906104959190614455565b610afb565b005b3480156104a857600080fd5b506104c360048036038101906104be9190614261565b61127b565b6040516104d0919061510b565b60405180910390f35b3480156104e557600080fd5b506104ee611320565b005b3480156104fc57600080fd5b50610517600480360381019061051291906144af565b6113e3565b604051610524919061510b565b60405180910390f35b34801561053957600080fd5b50610554600480360381019061054f91906143a8565b611409565b6040516105619190614c67565b60405180910390f35b34801561057657600080fd5b50610591600480360381019061058c919061414b565b611501565b005b34801561059f57600080fd5b506105ba60048036038101906105b591906140de565b611521565b6040516105c79190614c45565b60405180910390f35b3480156105dc57600080fd5b506105f760048036038101906105f29190614455565b6115e7565b604051610604919061510b565b60405180910390f35b34801561061957600080fd5b50610634600480360381019061062f91906143a8565b611658565b6040516106419190614c67565b60405180910390f35b34801561065657600080fd5b50610671600480360381019061066c91906143a8565b611678565b60405161067e9190615126565b60405180910390f35b34801561069357600080fd5b506106ae60048036038101906106a99190614455565b6116b0565b6040516106bb9190614ba0565b60405180910390f35b3480156106d057600080fd5b506106eb60048036038101906106e691906142a1565b611762565b005b610707600480360381019061070291906144af565b61185d565b005b34801561071557600080fd5b50610730600480360381019061072b91906140de565b611cc1565b005b34801561073e57600080fd5b50610759600480360381019061075491906140de565b611d9c565b604051610766919061510b565b60405180910390f35b34801561077b57600080fd5b50610796600480360381019061079191906143a8565b611e54565b6040516107a39190614c67565b60405180910390f35b3480156107b857600080fd5b506107d360048036038101906107ce91906143a8565b611f4c565b6040516107e09190615072565b60405180910390f35b3480156107f557600080fd5b50610810600480360381019061080b91906143a8565b611f82565b60405161082498979695949392919061508d565b60405180910390f35b34801561083957600080fd5b50610854600480360381019061084f919061430e565b61203c565b005b34801561086257600080fd5b5061087d600480360381019061087891906143a8565b6120d8565b60405161088a9190614c67565b60405180910390f35b34801561089f57600080fd5b506108a861210a565b6040516108b59190614cf0565b60405180910390f35b3480156108ca57600080fd5b506108e560048036038101906108e091906143a8565b61219c565b6040516108f29190614c67565b60405180910390f35b34801561090757600080fd5b50610922600480360381019061091d9190614221565b612294565b005b34801561093057600080fd5b506109396122aa565b005b34801561094757600080fd5b50610962600480360381019061095d91906143d5565b61235e565b60405161096f9190614c67565b60405180910390f35b34801561098457600080fd5b5061099f600480360381019061099a9190614415565b612449565b6040516109ac9190614c67565b60405180910390f35b3480156109c157600080fd5b506109dc60048036038101906109d7919061419e565b612544565b005b3480156109ea57600080fd5b50610a056004803603810190610a009190614415565b6125a6565b604051610a129190614c67565b60405180910390f35b348015610a2757600080fd5b50610a426004803603810190610a3d9190614455565b6126a1565b604051610a4f9190614cf0565b60405180910390f35b348015610a6457600080fd5b50610a7f6004803603810190610a7a91906140de565b612748565b005b348015610a8d57600080fd5b50610aa86004803603810190610aa391906143a8565b612850565b604051610ab59190614cf0565b60405180910390f35b348015610aca57600080fd5b50610ae56004803603810190610ae0919061410b565b61292d565b604051610af29190614c67565b60405180910390f35b47811115610b3e576040517f08c379a0000000000000000000000000000000000000000000000000000000008152600401610b3590615012565b60405180910390fd5b6018600081548110610b5357610b526156ae565b5b9060005260206000200160009054906101000a900473ffffffffffffffffffffffffffffffffffffffff1673ffffffffffffffffffffffffffffffffffffffff166108fc6064601984610ba69190615321565b610bb091906152f0565b9081150290604051600060405180830381858888f19350505050610bd357600080fd5b6018600181548110610be857610be76156ae565b5b9060005260206000200160009054906101000a900473ffffffffffffffffffffffffffffffffffffffff1673ffffffffffffffffffffffffffffffffffffffff166108fc6064603284610c3b9190615321565b610c4591906152f0565b9081150290604051600060405180830381858888f19350505050610c6857600080fd5b6018600281548110610c7d57610c7c6156ae565b5b9060005260206000200160009054906101000a900473ffffffffffffffffffffffffffffffffffffffff1673ffffffffffffffffffffffffffffffffffffffff166108fc6064601984610cd09190615321565b610cda91906152f0565b9081150290604051600060405180830381858888f19350505050610cfd57600080fd5b50565b60007f780e9d63000000000000000000000000000000000000000000000000000000007bffffffffffffffffffffffffffffffffffffffffffffffffffffffff1916827bffffffffffffffffffffffffffffffffffffffffffffffffffffffff19161480610d735750610d72826129c6565b5b9050919050565b606060008054610d899061549a565b80601f0160208091040260200160405190810160405280929190818152602001828054610db59061549a565b8015610e025780601f10610dd757610100808354040283529160200191610e02565b820191906000526020600020905b815481529060010190602001808311610de557829003601f168201915b5050505050905090565b6000610e1782612aa8565b610e56576040517f08c379a0000000000000000000000000000000000000000000000000000000008152600401610e4d90614f12565b60405180910390fd5b6004600083815260200190815260200160002060009054906101000a900473ffffffffffffffffffffffffffffffffffffffff169050919050565b6000610e9c826116b0565b90508073ffffffffffffffffffffffffffffffffffffffff168373ffffffffffffffffffffffffffffffffffffffff161415610f0d576040517f08c379a0000000000000000000000000000000000000000000000000000000008152600401610f0490614f92565b60405180910390fd5b8073ffffffffffffffffffffffffffffffffffffffff16610f2c612b14565b73ffffffffffffffffffffffffffffffffffffffff161480610f5b5750610f5a81610f55612b14565b61292d565b5b610f9a576040517f08c379a0000000000000000000000000000000000000000000000000000000008152600401610f9190614e92565b60405180910390fd5b610fa48383612b1c565b505050565b6000601560059054906101000a900473ffffffffffffffffffffffffffffffffffffffff1673ffffffffffffffffffffffffffffffffffffffff16610fec612b14565b73ffffffffffffffffffffffffffffffffffffffff1614611042576040517f08c379a000000000000000000000000000000000000000000000000000000000815260040161103990614d32565b60405180910390fd5b6001601360008461ffff1661ffff168152602001908152602001600020600001600a8282829054906101000a900461ffff1661107e9190615228565b92506101000a81548161ffff021916908361ffff16021790555060019050919050565b601881815481106110b157600080fd5b906000526020600020016000915054906101000a900473ffffffffffffffffffffffffffffffffffffffff1681565b6000601560059054906101000a900473ffffffffffffffffffffffffffffffffffffffff1673ffffffffffffffffffffffffffffffffffffffff16611123612b14565b73ffffffffffffffffffffffffffffffffffffffff1614611179576040517f08c379a000000000000000000000000000000000000000000000000000000000815260040161117090614d32565b60405180910390fd5b6001601360008461ffff1661ffff168152602001908152602001600020600001600c8282829054906101000a900461ffff166111b59190615228565b92506101000a81548161ffff021916908361ffff16021790555060019050919050565b6000601360008361ffff1661ffff16815260200190815260200160002060000160029054906101000a900461ffff169050919050565b6000600880549050905090565b61122c611226612b14565b82612bd5565b61126b576040517f08c379a000000000000000000000000000000000000000000000000000000000815260040161126290614fd2565b60405180910390fd5b611276838383612cb3565b505050565b600061128683611d9c565b82106112c7576040517f08c379a00000000000000000000000000000000000000000000000000000000081526004016112be90614d92565b60405180910390fd5b600660008473ffffffffffffffffffffffffffffffffffffffff1673ffffffffffffffffffffffffffffffffffffffff168152602001908152602001600020600083815260200190815260200160002054905092915050565b600b60009054906101000a900473ffffffffffffffffffffffffffffffffffffffff1673ffffffffffffffffffffffffffffffffffffffff16611361612b14565b73ffffffffffffffffffffffffffffffffffffffff16146113b7576040517f08c379a00000000000000000000000000000000000000000000000000000000081526004016113ae90614d72565b60405180910390fd5b600b60149054906101000a900460ff1615600b60146101000a81548160ff021916908315150217905550565b600061140282601454601560009054906101000a900461ffff16612f1a565b9050919050565b6000601560059054906101000a900473ffffffffffffffffffffffffffffffffffffffff1673ffffffffffffffffffffffffffffffffffffffff1661144c612b14565b73ffffffffffffffffffffffffffffffffffffffff16146114a2576040517f08c379a000000000000000000000000000000000000000000000000000000000815260040161149990614d32565b60405180910390fd5b6001601360008461ffff1661ffff16815260200190815260200160002060000160048282829054906101000a900461ffff166114de9190615228565b92506101000a81548161ffff021916908361ffff16021790555060019050919050565b61151c83838360405180602001604052806000815250612544565b505050565b6060600061152e83611d9c565b90508061ffff1667ffffffffffffffff81111561154e5761154d6156dd565b5b60405190808252806020026020018201604052801561157c5781602001602082028036833780820191505090505b50915060005b8161ffff168161ffff1610156115e0576115a0848261ffff1661127b565b838261ffff16815181106115b7576115b66156ae565b5b602002602001019061ffff16908161ffff168152505080806115d8906154fd565b915050611582565b5050919050565b60006115f161120e565b8210611632576040517f08c379a000000000000000000000000000000000000000000000000000000000815260040161162990614ff2565b60405180910390fd5b60088281548110611646576116456156ae565b5b90600052602060002001549050919050565b60196020528060005260406000206000915054906101000a900460ff1681565b6000601360008361ffff1661ffff168152602001908152602001600020600001600e9054906101000a900463ffffffff169050919050565b6000806002600084815260200190815260200160002060009054906101000a900473ffffffffffffffffffffffffffffffffffffffff169050600073ffffffffffffffffffffffffffffffffffffffff168173ffffffffffffffffffffffffffffffffffffffff161415611759576040517f08c379a000000000000000000000000000000000000000000000000000000000815260040161175090614ed2565b60405180910390fd5b80915050919050565b600b60009054906101000a900473ffffffffffffffffffffffffffffffffffffffff1673ffffffffffffffffffffffffffffffffffffffff166117a3612b14565b73ffffffffffffffffffffffffffffffffffffffff16146117f9576040517f08c379a00000000000000000000000000000000000000000000000000000000081526004016117f090614d72565b60405180910390fd5b8160188260ff1681548110611811576118106156ae565b5b9060005260206000200160006101000a81548173ffffffffffffffffffffffffffffffffffffffff021916908373ffffffffffffffffffffffffffffffffffffffff1602179055505050565b600b60149054906101000a900460ff166118ac576040517f08c379a00000000000000000000000000000000000000000000000000000000081526004016118a390614d52565b60405180910390fd5b600b60009054906101000a900473ffffffffffffffffffffffffffffffffffffffff1673ffffffffffffffffffffffffffffffffffffffff166118ed612b14565b73ffffffffffffffffffffffffffffffffffffffff161461199457611911816113e3565b3414611952576040517f08c379a000000000000000000000000000000000000000000000000000000000815260040161194990614f32565b60405180910390fd5b6119738160ff16601560009054906101000a900461ffff1661ffff16612fed565b1561198a57611983601454613056565b6014819055505b61199334610afb565b5b600a8160ff1611156119db576040517f08c379a00000000000000000000000000000000000000000000000000000000081526004016119d290614fb2565b60405180910390fd5b601560029054906101000a900461ffff1661ffff168160ff16601560009054906101000a900461ffff16611a0f9190615228565b61ffff161115611a54576040517f08c379a0000000000000000000000000000000000000000000000000000000008152600401611a4b90615052565b60405180910390fd5b60005b8160ff168160ff161015611cbd576001601560008282829054906101000a900461ffff16611a859190615228565b92506101000a81548161ffff021916908361ffff160217905550611ac4611aaa612b14565b601560009054906101000a900461ffff1661ffff1661309b565b604051806101000160405280600161ffff168152602001600161ffff168152602001600061ffff168152602001600061ffff168152602001600061ffff168152602001600061ffff168152602001600061ffff1681526020014263ffffffff1681525060136000601560009054906101000a900461ffff1661ffff1661ffff16815260200190815260200160002060008201518160000160006101000a81548161ffff021916908361ffff16021790555060208201518160000160026101000a81548161ffff021916908361ffff16021790555060408201518160000160046101000a81548161ffff021916908361ffff16021790555060608201518160000160066101000a81548161ffff021916908361ffff16021790555060808201518160000160086101000a81548161ffff021916908361ffff16021790555060a082015181600001600a6101000a81548161ffff021916908361ffff16021790555060c082015181600001600c6101000a81548161ffff021916908361ffff16021790555060e082015181600001600e6101000a81548163ffffffff021916908363ffffffff160217905550905050601560029054906101000a900461ffff1661ffff16601560009054906101000a900461ffff1661ffff161415611caa57611ca9613275565b5b8080611cb590615571565b915050611a57565b5050565b600b60009054906101000a900473ffffffffffffffffffffffffffffffffffffffff1673ffffffffffffffffffffffffffffffffffffffff16611d02612b14565b73ffffffffffffffffffffffffffffffffffffffff1614611d58576040517f08c379a0000000000000000000000000000000000000000000000000000000008152600401611d4f90614d72565b60405180910390fd5b80600b60006101000a81548173ffffffffffffffffffffffffffffffffffffffff021916908373ffffffffffffffffffffffffffffffffffffffff16021790555050565b60008073ffffffffffffffffffffffffffffffffffffffff168273ffffffffffffffffffffffffffffffffffffffff161415611e0d576040517f08c379a0000000000000000000000000000000000000000000000000000000008152600401611e0490614eb2565b60405180910390fd5b600360008373ffffffffffffffffffffffffffffffffffffffff1673ffffffffffffffffffffffffffffffffffffffff168152602001908152602001600020549050919050565b6000601560059054906101000a900473ffffffffffffffffffffffffffffffffffffffff1673ffffffffffffffffffffffffffffffffffffffff16611e97612b14565b73ffffffffffffffffffffffffffffffffffffffff1614611eed576040517f08c379a0000000000000000000000000000000000000000000000000000000008152600401611ee490614d32565b60405180910390fd5b6001601360008461ffff1661ffff16815260200190815260200160002060000160068282829054906101000a900461ffff16611f299190615228565b92506101000a81548161ffff021916908361ffff16021790555060019050919050565b6000601360008361ffff1661ffff16815260200190815260200160002060000160009054906101000a900461ffff169050919050565b60136020528060005260406000206000915090508060000160009054906101000a900461ffff16908060000160029054906101000a900461ffff16908060000160049054906101000a900461ffff16908060000160069054906101000a900461ffff16908060000160089054906101000a900461ffff169080600001600a9054906101000a900461ffff169080600001600c9054906101000a900461ffff169080600001600e9054906101000a900463ffffffff16905088565b7f000000000000000000000000000000000000000000000000000000000000000073ffffffffffffffffffffffffffffffffffffffff163373ffffffffffffffffffffffffffffffffffffffff16146120ca576040517f08c379a00000000000000000000000000000000000000000000000000000000081526004016120c190614f72565b60405180910390fd5b6120d48282613373565b5050565b6000601960008361ffff1661ffff16815260200190815260200160002060009054906101000a900460ff169050919050565b6060600180546121199061549a565b80601f01602080910402602001604051908101604052809291908181526020018280546121459061549a565b80156121925780601f1061216757610100808354040283529160200191612192565b820191906000526020600020905b81548152906001019060200180831161217557829003601f168201915b5050505050905090565b6000601560059054906101000a900473ffffffffffffffffffffffffffffffffffffffff1673ffffffffffffffffffffffffffffffffffffffff166121df612b14565b73ffffffffffffffffffffffffffffffffffffffff1614612235576040517f08c379a000000000000000000000000000000000000000000000000000000000815260040161222c90614d32565b60405180910390fd5b6001601360008461ffff1661ffff16815260200190815260200160002060000160088282829054906101000a900461ffff166122719190615228565b92506101000a81548161ffff021916908361ffff16021790555060019050919050565b6122a661229f612b14565b83836133c9565b5050565b600b60009054906101000a900473ffffffffffffffffffffffffffffffffffffffff1673ffffffffffffffffffffffffffffffffffffffff166122eb612b14565b73ffffffffffffffffffffffffffffffffffffffff1614612341576040517f08c379a000000000000000000000000000000000000000000000000000000000815260040161233890614d72565b60405180910390fd5b6001601560046101000a81548160ff021916908315150217905550565b6000601560059054906101000a900473ffffffffffffffffffffffffffffffffffffffff1673ffffffffffffffffffffffffffffffffffffffff166123a1612b14565b73ffffffffffffffffffffffffffffffffffffffff16146123f7576040517f08c379a00000000000000000000000000000000000000000000000000000000081526004016123ee90614d32565b60405180910390fd5b814261240391906152b6565b601360008561ffff1661ffff168152602001908152602001600020600001600e6101000a81548163ffffffff021916908363ffffffff1602179055506001905092915050565b6000601560059054906101000a900473ffffffffffffffffffffffffffffffffffffffff1673ffffffffffffffffffffffffffffffffffffffff1661248c612b14565b73ffffffffffffffffffffffffffffffffffffffff16146124e2576040517f08c379a00000000000000000000000000000000000000000000000000000000081526004016124d990614d32565b60405180910390fd5b8160ff16601360008561ffff1661ffff16815260200190815260200160002060000160028282829054906101000a900461ffff166125209190615228565b92506101000a81548161ffff021916908361ffff1602179055506001905092915050565b61255561254f612b14565b83612bd5565b612594576040517f08c379a000000000000000000000000000000000000000000000000000000000815260040161258b90614fd2565b60405180910390fd5b6125a084848484613536565b50505050565b6000601560059054906101000a900473ffffffffffffffffffffffffffffffffffffffff1673ffffffffffffffffffffffffffffffffffffffff166125e9612b14565b73ffffffffffffffffffffffffffffffffffffffff161461263f576040517f08c379a000000000000000000000000000000000000000000000000000000000815260040161263690614d32565b60405180910390fd5b8160ff16601360008561ffff1661ffff16815260200190815260200160002060000160008282829054906101000a900461ffff1661267d9190615228565b92506101000a81548161ffff021916908361ffff1602179055506001905092915050565b60606126ac82612aa8565b6126eb576040517f08c379a00000000000000000000000000000000000000000000000000000000081526004016126e290614f52565b60405180910390fd5b60006126f5613592565b905060008151116127155760405180602001604052806000815250612740565b8061271f846135a9565b604051602001612730929190614aff565b6040516020818303038152906040525b915050919050565b600b60009054906101000a900473ffffffffffffffffffffffffffffffffffffffff1673ffffffffffffffffffffffffffffffffffffffff16612789612b14565b73ffffffffffffffffffffffffffffffffffffffff16146127df576040517f08c379a00000000000000000000000000000000000000000000000000000000081526004016127d690614d72565b60405180910390fd5b80601560056101000a81548173ffffffffffffffffffffffffffffffffffffffff021916908373ffffffffffffffffffffffffffffffffffffffff16021790555061284d601560059054906101000a900473ffffffffffffffffffffffffffffffffffffffff166001612294565b50565b606061285f8261ffff16612aa8565b61289e576040517f08c379a000000000000000000000000000000000000000000000000000000000815260040161289590614d12565b60405180910390fd5b601560049054906101000a900460ff166128dd57600c600f6040516020016128c7929190614b23565b6040516020818303038152906040529050612928565b600c600d836040516020016128f29190614b85565b604051602081830303815290604052600e6040516020016129169493929190614b47565b60405160208183030381529060405290505b919050565b6000600560008473ffffffffffffffffffffffffffffffffffffffff1673ffffffffffffffffffffffffffffffffffffffff16815260200190815260200160002060008373ffffffffffffffffffffffffffffffffffffffff1673ffffffffffffffffffffffffffffffffffffffff16815260200190815260200160002060009054906101000a900460ff16905092915050565b505050565b60007f80ac58cd000000000000000000000000000000000000000000000000000000007bffffffffffffffffffffffffffffffffffffffffffffffffffffffff1916827bffffffffffffffffffffffffffffffffffffffffffffffffffffffff19161480612a9157507f5b5e139f000000000000000000000000000000000000000000000000000000007bffffffffffffffffffffffffffffffffffffffffffffffffffffffff1916827bffffffffffffffffffffffffffffffffffffffffffffffffffffffff1916145b80612aa15750612aa08261370a565b5b9050919050565b60008073ffffffffffffffffffffffffffffffffffffffff166002600084815260200190815260200160002060009054906101000a900473ffffffffffffffffffffffffffffffffffffffff1673ffffffffffffffffffffffffffffffffffffffff1614159050919050565b600033905090565b816004600083815260200190815260200160002060006101000a81548173ffffffffffffffffffffffffffffffffffffffff021916908373ffffffffffffffffffffffffffffffffffffffff160217905550808273ffffffffffffffffffffffffffffffffffffffff16612b8f836116b0565b73ffffffffffffffffffffffffffffffffffffffff167f8c5be1e5ebec7d5bd14f71427d1e84f3dd0314c0f7b2291e5b200ac8c7c3b92560405160405180910390a45050565b6000612be082612aa8565b612c1f576040517f08c379a0000000000000000000000000000000000000000000000000000000008152600401612c1690614e72565b60405180910390fd5b6000612c2a836116b0565b90508073ffffffffffffffffffffffffffffffffffffffff168473ffffffffffffffffffffffffffffffffffffffff161480612c9957508373ffffffffffffffffffffffffffffffffffffffff16612c8184610e0c565b73ffffffffffffffffffffffffffffffffffffffff16145b80612caa5750612ca9818561292d565b5b91505092915050565b8273ffffffffffffffffffffffffffffffffffffffff16612cd3826116b0565b73ffffffffffffffffffffffffffffffffffffffff1614612d29576040517f08c379a0000000000000000000000000000000000000000000000000000000008152600401612d2090614dd2565b60405180910390fd5b600073ffffffffffffffffffffffffffffffffffffffff168273ffffffffffffffffffffffffffffffffffffffff161415612d99576040517f08c379a0000000000000000000000000000000000000000000000000000000008152600401612d9090614e32565b60405180910390fd5b612da4838383613774565b612daf600082612b1c565b6001600360008573ffffffffffffffffffffffffffffffffffffffff1673ffffffffffffffffffffffffffffffffffffffff1681526020019081526020016000206000828254612dff919061537b565b925050819055506001600360008473ffffffffffffffffffffffffffffffffffffffff1673ffffffffffffffffffffffffffffffffffffffff1681526020019081526020016000206000828254612e569190615260565b92505081905550816002600083815260200190815260200160002060006101000a81548173ffffffffffffffffffffffffffffffffffffffff021916908373ffffffffffffffffffffffffffffffffffffffff160217905550808273ffffffffffffffffffffffffffffffffffffffff168473ffffffffffffffffffffffffffffffffffffffff167fddf252ad1be2c89b69c2b068fc378daa952ba7f163c4a11628f55a4df523b3ef60405160405180910390a4612f15838383613888565b505050565b6000600a8460ff161115612f63576040517f08c379a0000000000000000000000000000000000000000000000000000000008152600401612f5a90614e12565b60405180910390fd5b6000612f768560ff168461ffff16612fed565b90508015612fd357600080612f928760ff168661ffff1661388d565b915091508060ff16600287612fa79190615321565b612fb19190615321565b8260ff1687612fc09190615321565b612fca9190615260565b93505050612fe5565b8460ff1684612fe29190615321565b91505b509392505050565b60006103e88383612ffe9190615260565b101561300d5760009050613050565b60006103e8848461301e9190615260565b61302891906155c1565b90506000811015801561303b5750600a81105b1561304a576001915050613050565b60009150505b92915050565b6000600182901b90507f18d394ba347d8c318a1db51c85288b956d598b2925be44758ee6f2edb9e2a06b8160405161308e919061510b565b60405180910390a1919050565b600073ffffffffffffffffffffffffffffffffffffffff168273ffffffffffffffffffffffffffffffffffffffff16141561310b576040517f08c379a000000000000000000000000000000000000000000000000000000000815260040161310290614ef2565b60405180910390fd5b61311481612aa8565b15613154576040517f08c379a000000000000000000000000000000000000000000000000000000000815260040161314b90614df2565b60405180910390fd5b61316060008383613774565b6001600360008473ffffffffffffffffffffffffffffffffffffffff1673ffffffffffffffffffffffffffffffffffffffff16815260200190815260200160002060008282546131b09190615260565b92505081905550816002600083815260200190815260200160002060006101000a81548173ffffffffffffffffffffffffffffffffffffffff021916908373ffffffffffffffffffffffffffffffffffffffff160217905550808273ffffffffffffffffffffffffffffffffffffffff16600073ffffffffffffffffffffffffffffffffffffffff167fddf252ad1be2c89b69c2b068fc378daa952ba7f163c4a11628f55a4df523b3ef60405160405180910390a461327160008383613888565b5050565b6012547f000000000000000000000000000000000000000000000000000000000000000073ffffffffffffffffffffffffffffffffffffffff166370a08231306040518263ffffffff1660e01b81526004016132d19190614ba0565b60206040518083038186803b1580156132e957600080fd5b505afa1580156132fd573d6000803e3d6000fd5b505050506040513d601f19601f820116820180604052508101906133219190614482565b1015613362576040517f08c379a000000000000000000000000000000000000000000000000000000000815260040161335990615032565b60405180910390fd5b6133706011546012546138f6565b50565b60006127108261338391906155c1565b90507fb75047a36befaef84e90ca4c55f0673352e2942c569d5726c6cf463a043903f26133af826116b0565b6040516133bc9190614ba0565b60405180910390a1505050565b8173ffffffffffffffffffffffffffffffffffffffff168373ffffffffffffffffffffffffffffffffffffffff161415613438576040517f08c379a000000000000000000000000000000000000000000000000000000000815260040161342f90614e52565b60405180910390fd5b80600560008573ffffffffffffffffffffffffffffffffffffffff1673ffffffffffffffffffffffffffffffffffffffff16815260200190815260200160002060008473ffffffffffffffffffffffffffffffffffffffff1673ffffffffffffffffffffffffffffffffffffffff16815260200190815260200160002060006101000a81548160ff0219169083151502179055508173ffffffffffffffffffffffffffffffffffffffff168373ffffffffffffffffffffffffffffffffffffffff167f17307eab39ab6107e8899845ad3d59bd9653f200f220920489ca2b5937696c31836040516135299190614c67565b60405180910390a3505050565b613541848484612cb3565b61354d84848484613a58565b61358c576040517f08c379a000000000000000000000000000000000000000000000000000000000815260040161358390614db2565b60405180910390fd5b50505050565b606060405180602001604052806000815250905090565b606060008214156135f1576040518060400160405280600181526020017f30000000000000000000000000000000000000000000000000000000000000008152509050613705565b600082905060005b6000821461362357808061360c90615528565b915050600a8261361c91906152f0565b91506135f9565b60008167ffffffffffffffff81111561363f5761363e6156dd565b5b6040519080825280601f01601f1916602001820160405280156136715781602001600182028036833780820191505090505b5090505b600085146136fe5760018261368a919061537b565b9150600a8561369991906155c1565b60306136a59190615260565b60f81b8183815181106136bb576136ba6156ae565b5b60200101907effffffffffffffffffffffffffffffffffffffffffffffffffffffffffffff1916908160001a905350600a856136f791906152f0565b9450613675565b8093505050505b919050565b60007f01ffc9a7000000000000000000000000000000000000000000000000000000007bffffffffffffffffffffffffffffffffffffffffffffffffffffffff1916827bffffffffffffffffffffffffffffffffffffffffffffffffffffffff1916149050919050565b61377f8383836129c1565b600073ffffffffffffffffffffffffffffffffffffffff168373ffffffffffffffffffffffffffffffffffffffff1614156137c2576137bd81613bef565b613801565b8173ffffffffffffffffffffffffffffffffffffffff168373ffffffffffffffffffffffffffffffffffffffff1614613800576137ff8382613c38565b5b5b600073ffffffffffffffffffffffffffffffffffffffff168273ffffffffffffffffffffffffffffffffffffffff1614156138445761383f81613da5565b613883565b8273ffffffffffffffffffffffffffffffffffffffff168273ffffffffffffffffffffffffffffffffffffffff1614613882576138818282613e76565b5b5b505050565b505050565b60008060005b848110156138ee576138b16001826138ab9190615260565b85612fed565b156138db576001816138c39190615260565b92508260ff16856138d4919061537b565b91506138ee565b80806138e690615528565b915050613893565b509250929050565b60007f000000000000000000000000000000000000000000000000000000000000000073ffffffffffffffffffffffffffffffffffffffff16634000aea07f00000000000000000000000000000000000000000000000000000000000000008486600060405160200161396a929190614c82565b6040516020818303038152906040526040518463ffffffff1660e01b815260040161399793929190614c07565b602060405180830381600087803b1580156139b157600080fd5b505af11580156139c5573d6000803e3d6000fd5b505050506040513d601f19601f820116820180604052508101906139e991906142e1565b506000613a0c84600030600a600089815260200190815260200160002054613ef5565b90506001600a600086815260200190815260200160002054613a2e9190615260565b600a600086815260200190815260200160002081905550613a4f8482613f31565b91505092915050565b6000613a798473ffffffffffffffffffffffffffffffffffffffff16613f64565b15613be2578373ffffffffffffffffffffffffffffffffffffffff1663150b7a02613aa2612b14565b8786866040518563ffffffff1660e01b8152600401613ac49493929190614bbb565b602060405180830381600087803b158015613ade57600080fd5b505af1925050508015613b0f57506040513d601f19601f82011682018060405250810190613b0c919061437b565b60015b613b92573d8060008114613b3f576040519150601f19603f3d011682016040523d82523d6000602084013e613b44565b606091505b50600081511415613b8a576040517f08c379a0000000000000000000000000000000000000000000000000000000008152600401613b8190614db2565b60405180910390fd5b805181602001fd5b63150b7a0260e01b7bffffffffffffffffffffffffffffffffffffffffffffffffffffffff1916817bffffffffffffffffffffffffffffffffffffffffffffffffffffffff191614915050613be7565b600190505b949350505050565b6008805490506009600083815260200190815260200160002081905550600881908060018154018082558091505060019003906000526020600020016000909190919091505550565b60006001613c4584611d9c565b613c4f919061537b565b9050600060076000848152602001908152602001600020549050818114613d34576000600660008673ffffffffffffffffffffffffffffffffffffffff1673ffffffffffffffffffffffffffffffffffffffff168152602001908152602001600020600084815260200190815260200160002054905080600660008773ffffffffffffffffffffffffffffffffffffffff1673ffffffffffffffffffffffffffffffffffffffff168152602001908152602001600020600084815260200190815260200160002081905550816007600083815260200190815260200160002081905550505b6007600084815260200190815260200160002060009055600660008573ffffffffffffffffffffffffffffffffffffffff1673ffffffffffffffffffffffffffffffffffffffff16815260200190815260200160002060008381526020019081526020016000206000905550505050565b60006001600880549050613db9919061537b565b9050600060096000848152602001908152602001600020549050600060088381548110613de957613de86156ae565b5b906000526020600020015490508060088381548110613e0b57613e0a6156ae565b5b906000526020600020018190555081600960008381526020019081526020016000208190555060096000858152602001908152602001600020600090556008805480613e5a57613e5961567f565b5b6001900381819060005260206000200160009055905550505050565b6000613e8183611d9c565b905081600660008573ffffffffffffffffffffffffffffffffffffffff1673ffffffffffffffffffffffffffffffffffffffff168152602001908152602001600020600083815260200190815260200160002081905550806007600084815260200190815260200160002081905550505050565b600084848484604051602001613f0e9493929190614cab565b6040516020818303038152906040528051906020012060001c9050949350505050565b60008282604051602001613f46929190614ad3565b60405160208183030381529060405280519060200120905092915050565b6000808273ffffffffffffffffffffffffffffffffffffffff163b119050919050565b6000613f9a613f9584615166565b615141565b905082815260208101848484011115613fb657613fb5615711565b5b613fc1848285615458565b509392505050565b600081359050613fd881615d7f565b92915050565b600081359050613fed81615d96565b92915050565b60008151905061400281615d96565b92915050565b60008135905061401781615dad565b92915050565b60008135905061402c81615dc4565b92915050565b60008151905061404181615dc4565b92915050565b600082601f83011261405c5761405b61570c565b5b813561406c848260208601613f87565b91505092915050565b60008135905061408481615ddb565b92915050565b60008135905061409981615df2565b92915050565b6000815190506140ae81615df2565b92915050565b6000813590506140c381615e09565b92915050565b6000813590506140d881615e20565b92915050565b6000602082840312156140f4576140f361571b565b5b600061410284828501613fc9565b91505092915050565b600080604083850312156141225761412161571b565b5b600061413085828601613fc9565b925050602061414185828601613fc9565b9150509250929050565b6000806000606084860312156141645761416361571b565b5b600061417286828701613fc9565b935050602061418386828701613fc9565b92505060406141948682870161408a565b9150509250925092565b600080600080608085870312156141b8576141b761571b565b5b60006141c687828801613fc9565b94505060206141d787828801613fc9565b93505060406141e88782880161408a565b925050606085013567ffffffffffffffff81111561420957614208615716565b5b61421587828801614047565b91505092959194509250565b600080604083850312156142385761423761571b565b5b600061424685828601613fc9565b925050602061425785828601613fde565b9150509250929050565b600080604083850312156142785761427761571b565b5b600061428685828601613fc9565b92505060206142978582860161408a565b9150509250929050565b600080604083850312156142b8576142b761571b565b5b60006142c685828601613fc9565b92505060206142d7858286016140c9565b9150509250929050565b6000602082840312156142f7576142f661571b565b5b600061430584828501613ff3565b91505092915050565b600080604083850312156143255761432461571b565b5b600061433385828601614008565b92505060206143448582860161408a565b9150509250929050565b6000602082840312156143645761436361571b565b5b60006143728482850161401d565b91505092915050565b6000602082840312156143915761439061571b565b5b600061439f84828501614032565b91505092915050565b6000602082840312156143be576143bd61571b565b5b60006143cc84828501614075565b91505092915050565b600080604083850312156143ec576143eb61571b565b5b60006143fa85828601614075565b925050602061440b858286016140b4565b9150509250929050565b6000806040838503121561442c5761442b61571b565b5b600061443a85828601614075565b925050602061444b858286016140c9565b9150509250929050565b60006020828403121561446b5761446a61571b565b5b60006144798482850161408a565b91505092915050565b6000602082840312156144985761449761571b565b5b60006144a68482850161409f565b91505092915050565b6000602082840312156144c5576144c461571b565b5b60006144d3848285016140c9565b91505092915050565b60006144e88383614a69565b60208301905092915050565b6144fd816153af565b82525050565b600061450e826151bc565b61451881856151ea565b935061452383615197565b8060005b8381101561455457815161453b88826144dc565b9750614546836151dd565b925050600181019050614527565b5085935050505092915050565b61456a816153c1565b82525050565b614579816153cd565b82525050565b61459061458b826153cd565b61559b565b82525050565b60006145a1826151c7565b6145ab81856151fb565b93506145bb818560208601615467565b6145c481615720565b840191505092915050565b60006145da826151d2565b6145e4818561520c565b93506145f4818560208601615467565b6145fd81615720565b840191505092915050565b6000614613826151d2565b61461d818561521d565b935061462d818560208601615467565b80840191505092915050565b600081546146468161549a565b614650818661521d565b9450600182166000811461466b576001811461467c576146af565b60ff198316865281860193506146af565b614685856151a7565b60005b838110156146a757815481890152600182019150602081019050614688565b838801955050505b50505092915050565b60006146c560078361520c565b91506146d08261573e565b602082019050919050565b60006146e860078361520c565b91506146f382615767565b602082019050919050565b600061470b60078361520c565b915061471682615790565b602082019050919050565b600061472e60068361520c565b9150614739826157b9565b602082019050919050565b6000614751602b8361520c565b915061475c826157e2565b604082019050919050565b600061477460328361520c565b915061477f82615831565b604082019050919050565b600061479760258361520c565b91506147a282615880565b604082019050919050565b60006147ba601c8361520c565b91506147c5826158cf565b602082019050919050565b60006147dd600d8361520c565b91506147e8826158f8565b602082019050919050565b600061480060248361520c565b915061480b82615921565b604082019050919050565b600061482360198361520c565b915061482e82615970565b602082019050919050565b6000614846602c8361520c565b915061485182615999565b604082019050919050565b600061486960388361520c565b9150614874826159e8565b604082019050919050565b600061488c602a8361520c565b915061489782615a37565b604082019050919050565b60006148af60298361520c565b91506148ba82615a86565b604082019050919050565b60006148d260208361520c565b91506148dd82615ad5565b602082019050919050565b60006148f5602c8361520c565b915061490082615afe565b604082019050919050565b600061491860078361520c565b915061492382615b4d565b602082019050919050565b600061493b602f8361520c565b915061494682615b76565b604082019050919050565b600061495e601f8361520c565b915061496982615bc5565b602082019050919050565b600061498160218361520c565b915061498c82615bee565b604082019050919050565b60006149a460078361520c565b91506149af82615c3d565b602082019050919050565b60006149c760318361520c565b91506149d282615c66565b604082019050919050565b60006149ea602c8361520c565b91506149f582615cb5565b604082019050919050565b6000614a0d60078361520c565b9150614a1882615d04565b602082019050919050565b6000614a3060078361520c565b9150614a3b82615d2d565b602082019050919050565b6000614a5360088361520c565b9150614a5e82615d56565b602082019050919050565b614a7281615403565b82525050565b614a8181615403565b82525050565b614a98614a9382615403565b6155a5565b82525050565b614aa781615431565b82525050565b614abe614ab982615431565b6155b7565b82525050565b614acd8161543b565b82525050565b6000614adf828561457f565b602082019150614aef8284614aad565b6020820191508190509392505050565b6000614b0b8285614608565b9150614b178284614608565b91508190509392505050565b6000614b2f8285614639565b9150614b3b8284614639565b91508190509392505050565b6000614b538287614639565b9150614b5f8286614639565b9150614b6b8285614608565b9150614b778284614639565b915081905095945050505050565b6000614b918284614a87565b60028201915081905092915050565b6000602082019050614bb560008301846144f4565b92915050565b6000608082019050614bd060008301876144f4565b614bdd60208301866144f4565b614bea6040830185614a9e565b8181036060830152614bfc8184614596565b905095945050505050565b6000606082019050614c1c60008301866144f4565b614c296020830185614a9e565b8181036040830152614c3b8184614596565b9050949350505050565b60006020820190508181036000830152614c5f8184614503565b905092915050565b6000602082019050614c7c6000830184614561565b92915050565b6000604082019050614c976000830185614570565b614ca46020830184614a9e565b9392505050565b6000608082019050614cc06000830187614570565b614ccd6020830186614a9e565b614cda60408301856144f4565b614ce76060830184614a9e565b95945050505050565b60006020820190508181036000830152614d0a81846145cf565b905092915050565b60006020820190508181036000830152614d2b816146b8565b9050919050565b60006020820190508181036000830152614d4b816146db565b9050919050565b60006020820190508181036000830152614d6b816146fe565b9050919050565b60006020820190508181036000830152614d8b81614721565b9050919050565b60006020820190508181036000830152614dab81614744565b9050919050565b60006020820190508181036000830152614dcb81614767565b9050919050565b60006020820190508181036000830152614deb8161478a565b9050919050565b60006020820190508181036000830152614e0b816147ad565b9050919050565b60006020820190508181036000830152614e2b816147d0565b9050919050565b60006020820190508181036000830152614e4b816147f3565b9050919050565b60006020820190508181036000830152614e6b81614816565b9050919050565b60006020820190508181036000830152614e8b81614839565b9050919050565b60006020820190508181036000830152614eab8161485c565b9050919050565b60006020820190508181036000830152614ecb8161487f565b9050919050565b60006020820190508181036000830152614eeb816148a2565b9050919050565b60006020820190508181036000830152614f0b816148c5565b9050919050565b60006020820190508181036000830152614f2b816148e8565b9050919050565b60006020820190508181036000830152614f4b8161490b565b9050919050565b60006020820190508181036000830152614f6b8161492e565b9050919050565b60006020820190508181036000830152614f8b81614951565b9050919050565b60006020820190508181036000830152614fab81614974565b9050919050565b60006020820190508181036000830152614fcb81614997565b9050919050565b60006020820190508181036000830152614feb816149ba565b9050919050565b6000602082019050818103600083015261500b816149dd565b9050919050565b6000602082019050818103600083015261502b81614a00565b9050919050565b6000602082019050818103600083015261504b81614a23565b9050919050565b6000602082019050818103600083015261506b81614a46565b9050919050565b60006020820190506150876000830184614a78565b92915050565b6000610100820190506150a3600083018b614a78565b6150b0602083018a614a78565b6150bd6040830189614a78565b6150ca6060830188614a78565b6150d76080830187614a78565b6150e460a0830186614a78565b6150f160c0830185614a78565b6150fe60e0830184614ac4565b9998505050505050505050565b60006020820190506151206000830184614a9e565b92915050565b600060208201905061513b6000830184614ac4565b92915050565b600061514b61515c565b905061515782826154cc565b919050565b6000604051905090565b600067ffffffffffffffff821115615181576151806156dd565b5b61518a82615720565b9050602081019050919050565b6000819050602082019050919050565b60008190508160005260206000209050919050565b600081519050919050565b600081519050919050565b600081519050919050565b6000602082019050919050565b600082825260208201905092915050565b600082825260208201905092915050565b600082825260208201905092915050565b600081905092915050565b600061523382615403565b915061523e83615403565b92508261ffff03821115615255576152546155f2565b5b828201905092915050565b600061526b82615431565b915061527683615431565b9250827fffffffffffffffffffffffffffffffffffffffffffffffffffffffffffffffff038211156152ab576152aa6155f2565b5b828201905092915050565b60006152c18261543b565b91506152cc8361543b565b92508263ffffffff038211156152e5576152e46155f2565b5b828201905092915050565b60006152fb82615431565b915061530683615431565b92508261531657615315615621565b5b828204905092915050565b600061532c82615431565b915061533783615431565b9250817fffffffffffffffffffffffffffffffffffffffffffffffffffffffffffffffff04831182151516156153705761536f6155f2565b5b828202905092915050565b600061538682615431565b915061539183615431565b9250828210156153a4576153a36155f2565b5b828203905092915050565b60006153ba82615411565b9050919050565b60008115159050919050565b6000819050919050565b60007fffffffff0000000000000000000000000000000000000000000000000000000082169050919050565b600061ffff82169050919050565b600073ffffffffffffffffffffffffffffffffffffffff82169050919050565b6000819050919050565b600063ffffffff82169050919050565b600060ff82169050919050565b82818337600083830152505050565b60005b8381101561548557808201518184015260208101905061546a565b83811115615494576000848401525b50505050565b600060028204905060018216806154b257607f821691505b602082108114156154c6576154c5615650565b5b50919050565b6154d582615720565b810181811067ffffffffffffffff821117156154f4576154f36156dd565b5b80604052505050565b600061550882615403565b915061ffff82141561551d5761551c6155f2565b5b600182019050919050565b600061553382615431565b91507fffffffffffffffffffffffffffffffffffffffffffffffffffffffffffffffff821415615566576155656155f2565b5b600182019050919050565b600061557c8261544b565b915060ff8214156155905761558f6155f2565b5b600182019050919050565b6000819050919050565b60006155b082615731565b9050919050565b6000819050919050565b60006155cc82615431565b91506155d783615431565b9250826155e7576155e6615621565b5b828206905092915050565b7f4e487b7100000000000000000000000000000000000000000000000000000000600052601160045260246000fd5b7f4e487b7100000000000000000000000000000000000000000000000000000000600052601260045260246000fd5b7f4e487b7100000000000000000000000000000000000000000000000000000000600052602260045260246000fd5b7f4e487b7100000000000000000000000000000000000000000000000000000000600052603160045260246000fd5b7f4e487b7100000000000000000000000000000000000000000000000000000000600052603260045260246000fd5b7f4e487b7100000000000000000000000000000000000000000000000000000000600052604160045260246000fd5b600080fd5b600080fd5b600080fd5b600080fd5b6000601f19601f8301169050919050565b60008160f01b9050919050565b7f4572723a20444500000000000000000000000000000000000000000000000000600082015250565b7f4572723a20474300000000000000000000000000000000000000000000000000600082015250565b7f4572723a204e4100000000000000000000000000000000000000000000000000600082015250565b7f4572723a20410000000000000000000000000000000000000000000000000000600082015250565b7f455243373231456e756d657261626c653a206f776e657220696e646578206f7560008201527f74206f6620626f756e6473000000000000000000000000000000000000000000602082015250565b7f4552433732313a207472616e7366657220746f206e6f6e20455243373231526560008201527f63656976657220696d706c656d656e7465720000000000000000000000000000602082015250565b7f4552433732313a207472616e736665722066726f6d20696e636f72726563742060008201527f6f776e6572000000000000000000000000000000000000000000000000000000602082015250565b7f4552433732313a20746f6b656e20616c7265616479206d696e74656400000000600082015250565b7f4572723a20546f6f206869676800000000000000000000000000000000000000600082015250565b7f4552433732313a207472616e7366657220746f20746865207a65726f2061646460008201527f7265737300000000000000000000000000000000000000000000000000000000602082015250565b7f4552433732313a20617070726f766520746f2063616c6c657200000000000000600082015250565b7f4552433732313a206f70657261746f7220717565727920666f72206e6f6e657860008201527f697374656e7420746f6b656e0000000000000000000000000000000000000000602082015250565b7f4552433732313a20617070726f76652063616c6c6572206973206e6f74206f7760008201527f6e6572206e6f7220617070726f76656420666f7220616c6c0000000000000000602082015250565b7f4552433732313a2062616c616e636520717565727920666f7220746865207a6560008201527f726f206164647265737300000000000000000000000000000000000000000000602082015250565b7f4552433732313a206f776e657220717565727920666f72206e6f6e657869737460008201527f656e7420746f6b656e0000000000000000000000000000000000000000000000602082015250565b7f4552433732313a206d696e7420746f20746865207a65726f2061646472657373600082015250565b7f4552433732313a20617070726f76656420717565727920666f72206e6f6e657860008201527f697374656e7420746f6b656e0000000000000000000000000000000000000000602082015250565b7f4572723a50617900000000000000000000000000000000000000000000000000600082015250565b7f4552433732314d657461646174613a2055524920717565727920666f72206e6f60008201527f6e6578697374656e7420746f6b656e0000000000000000000000000000000000602082015250565b7f4f6e6c7920565246436f6f7264696e61746f722063616e2066756c66696c6c00600082015250565b7f4552433732313a20617070726f76616c20746f2063757272656e74206f776e6560008201527f7200000000000000000000000000000000000000000000000000000000000000602082015250565b7f4572723a204d4d00000000000000000000000000000000000000000000000000600082015250565b7f4552433732313a207472616e736665722063616c6c6572206973206e6f74206f60008201527f776e6572206e6f7220617070726f766564000000000000000000000000000000602082015250565b7f455243373231456e756d657261626c653a20676c6f62616c20696e646578206f60008201527f7574206f6620626f756e64730000000000000000000000000000000000000000602082015250565b7f4572723a20494200000000000000000000000000000000000000000000000000600082015250565b7f4572723a204c4200000000000000000000000000000000000000000000000000600082015250565b7f4572723a20436170000000000000000000000000000000000000000000000000600082015250565b615d88816153af565b8114615d9357600080fd5b50565b615d9f816153c1565b8114615daa57600080fd5b50565b615db6816153cd565b8114615dc157600080fd5b50565b615dcd816153d7565b8114615dd857600080fd5b50565b615de481615403565b8114615def57600080fd5b50565b615dfb81615431565b8114615e0657600080fd5b50565b615e128161543b565b8114615e1d57600080fd5b50565b615e298161544b565b8114615e3457600080fd5b5056fea26469706673582212207cebf8614f3b2303edcde81ce894356743cb90552b1e5dd7014f2ffce12b79a164736f6c63430008070033",
  "linkReferences": {},
  "deployedLinkReferences": {}
}