{
  "_format": "hh-sol-artifact-1",
  "contractName": "Minter",
  "sourceName": "contracts/minter.sol",
  "abi": [
    {
      "inputs": [
        {
          "internalType": "address[]",
          "name": "_rewardedAddresses",
          "type": "address[]"
        },
        {
          "internalType": "address[]",
          "name": "_paymentsTo",
          "type": "address[]"
        },
        {
          "internalType": "address",
          "name": "_vrfCoordinator",
          "type": "address"
        },
        {
          "internalType": "address",
          "name": "_linkToken",
          "type": "address"
        },
        {
          "internalType": "bytes32",
          "name": "_keyHash",
          "type": "bytes32"
        },
        {
          "internalType": "uint256",
          "name": "_OracleFee",
          "type": "uint256"
        }
      ],
      "stateMutability": "nonpayable",
      "type": "constructor"
    },
    {
      "anonymous": false,
      "inputs": [
        {
          "indexed": true,
          "internalType": "address",
          "name": "owner",
          "type": "address"
        },
        {
          "indexed": true,
          "internalType": "address",
          "name": "approved",
          "type": "address"
        },
        {
          "indexed": true,
          "internalType": "uint256",
          "name": "tokenId",
          "type": "uint256"
        }
      ],
      "name": "Approval",
      "type": "event"
    },
    {
      "anonymous": false,
      "inputs": [
        {
          "indexed": true,
          "internalType": "address",
          "name": "owner",
          "type": "address"
        },
        {
          "indexed": true,
          "internalType": "address",
          "name": "operator",
          "type": "address"
        },
        {
          "indexed": false,
          "internalType": "bool",
          "name": "approved",
          "type": "bool"
        }
      ],
      "name": "ApprovalForAll",
      "type": "event"
    },
    {
      "anonymous": false,
      "inputs": [
        {
          "indexed": false,
          "internalType": "address",
          "name": "winner",
          "type": "address"
        }
      ],
      "name": "PorscheWinner",
      "type": "event"
    },
    {
      "anonymous": false,
      "inputs": [
        {
          "indexed": true,
          "internalType": "address",
          "name": "from",
          "type": "address"
        },
        {
          "indexed": true,
          "internalType": "address",
          "name": "to",
          "type": "address"
        },
        {
          "indexed": true,
          "internalType": "uint256",
          "name": "tokenId",
          "type": "uint256"
        }
      ],
      "name": "Transfer",
      "type": "event"
    },
    {
      "inputs": [],
      "name": "active",
      "outputs": [
        {
          "internalType": "bool",
          "name": "",
          "type": "bool"
        }
      ],
      "stateMutability": "view",
      "type": "function"
    },
    {
      "inputs": [],
      "name": "admin",
      "outputs": [
        {
          "internalType": "address",
          "name": "",
          "type": "address"
        }
      ],
      "stateMutability": "view",
      "type": "function"
    },
    {
      "inputs": [
        {
          "internalType": "address",
          "name": "to",
          "type": "address"
        },
        {
          "internalType": "uint256",
          "name": "tokenId",
          "type": "uint256"
        }
      ],
      "name": "approve",
      "outputs": [],
      "stateMutability": "nonpayable",
      "type": "function"
    },
    {
      "inputs": [
        {
          "internalType": "address",
          "name": "owner",
          "type": "address"
        }
      ],
      "name": "balanceOf",
      "outputs": [
        {
          "internalType": "uint256",
          "name": "",
          "type": "uint256"
        }
      ],
      "stateMutability": "view",
      "type": "function"
    },
    {
      "inputs": [],
      "name": "flipSaleState",
      "outputs": [],
      "stateMutability": "nonpayable",
      "type": "function"
    },
    {
      "inputs": [
        {
          "internalType": "uint16",
          "name": "",
          "type": "uint16"
        }
      ],
      "name": "foundingRaptor",
      "outputs": [
        {
          "internalType": "bool",
          "name": "",
          "type": "bool"
        }
      ],
      "stateMutability": "view",
      "type": "function"
    },
    {
      "inputs": [],
      "name": "gameAddress",
      "outputs": [
        {
          "internalType": "address",
          "name": "",
          "type": "address"
        }
      ],
      "stateMutability": "view",
      "type": "function"
    },
    {
      "inputs": [
        {
          "internalType": "uint256",
          "name": "tokenId",
          "type": "uint256"
        }
      ],
      "name": "getApproved",
      "outputs": [
        {
          "internalType": "address",
          "name": "",
          "type": "address"
        }
      ],
      "stateMutability": "view",
      "type": "function"
    },
    {
      "inputs": [
        {
          "internalType": "uint16",
          "name": "_raptor",
          "type": "uint16"
        }
      ],
      "name": "getCoolDown",
      "outputs": [
        {
          "internalType": "uint32",
          "name": "",
          "type": "uint32"
        }
      ],
      "stateMutability": "view",
      "type": "function"
    },
    {
      "inputs": [
        {
          "internalType": "uint8",
          "name": "_amount",
          "type": "uint8"
        }
      ],
      "name": "getPrice",
      "outputs": [
        {
          "internalType": "uint256",
          "name": "givenPrice",
          "type": "uint256"
        }
      ],
      "stateMutability": "view",
      "type": "function"
    },
    {
      "inputs": [
        {
          "internalType": "uint16",
          "name": "_raptor",
          "type": "uint16"
        }
      ],
      "name": "getSpeed",
      "outputs": [
        {
          "internalType": "uint16",
          "name": "",
          "type": "uint16"
        }
      ],
      "stateMutability": "view",
      "type": "function"
    },
    {
      "inputs": [
        {
          "internalType": "uint16",
          "name": "_raptor",
          "type": "uint16"
        }
      ],
      "name": "getStrength",
      "outputs": [
        {
          "internalType": "uint16",
          "name": "",
          "type": "uint16"
        }
      ],
      "stateMutability": "view",
      "type": "function"
    },
    {
      "inputs": [
        {
          "internalType": "uint16",
          "name": "_raptor",
          "type": "uint16"
        },
        {
          "internalType": "uint32",
          "name": "newTime",
          "type": "uint32"
        }
      ],
      "name": "increaseCooldownTime",
      "outputs": [
        {
          "internalType": "bool",
          "name": "",
          "type": "bool"
        }
      ],
      "stateMutability": "nonpayable",
      "type": "function"
    },
    {
      "inputs": [
        {
          "internalType": "address",
          "name": "owner",
          "type": "address"
        },
        {
          "internalType": "address",
          "name": "operator",
          "type": "address"
        }
      ],
      "name": "isApprovedForAll",
      "outputs": [
        {
          "internalType": "bool",
          "name": "",
          "type": "bool"
        }
      ],
      "stateMutability": "view",
      "type": "function"
    },
    {
      "inputs": [
        {
          "internalType": "uint16",
          "name": "raptor",
          "type": "uint16"
        }
      ],
      "name": "isFoundingRaptor",
      "outputs": [
        {
          "internalType": "bool",
          "name": "",
          "type": "bool"
        }
      ],
      "stateMutability": "view",
      "type": "function"
    },
    {
      "inputs": [
        {
          "internalType": "uint8",
          "name": "_amount",
          "type": "uint8"
        }
      ],
      "name": "mint",
      "outputs": [],
      "stateMutability": "payable",
      "type": "function"
    },
    {
      "inputs": [],
      "name": "name",
      "outputs": [
        {
          "internalType": "string",
          "name": "",
          "type": "string"
        }
      ],
      "stateMutability": "view",
      "type": "function"
    },
    {
      "inputs": [
        {
          "internalType": "uint256",
          "name": "tokenId",
          "type": "uint256"
        }
      ],
      "name": "ownerOf",
      "outputs": [
        {
          "internalType": "address",
          "name": "",
          "type": "address"
        }
      ],
      "stateMutability": "view",
      "type": "function"
    },
    {
      "inputs": [
        {
          "internalType": "uint256",
          "name": "",
          "type": "uint256"
        }
      ],
      "name": "paymentsTo",
      "outputs": [
        {
          "internalType": "address",
          "name": "",
          "type": "address"
        }
      ],
      "stateMutability": "view",
      "type": "function"
    },
    {
      "inputs": [
        {
          "internalType": "uint16",
          "name": "",
          "type": "uint16"
        }
      ],
      "name": "raptorStats",
      "outputs": [
        {
          "internalType": "uint16",
          "name": "speed",
          "type": "uint16"
        },
        {
          "internalType": "uint16",
          "name": "strength",
          "type": "uint16"
        },
        {
          "internalType": "uint16",
          "name": "fightsWon",
          "type": "uint16"
        },
        {
          "internalType": "uint16",
          "name": "quickPlayRacesWon",
          "type": "uint16"
        },
        {
          "internalType": "uint16",
          "name": "compRacesWon",
          "type": "uint16"
        },
        {
          "internalType": "uint16",
          "name": "deathRacesWon",
          "type": "uint16"
        },
        {
          "internalType": "uint16",
          "name": "totalRacesTop3Finish",
          "type": "uint16"
        },
        {
          "internalType": "uint32",
          "name": "cooldownTime",
          "type": "uint32"
        }
      ],
      "stateMutability": "view",
      "type": "function"
    },
    {
      "inputs": [
        {
          "internalType": "bytes32",
          "name": "requestId",
          "type": "bytes32"
        },
        {
          "internalType": "uint256",
          "name": "randomness",
          "type": "uint256"
        }
      ],
      "name": "rawFulfillRandomness",
      "outputs": [],
      "stateMutability": "nonpayable",
      "type": "function"
    },
    {
      "inputs": [],
      "name": "reveal",
      "outputs": [],
      "stateMutability": "nonpayable",
      "type": "function"
    },
    {
      "inputs": [],
      "name": "revealed",
      "outputs": [
        {
          "internalType": "bool",
          "name": "",
          "type": "bool"
        }
      ],
      "stateMutability": "view",
      "type": "function"
    },
    {
      "inputs": [
        {
          "internalType": "address",
          "name": "from",
          "type": "address"
        },
        {
          "internalType": "address",
          "name": "to",
          "type": "address"
        },
        {
          "internalType": "uint256",
          "name": "tokenId",
          "type": "uint256"
        }
      ],
      "name": "safeTransferFrom",
      "outputs": [],
      "stateMutability": "nonpayable",
      "type": "function"
    },
    {
      "inputs": [
        {
          "internalType": "address",
          "name": "from",
          "type": "address"
        },
        {
          "internalType": "address",
          "name": "to",
          "type": "address"
        },
        {
          "internalType": "uint256",
          "name": "tokenId",
          "type": "uint256"
        },
        {
          "internalType": "bytes",
          "name": "_data",
          "type": "bytes"
        }
      ],
      "name": "safeTransferFrom",
      "outputs": [],
      "stateMutability": "nonpayable",
      "type": "function"
    },
    {
      "inputs": [
        {
          "internalType": "address",
          "name": "_admin",
          "type": "address"
        }
      ],
      "name": "setAdmin",
      "outputs": [],
      "stateMutability": "nonpayable",
      "type": "function"
    },
    {
      "inputs": [
        {
          "internalType": "address",
          "name": "operator",
          "type": "address"
        },
        {
          "internalType": "bool",
          "name": "approved",
          "type": "bool"
        }
      ],
      "name": "setApprovalForAll",
      "outputs": [],
      "stateMutability": "nonpayable",
      "type": "function"
    },
    {
      "inputs": [
        {
          "internalType": "uint256",
          "name": "fundsToSplit",
          "type": "uint256"
        }
      ],
      "name": "splitFunds",
      "outputs": [],
      "stateMutability": "payable",
      "type": "function"
    },
    {
      "inputs": [
        {
          "internalType": "bytes4",
          "name": "interfaceId",
          "type": "bytes4"
        }
      ],
      "name": "supportsInterface",
      "outputs": [
        {
          "internalType": "bool",
          "name": "",
          "type": "bool"
        }
      ],
      "stateMutability": "view",
      "type": "function"
    },
    {
      "inputs": [],
      "name": "symbol",
      "outputs": [
        {
          "internalType": "string",
          "name": "",
          "type": "string"
        }
      ],
      "stateMutability": "view",
      "type": "function"
    },
    {
      "inputs": [
        {
          "internalType": "uint256",
          "name": "index",
          "type": "uint256"
        }
      ],
      "name": "tokenByIndex",
      "outputs": [
        {
          "internalType": "uint256",
          "name": "",
          "type": "uint256"
        }
      ],
      "stateMutability": "view",
      "type": "function"
    },
    {
      "inputs": [
        {
          "internalType": "address",
          "name": "owner",
          "type": "address"
        },
        {
          "internalType": "uint256",
          "name": "index",
          "type": "uint256"
        }
      ],
      "name": "tokenOfOwnerByIndex",
      "outputs": [
        {
          "internalType": "uint256",
          "name": "",
          "type": "uint256"
        }
      ],
      "stateMutability": "view",
      "type": "function"
    },
    {
      "inputs": [
        {
          "internalType": "uint256",
          "name": "tokenId",
          "type": "uint256"
        }
      ],
      "name": "tokenURI",
      "outputs": [
        {
          "internalType": "string",
          "name": "",
          "type": "string"
        }
      ],
      "stateMutability": "view",
      "type": "function"
    },
    {
      "inputs": [
        {
          "internalType": "uint16",
          "name": "_tokenId",
          "type": "uint16"
        }
      ],
      "name": "tokenURI",
      "outputs": [
        {
          "internalType": "string",
          "name": "uri",
          "type": "string"
        }
      ],
      "stateMutability": "view",
      "type": "function"
    },
    {
      "inputs": [],
      "name": "totalMintSupply",
      "outputs": [
        {
          "internalType": "uint16",
          "name": "",
          "type": "uint16"
        }
      ],
      "stateMutability": "view",
      "type": "function"
    },
    {
      "inputs": [],
      "name": "totalSupply",
      "outputs": [
        {
          "internalType": "uint256",
          "name": "",
          "type": "uint256"
        }
      ],
      "stateMutability": "view",
      "type": "function"
    },
    {
      "inputs": [
        {
          "internalType": "address",
          "name": "from",
          "type": "address"
        },
        {
          "internalType": "address",
          "name": "to",
          "type": "address"
        },
        {
          "internalType": "uint256",
          "name": "tokenId",
          "type": "uint256"
        }
      ],
      "name": "transferFrom",
      "outputs": [],
      "stateMutability": "nonpayable",
      "type": "function"
    },
    {
      "inputs": [
        {
          "internalType": "address",
          "name": "_gameAddress",
          "type": "address"
        }
      ],
      "name": "updateGameAddress",
      "outputs": [],
      "stateMutability": "nonpayable",
      "type": "function"
    },
    {
      "inputs": [
        {
          "internalType": "address",
          "name": "_paymentTo",
          "type": "address"
        },
        {
          "internalType": "uint8",
          "name": "index",
          "type": "uint8"
        }
      ],
      "name": "updatePaymentTo",
      "outputs": [],
      "stateMutability": "nonpayable",
      "type": "function"
    },
    {
      "inputs": [
        {
          "internalType": "uint16",
          "name": "_raptor",
          "type": "uint16"
        }
      ],
      "name": "upgradeCompWins",
      "outputs": [
        {
          "internalType": "bool",
          "name": "",
          "type": "bool"
        }
      ],
      "stateMutability": "nonpayable",
      "type": "function"
    },
    {
      "inputs": [
        {
          "internalType": "uint16",
          "name": "_raptor",
          "type": "uint16"
        }
      ],
      "name": "upgradeDRWins",
      "outputs": [
        {
          "internalType": "bool",
          "name": "",
          "type": "bool"
        }
      ],
      "stateMutability": "nonpayable",
      "type": "function"
    },
    {
      "inputs": [
        {
          "internalType": "uint16",
          "name": "_raptor",
          "type": "uint16"
        }
      ],
      "name": "upgradeQPWins",
      "outputs": [
        {
          "internalType": "bool",
          "name": "",
          "type": "bool"
        }
      ],
      "stateMutability": "nonpayable",
      "type": "function"
    },
    {
      "inputs": [
        {
          "internalType": "uint16",
          "name": "_raptor",
          "type": "uint16"
        },
        {
          "internalType": "uint8",
          "name": "_amount",
          "type": "uint8"
        }
      ],
      "name": "upgradeSpeed",
      "outputs": [
        {
          "internalType": "bool",
          "name": "",
          "type": "bool"
        }
      ],
      "stateMutability": "nonpayable",
      "type": "function"
    },
    {
      "inputs": [
        {
          "internalType": "uint16",
          "name": "_raptor",
          "type": "uint16"
        },
        {
          "internalType": "uint8",
          "name": "_amount",
          "type": "uint8"
        }
      ],
      "name": "upgradeStrength",
      "outputs": [
        {
          "internalType": "bool",
          "name": "",
          "type": "bool"
        }
      ],
      "stateMutability": "nonpayable",
      "type": "function"
    },
    {
      "inputs": [
        {
          "internalType": "uint16",
          "name": "_raptor",
          "type": "uint16"
        }
      ],
      "name": "upgradeTop3Finishes",
      "outputs": [
        {
          "internalType": "bool",
          "name": "",
          "type": "bool"
        }
      ],
      "stateMutability": "nonpayable",
      "type": "function"
    },
    {
      "inputs": [
        {
          "internalType": "uint16",
          "name": "_raptor",
          "type": "uint16"
        }
      ],
      "name": "upgradefightsWon",
      "outputs": [
        {
          "internalType": "bool",
          "name": "",
          "type": "bool"
        }
      ],
      "stateMutability": "nonpayable",
      "type": "function"
    },
    {
      "inputs": [
        {
          "internalType": "address",
          "name": "_wallet",
          "type": "address"
        }
      ],
      "name": "walletOfOwner",
      "outputs": [
        {
          "internalType": "uint16[]",
          "name": "ids",
          "type": "uint16[]"
        }
      ],
      "stateMutability": "view",
      "type": "function"
    },
    {
      "stateMutability": "payable",
      "type": "receive"
    }
  ],
  "bytecode": "0x60c06040526040518060400160405280601d81526020017f68747470733a2f2f676174657761792e70696e6174612e636c6f75642f000000815250600c90805190602001906200005192919062001048565b506040518060400160405280600981526020017f536f6d65204349442f0000000000000000000000000000000000000000000000815250600d90805190602001906200009f92919062001048565b506040518060400160405280600581526020017f2e4a534f4e000000000000000000000000000000000000000000000000000000815250600e9080519060200190620000ed92919062001048565b506040518060400160405280601081526020017f4e6f7452657665616c6564204861736800000000000000000000000000000000815250600f90805190602001906200013b92919062001048565b50671bc16d674ec800006014556000601560006101000a81548161ffff021916908361ffff160217905550612710601560026101000a81548161ffff021916908361ffff1602179055506040518060200160405280600360ff168152506017906001620001aa929190620010d9565b50348015620001b857600080fd5b50604051620079c0380380620079c08339818101604052810190620001de919062001328565b83836040518060400160405280601181526020017f526163696e6720526170746f72732056320000000000000000000000000000008152506040518060400160405280600281526020017f525200000000000000000000000000000000000000000000000000000000000081525081600090805190602001906200026492919062001048565b5080600190805190602001906200027d92919062001048565b5050508173ffffffffffffffffffffffffffffffffffffffff1660a08173ffffffffffffffffffffffffffffffffffffffff1660601b815250508073ffffffffffffffffffffffffffffffffffffffff1660808173ffffffffffffffffffffffffffffffffffffffff1660601b815250505050816011819055508060128190555085601690805190602001906200031692919062001187565b506001600b60146101000a81548160ff02191690831515021790555062000342620003b760201b60201c565b600b60006101000a81548173ffffffffffffffffffffffffffffffffffffffff021916908373ffffffffffffffffffffffffffffffffffffffff16021790555084601890805190602001906200039a92919062001187565b50620003ab620003bf60201b60201c565b505050505050620019b2565b600033905090565b60005b6016805490508160ff1610156200072a5760005b60178260ff1681548110620003f057620003ef620017f1565b5b90600052602060002090602091828204019190069054906101000a900460ff1660ff168160ff16101562000713576001601560008282829054906101000a900461ffff166200044091906200158f565b92506101000a81548161ffff021916908361ffff160217905550620004c460168360ff1681548110620004785762000477620017f1565b5b9060005260206000200160009054906101000a900473ffffffffffffffffffffffffffffffffffffffff16601560009054906101000a900461ffff1661ffff166200072d60201b60201c565b6200050c601560059054906101000a900473ffffffffffffffffffffffffffffffffffffffff16601560009054906101000a900461ffff1661ffff166200092760201b60201c565b604051806101000160405280600161ffff168152602001600161ffff168152602001600061ffff168152602001600061ffff168152602001600061ffff168152602001600061ffff168152602001600061ffff1681526020014263ffffffff1681525060136000601560009054906101000a900461ffff1661ffff1661ffff16815260200190815260200160002060008201518160000160006101000a81548161ffff021916908361ffff16021790555060208201518160000160026101000a81548161ffff021916908361ffff16021790555060408201518160000160046101000a81548161ffff021916908361ffff16021790555060608201518160000160066101000a81548161ffff021916908361ffff16021790555060808201518160000160086101000a81548161ffff021916908361ffff16021790555060a082015181600001600a6101000a81548161ffff021916908361ffff16021790555060c082015181600001600c6101000a81548161ffff021916908361ffff16021790555060e082015181600001600e6101000a81548163ffffffff021916908363ffffffff160217905550905050600160196000601560009054906101000a900461ffff1661ffff1661ffff16815260200190815260200160002060006101000a81548160ff02191690831515021790555080806200070a9062001735565b915050620003d6565b508080620007219062001735565b915050620003c2565b50565b600073ffffffffffffffffffffffffffffffffffffffff168273ffffffffffffffffffffffffffffffffffffffff161415620007a0576040517f08c379a0000000000000000000000000000000000000000000000000000000008152600401620007979062001504565b60405180910390fd5b620007b181620009ed60201b60201c565b15620007f4576040517f08c379a0000000000000000000000000000000000000000000000000000000008152600401620007eb906200149e565b60405180910390fd5b620008086000838362000a5960201b60201c565b6001600360008473ffffffffffffffffffffffffffffffffffffffff1673ffffffffffffffffffffffffffffffffffffffff16815260200190815260200160002060008282546200085a9190620015ce565b92505081905550816002600083815260200190815260200160002060006101000a81548173ffffffffffffffffffffffffffffffffffffffff021916908373ffffffffffffffffffffffffffffffffffffffff160217905550808273ffffffffffffffffffffffffffffffffffffffff16600073ffffffffffffffffffffffffffffffffffffffff167fddf252ad1be2c89b69c2b068fc378daa952ba7f163c4a11628f55a4df523b3ef60405160405180910390a4620009236000838362000ba060201b60201c565b5050565b816004600083815260200190815260200160002060006101000a81548173ffffffffffffffffffffffffffffffffffffffff021916908373ffffffffffffffffffffffffffffffffffffffff160217905550808273ffffffffffffffffffffffffffffffffffffffff16620009a78362000ba560201b620017e41760201c565b73ffffffffffffffffffffffffffffffffffffffff167f8c5be1e5ebec7d5bd14f71427d1e84f3dd0314c0f7b2291e5b200ac8c7c3b92560405160405180910390a45050565b60008073ffffffffffffffffffffffffffffffffffffffff166002600084815260200190815260200160002060009054906101000a900473ffffffffffffffffffffffffffffffffffffffff1673ffffffffffffffffffffffffffffffffffffffff1614159050919050565b62000a7183838362000c5a60201b62002b281760201c565b600073ffffffffffffffffffffffffffffffffffffffff168373ffffffffffffffffffffffffffffffffffffffff16141562000abe5762000ab88162000c5f60201b60201c565b62000b06565b8173ffffffffffffffffffffffffffffffffffffffff168373ffffffffffffffffffffffffffffffffffffffff161462000b055762000b04838262000ca860201b60201c565b5b5b600073ffffffffffffffffffffffffffffffffffffffff168273ffffffffffffffffffffffffffffffffffffffff16141562000b535762000b4d8162000e2560201b60201c565b62000b9b565b8273ffffffffffffffffffffffffffffffffffffffff168273ffffffffffffffffffffffffffffffffffffffff161462000b9a5762000b99828262000f0160201b60201c565b5b5b505050565b505050565b6000806002600084815260200190815260200160002060009054906101000a900473ffffffffffffffffffffffffffffffffffffffff169050600073ffffffffffffffffffffffffffffffffffffffff168173ffffffffffffffffffffffffffffffffffffffff16141562000c51576040517f08c379a000000000000000000000000000000000000000000000000000000000815260040162000c4890620014e2565b60405180910390fd5b80915050919050565b505050565b6008805490506009600083815260200190815260200160002081905550600881908060018154018082558091505060019003906000526020600020016000909190919091505550565b6000600162000cc28462000f8d60201b62001ed01760201c565b62000cce91906200162b565b905060006007600084815260200190815260200160002054905081811462000db4576000600660008673ffffffffffffffffffffffffffffffffffffffff1673ffffffffffffffffffffffffffffffffffffffff168152602001908152602001600020600084815260200190815260200160002054905080600660008773ffffffffffffffffffffffffffffffffffffffff1673ffffffffffffffffffffffffffffffffffffffff168152602001908152602001600020600084815260200190815260200160002081905550816007600083815260200190815260200160002081905550505b6007600084815260200190815260200160002060009055600660008573ffffffffffffffffffffffffffffffffffffffff1673ffffffffffffffffffffffffffffffffffffffff16815260200190815260200160002060008381526020019081526020016000206000905550505050565b6000600160088054905062000e3b91906200162b565b905060006009600084815260200190815260200160002054905060006008838154811062000e6e5762000e6d620017f1565b5b90600052602060002001549050806008838154811062000e935762000e92620017f1565b5b90600052602060002001819055508160096000838152602001908152602001600020819055506009600085815260200190815260200160002060009055600880548062000ee55762000ee4620017c2565b5b6001900381819060005260206000200160009055905550505050565b600062000f198362000f8d60201b62001ed01760201c565b905081600660008573ffffffffffffffffffffffffffffffffffffffff1673ffffffffffffffffffffffffffffffffffffffff168152602001908152602001600020600083815260200190815260200160002081905550806007600084815260200190815260200160002081905550505050565b60008073ffffffffffffffffffffffffffffffffffffffff168273ffffffffffffffffffffffffffffffffffffffff16141562001001576040517f08c379a000000000000000000000000000000000000000000000000000000000815260040162000ff890620014c0565b60405180910390fd5b600360008373ffffffffffffffffffffffffffffffffffffffff1673ffffffffffffffffffffffffffffffffffffffff168152602001908152602001600020549050919050565b8280546200105690620016c9565b90600052602060002090601f0160209004810192826200107a5760008555620010c6565b82601f106200109557805160ff1916838001178555620010c6565b82800160010185558215620010c6579182015b82811115620010c5578251825591602001919060010190620010a8565b5b509050620010d5919062001216565b5090565b82805482825590600052602060002090601f01602090048101928215620011745791602002820160005b838211156200114357835183826101000a81548160ff021916908360ff160217905550926020019260010160208160000104928301926001030262001103565b8015620011725782816101000a81549060ff021916905560010160208160000104928301926001030262001143565b505b50905062001183919062001216565b5090565b82805482825590600052602060002090810192821562001203579160200282015b82811115620012025782518260006101000a81548173ffffffffffffffffffffffffffffffffffffffff021916908373ffffffffffffffffffffffffffffffffffffffff16021790555091602001919060010190620011a8565b5b50905062001212919062001216565b5090565b5b808211156200123157600081600090555060010162001217565b5090565b60006200124c62001246846200154f565b62001526565b9050808382526020820190508285602086028201111562001272576200127162001854565b5b60005b85811015620012a657816200128b8882620012b0565b84526020840193506020830192505060018101905062001275565b5050509392505050565b600081519050620012c18162001964565b92915050565b600082601f830112620012df57620012de6200184f565b5b8151620012f184826020860162001235565b91505092915050565b6000815190506200130b816200197e565b92915050565b600081519050620013228162001998565b92915050565b60008060008060008060c087890312156200134857620013476200185e565b5b600087015167ffffffffffffffff81111562001369576200136862001859565b5b6200137789828a01620012c7565b965050602087015167ffffffffffffffff8111156200139b576200139a62001859565b5b620013a989828a01620012c7565b9550506040620013bc89828a01620012b0565b9450506060620013cf89828a01620012b0565b9350506080620013e289828a01620012fa565b92505060a0620013f589828a0162001311565b9150509295509295509295565b600062001411601c836200157e565b91506200141e8262001874565b602082019050919050565b600062001438602a836200157e565b915062001445826200189d565b604082019050919050565b60006200145f6029836200157e565b91506200146c82620018ec565b604082019050919050565b6000620014866020836200157e565b915062001493826200193b565b602082019050919050565b60006020820190508181036000830152620014b98162001402565b9050919050565b60006020820190508181036000830152620014db8162001429565b9050919050565b60006020820190508181036000830152620014fd8162001450565b9050919050565b600060208201905081810360008301526200151f8162001477565b9050919050565b60006200153262001545565b9050620015408282620016ff565b919050565b6000604051905090565b600067ffffffffffffffff8211156200156d576200156c62001820565b5b602082029050602081019050919050565b600082825260208201905092915050565b60006200159c8262001684565b9150620015a98362001684565b92508261ffff03821115620015c357620015c262001764565b5b828201905092915050565b6000620015db82620016b2565b9150620015e883620016b2565b9250827fffffffffffffffffffffffffffffffffffffffffffffffffffffffffffffffff0382111562001620576200161f62001764565b5b828201905092915050565b60006200163882620016b2565b91506200164583620016b2565b9250828210156200165b576200165a62001764565b5b828203905092915050565b6000620016738262001692565b9050919050565b6000819050919050565b600061ffff82169050919050565b600073ffffffffffffffffffffffffffffffffffffffff82169050919050565b6000819050919050565b600060ff82169050919050565b60006002820490506001821680620016e257607f821691505b60208210811415620016f957620016f862001793565b5b50919050565b6200170a8262001863565b810181811067ffffffffffffffff821117156200172c576200172b62001820565b5b80604052505050565b60006200174282620016bc565b915060ff82141562001759576200175862001764565b5b600182019050919050565b7f4e487b7100000000000000000000000000000000000000000000000000000000600052601160045260246000fd5b7f4e487b7100000000000000000000000000000000000000000000000000000000600052602260045260246000fd5b7f4e487b7100000000000000000000000000000000000000000000000000000000600052603160045260246000fd5b7f4e487b7100000000000000000000000000000000000000000000000000000000600052603260045260246000fd5b7f4e487b7100000000000000000000000000000000000000000000000000000000600052604160045260246000fd5b600080fd5b600080fd5b600080fd5b600080fd5b6000601f19601f8301169050919050565b7f4552433732313a20746f6b656e20616c7265616479206d696e74656400000000600082015250565b7f4552433732313a2062616c616e636520717565727920666f7220746865207a6560008201527f726f206164647265737300000000000000000000000000000000000000000000602082015250565b7f4552433732313a206f776e657220717565727920666f72206e6f6e657869737460008201527f656e7420746f6b656e0000000000000000000000000000000000000000000000602082015250565b7f4552433732313a206d696e7420746f20746865207a65726f2061646472657373600082015250565b6200196f8162001666565b81146200197b57600080fd5b50565b62001989816200167a565b81146200199557600080fd5b50565b620019a381620016b2565b8114620019af57600080fd5b50565b60805160601c60a05160601c615fd4620019ec600039600081816121860152613a9d0152600081816133e10152613a610152615fd46000f3fe60806040526004361061028c5760003560e01c806367c1fcfe1161015a578063a168d873116100c1578063bb5553441161007a578063bb55534414610ac1578063c87b56dd14610afe578063db258f9c14610b3b578063dd7d844014610b64578063e985e9c514610ba1578063f851a44014610bde5761029c565b8063a168d873146109b3578063a22cb465146109de578063a475b5dd14610a07578063a57ce66114610a1e578063b4dd385e14610a5b578063b88d4fde14610a985761029c565b80638bffef62116101135780638bffef62146108645780638cc3b366146108a157806394985ddd146108e557806395d76d9d1461090e57806395d89b411461094b5780639d7182ee146109765761029c565b806367c1fcfe146107515780636ecd23061461077a578063704b6c021461079657806370a08231146107bf5780637e442efa146107fc57806385e0832c146108395761029c565b80632f1335cf116101fe578063438b6300116101b7578063438b6300146105f55780634f6ccce714610632578063518302271461066f578063530180631461069a5780636201917f146106d75780636352211e146107145761029c565b80632f1335cf146104e25780632f745c59146104fe578063334bfefc1461053b57806334918dfd1461057857806337f1e7f21461058f57806342842e0e146105cc5761029c565b80630a473536116102505780630a4735361461039a5780630a8dc157146103d75780630c7c97071461041457806310e1e2d21461045157806318160ddd1461048e57806323b872dd146104b95761029c565b806301ffc9a7146102a157806302fb0c5e146102de57806306fdde0314610309578063081812fc14610334578063095ea7b3146103715761029c565b3661029c5761029a34610c09565b005b600080fd5b3480156102ad57600080fd5b506102c860048036038101906102c391906144b5565b610e0e565b6040516102d59190614dce565b60405180910390f35b3480156102ea57600080fd5b506102f3610e88565b6040516103009190614dce565b60405180910390f35b34801561031557600080fd5b5061031e610e9b565b60405161032b9190614e57565b60405180910390f35b34801561034057600080fd5b5061035b600480360381019061035691906145bc565b610f2d565b6040516103689190614d07565b60405180910390f35b34801561037d57600080fd5b50610398600480360381019061039391906143c8565b610fb2565b005b3480156103a657600080fd5b506103c160048036038101906103bc919061450f565b6110ca565b6040516103ce9190614dce565b60405180910390f35b3480156103e357600080fd5b506103fe60048036038101906103f991906145bc565b6111c2565b60405161040b9190614d07565b60405180910390f35b34801561042057600080fd5b5061043b6004803603810190610436919061450f565b611201565b6040516104489190614dce565b60405180910390f35b34801561045d57600080fd5b506104786004803603810190610473919061450f565b6112f9565b60405161048591906151d9565b60405180910390f35b34801561049a57600080fd5b506104a361132f565b6040516104b09190615272565b60405180910390f35b3480156104c557600080fd5b506104e060048036038101906104db91906142b2565b61133c565b005b6104fc60048036038101906104f791906145bc565b610c09565b005b34801561050a57600080fd5b50610525600480360381019061052091906143c8565b61139c565b6040516105329190615272565b60405180910390f35b34801561054757600080fd5b50610562600480360381019061055d919061450f565b611441565b60405161056f9190614dce565b60405180910390f35b34801561058457600080fd5b5061058d611539565b005b34801561059b57600080fd5b506105b660048036038101906105b19190614616565b6115fc565b6040516105c39190615272565b60405180910390f35b3480156105d857600080fd5b506105f360048036038101906105ee91906142b2565b611622565b005b34801561060157600080fd5b5061061c60048036038101906106179190614245565b611642565b6040516106299190614dac565b60405180910390f35b34801561063e57600080fd5b50610659600480360381019061065491906145bc565b611708565b6040516106669190615272565b60405180910390f35b34801561067b57600080fd5b50610684611779565b6040516106919190614dce565b60405180910390f35b3480156106a657600080fd5b506106c160048036038101906106bc919061450f565b61178c565b6040516106ce9190614dce565b60405180910390f35b3480156106e357600080fd5b506106fe60048036038101906106f9919061450f565b6117ac565b60405161070b919061528d565b60405180910390f35b34801561072057600080fd5b5061073b600480360381019061073691906145bc565b6117e4565b6040516107489190614d07565b60405180910390f35b34801561075d57600080fd5b5061077860048036038101906107739190614408565b611896565b005b610794600480360381019061078f9190614616565b611991565b005b3480156107a257600080fd5b506107bd60048036038101906107b89190614245565b611df5565b005b3480156107cb57600080fd5b506107e660048036038101906107e19190614245565b611ed0565b6040516107f39190615272565b60405180910390f35b34801561080857600080fd5b50610823600480360381019061081e919061450f565b611f88565b6040516108309190614dce565b60405180910390f35b34801561084557600080fd5b5061084e612080565b60405161085b91906151d9565b60405180910390f35b34801561087057600080fd5b5061088b6004803603810190610886919061450f565b612094565b60405161089891906151d9565b60405180910390f35b3480156108ad57600080fd5b506108c860048036038101906108c3919061450f565b6120ca565b6040516108dc9897969594939291906151f4565b60405180910390f35b3480156108f157600080fd5b5061090c60048036038101906109079190614475565b612184565b005b34801561091a57600080fd5b506109356004803603810190610930919061450f565b612220565b6040516109429190614dce565b60405180910390f35b34801561095757600080fd5b50610960612252565b60405161096d9190614e57565b60405180910390f35b34801561098257600080fd5b5061099d6004803603810190610998919061450f565b6122e4565b6040516109aa9190614dce565b60405180910390f35b3480156109bf57600080fd5b506109c86123dc565b6040516109d59190614d07565b60405180910390f35b3480156109ea57600080fd5b50610a056004803603810190610a009190614388565b612402565b005b348015610a1357600080fd5b50610a1c612418565b005b348015610a2a57600080fd5b50610a456004803603810190610a40919061453c565b6124cc565b604051610a529190614dce565b60405180910390f35b348015610a6757600080fd5b50610a826004803603810190610a7d919061457c565b6125b7565b604051610a8f9190614dce565b60405180910390f35b348015610aa457600080fd5b50610abf6004803603810190610aba9190614305565b6126b2565b005b348015610acd57600080fd5b50610ae86004803603810190610ae3919061457c565b612714565b604051610af59190614dce565b60405180910390f35b348015610b0a57600080fd5b50610b256004803603810190610b2091906145bc565b61280f565b604051610b329190614e57565b60405180910390f35b348015610b4757600080fd5b50610b626004803603810190610b5d9190614245565b6128b6565b005b348015610b7057600080fd5b50610b8b6004803603810190610b86919061450f565b612991565b604051610b989190614e57565b60405180910390f35b348015610bad57600080fd5b50610bc86004803603810190610bc39190614272565b612a6e565b604051610bd59190614dce565b60405180910390f35b348015610bea57600080fd5b50610bf3612b02565b604051610c009190614d07565b60405180910390f35b47811115610c4c576040517f08c379a0000000000000000000000000000000000000000000000000000000008152600401610c4390615019565b60405180910390fd5b6018600081548110610c6157610c60615815565b5b9060005260206000200160009054906101000a900473ffffffffffffffffffffffffffffffffffffffff1673ffffffffffffffffffffffffffffffffffffffff166108fc6064601984610cb49190615488565b610cbe9190615457565b9081150290604051600060405180830381858888f19350505050610ce157600080fd5b6018600181548110610cf657610cf5615815565b5b9060005260206000200160009054906101000a900473ffffffffffffffffffffffffffffffffffffffff1673ffffffffffffffffffffffffffffffffffffffff166108fc6064603284610d499190615488565b610d539190615457565b9081150290604051600060405180830381858888f19350505050610d7657600080fd5b6018600281548110610d8b57610d8a615815565b5b9060005260206000200160009054906101000a900473ffffffffffffffffffffffffffffffffffffffff1673ffffffffffffffffffffffffffffffffffffffff166108fc6064601984610dde9190615488565b610de89190615457565b9081150290604051600060405180830381858888f19350505050610e0b57600080fd5b50565b60007f780e9d63000000000000000000000000000000000000000000000000000000007bffffffffffffffffffffffffffffffffffffffffffffffffffffffff1916827bffffffffffffffffffffffffffffffffffffffffffffffffffffffff19161480610e815750610e8082612b2d565b5b9050919050565b600b60149054906101000a900460ff1681565b606060008054610eaa90615601565b80601f0160208091040260200160405190810160405280929190818152602001828054610ed690615601565b8015610f235780601f10610ef857610100808354040283529160200191610f23565b820191906000526020600020905b815481529060010190602001808311610f0657829003601f168201915b5050505050905090565b6000610f3882612c0f565b610f77576040517f08c379a0000000000000000000000000000000000000000000000000000000008152600401610f6e906150d9565b60405180910390fd5b6004600083815260200190815260200160002060009054906101000a900473ffffffffffffffffffffffffffffffffffffffff169050919050565b6000610fbd826117e4565b90508073ffffffffffffffffffffffffffffffffffffffff168373ffffffffffffffffffffffffffffffffffffffff16141561102e576040517f08c379a000000000000000000000000000000000000000000000000000000000815260040161102590615159565b60405180910390fd5b8073ffffffffffffffffffffffffffffffffffffffff1661104d612c7b565b73ffffffffffffffffffffffffffffffffffffffff16148061107c575061107b81611076612c7b565b612a6e565b5b6110bb576040517f08c379a00000000000000000000000000000000000000000000000000000000081526004016110b290615059565b60405180910390fd5b6110c58383612c83565b505050565b6000601560059054906101000a900473ffffffffffffffffffffffffffffffffffffffff1673ffffffffffffffffffffffffffffffffffffffff1661110d612c7b565b73ffffffffffffffffffffffffffffffffffffffff1614611163576040517f08c379a000000000000000000000000000000000000000000000000000000000815260040161115a90614e79565b60405180910390fd5b6001601360008461ffff1661ffff168152602001908152602001600020600001600a8282829054906101000a900461ffff1661119f919061538f565b92506101000a81548161ffff021916908361ffff16021790555060019050919050565b601881815481106111d257600080fd5b906000526020600020016000915054906101000a900473ffffffffffffffffffffffffffffffffffffffff1681565b6000601560059054906101000a900473ffffffffffffffffffffffffffffffffffffffff1673ffffffffffffffffffffffffffffffffffffffff16611244612c7b565b73ffffffffffffffffffffffffffffffffffffffff161461129a576040517f08c379a000000000000000000000000000000000000000000000000000000000815260040161129190614e79565b60405180910390fd5b6001601360008461ffff1661ffff168152602001908152602001600020600001600c8282829054906101000a900461ffff166112d6919061538f565b92506101000a81548161ffff021916908361ffff16021790555060019050919050565b6000601360008361ffff1661ffff16815260200190815260200160002060000160029054906101000a900461ffff169050919050565b6000600880549050905090565b61134d611347612c7b565b82612d3c565b61138c576040517f08c379a000000000000000000000000000000000000000000000000000000000815260040161138390615179565b60405180910390fd5b611397838383612e1a565b505050565b60006113a783611ed0565b82106113e8576040517f08c379a00000000000000000000000000000000000000000000000000000000081526004016113df90614eb9565b60405180910390fd5b600660008473ffffffffffffffffffffffffffffffffffffffff1673ffffffffffffffffffffffffffffffffffffffff168152602001908152602001600020600083815260200190815260200160002054905092915050565b6000601560059054906101000a900473ffffffffffffffffffffffffffffffffffffffff1673ffffffffffffffffffffffffffffffffffffffff16611484612c7b565b73ffffffffffffffffffffffffffffffffffffffff16146114da576040517f08c379a00000000000000000000000000000000000000000000000000000000081526004016114d190614e79565b60405180910390fd5b6001601360008461ffff1661ffff16815260200190815260200160002060000160048282829054906101000a900461ffff16611516919061538f565b92506101000a81548161ffff021916908361ffff16021790555060019050919050565b600b60009054906101000a900473ffffffffffffffffffffffffffffffffffffffff1673ffffffffffffffffffffffffffffffffffffffff1661157a612c7b565b73ffffffffffffffffffffffffffffffffffffffff16146115d0576040517f08c379a00000000000000000000000000000000000000000000000000000000081526004016115c790614e99565b60405180910390fd5b600b60149054906101000a900460ff1615600b60146101000a81548160ff021916908315150217905550565b600061161b82601454601560009054906101000a900461ffff16613081565b9050919050565b61163d838383604051806020016040528060008152506126b2565b505050565b6060600061164f83611ed0565b90508061ffff1667ffffffffffffffff81111561166f5761166e615844565b5b60405190808252806020026020018201604052801561169d5781602001602082028036833780820191505090505b50915060005b8161ffff168161ffff161015611701576116c1848261ffff1661139c565b838261ffff16815181106116d8576116d7615815565b5b602002602001019061ffff16908161ffff168152505080806116f990615664565b9150506116a3565b5050919050565b600061171261132f565b8210611753576040517f08c379a000000000000000000000000000000000000000000000000000000000815260040161174a906151b9565b60405180910390fd5b6008828154811061176757611766615815565b5b90600052602060002001549050919050565b601560049054906101000a900460ff1681565b60196020528060005260406000206000915054906101000a900460ff1681565b6000601360008361ffff1661ffff168152602001908152602001600020600001600e9054906101000a900463ffffffff169050919050565b6000806002600084815260200190815260200160002060009054906101000a900473ffffffffffffffffffffffffffffffffffffffff169050600073ffffffffffffffffffffffffffffffffffffffff168173ffffffffffffffffffffffffffffffffffffffff16141561188d576040517f08c379a000000000000000000000000000000000000000000000000000000000815260040161188490615099565b60405180910390fd5b80915050919050565b600b60009054906101000a900473ffffffffffffffffffffffffffffffffffffffff1673ffffffffffffffffffffffffffffffffffffffff166118d7612c7b565b73ffffffffffffffffffffffffffffffffffffffff161461192d576040517f08c379a000000000000000000000000000000000000000000000000000000000815260040161192490614e99565b60405180910390fd5b8160188260ff168154811061194557611944615815565b5b9060005260206000200160006101000a81548173ffffffffffffffffffffffffffffffffffffffff021916908373ffffffffffffffffffffffffffffffffffffffff1602179055505050565b600b60149054906101000a900460ff166119e0576040517f08c379a00000000000000000000000000000000000000000000000000000000081526004016119d790614fd9565b60405180910390fd5b600b60009054906101000a900473ffffffffffffffffffffffffffffffffffffffff1673ffffffffffffffffffffffffffffffffffffffff16611a21612c7b565b73ffffffffffffffffffffffffffffffffffffffff1614611ac857611a45816115fc565b3414611a86576040517f08c379a0000000000000000000000000000000000000000000000000000000008152600401611a7d90614f59565b60405180910390fd5b611aa78160ff16601560009054906101000a900461ffff1661ffff16613154565b15611abe57611ab76014546131bd565b6014819055505b611ac734610c09565b5b600a8160ff161115611b0f576040517f08c379a0000000000000000000000000000000000000000000000000000000008152600401611b0690614f79565b60405180910390fd5b601560029054906101000a900461ffff1661ffff168160ff16601560009054906101000a900461ffff16611b43919061538f565b61ffff161115611b88576040517f08c379a0000000000000000000000000000000000000000000000000000000008152600401611b7f90615039565b60405180910390fd5b60005b8160ff168160ff161015611df1576001601560008282829054906101000a900461ffff16611bb9919061538f565b92506101000a81548161ffff021916908361ffff160217905550611bf8611bde612c7b565b601560009054906101000a900461ffff1661ffff16613202565b604051806101000160405280600161ffff168152602001600161ffff168152602001600061ffff168152602001600061ffff168152602001600061ffff168152602001600061ffff168152602001600061ffff1681526020014263ffffffff1681525060136000601560009054906101000a900461ffff1661ffff1661ffff16815260200190815260200160002060008201518160000160006101000a81548161ffff021916908361ffff16021790555060208201518160000160026101000a81548161ffff021916908361ffff16021790555060408201518160000160046101000a81548161ffff021916908361ffff16021790555060608201518160000160066101000a81548161ffff021916908361ffff16021790555060808201518160000160086101000a81548161ffff021916908361ffff16021790555060a082015181600001600a6101000a81548161ffff021916908361ffff16021790555060c082015181600001600c6101000a81548161ffff021916908361ffff16021790555060e082015181600001600e6101000a81548163ffffffff021916908363ffffffff160217905550905050601560029054906101000a900461ffff1661ffff16601560009054906101000a900461ffff1661ffff161415611dde57611ddd6133dc565b5b8080611de9906156d8565b915050611b8b565b5050565b600b60009054906101000a900473ffffffffffffffffffffffffffffffffffffffff1673ffffffffffffffffffffffffffffffffffffffff16611e36612c7b565b73ffffffffffffffffffffffffffffffffffffffff1614611e8c576040517f08c379a0000000000000000000000000000000000000000000000000000000008152600401611e8390614e99565b60405180910390fd5b80600b60006101000a81548173ffffffffffffffffffffffffffffffffffffffff021916908373ffffffffffffffffffffffffffffffffffffffff16021790555050565b60008073ffffffffffffffffffffffffffffffffffffffff168273ffffffffffffffffffffffffffffffffffffffff161415611f41576040517f08c379a0000000000000000000000000000000000000000000000000000000008152600401611f3890615079565b60405180910390fd5b600360008373ffffffffffffffffffffffffffffffffffffffff1673ffffffffffffffffffffffffffffffffffffffff168152602001908152602001600020549050919050565b6000601560059054906101000a900473ffffffffffffffffffffffffffffffffffffffff1673ffffffffffffffffffffffffffffffffffffffff16611fcb612c7b565b73ffffffffffffffffffffffffffffffffffffffff1614612021576040517f08c379a000000000000000000000000000000000000000000000000000000000815260040161201890614e79565b60405180910390fd5b6001601360008461ffff1661ffff16815260200190815260200160002060000160068282829054906101000a900461ffff1661205d919061538f565b92506101000a81548161ffff021916908361ffff16021790555060019050919050565b601560009054906101000a900461ffff1681565b6000601360008361ffff1661ffff16815260200190815260200160002060000160009054906101000a900461ffff169050919050565b60136020528060005260406000206000915090508060000160009054906101000a900461ffff16908060000160029054906101000a900461ffff16908060000160049054906101000a900461ffff16908060000160069054906101000a900461ffff16908060000160089054906101000a900461ffff169080600001600a9054906101000a900461ffff169080600001600c9054906101000a900461ffff169080600001600e9054906101000a900463ffffffff16905088565b7f000000000000000000000000000000000000000000000000000000000000000073ffffffffffffffffffffffffffffffffffffffff163373ffffffffffffffffffffffffffffffffffffffff1614612212576040517f08c379a000000000000000000000000000000000000000000000000000000000815260040161220990615139565b60405180910390fd5b61221c82826134da565b5050565b6000601960008361ffff1661ffff16815260200190815260200160002060009054906101000a900460ff169050919050565b60606001805461226190615601565b80601f016020809104026020016040519081016040528092919081815260200182805461228d90615601565b80156122da5780601f106122af576101008083540402835291602001916122da565b820191906000526020600020905b8154815290600101906020018083116122bd57829003601f168201915b5050505050905090565b6000601560059054906101000a900473ffffffffffffffffffffffffffffffffffffffff1673ffffffffffffffffffffffffffffffffffffffff16612327612c7b565b73ffffffffffffffffffffffffffffffffffffffff161461237d576040517f08c379a000000000000000000000000000000000000000000000000000000000815260040161237490614e79565b60405180910390fd5b6001601360008461ffff1661ffff16815260200190815260200160002060000160088282829054906101000a900461ffff166123b9919061538f565b92506101000a81548161ffff021916908361ffff16021790555060019050919050565b601560059054906101000a900473ffffffffffffffffffffffffffffffffffffffff1681565b61241461240d612c7b565b8383613530565b5050565b600b60009054906101000a900473ffffffffffffffffffffffffffffffffffffffff1673ffffffffffffffffffffffffffffffffffffffff16612459612c7b565b73ffffffffffffffffffffffffffffffffffffffff16146124af576040517f08c379a00000000000000000000000000000000000000000000000000000000081526004016124a690614e99565b60405180910390fd5b6001601560046101000a81548160ff021916908315150217905550565b6000601560059054906101000a900473ffffffffffffffffffffffffffffffffffffffff1673ffffffffffffffffffffffffffffffffffffffff1661250f612c7b565b73ffffffffffffffffffffffffffffffffffffffff1614612565576040517f08c379a000000000000000000000000000000000000000000000000000000000815260040161255c90614e79565b60405180910390fd5b8142612571919061541d565b601360008561ffff1661ffff168152602001908152602001600020600001600e6101000a81548163ffffffff021916908363ffffffff1602179055506001905092915050565b6000601560059054906101000a900473ffffffffffffffffffffffffffffffffffffffff1673ffffffffffffffffffffffffffffffffffffffff166125fa612c7b565b73ffffffffffffffffffffffffffffffffffffffff1614612650576040517f08c379a000000000000000000000000000000000000000000000000000000000815260040161264790614e79565b60405180910390fd5b8160ff16601360008561ffff1661ffff16815260200190815260200160002060000160028282829054906101000a900461ffff1661268e919061538f565b92506101000a81548161ffff021916908361ffff1602179055506001905092915050565b6126c36126bd612c7b565b83612d3c565b612702576040517f08c379a00000000000000000000000000000000000000000000000000000000081526004016126f990615179565b60405180910390fd5b61270e8484848461369d565b50505050565b6000601560059054906101000a900473ffffffffffffffffffffffffffffffffffffffff1673ffffffffffffffffffffffffffffffffffffffff16612757612c7b565b73ffffffffffffffffffffffffffffffffffffffff16146127ad576040517f08c379a00000000000000000000000000000000000000000000000000000000081526004016127a490614e79565b60405180910390fd5b8160ff16601360008561ffff1661ffff16815260200190815260200160002060000160008282829054906101000a900461ffff166127eb919061538f565b92506101000a81548161ffff021916908361ffff1602179055506001905092915050565b606061281a82612c0f565b612859576040517f08c379a000000000000000000000000000000000000000000000000000000000815260040161285090615119565b60405180910390fd5b60006128636136f9565b9050600081511161288357604051806020016040528060008152506128ae565b8061288d84613710565b60405160200161289e929190614c66565b6040516020818303038152906040525b915050919050565b600b60009054906101000a900473ffffffffffffffffffffffffffffffffffffffff1673ffffffffffffffffffffffffffffffffffffffff166128f7612c7b565b73ffffffffffffffffffffffffffffffffffffffff161461294d576040517f08c379a000000000000000000000000000000000000000000000000000000000815260040161294490614e99565b60405180910390fd5b80601560056101000a81548173ffffffffffffffffffffffffffffffffffffffff021916908373ffffffffffffffffffffffffffffffffffffffff16021790555050565b60606129a08261ffff16612c0f565b6129df576040517f08c379a00000000000000000000000000000000000000000000000000000000081526004016129d6906150f9565b60405180910390fd5b601560049054906101000a900460ff16612a1e57600c600f604051602001612a08929190614c8a565b6040516020818303038152906040529050612a69565b600c600d83604051602001612a339190614cec565b604051602081830303815290604052600e604051602001612a579493929190614cae565b60405160208183030381529060405290505b919050565b6000600560008473ffffffffffffffffffffffffffffffffffffffff1673ffffffffffffffffffffffffffffffffffffffff16815260200190815260200160002060008373ffffffffffffffffffffffffffffffffffffffff1673ffffffffffffffffffffffffffffffffffffffff16815260200190815260200160002060009054906101000a900460ff16905092915050565b600b60009054906101000a900473ffffffffffffffffffffffffffffffffffffffff1681565b505050565b60007f80ac58cd000000000000000000000000000000000000000000000000000000007bffffffffffffffffffffffffffffffffffffffffffffffffffffffff1916827bffffffffffffffffffffffffffffffffffffffffffffffffffffffff19161480612bf857507f5b5e139f000000000000000000000000000000000000000000000000000000007bffffffffffffffffffffffffffffffffffffffffffffffffffffffff1916827bffffffffffffffffffffffffffffffffffffffffffffffffffffffff1916145b80612c085750612c0782613871565b5b9050919050565b60008073ffffffffffffffffffffffffffffffffffffffff166002600084815260200190815260200160002060009054906101000a900473ffffffffffffffffffffffffffffffffffffffff1673ffffffffffffffffffffffffffffffffffffffff1614159050919050565b600033905090565b816004600083815260200190815260200160002060006101000a81548173ffffffffffffffffffffffffffffffffffffffff021916908373ffffffffffffffffffffffffffffffffffffffff160217905550808273ffffffffffffffffffffffffffffffffffffffff16612cf6836117e4565b73ffffffffffffffffffffffffffffffffffffffff167f8c5be1e5ebec7d5bd14f71427d1e84f3dd0314c0f7b2291e5b200ac8c7c3b92560405160405180910390a45050565b6000612d4782612c0f565b612d86576040517f08c379a0000000000000000000000000000000000000000000000000000000008152600401612d7d90614ff9565b60405180910390fd5b6000612d91836117e4565b90508073ffffffffffffffffffffffffffffffffffffffff168473ffffffffffffffffffffffffffffffffffffffff161480612e0057508373ffffffffffffffffffffffffffffffffffffffff16612de884610f2d565b73ffffffffffffffffffffffffffffffffffffffff16145b80612e115750612e108185612a6e565b5b91505092915050565b8273ffffffffffffffffffffffffffffffffffffffff16612e3a826117e4565b73ffffffffffffffffffffffffffffffffffffffff1614612e90576040517f08c379a0000000000000000000000000000000000000000000000000000000008152600401612e8790614ef9565b60405180910390fd5b600073ffffffffffffffffffffffffffffffffffffffff168273ffffffffffffffffffffffffffffffffffffffff161415612f00576040517f08c379a0000000000000000000000000000000000000000000000000000000008152600401612ef790614f99565b60405180910390fd5b612f0b8383836138db565b612f16600082612c83565b6001600360008573ffffffffffffffffffffffffffffffffffffffff1673ffffffffffffffffffffffffffffffffffffffff1681526020019081526020016000206000828254612f6691906154e2565b925050819055506001600360008473ffffffffffffffffffffffffffffffffffffffff1673ffffffffffffffffffffffffffffffffffffffff1681526020019081526020016000206000828254612fbd91906153c7565b92505081905550816002600083815260200190815260200160002060006101000a81548173ffffffffffffffffffffffffffffffffffffffff021916908373ffffffffffffffffffffffffffffffffffffffff160217905550808273ffffffffffffffffffffffffffffffffffffffff168473ffffffffffffffffffffffffffffffffffffffff167fddf252ad1be2c89b69c2b068fc378daa952ba7f163c4a11628f55a4df523b3ef60405160405180910390a461307c8383836139ef565b505050565b6000600a8460ff1611156130ca576040517f08c379a00000000000000000000000000000000000000000000000000000000081526004016130c190614f39565b60405180910390fd5b60006130dd8560ff168461ffff16613154565b9050801561313a576000806130f98760ff168661ffff166139f4565b915091508060ff1660028761310e9190615488565b6131189190615488565b8260ff16876131279190615488565b61313191906153c7565b9350505061314c565b8460ff16846131499190615488565b91505b509392505050565b60006103e8838361316591906153c7565b101561317457600090506131b7565b60006103e8848461318591906153c7565b61318f9190615728565b9050600081101580156131a25750600a81105b156131b15760019150506131b7565b60009150505b92915050565b6000600182901b90507f18d394ba347d8c318a1db51c85288b956d598b2925be44758ee6f2edb9e2a06b816040516131f59190615272565b60405180910390a1919050565b600073ffffffffffffffffffffffffffffffffffffffff168273ffffffffffffffffffffffffffffffffffffffff161415613272576040517f08c379a0000000000000000000000000000000000000000000000000000000008152600401613269906150b9565b60405180910390fd5b61327b81612c0f565b156132bb576040517f08c379a00000000000000000000000000000000000000000000000000000000081526004016132b290614f19565b60405180910390fd5b6132c7600083836138db565b6001600360008473ffffffffffffffffffffffffffffffffffffffff1673ffffffffffffffffffffffffffffffffffffffff168152602001908152602001600020600082825461331791906153c7565b92505081905550816002600083815260200190815260200160002060006101000a81548173ffffffffffffffffffffffffffffffffffffffff021916908373ffffffffffffffffffffffffffffffffffffffff160217905550808273ffffffffffffffffffffffffffffffffffffffff16600073ffffffffffffffffffffffffffffffffffffffff167fddf252ad1be2c89b69c2b068fc378daa952ba7f163c4a11628f55a4df523b3ef60405160405180910390a46133d8600083836139ef565b5050565b6012547f000000000000000000000000000000000000000000000000000000000000000073ffffffffffffffffffffffffffffffffffffffff166370a08231306040518263ffffffff1660e01b81526004016134389190614d07565b60206040518083038186803b15801561345057600080fd5b505afa158015613464573d6000803e3d6000fd5b505050506040513d601f19601f8201168201806040525081019061348891906145e9565b10156134c9576040517f08c379a00000000000000000000000000000000000000000000000000000000081526004016134c090615199565b60405180910390fd5b6134d7601154601254613a5d565b50565b6000612710826134ea9190615728565b90507fb75047a36befaef84e90ca4c55f0673352e2942c569d5726c6cf463a043903f2613516826117e4565b6040516135239190614d07565b60405180910390a1505050565b8173ffffffffffffffffffffffffffffffffffffffff168373ffffffffffffffffffffffffffffffffffffffff16141561359f576040517f08c379a000000000000000000000000000000000000000000000000000000000815260040161359690614fb9565b60405180910390fd5b80600560008573ffffffffffffffffffffffffffffffffffffffff1673ffffffffffffffffffffffffffffffffffffffff16815260200190815260200160002060008473ffffffffffffffffffffffffffffffffffffffff1673ffffffffffffffffffffffffffffffffffffffff16815260200190815260200160002060006101000a81548160ff0219169083151502179055508173ffffffffffffffffffffffffffffffffffffffff168373ffffffffffffffffffffffffffffffffffffffff167f17307eab39ab6107e8899845ad3d59bd9653f200f220920489ca2b5937696c31836040516136909190614dce565b60405180910390a3505050565b6136a8848484612e1a565b6136b484848484613bbf565b6136f3576040517f08c379a00000000000000000000000000000000000000000000000000000000081526004016136ea90614ed9565b60405180910390fd5b50505050565b606060405180602001604052806000815250905090565b60606000821415613758576040518060400160405280600181526020017f3000000000000000000000000000000000000000000000000000000000000000815250905061386c565b600082905060005b6000821461378a5780806137739061568f565b915050600a826137839190615457565b9150613760565b60008167ffffffffffffffff8111156137a6576137a5615844565b5b6040519080825280601f01601f1916602001820160405280156137d85781602001600182028036833780820191505090505b5090505b60008514613865576001826137f191906154e2565b9150600a856138009190615728565b603061380c91906153c7565b60f81b81838151811061382257613821615815565b5b60200101907effffffffffffffffffffffffffffffffffffffffffffffffffffffffffffff1916908160001a905350600a8561385e9190615457565b94506137dc565b8093505050505b919050565b60007f01ffc9a7000000000000000000000000000000000000000000000000000000007bffffffffffffffffffffffffffffffffffffffffffffffffffffffff1916827bffffffffffffffffffffffffffffffffffffffffffffffffffffffff1916149050919050565b6138e6838383612b28565b600073ffffffffffffffffffffffffffffffffffffffff168373ffffffffffffffffffffffffffffffffffffffff1614156139295761392481613d56565b613968565b8173ffffffffffffffffffffffffffffffffffffffff168373ffffffffffffffffffffffffffffffffffffffff1614613967576139668382613d9f565b5b5b600073ffffffffffffffffffffffffffffffffffffffff168273ffffffffffffffffffffffffffffffffffffffff1614156139ab576139a681613f0c565b6139ea565b8273ffffffffffffffffffffffffffffffffffffffff168273ffffffffffffffffffffffffffffffffffffffff16146139e9576139e88282613fdd565b5b5b505050565b505050565b60008060005b84811015613a5557613a18600182613a1291906153c7565b85613154565b15613a4257600181613a2a91906153c7565b92508260ff1685613a3b91906154e2565b9150613a55565b8080613a4d9061568f565b9150506139fa565b509250929050565b60007f000000000000000000000000000000000000000000000000000000000000000073ffffffffffffffffffffffffffffffffffffffff16634000aea07f000000000000000000000000000000000000000000000000000000000000000084866000604051602001613ad1929190614de9565b6040516020818303038152906040526040518463ffffffff1660e01b8152600401613afe93929190614d6e565b602060405180830381600087803b158015613b1857600080fd5b505af1158015613b2c573d6000803e3d6000fd5b505050506040513d601f19601f82011682018060405250810190613b509190614448565b506000613b7384600030600a60008981526020019081526020016000205461405c565b90506001600a600086815260200190815260200160002054613b9591906153c7565b600a600086815260200190815260200160002081905550613bb68482614098565b91505092915050565b6000613be08473ffffffffffffffffffffffffffffffffffffffff166140cb565b15613d49578373ffffffffffffffffffffffffffffffffffffffff1663150b7a02613c09612c7b565b8786866040518563ffffffff1660e01b8152600401613c2b9493929190614d22565b602060405180830381600087803b158015613c4557600080fd5b505af1925050508015613c7657506040513d601f19601f82011682018060405250810190613c7391906144e2565b60015b613cf9573d8060008114613ca6576040519150601f19603f3d011682016040523d82523d6000602084013e613cab565b606091505b50600081511415613cf1576040517f08c379a0000000000000000000000000000000000000000000000000000000008152600401613ce890614ed9565b60405180910390fd5b805181602001fd5b63150b7a0260e01b7bffffffffffffffffffffffffffffffffffffffffffffffffffffffff1916817bffffffffffffffffffffffffffffffffffffffffffffffffffffffff191614915050613d4e565b600190505b949350505050565b6008805490506009600083815260200190815260200160002081905550600881908060018154018082558091505060019003906000526020600020016000909190919091505550565b60006001613dac84611ed0565b613db691906154e2565b9050600060076000848152602001908152602001600020549050818114613e9b576000600660008673ffffffffffffffffffffffffffffffffffffffff1673ffffffffffffffffffffffffffffffffffffffff168152602001908152602001600020600084815260200190815260200160002054905080600660008773ffffffffffffffffffffffffffffffffffffffff1673ffffffffffffffffffffffffffffffffffffffff168152602001908152602001600020600084815260200190815260200160002081905550816007600083815260200190815260200160002081905550505b6007600084815260200190815260200160002060009055600660008573ffffffffffffffffffffffffffffffffffffffff1673ffffffffffffffffffffffffffffffffffffffff16815260200190815260200160002060008381526020019081526020016000206000905550505050565b60006001600880549050613f2091906154e2565b9050600060096000848152602001908152602001600020549050600060088381548110613f5057613f4f615815565b5b906000526020600020015490508060088381548110613f7257613f71615815565b5b906000526020600020018190555081600960008381526020019081526020016000208190555060096000858152602001908152602001600020600090556008805480613fc157613fc06157e6565b5b6001900381819060005260206000200160009055905550505050565b6000613fe883611ed0565b905081600660008573ffffffffffffffffffffffffffffffffffffffff1673ffffffffffffffffffffffffffffffffffffffff168152602001908152602001600020600083815260200190815260200160002081905550806007600084815260200190815260200160002081905550505050565b6000848484846040516020016140759493929190614e12565b6040516020818303038152906040528051906020012060001c9050949350505050565b600082826040516020016140ad929190614c3a565b60405160208183030381529060405280519060200120905092915050565b6000808273ffffffffffffffffffffffffffffffffffffffff163b119050919050565b60006141016140fc846152cd565b6152a8565b90508281526020810184848401111561411d5761411c615878565b5b6141288482856155bf565b509392505050565b60008135905061413f81615ee6565b92915050565b60008135905061415481615efd565b92915050565b60008151905061416981615efd565b92915050565b60008135905061417e81615f14565b92915050565b60008135905061419381615f2b565b92915050565b6000815190506141a881615f2b565b92915050565b600082601f8301126141c3576141c2615873565b5b81356141d38482602086016140ee565b91505092915050565b6000813590506141eb81615f42565b92915050565b60008135905061420081615f59565b92915050565b60008151905061421581615f59565b92915050565b60008135905061422a81615f70565b92915050565b60008135905061423f81615f87565b92915050565b60006020828403121561425b5761425a615882565b5b600061426984828501614130565b91505092915050565b6000806040838503121561428957614288615882565b5b600061429785828601614130565b92505060206142a885828601614130565b9150509250929050565b6000806000606084860312156142cb576142ca615882565b5b60006142d986828701614130565b93505060206142ea86828701614130565b92505060406142fb868287016141f1565b9150509250925092565b6000806000806080858703121561431f5761431e615882565b5b600061432d87828801614130565b945050602061433e87828801614130565b935050604061434f878288016141f1565b925050606085013567ffffffffffffffff8111156143705761436f61587d565b5b61437c878288016141ae565b91505092959194509250565b6000806040838503121561439f5761439e615882565b5b60006143ad85828601614130565b92505060206143be85828601614145565b9150509250929050565b600080604083850312156143df576143de615882565b5b60006143ed85828601614130565b92505060206143fe858286016141f1565b9150509250929050565b6000806040838503121561441f5761441e615882565b5b600061442d85828601614130565b925050602061443e85828601614230565b9150509250929050565b60006020828403121561445e5761445d615882565b5b600061446c8482850161415a565b91505092915050565b6000806040838503121561448c5761448b615882565b5b600061449a8582860161416f565b92505060206144ab858286016141f1565b9150509250929050565b6000602082840312156144cb576144ca615882565b5b60006144d984828501614184565b91505092915050565b6000602082840312156144f8576144f7615882565b5b600061450684828501614199565b91505092915050565b60006020828403121561452557614524615882565b5b6000614533848285016141dc565b91505092915050565b6000806040838503121561455357614552615882565b5b6000614561858286016141dc565b92505060206145728582860161421b565b9150509250929050565b6000806040838503121561459357614592615882565b5b60006145a1858286016141dc565b92505060206145b285828601614230565b9150509250929050565b6000602082840312156145d2576145d1615882565b5b60006145e0848285016141f1565b91505092915050565b6000602082840312156145ff576145fe615882565b5b600061460d84828501614206565b91505092915050565b60006020828403121561462c5761462b615882565b5b600061463a84828501614230565b91505092915050565b600061464f8383614bd0565b60208301905092915050565b61466481615516565b82525050565b600061467582615323565b61467f8185615351565b935061468a836152fe565b8060005b838110156146bb5781516146a28882614643565b97506146ad83615344565b92505060018101905061468e565b5085935050505092915050565b6146d181615528565b82525050565b6146e081615534565b82525050565b6146f76146f282615534565b615702565b82525050565b60006147088261532e565b6147128185615362565b93506147228185602086016155ce565b61472b81615887565b840191505092915050565b600061474182615339565b61474b8185615373565b935061475b8185602086016155ce565b61476481615887565b840191505092915050565b600061477a82615339565b6147848185615384565b93506147948185602086016155ce565b80840191505092915050565b600081546147ad81615601565b6147b78186615384565b945060018216600081146147d257600181146147e357614816565b60ff19831686528186019350614816565b6147ec8561530e565b60005b8381101561480e578154818901526001820191506020810190506147ef565b838801955050505b50505092915050565b600061482c600783615373565b9150614837826158a5565b602082019050919050565b600061484f600683615373565b915061485a826158ce565b602082019050919050565b6000614872602b83615373565b915061487d826158f7565b604082019050919050565b6000614895603283615373565b91506148a082615946565b604082019050919050565b60006148b8602583615373565b91506148c382615995565b604082019050919050565b60006148db601c83615373565b91506148e6826159e4565b602082019050919050565b60006148fe600d83615373565b915061490982615a0d565b602082019050919050565b6000614921600a83615373565b915061492c82615a36565b602082019050919050565b6000614944600d83615373565b915061494f82615a5f565b602082019050919050565b6000614967602483615373565b915061497282615a88565b604082019050919050565b600061498a601983615373565b915061499582615ad7565b602082019050919050565b60006149ad600f83615373565b91506149b882615b00565b602082019050919050565b60006149d0602c83615373565b91506149db82615b29565b604082019050919050565b60006149f3601983615373565b91506149fe82615b78565b602082019050919050565b6000614a16600c83615373565b9150614a2182615ba1565b602082019050919050565b6000614a39603883615373565b9150614a4482615bca565b604082019050919050565b6000614a5c602a83615373565b9150614a6782615c19565b604082019050919050565b6000614a7f602983615373565b9150614a8a82615c68565b604082019050919050565b6000614aa2602083615373565b9150614aad82615cb7565b602082019050919050565b6000614ac5602c83615373565b9150614ad082615ce0565b604082019050919050565b6000614ae8600d83615373565b9150614af382615d2f565b602082019050919050565b6000614b0b602f83615373565b9150614b1682615d58565b604082019050919050565b6000614b2e601f83615373565b9150614b3982615da7565b602082019050919050565b6000614b51602183615373565b9150614b5c82615dd0565b604082019050919050565b6000614b74603183615373565b9150614b7f82615e1f565b604082019050919050565b6000614b97600d83615373565b9150614ba282615e6e565b602082019050919050565b6000614bba602c83615373565b9150614bc582615e97565b604082019050919050565b614bd98161556a565b82525050565b614be88161556a565b82525050565b614bff614bfa8261556a565b61570c565b82525050565b614c0e81615598565b82525050565b614c25614c2082615598565b61571e565b82525050565b614c34816155a2565b82525050565b6000614c4682856146e6565b602082019150614c568284614c14565b6020820191508190509392505050565b6000614c72828561476f565b9150614c7e828461476f565b91508190509392505050565b6000614c9682856147a0565b9150614ca282846147a0565b91508190509392505050565b6000614cba82876147a0565b9150614cc682866147a0565b9150614cd2828561476f565b9150614cde82846147a0565b915081905095945050505050565b6000614cf88284614bee565b60028201915081905092915050565b6000602082019050614d1c600083018461465b565b92915050565b6000608082019050614d37600083018761465b565b614d44602083018661465b565b614d516040830185614c05565b8181036060830152614d6381846146fd565b905095945050505050565b6000606082019050614d83600083018661465b565b614d906020830185614c05565b8181036040830152614da281846146fd565b9050949350505050565b60006020820190508181036000830152614dc6818461466a565b905092915050565b6000602082019050614de360008301846146c8565b92915050565b6000604082019050614dfe60008301856146d7565b614e0b6020830184614c05565b9392505050565b6000608082019050614e2760008301876146d7565b614e346020830186614c05565b614e41604083018561465b565b614e4e6060830184614c05565b95945050505050565b60006020820190508181036000830152614e718184614736565b905092915050565b60006020820190508181036000830152614e928161481f565b9050919050565b60006020820190508181036000830152614eb281614842565b9050919050565b60006020820190508181036000830152614ed281614865565b9050919050565b60006020820190508181036000830152614ef281614888565b9050919050565b60006020820190508181036000830152614f12816148ab565b9050919050565b60006020820190508181036000830152614f32816148ce565b9050919050565b60006020820190508181036000830152614f52816148f1565b9050919050565b60006020820190508181036000830152614f7281614914565b9050919050565b60006020820190508181036000830152614f9281614937565b9050919050565b60006020820190508181036000830152614fb28161495a565b9050919050565b60006020820190508181036000830152614fd28161497d565b9050919050565b60006020820190508181036000830152614ff2816149a0565b9050919050565b60006020820190508181036000830152615012816149c3565b9050919050565b60006020820190508181036000830152615032816149e6565b9050919050565b6000602082019050818103600083015261505281614a09565b9050919050565b6000602082019050818103600083015261507281614a2c565b9050919050565b6000602082019050818103600083015261509281614a4f565b9050919050565b600060208201905081810360008301526150b281614a72565b9050919050565b600060208201905081810360008301526150d281614a95565b9050919050565b600060208201905081810360008301526150f281614ab8565b9050919050565b6000602082019050818103600083015261511281614adb565b9050919050565b6000602082019050818103600083015261513281614afe565b9050919050565b6000602082019050818103600083015261515281614b21565b9050919050565b6000602082019050818103600083015261517281614b44565b9050919050565b6000602082019050818103600083015261519281614b67565b9050919050565b600060208201905081810360008301526151b281614b8a565b9050919050565b600060208201905081810360008301526151d281614bad565b9050919050565b60006020820190506151ee6000830184614bdf565b92915050565b60006101008201905061520a600083018b614bdf565b615217602083018a614bdf565b6152246040830189614bdf565b6152316060830188614bdf565b61523e6080830187614bdf565b61524b60a0830186614bdf565b61525860c0830185614bdf565b61526560e0830184614c2b565b9998505050505050505050565b60006020820190506152876000830184614c05565b92915050565b60006020820190506152a26000830184614c2b565b92915050565b60006152b26152c3565b90506152be8282615633565b919050565b6000604051905090565b600067ffffffffffffffff8211156152e8576152e7615844565b5b6152f182615887565b9050602081019050919050565b6000819050602082019050919050565b60008190508160005260206000209050919050565b600081519050919050565b600081519050919050565b600081519050919050565b6000602082019050919050565b600082825260208201905092915050565b600082825260208201905092915050565b600082825260208201905092915050565b600081905092915050565b600061539a8261556a565b91506153a58361556a565b92508261ffff038211156153bc576153bb615759565b5b828201905092915050565b60006153d282615598565b91506153dd83615598565b9250827fffffffffffffffffffffffffffffffffffffffffffffffffffffffffffffffff0382111561541257615411615759565b5b828201905092915050565b6000615428826155a2565b9150615433836155a2565b92508263ffffffff0382111561544c5761544b615759565b5b828201905092915050565b600061546282615598565b915061546d83615598565b92508261547d5761547c615788565b5b828204905092915050565b600061549382615598565b915061549e83615598565b9250817fffffffffffffffffffffffffffffffffffffffffffffffffffffffffffffffff04831182151516156154d7576154d6615759565b5b828202905092915050565b60006154ed82615598565b91506154f883615598565b92508282101561550b5761550a615759565b5b828203905092915050565b600061552182615578565b9050919050565b60008115159050919050565b6000819050919050565b60007fffffffff0000000000000000000000000000000000000000000000000000000082169050919050565b600061ffff82169050919050565b600073ffffffffffffffffffffffffffffffffffffffff82169050919050565b6000819050919050565b600063ffffffff82169050919050565b600060ff82169050919050565b82818337600083830152505050565b60005b838110156155ec5780820151818401526020810190506155d1565b838111156155fb576000848401525b50505050565b6000600282049050600182168061561957607f821691505b6020821081141561562d5761562c6157b7565b5b50919050565b61563c82615887565b810181811067ffffffffffffffff8211171561565b5761565a615844565b5b80604052505050565b600061566f8261556a565b915061ffff82141561568457615683615759565b5b600182019050919050565b600061569a82615598565b91507fffffffffffffffffffffffffffffffffffffffffffffffffffffffffffffffff8214156156cd576156cc615759565b5b600182019050919050565b60006156e3826155b2565b915060ff8214156156f7576156f6615759565b5b600182019050919050565b6000819050919050565b600061571782615898565b9050919050565b6000819050919050565b600061573382615598565b915061573e83615598565b92508261574e5761574d615788565b5b828206905092915050565b7f4e487b7100000000000000000000000000000000000000000000000000000000600052601160045260246000fd5b7f4e487b7100000000000000000000000000000000000000000000000000000000600052601260045260246000fd5b7f4e487b7100000000000000000000000000000000000000000000000000000000600052602260045260246000fd5b7f4e487b7100000000000000000000000000000000000000000000000000000000600052603160045260246000fd5b7f4e487b7100000000000000000000000000000000000000000000000000000000600052603260045260246000fd5b7f4e487b7100000000000000000000000000000000000000000000000000000000600052604160045260246000fd5b600080fd5b600080fd5b600080fd5b600080fd5b6000601f19601f8301169050919050565b60008160f01b9050919050565b7f4572723a20474300000000000000000000000000000000000000000000000000600082015250565b7f4572723a20410000000000000000000000000000000000000000000000000000600082015250565b7f455243373231456e756d657261626c653a206f776e657220696e646578206f7560008201527f74206f6620626f756e6473000000000000000000000000000000000000000000602082015250565b7f4552433732313a207472616e7366657220746f206e6f6e20455243373231526560008201527f63656976657220696d706c656d656e7465720000000000000000000000000000602082015250565b7f4552433732313a207472616e736665722066726f6d20696e636f72726563742060008201527f6f776e6572000000000000000000000000000000000000000000000000000000602082015250565b7f4552433732313a20746f6b656e20616c7265616479206d696e74656400000000600082015250565b7f4572723a20546f6f206869676800000000000000000000000000000000000000600082015250565b7f4572723a2046756e647300000000000000000000000000000000000000000000600082015250565b7f4572723a204d696e74204d617800000000000000000000000000000000000000600082015250565b7f4552433732313a207472616e7366657220746f20746865207a65726f2061646460008201527f7265737300000000000000000000000000000000000000000000000000000000602082015250565b7f4552433732313a20617070726f766520746f2063616c6c657200000000000000600082015250565b7f4572723a204e6f74204163746976650000000000000000000000000000000000600082015250565b7f4552433732313a206f70657261746f7220717565727920666f72206e6f6e657860008201527f697374656e7420746f6b656e0000000000000000000000000000000000000000602082015250565b7f4572723a20496e73756666696369656e742042616c616e636500000000000000600082015250565b7f4572723a20486974204361700000000000000000000000000000000000000000600082015250565b7f4552433732313a20617070726f76652063616c6c6572206973206e6f74206f7760008201527f6e6572206e6f7220617070726f76656420666f7220616c6c0000000000000000602082015250565b7f4552433732313a2062616c616e636520717565727920666f7220746865207a6560008201527f726f206164647265737300000000000000000000000000000000000000000000602082015250565b7f4552433732313a206f776e657220717565727920666f72206e6f6e657869737460008201527f656e7420746f6b656e0000000000000000000000000000000000000000000000602082015250565b7f4552433732313a206d696e7420746f20746865207a65726f2061646472657373600082015250565b7f4552433732313a20617070726f76656420717565727920666f72206e6f6e657860008201527f697374656e7420746f6b656e0000000000000000000000000000000000000000602082015250565b7f446f65736e277420457869737400000000000000000000000000000000000000600082015250565b7f4552433732314d657461646174613a2055524920717565727920666f72206e6f60008201527f6e6578697374656e7420746f6b656e0000000000000000000000000000000000602082015250565b7f4f6e6c7920565246436f6f7264696e61746f722063616e2066756c66696c6c00600082015250565b7f4552433732313a20617070726f76616c20746f2063757272656e74206f776e6560008201527f7200000000000000000000000000000000000000000000000000000000000000602082015250565b7f4552433732313a207472616e736665722063616c6c6572206973206e6f74206f60008201527f776e6572206e6f7220617070726f766564000000000000000000000000000000602082015250565b7f4572723a204c696e6b2042616c00000000000000000000000000000000000000600082015250565b7f455243373231456e756d657261626c653a20676c6f62616c20696e646578206f60008201527f7574206f6620626f756e64730000000000000000000000000000000000000000602082015250565b615eef81615516565b8114615efa57600080fd5b50565b615f0681615528565b8114615f1157600080fd5b50565b615f1d81615534565b8114615f2857600080fd5b50565b615f348161553e565b8114615f3f57600080fd5b50565b615f4b8161556a565b8114615f5657600080fd5b50565b615f6281615598565b8114615f6d57600080fd5b50565b615f79816155a2565b8114615f8457600080fd5b50565b615f90816155b2565b8114615f9b57600080fd5b5056fea2646970667358221220c9d439a45f78cc7d764dcce28d9e02294a35fb92dbf9701f2d123e9bffc62f4964736f6c63430008070033",
  "linkReferences": {},
  "deployedLinkReferences": {}
}