{
  "_format": "hh-sol-artifact-1",
  "contractName": "Minter",
  "sourceName": "contracts/minter.sol",
  "abi": [
    {
      "inputs": [
        {
          "internalType": "string",
          "name": "_baseURI",
          "type": "string"
        },
        {
          "internalType": "string",
          "name": "_CID",
          "type": "string"
        },
        {
          "internalType": "string",
          "name": "_notRevealed",
          "type": "string"
        },
        {
          "internalType": "string",
          "name": "_extension",
          "type": "string"
        },
        {
          "internalType": "uint16",
          "name": "_totalLimit",
          "type": "uint16"
        },
        {
          "internalType": "string",
          "name": "_soldOutMessage",
          "type": "string"
        },
        {
          "internalType": "address[]",
          "name": "_rewardedAddresses",
          "type": "address[]"
        },
        {
          "internalType": "address[]",
          "name": "_paymentsTo",
          "type": "address[]"
        }
      ],
      "stateMutability": "nonpayable",
      "type": "constructor"
    },
    {
      "anonymous": false,
      "inputs": [
        {
          "indexed": true,
          "internalType": "address",
          "name": "owner",
          "type": "address"
        },
        {
          "indexed": true,
          "internalType": "address",
          "name": "approved",
          "type": "address"
        },
        {
          "indexed": true,
          "internalType": "uint256",
          "name": "tokenId",
          "type": "uint256"
        }
      ],
      "name": "Approval",
      "type": "event"
    },
    {
      "anonymous": false,
      "inputs": [
        {
          "indexed": true,
          "internalType": "address",
          "name": "owner",
          "type": "address"
        },
        {
          "indexed": true,
          "internalType": "address",
          "name": "operator",
          "type": "address"
        },
        {
          "indexed": false,
          "internalType": "bool",
          "name": "approved",
          "type": "bool"
        }
      ],
      "name": "ApprovalForAll",
      "type": "event"
    },
    {
      "anonymous": false,
      "inputs": [
        {
          "indexed": false,
          "internalType": "address",
          "name": "to",
          "type": "address"
        },
        {
          "indexed": false,
          "internalType": "uint16",
          "name": "tokenId",
          "type": "uint16"
        }
      ],
      "name": "Mint",
      "type": "event"
    },
    {
      "anonymous": false,
      "inputs": [
        {
          "indexed": false,
          "internalType": "address",
          "name": "newAdmin",
          "type": "address"
        }
      ],
      "name": "NewAdmin",
      "type": "event"
    },
    {
      "anonymous": false,
      "inputs": [
        {
          "indexed": false,
          "internalType": "address",
          "name": "gameContract",
          "type": "address"
        }
      ],
      "name": "NewGameContract",
      "type": "event"
    },
    {
      "anonymous": false,
      "inputs": [
        {
          "indexed": false,
          "internalType": "address",
          "name": "winner",
          "type": "address"
        }
      ],
      "name": "PorscheWinner",
      "type": "event"
    },
    {
      "anonymous": false,
      "inputs": [
        {
          "indexed": false,
          "internalType": "uint256",
          "name": "newPrice",
          "type": "uint256"
        }
      ],
      "name": "PriceIncrease",
      "type": "event"
    },
    {
      "anonymous": false,
      "inputs": [
        {
          "indexed": false,
          "internalType": "string",
          "name": "message",
          "type": "string"
        }
      ],
      "name": "SoldOut",
      "type": "event"
    },
    {
      "anonymous": false,
      "inputs": [
        {
          "indexed": false,
          "internalType": "uint16",
          "name": "tokenId",
          "type": "uint16"
        },
        {
          "components": [
            {
              "internalType": "uint16",
              "name": "speed",
              "type": "uint16"
            },
            {
              "internalType": "uint16",
              "name": "strength",
              "type": "uint16"
            },
            {
              "internalType": "uint16",
              "name": "agressiveness",
              "type": "uint16"
            },
            {
              "internalType": "uint16",
              "name": "fightsWon",
              "type": "uint16"
            },
            {
              "internalType": "uint16",
              "name": "fightsLost",
              "type": "uint16"
            },
            {
              "internalType": "uint16",
              "name": "quickPlayRacesWon",
              "type": "uint16"
            },
            {
              "internalType": "uint16",
              "name": "quickPlayRacesLost",
              "type": "uint16"
            },
            {
              "internalType": "uint16",
              "name": "compRacesWon",
              "type": "uint16"
            },
            {
              "internalType": "uint16",
              "name": "compRacesLost",
              "type": "uint16"
            },
            {
              "internalType": "uint16",
              "name": "deathRacesWon",
              "type": "uint16"
            },
            {
              "internalType": "uint16",
              "name": "deathRacesLost",
              "type": "uint16"
            },
            {
              "internalType": "uint16",
              "name": "deathRacesSurvived",
              "type": "uint16"
            },
            {
              "internalType": "uint16",
              "name": "deathRaceFightsWon",
              "type": "uint16"
            },
            {
              "internalType": "uint16",
              "name": "totalRacesTop3Finish",
              "type": "uint16"
            },
            {
              "internalType": "uint256",
              "name": "cooldownTime",
              "type": "uint256"
            },
            {
              "internalType": "bool",
              "name": "foundingRaptor",
              "type": "bool"
            }
          ],
          "indexed": false,
          "internalType": "struct Stats",
          "name": "stats",
          "type": "tuple"
        }
      ],
      "name": "StatsUpdated",
      "type": "event"
    },
    {
      "anonymous": false,
      "inputs": [
        {
          "indexed": true,
          "internalType": "address",
          "name": "from",
          "type": "address"
        },
        {
          "indexed": true,
          "internalType": "address",
          "name": "to",
          "type": "address"
        },
        {
          "indexed": true,
          "internalType": "uint256",
          "name": "tokenId",
          "type": "uint256"
        }
      ],
      "name": "Transfer",
      "type": "event"
    },
    {
      "inputs": [],
      "name": "active",
      "outputs": [
        {
          "internalType": "bool",
          "name": "",
          "type": "bool"
        }
      ],
      "stateMutability": "view",
      "type": "function"
    },
    {
      "inputs": [],
      "name": "admin",
      "outputs": [
        {
          "internalType": "address",
          "name": "",
          "type": "address"
        }
      ],
      "stateMutability": "view",
      "type": "function"
    },
    {
      "inputs": [
        {
          "internalType": "address",
          "name": "to",
          "type": "address"
        },
        {
          "internalType": "uint256",
          "name": "tokenId",
          "type": "uint256"
        }
      ],
      "name": "approve",
      "outputs": [],
      "stateMutability": "nonpayable",
      "type": "function"
    },
    {
      "inputs": [
        {
          "internalType": "address",
          "name": "owner",
          "type": "address"
        }
      ],
      "name": "balanceOf",
      "outputs": [
        {
          "internalType": "uint256",
          "name": "",
          "type": "uint256"
        }
      ],
      "stateMutability": "view",
      "type": "function"
    },
    {
      "inputs": [],
      "name": "flipSaleState",
      "outputs": [],
      "stateMutability": "nonpayable",
      "type": "function"
    },
    {
      "inputs": [
        {
          "internalType": "uint256",
          "name": "tokenId",
          "type": "uint256"
        }
      ],
      "name": "getApproved",
      "outputs": [
        {
          "internalType": "address",
          "name": "",
          "type": "address"
        }
      ],
      "stateMutability": "view",
      "type": "function"
    },
    {
      "inputs": [
        {
          "internalType": "uint8",
          "name": "_amount",
          "type": "uint8"
        }
      ],
      "name": "getPrice",
      "outputs": [
        {
          "internalType": "uint256",
          "name": "givenPrice",
          "type": "uint256"
        }
      ],
      "stateMutability": "view",
      "type": "function"
    },
    {
      "inputs": [
        {
          "internalType": "uint16",
          "name": "_id",
          "type": "uint16"
        }
      ],
      "name": "getStats",
      "outputs": [
        {
          "components": [
            {
              "internalType": "uint16",
              "name": "speed",
              "type": "uint16"
            },
            {
              "internalType": "uint16",
              "name": "strength",
              "type": "uint16"
            },
            {
              "internalType": "uint16",
              "name": "agressiveness",
              "type": "uint16"
            },
            {
              "internalType": "uint16",
              "name": "fightsWon",
              "type": "uint16"
            },
            {
              "internalType": "uint16",
              "name": "fightsLost",
              "type": "uint16"
            },
            {
              "internalType": "uint16",
              "name": "quickPlayRacesWon",
              "type": "uint16"
            },
            {
              "internalType": "uint16",
              "name": "quickPlayRacesLost",
              "type": "uint16"
            },
            {
              "internalType": "uint16",
              "name": "compRacesWon",
              "type": "uint16"
            },
            {
              "internalType": "uint16",
              "name": "compRacesLost",
              "type": "uint16"
            },
            {
              "internalType": "uint16",
              "name": "deathRacesWon",
              "type": "uint16"
            },
            {
              "internalType": "uint16",
              "name": "deathRacesLost",
              "type": "uint16"
            },
            {
              "internalType": "uint16",
              "name": "deathRacesSurvived",
              "type": "uint16"
            },
            {
              "internalType": "uint16",
              "name": "deathRaceFightsWon",
              "type": "uint16"
            },
            {
              "internalType": "uint16",
              "name": "totalRacesTop3Finish",
              "type": "uint16"
            },
            {
              "internalType": "uint256",
              "name": "cooldownTime",
              "type": "uint256"
            },
            {
              "internalType": "bool",
              "name": "foundingRaptor",
              "type": "bool"
            }
          ],
          "internalType": "struct Stats",
          "name": "stats",
          "type": "tuple"
        }
      ],
      "stateMutability": "view",
      "type": "function"
    },
    {
      "inputs": [],
      "name": "getTotalMinted",
      "outputs": [
        {
          "internalType": "uint16",
          "name": "total",
          "type": "uint16"
        }
      ],
      "stateMutability": "view",
      "type": "function"
    },
    {
      "inputs": [
        {
          "internalType": "address",
          "name": "owner",
          "type": "address"
        },
        {
          "internalType": "address",
          "name": "operator",
          "type": "address"
        }
      ],
      "name": "isApprovedForAll",
      "outputs": [
        {
          "internalType": "bool",
          "name": "",
          "type": "bool"
        }
      ],
      "stateMutability": "view",
      "type": "function"
    },
    {
      "inputs": [
        {
          "internalType": "uint8",
          "name": "_amount",
          "type": "uint8"
        }
      ],
      "name": "mint",
      "outputs": [],
      "stateMutability": "payable",
      "type": "function"
    },
    {
      "inputs": [],
      "name": "name",
      "outputs": [
        {
          "internalType": "string",
          "name": "",
          "type": "string"
        }
      ],
      "stateMutability": "view",
      "type": "function"
    },
    {
      "inputs": [
        {
          "internalType": "uint256",
          "name": "tokenId",
          "type": "uint256"
        }
      ],
      "name": "ownerOf",
      "outputs": [
        {
          "internalType": "address",
          "name": "",
          "type": "address"
        }
      ],
      "stateMutability": "view",
      "type": "function"
    },
    {
      "inputs": [
        {
          "internalType": "uint256",
          "name": "",
          "type": "uint256"
        }
      ],
      "name": "paymentsTo",
      "outputs": [
        {
          "internalType": "address",
          "name": "",
          "type": "address"
        }
      ],
      "stateMutability": "view",
      "type": "function"
    },
    {
      "inputs": [],
      "name": "reveal",
      "outputs": [],
      "stateMutability": "nonpayable",
      "type": "function"
    },
    {
      "inputs": [
        {
          "internalType": "address",
          "name": "from",
          "type": "address"
        },
        {
          "internalType": "address",
          "name": "to",
          "type": "address"
        },
        {
          "internalType": "uint256",
          "name": "tokenId",
          "type": "uint256"
        }
      ],
      "name": "safeTransferFrom",
      "outputs": [],
      "stateMutability": "nonpayable",
      "type": "function"
    },
    {
      "inputs": [
        {
          "internalType": "address",
          "name": "from",
          "type": "address"
        },
        {
          "internalType": "address",
          "name": "to",
          "type": "address"
        },
        {
          "internalType": "uint256",
          "name": "tokenId",
          "type": "uint256"
        },
        {
          "internalType": "bytes",
          "name": "_data",
          "type": "bytes"
        }
      ],
      "name": "safeTransferFrom",
      "outputs": [],
      "stateMutability": "nonpayable",
      "type": "function"
    },
    {
      "inputs": [
        {
          "internalType": "address",
          "name": "_admin",
          "type": "address"
        }
      ],
      "name": "setAdmin",
      "outputs": [],
      "stateMutability": "nonpayable",
      "type": "function"
    },
    {
      "inputs": [
        {
          "internalType": "address",
          "name": "operator",
          "type": "address"
        },
        {
          "internalType": "bool",
          "name": "approved",
          "type": "bool"
        }
      ],
      "name": "setApprovalForAll",
      "outputs": [],
      "stateMutability": "nonpayable",
      "type": "function"
    },
    {
      "inputs": [
        {
          "internalType": "uint256",
          "name": "fundsToSplit",
          "type": "uint256"
        }
      ],
      "name": "splitFunds",
      "outputs": [],
      "stateMutability": "payable",
      "type": "function"
    },
    {
      "inputs": [
        {
          "internalType": "bytes4",
          "name": "interfaceId",
          "type": "bytes4"
        }
      ],
      "name": "supportsInterface",
      "outputs": [
        {
          "internalType": "bool",
          "name": "",
          "type": "bool"
        }
      ],
      "stateMutability": "view",
      "type": "function"
    },
    {
      "inputs": [],
      "name": "symbol",
      "outputs": [
        {
          "internalType": "string",
          "name": "",
          "type": "string"
        }
      ],
      "stateMutability": "view",
      "type": "function"
    },
    {
      "inputs": [
        {
          "internalType": "uint256",
          "name": "index",
          "type": "uint256"
        }
      ],
      "name": "tokenByIndex",
      "outputs": [
        {
          "internalType": "uint256",
          "name": "",
          "type": "uint256"
        }
      ],
      "stateMutability": "view",
      "type": "function"
    },
    {
      "inputs": [
        {
          "internalType": "address",
          "name": "owner",
          "type": "address"
        },
        {
          "internalType": "uint256",
          "name": "index",
          "type": "uint256"
        }
      ],
      "name": "tokenOfOwnerByIndex",
      "outputs": [
        {
          "internalType": "uint256",
          "name": "",
          "type": "uint256"
        }
      ],
      "stateMutability": "view",
      "type": "function"
    },
    {
      "inputs": [
        {
          "internalType": "uint256",
          "name": "tokenId",
          "type": "uint256"
        }
      ],
      "name": "tokenURI",
      "outputs": [
        {
          "internalType": "string",
          "name": "",
          "type": "string"
        }
      ],
      "stateMutability": "view",
      "type": "function"
    },
    {
      "inputs": [
        {
          "internalType": "uint16",
          "name": "_tokenId",
          "type": "uint16"
        }
      ],
      "name": "tokenURI",
      "outputs": [
        {
          "internalType": "string",
          "name": "uri",
          "type": "string"
        }
      ],
      "stateMutability": "view",
      "type": "function"
    },
    {
      "inputs": [],
      "name": "totalSupply",
      "outputs": [
        {
          "internalType": "uint256",
          "name": "",
          "type": "uint256"
        }
      ],
      "stateMutability": "view",
      "type": "function"
    },
    {
      "inputs": [
        {
          "internalType": "address",
          "name": "from",
          "type": "address"
        },
        {
          "internalType": "address",
          "name": "to",
          "type": "address"
        },
        {
          "internalType": "uint256",
          "name": "tokenId",
          "type": "uint256"
        }
      ],
      "name": "transferFrom",
      "outputs": [],
      "stateMutability": "nonpayable",
      "type": "function"
    },
    {
      "inputs": [
        {
          "internalType": "address",
          "name": "_gameAddress",
          "type": "address"
        }
      ],
      "name": "updateGameAddress",
      "outputs": [],
      "stateMutability": "nonpayable",
      "type": "function"
    },
    {
      "inputs": [
        {
          "internalType": "address",
          "name": "_paymentTo",
          "type": "address"
        },
        {
          "internalType": "uint8",
          "name": "index",
          "type": "uint8"
        }
      ],
      "name": "updatePaymentTo",
      "outputs": [],
      "stateMutability": "nonpayable",
      "type": "function"
    },
    {
      "inputs": [
        {
          "components": [
            {
              "internalType": "uint16",
              "name": "speed",
              "type": "uint16"
            },
            {
              "internalType": "uint16",
              "name": "strength",
              "type": "uint16"
            },
            {
              "internalType": "uint16",
              "name": "agressiveness",
              "type": "uint16"
            },
            {
              "internalType": "uint16",
              "name": "fightsWon",
              "type": "uint16"
            },
            {
              "internalType": "uint16",
              "name": "fightsLost",
              "type": "uint16"
            },
            {
              "internalType": "uint16",
              "name": "quickPlayRacesWon",
              "type": "uint16"
            },
            {
              "internalType": "uint16",
              "name": "quickPlayRacesLost",
              "type": "uint16"
            },
            {
              "internalType": "uint16",
              "name": "compRacesWon",
              "type": "uint16"
            },
            {
              "internalType": "uint16",
              "name": "compRacesLost",
              "type": "uint16"
            },
            {
              "internalType": "uint16",
              "name": "deathRacesWon",
              "type": "uint16"
            },
            {
              "internalType": "uint16",
              "name": "deathRacesLost",
              "type": "uint16"
            },
            {
              "internalType": "uint16",
              "name": "deathRacesSurvived",
              "type": "uint16"
            },
            {
              "internalType": "uint16",
              "name": "deathRaceFightsWon",
              "type": "uint16"
            },
            {
              "internalType": "uint16",
              "name": "totalRacesTop3Finish",
              "type": "uint16"
            },
            {
              "internalType": "uint256",
              "name": "cooldownTime",
              "type": "uint256"
            },
            {
              "internalType": "bool",
              "name": "foundingRaptor",
              "type": "bool"
            }
          ],
          "internalType": "struct Stats",
          "name": "_stats",
          "type": "tuple"
        },
        {
          "internalType": "uint16",
          "name": "_id",
          "type": "uint16"
        }
      ],
      "name": "updateStats",
      "outputs": [
        {
          "internalType": "bool",
          "name": "",
          "type": "bool"
        }
      ],
      "stateMutability": "nonpayable",
      "type": "function"
    },
    {
      "inputs": [
        {
          "internalType": "address",
          "name": "_wallet",
          "type": "address"
        }
      ],
      "name": "walletOfOwner",
      "outputs": [
        {
          "internalType": "uint16[]",
          "name": "ids",
          "type": "uint16[]"
        }
      ],
      "stateMutability": "view",
      "type": "function"
    },
    {
      "stateMutability": "payable",
      "type": "receive"
    }
  ],
  "bytecode": "0x60806040526040518060600160405280600160ff168152602001600260ff168152602001600260ff1681525060149060036200003d9291906200104f565b503480156200004b57600080fd5b50604051620079dd380380620079dd833981810160405281019062000071919062001396565b6040518060400160405280601181526020017f526163696e6720526170746f72732056320000000000000000000000000000008152506040518060400160405280600281526020017f52520000000000000000000000000000000000000000000000000000000000008152508160009080519060200190620000f5929190620010fd565b5080600190805190602001906200010e929190620010fd565b50505060038251146200012057600080fd5b60038151146200012f57600080fd5b8160139080519060200190620001479291906200118e565b5087600b908051906020019062000160929190620010fd565b5086600c908051906020019062000179929190620010fd565b5085600e908051906020019062000192929190620010fd565b5084600d9080519060200190620001ab929190620010fd565b506001600a60146101000a81548160ff0219169083151502179055506000601260006101000a81548161ffff021916908361ffff16021790555083601260026101000a81548161ffff021916908361ffff160217905550671bc16d674ec8000060118190555062000221620002b160201b60201c565b600a60006101000a81548173ffffffffffffffffffffffffffffffffffffffff021916908373ffffffffffffffffffffffffffffffffffffffff1602179055508060159080519060200190620002799291906200118e565b5082600f908051906020019062000292929190620010fd565b50620002a3620002b960201b60201c565b505050505050505062001b35565b600033905090565b60005b6013805490508160ff161015620007315760005b60148260ff1681548110620002ea57620002e962001989565b5b90600052602060002090602091828204019190069054906101000a900460ff1660ff168160ff1610156200071a576001601260008282829054906101000a900461ffff166200033a9190620016fb565b92506101000a81548161ffff021916908361ffff160217905550620003be60138360ff168154811062000372576200037162001989565b5b9060005260206000200160009054906101000a900473ffffffffffffffffffffffffffffffffffffffff16601260009054906101000a900461ffff1661ffff166200073460201b60201c565b62000406601260059054906101000a900473ffffffffffffffffffffffffffffffffffffffff16601260009054906101000a900461ffff1661ffff166200092e60201b60201c565b604051806102000160405280600161ffff168152602001600161ffff168152602001600161ffff168152602001600061ffff168152602001600061ffff168152602001600061ffff168152602001600061ffff168152602001600061ffff168152602001600061ffff168152602001600061ffff168152602001600061ffff168152602001600061ffff168152602001600061ffff168152602001600061ffff168152602001600081526020016001151581525060106000601260009054906101000a900461ffff1661ffff1661ffff16815260200190815260200160002060008201518160000160006101000a81548161ffff021916908361ffff16021790555060208201518160000160026101000a81548161ffff021916908361ffff16021790555060408201518160000160046101000a81548161ffff021916908361ffff16021790555060608201518160000160066101000a81548161ffff021916908361ffff16021790555060808201518160000160086101000a81548161ffff021916908361ffff16021790555060a082015181600001600a6101000a81548161ffff021916908361ffff16021790555060c082015181600001600c6101000a81548161ffff021916908361ffff16021790555060e082015181600001600e6101000a81548161ffff021916908361ffff1602179055506101008201518160000160106101000a81548161ffff021916908361ffff1602179055506101208201518160000160126101000a81548161ffff021916908361ffff1602179055506101408201518160000160146101000a81548161ffff021916908361ffff1602179055506101608201518160000160166101000a81548161ffff021916908361ffff1602179055506101808201518160000160186101000a81548161ffff021916908361ffff1602179055506101a082015181600001601a6101000a81548161ffff021916908361ffff1602179055506101c082015181600101556101e08201518160020160006101000a81548160ff02191690831515021790555090505080806200071190620018cd565b915050620002d0565b5080806200072890620018cd565b915050620002bc565b50565b600073ffffffffffffffffffffffffffffffffffffffff168273ffffffffffffffffffffffffffffffffffffffff161415620007a7576040517f08c379a00000000000000000000000000000000000000000000000000000000081526004016200079e906200163a565b60405180910390fd5b620007b881620009f460201b60201c565b15620007fb576040517f08c379a0000000000000000000000000000000000000000000000000000000008152600401620007f290620015d4565b60405180910390fd5b6200080f6000838362000a6060201b60201c565b6001600360008473ffffffffffffffffffffffffffffffffffffffff1673ffffffffffffffffffffffffffffffffffffffff16815260200190815260200160002060008282546200086191906200173a565b92505081905550816002600083815260200190815260200160002060006101000a81548173ffffffffffffffffffffffffffffffffffffffff021916908373ffffffffffffffffffffffffffffffffffffffff160217905550808273ffffffffffffffffffffffffffffffffffffffff16600073ffffffffffffffffffffffffffffffffffffffff167fddf252ad1be2c89b69c2b068fc378daa952ba7f163c4a11628f55a4df523b3ef60405160405180910390a46200092a6000838362000ba760201b60201c565b5050565b816004600083815260200190815260200160002060006101000a81548173ffffffffffffffffffffffffffffffffffffffff021916908373ffffffffffffffffffffffffffffffffffffffff160217905550808273ffffffffffffffffffffffffffffffffffffffff16620009ae8362000bac60201b620014a71760201c565b73ffffffffffffffffffffffffffffffffffffffff167f8c5be1e5ebec7d5bd14f71427d1e84f3dd0314c0f7b2291e5b200ac8c7c3b92560405160405180910390a45050565b60008073ffffffffffffffffffffffffffffffffffffffff166002600084815260200190815260200160002060009054906101000a900473ffffffffffffffffffffffffffffffffffffffff1673ffffffffffffffffffffffffffffffffffffffff1614159050919050565b62000a7883838362000c6160201b620026851760201c565b600073ffffffffffffffffffffffffffffffffffffffff168373ffffffffffffffffffffffffffffffffffffffff16141562000ac55762000abf8162000c6660201b60201c565b62000b0d565b8173ffffffffffffffffffffffffffffffffffffffff168373ffffffffffffffffffffffffffffffffffffffff161462000b0c5762000b0b838262000caf60201b60201c565b5b5b600073ffffffffffffffffffffffffffffffffffffffff168273ffffffffffffffffffffffffffffffffffffffff16141562000b5a5762000b548162000e2c60201b60201c565b62000ba2565b8273ffffffffffffffffffffffffffffffffffffffff168273ffffffffffffffffffffffffffffffffffffffff161462000ba15762000ba0828262000f0860201b60201c565b5b5b505050565b505050565b6000806002600084815260200190815260200160002060009054906101000a900473ffffffffffffffffffffffffffffffffffffffff169050600073ffffffffffffffffffffffffffffffffffffffff168173ffffffffffffffffffffffffffffffffffffffff16141562000c58576040517f08c379a000000000000000000000000000000000000000000000000000000000815260040162000c4f9062001618565b60405180910390fd5b80915050919050565b505050565b6008805490506009600083815260200190815260200160002081905550600881908060018154018082558091505060019003906000526020600020016000909190919091505550565b6000600162000cc98462000f9460201b62001e581760201c565b62000cd5919062001797565b905060006007600084815260200190815260200160002054905081811462000dbb576000600660008673ffffffffffffffffffffffffffffffffffffffff1673ffffffffffffffffffffffffffffffffffffffff168152602001908152602001600020600084815260200190815260200160002054905080600660008773ffffffffffffffffffffffffffffffffffffffff1673ffffffffffffffffffffffffffffffffffffffff168152602001908152602001600020600084815260200190815260200160002081905550816007600083815260200190815260200160002081905550505b6007600084815260200190815260200160002060009055600660008573ffffffffffffffffffffffffffffffffffffffff1673ffffffffffffffffffffffffffffffffffffffff16815260200190815260200160002060008381526020019081526020016000206000905550505050565b6000600160088054905062000e42919062001797565b905060006009600084815260200190815260200160002054905060006008838154811062000e755762000e7462001989565b5b90600052602060002001549050806008838154811062000e9a5762000e9962001989565b5b90600052602060002001819055508160096000838152602001908152602001600020819055506009600085815260200190815260200160002060009055600880548062000eec5762000eeb6200195a565b5b6001900381819060005260206000200160009055905550505050565b600062000f208362000f9460201b62001e581760201c565b905081600660008573ffffffffffffffffffffffffffffffffffffffff1673ffffffffffffffffffffffffffffffffffffffff168152602001908152602001600020600083815260200190815260200160002081905550806007600084815260200190815260200160002081905550505050565b60008073ffffffffffffffffffffffffffffffffffffffff168273ffffffffffffffffffffffffffffffffffffffff16141562001008576040517f08c379a000000000000000000000000000000000000000000000000000000000815260040162000fff90620015f6565b60405180910390fd5b600360008373ffffffffffffffffffffffffffffffffffffffff1673ffffffffffffffffffffffffffffffffffffffff168152602001908152602001600020549050919050565b82805482825590600052602060002090601f01602090048101928215620010ea5791602002820160005b83821115620010b957835183826101000a81548160ff021916908360ff160217905550926020019260010160208160000104928301926001030262001079565b8015620010e85782816101000a81549060ff0219169055600101602081600001049283019260010302620010b9565b505b509050620010f991906200121d565b5090565b8280546200110b9062001861565b90600052602060002090601f0160209004810192826200112f57600085556200117b565b82601f106200114a57805160ff19168380011785556200117b565b828001600101855582156200117b579182015b828111156200117a5782518255916020019190600101906200115d565b5b5090506200118a91906200121d565b5090565b8280548282559060005260206000209081019282156200120a579160200282015b82811115620012095782518260006101000a81548173ffffffffffffffffffffffffffffffffffffffff021916908373ffffffffffffffffffffffffffffffffffffffff16021790555091602001919060010190620011af565b5b5090506200121991906200121d565b5090565b5b80821115620012385760008160009055506001016200121e565b5090565b6000620012536200124d8462001685565b6200165c565b90508083825260208201905082856020860282011115620012795762001278620019ec565b5b60005b85811015620012ad578162001292888262001302565b8452602084019350602083019250506001810190506200127c565b5050509392505050565b6000620012ce620012c884620016b4565b6200165c565b905082815260208101848484011115620012ed57620012ec620019f1565b5b620012fa8482856200182b565b509392505050565b600081519050620013138162001b01565b92915050565b600082601f830112620013315762001330620019e7565b5b8151620013438482602086016200123c565b91505092915050565b600082601f830112620013645762001363620019e7565b5b815162001376848260208601620012b7565b91505092915050565b600081519050620013908162001b1b565b92915050565b600080600080600080600080610100898b031215620013ba57620013b9620019fb565b5b600089015167ffffffffffffffff811115620013db57620013da620019f6565b5b620013e98b828c016200134c565b985050602089015167ffffffffffffffff8111156200140d576200140c620019f6565b5b6200141b8b828c016200134c565b975050604089015167ffffffffffffffff8111156200143f576200143e620019f6565b5b6200144d8b828c016200134c565b965050606089015167ffffffffffffffff811115620014715762001470620019f6565b5b6200147f8b828c016200134c565b9550506080620014928b828c016200137f565b94505060a089015167ffffffffffffffff811115620014b657620014b5620019f6565b5b620014c48b828c016200134c565b93505060c089015167ffffffffffffffff811115620014e857620014e7620019f6565b5b620014f68b828c0162001319565b92505060e089015167ffffffffffffffff8111156200151a5762001519620019f6565b5b620015288b828c0162001319565b9150509295985092959890939650565b600062001547601c83620016ea565b9150620015548262001a11565b602082019050919050565b60006200156e602a83620016ea565b91506200157b8262001a3a565b604082019050919050565b600062001595602983620016ea565b9150620015a28262001a89565b604082019050919050565b6000620015bc602083620016ea565b9150620015c98262001ad8565b602082019050919050565b60006020820190508181036000830152620015ef8162001538565b9050919050565b6000602082019050818103600083015262001611816200155f565b9050919050565b60006020820190508181036000830152620016338162001586565b9050919050565b600060208201905081810360008301526200165581620015ad565b9050919050565b6000620016686200167b565b905062001676828262001897565b919050565b6000604051905090565b600067ffffffffffffffff821115620016a357620016a2620019b8565b5b602082029050602081019050919050565b600067ffffffffffffffff821115620016d257620016d1620019b8565b5b620016dd8262001a00565b9050602081019050919050565b600082825260208201905092915050565b60006200170882620017e6565b91506200171583620017e6565b92508261ffff038211156200172f576200172e620018fc565b5b828201905092915050565b6000620017478262001814565b9150620017548362001814565b9250827fffffffffffffffffffffffffffffffffffffffffffffffffffffffffffffffff038211156200178c576200178b620018fc565b5b828201905092915050565b6000620017a48262001814565b9150620017b18362001814565b925082821015620017c757620017c6620018fc565b5b828203905092915050565b6000620017df82620017f4565b9050919050565b600061ffff82169050919050565b600073ffffffffffffffffffffffffffffffffffffffff82169050919050565b6000819050919050565b600060ff82169050919050565b60005b838110156200184b5780820151818401526020810190506200182e565b838111156200185b576000848401525b50505050565b600060028204905060018216806200187a57607f821691505b602082108114156200189157620018906200192b565b5b50919050565b620018a28262001a00565b810181811067ffffffffffffffff82111715620018c457620018c3620019b8565b5b80604052505050565b6000620018da826200181e565b915060ff821415620018f157620018f0620018fc565b5b600182019050919050565b7f4e487b7100000000000000000000000000000000000000000000000000000000600052601160045260246000fd5b7f4e487b7100000000000000000000000000000000000000000000000000000000600052602260045260246000fd5b7f4e487b7100000000000000000000000000000000000000000000000000000000600052603160045260246000fd5b7f4e487b7100000000000000000000000000000000000000000000000000000000600052603260045260246000fd5b7f4e487b7100000000000000000000000000000000000000000000000000000000600052604160045260246000fd5b600080fd5b600080fd5b600080fd5b600080fd5b600080fd5b6000601f19601f8301169050919050565b7f4552433732313a20746f6b656e20616c7265616479206d696e74656400000000600082015250565b7f4552433732313a2062616c616e636520717565727920666f7220746865207a6560008201527f726f206164647265737300000000000000000000000000000000000000000000602082015250565b7f4552433732313a206f776e657220717565727920666f72206e6f6e657869737460008201527f656e7420746f6b656e0000000000000000000000000000000000000000000000602082015250565b7f4552433732313a206d696e7420746f20746865207a65726f2061646472657373600082015250565b62001b0c81620017d2565b811462001b1857600080fd5b50565b62001b2681620017e6565b811462001b3257600080fd5b50565b615e988062001b456000396000f3fe6080604052600436106101e75760003560e01c80634f6ccce711610102578063a22cb46511610095578063db258f9c11610064578063db258f9c14610734578063dd7d84401461075d578063e985e9c51461079a578063f851a440146107d7576101f7565b8063a22cb4651461068e578063a475b5dd146106b7578063b88d4fde146106ce578063c87b56dd146106f7576101f7565b8063704b6c02116100d1578063704b6c02146105c057806370a08231146105e9578063887078be1461062657806395d89b4114610663576101f7565b80634f6ccce7146105015780636352211e1461053e57806367c1fcfe1461057b5780636ecd2306146105a4576101f7565b806323b872dd1161017a57806337f1e7f21161014957806337f1e7f21461042157806341c254ad1461045e57806342842e0e1461049b578063438b6300146104c4576101f7565b806323b872dd146103885780632f1335cf146103b15780632f745c59146103cd57806334918dfd1461040a576101f7565b8063095ea7b3116101b6578063095ea7b3146102cc5780630a8dc157146102f55780630ca1c5c91461033257806318160ddd1461035d576101f7565b806301ffc9a7146101fc57806302fb0c5e1461023957806306fdde0314610264578063081812fc1461028f576101f7565b366101f7576101f534610802565b005b600080fd5b34801561020857600080fd5b50610223600480360381019061021e9190614207565b610a07565b6040516102309190614d0a565b60405180910390f35b34801561024557600080fd5b5061024e610a81565b60405161025b9190614d0a565b60405180910390f35b34801561027057600080fd5b50610279610a94565b6040516102869190614d93565b60405180910390f35b34801561029b57600080fd5b506102b660048036038101906102b191906142d0565b610b26565b6040516102c39190614c1a565b60405180910390f35b3480156102d857600080fd5b506102f360048036038101906102ee919061415a565b610bab565b005b34801561030157600080fd5b5061031c600480360381019061031791906142d0565b610cc3565b6040516103299190614c1a565b60405180910390f35b34801561033e57600080fd5b50610347610d02565b6040516103549190615133565b60405180910390f35b34801561036957600080fd5b50610372610d1a565b60405161037f9190615178565b60405180910390f35b34801561039457600080fd5b506103af60048036038101906103aa9190614044565b610d27565b005b6103cb60048036038101906103c691906142d0565b610802565b005b3480156103d957600080fd5b506103f460048036038101906103ef919061415a565b610d87565b6040516104019190615178565b60405180910390f35b34801561041657600080fd5b5061041f610e2c565b005b34801561042d57600080fd5b506104486004803603810190610443919061432a565b610eef565b6040516104559190615178565b60405180910390f35b34801561046a57600080fd5b5061048560048036038101906104809190614261565b610fed565b6040516104929190614d0a565b60405180910390f35b3480156104a757600080fd5b506104c260048036038101906104bd9190614044565b611350565b005b3480156104d057600080fd5b506104eb60048036038101906104e69190613fd7565b611370565b6040516104f89190614ce8565b60405180910390f35b34801561050d57600080fd5b50610528600480360381019061052391906142d0565b611436565b6040516105359190615178565b60405180910390f35b34801561054a57600080fd5b50610565600480360381019061056091906142d0565b6114a7565b6040516105729190614c1a565b60405180910390f35b34801561058757600080fd5b506105a2600480360381019061059d919061419a565b611559565b005b6105be60048036038101906105b9919061432a565b611654565b005b3480156105cc57600080fd5b506105e760048036038101906105e29190613fd7565b611d46565b005b3480156105f557600080fd5b50610610600480360381019061060b9190613fd7565b611e58565b60405161061d9190615178565b60405180910390f35b34801561063257600080fd5b5061064d600480360381019061064891906142a3565b611f10565b60405161065a9190615117565b60405180910390f35b34801561066f57600080fd5b50610678612177565b6040516106859190614d93565b60405180910390f35b34801561069a57600080fd5b506106b560048036038101906106b0919061411a565b612209565b005b3480156106c357600080fd5b506106cc61221f565b005b3480156106da57600080fd5b506106f560048036038101906106f09190614097565b6122d3565b005b34801561070357600080fd5b5061071e600480360381019061071991906142d0565b612335565b60405161072b9190614d93565b60405180910390f35b34801561074057600080fd5b5061075b60048036038101906107569190613fd7565b6123dc565b005b34801561076957600080fd5b50610784600480360381019061077f91906142a3565b6124ee565b6040516107919190614d93565b60405180910390f35b3480156107a657600080fd5b506107c160048036038101906107bc9190614004565b6125cb565b6040516107ce9190614d0a565b60405180910390f35b3480156107e357600080fd5b506107ec61265f565b6040516107f99190614c1a565b60405180910390f35b47811015610845576040517f08c379a000000000000000000000000000000000000000000000000000000000815260040161083c90614f37565b60405180910390fd5b601560008154811061085a576108596156b6565b5b9060005260206000200160009054906101000a900473ffffffffffffffffffffffffffffffffffffffff1673ffffffffffffffffffffffffffffffffffffffff166108fc60646019846108ad9190615339565b6108b79190615308565b9081150290604051600060405180830381858888f193505050506108da57600080fd5b60156001815481106108ef576108ee6156b6565b5b9060005260206000200160009054906101000a900473ffffffffffffffffffffffffffffffffffffffff1673ffffffffffffffffffffffffffffffffffffffff166108fc60646032846109429190615339565b61094c9190615308565b9081150290604051600060405180830381858888f1935050505061096f57600080fd5b6015600281548110610984576109836156b6565b5b9060005260206000200160009054906101000a900473ffffffffffffffffffffffffffffffffffffffff1673ffffffffffffffffffffffffffffffffffffffff166108fc60646019846109d79190615339565b6109e19190615308565b9081150290604051600060405180830381858888f19350505050610a0457600080fd5b50565b60007f780e9d63000000000000000000000000000000000000000000000000000000007bffffffffffffffffffffffffffffffffffffffffffffffffffffffff1916827bffffffffffffffffffffffffffffffffffffffffffffffffffffffff19161480610a7a5750610a798261268a565b5b9050919050565b600a60149054906101000a900460ff1681565b606060008054610aa3906154a2565b80601f0160208091040260200160405190810160405280929190818152602001828054610acf906154a2565b8015610b1c5780601f10610af157610100808354040283529160200191610b1c565b820191906000526020600020905b815481529060010190602001808311610aff57829003601f168201915b5050505050905090565b6000610b318261276c565b610b70576040517f08c379a0000000000000000000000000000000000000000000000000000000008152600401610b6790614ff7565b60405180910390fd5b6004600083815260200190815260200160002060009054906101000a900473ffffffffffffffffffffffffffffffffffffffff169050919050565b6000610bb6826114a7565b90508073ffffffffffffffffffffffffffffffffffffffff168373ffffffffffffffffffffffffffffffffffffffff161415610c27576040517f08c379a0000000000000000000000000000000000000000000000000000000008152600401610c1e90615037565b60405180910390fd5b8073ffffffffffffffffffffffffffffffffffffffff16610c466127d8565b73ffffffffffffffffffffffffffffffffffffffff161480610c755750610c7481610c6f6127d8565b6125cb565b5b610cb4576040517f08c379a0000000000000000000000000000000000000000000000000000000008152600401610cab90614f77565b60405180910390fd5b610cbe83836127e0565b505050565b60158181548110610cd357600080fd5b906000526020600020016000915054906101000a900473ffffffffffffffffffffffffffffffffffffffff1681565b6000601260009054906101000a900461ffff16905090565b6000600880549050905090565b610d38610d326127d8565b82612899565b610d77576040517f08c379a0000000000000000000000000000000000000000000000000000000008152600401610d6e90615097565b60405180910390fd5b610d82838383612977565b505050565b6000610d9283611e58565b8210610dd3576040517f08c379a0000000000000000000000000000000000000000000000000000000008152600401610dca90614e37565b60405180910390fd5b600660008473ffffffffffffffffffffffffffffffffffffffff1673ffffffffffffffffffffffffffffffffffffffff168152602001908152602001600020600083815260200190815260200160002054905092915050565b600a60009054906101000a900473ffffffffffffffffffffffffffffffffffffffff1673ffffffffffffffffffffffffffffffffffffffff16610e6d6127d8565b73ffffffffffffffffffffffffffffffffffffffff1614610ec3576040517f08c379a0000000000000000000000000000000000000000000000000000000008152600401610eba90614dd7565b60405180910390fd5b600a60149054906101000a900460ff1615600a60146101000a81548160ff021916908315150217905550565b6000600a8260ff161115610f38576040517f08c379a0000000000000000000000000000000000000000000000000000000008152600401610f2f906150d7565b60405180910390fd5b6000610f5b8360ff16601260009054906101000a900461ffff1661ffff16612bde565b9050600115158115151415610fd357600080610f8e8560ff16601260009054906101000a900461ffff1661ffff16612c27565b915091508060ff166002601154610fa59190615339565b610faf9190615339565b8260ff16601154610fc09190615339565b610fca91906152b2565b93505050610fe7565b8260ff16601154610fe49190615339565b91505b50919050565b6000601260059054906101000a900473ffffffffffffffffffffffffffffffffffffffff1673ffffffffffffffffffffffffffffffffffffffff166110306127d8565b73ffffffffffffffffffffffffffffffffffffffff1614611086576040517f08c379a000000000000000000000000000000000000000000000000000000000815260040161107d90615057565b60405180910390fd5b6110938261ffff1661276c565b6110d2576040517f08c379a00000000000000000000000000000000000000000000000000000000081526004016110c990614f57565b60405180910390fd5b82601060008461ffff1661ffff16815260200190815260200160002060008201518160000160006101000a81548161ffff021916908361ffff16021790555060208201518160000160026101000a81548161ffff021916908361ffff16021790555060408201518160000160046101000a81548161ffff021916908361ffff16021790555060608201518160000160066101000a81548161ffff021916908361ffff16021790555060808201518160000160086101000a81548161ffff021916908361ffff16021790555060a082015181600001600a6101000a81548161ffff021916908361ffff16021790555060c082015181600001600c6101000a81548161ffff021916908361ffff16021790555060e082015181600001600e6101000a81548161ffff021916908361ffff1602179055506101008201518160000160106101000a81548161ffff021916908361ffff1602179055506101208201518160000160126101000a81548161ffff021916908361ffff1602179055506101408201518160000160146101000a81548161ffff021916908361ffff1602179055506101608201518160000160166101000a81548161ffff021916908361ffff1602179055506101808201518160000160186101000a81548161ffff021916908361ffff1602179055506101a082015181600001601a6101000a81548161ffff021916908361ffff1602179055506101c082015181600101556101e08201518160020160006101000a81548160ff0219169083151502179055509050507fa457e75f6da6e906ca05b141584e3af3a2bbbbf1b18d9f5beb8291108b575452828460405161133e92919061514e565b60405180910390a16001905092915050565b61136b838383604051806020016040528060008152506122d3565b505050565b6060600061137d83611e58565b90508061ffff1667ffffffffffffffff81111561139d5761139c6156e5565b5b6040519080825280602002602001820160405280156113cb5781602001602082028036833780820191505090505b50915060005b8161ffff168161ffff16101561142f576113ef848261ffff16610d87565b838261ffff1681518110611406576114056156b6565b5b602002602001019061ffff16908161ffff1681525050808061142790615505565b9150506113d1565b5050919050565b6000611440610d1a565b8210611481576040517f08c379a0000000000000000000000000000000000000000000000000000000008152600401611478906150b7565b60405180910390fd5b60088281548110611495576114946156b6565b5b90600052602060002001549050919050565b6000806002600084815260200190815260200160002060009054906101000a900473ffffffffffffffffffffffffffffffffffffffff169050600073ffffffffffffffffffffffffffffffffffffffff168173ffffffffffffffffffffffffffffffffffffffff161415611550576040517f08c379a000000000000000000000000000000000000000000000000000000000815260040161154790614fb7565b60405180910390fd5b80915050919050565b600a60009054906101000a900473ffffffffffffffffffffffffffffffffffffffff1673ffffffffffffffffffffffffffffffffffffffff1661159a6127d8565b73ffffffffffffffffffffffffffffffffffffffff16146115f0576040517f08c379a00000000000000000000000000000000000000000000000000000000081526004016115e790614dd7565b60405180910390fd5b8160158260ff1681548110611608576116076156b6565b5b9060005260206000200160006101000a81548173ffffffffffffffffffffffffffffffffffffffff021916908373ffffffffffffffffffffffffffffffffffffffff1602179055505050565b600a60149054906101000a900460ff166116a3576040517f08c379a000000000000000000000000000000000000000000000000000000000815260040161169a90614eb7565b60405180910390fd5b600a60009054906101000a900473ffffffffffffffffffffffffffffffffffffffff1673ffffffffffffffffffffffffffffffffffffffff166116e46127d8565b73ffffffffffffffffffffffffffffffffffffffff16146117c45761170881610eef565b3414611749576040517f08c379a000000000000000000000000000000000000000000000000000000000815260040161174090614e17565b60405180910390fd5b61176a8160ff16601260009054906101000a900461ffff1661ffff16612bde565b156117ba5761177a601154612c90565b6011819055507f18d394ba347d8c318a1db51c85288b956d598b2925be44758ee6f2edb9e2a06b6011546040516117b19190615178565b60405180910390a15b6117c334610802565b5b600a8160ff16111561180b576040517f08c379a000000000000000000000000000000000000000000000000000000000815260040161180290614df7565b60405180910390fd5b601260029054906101000a900461ffff1661ffff168160ff16601260009054906101000a900461ffff1661183f919061527a565b61ffff161115611884576040517f08c379a000000000000000000000000000000000000000000000000000000000815260040161187b906150f7565b60405180910390fd5b60005b8160ff168160ff161015611d42576001601260008282829054906101000a900461ffff166118b5919061527a565b92506101000a81548161ffff021916908361ffff1602179055506118f46118da6127d8565b601260009054906101000a900461ffff1661ffff16612c9e565b604051806102000160405280600161ffff168152602001600161ffff168152602001600161ffff168152602001600061ffff168152602001600061ffff168152602001600061ffff168152602001600061ffff168152602001600061ffff168152602001600061ffff168152602001600061ffff168152602001600061ffff168152602001600061ffff168152602001600061ffff168152602001600061ffff168152602001600081526020016000151581525060106000601260009054906101000a900461ffff1661ffff1661ffff16815260200190815260200160002060008201518160000160006101000a81548161ffff021916908361ffff16021790555060208201518160000160026101000a81548161ffff021916908361ffff16021790555060408201518160000160046101000a81548161ffff021916908361ffff16021790555060608201518160000160066101000a81548161ffff021916908361ffff16021790555060808201518160000160086101000a81548161ffff021916908361ffff16021790555060a082015181600001600a6101000a81548161ffff021916908361ffff16021790555060c082015181600001600c6101000a81548161ffff021916908361ffff16021790555060e082015181600001600e6101000a81548161ffff021916908361ffff1602179055506101008201518160000160106101000a81548161ffff021916908361ffff1602179055506101208201518160000160126101000a81548161ffff021916908361ffff1602179055506101408201518160000160146101000a81548161ffff021916908361ffff1602179055506101608201518160000160166101000a81548161ffff021916908361ffff1602179055506101808201518160000160186101000a81548161ffff021916908361ffff1602179055506101a082015181600001601a6101000a81548161ffff021916908361ffff1602179055506101c082015181600101556101e08201518160020160006101000a81548160ff021916908315150217905550905050611c32601260059054906101000a900473ffffffffffffffffffffffffffffffffffffffff16601260009054906101000a900461ffff1661ffff166127e0565b7f140b33d985b194376cd7209902ffe7167129837ba3e921ef6c1d9952891cd9df611c5b6127d8565b601260009054906101000a900461ffff16604051611c7a929190614c81565b60405180910390a1601260029054906101000a900461ffff1661ffff16601260009054906101000a900461ffff1661ffff161415611d2f577f47927ac1d62bc1ae14fb17e77de64b8e0de58d777adc50086ed8f24eb26e8e64600f604051611ce29190614db5565b60405180910390a16000611cf4612e78565b90507fb75047a36befaef84e90ca4c55f0673352e2942c569d5726c6cf463a043903f281604051611d259190614c1a565b60405180910390a1505b8080611d3a90615579565b915050611887565b5050565b600a60009054906101000a900473ffffffffffffffffffffffffffffffffffffffff1673ffffffffffffffffffffffffffffffffffffffff16611d876127d8565b73ffffffffffffffffffffffffffffffffffffffff1614611ddd576040517f08c379a0000000000000000000000000000000000000000000000000000000008152600401611dd490614dd7565b60405180910390fd5b80600a60006101000a81548173ffffffffffffffffffffffffffffffffffffffff021916908373ffffffffffffffffffffffffffffffffffffffff1602179055507f71614071b88dee5e0b2ae578a9dd7b2ebbe9ae832ba419dc0242cd065a290b6c81604051611e4d9190614c1a565b60405180910390a150565b60008073ffffffffffffffffffffffffffffffffffffffff168273ffffffffffffffffffffffffffffffffffffffff161415611ec9576040517f08c379a0000000000000000000000000000000000000000000000000000000008152600401611ec090614f97565b60405180910390fd5b600360008373ffffffffffffffffffffffffffffffffffffffff1673ffffffffffffffffffffffffffffffffffffffff168152602001908152602001600020549050919050565b611f18613c79565b611f258261ffff1661276c565b611f64576040517f08c379a0000000000000000000000000000000000000000000000000000000008152600401611f5b90614f57565b60405180910390fd5b601060008361ffff1661ffff168152602001908152602001600020604051806102000160405290816000820160009054906101000a900461ffff1661ffff1661ffff1681526020016000820160029054906101000a900461ffff1661ffff1661ffff1681526020016000820160049054906101000a900461ffff1661ffff1661ffff1681526020016000820160069054906101000a900461ffff1661ffff1661ffff1681526020016000820160089054906101000a900461ffff1661ffff1661ffff16815260200160008201600a9054906101000a900461ffff1661ffff1661ffff16815260200160008201600c9054906101000a900461ffff1661ffff1661ffff16815260200160008201600e9054906101000a900461ffff1661ffff1661ffff1681526020016000820160109054906101000a900461ffff1661ffff1661ffff1681526020016000820160129054906101000a900461ffff1661ffff1661ffff1681526020016000820160149054906101000a900461ffff1661ffff1661ffff1681526020016000820160169054906101000a900461ffff1661ffff1661ffff1681526020016000820160189054906101000a900461ffff1661ffff1661ffff16815260200160008201601a9054906101000a900461ffff1661ffff1661ffff168152602001600182015481526020016002820160009054906101000a900460ff1615151515815250509050919050565b606060018054612186906154a2565b80601f01602080910402602001604051908101604052809291908181526020018280546121b2906154a2565b80156121ff5780601f106121d4576101008083540402835291602001916121ff565b820191906000526020600020905b8154815290600101906020018083116121e257829003601f168201915b5050505050905090565b61221b6122146127d8565b8383612e9b565b5050565b600a60009054906101000a900473ffffffffffffffffffffffffffffffffffffffff1673ffffffffffffffffffffffffffffffffffffffff166122606127d8565b73ffffffffffffffffffffffffffffffffffffffff16146122b6576040517f08c379a00000000000000000000000000000000000000000000000000000000081526004016122ad90614dd7565b60405180910390fd5b6001601260046101000a81548160ff021916908315150217905550565b6122e46122de6127d8565b83612899565b612323576040517f08c379a000000000000000000000000000000000000000000000000000000000815260040161231a90615097565b60405180910390fd5b61232f84848484613008565b50505050565b60606123408261276c565b61237f576040517f08c379a000000000000000000000000000000000000000000000000000000000815260040161237690615017565b60405180910390fd5b6000612389613064565b905060008151116123a957604051806020016040528060008152506123d4565b806123b38461307b565b6040516020016123c4929190614b53565b6040516020818303038152906040525b915050919050565b600a60009054906101000a900473ffffffffffffffffffffffffffffffffffffffff1673ffffffffffffffffffffffffffffffffffffffff1661241d6127d8565b73ffffffffffffffffffffffffffffffffffffffff1614612473576040517f08c379a000000000000000000000000000000000000000000000000000000000815260040161246a90614dd7565b60405180910390fd5b80601260056101000a81548173ffffffffffffffffffffffffffffffffffffffff021916908373ffffffffffffffffffffffffffffffffffffffff1602179055507f7b4f10014c23ea33ab4f8cc59c583fa422eca3392c456380a9e6a52be139f407816040516124e39190614c1a565b60405180910390a150565b60606124fd8261ffff1661276c565b61253c576040517f08c379a000000000000000000000000000000000000000000000000000000000815260040161253390614f57565b60405180910390fd5b601260049054906101000a900460ff1661257b57600b600e604051602001612565929190614b77565b60405160208183030381529060405290506125c6565b600b600c836040516020016125909190614bff565b604051602081830303815290604052600d6040516020016125b49493929190614b9b565b60405160208183030381529060405290505b919050565b6000600560008473ffffffffffffffffffffffffffffffffffffffff1673ffffffffffffffffffffffffffffffffffffffff16815260200190815260200160002060008373ffffffffffffffffffffffffffffffffffffffff1673ffffffffffffffffffffffffffffffffffffffff16815260200190815260200160002060009054906101000a900460ff16905092915050565b600a60009054906101000a900473ffffffffffffffffffffffffffffffffffffffff1681565b505050565b60007f80ac58cd000000000000000000000000000000000000000000000000000000007bffffffffffffffffffffffffffffffffffffffffffffffffffffffff1916827bffffffffffffffffffffffffffffffffffffffffffffffffffffffff1916148061275557507f5b5e139f000000000000000000000000000000000000000000000000000000007bffffffffffffffffffffffffffffffffffffffffffffffffffffffff1916827bffffffffffffffffffffffffffffffffffffffffffffffffffffffff1916145b806127655750612764826131dc565b5b9050919050565b60008073ffffffffffffffffffffffffffffffffffffffff166002600084815260200190815260200160002060009054906101000a900473ffffffffffffffffffffffffffffffffffffffff1673ffffffffffffffffffffffffffffffffffffffff1614159050919050565b600033905090565b816004600083815260200190815260200160002060006101000a81548173ffffffffffffffffffffffffffffffffffffffff021916908373ffffffffffffffffffffffffffffffffffffffff160217905550808273ffffffffffffffffffffffffffffffffffffffff16612853836114a7565b73ffffffffffffffffffffffffffffffffffffffff167f8c5be1e5ebec7d5bd14f71427d1e84f3dd0314c0f7b2291e5b200ac8c7c3b92560405160405180910390a45050565b60006128a48261276c565b6128e3576040517f08c379a00000000000000000000000000000000000000000000000000000000081526004016128da90614f17565b60405180910390fd5b60006128ee836114a7565b90508073ffffffffffffffffffffffffffffffffffffffff168473ffffffffffffffffffffffffffffffffffffffff16148061295d57508373ffffffffffffffffffffffffffffffffffffffff1661294584610b26565b73ffffffffffffffffffffffffffffffffffffffff16145b8061296e575061296d81856125cb565b5b91505092915050565b8273ffffffffffffffffffffffffffffffffffffffff16612997826114a7565b73ffffffffffffffffffffffffffffffffffffffff16146129ed576040517f08c379a00000000000000000000000000000000000000000000000000000000081526004016129e490614e77565b60405180910390fd5b600073ffffffffffffffffffffffffffffffffffffffff168273ffffffffffffffffffffffffffffffffffffffff161415612a5d576040517f08c379a0000000000000000000000000000000000000000000000000000000008152600401612a5490614ed7565b60405180910390fd5b612a68838383613246565b612a736000826127e0565b6001600360008573ffffffffffffffffffffffffffffffffffffffff1673ffffffffffffffffffffffffffffffffffffffff1681526020019081526020016000206000828254612ac39190615393565b925050819055506001600360008473ffffffffffffffffffffffffffffffffffffffff1673ffffffffffffffffffffffffffffffffffffffff1681526020019081526020016000206000828254612b1a91906152b2565b92505081905550816002600083815260200190815260200160002060006101000a81548173ffffffffffffffffffffffffffffffffffffffff021916908373ffffffffffffffffffffffffffffffffffffffff160217905550808273ffffffffffffffffffffffffffffffffffffffff168473ffffffffffffffffffffffffffffffffffffffff167fddf252ad1be2c89b69c2b068fc378daa952ba7f163c4a11628f55a4df523b3ef60405160405180910390a4612bd983838361335a565b505050565b6000806103e88484612bf091906152b2565b612bfa91906155c9565b905060008110158015612c0d5750600a81105b15612c1b5760019150612c20565b600091505b5092915050565b60008060005b84811015612c8857612c4b600182612c4591906152b2565b85612bde565b15612c7557600181612c5d91906152b2565b92508260ff1685612c6e9190615393565b9150612c88565b8080612c8090615530565b915050612c2d565b509250929050565b6000600182901b9050919050565b600073ffffffffffffffffffffffffffffffffffffffff168273ffffffffffffffffffffffffffffffffffffffff161415612d0e576040517f08c379a0000000000000000000000000000000000000000000000000000000008152600401612d0590614fd7565b60405180910390fd5b612d178161276c565b15612d57576040517f08c379a0000000000000000000000000000000000000000000000000000000008152600401612d4e90614e97565b60405180910390fd5b612d6360008383613246565b6001600360008473ffffffffffffffffffffffffffffffffffffffff1673ffffffffffffffffffffffffffffffffffffffff1681526020019081526020016000206000828254612db391906152b2565b92505081905550816002600083815260200190815260200160002060006101000a81548173ffffffffffffffffffffffffffffffffffffffff021916908373ffffffffffffffffffffffffffffffffffffffff160217905550808273ffffffffffffffffffffffffffffffffffffffff16600073ffffffffffffffffffffffffffffffffffffffff167fddf252ad1be2c89b69c2b068fc378daa952ba7f163c4a11628f55a4df523b3ef60405160405180910390a4612e746000838361335a565b5050565b600080612e8661271061335f565b9050612e958161ffff166114a7565b91505090565b8173ffffffffffffffffffffffffffffffffffffffff168373ffffffffffffffffffffffffffffffffffffffff161415612f0a576040517f08c379a0000000000000000000000000000000000000000000000000000000008152600401612f0190614ef7565b60405180910390fd5b80600560008573ffffffffffffffffffffffffffffffffffffffff1673ffffffffffffffffffffffffffffffffffffffff16815260200190815260200160002060008473ffffffffffffffffffffffffffffffffffffffff1673ffffffffffffffffffffffffffffffffffffffff16815260200190815260200160002060006101000a81548160ff0219169083151502179055508173ffffffffffffffffffffffffffffffffffffffff168373ffffffffffffffffffffffffffffffffffffffff167f17307eab39ab6107e8899845ad3d59bd9653f200f220920489ca2b5937696c3183604051612ffb9190614d0a565b60405180910390a3505050565b613013848484612977565b61301f84848484613387565b61305e576040517f08c379a000000000000000000000000000000000000000000000000000000000815260040161305590614e57565b60405180910390fd5b50505050565b606060405180602001604052806000815250905090565b606060008214156130c3576040518060400160405280600181526020017f300000000000000000000000000000000000000000000000000000000000000081525090506131d7565b600082905060005b600082146130f55780806130de90615530565b915050600a826130ee9190615308565b91506130cb565b60008167ffffffffffffffff811115613111576131106156e5565b5b6040519080825280601f01601f1916602001820160405280156131435781602001600182028036833780820191505090505b5090505b600085146131d05760018261315c9190615393565b9150600a8561316b91906155c9565b603061317791906152b2565b60f81b81838151811061318d5761318c6156b6565b5b60200101907effffffffffffffffffffffffffffffffffffffffffffffffffffffffffffff1916908160001a905350600a856131c99190615308565b9450613147565b8093505050505b919050565b60007f01ffc9a7000000000000000000000000000000000000000000000000000000007bffffffffffffffffffffffffffffffffffffffffffffffffffffffff1916827bffffffffffffffffffffffffffffffffffffffffffffffffffffffff1916149050919050565b613251838383612685565b600073ffffffffffffffffffffffffffffffffffffffff168373ffffffffffffffffffffffffffffffffffffffff1614156132945761328f8161351e565b6132d3565b8173ffffffffffffffffffffffffffffffffffffffff168373ffffffffffffffffffffffffffffffffffffffff16146132d2576132d18382613567565b5b5b600073ffffffffffffffffffffffffffffffffffffffff168273ffffffffffffffffffffffffffffffffffffffff16141561331657613311816136d4565b613355565b8273ffffffffffffffffffffffffffffffffffffffff168273ffffffffffffffffffffffffffffffffffffffff16146133545761335382826137a5565b5b5b505050565b505050565b600060018261336c613824565b61337691906155c9565b61338091906152b2565b9050919050565b60006133a88473ffffffffffffffffffffffffffffffffffffffff1661396d565b15613511578373ffffffffffffffffffffffffffffffffffffffff1663150b7a026133d16127d8565b8786866040518563ffffffff1660e01b81526004016133f39493929190614c35565b602060405180830381600087803b15801561340d57600080fd5b505af192505050801561343e57506040513d601f19601f8201168201806040525081019061343b9190614234565b60015b6134c1573d806000811461346e576040519150601f19603f3d011682016040523d82523d6000602084013e613473565b606091505b506000815114156134b9576040517f08c379a00000000000000000000000000000000000000000000000000000000081526004016134b090614e57565b60405180910390fd5b805181602001fd5b63150b7a0260e01b7bffffffffffffffffffffffffffffffffffffffffffffffffffffffff1916817bffffffffffffffffffffffffffffffffffffffffffffffffffffffff191614915050613516565b600190505b949350505050565b6008805490506009600083815260200190815260200160002081905550600881908060018154018082558091505060019003906000526020600020016000909190919091505550565b6000600161357484611e58565b61357e9190615393565b9050600060076000848152602001908152602001600020549050818114613663576000600660008673ffffffffffffffffffffffffffffffffffffffff1673ffffffffffffffffffffffffffffffffffffffff168152602001908152602001600020600084815260200190815260200160002054905080600660008773ffffffffffffffffffffffffffffffffffffffff1673ffffffffffffffffffffffffffffffffffffffff168152602001908152602001600020600084815260200190815260200160002081905550816007600083815260200190815260200160002081905550505b6007600084815260200190815260200160002060009055600660008573ffffffffffffffffffffffffffffffffffffffff1673ffffffffffffffffffffffffffffffffffffffff16815260200190815260200160002060008381526020019081526020016000206000905550505050565b600060016008805490506136e89190615393565b9050600060096000848152602001908152602001600020549050600060088381548110613718576137176156b6565b5b90600052602060002001549050806008838154811061373a576137396156b6565b5b90600052602060002001819055508160096000838152602001908152602001600020819055506009600085815260200190815260200160002060009055600880548061378957613788615687565b5b6001900381819060005260206000200160009055905550505050565b60006137b083611e58565b905081600660008573ffffffffffffffffffffffffffffffffffffffff1673ffffffffffffffffffffffffffffffffffffffff168152602001908152602001600020600083815260200190815260200160002081905550806007600084815260200190815260200160002081905550505050565b60008061382f613990565b905080600301548160040160009054906101000a900473ffffffffffffffffffffffffffffffffffffffff1673ffffffffffffffffffffffffffffffffffffffff166370a08231306040518263ffffffff1660e01b81526004016138939190614c1a565b60206040518083038186803b1580156138ab57600080fd5b505afa1580156138bf573d6000803e3d6000fd5b505050506040513d601f19601f820116820180604052508101906138e391906142fd565b1015613924576040517f08c379a000000000000000000000000000000000000000000000000000000000815260040161391b90615077565b60405180910390fd5b6000613938826002015483600301546139bd565b60001c9050613965816040516020016139519190614bd9565b604051602081830303815290604052613b48565b809250505090565b6000808273ffffffffffffffffffffffffffffffffffffffff163b119050919050565b6000807fcd0c49d5c8438d0944f64e0d3825bed3b606f318474213a77860c93bca5ed99990508091505090565b6000806139c8613990565b90508060040160009054906101000a900473ffffffffffffffffffffffffffffffffffffffff1673ffffffffffffffffffffffffffffffffffffffff16634000aea08260000160009054906101000a900473ffffffffffffffffffffffffffffffffffffffff1685876000604051602001613a44929190614d25565b6040516020818303038152906040526040518463ffffffff1660e01b8152600401613a7193929190614caa565b602060405180830381600087803b158015613a8b57600080fd5b505af1158015613a9f573d6000803e3d6000fd5b505050506040513d601f19601f82011682018060405250810190613ac391906141da565b506000613ae8856000308560060160008a815260200190815260200160002054613be1565b9050600182600601600087815260200190815260200160002054613b0c91906152b2565b826006016000878152602001908152602001600020819055506000613b318683613c1d565b905080836007018190555080935050505092915050565b613bde81604051602401613b5c9190614d93565b6040516020818303038152906040527f41304fac000000000000000000000000000000000000000000000000000000007bffffffffffffffffffffffffffffffffffffffffffffffffffffffff19166020820180517bffffffffffffffffffffffffffffffffffffffffffffffffffffffff8381831617835250505050613c50565b50565b600084848484604051602001613bfa9493929190614d4e565b6040516020818303038152906040528051906020012060001c9050949350505050565b60008282604051602001613c32929190614b27565b60405160208183030381529060405280519060200120905092915050565b60008151905060006a636f6e736f6c652e6c6f679050602083016000808483855afa5050505050565b604051806102000160405280600061ffff168152602001600061ffff168152602001600061ffff168152602001600061ffff168152602001600061ffff168152602001600061ffff168152602001600061ffff168152602001600061ffff168152602001600061ffff168152602001600061ffff168152602001600061ffff168152602001600061ffff168152602001600061ffff168152602001600061ffff168152602001600081526020016000151581525090565b6000613d43613d3e846151b8565b615193565b905082815260208101848484011115613d5f57613d5e61571e565b5b613d6a848285615460565b509392505050565b600081359050613d8181615dd8565b92915050565b600081359050613d9681615def565b92915050565b600081519050613dab81615def565b92915050565b600081359050613dc081615e06565b92915050565b600081519050613dd581615e06565b92915050565b600082601f830112613df057613def615714565b5b8135613e00848260208601613d30565b91505092915050565b60006102008284031215613e2057613e1f615719565b5b613e2b610200615193565b90506000613e3b84828501613f83565b6000830152506020613e4f84828501613f83565b6020830152506040613e6384828501613f83565b6040830152506060613e7784828501613f83565b6060830152506080613e8b84828501613f83565b60808301525060a0613e9f84828501613f83565b60a08301525060c0613eb384828501613f83565b60c08301525060e0613ec784828501613f83565b60e083015250610100613edc84828501613f83565b61010083015250610120613ef284828501613f83565b61012083015250610140613f0884828501613f83565b61014083015250610160613f1e84828501613f83565b61016083015250610180613f3484828501613f83565b610180830152506101a0613f4a84828501613f83565b6101a0830152506101c0613f6084828501613f98565b6101c0830152506101e0613f7684828501613d87565b6101e08301525092915050565b600081359050613f9281615e1d565b92915050565b600081359050613fa781615e34565b92915050565b600081519050613fbc81615e34565b92915050565b600081359050613fd181615e4b565b92915050565b600060208284031215613fed57613fec615728565b5b6000613ffb84828501613d72565b91505092915050565b6000806040838503121561401b5761401a615728565b5b600061402985828601613d72565b925050602061403a85828601613d72565b9150509250929050565b60008060006060848603121561405d5761405c615728565b5b600061406b86828701613d72565b935050602061407c86828701613d72565b925050604061408d86828701613f98565b9150509250925092565b600080600080608085870312156140b1576140b0615728565b5b60006140bf87828801613d72565b94505060206140d087828801613d72565b93505060406140e187828801613f98565b925050606085013567ffffffffffffffff81111561410257614101615723565b5b61410e87828801613ddb565b91505092959194509250565b6000806040838503121561413157614130615728565b5b600061413f85828601613d72565b925050602061415085828601613d87565b9150509250929050565b6000806040838503121561417157614170615728565b5b600061417f85828601613d72565b925050602061419085828601613f98565b9150509250929050565b600080604083850312156141b1576141b0615728565b5b60006141bf85828601613d72565b92505060206141d085828601613fc2565b9150509250929050565b6000602082840312156141f0576141ef615728565b5b60006141fe84828501613d9c565b91505092915050565b60006020828403121561421d5761421c615728565b5b600061422b84828501613db1565b91505092915050565b60006020828403121561424a57614249615728565b5b600061425884828501613dc6565b91505092915050565b600080610220838503121561427957614278615728565b5b600061428785828601613e09565b92505061020061429985828601613f83565b9150509250929050565b6000602082840312156142b9576142b8615728565b5b60006142c784828501613f83565b91505092915050565b6000602082840312156142e6576142e5615728565b5b60006142f484828501613f98565b91505092915050565b60006020828403121561431357614312615728565b5b600061432184828501613fad565b91505092915050565b6000602082840312156143405761433f615728565b5b600061434e84828501613fc2565b91505092915050565b60006143638383614abd565b60208301905092915050565b614378816153c7565b82525050565b60006143898261520e565b614393818561523c565b935061439e836151e9565b8060005b838110156143cf5781516143b68882614357565b97506143c18361522f565b9250506001810190506143a2565b5085935050505092915050565b6143e5816153d9565b82525050565b6143f4816153d9565b82525050565b614403816153e5565b82525050565b61441a614415826153e5565b6155a3565b82525050565b600061442b82615219565b614435818561524d565b935061444581856020860161546f565b61444e8161572d565b840191505092915050565b600061446482615224565b61446e818561525e565b935061447e81856020860161546f565b6144878161572d565b840191505092915050565b600061449d82615224565b6144a7818561526f565b93506144b781856020860161546f565b80840191505092915050565b600081546144d0816154a2565b6144da818661525e565b945060018216600081146144f557600181146145075761453a565b60ff198316865260208601935061453a565b614510856151f9565b60005b8381101561453257815481890152600182019150602081019050614513565b808801955050505b50505092915050565b60008154614550816154a2565b61455a818661526f565b945060018216600081146145755760018114614586576145b9565b60ff198316865281860193506145b9565b61458f856151f9565b60005b838110156145b157815481890152600182019150602081019050614592565b838801955050505b50505092915050565b60006145cf60068361525e565b91506145da8261574b565b602082019050919050565b60006145f2601f8361525e565b91506145fd82615774565b602082019050919050565b600061461560158361525e565b91506146208261579d565b602082019050919050565b6000614638602b8361525e565b9150614643826157c6565b604082019050919050565b600061465b60328361525e565b915061466682615815565b604082019050919050565b600061467e60258361525e565b915061468982615864565b604082019050919050565b60006146a1601c8361525e565b91506146ac826158b3565b602082019050919050565b60006146c460288361525e565b91506146cf826158dc565b604082019050919050565b60006146e760248361525e565b91506146f28261592b565b604082019050919050565b600061470a60198361525e565b91506147158261597a565b602082019050919050565b600061472d600c8361526f565b9150614738826159a3565b600c82019050919050565b6000614750602c8361525e565b915061475b826159cc565b604082019050919050565b600061477360208361525e565b915061477e82615a1b565b602082019050919050565b600061479660198361525e565b91506147a182615a44565b602082019050919050565b60006147b960388361525e565b91506147c482615a6d565b604082019050919050565b60006147dc602a8361525e565b91506147e782615abc565b604082019050919050565b60006147ff60298361525e565b915061480a82615b0b565b604082019050919050565b600061482260208361525e565b915061482d82615b5a565b602082019050919050565b6000614845602c8361525e565b915061485082615b83565b604082019050919050565b6000614868602f8361525e565b915061487382615bd2565b604082019050919050565b600061488b60218361525e565b915061489682615c21565b604082019050919050565b60006148ae60078361525e565b91506148b982615c70565b602082019050919050565b60006148d160178361525e565b91506148dc82615c99565b602082019050919050565b60006148f460318361525e565b91506148ff82615cc2565b604082019050919050565b6000614917602c8361525e565b915061492282615d11565b604082019050919050565b600061493a60158361525e565b915061494582615d60565b602082019050919050565b600061495d60248361525e565b915061496882615d89565b604082019050919050565b6102008201600082015161498a6000850182614abd565b50602082015161499d6020850182614abd565b5060408201516149b06040850182614abd565b5060608201516149c36060850182614abd565b5060808201516149d66080850182614abd565b5060a08201516149e960a0850182614abd565b5060c08201516149fc60c0850182614abd565b5060e0820151614a0f60e0850182614abd565b50610100820151614a24610100850182614abd565b50610120820151614a39610120850182614abd565b50610140820151614a4e610140850182614abd565b50610160820151614a63610160850182614abd565b50610180820151614a78610180850182614abd565b506101a0820151614a8d6101a0850182614abd565b506101c0820151614aa26101c0850182614af2565b506101e0820151614ab76101e08501826143dc565b50505050565b614ac68161541b565b82525050565b614ad58161541b565b82525050565b614aec614ae78261541b565b6155ad565b82525050565b614afb81615449565b82525050565b614b0a81615449565b82525050565b614b21614b1c82615449565b6155bf565b82525050565b6000614b338285614409565b602082019150614b438284614b10565b6020820191508190509392505050565b6000614b5f8285614492565b9150614b6b8284614492565b91508190509392505050565b6000614b838285614543565b9150614b8f8284614543565b91508190509392505050565b6000614ba78287614543565b9150614bb38286614543565b9150614bbf8285614492565b9150614bcb8284614543565b915081905095945050505050565b6000614be482614720565b9150614bf08284614b10565b60208201915081905092915050565b6000614c0b8284614adb565b60028201915081905092915050565b6000602082019050614c2f600083018461436f565b92915050565b6000608082019050614c4a600083018761436f565b614c57602083018661436f565b614c646040830185614b01565b8181036060830152614c768184614420565b905095945050505050565b6000604082019050614c96600083018561436f565b614ca36020830184614acc565b9392505050565b6000606082019050614cbf600083018661436f565b614ccc6020830185614b01565b8181036040830152614cde8184614420565b9050949350505050565b60006020820190508181036000830152614d02818461437e565b905092915050565b6000602082019050614d1f60008301846143eb565b92915050565b6000604082019050614d3a60008301856143fa565b614d476020830184614b01565b9392505050565b6000608082019050614d6360008301876143fa565b614d706020830186614b01565b614d7d604083018561436f565b614d8a6060830184614b01565b95945050505050565b60006020820190508181036000830152614dad8184614459565b905092915050565b60006020820190508181036000830152614dcf81846144c3565b905092915050565b60006020820190508181036000830152614df0816145c2565b9050919050565b60006020820190508181036000830152614e10816145e5565b9050919050565b60006020820190508181036000830152614e3081614608565b9050919050565b60006020820190508181036000830152614e508161462b565b9050919050565b60006020820190508181036000830152614e708161464e565b9050919050565b60006020820190508181036000830152614e9081614671565b9050919050565b60006020820190508181036000830152614eb081614694565b9050919050565b60006020820190508181036000830152614ed0816146b7565b9050919050565b60006020820190508181036000830152614ef0816146da565b9050919050565b60006020820190508181036000830152614f10816146fd565b9050919050565b60006020820190508181036000830152614f3081614743565b9050919050565b60006020820190508181036000830152614f5081614766565b9050919050565b60006020820190508181036000830152614f7081614789565b9050919050565b60006020820190508181036000830152614f90816147ac565b9050919050565b60006020820190508181036000830152614fb0816147cf565b9050919050565b60006020820190508181036000830152614fd0816147f2565b9050919050565b60006020820190508181036000830152614ff081614815565b9050919050565b6000602082019050818103600083015261501081614838565b9050919050565b600060208201905081810360008301526150308161485b565b9050919050565b600060208201905081810360008301526150508161487e565b9050919050565b60006020820190508181036000830152615070816148a1565b9050919050565b60006020820190508181036000830152615090816148c4565b9050919050565b600060208201905081810360008301526150b0816148e7565b9050919050565b600060208201905081810360008301526150d08161490a565b9050919050565b600060208201905081810360008301526150f08161492d565b9050919050565b6000602082019050818103600083015261511081614950565b9050919050565b60006102008201905061512d6000830184614973565b92915050565b60006020820190506151486000830184614acc565b92915050565b6000610220820190506151646000830185614acc565b6151716020830184614973565b9392505050565b600060208201905061518d6000830184614b01565b92915050565b600061519d6151ae565b90506151a982826154d4565b919050565b6000604051905090565b600067ffffffffffffffff8211156151d3576151d26156e5565b5b6151dc8261572d565b9050602081019050919050565b6000819050602082019050919050565b60008190508160005260206000209050919050565b600081519050919050565b600081519050919050565b600081519050919050565b6000602082019050919050565b600082825260208201905092915050565b600082825260208201905092915050565b600082825260208201905092915050565b600081905092915050565b60006152858261541b565b91506152908361541b565b92508261ffff038211156152a7576152a66155fa565b5b828201905092915050565b60006152bd82615449565b91506152c883615449565b9250827fffffffffffffffffffffffffffffffffffffffffffffffffffffffffffffffff038211156152fd576152fc6155fa565b5b828201905092915050565b600061531382615449565b915061531e83615449565b92508261532e5761532d615629565b5b828204905092915050565b600061534482615449565b915061534f83615449565b9250817fffffffffffffffffffffffffffffffffffffffffffffffffffffffffffffffff0483118215151615615388576153876155fa565b5b828202905092915050565b600061539e82615449565b91506153a983615449565b9250828210156153bc576153bb6155fa565b5b828203905092915050565b60006153d282615429565b9050919050565b60008115159050919050565b6000819050919050565b60007fffffffff0000000000000000000000000000000000000000000000000000000082169050919050565b600061ffff82169050919050565b600073ffffffffffffffffffffffffffffffffffffffff82169050919050565b6000819050919050565b600060ff82169050919050565b82818337600083830152505050565b60005b8381101561548d578082015181840152602081019050615472565b8381111561549c576000848401525b50505050565b600060028204905060018216806154ba57607f821691505b602082108114156154ce576154cd615658565b5b50919050565b6154dd8261572d565b810181811067ffffffffffffffff821117156154fc576154fb6156e5565b5b80604052505050565b60006155108261541b565b915061ffff821415615525576155246155fa565b5b600182019050919050565b600061553b82615449565b91507fffffffffffffffffffffffffffffffffffffffffffffffffffffffffffffffff82141561556e5761556d6155fa565b5b600182019050919050565b600061558482615453565b915060ff821415615598576155976155fa565b5b600182019050919050565b6000819050919050565b60006155b88261573e565b9050919050565b6000819050919050565b60006155d482615449565b91506155df83615449565b9250826155ef576155ee615629565b5b828206905092915050565b7f4e487b7100000000000000000000000000000000000000000000000000000000600052601160045260246000fd5b7f4e487b7100000000000000000000000000000000000000000000000000000000600052601260045260246000fd5b7f4e487b7100000000000000000000000000000000000000000000000000000000600052602260045260246000fd5b7f4e487b7100000000000000000000000000000000000000000000000000000000600052603160045260246000fd5b7f4e487b7100000000000000000000000000000000000000000000000000000000600052603260045260246000fd5b7f4e487b7100000000000000000000000000000000000000000000000000000000600052604160045260246000fd5b600080fd5b600080fd5b600080fd5b600080fd5b600080fd5b6000601f19601f8301169050919050565b60008160f01b9050919050565b7f4f6e6c7920410000000000000000000000000000000000000000000000000000600082015250565b7f596f752061726520747279696e6720746f206d696e7420746f6f206d616e7900600082015250565b7f4e6f7420656e6f7567682066756e64732073656e740000000000000000000000600082015250565b7f455243373231456e756d657261626c653a206f776e657220696e646578206f7560008201527f74206f6620626f756e6473000000000000000000000000000000000000000000602082015250565b7f4552433732313a207472616e7366657220746f206e6f6e20455243373231526560008201527f63656976657220696d706c656d656e7465720000000000000000000000000000602082015250565b7f4552433732313a207472616e736665722066726f6d20696e636f72726563742060008201527f6f776e6572000000000000000000000000000000000000000000000000000000602082015250565b7f4552433732313a20746f6b656e20616c7265616479206d696e74656400000000600082015250565b7f546869732066756e6374696f6e206973206e6f7420617661696c61626c65207260008201527f69676874206e6f77000000000000000000000000000000000000000000000000602082015250565b7f4552433732313a207472616e7366657220746f20746865207a65726f2061646460008201527f7265737300000000000000000000000000000000000000000000000000000000602082015250565b7f4552433732313a20617070726f766520746f2063616c6c657200000000000000600082015250565b7f72616e646f6d206e756d3a200000000000000000000000000000000000000000600082015250565b7f4552433732313a206f70657261746f7220717565727920666f72206e6f6e657860008201527f697374656e7420746f6b656e0000000000000000000000000000000000000000602082015250565b7f436f6e74726163742062616c616e636520697320696e73756666696369656e74600082015250565b7f5468697320746f6b656e20646f6573206e6f7420657869737400000000000000600082015250565b7f4552433732313a20617070726f76652063616c6c6572206973206e6f74206f7760008201527f6e6572206e6f7220617070726f76656420666f7220616c6c0000000000000000602082015250565b7f4552433732313a2062616c616e636520717565727920666f7220746865207a6560008201527f726f206164647265737300000000000000000000000000000000000000000000602082015250565b7f4552433732313a206f776e657220717565727920666f72206e6f6e657869737460008201527f656e7420746f6b656e0000000000000000000000000000000000000000000000602082015250565b7f4552433732313a206d696e7420746f20746865207a65726f2061646472657373600082015250565b7f4552433732313a20617070726f76656420717565727920666f72206e6f6e657860008201527f697374656e7420746f6b656e0000000000000000000000000000000000000000602082015250565b7f4552433732314d657461646174613a2055524920717565727920666f72206e6f60008201527f6e6578697374656e7420746f6b656e0000000000000000000000000000000000602082015250565b7f4552433732313a20617070726f76616c20746f2063757272656e74206f776e6560008201527f7200000000000000000000000000000000000000000000000000000000000000602082015250565b7f6f6e6c7920474300000000000000000000000000000000000000000000000000600082015250565b7f4e6f7420656e6f756768204c494e4b2062616c616e6365000000000000000000600082015250565b7f4552433732313a207472616e736665722063616c6c6572206973206e6f74206f60008201527f776e6572206e6f7220617070726f766564000000000000000000000000000000602082015250565b7f455243373231456e756d657261626c653a20676c6f62616c20696e646578206f60008201527f7574206f6620626f756e64730000000000000000000000000000000000000000602082015250565b7f546f6f2068696768206f6620616e20616d6f756e740000000000000000000000600082015250565b7f596f752063616e206e6f74206d696e74206d6f7265207468616e20746865206c60008201527f696d697400000000000000000000000000000000000000000000000000000000602082015250565b615de1816153c7565b8114615dec57600080fd5b50565b615df8816153d9565b8114615e0357600080fd5b50565b615e0f816153ef565b8114615e1a57600080fd5b50565b615e268161541b565b8114615e3157600080fd5b50565b615e3d81615449565b8114615e4857600080fd5b50565b615e5481615453565b8114615e5f57600080fd5b5056fea2646970667358221220169df4fda70adbe3de7bd56d825aca7be2273ed6859ca3c62c61f42ff0e593de64736f6c63430008070033",
  "linkReferences": {},
  "deployedLinkReferences": {}
}