{
  "_format": "hh-sol-artifact-1",
  "contractName": "Minter",
  "sourceName": "contracts/minter.sol",
  "abi": [
    {
      "inputs": [
        {
          "internalType": "address[]",
          "name": "_rewardedAddresses",
          "type": "address[]"
        },
        {
          "internalType": "address[]",
          "name": "_paymentsTo",
          "type": "address[]"
        },
        {
          "internalType": "address",
          "name": "_vrfCoordinator",
          "type": "address"
        },
        {
          "internalType": "address",
          "name": "_linkToken",
          "type": "address"
        },
        {
          "internalType": "bytes32",
          "name": "_keyHash",
          "type": "bytes32"
        },
        {
          "internalType": "uint256",
          "name": "_OracleFee",
          "type": "uint256"
        }
      ],
      "stateMutability": "nonpayable",
      "type": "constructor"
    },
    {
      "anonymous": false,
      "inputs": [
        {
          "indexed": true,
          "internalType": "address",
          "name": "owner",
          "type": "address"
        },
        {
          "indexed": true,
          "internalType": "address",
          "name": "approved",
          "type": "address"
        },
        {
          "indexed": true,
          "internalType": "uint256",
          "name": "tokenId",
          "type": "uint256"
        }
      ],
      "name": "Approval",
      "type": "event"
    },
    {
      "anonymous": false,
      "inputs": [
        {
          "indexed": true,
          "internalType": "address",
          "name": "owner",
          "type": "address"
        },
        {
          "indexed": true,
          "internalType": "address",
          "name": "operator",
          "type": "address"
        },
        {
          "indexed": false,
          "internalType": "bool",
          "name": "approved",
          "type": "bool"
        }
      ],
      "name": "ApprovalForAll",
      "type": "event"
    },
    {
      "anonymous": false,
      "inputs": [
        {
          "indexed": false,
          "internalType": "address",
          "name": "winner",
          "type": "address"
        }
      ],
      "name": "PorscheWinner",
      "type": "event"
    },
    {
      "anonymous": false,
      "inputs": [
        {
          "indexed": true,
          "internalType": "address",
          "name": "from",
          "type": "address"
        },
        {
          "indexed": true,
          "internalType": "address",
          "name": "to",
          "type": "address"
        },
        {
          "indexed": true,
          "internalType": "uint256",
          "name": "tokenId",
          "type": "uint256"
        }
      ],
      "name": "Transfer",
      "type": "event"
    },
    {
      "inputs": [],
      "name": "active",
      "outputs": [
        {
          "internalType": "bool",
          "name": "",
          "type": "bool"
        }
      ],
      "stateMutability": "view",
      "type": "function"
    },
    {
      "inputs": [
        {
          "internalType": "address",
          "name": "to",
          "type": "address"
        },
        {
          "internalType": "uint256",
          "name": "tokenId",
          "type": "uint256"
        }
      ],
      "name": "approve",
      "outputs": [],
      "stateMutability": "nonpayable",
      "type": "function"
    },
    {
      "inputs": [
        {
          "internalType": "address",
          "name": "owner",
          "type": "address"
        }
      ],
      "name": "balanceOf",
      "outputs": [
        {
          "internalType": "uint256",
          "name": "",
          "type": "uint256"
        }
      ],
      "stateMutability": "view",
      "type": "function"
    },
    {
      "inputs": [],
      "name": "flipSaleState",
      "outputs": [],
      "stateMutability": "nonpayable",
      "type": "function"
    },
    {
      "inputs": [
        {
          "internalType": "uint16",
          "name": "",
          "type": "uint16"
        }
      ],
      "name": "foundingRaptor",
      "outputs": [
        {
          "internalType": "bool",
          "name": "",
          "type": "bool"
        }
      ],
      "stateMutability": "view",
      "type": "function"
    },
    {
      "inputs": [],
      "name": "gameAddress",
      "outputs": [
        {
          "internalType": "address",
          "name": "",
          "type": "address"
        }
      ],
      "stateMutability": "view",
      "type": "function"
    },
    {
      "inputs": [
        {
          "internalType": "uint256",
          "name": "tokenId",
          "type": "uint256"
        }
      ],
      "name": "getApproved",
      "outputs": [
        {
          "internalType": "address",
          "name": "",
          "type": "address"
        }
      ],
      "stateMutability": "view",
      "type": "function"
    },
    {
      "inputs": [
        {
          "internalType": "uint16",
          "name": "_raptor",
          "type": "uint16"
        }
      ],
      "name": "getCoolDown",
      "outputs": [
        {
          "internalType": "uint32",
          "name": "",
          "type": "uint32"
        }
      ],
      "stateMutability": "view",
      "type": "function"
    },
    {
      "inputs": [
        {
          "internalType": "uint8",
          "name": "_amount",
          "type": "uint8"
        }
      ],
      "name": "getPrice",
      "outputs": [
        {
          "internalType": "uint256",
          "name": "givenPrice",
          "type": "uint256"
        }
      ],
      "stateMutability": "view",
      "type": "function"
    },
    {
      "inputs": [
        {
          "internalType": "uint16",
          "name": "_raptor",
          "type": "uint16"
        }
      ],
      "name": "getSpeed",
      "outputs": [
        {
          "internalType": "uint16",
          "name": "",
          "type": "uint16"
        }
      ],
      "stateMutability": "view",
      "type": "function"
    },
    {
      "inputs": [
        {
          "internalType": "uint16",
          "name": "_raptor",
          "type": "uint16"
        }
      ],
      "name": "getStrength",
      "outputs": [
        {
          "internalType": "uint16",
          "name": "",
          "type": "uint16"
        }
      ],
      "stateMutability": "view",
      "type": "function"
    },
    {
      "inputs": [
        {
          "internalType": "uint16",
          "name": "_raptor",
          "type": "uint16"
        },
        {
          "internalType": "uint32",
          "name": "newTime",
          "type": "uint32"
        }
      ],
      "name": "increaseCooldownTime",
      "outputs": [
        {
          "internalType": "bool",
          "name": "",
          "type": "bool"
        }
      ],
      "stateMutability": "nonpayable",
      "type": "function"
    },
    {
      "inputs": [
        {
          "internalType": "address",
          "name": "owner",
          "type": "address"
        },
        {
          "internalType": "address",
          "name": "operator",
          "type": "address"
        }
      ],
      "name": "isApprovedForAll",
      "outputs": [
        {
          "internalType": "bool",
          "name": "",
          "type": "bool"
        }
      ],
      "stateMutability": "view",
      "type": "function"
    },
    {
      "inputs": [
        {
          "internalType": "uint16",
          "name": "raptor",
          "type": "uint16"
        }
      ],
      "name": "isFoundingRaptor",
      "outputs": [
        {
          "internalType": "bool",
          "name": "",
          "type": "bool"
        }
      ],
      "stateMutability": "view",
      "type": "function"
    },
    {
      "inputs": [
        {
          "internalType": "uint8",
          "name": "_amount",
          "type": "uint8"
        }
      ],
      "name": "mint",
      "outputs": [],
      "stateMutability": "payable",
      "type": "function"
    },
    {
      "inputs": [],
      "name": "name",
      "outputs": [
        {
          "internalType": "string",
          "name": "",
          "type": "string"
        }
      ],
      "stateMutability": "view",
      "type": "function"
    },
    {
      "inputs": [
        {
          "internalType": "uint256",
          "name": "tokenId",
          "type": "uint256"
        }
      ],
      "name": "ownerOf",
      "outputs": [
        {
          "internalType": "address",
          "name": "",
          "type": "address"
        }
      ],
      "stateMutability": "view",
      "type": "function"
    },
    {
      "inputs": [
        {
          "internalType": "uint256",
          "name": "",
          "type": "uint256"
        }
      ],
      "name": "paymentsTo",
      "outputs": [
        {
          "internalType": "address",
          "name": "",
          "type": "address"
        }
      ],
      "stateMutability": "view",
      "type": "function"
    },
    {
      "inputs": [
        {
          "internalType": "uint16",
          "name": "",
          "type": "uint16"
        }
      ],
      "name": "raptorStats",
      "outputs": [
        {
          "internalType": "uint16",
          "name": "speed",
          "type": "uint16"
        },
        {
          "internalType": "uint16",
          "name": "strength",
          "type": "uint16"
        },
        {
          "internalType": "uint16",
          "name": "fightsWon",
          "type": "uint16"
        },
        {
          "internalType": "uint16",
          "name": "quickPlayRacesWon",
          "type": "uint16"
        },
        {
          "internalType": "uint16",
          "name": "compRacesWon",
          "type": "uint16"
        },
        {
          "internalType": "uint16",
          "name": "deathRacesWon",
          "type": "uint16"
        },
        {
          "internalType": "uint16",
          "name": "totalRacesTop3Finish",
          "type": "uint16"
        },
        {
          "internalType": "uint32",
          "name": "cooldownTime",
          "type": "uint32"
        }
      ],
      "stateMutability": "view",
      "type": "function"
    },
    {
      "inputs": [
        {
          "internalType": "bytes32",
          "name": "requestId",
          "type": "bytes32"
        },
        {
          "internalType": "uint256",
          "name": "randomness",
          "type": "uint256"
        }
      ],
      "name": "rawFulfillRandomness",
      "outputs": [],
      "stateMutability": "nonpayable",
      "type": "function"
    },
    {
      "inputs": [],
      "name": "reveal",
      "outputs": [],
      "stateMutability": "nonpayable",
      "type": "function"
    },
    {
      "inputs": [],
      "name": "revealed",
      "outputs": [
        {
          "internalType": "bool",
          "name": "",
          "type": "bool"
        }
      ],
      "stateMutability": "view",
      "type": "function"
    },
    {
      "inputs": [
        {
          "internalType": "address",
          "name": "from",
          "type": "address"
        },
        {
          "internalType": "address",
          "name": "to",
          "type": "address"
        },
        {
          "internalType": "uint256",
          "name": "tokenId",
          "type": "uint256"
        }
      ],
      "name": "safeTransferFrom",
      "outputs": [],
      "stateMutability": "nonpayable",
      "type": "function"
    },
    {
      "inputs": [
        {
          "internalType": "address",
          "name": "from",
          "type": "address"
        },
        {
          "internalType": "address",
          "name": "to",
          "type": "address"
        },
        {
          "internalType": "uint256",
          "name": "tokenId",
          "type": "uint256"
        },
        {
          "internalType": "bytes",
          "name": "_data",
          "type": "bytes"
        }
      ],
      "name": "safeTransferFrom",
      "outputs": [],
      "stateMutability": "nonpayable",
      "type": "function"
    },
    {
      "inputs": [
        {
          "internalType": "address",
          "name": "_admin",
          "type": "address"
        }
      ],
      "name": "setAdmin",
      "outputs": [],
      "stateMutability": "nonpayable",
      "type": "function"
    },
    {
      "inputs": [
        {
          "internalType": "address",
          "name": "operator",
          "type": "address"
        },
        {
          "internalType": "bool",
          "name": "approved",
          "type": "bool"
        }
      ],
      "name": "setApprovalForAll",
      "outputs": [],
      "stateMutability": "nonpayable",
      "type": "function"
    },
    {
      "inputs": [
        {
          "internalType": "uint256",
          "name": "fundsToSplit",
          "type": "uint256"
        }
      ],
      "name": "splitFunds",
      "outputs": [],
      "stateMutability": "payable",
      "type": "function"
    },
    {
      "inputs": [
        {
          "internalType": "bytes4",
          "name": "interfaceId",
          "type": "bytes4"
        }
      ],
      "name": "supportsInterface",
      "outputs": [
        {
          "internalType": "bool",
          "name": "",
          "type": "bool"
        }
      ],
      "stateMutability": "view",
      "type": "function"
    },
    {
      "inputs": [],
      "name": "symbol",
      "outputs": [
        {
          "internalType": "string",
          "name": "",
          "type": "string"
        }
      ],
      "stateMutability": "view",
      "type": "function"
    },
    {
      "inputs": [
        {
          "internalType": "uint256",
          "name": "index",
          "type": "uint256"
        }
      ],
      "name": "tokenByIndex",
      "outputs": [
        {
          "internalType": "uint256",
          "name": "",
          "type": "uint256"
        }
      ],
      "stateMutability": "view",
      "type": "function"
    },
    {
      "inputs": [
        {
          "internalType": "address",
          "name": "owner",
          "type": "address"
        },
        {
          "internalType": "uint256",
          "name": "index",
          "type": "uint256"
        }
      ],
      "name": "tokenOfOwnerByIndex",
      "outputs": [
        {
          "internalType": "uint256",
          "name": "",
          "type": "uint256"
        }
      ],
      "stateMutability": "view",
      "type": "function"
    },
    {
      "inputs": [
        {
          "internalType": "uint256",
          "name": "tokenId",
          "type": "uint256"
        }
      ],
      "name": "tokenURI",
      "outputs": [
        {
          "internalType": "string",
          "name": "",
          "type": "string"
        }
      ],
      "stateMutability": "view",
      "type": "function"
    },
    {
      "inputs": [
        {
          "internalType": "uint16",
          "name": "_tokenId",
          "type": "uint16"
        }
      ],
      "name": "tokenURI",
      "outputs": [
        {
          "internalType": "string",
          "name": "uri",
          "type": "string"
        }
      ],
      "stateMutability": "view",
      "type": "function"
    },
    {
      "inputs": [],
      "name": "totalMintSupply",
      "outputs": [
        {
          "internalType": "uint16",
          "name": "",
          "type": "uint16"
        }
      ],
      "stateMutability": "view",
      "type": "function"
    },
    {
      "inputs": [],
      "name": "totalSupply",
      "outputs": [
        {
          "internalType": "uint256",
          "name": "",
          "type": "uint256"
        }
      ],
      "stateMutability": "view",
      "type": "function"
    },
    {
      "inputs": [
        {
          "internalType": "address",
          "name": "from",
          "type": "address"
        },
        {
          "internalType": "address",
          "name": "to",
          "type": "address"
        },
        {
          "internalType": "uint256",
          "name": "tokenId",
          "type": "uint256"
        }
      ],
      "name": "transferFrom",
      "outputs": [],
      "stateMutability": "nonpayable",
      "type": "function"
    },
    {
      "inputs": [
        {
          "internalType": "address",
          "name": "_gameAddress",
          "type": "address"
        }
      ],
      "name": "updateGameAddress",
      "outputs": [],
      "stateMutability": "nonpayable",
      "type": "function"
    },
    {
      "inputs": [
        {
          "internalType": "address",
          "name": "_paymentTo",
          "type": "address"
        },
        {
          "internalType": "uint8",
          "name": "index",
          "type": "uint8"
        }
      ],
      "name": "updatePaymentTo",
      "outputs": [],
      "stateMutability": "nonpayable",
      "type": "function"
    },
    {
      "inputs": [
        {
          "internalType": "uint16",
          "name": "_raptor",
          "type": "uint16"
        }
      ],
      "name": "upgradeCompWins",
      "outputs": [
        {
          "internalType": "bool",
          "name": "",
          "type": "bool"
        }
      ],
      "stateMutability": "nonpayable",
      "type": "function"
    },
    {
      "inputs": [
        {
          "internalType": "uint16",
          "name": "_raptor",
          "type": "uint16"
        }
      ],
      "name": "upgradeDRWins",
      "outputs": [
        {
          "internalType": "bool",
          "name": "",
          "type": "bool"
        }
      ],
      "stateMutability": "nonpayable",
      "type": "function"
    },
    {
      "inputs": [
        {
          "internalType": "uint16",
          "name": "_raptor",
          "type": "uint16"
        }
      ],
      "name": "upgradeQPWins",
      "outputs": [
        {
          "internalType": "bool",
          "name": "",
          "type": "bool"
        }
      ],
      "stateMutability": "nonpayable",
      "type": "function"
    },
    {
      "inputs": [
        {
          "internalType": "uint16",
          "name": "_raptor",
          "type": "uint16"
        },
        {
          "internalType": "uint8",
          "name": "_amount",
          "type": "uint8"
        }
      ],
      "name": "upgradeSpeed",
      "outputs": [
        {
          "internalType": "bool",
          "name": "",
          "type": "bool"
        }
      ],
      "stateMutability": "nonpayable",
      "type": "function"
    },
    {
      "inputs": [
        {
          "internalType": "uint16",
          "name": "_raptor",
          "type": "uint16"
        },
        {
          "internalType": "uint8",
          "name": "_amount",
          "type": "uint8"
        }
      ],
      "name": "upgradeStrength",
      "outputs": [
        {
          "internalType": "bool",
          "name": "",
          "type": "bool"
        }
      ],
      "stateMutability": "nonpayable",
      "type": "function"
    },
    {
      "inputs": [
        {
          "internalType": "uint16",
          "name": "_raptor",
          "type": "uint16"
        }
      ],
      "name": "upgradeTop3Finishes",
      "outputs": [
        {
          "internalType": "bool",
          "name": "",
          "type": "bool"
        }
      ],
      "stateMutability": "nonpayable",
      "type": "function"
    },
    {
      "inputs": [
        {
          "internalType": "uint16",
          "name": "_raptor",
          "type": "uint16"
        }
      ],
      "name": "upgradefightsWon",
      "outputs": [
        {
          "internalType": "bool",
          "name": "",
          "type": "bool"
        }
      ],
      "stateMutability": "nonpayable",
      "type": "function"
    },
    {
      "inputs": [
        {
          "internalType": "address",
          "name": "_wallet",
          "type": "address"
        }
      ],
      "name": "walletOfOwner",
      "outputs": [
        {
          "internalType": "uint16[]",
          "name": "ids",
          "type": "uint16[]"
        }
      ],
      "stateMutability": "view",
      "type": "function"
    },
    {
      "stateMutability": "payable",
      "type": "receive"
    }
  ],
  "bytecode": "0x60c06040526040518060400160405280601d81526020017f68747470733a2f2f676174657761792e70696e6174612e636c6f75642f000000815250600c90805190602001906200005192919062001048565b506040518060400160405280600981526020017f536f6d65204349442f0000000000000000000000000000000000000000000000815250600d90805190602001906200009f92919062001048565b506040518060400160405280600581526020017f2e4a534f4e000000000000000000000000000000000000000000000000000000815250600e9080519060200190620000ed92919062001048565b506040518060400160405280601081526020017f4e6f7452657665616c6564204861736800000000000000000000000000000000815250600f90805190602001906200013b92919062001048565b50671bc16d674ec800006014556000601560006101000a81548161ffff021916908361ffff160217905550612710601560026101000a81548161ffff021916908361ffff1602179055506040518060200160405280600360ff168152506017906001620001aa929190620010d9565b50348015620001b857600080fd5b5060405162007964380380620079648339818101604052810190620001de919062001328565b83836040518060400160405280601181526020017f526163696e6720526170746f72732056320000000000000000000000000000008152506040518060400160405280600281526020017f525200000000000000000000000000000000000000000000000000000000000081525081600090805190602001906200026492919062001048565b5080600190805190602001906200027d92919062001048565b5050508173ffffffffffffffffffffffffffffffffffffffff1660a08173ffffffffffffffffffffffffffffffffffffffff1660601b815250508073ffffffffffffffffffffffffffffffffffffffff1660808173ffffffffffffffffffffffffffffffffffffffff1660601b815250505050816011819055508060128190555085601690805190602001906200031692919062001187565b506001600b60146101000a81548160ff02191690831515021790555062000342620003b760201b60201c565b600b60006101000a81548173ffffffffffffffffffffffffffffffffffffffff021916908373ffffffffffffffffffffffffffffffffffffffff16021790555084601890805190602001906200039a92919062001187565b50620003ab620003bf60201b60201c565b505050505050620019b2565b600033905090565b60005b6016805490508160ff1610156200072a5760005b60178260ff1681548110620003f057620003ef620017f1565b5b90600052602060002090602091828204019190069054906101000a900460ff1660ff168160ff16101562000713576001601560008282829054906101000a900461ffff166200044091906200158f565b92506101000a81548161ffff021916908361ffff160217905550620004c460168360ff1681548110620004785762000477620017f1565b5b9060005260206000200160009054906101000a900473ffffffffffffffffffffffffffffffffffffffff16601560009054906101000a900461ffff1661ffff166200072d60201b60201c565b6200050c601560059054906101000a900473ffffffffffffffffffffffffffffffffffffffff16601560009054906101000a900461ffff1661ffff166200092760201b60201c565b604051806101000160405280600161ffff168152602001600161ffff168152602001600061ffff168152602001600061ffff168152602001600061ffff168152602001600061ffff168152602001600061ffff1681526020014263ffffffff1681525060136000601560009054906101000a900461ffff1661ffff1661ffff16815260200190815260200160002060008201518160000160006101000a81548161ffff021916908361ffff16021790555060208201518160000160026101000a81548161ffff021916908361ffff16021790555060408201518160000160046101000a81548161ffff021916908361ffff16021790555060608201518160000160066101000a81548161ffff021916908361ffff16021790555060808201518160000160086101000a81548161ffff021916908361ffff16021790555060a082015181600001600a6101000a81548161ffff021916908361ffff16021790555060c082015181600001600c6101000a81548161ffff021916908361ffff16021790555060e082015181600001600e6101000a81548163ffffffff021916908363ffffffff160217905550905050600160196000601560009054906101000a900461ffff1661ffff1661ffff16815260200190815260200160002060006101000a81548160ff02191690831515021790555080806200070a9062001735565b915050620003d6565b508080620007219062001735565b915050620003c2565b50565b600073ffffffffffffffffffffffffffffffffffffffff168273ffffffffffffffffffffffffffffffffffffffff161415620007a0576040517f08c379a0000000000000000000000000000000000000000000000000000000008152600401620007979062001504565b60405180910390fd5b620007b181620009ed60201b60201c565b15620007f4576040517f08c379a0000000000000000000000000000000000000000000000000000000008152600401620007eb906200149e565b60405180910390fd5b620008086000838362000a5960201b60201c565b6001600360008473ffffffffffffffffffffffffffffffffffffffff1673ffffffffffffffffffffffffffffffffffffffff16815260200190815260200160002060008282546200085a9190620015ce565b92505081905550816002600083815260200190815260200160002060006101000a81548173ffffffffffffffffffffffffffffffffffffffff021916908373ffffffffffffffffffffffffffffffffffffffff160217905550808273ffffffffffffffffffffffffffffffffffffffff16600073ffffffffffffffffffffffffffffffffffffffff167fddf252ad1be2c89b69c2b068fc378daa952ba7f163c4a11628f55a4df523b3ef60405160405180910390a4620009236000838362000ba060201b60201c565b5050565b816004600083815260200190815260200160002060006101000a81548173ffffffffffffffffffffffffffffffffffffffff021916908373ffffffffffffffffffffffffffffffffffffffff160217905550808273ffffffffffffffffffffffffffffffffffffffff16620009a78362000ba560201b620017ae1760201c565b73ffffffffffffffffffffffffffffffffffffffff167f8c5be1e5ebec7d5bd14f71427d1e84f3dd0314c0f7b2291e5b200ac8c7c3b92560405160405180910390a45050565b60008073ffffffffffffffffffffffffffffffffffffffff166002600084815260200190815260200160002060009054906101000a900473ffffffffffffffffffffffffffffffffffffffff1673ffffffffffffffffffffffffffffffffffffffff1614159050919050565b62000a7183838362000c5a60201b62002acc1760201c565b600073ffffffffffffffffffffffffffffffffffffffff168373ffffffffffffffffffffffffffffffffffffffff16141562000abe5762000ab88162000c5f60201b60201c565b62000b06565b8173ffffffffffffffffffffffffffffffffffffffff168373ffffffffffffffffffffffffffffffffffffffff161462000b055762000b04838262000ca860201b60201c565b5b5b600073ffffffffffffffffffffffffffffffffffffffff168273ffffffffffffffffffffffffffffffffffffffff16141562000b535762000b4d8162000e2560201b60201c565b62000b9b565b8273ffffffffffffffffffffffffffffffffffffffff168273ffffffffffffffffffffffffffffffffffffffff161462000b9a5762000b99828262000f0160201b60201c565b5b5b505050565b505050565b6000806002600084815260200190815260200160002060009054906101000a900473ffffffffffffffffffffffffffffffffffffffff169050600073ffffffffffffffffffffffffffffffffffffffff168173ffffffffffffffffffffffffffffffffffffffff16141562000c51576040517f08c379a000000000000000000000000000000000000000000000000000000000815260040162000c4890620014e2565b60405180910390fd5b80915050919050565b505050565b6008805490506009600083815260200190815260200160002081905550600881908060018154018082558091505060019003906000526020600020016000909190919091505550565b6000600162000cc28462000f8d60201b62001e9a1760201c565b62000cce91906200162b565b905060006007600084815260200190815260200160002054905081811462000db4576000600660008673ffffffffffffffffffffffffffffffffffffffff1673ffffffffffffffffffffffffffffffffffffffff168152602001908152602001600020600084815260200190815260200160002054905080600660008773ffffffffffffffffffffffffffffffffffffffff1673ffffffffffffffffffffffffffffffffffffffff168152602001908152602001600020600084815260200190815260200160002081905550816007600083815260200190815260200160002081905550505b6007600084815260200190815260200160002060009055600660008573ffffffffffffffffffffffffffffffffffffffff1673ffffffffffffffffffffffffffffffffffffffff16815260200190815260200160002060008381526020019081526020016000206000905550505050565b6000600160088054905062000e3b91906200162b565b905060006009600084815260200190815260200160002054905060006008838154811062000e6e5762000e6d620017f1565b5b90600052602060002001549050806008838154811062000e935762000e92620017f1565b5b90600052602060002001819055508160096000838152602001908152602001600020819055506009600085815260200190815260200160002060009055600880548062000ee55762000ee4620017c2565b5b6001900381819060005260206000200160009055905550505050565b600062000f198362000f8d60201b62001e9a1760201c565b905081600660008573ffffffffffffffffffffffffffffffffffffffff1673ffffffffffffffffffffffffffffffffffffffff168152602001908152602001600020600083815260200190815260200160002081905550806007600084815260200190815260200160002081905550505050565b60008073ffffffffffffffffffffffffffffffffffffffff168273ffffffffffffffffffffffffffffffffffffffff16141562001001576040517f08c379a000000000000000000000000000000000000000000000000000000000815260040162000ff890620014c0565b60405180910390fd5b600360008373ffffffffffffffffffffffffffffffffffffffff1673ffffffffffffffffffffffffffffffffffffffff168152602001908152602001600020549050919050565b8280546200105690620016c9565b90600052602060002090601f0160209004810192826200107a5760008555620010c6565b82601f106200109557805160ff1916838001178555620010c6565b82800160010185558215620010c6579182015b82811115620010c5578251825591602001919060010190620010a8565b5b509050620010d5919062001216565b5090565b82805482825590600052602060002090601f01602090048101928215620011745791602002820160005b838211156200114357835183826101000a81548160ff021916908360ff160217905550926020019260010160208160000104928301926001030262001103565b8015620011725782816101000a81549060ff021916905560010160208160000104928301926001030262001143565b505b50905062001183919062001216565b5090565b82805482825590600052602060002090810192821562001203579160200282015b82811115620012025782518260006101000a81548173ffffffffffffffffffffffffffffffffffffffff021916908373ffffffffffffffffffffffffffffffffffffffff16021790555091602001919060010190620011a8565b5b50905062001212919062001216565b5090565b5b808211156200123157600081600090555060010162001217565b5090565b60006200124c62001246846200154f565b62001526565b9050808382526020820190508285602086028201111562001272576200127162001854565b5b60005b85811015620012a657816200128b8882620012b0565b84526020840193506020830192505060018101905062001275565b5050509392505050565b600081519050620012c18162001964565b92915050565b600082601f830112620012df57620012de6200184f565b5b8151620012f184826020860162001235565b91505092915050565b6000815190506200130b816200197e565b92915050565b600081519050620013228162001998565b92915050565b60008060008060008060c087890312156200134857620013476200185e565b5b600087015167ffffffffffffffff81111562001369576200136862001859565b5b6200137789828a01620012c7565b965050602087015167ffffffffffffffff8111156200139b576200139a62001859565b5b620013a989828a01620012c7565b9550506040620013bc89828a01620012b0565b9450506060620013cf89828a01620012b0565b9350506080620013e289828a01620012fa565b92505060a0620013f589828a0162001311565b9150509295509295509295565b600062001411601c836200157e565b91506200141e8262001874565b602082019050919050565b600062001438602a836200157e565b915062001445826200189d565b604082019050919050565b60006200145f6029836200157e565b91506200146c82620018ec565b604082019050919050565b6000620014866020836200157e565b915062001493826200193b565b602082019050919050565b60006020820190508181036000830152620014b98162001402565b9050919050565b60006020820190508181036000830152620014db8162001429565b9050919050565b60006020820190508181036000830152620014fd8162001450565b9050919050565b600060208201905081810360008301526200151f8162001477565b9050919050565b60006200153262001545565b9050620015408282620016ff565b919050565b6000604051905090565b600067ffffffffffffffff8211156200156d576200156c62001820565b5b602082029050602081019050919050565b600082825260208201905092915050565b60006200159c8262001684565b9150620015a98362001684565b92508261ffff03821115620015c357620015c262001764565b5b828201905092915050565b6000620015db82620016b2565b9150620015e883620016b2565b9250827fffffffffffffffffffffffffffffffffffffffffffffffffffffffffffffffff0382111562001620576200161f62001764565b5b828201905092915050565b60006200163882620016b2565b91506200164583620016b2565b9250828210156200165b576200165a62001764565b5b828203905092915050565b6000620016738262001692565b9050919050565b6000819050919050565b600061ffff82169050919050565b600073ffffffffffffffffffffffffffffffffffffffff82169050919050565b6000819050919050565b600060ff82169050919050565b60006002820490506001821680620016e257607f821691505b60208210811415620016f957620016f862001793565b5b50919050565b6200170a8262001863565b810181811067ffffffffffffffff821117156200172c576200172b62001820565b5b80604052505050565b60006200174282620016bc565b915060ff82141562001759576200175862001764565b5b600182019050919050565b7f4e487b7100000000000000000000000000000000000000000000000000000000600052601160045260246000fd5b7f4e487b7100000000000000000000000000000000000000000000000000000000600052602260045260246000fd5b7f4e487b7100000000000000000000000000000000000000000000000000000000600052603160045260246000fd5b7f4e487b7100000000000000000000000000000000000000000000000000000000600052603260045260246000fd5b7f4e487b7100000000000000000000000000000000000000000000000000000000600052604160045260246000fd5b600080fd5b600080fd5b600080fd5b600080fd5b6000601f19601f8301169050919050565b7f4552433732313a20746f6b656e20616c7265616479206d696e74656400000000600082015250565b7f4552433732313a2062616c616e636520717565727920666f7220746865207a6560008201527f726f206164647265737300000000000000000000000000000000000000000000602082015250565b7f4552433732313a206f776e657220717565727920666f72206e6f6e657869737460008201527f656e7420746f6b656e0000000000000000000000000000000000000000000000602082015250565b7f4552433732313a206d696e7420746f20746865207a65726f2061646472657373600082015250565b6200196f8162001666565b81146200197b57600080fd5b50565b62001989816200167a565b81146200199557600080fd5b50565b620019a381620016b2565b8114620019af57600080fd5b50565b60805160601c60a05160601c615f78620019ec600039600081816121500152613a410152600081816133850152613a050152615f786000f3fe6080604052600436106102815760003560e01c806367c1fcfe1161014f5780639d7182ee116100c1578063b88d4fde1161007a578063b88d4fde14610a8d578063bb55534414610ab6578063c87b56dd14610af3578063db258f9c14610b30578063dd7d844014610b59578063e985e9c514610b9657610291565b80639d7182ee1461096b578063a168d873146109a8578063a22cb465146109d3578063a475b5dd146109fc578063a57ce66114610a13578063b4dd385e14610a5057610291565b806385e0832c1161011357806385e0832c1461082e5780638bffef62146108595780638cc3b3661461089657806394985ddd146108da57806395d76d9d1461090357806395d89b411461094057610291565b806367c1fcfe146107465780636ecd23061461076f578063704b6c021461078b57806370a08231146107b45780637e442efa146107f157610291565b80632f1335cf116101f3578063438b6300116101ac578063438b6300146105ea5780634f6ccce7146106275780635183022714610664578063530180631461068f5780636201917f146106cc5780636352211e1461070957610291565b80632f1335cf146104d75780632f745c59146104f3578063334bfefc1461053057806334918dfd1461056d57806337f1e7f21461058457806342842e0e146105c157610291565b80630a473536116102455780630a4735361461038f5780630a8dc157146103cc5780630c7c97071461040957806310e1e2d21461044657806318160ddd1461048357806323b872dd146104ae57610291565b806301ffc9a71461029657806302fb0c5e146102d357806306fdde03146102fe578063081812fc14610329578063095ea7b31461036657610291565b366102915761028f34610bd3565b005b600080fd5b3480156102a257600080fd5b506102bd60048036038101906102b89190614459565b610dd8565b6040516102ca9190614d72565b60405180910390f35b3480156102df57600080fd5b506102e8610e52565b6040516102f59190614d72565b60405180910390f35b34801561030a57600080fd5b50610313610e65565b6040516103209190614dfb565b60405180910390f35b34801561033557600080fd5b50610350600480360381019061034b9190614560565b610ef7565b60405161035d9190614cab565b60405180910390f35b34801561037257600080fd5b5061038d6004803603810190610388919061436c565b610f7c565b005b34801561039b57600080fd5b506103b660048036038101906103b191906144b3565b611094565b6040516103c39190614d72565b60405180910390f35b3480156103d857600080fd5b506103f360048036038101906103ee9190614560565b61118c565b6040516104009190614cab565b60405180910390f35b34801561041557600080fd5b50610430600480360381019061042b91906144b3565b6111cb565b60405161043d9190614d72565b60405180910390f35b34801561045257600080fd5b5061046d600480360381019061046891906144b3565b6112c3565b60405161047a919061517d565b60405180910390f35b34801561048f57600080fd5b506104986112f9565b6040516104a59190615216565b60405180910390f35b3480156104ba57600080fd5b506104d560048036038101906104d09190614256565b611306565b005b6104f160048036038101906104ec9190614560565b610bd3565b005b3480156104ff57600080fd5b5061051a6004803603810190610515919061436c565b611366565b6040516105279190615216565b60405180910390f35b34801561053c57600080fd5b50610557600480360381019061055291906144b3565b61140b565b6040516105649190614d72565b60405180910390f35b34801561057957600080fd5b50610582611503565b005b34801561059057600080fd5b506105ab60048036038101906105a691906145ba565b6115c6565b6040516105b89190615216565b60405180910390f35b3480156105cd57600080fd5b506105e860048036038101906105e39190614256565b6115ec565b005b3480156105f657600080fd5b50610611600480360381019061060c91906141e9565b61160c565b60405161061e9190614d50565b60405180910390f35b34801561063357600080fd5b5061064e60048036038101906106499190614560565b6116d2565b60405161065b9190615216565b60405180910390f35b34801561067057600080fd5b50610679611743565b6040516106869190614d72565b60405180910390f35b34801561069b57600080fd5b506106b660048036038101906106b191906144b3565b611756565b6040516106c39190614d72565b60405180910390f35b3480156106d857600080fd5b506106f360048036038101906106ee91906144b3565b611776565b6040516107009190615231565b60405180910390f35b34801561071557600080fd5b50610730600480360381019061072b9190614560565b6117ae565b60405161073d9190614cab565b60405180910390f35b34801561075257600080fd5b5061076d600480360381019061076891906143ac565b611860565b005b610789600480360381019061078491906145ba565b61195b565b005b34801561079757600080fd5b506107b260048036038101906107ad91906141e9565b611dbf565b005b3480156107c057600080fd5b506107db60048036038101906107d691906141e9565b611e9a565b6040516107e89190615216565b60405180910390f35b3480156107fd57600080fd5b50610818600480360381019061081391906144b3565b611f52565b6040516108259190614d72565b60405180910390f35b34801561083a57600080fd5b5061084361204a565b604051610850919061517d565b60405180910390f35b34801561086557600080fd5b50610880600480360381019061087b91906144b3565b61205e565b60405161088d919061517d565b60405180910390f35b3480156108a257600080fd5b506108bd60048036038101906108b891906144b3565b612094565b6040516108d1989796959493929190615198565b60405180910390f35b3480156108e657600080fd5b5061090160048036038101906108fc9190614419565b61214e565b005b34801561090f57600080fd5b5061092a600480360381019061092591906144b3565b6121ea565b6040516109379190614d72565b60405180910390f35b34801561094c57600080fd5b5061095561221c565b6040516109629190614dfb565b60405180910390f35b34801561097757600080fd5b50610992600480360381019061098d91906144b3565b6122ae565b60405161099f9190614d72565b60405180910390f35b3480156109b457600080fd5b506109bd6123a6565b6040516109ca9190614cab565b60405180910390f35b3480156109df57600080fd5b506109fa60048036038101906109f5919061432c565b6123cc565b005b348015610a0857600080fd5b50610a116123e2565b005b348015610a1f57600080fd5b50610a3a6004803603810190610a3591906144e0565b612496565b604051610a479190614d72565b60405180910390f35b348015610a5c57600080fd5b50610a776004803603810190610a729190614520565b612581565b604051610a849190614d72565b60405180910390f35b348015610a9957600080fd5b50610ab46004803603810190610aaf91906142a9565b61267c565b005b348015610ac257600080fd5b50610add6004803603810190610ad89190614520565b6126de565b604051610aea9190614d72565b60405180910390f35b348015610aff57600080fd5b50610b1a6004803603810190610b159190614560565b6127d9565b604051610b279190614dfb565b60405180910390f35b348015610b3c57600080fd5b50610b576004803603810190610b5291906141e9565b612880565b005b348015610b6557600080fd5b50610b806004803603810190610b7b91906144b3565b61295b565b604051610b8d9190614dfb565b60405180910390f35b348015610ba257600080fd5b50610bbd6004803603810190610bb89190614216565b612a38565b604051610bca9190614d72565b60405180910390f35b47811115610c16576040517f08c379a0000000000000000000000000000000000000000000000000000000008152600401610c0d90614fbd565b60405180910390fd5b6018600081548110610c2b57610c2a6157b9565b5b9060005260206000200160009054906101000a900473ffffffffffffffffffffffffffffffffffffffff1673ffffffffffffffffffffffffffffffffffffffff166108fc6064601984610c7e919061542c565b610c8891906153fb565b9081150290604051600060405180830381858888f19350505050610cab57600080fd5b6018600181548110610cc057610cbf6157b9565b5b9060005260206000200160009054906101000a900473ffffffffffffffffffffffffffffffffffffffff1673ffffffffffffffffffffffffffffffffffffffff166108fc6064603284610d13919061542c565b610d1d91906153fb565b9081150290604051600060405180830381858888f19350505050610d4057600080fd5b6018600281548110610d5557610d546157b9565b5b9060005260206000200160009054906101000a900473ffffffffffffffffffffffffffffffffffffffff1673ffffffffffffffffffffffffffffffffffffffff166108fc6064601984610da8919061542c565b610db291906153fb565b9081150290604051600060405180830381858888f19350505050610dd557600080fd5b50565b60007f780e9d63000000000000000000000000000000000000000000000000000000007bffffffffffffffffffffffffffffffffffffffffffffffffffffffff1916827bffffffffffffffffffffffffffffffffffffffffffffffffffffffff19161480610e4b5750610e4a82612ad1565b5b9050919050565b600b60149054906101000a900460ff1681565b606060008054610e74906155a5565b80601f0160208091040260200160405190810160405280929190818152602001828054610ea0906155a5565b8015610eed5780601f10610ec257610100808354040283529160200191610eed565b820191906000526020600020905b815481529060010190602001808311610ed057829003601f168201915b5050505050905090565b6000610f0282612bb3565b610f41576040517f08c379a0000000000000000000000000000000000000000000000000000000008152600401610f389061507d565b60405180910390fd5b6004600083815260200190815260200160002060009054906101000a900473ffffffffffffffffffffffffffffffffffffffff169050919050565b6000610f87826117ae565b90508073ffffffffffffffffffffffffffffffffffffffff168373ffffffffffffffffffffffffffffffffffffffff161415610ff8576040517f08c379a0000000000000000000000000000000000000000000000000000000008152600401610fef906150fd565b60405180910390fd5b8073ffffffffffffffffffffffffffffffffffffffff16611017612c1f565b73ffffffffffffffffffffffffffffffffffffffff161480611046575061104581611040612c1f565b612a38565b5b611085576040517f08c379a000000000000000000000000000000000000000000000000000000000815260040161107c90614ffd565b60405180910390fd5b61108f8383612c27565b505050565b6000601560059054906101000a900473ffffffffffffffffffffffffffffffffffffffff1673ffffffffffffffffffffffffffffffffffffffff166110d7612c1f565b73ffffffffffffffffffffffffffffffffffffffff161461112d576040517f08c379a000000000000000000000000000000000000000000000000000000000815260040161112490614e1d565b60405180910390fd5b6001601360008461ffff1661ffff168152602001908152602001600020600001600a8282829054906101000a900461ffff166111699190615333565b92506101000a81548161ffff021916908361ffff16021790555060019050919050565b6018818154811061119c57600080fd5b906000526020600020016000915054906101000a900473ffffffffffffffffffffffffffffffffffffffff1681565b6000601560059054906101000a900473ffffffffffffffffffffffffffffffffffffffff1673ffffffffffffffffffffffffffffffffffffffff1661120e612c1f565b73ffffffffffffffffffffffffffffffffffffffff1614611264576040517f08c379a000000000000000000000000000000000000000000000000000000000815260040161125b90614e1d565b60405180910390fd5b6001601360008461ffff1661ffff168152602001908152602001600020600001600c8282829054906101000a900461ffff166112a09190615333565b92506101000a81548161ffff021916908361ffff16021790555060019050919050565b6000601360008361ffff1661ffff16815260200190815260200160002060000160029054906101000a900461ffff169050919050565b6000600880549050905090565b611317611311612c1f565b82612ce0565b611356576040517f08c379a000000000000000000000000000000000000000000000000000000000815260040161134d9061511d565b60405180910390fd5b611361838383612dbe565b505050565b600061137183611e9a565b82106113b2576040517f08c379a00000000000000000000000000000000000000000000000000000000081526004016113a990614e5d565b60405180910390fd5b600660008473ffffffffffffffffffffffffffffffffffffffff1673ffffffffffffffffffffffffffffffffffffffff168152602001908152602001600020600083815260200190815260200160002054905092915050565b6000601560059054906101000a900473ffffffffffffffffffffffffffffffffffffffff1673ffffffffffffffffffffffffffffffffffffffff1661144e612c1f565b73ffffffffffffffffffffffffffffffffffffffff16146114a4576040517f08c379a000000000000000000000000000000000000000000000000000000000815260040161149b90614e1d565b60405180910390fd5b6001601360008461ffff1661ffff16815260200190815260200160002060000160048282829054906101000a900461ffff166114e09190615333565b92506101000a81548161ffff021916908361ffff16021790555060019050919050565b600b60009054906101000a900473ffffffffffffffffffffffffffffffffffffffff1673ffffffffffffffffffffffffffffffffffffffff16611544612c1f565b73ffffffffffffffffffffffffffffffffffffffff161461159a576040517f08c379a000000000000000000000000000000000000000000000000000000000815260040161159190614e3d565b60405180910390fd5b600b60149054906101000a900460ff1615600b60146101000a81548160ff021916908315150217905550565b60006115e582601454601560009054906101000a900461ffff16613025565b9050919050565b6116078383836040518060200160405280600081525061267c565b505050565b6060600061161983611e9a565b90508061ffff1667ffffffffffffffff811115611639576116386157e8565b5b6040519080825280602002602001820160405280156116675781602001602082028036833780820191505090505b50915060005b8161ffff168161ffff1610156116cb5761168b848261ffff16611366565b838261ffff16815181106116a2576116a16157b9565b5b602002602001019061ffff16908161ffff168152505080806116c390615608565b91505061166d565b5050919050565b60006116dc6112f9565b821061171d576040517f08c379a00000000000000000000000000000000000000000000000000000000081526004016117149061515d565b60405180910390fd5b60088281548110611731576117306157b9565b5b90600052602060002001549050919050565b601560049054906101000a900460ff1681565b60196020528060005260406000206000915054906101000a900460ff1681565b6000601360008361ffff1661ffff168152602001908152602001600020600001600e9054906101000a900463ffffffff169050919050565b6000806002600084815260200190815260200160002060009054906101000a900473ffffffffffffffffffffffffffffffffffffffff169050600073ffffffffffffffffffffffffffffffffffffffff168173ffffffffffffffffffffffffffffffffffffffff161415611857576040517f08c379a000000000000000000000000000000000000000000000000000000000815260040161184e9061503d565b60405180910390fd5b80915050919050565b600b60009054906101000a900473ffffffffffffffffffffffffffffffffffffffff1673ffffffffffffffffffffffffffffffffffffffff166118a1612c1f565b73ffffffffffffffffffffffffffffffffffffffff16146118f7576040517f08c379a00000000000000000000000000000000000000000000000000000000081526004016118ee90614e3d565b60405180910390fd5b8160188260ff168154811061190f5761190e6157b9565b5b9060005260206000200160006101000a81548173ffffffffffffffffffffffffffffffffffffffff021916908373ffffffffffffffffffffffffffffffffffffffff1602179055505050565b600b60149054906101000a900460ff166119aa576040517f08c379a00000000000000000000000000000000000000000000000000000000081526004016119a190614f7d565b60405180910390fd5b600b60009054906101000a900473ffffffffffffffffffffffffffffffffffffffff1673ffffffffffffffffffffffffffffffffffffffff166119eb612c1f565b73ffffffffffffffffffffffffffffffffffffffff1614611a9257611a0f816115c6565b3414611a50576040517f08c379a0000000000000000000000000000000000000000000000000000000008152600401611a4790614efd565b60405180910390fd5b611a718160ff16601560009054906101000a900461ffff1661ffff166130f8565b15611a8857611a81601454613161565b6014819055505b611a9134610bd3565b5b600a8160ff161115611ad9576040517f08c379a0000000000000000000000000000000000000000000000000000000008152600401611ad090614f1d565b60405180910390fd5b601560029054906101000a900461ffff1661ffff168160ff16601560009054906101000a900461ffff16611b0d9190615333565b61ffff161115611b52576040517f08c379a0000000000000000000000000000000000000000000000000000000008152600401611b4990614fdd565b60405180910390fd5b60005b8160ff168160ff161015611dbb576001601560008282829054906101000a900461ffff16611b839190615333565b92506101000a81548161ffff021916908361ffff160217905550611bc2611ba8612c1f565b601560009054906101000a900461ffff1661ffff166131a6565b604051806101000160405280600161ffff168152602001600161ffff168152602001600061ffff168152602001600061ffff168152602001600061ffff168152602001600061ffff168152602001600061ffff1681526020014263ffffffff1681525060136000601560009054906101000a900461ffff1661ffff1661ffff16815260200190815260200160002060008201518160000160006101000a81548161ffff021916908361ffff16021790555060208201518160000160026101000a81548161ffff021916908361ffff16021790555060408201518160000160046101000a81548161ffff021916908361ffff16021790555060608201518160000160066101000a81548161ffff021916908361ffff16021790555060808201518160000160086101000a81548161ffff021916908361ffff16021790555060a082015181600001600a6101000a81548161ffff021916908361ffff16021790555060c082015181600001600c6101000a81548161ffff021916908361ffff16021790555060e082015181600001600e6101000a81548163ffffffff021916908363ffffffff160217905550905050601560029054906101000a900461ffff1661ffff16601560009054906101000a900461ffff1661ffff161415611da857611da7613380565b5b8080611db39061567c565b915050611b55565b5050565b600b60009054906101000a900473ffffffffffffffffffffffffffffffffffffffff1673ffffffffffffffffffffffffffffffffffffffff16611e00612c1f565b73ffffffffffffffffffffffffffffffffffffffff1614611e56576040517f08c379a0000000000000000000000000000000000000000000000000000000008152600401611e4d90614e3d565b60405180910390fd5b80600b60006101000a81548173ffffffffffffffffffffffffffffffffffffffff021916908373ffffffffffffffffffffffffffffffffffffffff16021790555050565b60008073ffffffffffffffffffffffffffffffffffffffff168273ffffffffffffffffffffffffffffffffffffffff161415611f0b576040517f08c379a0000000000000000000000000000000000000000000000000000000008152600401611f029061501d565b60405180910390fd5b600360008373ffffffffffffffffffffffffffffffffffffffff1673ffffffffffffffffffffffffffffffffffffffff168152602001908152602001600020549050919050565b6000601560059054906101000a900473ffffffffffffffffffffffffffffffffffffffff1673ffffffffffffffffffffffffffffffffffffffff16611f95612c1f565b73ffffffffffffffffffffffffffffffffffffffff1614611feb576040517f08c379a0000000000000000000000000000000000000000000000000000000008152600401611fe290614e1d565b60405180910390fd5b6001601360008461ffff1661ffff16815260200190815260200160002060000160068282829054906101000a900461ffff166120279190615333565b92506101000a81548161ffff021916908361ffff16021790555060019050919050565b601560009054906101000a900461ffff1681565b6000601360008361ffff1661ffff16815260200190815260200160002060000160009054906101000a900461ffff169050919050565b60136020528060005260406000206000915090508060000160009054906101000a900461ffff16908060000160029054906101000a900461ffff16908060000160049054906101000a900461ffff16908060000160069054906101000a900461ffff16908060000160089054906101000a900461ffff169080600001600a9054906101000a900461ffff169080600001600c9054906101000a900461ffff169080600001600e9054906101000a900463ffffffff16905088565b7f000000000000000000000000000000000000000000000000000000000000000073ffffffffffffffffffffffffffffffffffffffff163373ffffffffffffffffffffffffffffffffffffffff16146121dc576040517f08c379a00000000000000000000000000000000000000000000000000000000081526004016121d3906150dd565b60405180910390fd5b6121e6828261347e565b5050565b6000601960008361ffff1661ffff16815260200190815260200160002060009054906101000a900460ff169050919050565b60606001805461222b906155a5565b80601f0160208091040260200160405190810160405280929190818152602001828054612257906155a5565b80156122a45780601f10612279576101008083540402835291602001916122a4565b820191906000526020600020905b81548152906001019060200180831161228757829003601f168201915b5050505050905090565b6000601560059054906101000a900473ffffffffffffffffffffffffffffffffffffffff1673ffffffffffffffffffffffffffffffffffffffff166122f1612c1f565b73ffffffffffffffffffffffffffffffffffffffff1614612347576040517f08c379a000000000000000000000000000000000000000000000000000000000815260040161233e90614e1d565b60405180910390fd5b6001601360008461ffff1661ffff16815260200190815260200160002060000160088282829054906101000a900461ffff166123839190615333565b92506101000a81548161ffff021916908361ffff16021790555060019050919050565b601560059054906101000a900473ffffffffffffffffffffffffffffffffffffffff1681565b6123de6123d7612c1f565b83836134d4565b5050565b600b60009054906101000a900473ffffffffffffffffffffffffffffffffffffffff1673ffffffffffffffffffffffffffffffffffffffff16612423612c1f565b73ffffffffffffffffffffffffffffffffffffffff1614612479576040517f08c379a000000000000000000000000000000000000000000000000000000000815260040161247090614e3d565b60405180910390fd5b6001601560046101000a81548160ff021916908315150217905550565b6000601560059054906101000a900473ffffffffffffffffffffffffffffffffffffffff1673ffffffffffffffffffffffffffffffffffffffff166124d9612c1f565b73ffffffffffffffffffffffffffffffffffffffff161461252f576040517f08c379a000000000000000000000000000000000000000000000000000000000815260040161252690614e1d565b60405180910390fd5b814261253b91906153c1565b601360008561ffff1661ffff168152602001908152602001600020600001600e6101000a81548163ffffffff021916908363ffffffff1602179055506001905092915050565b6000601560059054906101000a900473ffffffffffffffffffffffffffffffffffffffff1673ffffffffffffffffffffffffffffffffffffffff166125c4612c1f565b73ffffffffffffffffffffffffffffffffffffffff161461261a576040517f08c379a000000000000000000000000000000000000000000000000000000000815260040161261190614e1d565b60405180910390fd5b8160ff16601360008561ffff1661ffff16815260200190815260200160002060000160028282829054906101000a900461ffff166126589190615333565b92506101000a81548161ffff021916908361ffff1602179055506001905092915050565b61268d612687612c1f565b83612ce0565b6126cc576040517f08c379a00000000000000000000000000000000000000000000000000000000081526004016126c39061511d565b60405180910390fd5b6126d884848484613641565b50505050565b6000601560059054906101000a900473ffffffffffffffffffffffffffffffffffffffff1673ffffffffffffffffffffffffffffffffffffffff16612721612c1f565b73ffffffffffffffffffffffffffffffffffffffff1614612777576040517f08c379a000000000000000000000000000000000000000000000000000000000815260040161276e90614e1d565b60405180910390fd5b8160ff16601360008561ffff1661ffff16815260200190815260200160002060000160008282829054906101000a900461ffff166127b59190615333565b92506101000a81548161ffff021916908361ffff1602179055506001905092915050565b60606127e482612bb3565b612823576040517f08c379a000000000000000000000000000000000000000000000000000000000815260040161281a906150bd565b60405180910390fd5b600061282d61369d565b9050600081511161284d5760405180602001604052806000815250612878565b80612857846136b4565b604051602001612868929190614c0a565b6040516020818303038152906040525b915050919050565b600b60009054906101000a900473ffffffffffffffffffffffffffffffffffffffff1673ffffffffffffffffffffffffffffffffffffffff166128c1612c1f565b73ffffffffffffffffffffffffffffffffffffffff1614612917576040517f08c379a000000000000000000000000000000000000000000000000000000000815260040161290e90614e3d565b60405180910390fd5b80601560056101000a81548173ffffffffffffffffffffffffffffffffffffffff021916908373ffffffffffffffffffffffffffffffffffffffff16021790555050565b606061296a8261ffff16612bb3565b6129a9576040517f08c379a00000000000000000000000000000000000000000000000000000000081526004016129a09061509d565b60405180910390fd5b601560049054906101000a900460ff166129e857600c600f6040516020016129d2929190614c2e565b6040516020818303038152906040529050612a33565b600c600d836040516020016129fd9190614c90565b604051602081830303815290604052600e604051602001612a219493929190614c52565b60405160208183030381529060405290505b919050565b6000600560008473ffffffffffffffffffffffffffffffffffffffff1673ffffffffffffffffffffffffffffffffffffffff16815260200190815260200160002060008373ffffffffffffffffffffffffffffffffffffffff1673ffffffffffffffffffffffffffffffffffffffff16815260200190815260200160002060009054906101000a900460ff16905092915050565b505050565b60007f80ac58cd000000000000000000000000000000000000000000000000000000007bffffffffffffffffffffffffffffffffffffffffffffffffffffffff1916827bffffffffffffffffffffffffffffffffffffffffffffffffffffffff19161480612b9c57507f5b5e139f000000000000000000000000000000000000000000000000000000007bffffffffffffffffffffffffffffffffffffffffffffffffffffffff1916827bffffffffffffffffffffffffffffffffffffffffffffffffffffffff1916145b80612bac5750612bab82613815565b5b9050919050565b60008073ffffffffffffffffffffffffffffffffffffffff166002600084815260200190815260200160002060009054906101000a900473ffffffffffffffffffffffffffffffffffffffff1673ffffffffffffffffffffffffffffffffffffffff1614159050919050565b600033905090565b816004600083815260200190815260200160002060006101000a81548173ffffffffffffffffffffffffffffffffffffffff021916908373ffffffffffffffffffffffffffffffffffffffff160217905550808273ffffffffffffffffffffffffffffffffffffffff16612c9a836117ae565b73ffffffffffffffffffffffffffffffffffffffff167f8c5be1e5ebec7d5bd14f71427d1e84f3dd0314c0f7b2291e5b200ac8c7c3b92560405160405180910390a45050565b6000612ceb82612bb3565b612d2a576040517f08c379a0000000000000000000000000000000000000000000000000000000008152600401612d2190614f9d565b60405180910390fd5b6000612d35836117ae565b90508073ffffffffffffffffffffffffffffffffffffffff168473ffffffffffffffffffffffffffffffffffffffff161480612da457508373ffffffffffffffffffffffffffffffffffffffff16612d8c84610ef7565b73ffffffffffffffffffffffffffffffffffffffff16145b80612db55750612db48185612a38565b5b91505092915050565b8273ffffffffffffffffffffffffffffffffffffffff16612dde826117ae565b73ffffffffffffffffffffffffffffffffffffffff1614612e34576040517f08c379a0000000000000000000000000000000000000000000000000000000008152600401612e2b90614e9d565b60405180910390fd5b600073ffffffffffffffffffffffffffffffffffffffff168273ffffffffffffffffffffffffffffffffffffffff161415612ea4576040517f08c379a0000000000000000000000000000000000000000000000000000000008152600401612e9b90614f3d565b60405180910390fd5b612eaf83838361387f565b612eba600082612c27565b6001600360008573ffffffffffffffffffffffffffffffffffffffff1673ffffffffffffffffffffffffffffffffffffffff1681526020019081526020016000206000828254612f0a9190615486565b925050819055506001600360008473ffffffffffffffffffffffffffffffffffffffff1673ffffffffffffffffffffffffffffffffffffffff1681526020019081526020016000206000828254612f61919061536b565b92505081905550816002600083815260200190815260200160002060006101000a81548173ffffffffffffffffffffffffffffffffffffffff021916908373ffffffffffffffffffffffffffffffffffffffff160217905550808273ffffffffffffffffffffffffffffffffffffffff168473ffffffffffffffffffffffffffffffffffffffff167fddf252ad1be2c89b69c2b068fc378daa952ba7f163c4a11628f55a4df523b3ef60405160405180910390a4613020838383613993565b505050565b6000600a8460ff16111561306e576040517f08c379a000000000000000000000000000000000000000000000000000000000815260040161306590614edd565b60405180910390fd5b60006130818560ff168461ffff166130f8565b905080156130de5760008061309d8760ff168661ffff16613998565b915091508060ff166002876130b2919061542c565b6130bc919061542c565b8260ff16876130cb919061542c565b6130d5919061536b565b935050506130f0565b8460ff16846130ed919061542c565b91505b509392505050565b60006103e88383613109919061536b565b1015613118576000905061315b565b60006103e88484613129919061536b565b61313391906156cc565b9050600081101580156131465750600a81105b1561315557600191505061315b565b60009150505b92915050565b6000600182901b90507f18d394ba347d8c318a1db51c85288b956d598b2925be44758ee6f2edb9e2a06b816040516131999190615216565b60405180910390a1919050565b600073ffffffffffffffffffffffffffffffffffffffff168273ffffffffffffffffffffffffffffffffffffffff161415613216576040517f08c379a000000000000000000000000000000000000000000000000000000000815260040161320d9061505d565b60405180910390fd5b61321f81612bb3565b1561325f576040517f08c379a000000000000000000000000000000000000000000000000000000000815260040161325690614ebd565b60405180910390fd5b61326b6000838361387f565b6001600360008473ffffffffffffffffffffffffffffffffffffffff1673ffffffffffffffffffffffffffffffffffffffff16815260200190815260200160002060008282546132bb919061536b565b92505081905550816002600083815260200190815260200160002060006101000a81548173ffffffffffffffffffffffffffffffffffffffff021916908373ffffffffffffffffffffffffffffffffffffffff160217905550808273ffffffffffffffffffffffffffffffffffffffff16600073ffffffffffffffffffffffffffffffffffffffff167fddf252ad1be2c89b69c2b068fc378daa952ba7f163c4a11628f55a4df523b3ef60405160405180910390a461337c60008383613993565b5050565b6012547f000000000000000000000000000000000000000000000000000000000000000073ffffffffffffffffffffffffffffffffffffffff166370a08231306040518263ffffffff1660e01b81526004016133dc9190614cab565b60206040518083038186803b1580156133f457600080fd5b505afa158015613408573d6000803e3d6000fd5b505050506040513d601f19601f8201168201806040525081019061342c919061458d565b101561346d576040517f08c379a00000000000000000000000000000000000000000000000000000000081526004016134649061513d565b60405180910390fd5b61347b601154601254613a01565b50565b60006127108261348e91906156cc565b90507fb75047a36befaef84e90ca4c55f0673352e2942c569d5726c6cf463a043903f26134ba826117ae565b6040516134c79190614cab565b60405180910390a1505050565b8173ffffffffffffffffffffffffffffffffffffffff168373ffffffffffffffffffffffffffffffffffffffff161415613543576040517f08c379a000000000000000000000000000000000000000000000000000000000815260040161353a90614f5d565b60405180910390fd5b80600560008573ffffffffffffffffffffffffffffffffffffffff1673ffffffffffffffffffffffffffffffffffffffff16815260200190815260200160002060008473ffffffffffffffffffffffffffffffffffffffff1673ffffffffffffffffffffffffffffffffffffffff16815260200190815260200160002060006101000a81548160ff0219169083151502179055508173ffffffffffffffffffffffffffffffffffffffff168373ffffffffffffffffffffffffffffffffffffffff167f17307eab39ab6107e8899845ad3d59bd9653f200f220920489ca2b5937696c31836040516136349190614d72565b60405180910390a3505050565b61364c848484612dbe565b61365884848484613b63565b613697576040517f08c379a000000000000000000000000000000000000000000000000000000000815260040161368e90614e7d565b60405180910390fd5b50505050565b606060405180602001604052806000815250905090565b606060008214156136fc576040518060400160405280600181526020017f30000000000000000000000000000000000000000000000000000000000000008152509050613810565b600082905060005b6000821461372e57808061371790615633565b915050600a8261372791906153fb565b9150613704565b60008167ffffffffffffffff81111561374a576137496157e8565b5b6040519080825280601f01601f19166020018201604052801561377c5781602001600182028036833780820191505090505b5090505b60008514613809576001826137959190615486565b9150600a856137a491906156cc565b60306137b0919061536b565b60f81b8183815181106137c6576137c56157b9565b5b60200101907effffffffffffffffffffffffffffffffffffffffffffffffffffffffffffff1916908160001a905350600a8561380291906153fb565b9450613780565b8093505050505b919050565b60007f01ffc9a7000000000000000000000000000000000000000000000000000000007bffffffffffffffffffffffffffffffffffffffffffffffffffffffff1916827bffffffffffffffffffffffffffffffffffffffffffffffffffffffff1916149050919050565b61388a838383612acc565b600073ffffffffffffffffffffffffffffffffffffffff168373ffffffffffffffffffffffffffffffffffffffff1614156138cd576138c881613cfa565b61390c565b8173ffffffffffffffffffffffffffffffffffffffff168373ffffffffffffffffffffffffffffffffffffffff161461390b5761390a8382613d43565b5b5b600073ffffffffffffffffffffffffffffffffffffffff168273ffffffffffffffffffffffffffffffffffffffff16141561394f5761394a81613eb0565b61398e565b8273ffffffffffffffffffffffffffffffffffffffff168273ffffffffffffffffffffffffffffffffffffffff161461398d5761398c8282613f81565b5b5b505050565b505050565b60008060005b848110156139f9576139bc6001826139b6919061536b565b856130f8565b156139e6576001816139ce919061536b565b92508260ff16856139df9190615486565b91506139f9565b80806139f190615633565b91505061399e565b509250929050565b60007f000000000000000000000000000000000000000000000000000000000000000073ffffffffffffffffffffffffffffffffffffffff16634000aea07f000000000000000000000000000000000000000000000000000000000000000084866000604051602001613a75929190614d8d565b6040516020818303038152906040526040518463ffffffff1660e01b8152600401613aa293929190614d12565b602060405180830381600087803b158015613abc57600080fd5b505af1158015613ad0573d6000803e3d6000fd5b505050506040513d601f19601f82011682018060405250810190613af491906143ec565b506000613b1784600030600a600089815260200190815260200160002054614000565b90506001600a600086815260200190815260200160002054613b39919061536b565b600a600086815260200190815260200160002081905550613b5a848261403c565b91505092915050565b6000613b848473ffffffffffffffffffffffffffffffffffffffff1661406f565b15613ced578373ffffffffffffffffffffffffffffffffffffffff1663150b7a02613bad612c1f565b8786866040518563ffffffff1660e01b8152600401613bcf9493929190614cc6565b602060405180830381600087803b158015613be957600080fd5b505af1925050508015613c1a57506040513d601f19601f82011682018060405250810190613c179190614486565b60015b613c9d573d8060008114613c4a576040519150601f19603f3d011682016040523d82523d6000602084013e613c4f565b606091505b50600081511415613c95576040517f08c379a0000000000000000000000000000000000000000000000000000000008152600401613c8c90614e7d565b60405180910390fd5b805181602001fd5b63150b7a0260e01b7bffffffffffffffffffffffffffffffffffffffffffffffffffffffff1916817bffffffffffffffffffffffffffffffffffffffffffffffffffffffff191614915050613cf2565b600190505b949350505050565b6008805490506009600083815260200190815260200160002081905550600881908060018154018082558091505060019003906000526020600020016000909190919091505550565b60006001613d5084611e9a565b613d5a9190615486565b9050600060076000848152602001908152602001600020549050818114613e3f576000600660008673ffffffffffffffffffffffffffffffffffffffff1673ffffffffffffffffffffffffffffffffffffffff168152602001908152602001600020600084815260200190815260200160002054905080600660008773ffffffffffffffffffffffffffffffffffffffff1673ffffffffffffffffffffffffffffffffffffffff168152602001908152602001600020600084815260200190815260200160002081905550816007600083815260200190815260200160002081905550505b6007600084815260200190815260200160002060009055600660008573ffffffffffffffffffffffffffffffffffffffff1673ffffffffffffffffffffffffffffffffffffffff16815260200190815260200160002060008381526020019081526020016000206000905550505050565b60006001600880549050613ec49190615486565b9050600060096000848152602001908152602001600020549050600060088381548110613ef457613ef36157b9565b5b906000526020600020015490508060088381548110613f1657613f156157b9565b5b906000526020600020018190555081600960008381526020019081526020016000208190555060096000858152602001908152602001600020600090556008805480613f6557613f6461578a565b5b6001900381819060005260206000200160009055905550505050565b6000613f8c83611e9a565b905081600660008573ffffffffffffffffffffffffffffffffffffffff1673ffffffffffffffffffffffffffffffffffffffff168152602001908152602001600020600083815260200190815260200160002081905550806007600084815260200190815260200160002081905550505050565b6000848484846040516020016140199493929190614db6565b6040516020818303038152906040528051906020012060001c9050949350505050565b60008282604051602001614051929190614bde565b60405160208183030381529060405280519060200120905092915050565b6000808273ffffffffffffffffffffffffffffffffffffffff163b119050919050565b60006140a56140a084615271565b61524c565b9050828152602081018484840111156140c1576140c061581c565b5b6140cc848285615563565b509392505050565b6000813590506140e381615e8a565b92915050565b6000813590506140f881615ea1565b92915050565b60008151905061410d81615ea1565b92915050565b60008135905061412281615eb8565b92915050565b60008135905061413781615ecf565b92915050565b60008151905061414c81615ecf565b92915050565b600082601f83011261416757614166615817565b5b8135614177848260208601614092565b91505092915050565b60008135905061418f81615ee6565b92915050565b6000813590506141a481615efd565b92915050565b6000815190506141b981615efd565b92915050565b6000813590506141ce81615f14565b92915050565b6000813590506141e381615f2b565b92915050565b6000602082840312156141ff576141fe615826565b5b600061420d848285016140d4565b91505092915050565b6000806040838503121561422d5761422c615826565b5b600061423b858286016140d4565b925050602061424c858286016140d4565b9150509250929050565b60008060006060848603121561426f5761426e615826565b5b600061427d868287016140d4565b935050602061428e868287016140d4565b925050604061429f86828701614195565b9150509250925092565b600080600080608085870312156142c3576142c2615826565b5b60006142d1878288016140d4565b94505060206142e2878288016140d4565b93505060406142f387828801614195565b925050606085013567ffffffffffffffff81111561431457614313615821565b5b61432087828801614152565b91505092959194509250565b6000806040838503121561434357614342615826565b5b6000614351858286016140d4565b9250506020614362858286016140e9565b9150509250929050565b6000806040838503121561438357614382615826565b5b6000614391858286016140d4565b92505060206143a285828601614195565b9150509250929050565b600080604083850312156143c3576143c2615826565b5b60006143d1858286016140d4565b92505060206143e2858286016141d4565b9150509250929050565b60006020828403121561440257614401615826565b5b6000614410848285016140fe565b91505092915050565b600080604083850312156144305761442f615826565b5b600061443e85828601614113565b925050602061444f85828601614195565b9150509250929050565b60006020828403121561446f5761446e615826565b5b600061447d84828501614128565b91505092915050565b60006020828403121561449c5761449b615826565b5b60006144aa8482850161413d565b91505092915050565b6000602082840312156144c9576144c8615826565b5b60006144d784828501614180565b91505092915050565b600080604083850312156144f7576144f6615826565b5b600061450585828601614180565b9250506020614516858286016141bf565b9150509250929050565b6000806040838503121561453757614536615826565b5b600061454585828601614180565b9250506020614556858286016141d4565b9150509250929050565b60006020828403121561457657614575615826565b5b600061458484828501614195565b91505092915050565b6000602082840312156145a3576145a2615826565b5b60006145b1848285016141aa565b91505092915050565b6000602082840312156145d0576145cf615826565b5b60006145de848285016141d4565b91505092915050565b60006145f38383614b74565b60208301905092915050565b614608816154ba565b82525050565b6000614619826152c7565b61462381856152f5565b935061462e836152a2565b8060005b8381101561465f57815161464688826145e7565b9750614651836152e8565b925050600181019050614632565b5085935050505092915050565b614675816154cc565b82525050565b614684816154d8565b82525050565b61469b614696826154d8565b6156a6565b82525050565b60006146ac826152d2565b6146b68185615306565b93506146c6818560208601615572565b6146cf8161582b565b840191505092915050565b60006146e5826152dd565b6146ef8185615317565b93506146ff818560208601615572565b6147088161582b565b840191505092915050565b600061471e826152dd565b6147288185615328565b9350614738818560208601615572565b80840191505092915050565b60008154614751816155a5565b61475b8186615328565b945060018216600081146147765760018114614787576147ba565b60ff198316865281860193506147ba565b614790856152b2565b60005b838110156147b257815481890152600182019150602081019050614793565b838801955050505b50505092915050565b60006147d0600783615317565b91506147db82615849565b602082019050919050565b60006147f3600683615317565b91506147fe82615872565b602082019050919050565b6000614816602b83615317565b91506148218261589b565b604082019050919050565b6000614839603283615317565b9150614844826158ea565b604082019050919050565b600061485c602583615317565b915061486782615939565b604082019050919050565b600061487f601c83615317565b915061488a82615988565b602082019050919050565b60006148a2600d83615317565b91506148ad826159b1565b602082019050919050565b60006148c5600a83615317565b91506148d0826159da565b602082019050919050565b60006148e8600d83615317565b91506148f382615a03565b602082019050919050565b600061490b602483615317565b915061491682615a2c565b604082019050919050565b600061492e601983615317565b915061493982615a7b565b602082019050919050565b6000614951600f83615317565b915061495c82615aa4565b602082019050919050565b6000614974602c83615317565b915061497f82615acd565b604082019050919050565b6000614997601983615317565b91506149a282615b1c565b602082019050919050565b60006149ba600c83615317565b91506149c582615b45565b602082019050919050565b60006149dd603883615317565b91506149e882615b6e565b604082019050919050565b6000614a00602a83615317565b9150614a0b82615bbd565b604082019050919050565b6000614a23602983615317565b9150614a2e82615c0c565b604082019050919050565b6000614a46602083615317565b9150614a5182615c5b565b602082019050919050565b6000614a69602c83615317565b9150614a7482615c84565b604082019050919050565b6000614a8c600d83615317565b9150614a9782615cd3565b602082019050919050565b6000614aaf602f83615317565b9150614aba82615cfc565b604082019050919050565b6000614ad2601f83615317565b9150614add82615d4b565b602082019050919050565b6000614af5602183615317565b9150614b0082615d74565b604082019050919050565b6000614b18603183615317565b9150614b2382615dc3565b604082019050919050565b6000614b3b600d83615317565b9150614b4682615e12565b602082019050919050565b6000614b5e602c83615317565b9150614b6982615e3b565b604082019050919050565b614b7d8161550e565b82525050565b614b8c8161550e565b82525050565b614ba3614b9e8261550e565b6156b0565b82525050565b614bb28161553c565b82525050565b614bc9614bc48261553c565b6156c2565b82525050565b614bd881615546565b82525050565b6000614bea828561468a565b602082019150614bfa8284614bb8565b6020820191508190509392505050565b6000614c168285614713565b9150614c228284614713565b91508190509392505050565b6000614c3a8285614744565b9150614c468284614744565b91508190509392505050565b6000614c5e8287614744565b9150614c6a8286614744565b9150614c768285614713565b9150614c828284614744565b915081905095945050505050565b6000614c9c8284614b92565b60028201915081905092915050565b6000602082019050614cc060008301846145ff565b92915050565b6000608082019050614cdb60008301876145ff565b614ce860208301866145ff565b614cf56040830185614ba9565b8181036060830152614d0781846146a1565b905095945050505050565b6000606082019050614d2760008301866145ff565b614d346020830185614ba9565b8181036040830152614d4681846146a1565b9050949350505050565b60006020820190508181036000830152614d6a818461460e565b905092915050565b6000602082019050614d87600083018461466c565b92915050565b6000604082019050614da2600083018561467b565b614daf6020830184614ba9565b9392505050565b6000608082019050614dcb600083018761467b565b614dd86020830186614ba9565b614de560408301856145ff565b614df26060830184614ba9565b95945050505050565b60006020820190508181036000830152614e1581846146da565b905092915050565b60006020820190508181036000830152614e36816147c3565b9050919050565b60006020820190508181036000830152614e56816147e6565b9050919050565b60006020820190508181036000830152614e7681614809565b9050919050565b60006020820190508181036000830152614e968161482c565b9050919050565b60006020820190508181036000830152614eb68161484f565b9050919050565b60006020820190508181036000830152614ed681614872565b9050919050565b60006020820190508181036000830152614ef681614895565b9050919050565b60006020820190508181036000830152614f16816148b8565b9050919050565b60006020820190508181036000830152614f36816148db565b9050919050565b60006020820190508181036000830152614f56816148fe565b9050919050565b60006020820190508181036000830152614f7681614921565b9050919050565b60006020820190508181036000830152614f9681614944565b9050919050565b60006020820190508181036000830152614fb681614967565b9050919050565b60006020820190508181036000830152614fd68161498a565b9050919050565b60006020820190508181036000830152614ff6816149ad565b9050919050565b60006020820190508181036000830152615016816149d0565b9050919050565b60006020820190508181036000830152615036816149f3565b9050919050565b6000602082019050818103600083015261505681614a16565b9050919050565b6000602082019050818103600083015261507681614a39565b9050919050565b6000602082019050818103600083015261509681614a5c565b9050919050565b600060208201905081810360008301526150b681614a7f565b9050919050565b600060208201905081810360008301526150d681614aa2565b9050919050565b600060208201905081810360008301526150f681614ac5565b9050919050565b6000602082019050818103600083015261511681614ae8565b9050919050565b6000602082019050818103600083015261513681614b0b565b9050919050565b6000602082019050818103600083015261515681614b2e565b9050919050565b6000602082019050818103600083015261517681614b51565b9050919050565b60006020820190506151926000830184614b83565b92915050565b6000610100820190506151ae600083018b614b83565b6151bb602083018a614b83565b6151c86040830189614b83565b6151d56060830188614b83565b6151e26080830187614b83565b6151ef60a0830186614b83565b6151fc60c0830185614b83565b61520960e0830184614bcf565b9998505050505050505050565b600060208201905061522b6000830184614ba9565b92915050565b60006020820190506152466000830184614bcf565b92915050565b6000615256615267565b905061526282826155d7565b919050565b6000604051905090565b600067ffffffffffffffff82111561528c5761528b6157e8565b5b6152958261582b565b9050602081019050919050565b6000819050602082019050919050565b60008190508160005260206000209050919050565b600081519050919050565b600081519050919050565b600081519050919050565b6000602082019050919050565b600082825260208201905092915050565b600082825260208201905092915050565b600082825260208201905092915050565b600081905092915050565b600061533e8261550e565b91506153498361550e565b92508261ffff038211156153605761535f6156fd565b5b828201905092915050565b60006153768261553c565b91506153818361553c565b9250827fffffffffffffffffffffffffffffffffffffffffffffffffffffffffffffffff038211156153b6576153b56156fd565b5b828201905092915050565b60006153cc82615546565b91506153d783615546565b92508263ffffffff038211156153f0576153ef6156fd565b5b828201905092915050565b60006154068261553c565b91506154118361553c565b9250826154215761542061572c565b5b828204905092915050565b60006154378261553c565b91506154428361553c565b9250817fffffffffffffffffffffffffffffffffffffffffffffffffffffffffffffffff048311821515161561547b5761547a6156fd565b5b828202905092915050565b60006154918261553c565b915061549c8361553c565b9250828210156154af576154ae6156fd565b5b828203905092915050565b60006154c58261551c565b9050919050565b60008115159050919050565b6000819050919050565b60007fffffffff0000000000000000000000000000000000000000000000000000000082169050919050565b600061ffff82169050919050565b600073ffffffffffffffffffffffffffffffffffffffff82169050919050565b6000819050919050565b600063ffffffff82169050919050565b600060ff82169050919050565b82818337600083830152505050565b60005b83811015615590578082015181840152602081019050615575565b8381111561559f576000848401525b50505050565b600060028204905060018216806155bd57607f821691505b602082108114156155d1576155d061575b565b5b50919050565b6155e08261582b565b810181811067ffffffffffffffff821117156155ff576155fe6157e8565b5b80604052505050565b60006156138261550e565b915061ffff821415615628576156276156fd565b5b600182019050919050565b600061563e8261553c565b91507fffffffffffffffffffffffffffffffffffffffffffffffffffffffffffffffff821415615671576156706156fd565b5b600182019050919050565b600061568782615556565b915060ff82141561569b5761569a6156fd565b5b600182019050919050565b6000819050919050565b60006156bb8261583c565b9050919050565b6000819050919050565b60006156d78261553c565b91506156e28361553c565b9250826156f2576156f161572c565b5b828206905092915050565b7f4e487b7100000000000000000000000000000000000000000000000000000000600052601160045260246000fd5b7f4e487b7100000000000000000000000000000000000000000000000000000000600052601260045260246000fd5b7f4e487b7100000000000000000000000000000000000000000000000000000000600052602260045260246000fd5b7f4e487b7100000000000000000000000000000000000000000000000000000000600052603160045260246000fd5b7f4e487b7100000000000000000000000000000000000000000000000000000000600052603260045260246000fd5b7f4e487b7100000000000000000000000000000000000000000000000000000000600052604160045260246000fd5b600080fd5b600080fd5b600080fd5b600080fd5b6000601f19601f8301169050919050565b60008160f01b9050919050565b7f4572723a20474300000000000000000000000000000000000000000000000000600082015250565b7f4572723a20410000000000000000000000000000000000000000000000000000600082015250565b7f455243373231456e756d657261626c653a206f776e657220696e646578206f7560008201527f74206f6620626f756e6473000000000000000000000000000000000000000000602082015250565b7f4552433732313a207472616e7366657220746f206e6f6e20455243373231526560008201527f63656976657220696d706c656d656e7465720000000000000000000000000000602082015250565b7f4552433732313a207472616e736665722066726f6d20696e636f72726563742060008201527f6f776e6572000000000000000000000000000000000000000000000000000000602082015250565b7f4552433732313a20746f6b656e20616c7265616479206d696e74656400000000600082015250565b7f4572723a20546f6f206869676800000000000000000000000000000000000000600082015250565b7f4572723a2046756e647300000000000000000000000000000000000000000000600082015250565b7f4572723a204d696e74204d617800000000000000000000000000000000000000600082015250565b7f4552433732313a207472616e7366657220746f20746865207a65726f2061646460008201527f7265737300000000000000000000000000000000000000000000000000000000602082015250565b7f4552433732313a20617070726f766520746f2063616c6c657200000000000000600082015250565b7f4572723a204e6f74204163746976650000000000000000000000000000000000600082015250565b7f4552433732313a206f70657261746f7220717565727920666f72206e6f6e657860008201527f697374656e7420746f6b656e0000000000000000000000000000000000000000602082015250565b7f4572723a20496e73756666696369656e742042616c616e636500000000000000600082015250565b7f4572723a20486974204361700000000000000000000000000000000000000000600082015250565b7f4552433732313a20617070726f76652063616c6c6572206973206e6f74206f7760008201527f6e6572206e6f7220617070726f76656420666f7220616c6c0000000000000000602082015250565b7f4552433732313a2062616c616e636520717565727920666f7220746865207a6560008201527f726f206164647265737300000000000000000000000000000000000000000000602082015250565b7f4552433732313a206f776e657220717565727920666f72206e6f6e657869737460008201527f656e7420746f6b656e0000000000000000000000000000000000000000000000602082015250565b7f4552433732313a206d696e7420746f20746865207a65726f2061646472657373600082015250565b7f4552433732313a20617070726f76656420717565727920666f72206e6f6e657860008201527f697374656e7420746f6b656e0000000000000000000000000000000000000000602082015250565b7f446f65736e277420457869737400000000000000000000000000000000000000600082015250565b7f4552433732314d657461646174613a2055524920717565727920666f72206e6f60008201527f6e6578697374656e7420746f6b656e0000000000000000000000000000000000602082015250565b7f4f6e6c7920565246436f6f7264696e61746f722063616e2066756c66696c6c00600082015250565b7f4552433732313a20617070726f76616c20746f2063757272656e74206f776e6560008201527f7200000000000000000000000000000000000000000000000000000000000000602082015250565b7f4552433732313a207472616e736665722063616c6c6572206973206e6f74206f60008201527f776e6572206e6f7220617070726f766564000000000000000000000000000000602082015250565b7f4572723a204c696e6b2042616c00000000000000000000000000000000000000600082015250565b7f455243373231456e756d657261626c653a20676c6f62616c20696e646578206f60008201527f7574206f6620626f756e64730000000000000000000000000000000000000000602082015250565b615e93816154ba565b8114615e9e57600080fd5b50565b615eaa816154cc565b8114615eb557600080fd5b50565b615ec1816154d8565b8114615ecc57600080fd5b50565b615ed8816154e2565b8114615ee357600080fd5b50565b615eef8161550e565b8114615efa57600080fd5b50565b615f068161553c565b8114615f1157600080fd5b50565b615f1d81615546565b8114615f2857600080fd5b50565b615f3481615556565b8114615f3f57600080fd5b5056fea2646970667358221220149c2742ba6182bf3603844e23536baefdcc32129cd1c2f753658ddfd690e69b64736f6c63430008070033",
  "linkReferences": {},
  "deployedLinkReferences": {}
}