{
  "_format": "hh-sol-artifact-1",
  "contractName": "Minter",
  "sourceName": "contracts/minter.sol",
  "abi": [
    {
      "inputs": [
        {
          "internalType": "address[]",
          "name": "_rewardedAddresses",
          "type": "address[]"
        },
        {
          "internalType": "address[]",
          "name": "_paymentsTo",
          "type": "address[]"
        },
        {
          "internalType": "address",
          "name": "_vrfCoordinator",
          "type": "address"
        },
        {
          "internalType": "address",
          "name": "_linkToken",
          "type": "address"
        },
        {
          "internalType": "bytes32",
          "name": "_keyHash",
          "type": "bytes32"
        },
        {
          "internalType": "uint256",
          "name": "_OracleFee",
          "type": "uint256"
        },
        {
          "internalType": "uint256",
          "name": "_distance",
          "type": "uint256"
        }
      ],
      "stateMutability": "nonpayable",
      "type": "constructor"
    },
    {
      "anonymous": false,
      "inputs": [
        {
          "indexed": true,
          "internalType": "address",
          "name": "owner",
          "type": "address"
        },
        {
          "indexed": true,
          "internalType": "address",
          "name": "approved",
          "type": "address"
        },
        {
          "indexed": true,
          "internalType": "uint256",
          "name": "tokenId",
          "type": "uint256"
        }
      ],
      "name": "Approval",
      "type": "event"
    },
    {
      "anonymous": false,
      "inputs": [
        {
          "indexed": true,
          "internalType": "address",
          "name": "owner",
          "type": "address"
        },
        {
          "indexed": true,
          "internalType": "address",
          "name": "operator",
          "type": "address"
        },
        {
          "indexed": false,
          "internalType": "bool",
          "name": "approved",
          "type": "bool"
        }
      ],
      "name": "ApprovalForAll",
      "type": "event"
    },
    {
      "anonymous": false,
      "inputs": [
        {
          "indexed": false,
          "internalType": "address",
          "name": "to",
          "type": "address"
        },
        {
          "indexed": false,
          "internalType": "uint16",
          "name": "tokenId",
          "type": "uint16"
        }
      ],
      "name": "Mint",
      "type": "event"
    },
    {
      "anonymous": false,
      "inputs": [
        {
          "indexed": false,
          "internalType": "address",
          "name": "newAdmin",
          "type": "address"
        }
      ],
      "name": "NewAdmin",
      "type": "event"
    },
    {
      "anonymous": false,
      "inputs": [
        {
          "indexed": false,
          "internalType": "address",
          "name": "gameContract",
          "type": "address"
        }
      ],
      "name": "NewGameContract",
      "type": "event"
    },
    {
      "anonymous": false,
      "inputs": [
        {
          "indexed": false,
          "internalType": "address",
          "name": "winner",
          "type": "address"
        }
      ],
      "name": "PorscheWinner",
      "type": "event"
    },
    {
      "anonymous": false,
      "inputs": [
        {
          "indexed": false,
          "internalType": "uint256",
          "name": "newPrice",
          "type": "uint256"
        }
      ],
      "name": "PriceIncrease",
      "type": "event"
    },
    {
      "anonymous": false,
      "inputs": [
        {
          "indexed": false,
          "internalType": "string",
          "name": "message",
          "type": "string"
        }
      ],
      "name": "SoldOut",
      "type": "event"
    },
    {
      "anonymous": false,
      "inputs": [
        {
          "indexed": false,
          "internalType": "uint16",
          "name": "tokenId",
          "type": "uint16"
        },
        {
          "components": [
            {
              "internalType": "uint16",
              "name": "speed",
              "type": "uint16"
            },
            {
              "internalType": "uint16",
              "name": "strength",
              "type": "uint16"
            },
            {
              "internalType": "uint16",
              "name": "agressiveness",
              "type": "uint16"
            },
            {
              "internalType": "uint16",
              "name": "fightsWon",
              "type": "uint16"
            },
            {
              "internalType": "uint16",
              "name": "quickPlayRacesWon",
              "type": "uint16"
            },
            {
              "internalType": "uint16",
              "name": "compRacesWon",
              "type": "uint16"
            },
            {
              "internalType": "uint16",
              "name": "deathRacesWon",
              "type": "uint16"
            },
            {
              "internalType": "uint16",
              "name": "totalRacesTop3Finish",
              "type": "uint16"
            },
            {
              "internalType": "uint32",
              "name": "cooldownTime",
              "type": "uint32"
            }
          ],
          "indexed": false,
          "internalType": "struct Stats",
          "name": "stats",
          "type": "tuple"
        }
      ],
      "name": "StatsUpdated",
      "type": "event"
    },
    {
      "anonymous": false,
      "inputs": [
        {
          "indexed": true,
          "internalType": "address",
          "name": "from",
          "type": "address"
        },
        {
          "indexed": true,
          "internalType": "address",
          "name": "to",
          "type": "address"
        },
        {
          "indexed": true,
          "internalType": "uint256",
          "name": "tokenId",
          "type": "uint256"
        }
      ],
      "name": "Transfer",
      "type": "event"
    },
    {
      "inputs": [],
      "name": "active",
      "outputs": [
        {
          "internalType": "bool",
          "name": "",
          "type": "bool"
        }
      ],
      "stateMutability": "view",
      "type": "function"
    },
    {
      "inputs": [],
      "name": "admin",
      "outputs": [
        {
          "internalType": "address",
          "name": "",
          "type": "address"
        }
      ],
      "stateMutability": "view",
      "type": "function"
    },
    {
      "inputs": [
        {
          "internalType": "address",
          "name": "to",
          "type": "address"
        },
        {
          "internalType": "uint256",
          "name": "tokenId",
          "type": "uint256"
        }
      ],
      "name": "approve",
      "outputs": [],
      "stateMutability": "nonpayable",
      "type": "function"
    },
    {
      "inputs": [
        {
          "internalType": "address",
          "name": "owner",
          "type": "address"
        }
      ],
      "name": "balanceOf",
      "outputs": [
        {
          "internalType": "uint256",
          "name": "",
          "type": "uint256"
        }
      ],
      "stateMutability": "view",
      "type": "function"
    },
    {
      "inputs": [],
      "name": "flipSaleState",
      "outputs": [],
      "stateMutability": "nonpayable",
      "type": "function"
    },
    {
      "inputs": [
        {
          "internalType": "uint16",
          "name": "_raptor",
          "type": "uint16"
        }
      ],
      "name": "getAgressiveness",
      "outputs": [
        {
          "internalType": "uint16",
          "name": "",
          "type": "uint16"
        }
      ],
      "stateMutability": "view",
      "type": "function"
    },
    {
      "inputs": [
        {
          "internalType": "uint256",
          "name": "tokenId",
          "type": "uint256"
        }
      ],
      "name": "getApproved",
      "outputs": [
        {
          "internalType": "address",
          "name": "",
          "type": "address"
        }
      ],
      "stateMutability": "view",
      "type": "function"
    },
    {
      "inputs": [
        {
          "internalType": "uint16",
          "name": "_raptor",
          "type": "uint16"
        }
      ],
      "name": "getCoolDown",
      "outputs": [
        {
          "internalType": "uint32",
          "name": "time",
          "type": "uint32"
        }
      ],
      "stateMutability": "view",
      "type": "function"
    },
    {
      "inputs": [
        {
          "internalType": "uint8",
          "name": "_amount",
          "type": "uint8"
        }
      ],
      "name": "getPrice",
      "outputs": [
        {
          "internalType": "uint256",
          "name": "givenPrice",
          "type": "uint256"
        }
      ],
      "stateMutability": "view",
      "type": "function"
    },
    {
      "inputs": [
        {
          "internalType": "uint16",
          "name": "_raptor",
          "type": "uint16"
        }
      ],
      "name": "getSpeed",
      "outputs": [
        {
          "internalType": "uint16",
          "name": "",
          "type": "uint16"
        }
      ],
      "stateMutability": "view",
      "type": "function"
    },
    {
      "inputs": [
        {
          "internalType": "uint16",
          "name": "_raptor",
          "type": "uint16"
        }
      ],
      "name": "getStrength",
      "outputs": [
        {
          "internalType": "uint16",
          "name": "",
          "type": "uint16"
        }
      ],
      "stateMutability": "view",
      "type": "function"
    },
    {
      "inputs": [],
      "name": "getTotalMinted",
      "outputs": [
        {
          "internalType": "uint16",
          "name": "total",
          "type": "uint16"
        }
      ],
      "stateMutability": "view",
      "type": "function"
    },
    {
      "inputs": [
        {
          "internalType": "uint16",
          "name": "_raptor",
          "type": "uint16"
        }
      ],
      "name": "increaseCooldownTime",
      "outputs": [
        {
          "internalType": "bool",
          "name": "",
          "type": "bool"
        }
      ],
      "stateMutability": "nonpayable",
      "type": "function"
    },
    {
      "inputs": [
        {
          "internalType": "address",
          "name": "owner",
          "type": "address"
        },
        {
          "internalType": "address",
          "name": "operator",
          "type": "address"
        }
      ],
      "name": "isApprovedForAll",
      "outputs": [
        {
          "internalType": "bool",
          "name": "",
          "type": "bool"
        }
      ],
      "stateMutability": "view",
      "type": "function"
    },
    {
      "inputs": [
        {
          "internalType": "uint8",
          "name": "_amount",
          "type": "uint8"
        }
      ],
      "name": "mint",
      "outputs": [],
      "stateMutability": "payable",
      "type": "function"
    },
    {
      "inputs": [],
      "name": "name",
      "outputs": [
        {
          "internalType": "string",
          "name": "",
          "type": "string"
        }
      ],
      "stateMutability": "view",
      "type": "function"
    },
    {
      "inputs": [
        {
          "internalType": "uint256",
          "name": "tokenId",
          "type": "uint256"
        }
      ],
      "name": "ownerOf",
      "outputs": [
        {
          "internalType": "address",
          "name": "",
          "type": "address"
        }
      ],
      "stateMutability": "view",
      "type": "function"
    },
    {
      "inputs": [
        {
          "internalType": "uint256",
          "name": "",
          "type": "uint256"
        }
      ],
      "name": "paymentsTo",
      "outputs": [
        {
          "internalType": "address",
          "name": "",
          "type": "address"
        }
      ],
      "stateMutability": "view",
      "type": "function"
    },
    {
      "inputs": [
        {
          "internalType": "uint16",
          "name": "",
          "type": "uint16"
        }
      ],
      "name": "raptorStats",
      "outputs": [
        {
          "internalType": "uint16",
          "name": "speed",
          "type": "uint16"
        },
        {
          "internalType": "uint16",
          "name": "strength",
          "type": "uint16"
        },
        {
          "internalType": "uint16",
          "name": "agressiveness",
          "type": "uint16"
        },
        {
          "internalType": "uint16",
          "name": "fightsWon",
          "type": "uint16"
        },
        {
          "internalType": "uint16",
          "name": "quickPlayRacesWon",
          "type": "uint16"
        },
        {
          "internalType": "uint16",
          "name": "compRacesWon",
          "type": "uint16"
        },
        {
          "internalType": "uint16",
          "name": "deathRacesWon",
          "type": "uint16"
        },
        {
          "internalType": "uint16",
          "name": "totalRacesTop3Finish",
          "type": "uint16"
        },
        {
          "internalType": "uint32",
          "name": "cooldownTime",
          "type": "uint32"
        }
      ],
      "stateMutability": "view",
      "type": "function"
    },
    {
      "inputs": [
        {
          "internalType": "bytes32",
          "name": "requestId",
          "type": "bytes32"
        },
        {
          "internalType": "uint256",
          "name": "randomness",
          "type": "uint256"
        }
      ],
      "name": "rawFulfillRandomness",
      "outputs": [],
      "stateMutability": "nonpayable",
      "type": "function"
    },
    {
      "inputs": [],
      "name": "reveal",
      "outputs": [],
      "stateMutability": "nonpayable",
      "type": "function"
    },
    {
      "inputs": [
        {
          "internalType": "address",
          "name": "from",
          "type": "address"
        },
        {
          "internalType": "address",
          "name": "to",
          "type": "address"
        },
        {
          "internalType": "uint256",
          "name": "tokenId",
          "type": "uint256"
        }
      ],
      "name": "safeTransferFrom",
      "outputs": [],
      "stateMutability": "nonpayable",
      "type": "function"
    },
    {
      "inputs": [
        {
          "internalType": "address",
          "name": "from",
          "type": "address"
        },
        {
          "internalType": "address",
          "name": "to",
          "type": "address"
        },
        {
          "internalType": "uint256",
          "name": "tokenId",
          "type": "uint256"
        },
        {
          "internalType": "bytes",
          "name": "_data",
          "type": "bytes"
        }
      ],
      "name": "safeTransferFrom",
      "outputs": [],
      "stateMutability": "nonpayable",
      "type": "function"
    },
    {
      "inputs": [
        {
          "internalType": "address",
          "name": "_admin",
          "type": "address"
        }
      ],
      "name": "setAdmin",
      "outputs": [],
      "stateMutability": "nonpayable",
      "type": "function"
    },
    {
      "inputs": [
        {
          "internalType": "address",
          "name": "operator",
          "type": "address"
        },
        {
          "internalType": "bool",
          "name": "approved",
          "type": "bool"
        }
      ],
      "name": "setApprovalForAll",
      "outputs": [],
      "stateMutability": "nonpayable",
      "type": "function"
    },
    {
      "inputs": [
        {
          "internalType": "uint256",
          "name": "fundsToSplit",
          "type": "uint256"
        }
      ],
      "name": "splitFunds",
      "outputs": [],
      "stateMutability": "payable",
      "type": "function"
    },
    {
      "inputs": [
        {
          "internalType": "bytes4",
          "name": "interfaceId",
          "type": "bytes4"
        }
      ],
      "name": "supportsInterface",
      "outputs": [
        {
          "internalType": "bool",
          "name": "",
          "type": "bool"
        }
      ],
      "stateMutability": "view",
      "type": "function"
    },
    {
      "inputs": [],
      "name": "symbol",
      "outputs": [
        {
          "internalType": "string",
          "name": "",
          "type": "string"
        }
      ],
      "stateMutability": "view",
      "type": "function"
    },
    {
      "inputs": [
        {
          "internalType": "uint256",
          "name": "index",
          "type": "uint256"
        }
      ],
      "name": "tokenByIndex",
      "outputs": [
        {
          "internalType": "uint256",
          "name": "",
          "type": "uint256"
        }
      ],
      "stateMutability": "view",
      "type": "function"
    },
    {
      "inputs": [
        {
          "internalType": "address",
          "name": "owner",
          "type": "address"
        },
        {
          "internalType": "uint256",
          "name": "index",
          "type": "uint256"
        }
      ],
      "name": "tokenOfOwnerByIndex",
      "outputs": [
        {
          "internalType": "uint256",
          "name": "",
          "type": "uint256"
        }
      ],
      "stateMutability": "view",
      "type": "function"
    },
    {
      "inputs": [
        {
          "internalType": "uint256",
          "name": "tokenId",
          "type": "uint256"
        }
      ],
      "name": "tokenURI",
      "outputs": [
        {
          "internalType": "string",
          "name": "",
          "type": "string"
        }
      ],
      "stateMutability": "view",
      "type": "function"
    },
    {
      "inputs": [
        {
          "internalType": "uint16",
          "name": "_tokenId",
          "type": "uint16"
        }
      ],
      "name": "tokenURI",
      "outputs": [
        {
          "internalType": "string",
          "name": "uri",
          "type": "string"
        }
      ],
      "stateMutability": "view",
      "type": "function"
    },
    {
      "inputs": [],
      "name": "totalSupply",
      "outputs": [
        {
          "internalType": "uint256",
          "name": "",
          "type": "uint256"
        }
      ],
      "stateMutability": "view",
      "type": "function"
    },
    {
      "inputs": [
        {
          "internalType": "address",
          "name": "from",
          "type": "address"
        },
        {
          "internalType": "address",
          "name": "to",
          "type": "address"
        },
        {
          "internalType": "uint256",
          "name": "tokenId",
          "type": "uint256"
        }
      ],
      "name": "transferFrom",
      "outputs": [],
      "stateMutability": "nonpayable",
      "type": "function"
    },
    {
      "inputs": [
        {
          "internalType": "address",
          "name": "_gameAddress",
          "type": "address"
        }
      ],
      "name": "updateGameAddress",
      "outputs": [],
      "stateMutability": "nonpayable",
      "type": "function"
    },
    {
      "inputs": [
        {
          "internalType": "address",
          "name": "_paymentTo",
          "type": "address"
        },
        {
          "internalType": "uint8",
          "name": "index",
          "type": "uint8"
        }
      ],
      "name": "updatePaymentTo",
      "outputs": [],
      "stateMutability": "nonpayable",
      "type": "function"
    },
    {
      "inputs": [
        {
          "internalType": "uint16",
          "name": "_raptor",
          "type": "uint16"
        },
        {
          "internalType": "uint8",
          "name": "_amount",
          "type": "uint8"
        }
      ],
      "name": "upgradeAgressiveness",
      "outputs": [
        {
          "internalType": "bool",
          "name": "",
          "type": "bool"
        }
      ],
      "stateMutability": "nonpayable",
      "type": "function"
    },
    {
      "inputs": [
        {
          "internalType": "uint16",
          "name": "_raptor",
          "type": "uint16"
        }
      ],
      "name": "upgradeCompWins",
      "outputs": [
        {
          "internalType": "bool",
          "name": "",
          "type": "bool"
        }
      ],
      "stateMutability": "nonpayable",
      "type": "function"
    },
    {
      "inputs": [
        {
          "internalType": "uint16",
          "name": "_raptor",
          "type": "uint16"
        }
      ],
      "name": "upgradeDRWins",
      "outputs": [
        {
          "internalType": "bool",
          "name": "",
          "type": "bool"
        }
      ],
      "stateMutability": "nonpayable",
      "type": "function"
    },
    {
      "inputs": [
        {
          "internalType": "uint16",
          "name": "_raptor",
          "type": "uint16"
        }
      ],
      "name": "upgradeQPWins",
      "outputs": [
        {
          "internalType": "bool",
          "name": "",
          "type": "bool"
        }
      ],
      "stateMutability": "nonpayable",
      "type": "function"
    },
    {
      "inputs": [
        {
          "internalType": "uint16",
          "name": "_raptor",
          "type": "uint16"
        },
        {
          "internalType": "uint8",
          "name": "_amount",
          "type": "uint8"
        }
      ],
      "name": "upgradeSpeed",
      "outputs": [
        {
          "internalType": "bool",
          "name": "",
          "type": "bool"
        }
      ],
      "stateMutability": "nonpayable",
      "type": "function"
    },
    {
      "inputs": [
        {
          "internalType": "uint16",
          "name": "_raptor",
          "type": "uint16"
        },
        {
          "internalType": "uint8",
          "name": "_amount",
          "type": "uint8"
        }
      ],
      "name": "upgradeStrength",
      "outputs": [
        {
          "internalType": "bool",
          "name": "",
          "type": "bool"
        }
      ],
      "stateMutability": "nonpayable",
      "type": "function"
    },
    {
      "inputs": [
        {
          "internalType": "uint16",
          "name": "_raptor",
          "type": "uint16"
        }
      ],
      "name": "upgradeTop3Finishes",
      "outputs": [
        {
          "internalType": "bool",
          "name": "",
          "type": "bool"
        }
      ],
      "stateMutability": "nonpayable",
      "type": "function"
    },
    {
      "inputs": [
        {
          "internalType": "uint16",
          "name": "_raptor",
          "type": "uint16"
        }
      ],
      "name": "upgradefightsWon",
      "outputs": [
        {
          "internalType": "bool",
          "name": "",
          "type": "bool"
        }
      ],
      "stateMutability": "nonpayable",
      "type": "function"
    },
    {
      "inputs": [
        {
          "internalType": "address",
          "name": "_wallet",
          "type": "address"
        }
      ],
      "name": "walletOfOwner",
      "outputs": [
        {
          "internalType": "uint16[]",
          "name": "ids",
          "type": "uint16[]"
        }
      ],
      "stateMutability": "view",
      "type": "function"
    },
    {
      "inputs": [],
      "name": "withdrawLink",
      "outputs": [],
      "stateMutability": "nonpayable",
      "type": "function"
    },
    {
      "stateMutability": "payable",
      "type": "receive"
    }
  ],
  "bytecode": "0x60c06040526040518060600160405280600160ff168152602001600260ff168152602001600260ff16815250601d9060036200003d929190620011cd565b503480156200004b57600080fd5b5060405162008983380380620089838339818101604052810190620000719190620014ad565b84846040518060400160405280601181526020017f526163696e6720526170746f72732056320000000000000000000000000000008152506040518060400160405280600281526020017f52520000000000000000000000000000000000000000000000000000000000008152508160009080519060200190620000f79291906200127b565b508060019080519060200190620001109291906200127b565b5050508173ffffffffffffffffffffffffffffffffffffffff1660a08173ffffffffffffffffffffffffffffffffffffffff1660601b815250508073ffffffffffffffffffffffffffffffffffffffff1660808173ffffffffffffffffffffffffffffffffffffffff1660601b81525050505060038751146200019257600080fd5b6003865114620001a157600080fd5b83601160040160006101000a81548173ffffffffffffffffffffffffffffffffffffffff021916908373ffffffffffffffffffffffffffffffffffffffff16021790555084601160000160006101000a81548173ffffffffffffffffffffffffffffffffffffffff021916908373ffffffffffffffffffffffffffffffffffffffff16021790555083601160010160006101000a81548173ffffffffffffffffffffffffffffffffffffffff021916908373ffffffffffffffffffffffffffffffffffffffff160217905550826011600201819055508160116003018190555086601c9080519060200190620002999291906200130c565b506040518060400160405280601d81526020017f68747470733a2f2f676174657761792e70696e6174612e636c6f75642f000000815250600c9080519060200190620002e79291906200127b565b506040518060400160405280600981526020017f536f6d65204349442f0000000000000000000000000000000000000000000000815250600d9080519060200190620003359291906200127b565b506040518060400160405280601081526020017f4e6f7452657665616c6564204861736800000000000000000000000000000000815250600f9080519060200190620003839291906200127b565b506040518060400160405280600581526020017f2e4a534f4e000000000000000000000000000000000000000000000000000000815250600e9080519060200190620003d19291906200127b565b506001600b60146101000a81548160ff0219169083151502179055506000601b60006101000a81548161ffff021916908361ffff160217905550612710601b60026101000a81548161ffff021916908361ffff160217905550671bc16d674ec80000601a81905550620004496200050d60201b60201c565b600b60006101000a81548173ffffffffffffffffffffffffffffffffffffffff021916908373ffffffffffffffffffffffffffffffffffffffff16021790555085601e9080519060200190620004a19291906200130c565b506040518060400160405280600b81526020017f4c4646464647474747474700000000000000000000000000000000000000000081525060109080519060200190620004ef9291906200127b565b50620005006200051560201b60201c565b5050505050505062001b4e565b600033905090565b60005b601c805490508160ff161015620008af5760005b601d8260ff16815481106200054657620005456200198d565b5b90600052602060002090602091828204019190069054906101000a900460ff1660ff168160ff16101562000898576001601b60008282829054906101000a900461ffff166200059691906200172b565b92506101000a81548161ffff021916908361ffff1602179055506200061a601c8360ff1681548110620005ce57620005cd6200198d565b5b9060005260206000200160009054906101000a900473ffffffffffffffffffffffffffffffffffffffff16601b60009054906101000a900461ffff1661ffff16620008b260201b60201c565b62000662601b60059054906101000a900473ffffffffffffffffffffffffffffffffffffffff16601b60009054906101000a900461ffff1661ffff1662000aac60201b60201c565b604051806101200160405280600161ffff168152602001600161ffff168152602001600161ffff168152602001600061ffff168152602001600061ffff168152602001600061ffff168152602001600061ffff168152602001600061ffff1681526020014263ffffffff1681525060196000601b60009054906101000a900461ffff1661ffff1661ffff16815260200190815260200160002060008201518160000160006101000a81548161ffff021916908361ffff16021790555060208201518160000160026101000a81548161ffff021916908361ffff16021790555060408201518160000160046101000a81548161ffff021916908361ffff16021790555060608201518160000160066101000a81548161ffff021916908361ffff16021790555060808201518160000160086101000a81548161ffff021916908361ffff16021790555060a082015181600001600a6101000a81548161ffff021916908361ffff16021790555060c082015181600001600c6101000a81548161ffff021916908361ffff16021790555060e082015181600001600e6101000a81548161ffff021916908361ffff1602179055506101008201518160000160106101000a81548163ffffffff021916908363ffffffff1602179055509050506001601f6000601b60009054906101000a900461ffff1661ffff1661ffff16815260200190815260200160002060006101000a81548160ff02191690831515021790555080806200088f90620018d1565b9150506200052c565b508080620008a690620018d1565b91505062000518565b50565b600073ffffffffffffffffffffffffffffffffffffffff168273ffffffffffffffffffffffffffffffffffffffff16141562000925576040517f08c379a00000000000000000000000000000000000000000000000000000000081526004016200091c90620016a0565b60405180910390fd5b620009368162000b7260201b60201c565b1562000979576040517f08c379a000000000000000000000000000000000000000000000000000000000815260040162000970906200163a565b60405180910390fd5b6200098d6000838362000bde60201b60201c565b6001600360008473ffffffffffffffffffffffffffffffffffffffff1673ffffffffffffffffffffffffffffffffffffffff1681526020019081526020016000206000828254620009df91906200176a565b92505081905550816002600083815260200190815260200160002060006101000a81548173ffffffffffffffffffffffffffffffffffffffff021916908373ffffffffffffffffffffffffffffffffffffffff160217905550808273ffffffffffffffffffffffffffffffffffffffff16600073ffffffffffffffffffffffffffffffffffffffff167fddf252ad1be2c89b69c2b068fc378daa952ba7f163c4a11628f55a4df523b3ef60405160405180910390a462000aa86000838362000d2560201b60201c565b5050565b816004600083815260200190815260200160002060006101000a81548173ffffffffffffffffffffffffffffffffffffffff021916908373ffffffffffffffffffffffffffffffffffffffff160217905550808273ffffffffffffffffffffffffffffffffffffffff1662000b2c8362000d2a60201b62001c581760201c565b73ffffffffffffffffffffffffffffffffffffffff167f8c5be1e5ebec7d5bd14f71427d1e84f3dd0314c0f7b2291e5b200ac8c7c3b92560405160405180910390a45050565b60008073ffffffffffffffffffffffffffffffffffffffff166002600084815260200190815260200160002060009054906101000a900473ffffffffffffffffffffffffffffffffffffffff1673ffffffffffffffffffffffffffffffffffffffff1614159050919050565b62000bf683838362000ddf60201b620036d91760201c565b600073ffffffffffffffffffffffffffffffffffffffff168373ffffffffffffffffffffffffffffffffffffffff16141562000c435762000c3d8162000de460201b60201c565b62000c8b565b8173ffffffffffffffffffffffffffffffffffffffff168373ffffffffffffffffffffffffffffffffffffffff161462000c8a5762000c89838262000e2d60201b60201c565b5b5b600073ffffffffffffffffffffffffffffffffffffffff168273ffffffffffffffffffffffffffffffffffffffff16141562000cd85762000cd28162000faa60201b60201c565b62000d20565b8273ffffffffffffffffffffffffffffffffffffffff168273ffffffffffffffffffffffffffffffffffffffff161462000d1f5762000d1e82826200108660201b60201c565b5b5b505050565b505050565b6000806002600084815260200190815260200160002060009054906101000a900473ffffffffffffffffffffffffffffffffffffffff169050600073ffffffffffffffffffffffffffffffffffffffff168173ffffffffffffffffffffffffffffffffffffffff16141562000dd6576040517f08c379a000000000000000000000000000000000000000000000000000000000815260040162000dcd906200167e565b60405180910390fd5b80915050919050565b505050565b6008805490506009600083815260200190815260200160002081905550600881908060018154018082558091505060019003906000526020600020016000909190919091505550565b6000600162000e47846200111260201b620024ab1760201c565b62000e539190620017c7565b905060006007600084815260200190815260200160002054905081811462000f39576000600660008673ffffffffffffffffffffffffffffffffffffffff1673ffffffffffffffffffffffffffffffffffffffff168152602001908152602001600020600084815260200190815260200160002054905080600660008773ffffffffffffffffffffffffffffffffffffffff1673ffffffffffffffffffffffffffffffffffffffff168152602001908152602001600020600084815260200190815260200160002081905550816007600083815260200190815260200160002081905550505b6007600084815260200190815260200160002060009055600660008573ffffffffffffffffffffffffffffffffffffffff1673ffffffffffffffffffffffffffffffffffffffff16815260200190815260200160002060008381526020019081526020016000206000905550505050565b6000600160088054905062000fc09190620017c7565b905060006009600084815260200190815260200160002054905060006008838154811062000ff35762000ff26200198d565b5b9060005260206000200154905080600883815481106200101857620010176200198d565b5b9060005260206000200181905550816009600083815260200190815260200160002081905550600960008581526020019081526020016000206000905560088054806200106a57620010696200195e565b5b6001900381819060005260206000200160009055905550505050565b60006200109e836200111260201b620024ab1760201c565b905081600660008573ffffffffffffffffffffffffffffffffffffffff1673ffffffffffffffffffffffffffffffffffffffff168152602001908152602001600020600083815260200190815260200160002081905550806007600084815260200190815260200160002081905550505050565b60008073ffffffffffffffffffffffffffffffffffffffff168273ffffffffffffffffffffffffffffffffffffffff16141562001186576040517f08c379a00000000000000000000000000000000000000000000000000000000081526004016200117d906200165c565b60405180910390fd5b600360008373ffffffffffffffffffffffffffffffffffffffff1673ffffffffffffffffffffffffffffffffffffffff168152602001908152602001600020549050919050565b82805482825590600052602060002090601f01602090048101928215620012685791602002820160005b838211156200123757835183826101000a81548160ff021916908360ff1602179055509260200192600101602081600001049283019260010302620011f7565b8015620012665782816101000a81549060ff021916905560010160208160000104928301926001030262001237565b505b5090506200127791906200139b565b5090565b828054620012899062001865565b90600052602060002090601f016020900481019282620012ad5760008555620012f9565b82601f10620012c857805160ff1916838001178555620012f9565b82800160010185558215620012f9579182015b82811115620012f8578251825591602001919060010190620012db565b5b5090506200130891906200139b565b5090565b82805482825590600052602060002090810192821562001388579160200282015b82811115620013875782518260006101000a81548173ffffffffffffffffffffffffffffffffffffffff021916908373ffffffffffffffffffffffffffffffffffffffff160217905550916020019190600101906200132d565b5b5090506200139791906200139b565b5090565b5b80821115620013b65760008160009055506001016200139c565b5090565b6000620013d1620013cb84620016eb565b620016c2565b90508083825260208201905082856020860282011115620013f757620013f6620019f0565b5b60005b858110156200142b578162001410888262001435565b845260208401935060208301925050600181019050620013fa565b5050509392505050565b600081519050620014468162001b00565b92915050565b600082601f830112620014645762001463620019eb565b5b815162001476848260208601620013ba565b91505092915050565b600081519050620014908162001b1a565b92915050565b600081519050620014a78162001b34565b92915050565b600080600080600080600060e0888a031215620014cf57620014ce620019fa565b5b600088015167ffffffffffffffff811115620014f057620014ef620019f5565b5b620014fe8a828b016200144c565b975050602088015167ffffffffffffffff811115620015225762001521620019f5565b5b620015308a828b016200144c565b9650506040620015438a828b0162001435565b9550506060620015568a828b0162001435565b9450506080620015698a828b016200147f565b93505060a06200157c8a828b0162001496565b92505060c06200158f8a828b0162001496565b91505092959891949750929550565b6000620015ad601c836200171a565b9150620015ba8262001a10565b602082019050919050565b6000620015d4602a836200171a565b9150620015e18262001a39565b604082019050919050565b6000620015fb6029836200171a565b9150620016088262001a88565b604082019050919050565b6000620016226020836200171a565b91506200162f8262001ad7565b602082019050919050565b6000602082019050818103600083015262001655816200159e565b9050919050565b600060208201905081810360008301526200167781620015c5565b9050919050565b600060208201905081810360008301526200169981620015ec565b9050919050565b60006020820190508181036000830152620016bb8162001613565b9050919050565b6000620016ce620016e1565b9050620016dc82826200189b565b919050565b6000604051905090565b600067ffffffffffffffff821115620017095762001708620019bc565b5b602082029050602081019050919050565b600082825260208201905092915050565b6000620017388262001820565b9150620017458362001820565b92508261ffff038211156200175f576200175e62001900565b5b828201905092915050565b600062001777826200184e565b915062001784836200184e565b9250827fffffffffffffffffffffffffffffffffffffffffffffffffffffffffffffffff03821115620017bc57620017bb62001900565b5b828201905092915050565b6000620017d4826200184e565b9150620017e1836200184e565b925082821015620017f757620017f662001900565b5b828203905092915050565b60006200180f826200182e565b9050919050565b6000819050919050565b600061ffff82169050919050565b600073ffffffffffffffffffffffffffffffffffffffff82169050919050565b6000819050919050565b600060ff82169050919050565b600060028204905060018216806200187e57607f821691505b602082108114156200189557620018946200192f565b5b50919050565b620018a682620019ff565b810181811067ffffffffffffffff82111715620018c857620018c7620019bc565b5b80604052505050565b6000620018de8262001858565b915060ff821415620018f557620018f462001900565b5b600182019050919050565b7f4e487b7100000000000000000000000000000000000000000000000000000000600052601160045260246000fd5b7f4e487b7100000000000000000000000000000000000000000000000000000000600052602260045260246000fd5b7f4e487b7100000000000000000000000000000000000000000000000000000000600052603160045260246000fd5b7f4e487b7100000000000000000000000000000000000000000000000000000000600052603260045260246000fd5b7f4e487b7100000000000000000000000000000000000000000000000000000000600052604160045260246000fd5b600080fd5b600080fd5b600080fd5b600080fd5b6000601f19601f8301169050919050565b7f4552433732313a20746f6b656e20616c7265616479206d696e74656400000000600082015250565b7f4552433732313a2062616c616e636520717565727920666f7220746865207a6560008201527f726f206164647265737300000000000000000000000000000000000000000000602082015250565b7f4552433732313a206f776e657220717565727920666f72206e6f6e657869737460008201527f656e7420746f6b656e0000000000000000000000000000000000000000000000602082015250565b7f4552433732313a206d696e7420746f20746865207a65726f2061646472657373600082015250565b62001b0b8162001802565b811462001b1757600080fd5b50565b62001b258162001816565b811462001b3157600080fd5b50565b62001b3f816200184e565b811462001b4b57600080fd5b50565b60805160601c60a05160601c616e0f62001b746000396000505060005050616e0f6000f3fe6080604052600436106102815760003560e01c806367c1fcfe1161014f5780639d7182ee116100c1578063c87b56dd1161007a578063c87b56dd14610a78578063d2aa28af14610ab5578063db258f9c14610af2578063dd7d844014610b1b578063e985e9c514610b58578063f851a44014610b9557610291565b80639d7182ee14610958578063a22cb46514610995578063a475b5dd146109be578063b4dd385e146109d5578063b88d4fde14610a12578063bb55534414610a3b57610291565b8063884cdaf311610113578063884cdaf31461082e5780638bffef621461086b5780638cc3b366146108a85780638dc654a2146108ed57806394985ddd1461090457806395d89b411461092d57610291565b806367c1fcfe146107465780636ecd23061461076f578063704b6c021461078b57806370a08231146107b45780637e442efa146107f157610291565b806323b872dd116101f357806337f1e7f2116101ac57806337f1e7f2146105ec57806342842e0e14610629578063438b6300146106525780634f6ccce71461068f5780636201917f146106cc5780636352211e1461070957610291565b806323b872dd146104d95780632f1335cf146105025780632f745c591461051e578063309dbc011461055b578063334bfefc1461059857806334918dfd146105d557610291565b80630a473536116102455780630a4735361461038f5780630a8dc157146103cc5780630c7c9707146104095780630ca1c5c91461044657806310e1e2d21461047157806318160ddd146104ae57610291565b806301ffc9a71461029657806302fb0c5e146102d357806306fdde03146102fe578063081812fc14610329578063095ea7b31461036657610291565b366102915761028f34610bc0565b005b600080fd5b3480156102a257600080fd5b506102bd60048036038101906102b89190614f99565b610dc5565b6040516102ca9190615a36565b60405180910390f35b3480156102df57600080fd5b506102e8610e3f565b6040516102f59190615a36565b60405180910390f35b34801561030a57600080fd5b50610313610e52565b6040516103209190615abf565b60405180910390f35b34801561033557600080fd5b50610350600480360381019061034b9190615060565b610ee4565b60405161035d919061591d565b60405180910390f35b34801561037257600080fd5b5061038d60048036038101906103889190614eac565b610f69565b005b34801561039b57600080fd5b506103b660048036038101906103b19190614ff3565b611081565b6040516103c39190615a36565b60405180910390f35b3480156103d857600080fd5b506103f360048036038101906103ee9190615060565b611218565b604051610400919061591d565b60405180910390f35b34801561041557600080fd5b50610430600480360381019061042b9190614ff3565b611257565b60405161043d9190615a36565b60405180910390f35b34801561045257600080fd5b5061045b6113ee565b6040516104689190615e63565b60405180910390f35b34801561047d57600080fd5b5061049860048036038101906104939190614ff3565b611406565b6040516104a59190615e63565b60405180910390f35b3480156104ba57600080fd5b506104c3611488565b6040516104d09190615f35565b60405180910390f35b3480156104e557600080fd5b5061050060048036038101906104fb9190614d96565b611495565b005b61051c60048036038101906105179190615060565b610bc0565b005b34801561052a57600080fd5b5061054560048036038101906105409190614eac565b6114f5565b6040516105529190615f35565b60405180910390f35b34801561056757600080fd5b50610582600480360381019061057d9190614ff3565b61159a565b60405161058f9190615a36565b60405180910390f35b3480156105a457600080fd5b506105bf60048036038101906105ba9190614ff3565b611771565b6040516105cc9190615a36565b60405180910390f35b3480156105e157600080fd5b506105ea611908565b005b3480156105f857600080fd5b50610613600480360381019061060e91906150ba565b6119cb565b6040516106209190615f35565b60405180910390f35b34801561063557600080fd5b50610650600480360381019061064b9190614d96565b611ac9565b005b34801561065e57600080fd5b5061067960048036038101906106749190614d29565b611ae9565b6040516106869190615a14565b60405180910390f35b34801561069b57600080fd5b506106b660048036038101906106b19190615060565b611baf565b6040516106c39190615f35565b60405180910390f35b3480156106d857600080fd5b506106f360048036038101906106ee9190614ff3565b611c20565b6040516107009190615f50565b60405180910390f35b34801561071557600080fd5b50610730600480360381019061072b9190615060565b611c58565b60405161073d919061591d565b60405180910390f35b34801561075257600080fd5b5061076d60048036038101906107689190614eec565b611d0a565b005b610789600480360381019061078491906150ba565b611e05565b005b34801561079757600080fd5b506107b260048036038101906107ad9190614d29565b612399565b005b3480156107c057600080fd5b506107db60048036038101906107d69190614d29565b6124ab565b6040516107e89190615f35565b60405180910390f35b3480156107fd57600080fd5b5061081860048036038101906108139190614ff3565b612563565b6040516108259190615a36565b60405180910390f35b34801561083a57600080fd5b5061085560048036038101906108509190615020565b6126fa565b6040516108629190615a36565b60405180910390f35b34801561087757600080fd5b50610892600480360381019061088d9190614ff3565b612894565b60405161089f9190615e63565b60405180910390f35b3480156108b457600080fd5b506108cf60048036038101906108ca9190614ff3565b612916565b6040516108e499989796959493929190615ea8565b60405180910390f35b3480156108f957600080fd5b506109026129e4565b005b34801561091057600080fd5b5061092b60048036038101906109269190614f59565b612bdd565b005b34801561093957600080fd5b50610942612c7e565b60405161094f9190615abf565b60405180910390f35b34801561096457600080fd5b5061097f600480360381019061097a9190614ff3565b612d10565b60405161098c9190615a36565b60405180910390f35b3480156109a157600080fd5b506109bc60048036038101906109b79190614e6c565b612ea7565b005b3480156109ca57600080fd5b506109d3612ebd565b005b3480156109e157600080fd5b506109fc60048036038101906109f79190615020565b612f71565b604051610a099190615a36565b60405180910390f35b348015610a1e57600080fd5b50610a396004803603810190610a349190614de9565b61310b565b005b348015610a4757600080fd5b50610a626004803603810190610a5d9190615020565b61316d565b604051610a6f9190615a36565b60405180910390f35b348015610a8457600080fd5b50610a9f6004803603810190610a9a9190615060565b613307565b604051610aac9190615abf565b60405180910390f35b348015610ac157600080fd5b50610adc6004803603810190610ad79190614ff3565b6133ae565b604051610ae99190615e63565b60405180910390f35b348015610afe57600080fd5b50610b196004803603810190610b149190614d29565b613430565b005b348015610b2757600080fd5b50610b426004803603810190610b3d9190614ff3565b613542565b604051610b4f9190615abf565b60405180910390f35b348015610b6457600080fd5b50610b7f6004803603810190610b7a9190614d56565b61361f565b604051610b8c9190615a36565b60405180910390f35b348015610ba157600080fd5b50610baa6136b3565b604051610bb7919061591d565b60405180910390f35b47811015610c03576040517f08c379a0000000000000000000000000000000000000000000000000000000008152600401610bfa90615c63565b60405180910390fd5b601e600081548110610c1857610c176165a6565b5b9060005260206000200160009054906101000a900473ffffffffffffffffffffffffffffffffffffffff1673ffffffffffffffffffffffffffffffffffffffff166108fc6064601984610c6b9190616111565b610c7591906160e0565b9081150290604051600060405180830381858888f19350505050610c9857600080fd5b601e600181548110610cad57610cac6165a6565b5b9060005260206000200160009054906101000a900473ffffffffffffffffffffffffffffffffffffffff1673ffffffffffffffffffffffffffffffffffffffff166108fc6064603284610d009190616111565b610d0a91906160e0565b9081150290604051600060405180830381858888f19350505050610d2d57600080fd5b601e600281548110610d4257610d416165a6565b5b9060005260206000200160009054906101000a900473ffffffffffffffffffffffffffffffffffffffff1673ffffffffffffffffffffffffffffffffffffffff166108fc6064601984610d959190616111565b610d9f91906160e0565b9081150290604051600060405180830381858888f19350505050610dc257600080fd5b50565b60007f780e9d63000000000000000000000000000000000000000000000000000000007bffffffffffffffffffffffffffffffffffffffffffffffffffffffff1916827bffffffffffffffffffffffffffffffffffffffffffffffffffffffff19161480610e385750610e37826136de565b5b9050919050565b600b60149054906101000a900460ff1681565b606060008054610e61906162a8565b80601f0160208091040260200160405190810160405280929190818152602001828054610e8d906162a8565b8015610eda5780601f10610eaf57610100808354040283529160200191610eda565b820191906000526020600020905b815481529060010190602001808311610ebd57829003601f168201915b5050505050905090565b6000610eef826137c0565b610f2e576040517f08c379a0000000000000000000000000000000000000000000000000000000008152600401610f2590615d23565b60405180910390fd5b6004600083815260200190815260200160002060009054906101000a900473ffffffffffffffffffffffffffffffffffffffff169050919050565b6000610f7482611c58565b90508073ffffffffffffffffffffffffffffffffffffffff168373ffffffffffffffffffffffffffffffffffffffff161415610fe5576040517f08c379a0000000000000000000000000000000000000000000000000000000008152600401610fdc90615d83565b60405180910390fd5b8073ffffffffffffffffffffffffffffffffffffffff1661100461382c565b73ffffffffffffffffffffffffffffffffffffffff16148061103357506110328161102d61382c565b61361f565b5b611072576040517f08c379a000000000000000000000000000000000000000000000000000000000815260040161106990615ca3565b60405180910390fd5b61107c8383613834565b505050565b6000601b60059054906101000a900473ffffffffffffffffffffffffffffffffffffffff1673ffffffffffffffffffffffffffffffffffffffff166110c461382c565b73ffffffffffffffffffffffffffffffffffffffff161461111a576040517f08c379a000000000000000000000000000000000000000000000000000000000815260040161111190615da3565b60405180910390fd5b6111278261ffff166137c0565b611166576040517f08c379a000000000000000000000000000000000000000000000000000000000815260040161115d90615c83565b60405180910390fd5b6001601960008461ffff1661ffff168152602001908152602001600020600001600c8282829054906101000a900461ffff166111a29190616052565b92506101000a81548161ffff021916908361ffff1602179055507f4ba5871555e443387312c892526399fa9dae9e2389f32f85716a262af9734fbe82601960008561ffff1661ffff168152602001908152602001600020604051611207929190615e7e565b60405180910390a160019050919050565b601e818154811061122857600080fd5b906000526020600020016000915054906101000a900473ffffffffffffffffffffffffffffffffffffffff1681565b6000601b60059054906101000a900473ffffffffffffffffffffffffffffffffffffffff1673ffffffffffffffffffffffffffffffffffffffff1661129a61382c565b73ffffffffffffffffffffffffffffffffffffffff16146112f0576040517f08c379a00000000000000000000000000000000000000000000000000000000081526004016112e790615da3565b60405180910390fd5b6112fd8261ffff166137c0565b61133c576040517f08c379a000000000000000000000000000000000000000000000000000000000815260040161133390615c83565b60405180910390fd5b6001601960008461ffff1661ffff168152602001908152602001600020600001600e8282829054906101000a900461ffff166113789190616052565b92506101000a81548161ffff021916908361ffff1602179055507f4ba5871555e443387312c892526399fa9dae9e2389f32f85716a262af9734fbe82601960008561ffff1661ffff1681526020019081526020016000206040516113dd929190615e7e565b60405180910390a160019050919050565b6000601b60009054906101000a900461ffff16905090565b60006114158261ffff166137c0565b611454576040517f08c379a000000000000000000000000000000000000000000000000000000000815260040161144b90615c83565b60405180910390fd5b601960008361ffff1661ffff16815260200190815260200160002060000160029054906101000a900461ffff169050919050565b6000600880549050905090565b6114a66114a061382c565b826138ed565b6114e5576040517f08c379a00000000000000000000000000000000000000000000000000000000081526004016114dc90615de3565b60405180910390fd5b6114f08383836139cb565b505050565b6000611500836124ab565b8210611541576040517f08c379a000000000000000000000000000000000000000000000000000000000815260040161153890615b63565b60405180910390fd5b600660008473ffffffffffffffffffffffffffffffffffffffff1673ffffffffffffffffffffffffffffffffffffffff168152602001908152602001600020600083815260200190815260200160002054905092915050565b6000601b60059054906101000a900473ffffffffffffffffffffffffffffffffffffffff1673ffffffffffffffffffffffffffffffffffffffff166115dd61382c565b73ffffffffffffffffffffffffffffffffffffffff1614611633576040517f08c379a000000000000000000000000000000000000000000000000000000000815260040161162a90615da3565b60405180910390fd5b6116408261ffff166137c0565b61167f576040517f08c379a000000000000000000000000000000000000000000000000000000000815260040161167690615c83565b60405180910390fd5b6000601f60008461ffff1661ffff16815260200190815260200160002060009054906101000a900460ff166116c45761a8c0426116bc919061608a565b9050806116d6565b615460426116d2919061608a565b9050805b5080601960008561ffff1661ffff16815260200190815260200160002060000160106101000a81548163ffffffff021916908363ffffffff1602179055507f4ba5871555e443387312c892526399fa9dae9e2389f32f85716a262af9734fbe83601960008661ffff1661ffff16815260200190815260200160002060405161175f929190615e7e565b60405180910390a16001915050919050565b6000601b60059054906101000a900473ffffffffffffffffffffffffffffffffffffffff1673ffffffffffffffffffffffffffffffffffffffff166117b461382c565b73ffffffffffffffffffffffffffffffffffffffff161461180a576040517f08c379a000000000000000000000000000000000000000000000000000000000815260040161180190615da3565b60405180910390fd5b6118178261ffff166137c0565b611856576040517f08c379a000000000000000000000000000000000000000000000000000000000815260040161184d90615c83565b60405180910390fd5b6001601960008461ffff1661ffff16815260200190815260200160002060000160068282829054906101000a900461ffff166118929190616052565b92506101000a81548161ffff021916908361ffff1602179055507f4ba5871555e443387312c892526399fa9dae9e2389f32f85716a262af9734fbe82601960008561ffff1661ffff1681526020019081526020016000206040516118f7929190615e7e565b60405180910390a160019050919050565b600b60009054906101000a900473ffffffffffffffffffffffffffffffffffffffff1673ffffffffffffffffffffffffffffffffffffffff1661194961382c565b73ffffffffffffffffffffffffffffffffffffffff161461199f576040517f08c379a000000000000000000000000000000000000000000000000000000000815260040161199690615b03565b60405180910390fd5b600b60149054906101000a900460ff1615600b60146101000a81548160ff021916908315150217905550565b6000600a8260ff161115611a14576040517f08c379a0000000000000000000000000000000000000000000000000000000008152600401611a0b90615e23565b60405180910390fd5b6000611a378360ff16601b60009054906101000a900461ffff1661ffff16613c32565b9050600115158115151415611aaf57600080611a6a8560ff16601b60009054906101000a900461ffff1661ffff16613c9b565b915091508060ff166002601a54611a819190616111565b611a8b9190616111565b8260ff16601a54611a9c9190616111565b611aa6919061608a565b93505050611ac3565b8260ff16601a54611ac09190616111565b91505b50919050565b611ae48383836040518060200160405280600081525061310b565b505050565b60606000611af6836124ab565b90508061ffff1667ffffffffffffffff811115611b1657611b156165d5565b5b604051908082528060200260200182016040528015611b445781602001602082028036833780820191505090505b50915060005b8161ffff168161ffff161015611ba857611b68848261ffff166114f5565b838261ffff1681518110611b7f57611b7e6165a6565b5b602002602001019061ffff16908161ffff16815250508080611ba0906163f5565b915050611b4a565b5050919050565b6000611bb9611488565b8210611bfa576040517f08c379a0000000000000000000000000000000000000000000000000000000008152600401611bf190615e03565b60405180910390fd5b60088281548110611c0e57611c0d6165a6565b5b90600052602060002001549050919050565b6000601960008361ffff1661ffff16815260200190815260200160002060000160109054906101000a900463ffffffff169050919050565b6000806002600084815260200190815260200160002060009054906101000a900473ffffffffffffffffffffffffffffffffffffffff169050600073ffffffffffffffffffffffffffffffffffffffff168173ffffffffffffffffffffffffffffffffffffffff161415611d01576040517f08c379a0000000000000000000000000000000000000000000000000000000008152600401611cf890615ce3565b60405180910390fd5b80915050919050565b600b60009054906101000a900473ffffffffffffffffffffffffffffffffffffffff1673ffffffffffffffffffffffffffffffffffffffff16611d4b61382c565b73ffffffffffffffffffffffffffffffffffffffff1614611da1576040517f08c379a0000000000000000000000000000000000000000000000000000000008152600401611d9890615b03565b60405180910390fd5b81601e8260ff1681548110611db957611db86165a6565b5b9060005260206000200160006101000a81548173ffffffffffffffffffffffffffffffffffffffff021916908373ffffffffffffffffffffffffffffffffffffffff1602179055505050565b600b60149054906101000a900460ff16611e54576040517f08c379a0000000000000000000000000000000000000000000000000000000008152600401611e4b90615be3565b60405180910390fd5b600b60009054906101000a900473ffffffffffffffffffffffffffffffffffffffff1673ffffffffffffffffffffffffffffffffffffffff16611e9561382c565b73ffffffffffffffffffffffffffffffffffffffff1614611f7557611eb9816119cb565b3414611efa576040517f08c379a0000000000000000000000000000000000000000000000000000000008152600401611ef190615b43565b60405180910390fd5b611f1b8160ff16601b60009054906101000a900461ffff1661ffff16613c32565b15611f6b57611f2b601a54613d04565b601a819055507f18d394ba347d8c318a1db51c85288b956d598b2925be44758ee6f2edb9e2a06b601a54604051611f629190615f35565b60405180910390a15b611f7434610bc0565b5b600a8160ff161115611fbc576040517f08c379a0000000000000000000000000000000000000000000000000000000008152600401611fb390615b23565b60405180910390fd5b601b60029054906101000a900461ffff1661ffff168160ff16601b60009054906101000a900461ffff16611ff09190616052565b61ffff161115612035576040517f08c379a000000000000000000000000000000000000000000000000000000000815260040161202c90615e43565b60405180910390fd5b60005b8160ff168160ff161015612395576001601b60008282829054906101000a900461ffff166120669190616052565b92506101000a81548161ffff021916908361ffff1602179055506120a561208b61382c565b601b60009054906101000a900461ffff1661ffff16613d12565b604051806101200160405280600161ffff168152602001600161ffff168152602001600161ffff168152602001600061ffff168152602001600061ffff168152602001600061ffff168152602001600061ffff168152602001600061ffff1681526020014263ffffffff1681525060196000601b60009054906101000a900461ffff1661ffff1661ffff16815260200190815260200160002060008201518160000160006101000a81548161ffff021916908361ffff16021790555060208201518160000160026101000a81548161ffff021916908361ffff16021790555060408201518160000160046101000a81548161ffff021916908361ffff16021790555060608201518160000160066101000a81548161ffff021916908361ffff16021790555060808201518160000160086101000a81548161ffff021916908361ffff16021790555060a082015181600001600a6101000a81548161ffff021916908361ffff16021790555060c082015181600001600c6101000a81548161ffff021916908361ffff16021790555060e082015181600001600e6101000a81548161ffff021916908361ffff1602179055506101008201518160000160106101000a81548163ffffffff021916908363ffffffff1602179055509050506122c1601b60059054906101000a900473ffffffffffffffffffffffffffffffffffffffff16601b60009054906101000a900461ffff1661ffff16613834565b7f140b33d985b194376cd7209902ffe7167129837ba3e921ef6c1d9952891cd9df6122ea61382c565b601b60009054906101000a900461ffff16604051612309929190615984565b60405180910390a1601b60029054906101000a900461ffff1661ffff16601b60009054906101000a900461ffff1661ffff161415612382577f47927ac1d62bc1ae14fb17e77de64b8e0de58d777adc50086ed8f24eb26e8e6460106040516123719190615ae1565b60405180910390a1612381613eec565b5b808061238d90616469565b915050612038565b5050565b600b60009054906101000a900473ffffffffffffffffffffffffffffffffffffffff1673ffffffffffffffffffffffffffffffffffffffff166123da61382c565b73ffffffffffffffffffffffffffffffffffffffff1614612430576040517f08c379a000000000000000000000000000000000000000000000000000000000815260040161242790615b03565b60405180910390fd5b80600b60006101000a81548173ffffffffffffffffffffffffffffffffffffffff021916908373ffffffffffffffffffffffffffffffffffffffff1602179055507f71614071b88dee5e0b2ae578a9dd7b2ebbe9ae832ba419dc0242cd065a290b6c816040516124a0919061591d565b60405180910390a150565b60008073ffffffffffffffffffffffffffffffffffffffff168273ffffffffffffffffffffffffffffffffffffffff16141561251c576040517f08c379a000000000000000000000000000000000000000000000000000000000815260040161251390615cc3565b60405180910390fd5b600360008373ffffffffffffffffffffffffffffffffffffffff1673ffffffffffffffffffffffffffffffffffffffff168152602001908152602001600020549050919050565b6000601b60059054906101000a900473ffffffffffffffffffffffffffffffffffffffff1673ffffffffffffffffffffffffffffffffffffffff166125a661382c565b73ffffffffffffffffffffffffffffffffffffffff16146125fc576040517f08c379a00000000000000000000000000000000000000000000000000000000081526004016125f390615da3565b60405180910390fd5b6126098261ffff166137c0565b612648576040517f08c379a000000000000000000000000000000000000000000000000000000000815260040161263f90615c83565b60405180910390fd5b6001601960008461ffff1661ffff16815260200190815260200160002060000160088282829054906101000a900461ffff166126849190616052565b92506101000a81548161ffff021916908361ffff1602179055507f4ba5871555e443387312c892526399fa9dae9e2389f32f85716a262af9734fbe82601960008561ffff1661ffff1681526020019081526020016000206040516126e9929190615e7e565b60405180910390a160019050919050565b6000601b60059054906101000a900473ffffffffffffffffffffffffffffffffffffffff1673ffffffffffffffffffffffffffffffffffffffff1661273d61382c565b73ffffffffffffffffffffffffffffffffffffffff1614612793576040517f08c379a000000000000000000000000000000000000000000000000000000000815260040161278a90615da3565b60405180910390fd5b6127a08361ffff166137c0565b6127df576040517f08c379a00000000000000000000000000000000000000000000000000000000081526004016127d690615c83565b60405180910390fd5b8160ff16601960008561ffff1661ffff16815260200190815260200160002060000160048282829054906101000a900461ffff1661281d9190616052565b92506101000a81548161ffff021916908361ffff1602179055507f4ba5871555e443387312c892526399fa9dae9e2389f32f85716a262af9734fbe83601960008661ffff1661ffff168152602001908152602001600020604051612882929190615e7e565b60405180910390a16001905092915050565b60006128a38261ffff166137c0565b6128e2576040517f08c379a00000000000000000000000000000000000000000000000000000000081526004016128d990615c83565b60405180910390fd5b601960008361ffff1661ffff16815260200190815260200160002060000160009054906101000a900461ffff169050919050565b60196020528060005260406000206000915090508060000160009054906101000a900461ffff16908060000160029054906101000a900461ffff16908060000160049054906101000a900461ffff16908060000160069054906101000a900461ffff16908060000160089054906101000a900461ffff169080600001600a9054906101000a900461ffff169080600001600c9054906101000a900461ffff169080600001600e9054906101000a900461ffff16908060000160109054906101000a900463ffffffff16905089565b600b60009054906101000a900473ffffffffffffffffffffffffffffffffffffffff1673ffffffffffffffffffffffffffffffffffffffff16612a2561382c565b73ffffffffffffffffffffffffffffffffffffffff1614612a7b576040517f08c379a0000000000000000000000000000000000000000000000000000000008152600401612a7290615b03565b60405180910390fd5b601160040160009054906101000a900473ffffffffffffffffffffffffffffffffffffffff1673ffffffffffffffffffffffffffffffffffffffff1663a9059cbb33601160040160009054906101000a900473ffffffffffffffffffffffffffffffffffffffff1673ffffffffffffffffffffffffffffffffffffffff166370a08231306040518263ffffffff1660e01b8152600401612b1b919061591d565b60206040518083038186803b158015612b3357600080fd5b505afa158015612b47573d6000803e3d6000fd5b505050506040513d601f19601f82011682018060405250810190612b6b919061508d565b6040518363ffffffff1660e01b8152600401612b889291906159ad565b602060405180830381600087803b158015612ba257600080fd5b505af1158015612bb6573d6000803e3d6000fd5b505050506040513d601f19601f82011682018060405250810190612bda9190614f2c565b50565b601160000160009054906101000a900473ffffffffffffffffffffffffffffffffffffffff1673ffffffffffffffffffffffffffffffffffffffff163373ffffffffffffffffffffffffffffffffffffffff1614612c70576040517f08c379a0000000000000000000000000000000000000000000000000000000008152600401612c6790615d63565b60405180910390fd5b612c7a8282614006565b5050565b606060018054612c8d906162a8565b80601f0160208091040260200160405190810160405280929190818152602001828054612cb9906162a8565b8015612d065780601f10612cdb57610100808354040283529160200191612d06565b820191906000526020600020905b815481529060010190602001808311612ce957829003601f168201915b5050505050905090565b6000601b60059054906101000a900473ffffffffffffffffffffffffffffffffffffffff1673ffffffffffffffffffffffffffffffffffffffff16612d5361382c565b73ffffffffffffffffffffffffffffffffffffffff1614612da9576040517f08c379a0000000000000000000000000000000000000000000000000000000008152600401612da090615da3565b60405180910390fd5b612db68261ffff166137c0565b612df5576040517f08c379a0000000000000000000000000000000000000000000000000000000008152600401612dec90615c83565b60405180910390fd5b6001601960008461ffff1661ffff168152602001908152602001600020600001600a8282829054906101000a900461ffff16612e319190616052565b92506101000a81548161ffff021916908361ffff1602179055507f4ba5871555e443387312c892526399fa9dae9e2389f32f85716a262af9734fbe82601960008561ffff1661ffff168152602001908152602001600020604051612e96929190615e7e565b60405180910390a160019050919050565b612eb9612eb261382c565b838361407c565b5050565b600b60009054906101000a900473ffffffffffffffffffffffffffffffffffffffff1673ffffffffffffffffffffffffffffffffffffffff16612efe61382c565b73ffffffffffffffffffffffffffffffffffffffff1614612f54576040517f08c379a0000000000000000000000000000000000000000000000000000000008152600401612f4b90615b03565b60405180910390fd5b6001601b60046101000a81548160ff021916908315150217905550565b6000601b60059054906101000a900473ffffffffffffffffffffffffffffffffffffffff1673ffffffffffffffffffffffffffffffffffffffff16612fb461382c565b73ffffffffffffffffffffffffffffffffffffffff161461300a576040517f08c379a000000000000000000000000000000000000000000000000000000000815260040161300190615da3565b60405180910390fd5b6130178361ffff166137c0565b613056576040517f08c379a000000000000000000000000000000000000000000000000000000000815260040161304d90615c83565b60405180910390fd5b8160ff16601960008561ffff1661ffff16815260200190815260200160002060000160028282829054906101000a900461ffff166130949190616052565b92506101000a81548161ffff021916908361ffff1602179055507f4ba5871555e443387312c892526399fa9dae9e2389f32f85716a262af9734fbe83601960008661ffff1661ffff1681526020019081526020016000206040516130f9929190615e7e565b60405180910390a16001905092915050565b61311c61311661382c565b836138ed565b61315b576040517f08c379a000000000000000000000000000000000000000000000000000000000815260040161315290615de3565b60405180910390fd5b613167848484846141e9565b50505050565b6000601b60059054906101000a900473ffffffffffffffffffffffffffffffffffffffff1673ffffffffffffffffffffffffffffffffffffffff166131b061382c565b73ffffffffffffffffffffffffffffffffffffffff1614613206576040517f08c379a00000000000000000000000000000000000000000000000000000000081526004016131fd90615da3565b60405180910390fd5b6132138361ffff166137c0565b613252576040517f08c379a000000000000000000000000000000000000000000000000000000000815260040161324990615c83565b60405180910390fd5b8160ff16601960008561ffff1661ffff16815260200190815260200160002060000160008282829054906101000a900461ffff166132909190616052565b92506101000a81548161ffff021916908361ffff1602179055507f4ba5871555e443387312c892526399fa9dae9e2389f32f85716a262af9734fbe83601960008661ffff1661ffff1681526020019081526020016000206040516132f5929190615e7e565b60405180910390a16001905092915050565b6060613312826137c0565b613351576040517f08c379a000000000000000000000000000000000000000000000000000000000815260040161334890615d43565b60405180910390fd5b600061335b614245565b9050600081511161337b57604051806020016040528060008152506133a6565b806133858461425c565b60405160200161339692919061587c565b6040516020818303038152906040525b915050919050565b60006133bd8261ffff166137c0565b6133fc576040517f08c379a00000000000000000000000000000000000000000000000000000000081526004016133f390615c83565b60405180910390fd5b601960008361ffff1661ffff16815260200190815260200160002060000160049054906101000a900461ffff169050919050565b600b60009054906101000a900473ffffffffffffffffffffffffffffffffffffffff1673ffffffffffffffffffffffffffffffffffffffff1661347161382c565b73ffffffffffffffffffffffffffffffffffffffff16146134c7576040517f08c379a00000000000000000000000000000000000000000000000000000000081526004016134be90615b03565b60405180910390fd5b80601b60056101000a81548173ffffffffffffffffffffffffffffffffffffffff021916908373ffffffffffffffffffffffffffffffffffffffff1602179055507f7b4f10014c23ea33ab4f8cc59c583fa422eca3392c456380a9e6a52be139f40781604051613537919061591d565b60405180910390a150565b60606135518261ffff166137c0565b613590576040517f08c379a000000000000000000000000000000000000000000000000000000000815260040161358790615c83565b60405180910390fd5b601b60049054906101000a900460ff166135cf57600c600f6040516020016135b99291906158a0565b604051602081830303815290604052905061361a565b600c600d836040516020016135e49190615902565b604051602081830303815290604052600e60405160200161360894939291906158c4565b60405160208183030381529060405290505b919050565b6000600560008473ffffffffffffffffffffffffffffffffffffffff1673ffffffffffffffffffffffffffffffffffffffff16815260200190815260200160002060008373ffffffffffffffffffffffffffffffffffffffff1673ffffffffffffffffffffffffffffffffffffffff16815260200190815260200160002060009054906101000a900460ff16905092915050565b600b60009054906101000a900473ffffffffffffffffffffffffffffffffffffffff1681565b505050565b60007f80ac58cd000000000000000000000000000000000000000000000000000000007bffffffffffffffffffffffffffffffffffffffffffffffffffffffff1916827bffffffffffffffffffffffffffffffffffffffffffffffffffffffff191614806137a957507f5b5e139f000000000000000000000000000000000000000000000000000000007bffffffffffffffffffffffffffffffffffffffffffffffffffffffff1916827bffffffffffffffffffffffffffffffffffffffffffffffffffffffff1916145b806137b957506137b8826143bd565b5b9050919050565b60008073ffffffffffffffffffffffffffffffffffffffff166002600084815260200190815260200160002060009054906101000a900473ffffffffffffffffffffffffffffffffffffffff1673ffffffffffffffffffffffffffffffffffffffff1614159050919050565b600033905090565b816004600083815260200190815260200160002060006101000a81548173ffffffffffffffffffffffffffffffffffffffff021916908373ffffffffffffffffffffffffffffffffffffffff160217905550808273ffffffffffffffffffffffffffffffffffffffff166138a783611c58565b73ffffffffffffffffffffffffffffffffffffffff167f8c5be1e5ebec7d5bd14f71427d1e84f3dd0314c0f7b2291e5b200ac8c7c3b92560405160405180910390a45050565b60006138f8826137c0565b613937576040517f08c379a000000000000000000000000000000000000000000000000000000000815260040161392e90615c43565b60405180910390fd5b600061394283611c58565b90508073ffffffffffffffffffffffffffffffffffffffff168473ffffffffffffffffffffffffffffffffffffffff1614806139b157508373ffffffffffffffffffffffffffffffffffffffff1661399984610ee4565b73ffffffffffffffffffffffffffffffffffffffff16145b806139c257506139c1818561361f565b5b91505092915050565b8273ffffffffffffffffffffffffffffffffffffffff166139eb82611c58565b73ffffffffffffffffffffffffffffffffffffffff1614613a41576040517f08c379a0000000000000000000000000000000000000000000000000000000008152600401613a3890615ba3565b60405180910390fd5b600073ffffffffffffffffffffffffffffffffffffffff168273ffffffffffffffffffffffffffffffffffffffff161415613ab1576040517f08c379a0000000000000000000000000000000000000000000000000000000008152600401613aa890615c03565b60405180910390fd5b613abc838383614427565b613ac7600082613834565b6001600360008573ffffffffffffffffffffffffffffffffffffffff1673ffffffffffffffffffffffffffffffffffffffff1681526020019081526020016000206000828254613b17919061616b565b925050819055506001600360008473ffffffffffffffffffffffffffffffffffffffff1673ffffffffffffffffffffffffffffffffffffffff1681526020019081526020016000206000828254613b6e919061608a565b92505081905550816002600083815260200190815260200160002060006101000a81548173ffffffffffffffffffffffffffffffffffffffff021916908373ffffffffffffffffffffffffffffffffffffffff160217905550808273ffffffffffffffffffffffffffffffffffffffff168473ffffffffffffffffffffffffffffffffffffffff167fddf252ad1be2c89b69c2b068fc378daa952ba7f163c4a11628f55a4df523b3ef60405160405180910390a4613c2d83838361453b565b505050565b60006103e88383613c43919061608a565b1015613c525760009050613c95565b60006103e88484613c63919061608a565b613c6d91906164b9565b905060008110158015613c805750600a81105b15613c8f576001915050613c95565b60009150505b92915050565b60008060005b84811015613cfc57613cbf600182613cb9919061608a565b85613c32565b15613ce957600181613cd1919061608a565b92508260ff1685613ce2919061616b565b9150613cfc565b8080613cf490616420565b915050613ca1565b509250929050565b6000600182901b9050919050565b600073ffffffffffffffffffffffffffffffffffffffff168273ffffffffffffffffffffffffffffffffffffffff161415613d82576040517f08c379a0000000000000000000000000000000000000000000000000000000008152600401613d7990615d03565b60405180910390fd5b613d8b816137c0565b15613dcb576040517f08c379a0000000000000000000000000000000000000000000000000000000008152600401613dc290615bc3565b60405180910390fd5b613dd760008383614427565b6001600360008473ffffffffffffffffffffffffffffffffffffffff1673ffffffffffffffffffffffffffffffffffffffff1681526020019081526020016000206000828254613e27919061608a565b92505081905550816002600083815260200190815260200160002060006101000a81548173ffffffffffffffffffffffffffffffffffffffff021916908373ffffffffffffffffffffffffffffffffffffffff160217905550808273ffffffffffffffffffffffffffffffffffffffff16600073ffffffffffffffffffffffffffffffffffffffff167fddf252ad1be2c89b69c2b068fc378daa952ba7f163c4a11628f55a4df523b3ef60405160405180910390a4613ee86000838361453b565b5050565b601160030154601160040160009054906101000a900473ffffffffffffffffffffffffffffffffffffffff1673ffffffffffffffffffffffffffffffffffffffff166370a08231306040518263ffffffff1660e01b8152600401613f50919061591d565b60206040518083038186803b158015613f6857600080fd5b505afa158015613f7c573d6000803e3d6000fd5b505050506040513d601f19601f82011682018060405250810190613fa0919061508d565b1015613fe1576040517f08c379a0000000000000000000000000000000000000000000000000000000008152600401613fd890615dc3565b60405180910390fd5b6000613ff7601160020154601160030154614540565b90508060116007018190555050565b601160070154821461401757600080fd5b80601160050181905550600061271060116005015461403691906164b9565b90507fb75047a36befaef84e90ca4c55f0673352e2942c569d5726c6cf463a043903f261406282611c58565b60405161406f919061591d565b60405180910390a1505050565b8173ffffffffffffffffffffffffffffffffffffffff168373ffffffffffffffffffffffffffffffffffffffff1614156140eb576040517f08c379a00000000000000000000000000000000000000000000000000000000081526004016140e290615c23565b60405180910390fd5b80600560008573ffffffffffffffffffffffffffffffffffffffff1673ffffffffffffffffffffffffffffffffffffffff16815260200190815260200160002060008473ffffffffffffffffffffffffffffffffffffffff1673ffffffffffffffffffffffffffffffffffffffff16815260200190815260200160002060006101000a81548160ff0219169083151502179055508173ffffffffffffffffffffffffffffffffffffffff168373ffffffffffffffffffffffffffffffffffffffff167f17307eab39ab6107e8899845ad3d59bd9653f200f220920489ca2b5937696c31836040516141dc9190615a36565b60405180910390a3505050565b6141f48484846139cb565b614200848484846146b8565b61423f576040517f08c379a000000000000000000000000000000000000000000000000000000000815260040161423690615b83565b60405180910390fd5b50505050565b606060405180602001604052806000815250905090565b606060008214156142a4576040518060400160405280600181526020017f300000000000000000000000000000000000000000000000000000000000000081525090506143b8565b600082905060005b600082146142d65780806142bf90616420565b915050600a826142cf91906160e0565b91506142ac565b60008167ffffffffffffffff8111156142f2576142f16165d5565b5b6040519080825280601f01601f1916602001820160405280156143245781602001600182028036833780820191505090505b5090505b600085146143b15760018261433d919061616b565b9150600a8561434c91906164b9565b6030614358919061608a565b60f81b81838151811061436e5761436d6165a6565b5b60200101907effffffffffffffffffffffffffffffffffffffffffffffffffffffffffffff1916908160001a905350600a856143aa91906160e0565b9450614328565b8093505050505b919050565b60007f01ffc9a7000000000000000000000000000000000000000000000000000000007bffffffffffffffffffffffffffffffffffffffffffffffffffffffff1916827bffffffffffffffffffffffffffffffffffffffffffffffffffffffff1916149050919050565b6144328383836136d9565b600073ffffffffffffffffffffffffffffffffffffffff168373ffffffffffffffffffffffffffffffffffffffff161415614475576144708161484f565b6144b4565b8173ffffffffffffffffffffffffffffffffffffffff168373ffffffffffffffffffffffffffffffffffffffff16146144b3576144b28382614898565b5b5b600073ffffffffffffffffffffffffffffffffffffffff168273ffffffffffffffffffffffffffffffffffffffff1614156144f7576144f281614a05565b614536565b8273ffffffffffffffffffffffffffffffffffffffff168273ffffffffffffffffffffffffffffffffffffffff1614614535576145348282614ad6565b5b5b505050565b505050565b6000601160040160009054906101000a900473ffffffffffffffffffffffffffffffffffffffff1673ffffffffffffffffffffffffffffffffffffffff16634000aea0601160000160009054906101000a900473ffffffffffffffffffffffffffffffffffffffff16848660006040516020016145be929190615a51565b6040516020818303038152906040526040518463ffffffff1660e01b81526004016145eb939291906159d6565b602060405180830381600087803b15801561460557600080fd5b505af1158015614619573d6000803e3d6000fd5b505050506040513d601f19601f8201168201806040525081019061463d9190614f2c565b506000614663846000306011600601600089815260200190815260200160002054614b55565b905060016011600601600086815260200190815260200160002054614688919061608a565b601160060160008681526020019081526020016000208190555060006146ae8583614b91565b9050505092915050565b60006146d98473ffffffffffffffffffffffffffffffffffffffff16614bc4565b15614842578373ffffffffffffffffffffffffffffffffffffffff1663150b7a0261470261382c565b8786866040518563ffffffff1660e01b81526004016147249493929190615938565b602060405180830381600087803b15801561473e57600080fd5b505af192505050801561476f57506040513d601f19601f8201168201806040525081019061476c9190614fc6565b60015b6147f2573d806000811461479f576040519150601f19603f3d011682016040523d82523d6000602084013e6147a4565b606091505b506000815114156147ea576040517f08c379a00000000000000000000000000000000000000000000000000000000081526004016147e190615b83565b60405180910390fd5b805181602001fd5b63150b7a0260e01b7bffffffffffffffffffffffffffffffffffffffffffffffffffffffff1916817bffffffffffffffffffffffffffffffffffffffffffffffffffffffff191614915050614847565b600190505b949350505050565b6008805490506009600083815260200190815260200160002081905550600881908060018154018082558091505060019003906000526020600020016000909190919091505550565b600060016148a5846124ab565b6148af919061616b565b9050600060076000848152602001908152602001600020549050818114614994576000600660008673ffffffffffffffffffffffffffffffffffffffff1673ffffffffffffffffffffffffffffffffffffffff168152602001908152602001600020600084815260200190815260200160002054905080600660008773ffffffffffffffffffffffffffffffffffffffff1673ffffffffffffffffffffffffffffffffffffffff168152602001908152602001600020600084815260200190815260200160002081905550816007600083815260200190815260200160002081905550505b6007600084815260200190815260200160002060009055600660008573ffffffffffffffffffffffffffffffffffffffff1673ffffffffffffffffffffffffffffffffffffffff16815260200190815260200160002060008381526020019081526020016000206000905550505050565b60006001600880549050614a19919061616b565b9050600060096000848152602001908152602001600020549050600060088381548110614a4957614a486165a6565b5b906000526020600020015490508060088381548110614a6b57614a6a6165a6565b5b906000526020600020018190555081600960008381526020019081526020016000208190555060096000858152602001908152602001600020600090556008805480614aba57614ab9616577565b5b6001900381819060005260206000200160009055905550505050565b6000614ae1836124ab565b905081600660008573ffffffffffffffffffffffffffffffffffffffff1673ffffffffffffffffffffffffffffffffffffffff168152602001908152602001600020600083815260200190815260200160002081905550806007600084815260200190815260200160002081905550505050565b600084848484604051602001614b6e9493929190615a7a565b6040516020818303038152906040528051906020012060001c9050949350505050565b60008282604051602001614ba6929190615850565b60405160208183030381529060405280519060200120905092915050565b6000808273ffffffffffffffffffffffffffffffffffffffff163b119050919050565b6000614bfa614bf584615f90565b615f6b565b905082815260208101848484011115614c1657614c15616609565b5b614c21848285616266565b509392505050565b600081359050614c3881616d38565b92915050565b600081359050614c4d81616d4f565b92915050565b600081519050614c6281616d4f565b92915050565b600081359050614c7781616d66565b92915050565b600081359050614c8c81616d7d565b92915050565b600081519050614ca181616d7d565b92915050565b600082601f830112614cbc57614cbb616604565b5b8135614ccc848260208601614be7565b91505092915050565b600081359050614ce481616d94565b92915050565b600081359050614cf981616dab565b92915050565b600081519050614d0e81616dab565b92915050565b600081359050614d2381616dc2565b92915050565b600060208284031215614d3f57614d3e616613565b5b6000614d4d84828501614c29565b91505092915050565b60008060408385031215614d6d57614d6c616613565b5b6000614d7b85828601614c29565b9250506020614d8c85828601614c29565b9150509250929050565b600080600060608486031215614daf57614dae616613565b5b6000614dbd86828701614c29565b9350506020614dce86828701614c29565b9250506040614ddf86828701614cea565b9150509250925092565b60008060008060808587031215614e0357614e02616613565b5b6000614e1187828801614c29565b9450506020614e2287828801614c29565b9350506040614e3387828801614cea565b925050606085013567ffffffffffffffff811115614e5457614e5361660e565b5b614e6087828801614ca7565b91505092959194509250565b60008060408385031215614e8357614e82616613565b5b6000614e9185828601614c29565b9250506020614ea285828601614c3e565b9150509250929050565b60008060408385031215614ec357614ec2616613565b5b6000614ed185828601614c29565b9250506020614ee285828601614cea565b9150509250929050565b60008060408385031215614f0357614f02616613565b5b6000614f1185828601614c29565b9250506020614f2285828601614d14565b9150509250929050565b600060208284031215614f4257614f41616613565b5b6000614f5084828501614c53565b91505092915050565b60008060408385031215614f7057614f6f616613565b5b6000614f7e85828601614c68565b9250506020614f8f85828601614cea565b9150509250929050565b600060208284031215614faf57614fae616613565b5b6000614fbd84828501614c7d565b91505092915050565b600060208284031215614fdc57614fdb616613565b5b6000614fea84828501614c92565b91505092915050565b60006020828403121561500957615008616613565b5b600061501784828501614cd5565b91505092915050565b6000806040838503121561503757615036616613565b5b600061504585828601614cd5565b925050602061505685828601614d14565b9150509250929050565b60006020828403121561507657615075616613565b5b600061508484828501614cea565b91505092915050565b6000602082840312156150a3576150a2616613565b5b60006150b184828501614cff565b91505092915050565b6000602082840312156150d0576150cf616613565b5b60006150de84828501614d14565b91505092915050565b60006150f383836157d7565b60208301905092915050565b615108816161bd565b82525050565b600061511982615fe6565b6151238185616014565b935061512e83615fc1565b8060005b8381101561515f57815161514688826150e7565b975061515183616007565b925050600181019050615132565b5085935050505092915050565b615175816161cf565b82525050565b615184816161db565b82525050565b61519b615196826161db565b616493565b82525050565b60006151ac82615ff1565b6151b68185616025565b93506151c6818560208601616275565b6151cf81616618565b840191505092915050565b60006151e582615ffc565b6151ef8185616036565b93506151ff818560208601616275565b61520881616618565b840191505092915050565b600061521e82615ffc565b6152288185616047565b9350615238818560208601616275565b80840191505092915050565b60008154615251816162a8565b61525b8186616036565b945060018216600081146152765760018114615288576152bb565b60ff19831686526020860193506152bb565b61529185615fd1565b60005b838110156152b357815481890152600182019150602081019050615294565b808801955050505b50505092915050565b600081546152d1816162a8565b6152db8186616047565b945060018216600081146152f657600181146153075761533a565b60ff1983168652818601935061533a565b61531085615fd1565b60005b8381101561533257815481890152600182019150602081019050615313565b838801955050505b50505092915050565b6000615350600683616036565b915061535b826166ab565b602082019050919050565b6000615373601f83616036565b915061537e826166d4565b602082019050919050565b6000615396601583616036565b91506153a1826166fd565b602082019050919050565b60006153b9602b83616036565b91506153c482616726565b604082019050919050565b60006153dc603283616036565b91506153e782616775565b604082019050919050565b60006153ff602583616036565b915061540a826167c4565b604082019050919050565b6000615422601c83616036565b915061542d82616813565b602082019050919050565b6000615445602883616036565b91506154508261683c565b604082019050919050565b6000615468602483616036565b91506154738261688b565b604082019050919050565b600061548b601983616036565b9150615496826168da565b602082019050919050565b60006154ae602c83616036565b91506154b982616903565b604082019050919050565b60006154d1602083616036565b91506154dc82616952565b602082019050919050565b60006154f4601983616036565b91506154ff8261697b565b602082019050919050565b6000615517603883616036565b9150615522826169a4565b604082019050919050565b600061553a602a83616036565b9150615545826169f3565b604082019050919050565b600061555d602983616036565b915061556882616a42565b604082019050919050565b6000615580602083616036565b915061558b82616a91565b602082019050919050565b60006155a3602c83616036565b91506155ae82616aba565b604082019050919050565b60006155c6602f83616036565b91506155d182616b09565b604082019050919050565b60006155e9601f83616036565b91506155f482616b58565b602082019050919050565b600061560c602183616036565b915061561782616b81565b604082019050919050565b600061562f600783616036565b915061563a82616bd0565b602082019050919050565b6000615652601783616036565b915061565d82616bf9565b602082019050919050565b6000615675603183616036565b915061568082616c22565b604082019050919050565b6000615698602c83616036565b91506156a382616c71565b604082019050919050565b60006156bb601583616036565b91506156c682616cc0565b602082019050919050565b60006156de602483616036565b91506156e982616ce9565b604082019050919050565b6101208201600080830154905061570a816162da565b61571760008601826157d7565b506157218161635c565b61572e60208601826157d7565b5061573881616376565b61574560408601826157d7565b5061574f81616390565b61575c60608601826157d7565b50615766816163aa565b61577360808601826157d7565b5061577d816162f4565b61578a60a08601826157d7565b506157948161630e565b6157a160c08601826157d7565b506157ab81616328565b6157b860e08601826157d7565b506157c281616342565b6157d0610100860182615832565b5050505050565b6157e081616211565b82525050565b6157ef81616211565b82525050565b61580661580182616211565b61649d565b82525050565b6158158161623f565b82525050565b61582c6158278261623f565b6164af565b82525050565b61583b81616249565b82525050565b61584a81616249565b82525050565b600061585c828561518a565b60208201915061586c828461581b565b6020820191508190509392505050565b60006158888285615213565b91506158948284615213565b91508190509392505050565b60006158ac82856152c4565b91506158b882846152c4565b91508190509392505050565b60006158d082876152c4565b91506158dc82866152c4565b91506158e88285615213565b91506158f482846152c4565b915081905095945050505050565b600061590e82846157f5565b60028201915081905092915050565b600060208201905061593260008301846150ff565b92915050565b600060808201905061594d60008301876150ff565b61595a60208301866150ff565b615967604083018561580c565b818103606083015261597981846151a1565b905095945050505050565b600060408201905061599960008301856150ff565b6159a660208301846157e6565b9392505050565b60006040820190506159c260008301856150ff565b6159cf602083018461580c565b9392505050565b60006060820190506159eb60008301866150ff565b6159f8602083018561580c565b8181036040830152615a0a81846151a1565b9050949350505050565b60006020820190508181036000830152615a2e818461510e565b905092915050565b6000602082019050615a4b600083018461516c565b92915050565b6000604082019050615a66600083018561517b565b615a73602083018461580c565b9392505050565b6000608082019050615a8f600083018761517b565b615a9c602083018661580c565b615aa960408301856150ff565b615ab6606083018461580c565b95945050505050565b60006020820190508181036000830152615ad981846151da565b905092915050565b60006020820190508181036000830152615afb8184615244565b905092915050565b60006020820190508181036000830152615b1c81615343565b9050919050565b60006020820190508181036000830152615b3c81615366565b9050919050565b60006020820190508181036000830152615b5c81615389565b9050919050565b60006020820190508181036000830152615b7c816153ac565b9050919050565b60006020820190508181036000830152615b9c816153cf565b9050919050565b60006020820190508181036000830152615bbc816153f2565b9050919050565b60006020820190508181036000830152615bdc81615415565b9050919050565b60006020820190508181036000830152615bfc81615438565b9050919050565b60006020820190508181036000830152615c1c8161545b565b9050919050565b60006020820190508181036000830152615c3c8161547e565b9050919050565b60006020820190508181036000830152615c5c816154a1565b9050919050565b60006020820190508181036000830152615c7c816154c4565b9050919050565b60006020820190508181036000830152615c9c816154e7565b9050919050565b60006020820190508181036000830152615cbc8161550a565b9050919050565b60006020820190508181036000830152615cdc8161552d565b9050919050565b60006020820190508181036000830152615cfc81615550565b9050919050565b60006020820190508181036000830152615d1c81615573565b9050919050565b60006020820190508181036000830152615d3c81615596565b9050919050565b60006020820190508181036000830152615d5c816155b9565b9050919050565b60006020820190508181036000830152615d7c816155dc565b9050919050565b60006020820190508181036000830152615d9c816155ff565b9050919050565b60006020820190508181036000830152615dbc81615622565b9050919050565b60006020820190508181036000830152615ddc81615645565b9050919050565b60006020820190508181036000830152615dfc81615668565b9050919050565b60006020820190508181036000830152615e1c8161568b565b9050919050565b60006020820190508181036000830152615e3c816156ae565b9050919050565b60006020820190508181036000830152615e5c816156d1565b9050919050565b6000602082019050615e7860008301846157e6565b92915050565b600061014082019050615e9460008301856157e6565b615ea160208301846156f4565b9392505050565b600061012082019050615ebe600083018c6157e6565b615ecb602083018b6157e6565b615ed8604083018a6157e6565b615ee560608301896157e6565b615ef260808301886157e6565b615eff60a08301876157e6565b615f0c60c08301866157e6565b615f1960e08301856157e6565b615f27610100830184615841565b9a9950505050505050505050565b6000602082019050615f4a600083018461580c565b92915050565b6000602082019050615f656000830184615841565b92915050565b6000615f75615f86565b9050615f8182826163c4565b919050565b6000604051905090565b600067ffffffffffffffff821115615fab57615faa6165d5565b5b615fb482616618565b9050602081019050919050565b6000819050602082019050919050565b60008190508160005260206000209050919050565b600081519050919050565b600081519050919050565b600081519050919050565b6000602082019050919050565b600082825260208201905092915050565b600082825260208201905092915050565b600082825260208201905092915050565b600081905092915050565b600061605d82616211565b915061606883616211565b92508261ffff0382111561607f5761607e6164ea565b5b828201905092915050565b60006160958261623f565b91506160a08361623f565b9250827fffffffffffffffffffffffffffffffffffffffffffffffffffffffffffffffff038211156160d5576160d46164ea565b5b828201905092915050565b60006160eb8261623f565b91506160f68361623f565b92508261610657616105616519565b5b828204905092915050565b600061611c8261623f565b91506161278361623f565b9250817fffffffffffffffffffffffffffffffffffffffffffffffffffffffffffffffff04831182151516156161605761615f6164ea565b5b828202905092915050565b60006161768261623f565b91506161818361623f565b925082821015616194576161936164ea565b5b828203905092915050565b600061ffff82169050919050565b600063ffffffff82169050919050565b60006161c88261621f565b9050919050565b60008115159050919050565b6000819050919050565b60007fffffffff0000000000000000000000000000000000000000000000000000000082169050919050565b600061ffff82169050919050565b600073ffffffffffffffffffffffffffffffffffffffff82169050919050565b6000819050919050565b600063ffffffff82169050919050565b600060ff82169050919050565b82818337600083830152505050565b60005b83811015616293578082015181840152602081019050616278565b838111156162a2576000848401525b50505050565b600060028204905060018216806162c057607f821691505b602082108114156162d4576162d3616548565b5b50919050565b60006162ed6162e883616636565b61619f565b9050919050565b600061630761630283616691565b61619f565b9050919050565b600061632161631c8361669e565b61619f565b9050919050565b600061633b61633683616643565b61619f565b9050919050565b600061635561635083616650565b6161ad565b9050919050565b600061636f61636a8361665d565b61619f565b9050919050565b60006163896163848361666a565b61619f565b9050919050565b60006163a361639e83616677565b61619f565b9050919050565b60006163bd6163b883616684565b61619f565b9050919050565b6163cd82616618565b810181811067ffffffffffffffff821117156163ec576163eb6165d5565b5b80604052505050565b600061640082616211565b915061ffff821415616415576164146164ea565b5b600182019050919050565b600061642b8261623f565b91507fffffffffffffffffffffffffffffffffffffffffffffffffffffffffffffffff82141561645e5761645d6164ea565b5b600182019050919050565b600061647482616259565b915060ff821415616488576164876164ea565b5b600182019050919050565b6000819050919050565b60006164a882616629565b9050919050565b6000819050919050565b60006164c48261623f565b91506164cf8361623f565b9250826164df576164de616519565b5b828206905092915050565b7f4e487b7100000000000000000000000000000000000000000000000000000000600052601160045260246000fd5b7f4e487b7100000000000000000000000000000000000000000000000000000000600052601260045260246000fd5b7f4e487b7100000000000000000000000000000000000000000000000000000000600052602260045260246000fd5b7f4e487b7100000000000000000000000000000000000000000000000000000000600052603160045260246000fd5b7f4e487b7100000000000000000000000000000000000000000000000000000000600052603260045260246000fd5b7f4e487b7100000000000000000000000000000000000000000000000000000000600052604160045260246000fd5b600080fd5b600080fd5b600080fd5b600080fd5b6000601f19601f8301169050919050565b60008160f01b9050919050565b60008160001c9050919050565b60008160701c9050919050565b60008160801c9050919050565b60008160101c9050919050565b60008160201c9050919050565b60008160301c9050919050565b60008160401c9050919050565b60008160501c9050919050565b60008160601c9050919050565b7f4f6e6c7920410000000000000000000000000000000000000000000000000000600082015250565b7f596f752061726520747279696e6720746f206d696e7420746f6f206d616e7900600082015250565b7f4e6f7420656e6f7567682066756e64732073656e740000000000000000000000600082015250565b7f455243373231456e756d657261626c653a206f776e657220696e646578206f7560008201527f74206f6620626f756e6473000000000000000000000000000000000000000000602082015250565b7f4552433732313a207472616e7366657220746f206e6f6e20455243373231526560008201527f63656976657220696d706c656d656e7465720000000000000000000000000000602082015250565b7f4552433732313a207472616e736665722066726f6d20696e636f72726563742060008201527f6f776e6572000000000000000000000000000000000000000000000000000000602082015250565b7f4552433732313a20746f6b656e20616c7265616479206d696e74656400000000600082015250565b7f546869732066756e6374696f6e206973206e6f7420617661696c61626c65207260008201527f69676874206e6f77000000000000000000000000000000000000000000000000602082015250565b7f4552433732313a207472616e7366657220746f20746865207a65726f2061646460008201527f7265737300000000000000000000000000000000000000000000000000000000602082015250565b7f4552433732313a20617070726f766520746f2063616c6c657200000000000000600082015250565b7f4552433732313a206f70657261746f7220717565727920666f72206e6f6e657860008201527f697374656e7420746f6b656e0000000000000000000000000000000000000000602082015250565b7f436f6e74726163742062616c616e636520697320696e73756666696369656e74600082015250565b7f5468697320746f6b656e20646f6573206e6f7420657869737400000000000000600082015250565b7f4552433732313a20617070726f76652063616c6c6572206973206e6f74206f7760008201527f6e6572206e6f7220617070726f76656420666f7220616c6c0000000000000000602082015250565b7f4552433732313a2062616c616e636520717565727920666f7220746865207a6560008201527f726f206164647265737300000000000000000000000000000000000000000000602082015250565b7f4552433732313a206f776e657220717565727920666f72206e6f6e657869737460008201527f656e7420746f6b656e0000000000000000000000000000000000000000000000602082015250565b7f4552433732313a206d696e7420746f20746865207a65726f2061646472657373600082015250565b7f4552433732313a20617070726f76656420717565727920666f72206e6f6e657860008201527f697374656e7420746f6b656e0000000000000000000000000000000000000000602082015250565b7f4552433732314d657461646174613a2055524920717565727920666f72206e6f60008201527f6e6578697374656e7420746f6b656e0000000000000000000000000000000000602082015250565b7f4f6e6c7920565246436f6f7264696e61746f722063616e2066756c66696c6c00600082015250565b7f4552433732313a20617070726f76616c20746f2063757272656e74206f776e6560008201527f7200000000000000000000000000000000000000000000000000000000000000602082015250565b7f6f6e6c7920474300000000000000000000000000000000000000000000000000600082015250565b7f4e6f7420656e6f756768204c494e4b2062616c616e6365000000000000000000600082015250565b7f4552433732313a207472616e736665722063616c6c6572206973206e6f74206f60008201527f776e6572206e6f7220617070726f766564000000000000000000000000000000602082015250565b7f455243373231456e756d657261626c653a20676c6f62616c20696e646578206f60008201527f7574206f6620626f756e64730000000000000000000000000000000000000000602082015250565b7f546f6f2068696768206f6620616e20616d6f756e740000000000000000000000600082015250565b7f596f752063616e206e6f74206d696e74206d6f7265207468616e20746865206c60008201527f696d697400000000000000000000000000000000000000000000000000000000602082015250565b616d41816161bd565b8114616d4c57600080fd5b50565b616d58816161cf565b8114616d6357600080fd5b50565b616d6f816161db565b8114616d7a57600080fd5b50565b616d86816161e5565b8114616d9157600080fd5b50565b616d9d81616211565b8114616da857600080fd5b50565b616db48161623f565b8114616dbf57600080fd5b50565b616dcb81616259565b8114616dd657600080fd5b5056fea2646970667358221220afcf08b44ba3b083530aeea7301b846f9537f707b4a7cf9a283269cae1fe248c64736f6c63430008070033",
  "linkReferences": {},
  "deployedLinkReferences": {}
}