{
  "_format": "hh-sol-artifact-1",
  "contractName": "Minter",
  "sourceName": "contracts/minter.sol",
  "abi": [
    {
      "inputs": [
        {
          "internalType": "address[]",
          "name": "_rewardedAddresses",
          "type": "address[]"
        },
        {
          "internalType": "address[]",
          "name": "_paymentsTo",
          "type": "address[]"
        },
        {
          "internalType": "address",
          "name": "_vrfCoordinator",
          "type": "address"
        },
        {
          "internalType": "address",
          "name": "_linkToken",
          "type": "address"
        },
        {
          "internalType": "bytes32",
          "name": "_keyHash",
          "type": "bytes32"
        },
        {
          "internalType": "uint256",
          "name": "_OracleFee",
          "type": "uint256"
        }
      ],
      "stateMutability": "nonpayable",
      "type": "constructor"
    },
    {
      "anonymous": false,
      "inputs": [
        {
          "indexed": true,
          "internalType": "address",
          "name": "owner",
          "type": "address"
        },
        {
          "indexed": true,
          "internalType": "address",
          "name": "approved",
          "type": "address"
        },
        {
          "indexed": true,
          "internalType": "uint256",
          "name": "tokenId",
          "type": "uint256"
        }
      ],
      "name": "Approval",
      "type": "event"
    },
    {
      "anonymous": false,
      "inputs": [
        {
          "indexed": true,
          "internalType": "address",
          "name": "owner",
          "type": "address"
        },
        {
          "indexed": true,
          "internalType": "address",
          "name": "operator",
          "type": "address"
        },
        {
          "indexed": false,
          "internalType": "bool",
          "name": "approved",
          "type": "bool"
        }
      ],
      "name": "ApprovalForAll",
      "type": "event"
    },
    {
      "anonymous": false,
      "inputs": [
        {
          "indexed": false,
          "internalType": "address",
          "name": "winner",
          "type": "address"
        }
      ],
      "name": "PorscheWinner",
      "type": "event"
    },
    {
      "anonymous": false,
      "inputs": [
        {
          "indexed": true,
          "internalType": "address",
          "name": "from",
          "type": "address"
        },
        {
          "indexed": true,
          "internalType": "address",
          "name": "to",
          "type": "address"
        },
        {
          "indexed": true,
          "internalType": "uint256",
          "name": "tokenId",
          "type": "uint256"
        }
      ],
      "name": "Transfer",
      "type": "event"
    },
    {
      "inputs": [],
      "name": "active",
      "outputs": [
        {
          "internalType": "bool",
          "name": "",
          "type": "bool"
        }
      ],
      "stateMutability": "view",
      "type": "function"
    },
    {
      "inputs": [],
      "name": "admin",
      "outputs": [
        {
          "internalType": "address",
          "name": "",
          "type": "address"
        }
      ],
      "stateMutability": "view",
      "type": "function"
    },
    {
      "inputs": [
        {
          "internalType": "address",
          "name": "to",
          "type": "address"
        },
        {
          "internalType": "uint256",
          "name": "tokenId",
          "type": "uint256"
        }
      ],
      "name": "approve",
      "outputs": [],
      "stateMutability": "nonpayable",
      "type": "function"
    },
    {
      "inputs": [
        {
          "internalType": "address",
          "name": "owner",
          "type": "address"
        }
      ],
      "name": "balanceOf",
      "outputs": [
        {
          "internalType": "uint256",
          "name": "",
          "type": "uint256"
        }
      ],
      "stateMutability": "view",
      "type": "function"
    },
    {
      "inputs": [],
      "name": "flipSaleState",
      "outputs": [],
      "stateMutability": "nonpayable",
      "type": "function"
    },
    {
      "inputs": [
        {
          "internalType": "uint16",
          "name": "",
          "type": "uint16"
        }
      ],
      "name": "foundingRaptor",
      "outputs": [
        {
          "internalType": "bool",
          "name": "",
          "type": "bool"
        }
      ],
      "stateMutability": "view",
      "type": "function"
    },
    {
      "inputs": [
        {
          "internalType": "uint256",
          "name": "tokenId",
          "type": "uint256"
        }
      ],
      "name": "getApproved",
      "outputs": [
        {
          "internalType": "address",
          "name": "",
          "type": "address"
        }
      ],
      "stateMutability": "view",
      "type": "function"
    },
    {
      "inputs": [
        {
          "internalType": "uint16",
          "name": "_raptor",
          "type": "uint16"
        }
      ],
      "name": "getCoolDown",
      "outputs": [
        {
          "internalType": "uint32",
          "name": "",
          "type": "uint32"
        }
      ],
      "stateMutability": "view",
      "type": "function"
    },
    {
      "inputs": [
        {
          "internalType": "uint8",
          "name": "_amount",
          "type": "uint8"
        }
      ],
      "name": "getPrice",
      "outputs": [
        {
          "internalType": "uint256",
          "name": "givenPrice",
          "type": "uint256"
        }
      ],
      "stateMutability": "view",
      "type": "function"
    },
    {
      "inputs": [
        {
          "internalType": "uint16",
          "name": "_raptor",
          "type": "uint16"
        }
      ],
      "name": "getSpeed",
      "outputs": [
        {
          "internalType": "uint16",
          "name": "",
          "type": "uint16"
        }
      ],
      "stateMutability": "view",
      "type": "function"
    },
    {
      "inputs": [
        {
          "internalType": "uint16",
          "name": "_raptor",
          "type": "uint16"
        }
      ],
      "name": "getStrength",
      "outputs": [
        {
          "internalType": "uint16",
          "name": "",
          "type": "uint16"
        }
      ],
      "stateMutability": "view",
      "type": "function"
    },
    {
      "inputs": [
        {
          "internalType": "uint16",
          "name": "_raptor",
          "type": "uint16"
        },
        {
          "internalType": "uint32",
          "name": "newTime",
          "type": "uint32"
        }
      ],
      "name": "increaseCooldownTime",
      "outputs": [
        {
          "internalType": "bool",
          "name": "",
          "type": "bool"
        }
      ],
      "stateMutability": "nonpayable",
      "type": "function"
    },
    {
      "inputs": [
        {
          "internalType": "address",
          "name": "owner",
          "type": "address"
        },
        {
          "internalType": "address",
          "name": "operator",
          "type": "address"
        }
      ],
      "name": "isApprovedForAll",
      "outputs": [
        {
          "internalType": "bool",
          "name": "",
          "type": "bool"
        }
      ],
      "stateMutability": "view",
      "type": "function"
    },
    {
      "inputs": [
        {
          "internalType": "uint16",
          "name": "raptor",
          "type": "uint16"
        }
      ],
      "name": "isFoundingRaptor",
      "outputs": [
        {
          "internalType": "bool",
          "name": "",
          "type": "bool"
        }
      ],
      "stateMutability": "view",
      "type": "function"
    },
    {
      "inputs": [
        {
          "internalType": "uint8",
          "name": "_amount",
          "type": "uint8"
        }
      ],
      "name": "mint",
      "outputs": [],
      "stateMutability": "payable",
      "type": "function"
    },
    {
      "inputs": [],
      "name": "name",
      "outputs": [
        {
          "internalType": "string",
          "name": "",
          "type": "string"
        }
      ],
      "stateMutability": "view",
      "type": "function"
    },
    {
      "inputs": [
        {
          "internalType": "uint256",
          "name": "tokenId",
          "type": "uint256"
        }
      ],
      "name": "ownerOf",
      "outputs": [
        {
          "internalType": "address",
          "name": "",
          "type": "address"
        }
      ],
      "stateMutability": "view",
      "type": "function"
    },
    {
      "inputs": [
        {
          "internalType": "uint256",
          "name": "",
          "type": "uint256"
        }
      ],
      "name": "paymentsTo",
      "outputs": [
        {
          "internalType": "address",
          "name": "",
          "type": "address"
        }
      ],
      "stateMutability": "view",
      "type": "function"
    },
    {
      "inputs": [
        {
          "internalType": "uint16",
          "name": "",
          "type": "uint16"
        }
      ],
      "name": "raptorStats",
      "outputs": [
        {
          "internalType": "uint16",
          "name": "speed",
          "type": "uint16"
        },
        {
          "internalType": "uint16",
          "name": "strength",
          "type": "uint16"
        },
        {
          "internalType": "uint16",
          "name": "fightsWon",
          "type": "uint16"
        },
        {
          "internalType": "uint16",
          "name": "quickPlayRacesWon",
          "type": "uint16"
        },
        {
          "internalType": "uint16",
          "name": "compRacesWon",
          "type": "uint16"
        },
        {
          "internalType": "uint16",
          "name": "deathRacesWon",
          "type": "uint16"
        },
        {
          "internalType": "uint16",
          "name": "totalRacesTop3Finish",
          "type": "uint16"
        },
        {
          "internalType": "uint32",
          "name": "cooldownTime",
          "type": "uint32"
        }
      ],
      "stateMutability": "view",
      "type": "function"
    },
    {
      "inputs": [
        {
          "internalType": "bytes32",
          "name": "requestId",
          "type": "bytes32"
        },
        {
          "internalType": "uint256",
          "name": "randomness",
          "type": "uint256"
        }
      ],
      "name": "rawFulfillRandomness",
      "outputs": [],
      "stateMutability": "nonpayable",
      "type": "function"
    },
    {
      "inputs": [],
      "name": "reveal",
      "outputs": [],
      "stateMutability": "nonpayable",
      "type": "function"
    },
    {
      "inputs": [
        {
          "internalType": "address",
          "name": "from",
          "type": "address"
        },
        {
          "internalType": "address",
          "name": "to",
          "type": "address"
        },
        {
          "internalType": "uint256",
          "name": "tokenId",
          "type": "uint256"
        }
      ],
      "name": "safeTransferFrom",
      "outputs": [],
      "stateMutability": "nonpayable",
      "type": "function"
    },
    {
      "inputs": [
        {
          "internalType": "address",
          "name": "from",
          "type": "address"
        },
        {
          "internalType": "address",
          "name": "to",
          "type": "address"
        },
        {
          "internalType": "uint256",
          "name": "tokenId",
          "type": "uint256"
        },
        {
          "internalType": "bytes",
          "name": "_data",
          "type": "bytes"
        }
      ],
      "name": "safeTransferFrom",
      "outputs": [],
      "stateMutability": "nonpayable",
      "type": "function"
    },
    {
      "inputs": [
        {
          "internalType": "address",
          "name": "_admin",
          "type": "address"
        }
      ],
      "name": "setAdmin",
      "outputs": [],
      "stateMutability": "nonpayable",
      "type": "function"
    },
    {
      "inputs": [
        {
          "internalType": "address",
          "name": "operator",
          "type": "address"
        },
        {
          "internalType": "bool",
          "name": "approved",
          "type": "bool"
        }
      ],
      "name": "setApprovalForAll",
      "outputs": [],
      "stateMutability": "nonpayable",
      "type": "function"
    },
    {
      "inputs": [
        {
          "internalType": "uint256",
          "name": "fundsToSplit",
          "type": "uint256"
        }
      ],
      "name": "splitFunds",
      "outputs": [],
      "stateMutability": "payable",
      "type": "function"
    },
    {
      "inputs": [
        {
          "internalType": "bytes4",
          "name": "interfaceId",
          "type": "bytes4"
        }
      ],
      "name": "supportsInterface",
      "outputs": [
        {
          "internalType": "bool",
          "name": "",
          "type": "bool"
        }
      ],
      "stateMutability": "view",
      "type": "function"
    },
    {
      "inputs": [],
      "name": "symbol",
      "outputs": [
        {
          "internalType": "string",
          "name": "",
          "type": "string"
        }
      ],
      "stateMutability": "view",
      "type": "function"
    },
    {
      "inputs": [
        {
          "internalType": "uint256",
          "name": "index",
          "type": "uint256"
        }
      ],
      "name": "tokenByIndex",
      "outputs": [
        {
          "internalType": "uint256",
          "name": "",
          "type": "uint256"
        }
      ],
      "stateMutability": "view",
      "type": "function"
    },
    {
      "inputs": [
        {
          "internalType": "address",
          "name": "owner",
          "type": "address"
        },
        {
          "internalType": "uint256",
          "name": "index",
          "type": "uint256"
        }
      ],
      "name": "tokenOfOwnerByIndex",
      "outputs": [
        {
          "internalType": "uint256",
          "name": "",
          "type": "uint256"
        }
      ],
      "stateMutability": "view",
      "type": "function"
    },
    {
      "inputs": [
        {
          "internalType": "uint256",
          "name": "tokenId",
          "type": "uint256"
        }
      ],
      "name": "tokenURI",
      "outputs": [
        {
          "internalType": "string",
          "name": "",
          "type": "string"
        }
      ],
      "stateMutability": "view",
      "type": "function"
    },
    {
      "inputs": [
        {
          "internalType": "uint16",
          "name": "_tokenId",
          "type": "uint16"
        }
      ],
      "name": "tokenURI",
      "outputs": [
        {
          "internalType": "string",
          "name": "uri",
          "type": "string"
        }
      ],
      "stateMutability": "view",
      "type": "function"
    },
    {
      "inputs": [],
      "name": "totalLimit",
      "outputs": [
        {
          "internalType": "uint16",
          "name": "",
          "type": "uint16"
        }
      ],
      "stateMutability": "view",
      "type": "function"
    },
    {
      "inputs": [],
      "name": "totalSupply",
      "outputs": [
        {
          "internalType": "uint256",
          "name": "",
          "type": "uint256"
        }
      ],
      "stateMutability": "view",
      "type": "function"
    },
    {
      "inputs": [
        {
          "internalType": "address",
          "name": "from",
          "type": "address"
        },
        {
          "internalType": "address",
          "name": "to",
          "type": "address"
        },
        {
          "internalType": "uint256",
          "name": "tokenId",
          "type": "uint256"
        }
      ],
      "name": "transferFrom",
      "outputs": [],
      "stateMutability": "nonpayable",
      "type": "function"
    },
    {
      "inputs": [
        {
          "internalType": "address",
          "name": "_gameAddress",
          "type": "address"
        }
      ],
      "name": "updateGameAddress",
      "outputs": [],
      "stateMutability": "nonpayable",
      "type": "function"
    },
    {
      "inputs": [
        {
          "internalType": "address",
          "name": "_paymentTo",
          "type": "address"
        },
        {
          "internalType": "uint8",
          "name": "index",
          "type": "uint8"
        }
      ],
      "name": "updatePaymentTo",
      "outputs": [],
      "stateMutability": "nonpayable",
      "type": "function"
    },
    {
      "inputs": [
        {
          "internalType": "uint16",
          "name": "_raptor",
          "type": "uint16"
        }
      ],
      "name": "upgradeCompWins",
      "outputs": [
        {
          "internalType": "bool",
          "name": "",
          "type": "bool"
        }
      ],
      "stateMutability": "nonpayable",
      "type": "function"
    },
    {
      "inputs": [
        {
          "internalType": "uint16",
          "name": "_raptor",
          "type": "uint16"
        }
      ],
      "name": "upgradeDRWins",
      "outputs": [
        {
          "internalType": "bool",
          "name": "",
          "type": "bool"
        }
      ],
      "stateMutability": "nonpayable",
      "type": "function"
    },
    {
      "inputs": [
        {
          "internalType": "uint16",
          "name": "_raptor",
          "type": "uint16"
        }
      ],
      "name": "upgradeQPWins",
      "outputs": [
        {
          "internalType": "bool",
          "name": "",
          "type": "bool"
        }
      ],
      "stateMutability": "nonpayable",
      "type": "function"
    },
    {
      "inputs": [
        {
          "internalType": "uint16",
          "name": "_raptor",
          "type": "uint16"
        },
        {
          "internalType": "uint8",
          "name": "_amount",
          "type": "uint8"
        }
      ],
      "name": "upgradeSpeed",
      "outputs": [
        {
          "internalType": "bool",
          "name": "",
          "type": "bool"
        }
      ],
      "stateMutability": "nonpayable",
      "type": "function"
    },
    {
      "inputs": [
        {
          "internalType": "uint16",
          "name": "_raptor",
          "type": "uint16"
        },
        {
          "internalType": "uint8",
          "name": "_amount",
          "type": "uint8"
        }
      ],
      "name": "upgradeStrength",
      "outputs": [
        {
          "internalType": "bool",
          "name": "",
          "type": "bool"
        }
      ],
      "stateMutability": "nonpayable",
      "type": "function"
    },
    {
      "inputs": [
        {
          "internalType": "uint16",
          "name": "_raptor",
          "type": "uint16"
        }
      ],
      "name": "upgradeTop3Finishes",
      "outputs": [
        {
          "internalType": "bool",
          "name": "",
          "type": "bool"
        }
      ],
      "stateMutability": "nonpayable",
      "type": "function"
    },
    {
      "inputs": [
        {
          "internalType": "uint16",
          "name": "_raptor",
          "type": "uint16"
        }
      ],
      "name": "upgradefightsWon",
      "outputs": [
        {
          "internalType": "bool",
          "name": "",
          "type": "bool"
        }
      ],
      "stateMutability": "nonpayable",
      "type": "function"
    },
    {
      "inputs": [
        {
          "internalType": "address",
          "name": "_wallet",
          "type": "address"
        }
      ],
      "name": "walletOfOwner",
      "outputs": [
        {
          "internalType": "uint16[]",
          "name": "ids",
          "type": "uint16[]"
        }
      ],
      "stateMutability": "view",
      "type": "function"
    },
    {
      "stateMutability": "payable",
      "type": "receive"
    }
  ],
  "bytecode": "0x60c06040526040518060400160405280601d81526020017f68747470733a2f2f676174657761792e70696e6174612e636c6f75642f000000815250600c9080519060200190620000519291906200105c565b506040518060400160405280600981526020017f536f6d65204349442f0000000000000000000000000000000000000000000000815250600d90805190602001906200009f9291906200105c565b506040518060400160405280600581526020017f2e4a534f4e000000000000000000000000000000000000000000000000000000815250600e9080519060200190620000ed9291906200105c565b506040518060400160405280601081526020017f4e6f7452657665616c6564204861736800000000000000000000000000000000815250600f90805190602001906200013b9291906200105c565b50671bc16d674ec800006014556000601560006101000a81548161ffff021916908361ffff160217905550612710601560026101000a81548161ffff021916908361ffff1602179055506040518060600160405280600160ff168152602001600260ff168152602001600260ff168152506017906003620001be929190620010ed565b50348015620001cc57600080fd5b506040516200792f3803806200792f8339818101604052810190620001f291906200133c565b83836040518060400160405280601181526020017f526163696e6720526170746f72732056320000000000000000000000000000008152506040518060400160405280600281526020017f52520000000000000000000000000000000000000000000000000000000000008152508160009080519060200190620002789291906200105c565b508060019080519060200190620002919291906200105c565b5050508173ffffffffffffffffffffffffffffffffffffffff1660a08173ffffffffffffffffffffffffffffffffffffffff1660601b815250508073ffffffffffffffffffffffffffffffffffffffff1660808173ffffffffffffffffffffffffffffffffffffffff1660601b815250505050816011819055508060128190555085601690805190602001906200032a9291906200119b565b506001600b60146101000a81548160ff02191690831515021790555062000356620003cb60201b60201c565b600b60006101000a81548173ffffffffffffffffffffffffffffffffffffffff021916908373ffffffffffffffffffffffffffffffffffffffff1602179055508460189080519060200190620003ae9291906200119b565b50620003bf620003d360201b60201c565b505050505050620019c6565b600033905090565b60005b6016805490508160ff1610156200073e5760005b60178260ff168154811062000404576200040362001805565b5b90600052602060002090602091828204019190069054906101000a900460ff1660ff168160ff16101562000727576001601560008282829054906101000a900461ffff16620004549190620015a3565b92506101000a81548161ffff021916908361ffff160217905550620004d860168360ff16815481106200048c576200048b62001805565b5b9060005260206000200160009054906101000a900473ffffffffffffffffffffffffffffffffffffffff16601560009054906101000a900461ffff1661ffff166200074160201b60201c565b62000520601560059054906101000a900473ffffffffffffffffffffffffffffffffffffffff16601560009054906101000a900461ffff1661ffff166200093b60201b60201c565b604051806101000160405280600161ffff168152602001600161ffff168152602001600061ffff168152602001600061ffff168152602001600061ffff168152602001600061ffff168152602001600061ffff1681526020014263ffffffff1681525060136000601560009054906101000a900461ffff1661ffff1661ffff16815260200190815260200160002060008201518160000160006101000a81548161ffff021916908361ffff16021790555060208201518160000160026101000a81548161ffff021916908361ffff16021790555060408201518160000160046101000a81548161ffff021916908361ffff16021790555060608201518160000160066101000a81548161ffff021916908361ffff16021790555060808201518160000160086101000a81548161ffff021916908361ffff16021790555060a082015181600001600a6101000a81548161ffff021916908361ffff16021790555060c082015181600001600c6101000a81548161ffff021916908361ffff16021790555060e082015181600001600e6101000a81548163ffffffff021916908363ffffffff160217905550905050600160196000601560009054906101000a900461ffff1661ffff1661ffff16815260200190815260200160002060006101000a81548160ff02191690831515021790555080806200071e9062001749565b915050620003ea565b508080620007359062001749565b915050620003d6565b50565b600073ffffffffffffffffffffffffffffffffffffffff168273ffffffffffffffffffffffffffffffffffffffff161415620007b4576040517f08c379a0000000000000000000000000000000000000000000000000000000008152600401620007ab9062001518565b60405180910390fd5b620007c58162000a0160201b60201c565b1562000808576040517f08c379a0000000000000000000000000000000000000000000000000000000008152600401620007ff90620014b2565b60405180910390fd5b6200081c6000838362000a6d60201b60201c565b6001600360008473ffffffffffffffffffffffffffffffffffffffff1673ffffffffffffffffffffffffffffffffffffffff16815260200190815260200160002060008282546200086e9190620015e2565b92505081905550816002600083815260200190815260200160002060006101000a81548173ffffffffffffffffffffffffffffffffffffffff021916908373ffffffffffffffffffffffffffffffffffffffff160217905550808273ffffffffffffffffffffffffffffffffffffffff16600073ffffffffffffffffffffffffffffffffffffffff167fddf252ad1be2c89b69c2b068fc378daa952ba7f163c4a11628f55a4df523b3ef60405160405180910390a4620009376000838362000bb460201b60201c565b5050565b816004600083815260200190815260200160002060006101000a81548173ffffffffffffffffffffffffffffffffffffffff021916908373ffffffffffffffffffffffffffffffffffffffff160217905550808273ffffffffffffffffffffffffffffffffffffffff16620009bb8362000bb960201b620017651760201c565b73ffffffffffffffffffffffffffffffffffffffff167f8c5be1e5ebec7d5bd14f71427d1e84f3dd0314c0f7b2291e5b200ac8c7c3b92560405160405180910390a45050565b60008073ffffffffffffffffffffffffffffffffffffffff166002600084815260200190815260200160002060009054906101000a900473ffffffffffffffffffffffffffffffffffffffff1673ffffffffffffffffffffffffffffffffffffffff1614159050919050565b62000a8583838362000c6e60201b62002a831760201c565b600073ffffffffffffffffffffffffffffffffffffffff168373ffffffffffffffffffffffffffffffffffffffff16141562000ad25762000acc8162000c7360201b60201c565b62000b1a565b8173ffffffffffffffffffffffffffffffffffffffff168373ffffffffffffffffffffffffffffffffffffffff161462000b195762000b18838262000cbc60201b60201c565b5b5b600073ffffffffffffffffffffffffffffffffffffffff168273ffffffffffffffffffffffffffffffffffffffff16141562000b675762000b618162000e3960201b60201c565b62000baf565b8273ffffffffffffffffffffffffffffffffffffffff168273ffffffffffffffffffffffffffffffffffffffff161462000bae5762000bad828262000f1560201b60201c565b5b5b505050565b505050565b6000806002600084815260200190815260200160002060009054906101000a900473ffffffffffffffffffffffffffffffffffffffff169050600073ffffffffffffffffffffffffffffffffffffffff168173ffffffffffffffffffffffffffffffffffffffff16141562000c65576040517f08c379a000000000000000000000000000000000000000000000000000000000815260040162000c5c90620014f6565b60405180910390fd5b80915050919050565b505050565b6008805490506009600083815260200190815260200160002081905550600881908060018154018082558091505060019003906000526020600020016000909190919091505550565b6000600162000cd68462000fa160201b62001e511760201c565b62000ce291906200163f565b905060006007600084815260200190815260200160002054905081811462000dc8576000600660008673ffffffffffffffffffffffffffffffffffffffff1673ffffffffffffffffffffffffffffffffffffffff168152602001908152602001600020600084815260200190815260200160002054905080600660008773ffffffffffffffffffffffffffffffffffffffff1673ffffffffffffffffffffffffffffffffffffffff168152602001908152602001600020600084815260200190815260200160002081905550816007600083815260200190815260200160002081905550505b6007600084815260200190815260200160002060009055600660008573ffffffffffffffffffffffffffffffffffffffff1673ffffffffffffffffffffffffffffffffffffffff16815260200190815260200160002060008381526020019081526020016000206000905550505050565b6000600160088054905062000e4f91906200163f565b905060006009600084815260200190815260200160002054905060006008838154811062000e825762000e8162001805565b5b90600052602060002001549050806008838154811062000ea75762000ea662001805565b5b90600052602060002001819055508160096000838152602001908152602001600020819055506009600085815260200190815260200160002060009055600880548062000ef95762000ef8620017d6565b5b6001900381819060005260206000200160009055905550505050565b600062000f2d8362000fa160201b62001e511760201c565b905081600660008573ffffffffffffffffffffffffffffffffffffffff1673ffffffffffffffffffffffffffffffffffffffff168152602001908152602001600020600083815260200190815260200160002081905550806007600084815260200190815260200160002081905550505050565b60008073ffffffffffffffffffffffffffffffffffffffff168273ffffffffffffffffffffffffffffffffffffffff16141562001015576040517f08c379a00000000000000000000000000000000000000000000000000000000081526004016200100c90620014d4565b60405180910390fd5b600360008373ffffffffffffffffffffffffffffffffffffffff1673ffffffffffffffffffffffffffffffffffffffff168152602001908152602001600020549050919050565b8280546200106a90620016dd565b90600052602060002090601f0160209004810192826200108e5760008555620010da565b82601f10620010a957805160ff1916838001178555620010da565b82800160010185558215620010da579182015b82811115620010d9578251825591602001919060010190620010bc565b5b509050620010e991906200122a565b5090565b82805482825590600052602060002090601f01602090048101928215620011885791602002820160005b838211156200115757835183826101000a81548160ff021916908360ff160217905550926020019260010160208160000104928301926001030262001117565b8015620011865782816101000a81549060ff021916905560010160208160000104928301926001030262001157565b505b5090506200119791906200122a565b5090565b82805482825590600052602060002090810192821562001217579160200282015b82811115620012165782518260006101000a81548173ffffffffffffffffffffffffffffffffffffffff021916908373ffffffffffffffffffffffffffffffffffffffff16021790555091602001919060010190620011bc565b5b5090506200122691906200122a565b5090565b5b80821115620012455760008160009055506001016200122b565b5090565b6000620012606200125a8462001563565b6200153a565b9050808382526020820190508285602086028201111562001286576200128562001868565b5b60005b85811015620012ba57816200129f8882620012c4565b84526020840193506020830192505060018101905062001289565b5050509392505050565b600081519050620012d58162001978565b92915050565b600082601f830112620012f357620012f262001863565b5b81516200130584826020860162001249565b91505092915050565b6000815190506200131f8162001992565b92915050565b6000815190506200133681620019ac565b92915050565b60008060008060008060c087890312156200135c576200135b62001872565b5b600087015167ffffffffffffffff8111156200137d576200137c6200186d565b5b6200138b89828a01620012db565b965050602087015167ffffffffffffffff811115620013af57620013ae6200186d565b5b620013bd89828a01620012db565b9550506040620013d089828a01620012c4565b9450506060620013e389828a01620012c4565b9350506080620013f689828a016200130e565b92505060a06200140989828a0162001325565b9150509295509295509295565b600062001425601c8362001592565b9150620014328262001888565b602082019050919050565b60006200144c602a8362001592565b91506200145982620018b1565b604082019050919050565b60006200147360298362001592565b9150620014808262001900565b604082019050919050565b60006200149a60208362001592565b9150620014a7826200194f565b602082019050919050565b60006020820190508181036000830152620014cd8162001416565b9050919050565b60006020820190508181036000830152620014ef816200143d565b9050919050565b60006020820190508181036000830152620015118162001464565b9050919050565b6000602082019050818103600083015262001533816200148b565b9050919050565b60006200154662001559565b905062001554828262001713565b919050565b6000604051905090565b600067ffffffffffffffff82111562001581576200158062001834565b5b602082029050602081019050919050565b600082825260208201905092915050565b6000620015b08262001698565b9150620015bd8362001698565b92508261ffff03821115620015d757620015d662001778565b5b828201905092915050565b6000620015ef82620016c6565b9150620015fc83620016c6565b9250827fffffffffffffffffffffffffffffffffffffffffffffffffffffffffffffffff0382111562001634576200163362001778565b5b828201905092915050565b60006200164c82620016c6565b91506200165983620016c6565b9250828210156200166f576200166e62001778565b5b828203905092915050565b60006200168782620016a6565b9050919050565b6000819050919050565b600061ffff82169050919050565b600073ffffffffffffffffffffffffffffffffffffffff82169050919050565b6000819050919050565b600060ff82169050919050565b60006002820490506001821680620016f657607f821691505b602082108114156200170d576200170c620017a7565b5b50919050565b6200171e8262001877565b810181811067ffffffffffffffff8211171562001740576200173f62001834565b5b80604052505050565b60006200175682620016d0565b915060ff8214156200176d576200176c62001778565b5b600182019050919050565b7f4e487b7100000000000000000000000000000000000000000000000000000000600052601160045260246000fd5b7f4e487b7100000000000000000000000000000000000000000000000000000000600052602260045260246000fd5b7f4e487b7100000000000000000000000000000000000000000000000000000000600052603160045260246000fd5b7f4e487b7100000000000000000000000000000000000000000000000000000000600052603260045260246000fd5b7f4e487b7100000000000000000000000000000000000000000000000000000000600052604160045260246000fd5b600080fd5b600080fd5b600080fd5b600080fd5b6000601f19601f8301169050919050565b7f4552433732313a20746f6b656e20616c7265616479206d696e74656400000000600082015250565b7f4552433732313a2062616c616e636520717565727920666f7220746865207a6560008201527f726f206164647265737300000000000000000000000000000000000000000000602082015250565b7f4552433732313a206f776e657220717565727920666f72206e6f6e657869737460008201527f656e7420746f6b656e0000000000000000000000000000000000000000000000602082015250565b7f4552433732313a206d696e7420746f20746865207a65726f2061646472657373600082015250565b62001983816200167a565b81146200198f57600080fd5b50565b6200199d816200168e565b8114620019a957600080fd5b50565b620019b781620016c6565b8114620019c357600080fd5b50565b60805160601c60a05160601c615f2f62001a00600039600081816120f301526139f801526000818161333c01526139bc0152615f2f6000f3fe6080604052600436106102765760003560e01c806367c1fcfe1161014f578063a22cb465116100c1578063bb5553441161007a578063bb55534414610a55578063c87b56dd14610a92578063db258f9c14610acf578063dd7d844014610af8578063e985e9c514610b35578063f851a44014610b7257610286565b8063a22cb46514610947578063a36298c714610970578063a475b5dd1461099b578063a57ce661146109b2578063b4dd385e146109ef578063b88d4fde14610a2c57610286565b80638bffef62116101135780638bffef62146107f85780638cc3b3661461083557806394985ddd1461087957806395d76d9d146108a257806395d89b41146108df5780639d7182ee1461090a57610286565b806367c1fcfe146107105780636ecd230614610739578063704b6c021461075557806370a082311461077e5780637e442efa146107bb57610286565b80632f1335cf116101e857806342842e0e116101ac57806342842e0e146105b6578063438b6300146105df5780634f6ccce71461061c57806353018063146106595780636201917f146106965780636352211e146106d357610286565b80632f1335cf146104cc5780632f745c59146104e8578063334bfefc1461052557806334918dfd1461056257806337f1e7f21461057957610286565b80630a4735361161023a5780630a473536146103845780630a8dc157146103c15780630c7c9707146103fe57806310e1e2d21461043b57806318160ddd1461047857806323b872dd146104a357610286565b806301ffc9a71461028b57806302fb0c5e146102c857806306fdde03146102f3578063081812fc1461031e578063095ea7b31461035b57610286565b366102865761028434610b9d565b005b600080fd5b34801561029757600080fd5b506102b260048036038101906102ad9190614410565b610da2565b6040516102bf9190614d29565b60405180910390f35b3480156102d457600080fd5b506102dd610e1c565b6040516102ea9190614d29565b60405180910390f35b3480156102ff57600080fd5b50610308610e2f565b6040516103159190614db2565b60405180910390f35b34801561032a57600080fd5b5061034560048036038101906103409190614517565b610ec1565b6040516103529190614c62565b60405180910390f35b34801561036757600080fd5b50610382600480360381019061037d9190614323565b610f46565b005b34801561039057600080fd5b506103ab60048036038101906103a6919061446a565b61105e565b6040516103b89190614d29565b60405180910390f35b3480156103cd57600080fd5b506103e860048036038101906103e39190614517565b611156565b6040516103f59190614c62565b60405180910390f35b34801561040a57600080fd5b506104256004803603810190610420919061446a565b611195565b6040516104329190614d29565b60405180910390f35b34801561044757600080fd5b50610462600480360381019061045d919061446a565b61128d565b60405161046f9190615134565b60405180910390f35b34801561048457600080fd5b5061048d6112c3565b60405161049a91906151cd565b60405180910390f35b3480156104af57600080fd5b506104ca60048036038101906104c5919061420d565b6112d0565b005b6104e660048036038101906104e19190614517565b610b9d565b005b3480156104f457600080fd5b5061050f600480360381019061050a9190614323565b611330565b60405161051c91906151cd565b60405180910390f35b34801561053157600080fd5b5061054c6004803603810190610547919061446a565b6113d5565b6040516105599190614d29565b60405180910390f35b34801561056e57600080fd5b506105776114cd565b005b34801561058557600080fd5b506105a0600480360381019061059b9190614571565b611590565b6040516105ad91906151cd565b60405180910390f35b3480156105c257600080fd5b506105dd60048036038101906105d8919061420d565b6115b6565b005b3480156105eb57600080fd5b50610606600480360381019061060191906141a0565b6115d6565b6040516106139190614d07565b60405180910390f35b34801561062857600080fd5b50610643600480360381019061063e9190614517565b61169c565b60405161065091906151cd565b60405180910390f35b34801561066557600080fd5b50610680600480360381019061067b919061446a565b61170d565b60405161068d9190614d29565b60405180910390f35b3480156106a257600080fd5b506106bd60048036038101906106b8919061446a565b61172d565b6040516106ca91906151e8565b60405180910390f35b3480156106df57600080fd5b506106fa60048036038101906106f59190614517565b611765565b6040516107079190614c62565b60405180910390f35b34801561071c57600080fd5b5061073760048036038101906107329190614363565b611817565b005b610753600480360381019061074e9190614571565b611912565b005b34801561076157600080fd5b5061077c600480360381019061077791906141a0565b611d76565b005b34801561078a57600080fd5b506107a560048036038101906107a091906141a0565b611e51565b6040516107b291906151cd565b60405180910390f35b3480156107c757600080fd5b506107e260048036038101906107dd919061446a565b611f09565b6040516107ef9190614d29565b60405180910390f35b34801561080457600080fd5b5061081f600480360381019061081a919061446a565b612001565b60405161082c9190615134565b60405180910390f35b34801561084157600080fd5b5061085c6004803603810190610857919061446a565b612037565b60405161087098979695949392919061514f565b60405180910390f35b34801561088557600080fd5b506108a0600480360381019061089b91906143d0565b6120f1565b005b3480156108ae57600080fd5b506108c960048036038101906108c4919061446a565b61218d565b6040516108d69190614d29565b60405180910390f35b3480156108eb57600080fd5b506108f46121bf565b6040516109019190614db2565b60405180910390f35b34801561091657600080fd5b50610931600480360381019061092c919061446a565b612251565b60405161093e9190614d29565b60405180910390f35b34801561095357600080fd5b5061096e600480360381019061096991906142e3565b612349565b005b34801561097c57600080fd5b5061098561235f565b6040516109929190615134565b60405180910390f35b3480156109a757600080fd5b506109b0612373565b005b3480156109be57600080fd5b506109d960048036038101906109d49190614497565b612427565b6040516109e69190614d29565b60405180910390f35b3480156109fb57600080fd5b50610a166004803603810190610a1191906144d7565b612512565b604051610a239190614d29565b60405180910390f35b348015610a3857600080fd5b50610a536004803603810190610a4e9190614260565b61260d565b005b348015610a6157600080fd5b50610a7c6004803603810190610a7791906144d7565b61266f565b604051610a899190614d29565b60405180910390f35b348015610a9e57600080fd5b50610ab96004803603810190610ab49190614517565b61276a565b604051610ac69190614db2565b60405180910390f35b348015610adb57600080fd5b50610af66004803603810190610af191906141a0565b612811565b005b348015610b0457600080fd5b50610b1f6004803603810190610b1a919061446a565b6128ec565b604051610b2c9190614db2565b60405180910390f35b348015610b4157600080fd5b50610b5c6004803603810190610b5791906141cd565b6129c9565b604051610b699190614d29565b60405180910390f35b348015610b7e57600080fd5b50610b87612a5d565b604051610b949190614c62565b60405180910390f35b47811115610be0576040517f08c379a0000000000000000000000000000000000000000000000000000000008152600401610bd790614f74565b60405180910390fd5b6018600081548110610bf557610bf4615770565b5b9060005260206000200160009054906101000a900473ffffffffffffffffffffffffffffffffffffffff1673ffffffffffffffffffffffffffffffffffffffff166108fc6064601984610c4891906153e3565b610c5291906153b2565b9081150290604051600060405180830381858888f19350505050610c7557600080fd5b6018600181548110610c8a57610c89615770565b5b9060005260206000200160009054906101000a900473ffffffffffffffffffffffffffffffffffffffff1673ffffffffffffffffffffffffffffffffffffffff166108fc6064603284610cdd91906153e3565b610ce791906153b2565b9081150290604051600060405180830381858888f19350505050610d0a57600080fd5b6018600281548110610d1f57610d1e615770565b5b9060005260206000200160009054906101000a900473ffffffffffffffffffffffffffffffffffffffff1673ffffffffffffffffffffffffffffffffffffffff166108fc6064601984610d7291906153e3565b610d7c91906153b2565b9081150290604051600060405180830381858888f19350505050610d9f57600080fd5b50565b60007f780e9d63000000000000000000000000000000000000000000000000000000007bffffffffffffffffffffffffffffffffffffffffffffffffffffffff1916827bffffffffffffffffffffffffffffffffffffffffffffffffffffffff19161480610e155750610e1482612a88565b5b9050919050565b600b60149054906101000a900460ff1681565b606060008054610e3e9061555c565b80601f0160208091040260200160405190810160405280929190818152602001828054610e6a9061555c565b8015610eb75780601f10610e8c57610100808354040283529160200191610eb7565b820191906000526020600020905b815481529060010190602001808311610e9a57829003601f168201915b5050505050905090565b6000610ecc82612b6a565b610f0b576040517f08c379a0000000000000000000000000000000000000000000000000000000008152600401610f0290615034565b60405180910390fd5b6004600083815260200190815260200160002060009054906101000a900473ffffffffffffffffffffffffffffffffffffffff169050919050565b6000610f5182611765565b90508073ffffffffffffffffffffffffffffffffffffffff168373ffffffffffffffffffffffffffffffffffffffff161415610fc2576040517f08c379a0000000000000000000000000000000000000000000000000000000008152600401610fb9906150b4565b60405180910390fd5b8073ffffffffffffffffffffffffffffffffffffffff16610fe1612bd6565b73ffffffffffffffffffffffffffffffffffffffff161480611010575061100f8161100a612bd6565b6129c9565b5b61104f576040517f08c379a000000000000000000000000000000000000000000000000000000000815260040161104690614fb4565b60405180910390fd5b6110598383612bde565b505050565b6000601560059054906101000a900473ffffffffffffffffffffffffffffffffffffffff1673ffffffffffffffffffffffffffffffffffffffff166110a1612bd6565b73ffffffffffffffffffffffffffffffffffffffff16146110f7576040517f08c379a00000000000000000000000000000000000000000000000000000000081526004016110ee90614dd4565b60405180910390fd5b6001601360008461ffff1661ffff168152602001908152602001600020600001600a8282829054906101000a900461ffff1661113391906152ea565b92506101000a81548161ffff021916908361ffff16021790555060019050919050565b6018818154811061116657600080fd5b906000526020600020016000915054906101000a900473ffffffffffffffffffffffffffffffffffffffff1681565b6000601560059054906101000a900473ffffffffffffffffffffffffffffffffffffffff1673ffffffffffffffffffffffffffffffffffffffff166111d8612bd6565b73ffffffffffffffffffffffffffffffffffffffff161461122e576040517f08c379a000000000000000000000000000000000000000000000000000000000815260040161122590614dd4565b60405180910390fd5b6001601360008461ffff1661ffff168152602001908152602001600020600001600c8282829054906101000a900461ffff1661126a91906152ea565b92506101000a81548161ffff021916908361ffff16021790555060019050919050565b6000601360008361ffff1661ffff16815260200190815260200160002060000160029054906101000a900461ffff169050919050565b6000600880549050905090565b6112e16112db612bd6565b82612c97565b611320576040517f08c379a0000000000000000000000000000000000000000000000000000000008152600401611317906150d4565b60405180910390fd5b61132b838383612d75565b505050565b600061133b83611e51565b821061137c576040517f08c379a000000000000000000000000000000000000000000000000000000000815260040161137390614e14565b60405180910390fd5b600660008473ffffffffffffffffffffffffffffffffffffffff1673ffffffffffffffffffffffffffffffffffffffff168152602001908152602001600020600083815260200190815260200160002054905092915050565b6000601560059054906101000a900473ffffffffffffffffffffffffffffffffffffffff1673ffffffffffffffffffffffffffffffffffffffff16611418612bd6565b73ffffffffffffffffffffffffffffffffffffffff161461146e576040517f08c379a000000000000000000000000000000000000000000000000000000000815260040161146590614dd4565b60405180910390fd5b6001601360008461ffff1661ffff16815260200190815260200160002060000160048282829054906101000a900461ffff166114aa91906152ea565b92506101000a81548161ffff021916908361ffff16021790555060019050919050565b600b60009054906101000a900473ffffffffffffffffffffffffffffffffffffffff1673ffffffffffffffffffffffffffffffffffffffff1661150e612bd6565b73ffffffffffffffffffffffffffffffffffffffff1614611564576040517f08c379a000000000000000000000000000000000000000000000000000000000815260040161155b90614df4565b60405180910390fd5b600b60149054906101000a900460ff1615600b60146101000a81548160ff021916908315150217905550565b60006115af82601454601560009054906101000a900461ffff16612fdc565b9050919050565b6115d18383836040518060200160405280600081525061260d565b505050565b606060006115e383611e51565b90508061ffff1667ffffffffffffffff8111156116035761160261579f565b5b6040519080825280602002602001820160405280156116315781602001602082028036833780820191505090505b50915060005b8161ffff168161ffff16101561169557611655848261ffff16611330565b838261ffff168151811061166c5761166b615770565b5b602002602001019061ffff16908161ffff1681525050808061168d906155bf565b915050611637565b5050919050565b60006116a66112c3565b82106116e7576040517f08c379a00000000000000000000000000000000000000000000000000000000081526004016116de90615114565b60405180910390fd5b600882815481106116fb576116fa615770565b5b90600052602060002001549050919050565b60196020528060005260406000206000915054906101000a900460ff1681565b6000601360008361ffff1661ffff168152602001908152602001600020600001600e9054906101000a900463ffffffff169050919050565b6000806002600084815260200190815260200160002060009054906101000a900473ffffffffffffffffffffffffffffffffffffffff169050600073ffffffffffffffffffffffffffffffffffffffff168173ffffffffffffffffffffffffffffffffffffffff16141561180e576040517f08c379a000000000000000000000000000000000000000000000000000000000815260040161180590614ff4565b60405180910390fd5b80915050919050565b600b60009054906101000a900473ffffffffffffffffffffffffffffffffffffffff1673ffffffffffffffffffffffffffffffffffffffff16611858612bd6565b73ffffffffffffffffffffffffffffffffffffffff16146118ae576040517f08c379a00000000000000000000000000000000000000000000000000000000081526004016118a590614df4565b60405180910390fd5b8160188260ff16815481106118c6576118c5615770565b5b9060005260206000200160006101000a81548173ffffffffffffffffffffffffffffffffffffffff021916908373ffffffffffffffffffffffffffffffffffffffff1602179055505050565b600b60149054906101000a900460ff16611961576040517f08c379a000000000000000000000000000000000000000000000000000000000815260040161195890614f34565b60405180910390fd5b600b60009054906101000a900473ffffffffffffffffffffffffffffffffffffffff1673ffffffffffffffffffffffffffffffffffffffff166119a2612bd6565b73ffffffffffffffffffffffffffffffffffffffff1614611a49576119c681611590565b3414611a07576040517f08c379a00000000000000000000000000000000000000000000000000000000081526004016119fe90614eb4565b60405180910390fd5b611a288160ff16601560009054906101000a900461ffff1661ffff166130af565b15611a3f57611a38601454613118565b6014819055505b611a4834610b9d565b5b600a8160ff161115611a90576040517f08c379a0000000000000000000000000000000000000000000000000000000008152600401611a8790614ed4565b60405180910390fd5b601560029054906101000a900461ffff1661ffff168160ff16601560009054906101000a900461ffff16611ac491906152ea565b61ffff161115611b09576040517f08c379a0000000000000000000000000000000000000000000000000000000008152600401611b0090614f94565b60405180910390fd5b60005b8160ff168160ff161015611d72576001601560008282829054906101000a900461ffff16611b3a91906152ea565b92506101000a81548161ffff021916908361ffff160217905550611b79611b5f612bd6565b601560009054906101000a900461ffff1661ffff1661315d565b604051806101000160405280600161ffff168152602001600161ffff168152602001600061ffff168152602001600061ffff168152602001600061ffff168152602001600061ffff168152602001600061ffff1681526020014263ffffffff1681525060136000601560009054906101000a900461ffff1661ffff1661ffff16815260200190815260200160002060008201518160000160006101000a81548161ffff021916908361ffff16021790555060208201518160000160026101000a81548161ffff021916908361ffff16021790555060408201518160000160046101000a81548161ffff021916908361ffff16021790555060608201518160000160066101000a81548161ffff021916908361ffff16021790555060808201518160000160086101000a81548161ffff021916908361ffff16021790555060a082015181600001600a6101000a81548161ffff021916908361ffff16021790555060c082015181600001600c6101000a81548161ffff021916908361ffff16021790555060e082015181600001600e6101000a81548163ffffffff021916908363ffffffff160217905550905050601560029054906101000a900461ffff1661ffff16601560009054906101000a900461ffff1661ffff161415611d5f57611d5e613337565b5b8080611d6a90615633565b915050611b0c565b5050565b600b60009054906101000a900473ffffffffffffffffffffffffffffffffffffffff1673ffffffffffffffffffffffffffffffffffffffff16611db7612bd6565b73ffffffffffffffffffffffffffffffffffffffff1614611e0d576040517f08c379a0000000000000000000000000000000000000000000000000000000008152600401611e0490614df4565b60405180910390fd5b80600b60006101000a81548173ffffffffffffffffffffffffffffffffffffffff021916908373ffffffffffffffffffffffffffffffffffffffff16021790555050565b60008073ffffffffffffffffffffffffffffffffffffffff168273ffffffffffffffffffffffffffffffffffffffff161415611ec2576040517f08c379a0000000000000000000000000000000000000000000000000000000008152600401611eb990614fd4565b60405180910390fd5b600360008373ffffffffffffffffffffffffffffffffffffffff1673ffffffffffffffffffffffffffffffffffffffff168152602001908152602001600020549050919050565b6000601560059054906101000a900473ffffffffffffffffffffffffffffffffffffffff1673ffffffffffffffffffffffffffffffffffffffff16611f4c612bd6565b73ffffffffffffffffffffffffffffffffffffffff1614611fa2576040517f08c379a0000000000000000000000000000000000000000000000000000000008152600401611f9990614dd4565b60405180910390fd5b6001601360008461ffff1661ffff16815260200190815260200160002060000160068282829054906101000a900461ffff16611fde91906152ea565b92506101000a81548161ffff021916908361ffff16021790555060019050919050565b6000601360008361ffff1661ffff16815260200190815260200160002060000160009054906101000a900461ffff169050919050565b60136020528060005260406000206000915090508060000160009054906101000a900461ffff16908060000160029054906101000a900461ffff16908060000160049054906101000a900461ffff16908060000160069054906101000a900461ffff16908060000160089054906101000a900461ffff169080600001600a9054906101000a900461ffff169080600001600c9054906101000a900461ffff169080600001600e9054906101000a900463ffffffff16905088565b7f000000000000000000000000000000000000000000000000000000000000000073ffffffffffffffffffffffffffffffffffffffff163373ffffffffffffffffffffffffffffffffffffffff161461217f576040517f08c379a000000000000000000000000000000000000000000000000000000000815260040161217690615094565b60405180910390fd5b6121898282613435565b5050565b6000601960008361ffff1661ffff16815260200190815260200160002060009054906101000a900460ff169050919050565b6060600180546121ce9061555c565b80601f01602080910402602001604051908101604052809291908181526020018280546121fa9061555c565b80156122475780601f1061221c57610100808354040283529160200191612247565b820191906000526020600020905b81548152906001019060200180831161222a57829003601f168201915b5050505050905090565b6000601560059054906101000a900473ffffffffffffffffffffffffffffffffffffffff1673ffffffffffffffffffffffffffffffffffffffff16612294612bd6565b73ffffffffffffffffffffffffffffffffffffffff16146122ea576040517f08c379a00000000000000000000000000000000000000000000000000000000081526004016122e190614dd4565b60405180910390fd5b6001601360008461ffff1661ffff16815260200190815260200160002060000160088282829054906101000a900461ffff1661232691906152ea565b92506101000a81548161ffff021916908361ffff16021790555060019050919050565b61235b612354612bd6565b838361348b565b5050565b601560029054906101000a900461ffff1681565b600b60009054906101000a900473ffffffffffffffffffffffffffffffffffffffff1673ffffffffffffffffffffffffffffffffffffffff166123b4612bd6565b73ffffffffffffffffffffffffffffffffffffffff161461240a576040517f08c379a000000000000000000000000000000000000000000000000000000000815260040161240190614df4565b60405180910390fd5b6001601560046101000a81548160ff021916908315150217905550565b6000601560059054906101000a900473ffffffffffffffffffffffffffffffffffffffff1673ffffffffffffffffffffffffffffffffffffffff1661246a612bd6565b73ffffffffffffffffffffffffffffffffffffffff16146124c0576040517f08c379a00000000000000000000000000000000000000000000000000000000081526004016124b790614dd4565b60405180910390fd5b81426124cc9190615378565b601360008561ffff1661ffff168152602001908152602001600020600001600e6101000a81548163ffffffff021916908363ffffffff1602179055506001905092915050565b6000601560059054906101000a900473ffffffffffffffffffffffffffffffffffffffff1673ffffffffffffffffffffffffffffffffffffffff16612555612bd6565b73ffffffffffffffffffffffffffffffffffffffff16146125ab576040517f08c379a00000000000000000000000000000000000000000000000000000000081526004016125a290614dd4565b60405180910390fd5b8160ff16601360008561ffff1661ffff16815260200190815260200160002060000160028282829054906101000a900461ffff166125e991906152ea565b92506101000a81548161ffff021916908361ffff1602179055506001905092915050565b61261e612618612bd6565b83612c97565b61265d576040517f08c379a0000000000000000000000000000000000000000000000000000000008152600401612654906150d4565b60405180910390fd5b612669848484846135f8565b50505050565b6000601560059054906101000a900473ffffffffffffffffffffffffffffffffffffffff1673ffffffffffffffffffffffffffffffffffffffff166126b2612bd6565b73ffffffffffffffffffffffffffffffffffffffff1614612708576040517f08c379a00000000000000000000000000000000000000000000000000000000081526004016126ff90614dd4565b60405180910390fd5b8160ff16601360008561ffff1661ffff16815260200190815260200160002060000160008282829054906101000a900461ffff1661274691906152ea565b92506101000a81548161ffff021916908361ffff1602179055506001905092915050565b606061277582612b6a565b6127b4576040517f08c379a00000000000000000000000000000000000000000000000000000000081526004016127ab90615074565b60405180910390fd5b60006127be613654565b905060008151116127de5760405180602001604052806000815250612809565b806127e88461366b565b6040516020016127f9929190614bc1565b6040516020818303038152906040525b915050919050565b600b60009054906101000a900473ffffffffffffffffffffffffffffffffffffffff1673ffffffffffffffffffffffffffffffffffffffff16612852612bd6565b73ffffffffffffffffffffffffffffffffffffffff16146128a8576040517f08c379a000000000000000000000000000000000000000000000000000000000815260040161289f90614df4565b60405180910390fd5b80601560056101000a81548173ffffffffffffffffffffffffffffffffffffffff021916908373ffffffffffffffffffffffffffffffffffffffff16021790555050565b60606128fb8261ffff16612b6a565b61293a576040517f08c379a000000000000000000000000000000000000000000000000000000000815260040161293190615054565b60405180910390fd5b601560049054906101000a900460ff1661297957600c600f604051602001612963929190614be5565b60405160208183030381529060405290506129c4565b600c600d8360405160200161298e9190614c47565b604051602081830303815290604052600e6040516020016129b29493929190614c09565b60405160208183030381529060405290505b919050565b6000600560008473ffffffffffffffffffffffffffffffffffffffff1673ffffffffffffffffffffffffffffffffffffffff16815260200190815260200160002060008373ffffffffffffffffffffffffffffffffffffffff1673ffffffffffffffffffffffffffffffffffffffff16815260200190815260200160002060009054906101000a900460ff16905092915050565b600b60009054906101000a900473ffffffffffffffffffffffffffffffffffffffff1681565b505050565b60007f80ac58cd000000000000000000000000000000000000000000000000000000007bffffffffffffffffffffffffffffffffffffffffffffffffffffffff1916827bffffffffffffffffffffffffffffffffffffffffffffffffffffffff19161480612b5357507f5b5e139f000000000000000000000000000000000000000000000000000000007bffffffffffffffffffffffffffffffffffffffffffffffffffffffff1916827bffffffffffffffffffffffffffffffffffffffffffffffffffffffff1916145b80612b635750612b62826137cc565b5b9050919050565b60008073ffffffffffffffffffffffffffffffffffffffff166002600084815260200190815260200160002060009054906101000a900473ffffffffffffffffffffffffffffffffffffffff1673ffffffffffffffffffffffffffffffffffffffff1614159050919050565b600033905090565b816004600083815260200190815260200160002060006101000a81548173ffffffffffffffffffffffffffffffffffffffff021916908373ffffffffffffffffffffffffffffffffffffffff160217905550808273ffffffffffffffffffffffffffffffffffffffff16612c5183611765565b73ffffffffffffffffffffffffffffffffffffffff167f8c5be1e5ebec7d5bd14f71427d1e84f3dd0314c0f7b2291e5b200ac8c7c3b92560405160405180910390a45050565b6000612ca282612b6a565b612ce1576040517f08c379a0000000000000000000000000000000000000000000000000000000008152600401612cd890614f54565b60405180910390fd5b6000612cec83611765565b90508073ffffffffffffffffffffffffffffffffffffffff168473ffffffffffffffffffffffffffffffffffffffff161480612d5b57508373ffffffffffffffffffffffffffffffffffffffff16612d4384610ec1565b73ffffffffffffffffffffffffffffffffffffffff16145b80612d6c5750612d6b81856129c9565b5b91505092915050565b8273ffffffffffffffffffffffffffffffffffffffff16612d9582611765565b73ffffffffffffffffffffffffffffffffffffffff1614612deb576040517f08c379a0000000000000000000000000000000000000000000000000000000008152600401612de290614e54565b60405180910390fd5b600073ffffffffffffffffffffffffffffffffffffffff168273ffffffffffffffffffffffffffffffffffffffff161415612e5b576040517f08c379a0000000000000000000000000000000000000000000000000000000008152600401612e5290614ef4565b60405180910390fd5b612e66838383613836565b612e71600082612bde565b6001600360008573ffffffffffffffffffffffffffffffffffffffff1673ffffffffffffffffffffffffffffffffffffffff1681526020019081526020016000206000828254612ec1919061543d565b925050819055506001600360008473ffffffffffffffffffffffffffffffffffffffff1673ffffffffffffffffffffffffffffffffffffffff1681526020019081526020016000206000828254612f189190615322565b92505081905550816002600083815260200190815260200160002060006101000a81548173ffffffffffffffffffffffffffffffffffffffff021916908373ffffffffffffffffffffffffffffffffffffffff160217905550808273ffffffffffffffffffffffffffffffffffffffff168473ffffffffffffffffffffffffffffffffffffffff167fddf252ad1be2c89b69c2b068fc378daa952ba7f163c4a11628f55a4df523b3ef60405160405180910390a4612fd783838361394a565b505050565b6000600a8460ff161115613025576040517f08c379a000000000000000000000000000000000000000000000000000000000815260040161301c90614e94565b60405180910390fd5b60006130388560ff168461ffff166130af565b90508015613095576000806130548760ff168661ffff1661394f565b915091508060ff1660028761306991906153e3565b61307391906153e3565b8260ff168761308291906153e3565b61308c9190615322565b935050506130a7565b8460ff16846130a491906153e3565b91505b509392505050565b60006103e883836130c09190615322565b10156130cf5760009050613112565b60006103e884846130e09190615322565b6130ea9190615683565b9050600081101580156130fd5750600a81105b1561310c576001915050613112565b60009150505b92915050565b6000600182901b90507f18d394ba347d8c318a1db51c85288b956d598b2925be44758ee6f2edb9e2a06b8160405161315091906151cd565b60405180910390a1919050565b600073ffffffffffffffffffffffffffffffffffffffff168273ffffffffffffffffffffffffffffffffffffffff1614156131cd576040517f08c379a00000000000000000000000000000000000000000000000000000000081526004016131c490615014565b60405180910390fd5b6131d681612b6a565b15613216576040517f08c379a000000000000000000000000000000000000000000000000000000000815260040161320d90614e74565b60405180910390fd5b61322260008383613836565b6001600360008473ffffffffffffffffffffffffffffffffffffffff1673ffffffffffffffffffffffffffffffffffffffff16815260200190815260200160002060008282546132729190615322565b92505081905550816002600083815260200190815260200160002060006101000a81548173ffffffffffffffffffffffffffffffffffffffff021916908373ffffffffffffffffffffffffffffffffffffffff160217905550808273ffffffffffffffffffffffffffffffffffffffff16600073ffffffffffffffffffffffffffffffffffffffff167fddf252ad1be2c89b69c2b068fc378daa952ba7f163c4a11628f55a4df523b3ef60405160405180910390a46133336000838361394a565b5050565b6012547f000000000000000000000000000000000000000000000000000000000000000073ffffffffffffffffffffffffffffffffffffffff166370a08231306040518263ffffffff1660e01b81526004016133939190614c62565b60206040518083038186803b1580156133ab57600080fd5b505afa1580156133bf573d6000803e3d6000fd5b505050506040513d601f19601f820116820180604052508101906133e39190614544565b1015613424576040517f08c379a000000000000000000000000000000000000000000000000000000000815260040161341b906150f4565b60405180910390fd5b6134326011546012546139b8565b50565b6000612710826134459190615683565b90507fb75047a36befaef84e90ca4c55f0673352e2942c569d5726c6cf463a043903f261347182611765565b60405161347e9190614c62565b60405180910390a1505050565b8173ffffffffffffffffffffffffffffffffffffffff168373ffffffffffffffffffffffffffffffffffffffff1614156134fa576040517f08c379a00000000000000000000000000000000000000000000000000000000081526004016134f190614f14565b60405180910390fd5b80600560008573ffffffffffffffffffffffffffffffffffffffff1673ffffffffffffffffffffffffffffffffffffffff16815260200190815260200160002060008473ffffffffffffffffffffffffffffffffffffffff1673ffffffffffffffffffffffffffffffffffffffff16815260200190815260200160002060006101000a81548160ff0219169083151502179055508173ffffffffffffffffffffffffffffffffffffffff168373ffffffffffffffffffffffffffffffffffffffff167f17307eab39ab6107e8899845ad3d59bd9653f200f220920489ca2b5937696c31836040516135eb9190614d29565b60405180910390a3505050565b613603848484612d75565b61360f84848484613b1a565b61364e576040517f08c379a000000000000000000000000000000000000000000000000000000000815260040161364590614e34565b60405180910390fd5b50505050565b606060405180602001604052806000815250905090565b606060008214156136b3576040518060400160405280600181526020017f300000000000000000000000000000000000000000000000000000000000000081525090506137c7565b600082905060005b600082146136e55780806136ce906155ea565b915050600a826136de91906153b2565b91506136bb565b60008167ffffffffffffffff8111156137015761370061579f565b5b6040519080825280601f01601f1916602001820160405280156137335781602001600182028036833780820191505090505b5090505b600085146137c05760018261374c919061543d565b9150600a8561375b9190615683565b60306137679190615322565b60f81b81838151811061377d5761377c615770565b5b60200101907effffffffffffffffffffffffffffffffffffffffffffffffffffffffffffff1916908160001a905350600a856137b991906153b2565b9450613737565b8093505050505b919050565b60007f01ffc9a7000000000000000000000000000000000000000000000000000000007bffffffffffffffffffffffffffffffffffffffffffffffffffffffff1916827bffffffffffffffffffffffffffffffffffffffffffffffffffffffff1916149050919050565b613841838383612a83565b600073ffffffffffffffffffffffffffffffffffffffff168373ffffffffffffffffffffffffffffffffffffffff1614156138845761387f81613cb1565b6138c3565b8173ffffffffffffffffffffffffffffffffffffffff168373ffffffffffffffffffffffffffffffffffffffff16146138c2576138c18382613cfa565b5b5b600073ffffffffffffffffffffffffffffffffffffffff168273ffffffffffffffffffffffffffffffffffffffff1614156139065761390181613e67565b613945565b8273ffffffffffffffffffffffffffffffffffffffff168273ffffffffffffffffffffffffffffffffffffffff1614613944576139438282613f38565b5b5b505050565b505050565b60008060005b848110156139b05761397360018261396d9190615322565b856130af565b1561399d576001816139859190615322565b92508260ff1685613996919061543d565b91506139b0565b80806139a8906155ea565b915050613955565b509250929050565b60007f000000000000000000000000000000000000000000000000000000000000000073ffffffffffffffffffffffffffffffffffffffff16634000aea07f000000000000000000000000000000000000000000000000000000000000000084866000604051602001613a2c929190614d44565b6040516020818303038152906040526040518463ffffffff1660e01b8152600401613a5993929190614cc9565b602060405180830381600087803b158015613a7357600080fd5b505af1158015613a87573d6000803e3d6000fd5b505050506040513d601f19601f82011682018060405250810190613aab91906143a3565b506000613ace84600030600a600089815260200190815260200160002054613fb7565b90506001600a600086815260200190815260200160002054613af09190615322565b600a600086815260200190815260200160002081905550613b118482613ff3565b91505092915050565b6000613b3b8473ffffffffffffffffffffffffffffffffffffffff16614026565b15613ca4578373ffffffffffffffffffffffffffffffffffffffff1663150b7a02613b64612bd6565b8786866040518563ffffffff1660e01b8152600401613b869493929190614c7d565b602060405180830381600087803b158015613ba057600080fd5b505af1925050508015613bd157506040513d601f19601f82011682018060405250810190613bce919061443d565b60015b613c54573d8060008114613c01576040519150601f19603f3d011682016040523d82523d6000602084013e613c06565b606091505b50600081511415613c4c576040517f08c379a0000000000000000000000000000000000000000000000000000000008152600401613c4390614e34565b60405180910390fd5b805181602001fd5b63150b7a0260e01b7bffffffffffffffffffffffffffffffffffffffffffffffffffffffff1916817bffffffffffffffffffffffffffffffffffffffffffffffffffffffff191614915050613ca9565b600190505b949350505050565b6008805490506009600083815260200190815260200160002081905550600881908060018154018082558091505060019003906000526020600020016000909190919091505550565b60006001613d0784611e51565b613d11919061543d565b9050600060076000848152602001908152602001600020549050818114613df6576000600660008673ffffffffffffffffffffffffffffffffffffffff1673ffffffffffffffffffffffffffffffffffffffff168152602001908152602001600020600084815260200190815260200160002054905080600660008773ffffffffffffffffffffffffffffffffffffffff1673ffffffffffffffffffffffffffffffffffffffff168152602001908152602001600020600084815260200190815260200160002081905550816007600083815260200190815260200160002081905550505b6007600084815260200190815260200160002060009055600660008573ffffffffffffffffffffffffffffffffffffffff1673ffffffffffffffffffffffffffffffffffffffff16815260200190815260200160002060008381526020019081526020016000206000905550505050565b60006001600880549050613e7b919061543d565b9050600060096000848152602001908152602001600020549050600060088381548110613eab57613eaa615770565b5b906000526020600020015490508060088381548110613ecd57613ecc615770565b5b906000526020600020018190555081600960008381526020019081526020016000208190555060096000858152602001908152602001600020600090556008805480613f1c57613f1b615741565b5b6001900381819060005260206000200160009055905550505050565b6000613f4383611e51565b905081600660008573ffffffffffffffffffffffffffffffffffffffff1673ffffffffffffffffffffffffffffffffffffffff168152602001908152602001600020600083815260200190815260200160002081905550806007600084815260200190815260200160002081905550505050565b600084848484604051602001613fd09493929190614d6d565b6040516020818303038152906040528051906020012060001c9050949350505050565b60008282604051602001614008929190614b95565b60405160208183030381529060405280519060200120905092915050565b6000808273ffffffffffffffffffffffffffffffffffffffff163b119050919050565b600061405c61405784615228565b615203565b905082815260208101848484011115614078576140776157d3565b5b61408384828561551a565b509392505050565b60008135905061409a81615e41565b92915050565b6000813590506140af81615e58565b92915050565b6000815190506140c481615e58565b92915050565b6000813590506140d981615e6f565b92915050565b6000813590506140ee81615e86565b92915050565b60008151905061410381615e86565b92915050565b600082601f83011261411e5761411d6157ce565b5b813561412e848260208601614049565b91505092915050565b60008135905061414681615e9d565b92915050565b60008135905061415b81615eb4565b92915050565b60008151905061417081615eb4565b92915050565b60008135905061418581615ecb565b92915050565b60008135905061419a81615ee2565b92915050565b6000602082840312156141b6576141b56157dd565b5b60006141c48482850161408b565b91505092915050565b600080604083850312156141e4576141e36157dd565b5b60006141f28582860161408b565b92505060206142038582860161408b565b9150509250929050565b600080600060608486031215614226576142256157dd565b5b60006142348682870161408b565b93505060206142458682870161408b565b92505060406142568682870161414c565b9150509250925092565b6000806000806080858703121561427a576142796157dd565b5b60006142888782880161408b565b94505060206142998782880161408b565b93505060406142aa8782880161414c565b925050606085013567ffffffffffffffff8111156142cb576142ca6157d8565b5b6142d787828801614109565b91505092959194509250565b600080604083850312156142fa576142f96157dd565b5b60006143088582860161408b565b9250506020614319858286016140a0565b9150509250929050565b6000806040838503121561433a576143396157dd565b5b60006143488582860161408b565b92505060206143598582860161414c565b9150509250929050565b6000806040838503121561437a576143796157dd565b5b60006143888582860161408b565b92505060206143998582860161418b565b9150509250929050565b6000602082840312156143b9576143b86157dd565b5b60006143c7848285016140b5565b91505092915050565b600080604083850312156143e7576143e66157dd565b5b60006143f5858286016140ca565b92505060206144068582860161414c565b9150509250929050565b600060208284031215614426576144256157dd565b5b6000614434848285016140df565b91505092915050565b600060208284031215614453576144526157dd565b5b6000614461848285016140f4565b91505092915050565b6000602082840312156144805761447f6157dd565b5b600061448e84828501614137565b91505092915050565b600080604083850312156144ae576144ad6157dd565b5b60006144bc85828601614137565b92505060206144cd85828601614176565b9150509250929050565b600080604083850312156144ee576144ed6157dd565b5b60006144fc85828601614137565b925050602061450d8582860161418b565b9150509250929050565b60006020828403121561452d5761452c6157dd565b5b600061453b8482850161414c565b91505092915050565b60006020828403121561455a576145596157dd565b5b600061456884828501614161565b91505092915050565b600060208284031215614587576145866157dd565b5b60006145958482850161418b565b91505092915050565b60006145aa8383614b2b565b60208301905092915050565b6145bf81615471565b82525050565b60006145d08261527e565b6145da81856152ac565b93506145e583615259565b8060005b838110156146165781516145fd888261459e565b97506146088361529f565b9250506001810190506145e9565b5085935050505092915050565b61462c81615483565b82525050565b61463b8161548f565b82525050565b61465261464d8261548f565b61565d565b82525050565b600061466382615289565b61466d81856152bd565b935061467d818560208601615529565b614686816157e2565b840191505092915050565b600061469c82615294565b6146a681856152ce565b93506146b6818560208601615529565b6146bf816157e2565b840191505092915050565b60006146d582615294565b6146df81856152df565b93506146ef818560208601615529565b80840191505092915050565b600081546147088161555c565b61471281866152df565b9450600182166000811461472d576001811461473e57614771565b60ff19831686528186019350614771565b61474785615269565b60005b838110156147695781548189015260018201915060208101905061474a565b838801955050505b50505092915050565b60006147876007836152ce565b915061479282615800565b602082019050919050565b60006147aa6006836152ce565b91506147b582615829565b602082019050919050565b60006147cd602b836152ce565b91506147d882615852565b604082019050919050565b60006147f06032836152ce565b91506147fb826158a1565b604082019050919050565b60006148136025836152ce565b915061481e826158f0565b604082019050919050565b6000614836601c836152ce565b91506148418261593f565b602082019050919050565b6000614859600d836152ce565b915061486482615968565b602082019050919050565b600061487c600a836152ce565b915061488782615991565b602082019050919050565b600061489f600d836152ce565b91506148aa826159ba565b602082019050919050565b60006148c26024836152ce565b91506148cd826159e3565b604082019050919050565b60006148e56019836152ce565b91506148f082615a32565b602082019050919050565b6000614908600f836152ce565b915061491382615a5b565b602082019050919050565b600061492b602c836152ce565b915061493682615a84565b604082019050919050565b600061494e6019836152ce565b915061495982615ad3565b602082019050919050565b6000614971600c836152ce565b915061497c82615afc565b602082019050919050565b60006149946038836152ce565b915061499f82615b25565b604082019050919050565b60006149b7602a836152ce565b91506149c282615b74565b604082019050919050565b60006149da6029836152ce565b91506149e582615bc3565b604082019050919050565b60006149fd6020836152ce565b9150614a0882615c12565b602082019050919050565b6000614a20602c836152ce565b9150614a2b82615c3b565b604082019050919050565b6000614a43600d836152ce565b9150614a4e82615c8a565b602082019050919050565b6000614a66602f836152ce565b9150614a7182615cb3565b604082019050919050565b6000614a89601f836152ce565b9150614a9482615d02565b602082019050919050565b6000614aac6021836152ce565b9150614ab782615d2b565b604082019050919050565b6000614acf6031836152ce565b9150614ada82615d7a565b604082019050919050565b6000614af2600d836152ce565b9150614afd82615dc9565b602082019050919050565b6000614b15602c836152ce565b9150614b2082615df2565b604082019050919050565b614b34816154c5565b82525050565b614b43816154c5565b82525050565b614b5a614b55826154c5565b615667565b82525050565b614b69816154f3565b82525050565b614b80614b7b826154f3565b615679565b82525050565b614b8f816154fd565b82525050565b6000614ba18285614641565b602082019150614bb18284614b6f565b6020820191508190509392505050565b6000614bcd82856146ca565b9150614bd982846146ca565b91508190509392505050565b6000614bf182856146fb565b9150614bfd82846146fb565b91508190509392505050565b6000614c1582876146fb565b9150614c2182866146fb565b9150614c2d82856146ca565b9150614c3982846146fb565b915081905095945050505050565b6000614c538284614b49565b60028201915081905092915050565b6000602082019050614c7760008301846145b6565b92915050565b6000608082019050614c9260008301876145b6565b614c9f60208301866145b6565b614cac6040830185614b60565b8181036060830152614cbe8184614658565b905095945050505050565b6000606082019050614cde60008301866145b6565b614ceb6020830185614b60565b8181036040830152614cfd8184614658565b9050949350505050565b60006020820190508181036000830152614d2181846145c5565b905092915050565b6000602082019050614d3e6000830184614623565b92915050565b6000604082019050614d596000830185614632565b614d666020830184614b60565b9392505050565b6000608082019050614d826000830187614632565b614d8f6020830186614b60565b614d9c60408301856145b6565b614da96060830184614b60565b95945050505050565b60006020820190508181036000830152614dcc8184614691565b905092915050565b60006020820190508181036000830152614ded8161477a565b9050919050565b60006020820190508181036000830152614e0d8161479d565b9050919050565b60006020820190508181036000830152614e2d816147c0565b9050919050565b60006020820190508181036000830152614e4d816147e3565b9050919050565b60006020820190508181036000830152614e6d81614806565b9050919050565b60006020820190508181036000830152614e8d81614829565b9050919050565b60006020820190508181036000830152614ead8161484c565b9050919050565b60006020820190508181036000830152614ecd8161486f565b9050919050565b60006020820190508181036000830152614eed81614892565b9050919050565b60006020820190508181036000830152614f0d816148b5565b9050919050565b60006020820190508181036000830152614f2d816148d8565b9050919050565b60006020820190508181036000830152614f4d816148fb565b9050919050565b60006020820190508181036000830152614f6d8161491e565b9050919050565b60006020820190508181036000830152614f8d81614941565b9050919050565b60006020820190508181036000830152614fad81614964565b9050919050565b60006020820190508181036000830152614fcd81614987565b9050919050565b60006020820190508181036000830152614fed816149aa565b9050919050565b6000602082019050818103600083015261500d816149cd565b9050919050565b6000602082019050818103600083015261502d816149f0565b9050919050565b6000602082019050818103600083015261504d81614a13565b9050919050565b6000602082019050818103600083015261506d81614a36565b9050919050565b6000602082019050818103600083015261508d81614a59565b9050919050565b600060208201905081810360008301526150ad81614a7c565b9050919050565b600060208201905081810360008301526150cd81614a9f565b9050919050565b600060208201905081810360008301526150ed81614ac2565b9050919050565b6000602082019050818103600083015261510d81614ae5565b9050919050565b6000602082019050818103600083015261512d81614b08565b9050919050565b60006020820190506151496000830184614b3a565b92915050565b600061010082019050615165600083018b614b3a565b615172602083018a614b3a565b61517f6040830189614b3a565b61518c6060830188614b3a565b6151996080830187614b3a565b6151a660a0830186614b3a565b6151b360c0830185614b3a565b6151c060e0830184614b86565b9998505050505050505050565b60006020820190506151e26000830184614b60565b92915050565b60006020820190506151fd6000830184614b86565b92915050565b600061520d61521e565b9050615219828261558e565b919050565b6000604051905090565b600067ffffffffffffffff8211156152435761524261579f565b5b61524c826157e2565b9050602081019050919050565b6000819050602082019050919050565b60008190508160005260206000209050919050565b600081519050919050565b600081519050919050565b600081519050919050565b6000602082019050919050565b600082825260208201905092915050565b600082825260208201905092915050565b600082825260208201905092915050565b600081905092915050565b60006152f5826154c5565b9150615300836154c5565b92508261ffff03821115615317576153166156b4565b5b828201905092915050565b600061532d826154f3565b9150615338836154f3565b9250827fffffffffffffffffffffffffffffffffffffffffffffffffffffffffffffffff0382111561536d5761536c6156b4565b5b828201905092915050565b6000615383826154fd565b915061538e836154fd565b92508263ffffffff038211156153a7576153a66156b4565b5b828201905092915050565b60006153bd826154f3565b91506153c8836154f3565b9250826153d8576153d76156e3565b5b828204905092915050565b60006153ee826154f3565b91506153f9836154f3565b9250817fffffffffffffffffffffffffffffffffffffffffffffffffffffffffffffffff0483118215151615615432576154316156b4565b5b828202905092915050565b6000615448826154f3565b9150615453836154f3565b925082821015615466576154656156b4565b5b828203905092915050565b600061547c826154d3565b9050919050565b60008115159050919050565b6000819050919050565b60007fffffffff0000000000000000000000000000000000000000000000000000000082169050919050565b600061ffff82169050919050565b600073ffffffffffffffffffffffffffffffffffffffff82169050919050565b6000819050919050565b600063ffffffff82169050919050565b600060ff82169050919050565b82818337600083830152505050565b60005b8381101561554757808201518184015260208101905061552c565b83811115615556576000848401525b50505050565b6000600282049050600182168061557457607f821691505b6020821081141561558857615587615712565b5b50919050565b615597826157e2565b810181811067ffffffffffffffff821117156155b6576155b561579f565b5b80604052505050565b60006155ca826154c5565b915061ffff8214156155df576155de6156b4565b5b600182019050919050565b60006155f5826154f3565b91507fffffffffffffffffffffffffffffffffffffffffffffffffffffffffffffffff821415615628576156276156b4565b5b600182019050919050565b600061563e8261550d565b915060ff821415615652576156516156b4565b5b600182019050919050565b6000819050919050565b6000615672826157f3565b9050919050565b6000819050919050565b600061568e826154f3565b9150615699836154f3565b9250826156a9576156a86156e3565b5b828206905092915050565b7f4e487b7100000000000000000000000000000000000000000000000000000000600052601160045260246000fd5b7f4e487b7100000000000000000000000000000000000000000000000000000000600052601260045260246000fd5b7f4e487b7100000000000000000000000000000000000000000000000000000000600052602260045260246000fd5b7f4e487b7100000000000000000000000000000000000000000000000000000000600052603160045260246000fd5b7f4e487b7100000000000000000000000000000000000000000000000000000000600052603260045260246000fd5b7f4e487b7100000000000000000000000000000000000000000000000000000000600052604160045260246000fd5b600080fd5b600080fd5b600080fd5b600080fd5b6000601f19601f8301169050919050565b60008160f01b9050919050565b7f4572723a20474300000000000000000000000000000000000000000000000000600082015250565b7f4572723a20410000000000000000000000000000000000000000000000000000600082015250565b7f455243373231456e756d657261626c653a206f776e657220696e646578206f7560008201527f74206f6620626f756e6473000000000000000000000000000000000000000000602082015250565b7f4552433732313a207472616e7366657220746f206e6f6e20455243373231526560008201527f63656976657220696d706c656d656e7465720000000000000000000000000000602082015250565b7f4552433732313a207472616e736665722066726f6d20696e636f72726563742060008201527f6f776e6572000000000000000000000000000000000000000000000000000000602082015250565b7f4552433732313a20746f6b656e20616c7265616479206d696e74656400000000600082015250565b7f4572723a20546f6f206869676800000000000000000000000000000000000000600082015250565b7f4572723a2046756e647300000000000000000000000000000000000000000000600082015250565b7f4572723a204d696e74204d617800000000000000000000000000000000000000600082015250565b7f4552433732313a207472616e7366657220746f20746865207a65726f2061646460008201527f7265737300000000000000000000000000000000000000000000000000000000602082015250565b7f4552433732313a20617070726f766520746f2063616c6c657200000000000000600082015250565b7f4572723a204e6f74204163746976650000000000000000000000000000000000600082015250565b7f4552433732313a206f70657261746f7220717565727920666f72206e6f6e657860008201527f697374656e7420746f6b656e0000000000000000000000000000000000000000602082015250565b7f4572723a20496e73756666696369656e742042616c616e636500000000000000600082015250565b7f4572723a20486974204361700000000000000000000000000000000000000000600082015250565b7f4552433732313a20617070726f76652063616c6c6572206973206e6f74206f7760008201527f6e6572206e6f7220617070726f76656420666f7220616c6c0000000000000000602082015250565b7f4552433732313a2062616c616e636520717565727920666f7220746865207a6560008201527f726f206164647265737300000000000000000000000000000000000000000000602082015250565b7f4552433732313a206f776e657220717565727920666f72206e6f6e657869737460008201527f656e7420746f6b656e0000000000000000000000000000000000000000000000602082015250565b7f4552433732313a206d696e7420746f20746865207a65726f2061646472657373600082015250565b7f4552433732313a20617070726f76656420717565727920666f72206e6f6e657860008201527f697374656e7420746f6b656e0000000000000000000000000000000000000000602082015250565b7f446f65736e277420457869737400000000000000000000000000000000000000600082015250565b7f4552433732314d657461646174613a2055524920717565727920666f72206e6f60008201527f6e6578697374656e7420746f6b656e0000000000000000000000000000000000602082015250565b7f4f6e6c7920565246436f6f7264696e61746f722063616e2066756c66696c6c00600082015250565b7f4552433732313a20617070726f76616c20746f2063757272656e74206f776e6560008201527f7200000000000000000000000000000000000000000000000000000000000000602082015250565b7f4552433732313a207472616e736665722063616c6c6572206973206e6f74206f60008201527f776e6572206e6f7220617070726f766564000000000000000000000000000000602082015250565b7f4572723a204c696e6b2042616c00000000000000000000000000000000000000600082015250565b7f455243373231456e756d657261626c653a20676c6f62616c20696e646578206f60008201527f7574206f6620626f756e64730000000000000000000000000000000000000000602082015250565b615e4a81615471565b8114615e5557600080fd5b50565b615e6181615483565b8114615e6c57600080fd5b50565b615e788161548f565b8114615e8357600080fd5b50565b615e8f81615499565b8114615e9a57600080fd5b50565b615ea6816154c5565b8114615eb157600080fd5b50565b615ebd816154f3565b8114615ec857600080fd5b50565b615ed4816154fd565b8114615edf57600080fd5b50565b615eeb8161550d565b8114615ef657600080fd5b5056fea26469706673582212200841e411a1936c6cf2366a3cf28e42d760c5b7dff7216427a87db0643c629cf064736f6c63430008070033",
  "linkReferences": {},
  "deployedLinkReferences": {}
}