{
  "_format": "hh-sol-artifact-1",
  "contractName": "Minter",
  "sourceName": "contracts/minter.sol",
  "abi": [
    {
      "inputs": [
        {
          "internalType": "address",
          "name": "_paymentSplitter",
          "type": "address"
        },
        {
          "internalType": "string",
          "name": "_baseURI",
          "type": "string"
        },
        {
          "internalType": "string",
          "name": "_CID",
          "type": "string"
        },
        {
          "internalType": "string",
          "name": "_notRevealed",
          "type": "string"
        },
        {
          "internalType": "string",
          "name": "_extension",
          "type": "string"
        },
        {
          "internalType": "uint16",
          "name": "_totalLimit",
          "type": "uint16"
        },
        {
          "internalType": "string",
          "name": "_soldOutMessage",
          "type": "string"
        },
        {
          "internalType": "address[]",
          "name": "_rewardedAddresses",
          "type": "address[]"
        }
      ],
      "stateMutability": "nonpayable",
      "type": "constructor"
    },
    {
      "anonymous": false,
      "inputs": [
        {
          "indexed": true,
          "internalType": "address",
          "name": "owner",
          "type": "address"
        },
        {
          "indexed": true,
          "internalType": "address",
          "name": "approved",
          "type": "address"
        },
        {
          "indexed": true,
          "internalType": "uint256",
          "name": "tokenId",
          "type": "uint256"
        }
      ],
      "name": "Approval",
      "type": "event"
    },
    {
      "anonymous": false,
      "inputs": [
        {
          "indexed": true,
          "internalType": "address",
          "name": "owner",
          "type": "address"
        },
        {
          "indexed": true,
          "internalType": "address",
          "name": "operator",
          "type": "address"
        },
        {
          "indexed": false,
          "internalType": "bool",
          "name": "approved",
          "type": "bool"
        }
      ],
      "name": "ApprovalForAll",
      "type": "event"
    },
    {
      "anonymous": false,
      "inputs": [
        {
          "indexed": false,
          "internalType": "address",
          "name": "to",
          "type": "address"
        },
        {
          "indexed": false,
          "internalType": "uint16",
          "name": "tokenId",
          "type": "uint16"
        }
      ],
      "name": "Mint",
      "type": "event"
    },
    {
      "anonymous": false,
      "inputs": [
        {
          "indexed": false,
          "internalType": "address",
          "name": "newAdmin",
          "type": "address"
        }
      ],
      "name": "NewAdmin",
      "type": "event"
    },
    {
      "anonymous": false,
      "inputs": [
        {
          "indexed": false,
          "internalType": "address",
          "name": "gameContract",
          "type": "address"
        }
      ],
      "name": "NewGameContract",
      "type": "event"
    },
    {
      "anonymous": false,
      "inputs": [
        {
          "indexed": false,
          "internalType": "address",
          "name": "winner",
          "type": "address"
        }
      ],
      "name": "PorscheWinner",
      "type": "event"
    },
    {
      "anonymous": false,
      "inputs": [
        {
          "indexed": false,
          "internalType": "uint256",
          "name": "newPrice",
          "type": "uint256"
        }
      ],
      "name": "PriceIncrease",
      "type": "event"
    },
    {
      "anonymous": false,
      "inputs": [
        {
          "indexed": false,
          "internalType": "string",
          "name": "message",
          "type": "string"
        }
      ],
      "name": "SoldOut",
      "type": "event"
    },
    {
      "anonymous": false,
      "inputs": [
        {
          "indexed": false,
          "internalType": "uint16",
          "name": "tokenId",
          "type": "uint16"
        },
        {
          "components": [
            {
              "internalType": "uint16",
              "name": "speed",
              "type": "uint16"
            },
            {
              "internalType": "uint16",
              "name": "strength",
              "type": "uint16"
            },
            {
              "internalType": "uint16",
              "name": "agressiveness",
              "type": "uint16"
            },
            {
              "internalType": "uint16",
              "name": "fightsWon",
              "type": "uint16"
            },
            {
              "internalType": "uint16",
              "name": "fightsLost",
              "type": "uint16"
            },
            {
              "internalType": "uint16",
              "name": "quickPlayRacesWon",
              "type": "uint16"
            },
            {
              "internalType": "uint16",
              "name": "quickPlayRacesLost",
              "type": "uint16"
            },
            {
              "internalType": "uint16",
              "name": "compRacesWon",
              "type": "uint16"
            },
            {
              "internalType": "uint16",
              "name": "compRacesLost",
              "type": "uint16"
            },
            {
              "internalType": "uint16",
              "name": "deathRacesWon",
              "type": "uint16"
            },
            {
              "internalType": "uint16",
              "name": "deathRacesLost",
              "type": "uint16"
            },
            {
              "internalType": "uint16",
              "name": "deathRacesSurvived",
              "type": "uint16"
            },
            {
              "internalType": "uint16",
              "name": "deathRaceFightsWon",
              "type": "uint16"
            },
            {
              "internalType": "uint16",
              "name": "totalRacesTop3Finish",
              "type": "uint16"
            },
            {
              "internalType": "uint256",
              "name": "cooldownTime",
              "type": "uint256"
            },
            {
              "internalType": "bool",
              "name": "foundingRaptor",
              "type": "bool"
            }
          ],
          "indexed": false,
          "internalType": "struct Stats",
          "name": "stats",
          "type": "tuple"
        }
      ],
      "name": "StatsUpdated",
      "type": "event"
    },
    {
      "anonymous": false,
      "inputs": [
        {
          "indexed": true,
          "internalType": "address",
          "name": "from",
          "type": "address"
        },
        {
          "indexed": true,
          "internalType": "address",
          "name": "to",
          "type": "address"
        },
        {
          "indexed": true,
          "internalType": "uint256",
          "name": "tokenId",
          "type": "uint256"
        }
      ],
      "name": "Transfer",
      "type": "event"
    },
    {
      "inputs": [],
      "name": "admin",
      "outputs": [
        {
          "internalType": "address",
          "name": "",
          "type": "address"
        }
      ],
      "stateMutability": "view",
      "type": "function"
    },
    {
      "inputs": [
        {
          "internalType": "address",
          "name": "to",
          "type": "address"
        },
        {
          "internalType": "uint256",
          "name": "tokenId",
          "type": "uint256"
        }
      ],
      "name": "approve",
      "outputs": [],
      "stateMutability": "nonpayable",
      "type": "function"
    },
    {
      "inputs": [
        {
          "internalType": "address",
          "name": "owner",
          "type": "address"
        }
      ],
      "name": "balanceOf",
      "outputs": [
        {
          "internalType": "uint256",
          "name": "",
          "type": "uint256"
        }
      ],
      "stateMutability": "view",
      "type": "function"
    },
    {
      "inputs": [],
      "name": "flipSaleState",
      "outputs": [],
      "stateMutability": "nonpayable",
      "type": "function"
    },
    {
      "inputs": [
        {
          "internalType": "uint256",
          "name": "tokenId",
          "type": "uint256"
        }
      ],
      "name": "getApproved",
      "outputs": [
        {
          "internalType": "address",
          "name": "",
          "type": "address"
        }
      ],
      "stateMutability": "view",
      "type": "function"
    },
    {
      "inputs": [
        {
          "internalType": "uint8",
          "name": "_amount",
          "type": "uint8"
        }
      ],
      "name": "getPrice",
      "outputs": [
        {
          "internalType": "uint256",
          "name": "givenPrice",
          "type": "uint256"
        }
      ],
      "stateMutability": "view",
      "type": "function"
    },
    {
      "inputs": [
        {
          "internalType": "uint16",
          "name": "_id",
          "type": "uint16"
        }
      ],
      "name": "getStats",
      "outputs": [
        {
          "components": [
            {
              "internalType": "uint16",
              "name": "speed",
              "type": "uint16"
            },
            {
              "internalType": "uint16",
              "name": "strength",
              "type": "uint16"
            },
            {
              "internalType": "uint16",
              "name": "agressiveness",
              "type": "uint16"
            },
            {
              "internalType": "uint16",
              "name": "fightsWon",
              "type": "uint16"
            },
            {
              "internalType": "uint16",
              "name": "fightsLost",
              "type": "uint16"
            },
            {
              "internalType": "uint16",
              "name": "quickPlayRacesWon",
              "type": "uint16"
            },
            {
              "internalType": "uint16",
              "name": "quickPlayRacesLost",
              "type": "uint16"
            },
            {
              "internalType": "uint16",
              "name": "compRacesWon",
              "type": "uint16"
            },
            {
              "internalType": "uint16",
              "name": "compRacesLost",
              "type": "uint16"
            },
            {
              "internalType": "uint16",
              "name": "deathRacesWon",
              "type": "uint16"
            },
            {
              "internalType": "uint16",
              "name": "deathRacesLost",
              "type": "uint16"
            },
            {
              "internalType": "uint16",
              "name": "deathRacesSurvived",
              "type": "uint16"
            },
            {
              "internalType": "uint16",
              "name": "deathRaceFightsWon",
              "type": "uint16"
            },
            {
              "internalType": "uint16",
              "name": "totalRacesTop3Finish",
              "type": "uint16"
            },
            {
              "internalType": "uint256",
              "name": "cooldownTime",
              "type": "uint256"
            },
            {
              "internalType": "bool",
              "name": "foundingRaptor",
              "type": "bool"
            }
          ],
          "internalType": "struct Stats",
          "name": "stats",
          "type": "tuple"
        }
      ],
      "stateMutability": "view",
      "type": "function"
    },
    {
      "inputs": [],
      "name": "getTotalMinted",
      "outputs": [
        {
          "internalType": "uint16",
          "name": "total",
          "type": "uint16"
        }
      ],
      "stateMutability": "view",
      "type": "function"
    },
    {
      "inputs": [
        {
          "internalType": "address",
          "name": "owner",
          "type": "address"
        },
        {
          "internalType": "address",
          "name": "operator",
          "type": "address"
        }
      ],
      "name": "isApprovedForAll",
      "outputs": [
        {
          "internalType": "bool",
          "name": "",
          "type": "bool"
        }
      ],
      "stateMutability": "view",
      "type": "function"
    },
    {
      "inputs": [
        {
          "internalType": "uint8",
          "name": "_amount",
          "type": "uint8"
        }
      ],
      "name": "mint",
      "outputs": [],
      "stateMutability": "payable",
      "type": "function"
    },
    {
      "inputs": [],
      "name": "name",
      "outputs": [
        {
          "internalType": "string",
          "name": "",
          "type": "string"
        }
      ],
      "stateMutability": "view",
      "type": "function"
    },
    {
      "inputs": [
        {
          "internalType": "uint256",
          "name": "tokenId",
          "type": "uint256"
        }
      ],
      "name": "ownerOf",
      "outputs": [
        {
          "internalType": "address",
          "name": "",
          "type": "address"
        }
      ],
      "stateMutability": "view",
      "type": "function"
    },
    {
      "inputs": [],
      "name": "reveal",
      "outputs": [],
      "stateMutability": "nonpayable",
      "type": "function"
    },
    {
      "inputs": [
        {
          "internalType": "address",
          "name": "from",
          "type": "address"
        },
        {
          "internalType": "address",
          "name": "to",
          "type": "address"
        },
        {
          "internalType": "uint256",
          "name": "tokenId",
          "type": "uint256"
        }
      ],
      "name": "safeTransferFrom",
      "outputs": [],
      "stateMutability": "nonpayable",
      "type": "function"
    },
    {
      "inputs": [
        {
          "internalType": "address",
          "name": "from",
          "type": "address"
        },
        {
          "internalType": "address",
          "name": "to",
          "type": "address"
        },
        {
          "internalType": "uint256",
          "name": "tokenId",
          "type": "uint256"
        },
        {
          "internalType": "bytes",
          "name": "_data",
          "type": "bytes"
        }
      ],
      "name": "safeTransferFrom",
      "outputs": [],
      "stateMutability": "nonpayable",
      "type": "function"
    },
    {
      "inputs": [
        {
          "internalType": "address",
          "name": "_admin",
          "type": "address"
        }
      ],
      "name": "setAdmin",
      "outputs": [],
      "stateMutability": "nonpayable",
      "type": "function"
    },
    {
      "inputs": [
        {
          "internalType": "address",
          "name": "operator",
          "type": "address"
        },
        {
          "internalType": "bool",
          "name": "approved",
          "type": "bool"
        }
      ],
      "name": "setApprovalForAll",
      "outputs": [],
      "stateMutability": "nonpayable",
      "type": "function"
    },
    {
      "inputs": [
        {
          "internalType": "bytes4",
          "name": "interfaceId",
          "type": "bytes4"
        }
      ],
      "name": "supportsInterface",
      "outputs": [
        {
          "internalType": "bool",
          "name": "",
          "type": "bool"
        }
      ],
      "stateMutability": "view",
      "type": "function"
    },
    {
      "inputs": [],
      "name": "symbol",
      "outputs": [
        {
          "internalType": "string",
          "name": "",
          "type": "string"
        }
      ],
      "stateMutability": "view",
      "type": "function"
    },
    {
      "inputs": [
        {
          "internalType": "uint256",
          "name": "index",
          "type": "uint256"
        }
      ],
      "name": "tokenByIndex",
      "outputs": [
        {
          "internalType": "uint256",
          "name": "",
          "type": "uint256"
        }
      ],
      "stateMutability": "view",
      "type": "function"
    },
    {
      "inputs": [
        {
          "internalType": "address",
          "name": "owner",
          "type": "address"
        },
        {
          "internalType": "uint256",
          "name": "index",
          "type": "uint256"
        }
      ],
      "name": "tokenOfOwnerByIndex",
      "outputs": [
        {
          "internalType": "uint256",
          "name": "",
          "type": "uint256"
        }
      ],
      "stateMutability": "view",
      "type": "function"
    },
    {
      "inputs": [
        {
          "internalType": "uint256",
          "name": "tokenId",
          "type": "uint256"
        }
      ],
      "name": "tokenURI",
      "outputs": [
        {
          "internalType": "string",
          "name": "",
          "type": "string"
        }
      ],
      "stateMutability": "view",
      "type": "function"
    },
    {
      "inputs": [
        {
          "internalType": "uint16",
          "name": "_tokenId",
          "type": "uint16"
        }
      ],
      "name": "tokenURI",
      "outputs": [
        {
          "internalType": "string",
          "name": "uri",
          "type": "string"
        }
      ],
      "stateMutability": "view",
      "type": "function"
    },
    {
      "inputs": [],
      "name": "totalSupply",
      "outputs": [
        {
          "internalType": "uint256",
          "name": "",
          "type": "uint256"
        }
      ],
      "stateMutability": "view",
      "type": "function"
    },
    {
      "inputs": [
        {
          "internalType": "address",
          "name": "from",
          "type": "address"
        },
        {
          "internalType": "address",
          "name": "to",
          "type": "address"
        },
        {
          "internalType": "uint256",
          "name": "tokenId",
          "type": "uint256"
        }
      ],
      "name": "transferFrom",
      "outputs": [],
      "stateMutability": "nonpayable",
      "type": "function"
    },
    {
      "inputs": [
        {
          "internalType": "address",
          "name": "_gameAddress",
          "type": "address"
        }
      ],
      "name": "updateGameAddress",
      "outputs": [],
      "stateMutability": "nonpayable",
      "type": "function"
    },
    {
      "inputs": [
        {
          "internalType": "address",
          "name": "_paymentSplitter",
          "type": "address"
        }
      ],
      "name": "updateSplitter",
      "outputs": [],
      "stateMutability": "nonpayable",
      "type": "function"
    },
    {
      "inputs": [
        {
          "components": [
            {
              "internalType": "uint16",
              "name": "speed",
              "type": "uint16"
            },
            {
              "internalType": "uint16",
              "name": "strength",
              "type": "uint16"
            },
            {
              "internalType": "uint16",
              "name": "agressiveness",
              "type": "uint16"
            },
            {
              "internalType": "uint16",
              "name": "fightsWon",
              "type": "uint16"
            },
            {
              "internalType": "uint16",
              "name": "fightsLost",
              "type": "uint16"
            },
            {
              "internalType": "uint16",
              "name": "quickPlayRacesWon",
              "type": "uint16"
            },
            {
              "internalType": "uint16",
              "name": "quickPlayRacesLost",
              "type": "uint16"
            },
            {
              "internalType": "uint16",
              "name": "compRacesWon",
              "type": "uint16"
            },
            {
              "internalType": "uint16",
              "name": "compRacesLost",
              "type": "uint16"
            },
            {
              "internalType": "uint16",
              "name": "deathRacesWon",
              "type": "uint16"
            },
            {
              "internalType": "uint16",
              "name": "deathRacesLost",
              "type": "uint16"
            },
            {
              "internalType": "uint16",
              "name": "deathRacesSurvived",
              "type": "uint16"
            },
            {
              "internalType": "uint16",
              "name": "deathRaceFightsWon",
              "type": "uint16"
            },
            {
              "internalType": "uint16",
              "name": "totalRacesTop3Finish",
              "type": "uint16"
            },
            {
              "internalType": "uint256",
              "name": "cooldownTime",
              "type": "uint256"
            },
            {
              "internalType": "bool",
              "name": "foundingRaptor",
              "type": "bool"
            }
          ],
          "internalType": "struct Stats",
          "name": "_stats",
          "type": "tuple"
        },
        {
          "internalType": "uint16",
          "name": "_id",
          "type": "uint16"
        }
      ],
      "name": "updateStats",
      "outputs": [
        {
          "internalType": "bool",
          "name": "",
          "type": "bool"
        }
      ],
      "stateMutability": "nonpayable",
      "type": "function"
    },
    {
      "inputs": [
        {
          "internalType": "address",
          "name": "_wallet",
          "type": "address"
        }
      ],
      "name": "walletOfOwner",
      "outputs": [
        {
          "internalType": "uint16[]",
          "name": "ids",
          "type": "uint16[]"
        }
      ],
      "stateMutability": "view",
      "type": "function"
    }
  ],
  "bytecode": "0x60806040526040518060400160405280600581526020017f2e4a534f4e000000000000000000000000000000000000000000000000000000815250600d908051906020019062000051929190620010de565b5060405180602001604052806000815250600e908051906020019062000079929190620010de565b506040518060600160405280600160ff168152602001600260ff168152602001600360ff168152506015906003620000b39291906200116f565b50348015620000c157600080fd5b5060405162007543380380620075438339818101604052810190620000e7919062001425565b6040518060400160405280601181526020017f526163696e6720526170746f72732056320000000000000000000000000000008152506040518060400160405280600281526020017f525200000000000000000000000000000000000000000000000000000000000081525081600090805190602001906200016b929190620010de565b50806001908051906020019062000184929190620010de565b50505060038151146200019657600080fd5b8060149080519060200190620001ae9291906200121d565b5086600b9080519060200190620001c7929190620010de565b5085600c9080519060200190620001e0929190620010de565b5084600e9080519060200190620001f9929190620010de565b5083600d908051906020019062000212929190620010de565b506001600a60146101000a81548160ff0219169083151502179055506000601260006101000a81548161ffff021916908361ffff16021790555082601260026101000a81548161ffff021916908361ffff160217905550671bc16d674ec80000601181905550620002886200034060201b60201c565b600a60006101000a81548173ffffffffffffffffffffffffffffffffffffffff021916908373ffffffffffffffffffffffffffffffffffffffff16021790555087601260056101000a81548173ffffffffffffffffffffffffffffffffffffffff021916908373ffffffffffffffffffffffffffffffffffffffff16021790555081600f908051906020019062000321929190620010de565b50620003326200034860201b60201c565b505050505050505062001ba5565b600033905090565b60005b6014805490508160ff161015620007c05760005b60158260ff1681548110620003795762000378620019f9565b5b90600052602060002090602091828204019190069054906101000a900460ff1660ff168160ff161015620007a9576001601260008282829054906101000a900461ffff16620003c991906200176b565b92506101000a81548161ffff021916908361ffff1602179055506200044d60148360ff1681548110620004015762000400620019f9565b5b9060005260206000200160009054906101000a900473ffffffffffffffffffffffffffffffffffffffff16601260009054906101000a900461ffff1661ffff16620007c360201b60201c565b62000495601360009054906101000a900473ffffffffffffffffffffffffffffffffffffffff16601260009054906101000a900461ffff1661ffff16620009bd60201b60201c565b604051806102000160405280600161ffff168152602001600161ffff168152602001600161ffff168152602001600061ffff168152602001600061ffff168152602001600061ffff168152602001600061ffff168152602001600061ffff168152602001600061ffff168152602001600061ffff168152602001600061ffff168152602001600061ffff168152602001600061ffff168152602001600061ffff168152602001600081526020016001151581525060106000601260009054906101000a900461ffff1661ffff1661ffff16815260200190815260200160002060008201518160000160006101000a81548161ffff021916908361ffff16021790555060208201518160000160026101000a81548161ffff021916908361ffff16021790555060408201518160000160046101000a81548161ffff021916908361ffff16021790555060608201518160000160066101000a81548161ffff021916908361ffff16021790555060808201518160000160086101000a81548161ffff021916908361ffff16021790555060a082015181600001600a6101000a81548161ffff021916908361ffff16021790555060c082015181600001600c6101000a81548161ffff021916908361ffff16021790555060e082015181600001600e6101000a81548161ffff021916908361ffff1602179055506101008201518160000160106101000a81548161ffff021916908361ffff1602179055506101208201518160000160126101000a81548161ffff021916908361ffff1602179055506101408201518160000160146101000a81548161ffff021916908361ffff1602179055506101608201518160000160166101000a81548161ffff021916908361ffff1602179055506101808201518160000160186101000a81548161ffff021916908361ffff1602179055506101a082015181600001601a6101000a81548161ffff021916908361ffff1602179055506101c082015181600101556101e08201518160020160006101000a81548160ff0219169083151502179055509050508080620007a0906200193d565b9150506200035f565b508080620007b7906200193d565b9150506200034b565b50565b600073ffffffffffffffffffffffffffffffffffffffff168273ffffffffffffffffffffffffffffffffffffffff16141562000836576040517f08c379a00000000000000000000000000000000000000000000000000000000081526004016200082d90620016aa565b60405180910390fd5b620008478162000a8360201b60201c565b156200088a576040517f08c379a0000000000000000000000000000000000000000000000000000000008152600401620008819062001644565b60405180910390fd5b6200089e6000838362000aef60201b60201c565b6001600360008473ffffffffffffffffffffffffffffffffffffffff1673ffffffffffffffffffffffffffffffffffffffff1681526020019081526020016000206000828254620008f09190620017aa565b92505081905550816002600083815260200190815260200160002060006101000a81548173ffffffffffffffffffffffffffffffffffffffff021916908373ffffffffffffffffffffffffffffffffffffffff160217905550808273ffffffffffffffffffffffffffffffffffffffff16600073ffffffffffffffffffffffffffffffffffffffff167fddf252ad1be2c89b69c2b068fc378daa952ba7f163c4a11628f55a4df523b3ef60405160405180910390a4620009b96000838362000c3660201b60201c565b5050565b816004600083815260200190815260200160002060006101000a81548173ffffffffffffffffffffffffffffffffffffffff021916908373ffffffffffffffffffffffffffffffffffffffff160217905550808273ffffffffffffffffffffffffffffffffffffffff1662000a3d8362000c3b60201b6200115b1760201c565b73ffffffffffffffffffffffffffffffffffffffff167f8c5be1e5ebec7d5bd14f71427d1e84f3dd0314c0f7b2291e5b200ac8c7c3b92560405160405180910390a45050565b60008073ffffffffffffffffffffffffffffffffffffffff166002600084815260200190815260200160002060009054906101000a900473ffffffffffffffffffffffffffffffffffffffff1673ffffffffffffffffffffffffffffffffffffffff1614159050919050565b62000b0783838362000cf060201b620023071760201c565b600073ffffffffffffffffffffffffffffffffffffffff168373ffffffffffffffffffffffffffffffffffffffff16141562000b545762000b4e8162000cf560201b60201c565b62000b9c565b8173ffffffffffffffffffffffffffffffffffffffff168373ffffffffffffffffffffffffffffffffffffffff161462000b9b5762000b9a838262000d3e60201b60201c565b5b5b600073ffffffffffffffffffffffffffffffffffffffff168273ffffffffffffffffffffffffffffffffffffffff16141562000be95762000be38162000ebb60201b60201c565b62000c31565b8273ffffffffffffffffffffffffffffffffffffffff168273ffffffffffffffffffffffffffffffffffffffff161462000c305762000c2f828262000f9760201b60201c565b5b5b505050565b505050565b6000806002600084815260200190815260200160002060009054906101000a900473ffffffffffffffffffffffffffffffffffffffff169050600073ffffffffffffffffffffffffffffffffffffffff168173ffffffffffffffffffffffffffffffffffffffff16141562000ce7576040517f08c379a000000000000000000000000000000000000000000000000000000000815260040162000cde9062001688565b60405180910390fd5b80915050919050565b505050565b6008805490506009600083815260200190815260200160002081905550600881908060018154018082558091505060019003906000526020600020016000909190919091505550565b6000600162000d58846200102360201b62001aa11760201c565b62000d64919062001807565b905060006007600084815260200190815260200160002054905081811462000e4a576000600660008673ffffffffffffffffffffffffffffffffffffffff1673ffffffffffffffffffffffffffffffffffffffff168152602001908152602001600020600084815260200190815260200160002054905080600660008773ffffffffffffffffffffffffffffffffffffffff1673ffffffffffffffffffffffffffffffffffffffff168152602001908152602001600020600084815260200190815260200160002081905550816007600083815260200190815260200160002081905550505b6007600084815260200190815260200160002060009055600660008573ffffffffffffffffffffffffffffffffffffffff1673ffffffffffffffffffffffffffffffffffffffff16815260200190815260200160002060008381526020019081526020016000206000905550505050565b6000600160088054905062000ed1919062001807565b905060006009600084815260200190815260200160002054905060006008838154811062000f045762000f03620019f9565b5b90600052602060002001549050806008838154811062000f295762000f28620019f9565b5b90600052602060002001819055508160096000838152602001908152602001600020819055506009600085815260200190815260200160002060009055600880548062000f7b5762000f7a620019ca565b5b6001900381819060005260206000200160009055905550505050565b600062000faf836200102360201b62001aa11760201c565b905081600660008573ffffffffffffffffffffffffffffffffffffffff1673ffffffffffffffffffffffffffffffffffffffff168152602001908152602001600020600083815260200190815260200160002081905550806007600084815260200190815260200160002081905550505050565b60008073ffffffffffffffffffffffffffffffffffffffff168273ffffffffffffffffffffffffffffffffffffffff16141562001097576040517f08c379a00000000000000000000000000000000000000000000000000000000081526004016200108e9062001666565b60405180910390fd5b600360008373ffffffffffffffffffffffffffffffffffffffff1673ffffffffffffffffffffffffffffffffffffffff168152602001908152602001600020549050919050565b828054620010ec90620018d1565b90600052602060002090601f0160209004810192826200111057600085556200115c565b82601f106200112b57805160ff19168380011785556200115c565b828001600101855582156200115c579182015b828111156200115b5782518255916020019190600101906200113e565b5b5090506200116b9190620012ac565b5090565b82805482825590600052602060002090601f016020900481019282156200120a5791602002820160005b83821115620011d957835183826101000a81548160ff021916908360ff160217905550926020019260010160208160000104928301926001030262001199565b8015620012085782816101000a81549060ff0219169055600101602081600001049283019260010302620011d9565b505b509050620012199190620012ac565b5090565b82805482825590600052602060002090810192821562001299579160200282015b82811115620012985782518260006101000a81548173ffffffffffffffffffffffffffffffffffffffff021916908373ffffffffffffffffffffffffffffffffffffffff160217905550916020019190600101906200123e565b5b509050620012a89190620012ac565b5090565b5b80821115620012c7576000816000905550600101620012ad565b5090565b6000620012e2620012dc84620016f5565b620016cc565b9050808382526020820190508285602086028201111562001308576200130762001a5c565b5b60005b858110156200133c578162001321888262001391565b8452602084019350602083019250506001810190506200130b565b5050509392505050565b60006200135d620013578462001724565b620016cc565b9050828152602081018484840111156200137c576200137b62001a61565b5b620013898482856200189b565b509392505050565b600081519050620013a28162001b71565b92915050565b600082601f830112620013c057620013bf62001a57565b5b8151620013d2848260208601620012cb565b91505092915050565b600082601f830112620013f357620013f262001a57565b5b81516200140584826020860162001346565b91505092915050565b6000815190506200141f8162001b8b565b92915050565b600080600080600080600080610100898b03121562001449576200144862001a6b565b5b6000620014598b828c0162001391565b985050602089015167ffffffffffffffff8111156200147d576200147c62001a66565b5b6200148b8b828c01620013db565b975050604089015167ffffffffffffffff811115620014af57620014ae62001a66565b5b620014bd8b828c01620013db565b965050606089015167ffffffffffffffff811115620014e157620014e062001a66565b5b620014ef8b828c01620013db565b955050608089015167ffffffffffffffff81111562001513576200151262001a66565b5b620015218b828c01620013db565b94505060a0620015348b828c016200140e565b93505060c089015167ffffffffffffffff81111562001558576200155762001a66565b5b620015668b828c01620013db565b92505060e089015167ffffffffffffffff8111156200158a576200158962001a66565b5b620015988b828c01620013a8565b9150509295985092959890939650565b6000620015b7601c836200175a565b9150620015c48262001a81565b602082019050919050565b6000620015de602a836200175a565b9150620015eb8262001aaa565b604082019050919050565b6000620016056029836200175a565b9150620016128262001af9565b604082019050919050565b60006200162c6020836200175a565b9150620016398262001b48565b602082019050919050565b600060208201905081810360008301526200165f81620015a8565b9050919050565b600060208201905081810360008301526200168181620015cf565b9050919050565b60006020820190508181036000830152620016a381620015f6565b9050919050565b60006020820190508181036000830152620016c5816200161d565b9050919050565b6000620016d8620016eb565b9050620016e6828262001907565b919050565b6000604051905090565b600067ffffffffffffffff82111562001713576200171262001a28565b5b602082029050602081019050919050565b600067ffffffffffffffff82111562001742576200174162001a28565b5b6200174d8262001a70565b9050602081019050919050565b600082825260208201905092915050565b6000620017788262001856565b9150620017858362001856565b92508261ffff038211156200179f576200179e6200196c565b5b828201905092915050565b6000620017b78262001884565b9150620017c48362001884565b9250827fffffffffffffffffffffffffffffffffffffffffffffffffffffffffffffffff03821115620017fc57620017fb6200196c565b5b828201905092915050565b6000620018148262001884565b9150620018218362001884565b9250828210156200183757620018366200196c565b5b828203905092915050565b60006200184f8262001864565b9050919050565b600061ffff82169050919050565b600073ffffffffffffffffffffffffffffffffffffffff82169050919050565b6000819050919050565b600060ff82169050919050565b60005b83811015620018bb5780820151818401526020810190506200189e565b83811115620018cb576000848401525b50505050565b60006002820490506001821680620018ea57607f821691505b602082108114156200190157620019006200199b565b5b50919050565b620019128262001a70565b810181811067ffffffffffffffff8211171562001934576200193362001a28565b5b80604052505050565b60006200194a826200188e565b915060ff8214156200196157620019606200196c565b5b600182019050919050565b7f4e487b7100000000000000000000000000000000000000000000000000000000600052601160045260246000fd5b7f4e487b7100000000000000000000000000000000000000000000000000000000600052602260045260246000fd5b7f4e487b7100000000000000000000000000000000000000000000000000000000600052603160045260246000fd5b7f4e487b7100000000000000000000000000000000000000000000000000000000600052603260045260246000fd5b7f4e487b7100000000000000000000000000000000000000000000000000000000600052604160045260246000fd5b600080fd5b600080fd5b600080fd5b600080fd5b600080fd5b6000601f19601f8301169050919050565b7f4552433732313a20746f6b656e20616c7265616479206d696e74656400000000600082015250565b7f4552433732313a2062616c616e636520717565727920666f7220746865207a6560008201527f726f206164647265737300000000000000000000000000000000000000000000602082015250565b7f4552433732313a206f776e657220717565727920666f72206e6f6e657869737460008201527f656e7420746f6b656e0000000000000000000000000000000000000000000000602082015250565b7f4552433732313a206d696e7420746f20746865207a65726f2061646472657373600082015250565b62001b7c8162001842565b811462001b8857600080fd5b50565b62001b968162001856565b811462001ba257600080fd5b50565b61598e8062001bb56000396000f3fe6080604052600436106101c25760003560e01c80636352211e116100f7578063a475b5dd11610095578063db258f9c11610064578063db258f9c1461067b578063dd7d8440146106a4578063e985e9c5146106e1578063f851a4401461071e576101c2565b8063a475b5dd146105d5578063a8eb6d8e146105ec578063b88d4fde14610615578063c87b56dd1461063e576101c2565b806370a08231116100d157806370a0823114610507578063887078be1461054457806395d89b4114610581578063a22cb465146105ac576101c2565b80636352211e146104855780636ecd2306146104c2578063704b6c02146104de576101c2565b80632f745c591161016457806341c254ad1161013e57806341c254ad146103a557806342842e0e146103e2578063438b63001461040b5780634f6ccce714610448576101c2565b80632f745c591461031457806334918dfd1461035157806337f1e7f214610368576101c2565b8063095ea7b3116101a0578063095ea7b31461026c5780630ca1c5c91461029557806318160ddd146102c057806323b872dd146102eb576101c2565b806301ffc9a7146101c757806306fdde0314610204578063081812fc1461022f575b600080fd5b3480156101d357600080fd5b506101ee60048036038101906101e99190613d49565b610749565b6040516101fb9190614818565b60405180910390f35b34801561021057600080fd5b506102196107c3565b60405161022691906148a1565b60405180910390f35b34801561023b57600080fd5b5061025660048036038101906102519190613e12565b610855565b6040516102639190614728565b60405180910390f35b34801561027857600080fd5b50610293600480360381019061028e9190613cdc565b6108da565b005b3480156102a157600080fd5b506102aa6109f2565b6040516102b79190614c21565b60405180910390f35b3480156102cc57600080fd5b506102d5610a0a565b6040516102e29190614c66565b60405180910390f35b3480156102f757600080fd5b50610312600480360381019061030d9190613bc6565b610a17565b005b34801561032057600080fd5b5061033b60048036038101906103369190613cdc565b610a77565b6040516103489190614c66565b60405180910390f35b34801561035d57600080fd5b50610366610b1c565b005b34801561037457600080fd5b5061038f600480360381019061038a9190613e6c565b610ba9565b60405161039c9190614c66565b60405180910390f35b3480156103b157600080fd5b506103cc60048036038101906103c79190613da3565b610ca1565b6040516103d99190614818565b60405180910390f35b3480156103ee57600080fd5b5061040960048036038101906104049190613bc6565b611004565b005b34801561041757600080fd5b50610432600480360381019061042d9190613b59565b611024565b60405161043f91906147f6565b60405180910390f35b34801561045457600080fd5b5061046f600480360381019061046a9190613e12565b6110ea565b60405161047c9190614c66565b60405180910390f35b34801561049157600080fd5b506104ac60048036038101906104a79190613e12565b61115b565b6040516104b99190614728565b60405180910390f35b6104dc60048036038101906104d79190613e6c565b61120d565b005b3480156104ea57600080fd5b5061050560048036038101906105009190613b59565b6119c5565b005b34801561051357600080fd5b5061052e60048036038101906105299190613b59565b611aa1565b60405161053b9190614c66565b60405180910390f35b34801561055057600080fd5b5061056b60048036038101906105669190613de5565b611b59565b6040516105789190614c05565b60405180910390f35b34801561058d57600080fd5b50610596611dc0565b6040516105a391906148a1565b60405180910390f35b3480156105b857600080fd5b506105d360048036038101906105ce9190613c9c565b611e52565b005b3480156105e157600080fd5b506105ea611e68565b005b3480156105f857600080fd5b50610613600480360381019061060e9190613b59565b611ee6565b005b34801561062157600080fd5b5061063c60048036038101906106379190613c19565b611f8b565b005b34801561064a57600080fd5b5061066560048036038101906106609190613e12565b611fed565b60405161067291906148a1565b60405180910390f35b34801561068757600080fd5b506106a2600480360381019061069d9190613b59565b612094565b005b3480156106b057600080fd5b506106cb60048036038101906106c69190613de5565b612170565b6040516106d891906148a1565b60405180910390f35b3480156106ed57600080fd5b5061070860048036038101906107039190613b86565b61224d565b6040516107159190614818565b60405180910390f35b34801561072a57600080fd5b506107336122e1565b6040516107409190614728565b60405180910390f35b60007f780e9d63000000000000000000000000000000000000000000000000000000007bffffffffffffffffffffffffffffffffffffffffffffffffffffffff1916827bffffffffffffffffffffffffffffffffffffffffffffffffffffffff191614806107bc57506107bb8261230c565b5b9050919050565b6060600080546107d290614f9b565b80601f01602080910402602001604051908101604052809291908181526020018280546107fe90614f9b565b801561084b5780601f106108205761010080835404028352916020019161084b565b820191906000526020600020905b81548152906001019060200180831161082e57829003601f168201915b5050505050905090565b6000610860826123ee565b61089f576040517f08c379a000000000000000000000000000000000000000000000000000000000815260040161089690614b05565b60405180910390fd5b6004600083815260200190815260200160002060009054906101000a900473ffffffffffffffffffffffffffffffffffffffff169050919050565b60006108e58261115b565b90508073ffffffffffffffffffffffffffffffffffffffff168373ffffffffffffffffffffffffffffffffffffffff161415610956576040517f08c379a000000000000000000000000000000000000000000000000000000000815260040161094d90614b45565b60405180910390fd5b8073ffffffffffffffffffffffffffffffffffffffff1661097561245a565b73ffffffffffffffffffffffffffffffffffffffff1614806109a457506109a38161099e61245a565b61224d565b5b6109e3576040517f08c379a00000000000000000000000000000000000000000000000000000000081526004016109da90614a85565b60405180910390fd5b6109ed8383612462565b505050565b6000601260009054906101000a900461ffff16905090565b6000600880549050905090565b610a28610a2261245a565b8261251b565b610a67576040517f08c379a0000000000000000000000000000000000000000000000000000000008152600401610a5e90614b85565b60405180910390fd5b610a728383836125f9565b505050565b6000610a8283611aa1565b8210610ac3576040517f08c379a0000000000000000000000000000000000000000000000000000000008152600401610aba90614925565b60405180910390fd5b600660008473ffffffffffffffffffffffffffffffffffffffff1673ffffffffffffffffffffffffffffffffffffffff168152602001908152602001600020600083815260200190815260200160002054905092915050565b600a60009054906101000a900473ffffffffffffffffffffffffffffffffffffffff1673ffffffffffffffffffffffffffffffffffffffff16610b5d61245a565b73ffffffffffffffffffffffffffffffffffffffff1614610b7d57600080fd5b600a60149054906101000a900460ff1615600a60146101000a81548160ff021916908315150217905550565b6000600a8260ff161115610bf2576040517f08c379a0000000000000000000000000000000000000000000000000000000008152600401610be990614bc5565b60405180910390fd5b60011515610c178360ff16601260009054906101000a900461ffff1661ffff16612860565b15151415610c8857600080610c438460ff16601260009054906101000a900461ffff1661ffff166128a9565b915091508060ff166002601154610c5a9190614e32565b610c649190614e32565b8260ff16601154610c759190614e32565b610c7f9190614dab565b92505050610c9c565b8160ff16601154610c999190614e32565b90505b919050565b6000601360009054906101000a900473ffffffffffffffffffffffffffffffffffffffff1673ffffffffffffffffffffffffffffffffffffffff16610ce461245a565b73ffffffffffffffffffffffffffffffffffffffff1614610d3a576040517f08c379a0000000000000000000000000000000000000000000000000000000008152600401610d3190614a25565b60405180910390fd5b610d478261ffff166123ee565b610d86576040517f08c379a0000000000000000000000000000000000000000000000000000000008152600401610d7d90614a65565b60405180910390fd5b82601060008461ffff1661ffff16815260200190815260200160002060008201518160000160006101000a81548161ffff021916908361ffff16021790555060208201518160000160026101000a81548161ffff021916908361ffff16021790555060408201518160000160046101000a81548161ffff021916908361ffff16021790555060608201518160000160066101000a81548161ffff021916908361ffff16021790555060808201518160000160086101000a81548161ffff021916908361ffff16021790555060a082015181600001600a6101000a81548161ffff021916908361ffff16021790555060c082015181600001600c6101000a81548161ffff021916908361ffff16021790555060e082015181600001600e6101000a81548161ffff021916908361ffff1602179055506101008201518160000160106101000a81548161ffff021916908361ffff1602179055506101208201518160000160126101000a81548161ffff021916908361ffff1602179055506101408201518160000160146101000a81548161ffff021916908361ffff1602179055506101608201518160000160166101000a81548161ffff021916908361ffff1602179055506101808201518160000160186101000a81548161ffff021916908361ffff1602179055506101a082015181600001601a6101000a81548161ffff021916908361ffff1602179055506101c082015181600101556101e08201518160020160006101000a81548160ff0219169083151502179055509050507fa457e75f6da6e906ca05b141584e3af3a2bbbbf1b18d9f5beb8291108b5754528284604051610ff2929190614c3c565b60405180910390a16001905092915050565b61101f83838360405180602001604052806000815250611f8b565b505050565b6060600061103183611aa1565b90508061ffff1667ffffffffffffffff811115611051576110506151de565b5b60405190808252806020026020018201604052801561107f5781602001602082028036833780820191505090505b50915060005b8161ffff168161ffff1610156110e3576110a3848261ffff16610a77565b838261ffff16815181106110ba576110b96151af565b5b602002602001019061ffff16908161ffff168152505080806110db90614ffe565b915050611085565b5050919050565b60006110f4610a0a565b8210611135576040517f08c379a000000000000000000000000000000000000000000000000000000000815260040161112c90614ba5565b60405180910390fd5b60088281548110611149576111486151af565b5b90600052602060002001549050919050565b6000806002600084815260200190815260200160002060009054906101000a900473ffffffffffffffffffffffffffffffffffffffff169050600073ffffffffffffffffffffffffffffffffffffffff168173ffffffffffffffffffffffffffffffffffffffff161415611204576040517f08c379a00000000000000000000000000000000000000000000000000000000081526004016111fb90614ac5565b60405180910390fd5b80915050919050565b600a60149054906101000a900460ff1661125c576040517f08c379a0000000000000000000000000000000000000000000000000000000008152600401611253906149a5565b60405180910390fd5b600a60009054906101000a900473ffffffffffffffffffffffffffffffffffffffff1673ffffffffffffffffffffffffffffffffffffffff1661129d61245a565b73ffffffffffffffffffffffffffffffffffffffff1614611374576112c181610ba9565b3414611302576040517f08c379a00000000000000000000000000000000000000000000000000000000081526004016112f990614905565b60405180910390fd5b6113238160ff16601260009054906101000a900461ffff1661ffff16612860565b1561137357611333601154612902565b6011819055507f18d394ba347d8c318a1db51c85288b956d598b2925be44758ee6f2edb9e2a06b60115460405161136a9190614c66565b60405180910390a15b5b600a8160ff1611156113bb576040517f08c379a00000000000000000000000000000000000000000000000000000000081526004016113b2906148e5565b60405180910390fd5b601260029054906101000a900461ffff1661ffff168160ff16601260009054906101000a900461ffff166113ef9190614d73565b61ffff161115611434576040517f08c379a000000000000000000000000000000000000000000000000000000000815260040161142b90614be5565b60405180910390fd5b6000601260059054906101000a900473ffffffffffffffffffffffffffffffffffffffff1673ffffffffffffffffffffffffffffffffffffffff163460405161147c906146f8565b60006040518083038185875af1925050503d80600081146114b9576040519150601f19603f3d011682016040523d82523d6000602084013e6114be565b606091505b5050905080611502576040517f08c379a00000000000000000000000000000000000000000000000000000000081526004016114f9906149c5565b60405180910390fd5b60005b8260ff168160ff1610156119c0576001601260008282829054906101000a900461ffff166115339190614d73565b92506101000a81548161ffff021916908361ffff16021790555061157261155861245a565b601260009054906101000a900461ffff1661ffff16612910565b604051806102000160405280600161ffff168152602001600161ffff168152602001600161ffff168152602001600061ffff168152602001600061ffff168152602001600061ffff168152602001600061ffff168152602001600061ffff168152602001600061ffff168152602001600061ffff168152602001600061ffff168152602001600061ffff168152602001600061ffff168152602001600061ffff168152602001600081526020016000151581525060106000601260009054906101000a900461ffff1661ffff1661ffff16815260200190815260200160002060008201518160000160006101000a81548161ffff021916908361ffff16021790555060208201518160000160026101000a81548161ffff021916908361ffff16021790555060408201518160000160046101000a81548161ffff021916908361ffff16021790555060608201518160000160066101000a81548161ffff021916908361ffff16021790555060808201518160000160086101000a81548161ffff021916908361ffff16021790555060a082015181600001600a6101000a81548161ffff021916908361ffff16021790555060c082015181600001600c6101000a81548161ffff021916908361ffff16021790555060e082015181600001600e6101000a81548161ffff021916908361ffff1602179055506101008201518160000160106101000a81548161ffff021916908361ffff1602179055506101208201518160000160126101000a81548161ffff021916908361ffff1602179055506101408201518160000160146101000a81548161ffff021916908361ffff1602179055506101608201518160000160166101000a81548161ffff021916908361ffff1602179055506101808201518160000160186101000a81548161ffff021916908361ffff1602179055506101a082015181600001601a6101000a81548161ffff021916908361ffff1602179055506101c082015181600101556101e08201518160020160006101000a81548160ff0219169083151502179055509050506118b0601360009054906101000a900473ffffffffffffffffffffffffffffffffffffffff16601260009054906101000a900461ffff1661ffff16612462565b7f140b33d985b194376cd7209902ffe7167129837ba3e921ef6c1d9952891cd9df6118d961245a565b601260009054906101000a900461ffff166040516118f892919061478f565b60405180910390a1601260029054906101000a900461ffff1661ffff16601260009054906101000a900461ffff1661ffff1614156119ad577f47927ac1d62bc1ae14fb17e77de64b8e0de58d777adc50086ed8f24eb26e8e64600f60405161196091906148c3565b60405180910390a16000611972612aea565b90507fb75047a36befaef84e90ca4c55f0673352e2942c569d5726c6cf463a043903f2816040516119a39190614728565b60405180910390a1505b80806119b890615072565b915050611505565b505050565b600a60009054906101000a900473ffffffffffffffffffffffffffffffffffffffff1673ffffffffffffffffffffffffffffffffffffffff16611a0661245a565b73ffffffffffffffffffffffffffffffffffffffff1614611a2657600080fd5b80600a60006101000a81548173ffffffffffffffffffffffffffffffffffffffff021916908373ffffffffffffffffffffffffffffffffffffffff1602179055507f71614071b88dee5e0b2ae578a9dd7b2ebbe9ae832ba419dc0242cd065a290b6c81604051611a969190614728565b60405180910390a150565b60008073ffffffffffffffffffffffffffffffffffffffff168273ffffffffffffffffffffffffffffffffffffffff161415611b12576040517f08c379a0000000000000000000000000000000000000000000000000000000008152600401611b0990614aa5565b60405180910390fd5b600360008373ffffffffffffffffffffffffffffffffffffffff1673ffffffffffffffffffffffffffffffffffffffff168152602001908152602001600020549050919050565b611b616137fb565b611b6e8261ffff166123ee565b611bad576040517f08c379a0000000000000000000000000000000000000000000000000000000008152600401611ba490614a65565b60405180910390fd5b601060008361ffff1661ffff168152602001908152602001600020604051806102000160405290816000820160009054906101000a900461ffff1661ffff1661ffff1681526020016000820160029054906101000a900461ffff1661ffff1661ffff1681526020016000820160049054906101000a900461ffff1661ffff1661ffff1681526020016000820160069054906101000a900461ffff1661ffff1661ffff1681526020016000820160089054906101000a900461ffff1661ffff1661ffff16815260200160008201600a9054906101000a900461ffff1661ffff1661ffff16815260200160008201600c9054906101000a900461ffff1661ffff1661ffff16815260200160008201600e9054906101000a900461ffff1661ffff1661ffff1681526020016000820160109054906101000a900461ffff1661ffff1661ffff1681526020016000820160129054906101000a900461ffff1661ffff1661ffff1681526020016000820160149054906101000a900461ffff1661ffff1661ffff1681526020016000820160169054906101000a900461ffff1661ffff1661ffff1681526020016000820160189054906101000a900461ffff1661ffff1661ffff16815260200160008201601a9054906101000a900461ffff1661ffff1661ffff168152602001600182015481526020016002820160009054906101000a900460ff1615151515815250509050919050565b606060018054611dcf90614f9b565b80601f0160208091040260200160405190810160405280929190818152602001828054611dfb90614f9b565b8015611e485780601f10611e1d57610100808354040283529160200191611e48565b820191906000526020600020905b815481529060010190602001808311611e2b57829003601f168201915b5050505050905090565b611e64611e5d61245a565b8383612b0d565b5050565b600a60009054906101000a900473ffffffffffffffffffffffffffffffffffffffff1673ffffffffffffffffffffffffffffffffffffffff16611ea961245a565b73ffffffffffffffffffffffffffffffffffffffff1614611ec957600080fd5b6001601260046101000a81548160ff021916908315150217905550565b600a60009054906101000a900473ffffffffffffffffffffffffffffffffffffffff1673ffffffffffffffffffffffffffffffffffffffff16611f2761245a565b73ffffffffffffffffffffffffffffffffffffffff1614611f4757600080fd5b80601260056101000a81548173ffffffffffffffffffffffffffffffffffffffff021916908373ffffffffffffffffffffffffffffffffffffffff16021790555050565b611f9c611f9661245a565b8361251b565b611fdb576040517f08c379a0000000000000000000000000000000000000000000000000000000008152600401611fd290614b85565b60405180910390fd5b611fe784848484612c7a565b50505050565b6060611ff8826123ee565b612037576040517f08c379a000000000000000000000000000000000000000000000000000000000815260040161202e90614b25565b60405180910390fd5b6000612041612cd6565b90506000815111612061576040518060200160405280600081525061208c565b8061206b84612ced565b60405160200161207c929190614672565b6040516020818303038152906040525b915050919050565b600a60009054906101000a900473ffffffffffffffffffffffffffffffffffffffff1673ffffffffffffffffffffffffffffffffffffffff166120d561245a565b73ffffffffffffffffffffffffffffffffffffffff16146120f557600080fd5b80601360006101000a81548173ffffffffffffffffffffffffffffffffffffffff021916908373ffffffffffffffffffffffffffffffffffffffff1602179055507f7b4f10014c23ea33ab4f8cc59c583fa422eca3392c456380a9e6a52be139f407816040516121659190614728565b60405180910390a150565b606061217f8261ffff166123ee565b6121be576040517f08c379a00000000000000000000000000000000000000000000000000000000081526004016121b590614a65565b60405180910390fd5b601260049054906101000a900460ff166121fd57600b600e6040516020016121e7929190614696565b6040516020818303038152906040529050612248565b600b600c83604051602001612212919061470d565b604051602081830303815290604052600d60405160200161223694939291906146ba565b60405160208183030381529060405290505b919050565b6000600560008473ffffffffffffffffffffffffffffffffffffffff1673ffffffffffffffffffffffffffffffffffffffff16815260200190815260200160002060008373ffffffffffffffffffffffffffffffffffffffff1673ffffffffffffffffffffffffffffffffffffffff16815260200190815260200160002060009054906101000a900460ff16905092915050565b600a60009054906101000a900473ffffffffffffffffffffffffffffffffffffffff1681565b505050565b60007f80ac58cd000000000000000000000000000000000000000000000000000000007bffffffffffffffffffffffffffffffffffffffffffffffffffffffff1916827bffffffffffffffffffffffffffffffffffffffffffffffffffffffff191614806123d757507f5b5e139f000000000000000000000000000000000000000000000000000000007bffffffffffffffffffffffffffffffffffffffffffffffffffffffff1916827bffffffffffffffffffffffffffffffffffffffffffffffffffffffff1916145b806123e757506123e682612e4e565b5b9050919050565b60008073ffffffffffffffffffffffffffffffffffffffff166002600084815260200190815260200160002060009054906101000a900473ffffffffffffffffffffffffffffffffffffffff1673ffffffffffffffffffffffffffffffffffffffff1614159050919050565b600033905090565b816004600083815260200190815260200160002060006101000a81548173ffffffffffffffffffffffffffffffffffffffff021916908373ffffffffffffffffffffffffffffffffffffffff160217905550808273ffffffffffffffffffffffffffffffffffffffff166124d58361115b565b73ffffffffffffffffffffffffffffffffffffffff167f8c5be1e5ebec7d5bd14f71427d1e84f3dd0314c0f7b2291e5b200ac8c7c3b92560405160405180910390a45050565b6000612526826123ee565b612565576040517f08c379a000000000000000000000000000000000000000000000000000000000815260040161255c90614a45565b60405180910390fd5b60006125708361115b565b90508073ffffffffffffffffffffffffffffffffffffffff168473ffffffffffffffffffffffffffffffffffffffff1614806125df57508373ffffffffffffffffffffffffffffffffffffffff166125c784610855565b73ffffffffffffffffffffffffffffffffffffffff16145b806125f057506125ef818561224d565b5b91505092915050565b8273ffffffffffffffffffffffffffffffffffffffff166126198261115b565b73ffffffffffffffffffffffffffffffffffffffff161461266f576040517f08c379a000000000000000000000000000000000000000000000000000000000815260040161266690614965565b60405180910390fd5b600073ffffffffffffffffffffffffffffffffffffffff168273ffffffffffffffffffffffffffffffffffffffff1614156126df576040517f08c379a00000000000000000000000000000000000000000000000000000000081526004016126d6906149e5565b60405180910390fd5b6126ea838383612eb8565b6126f5600082612462565b6001600360008573ffffffffffffffffffffffffffffffffffffffff1673ffffffffffffffffffffffffffffffffffffffff16815260200190815260200160002060008282546127459190614e8c565b925050819055506001600360008473ffffffffffffffffffffffffffffffffffffffff1673ffffffffffffffffffffffffffffffffffffffff168152602001908152602001600020600082825461279c9190614dab565b92505081905550816002600083815260200190815260200160002060006101000a81548173ffffffffffffffffffffffffffffffffffffffff021916908373ffffffffffffffffffffffffffffffffffffffff160217905550808273ffffffffffffffffffffffffffffffffffffffff168473ffffffffffffffffffffffffffffffffffffffff167fddf252ad1be2c89b69c2b068fc378daa952ba7f163c4a11628f55a4df523b3ef60405160405180910390a461285b838383612fcc565b505050565b6000806103e884846128729190614dab565b61287c91906150c2565b90506000811015801561288f5750600a81105b1561289d57600191506128a2565b600091505b5092915050565b60008060005b848110156128fa576128c18185612860565b156128e7576001816128d39190614dab565b92508260ff16856128e49190614e8c565b91505b80806128f290615029565b9150506128af565b509250929050565b6000600182901b9050919050565b600073ffffffffffffffffffffffffffffffffffffffff168273ffffffffffffffffffffffffffffffffffffffff161415612980576040517f08c379a000000000000000000000000000000000000000000000000000000000815260040161297790614ae5565b60405180910390fd5b612989816123ee565b156129c9576040517f08c379a00000000000000000000000000000000000000000000000000000000081526004016129c090614985565b60405180910390fd5b6129d560008383612eb8565b6001600360008473ffffffffffffffffffffffffffffffffffffffff1673ffffffffffffffffffffffffffffffffffffffff1681526020019081526020016000206000828254612a259190614dab565b92505081905550816002600083815260200190815260200160002060006101000a81548173ffffffffffffffffffffffffffffffffffffffff021916908373ffffffffffffffffffffffffffffffffffffffff160217905550808273ffffffffffffffffffffffffffffffffffffffff16600073ffffffffffffffffffffffffffffffffffffffff167fddf252ad1be2c89b69c2b068fc378daa952ba7f163c4a11628f55a4df523b3ef60405160405180910390a4612ae660008383612fcc565b5050565b600080612af8612710612fd1565b9050612b078161ffff1661115b565b91505090565b8173ffffffffffffffffffffffffffffffffffffffff168373ffffffffffffffffffffffffffffffffffffffff161415612b7c576040517f08c379a0000000000000000000000000000000000000000000000000000000008152600401612b7390614a05565b60405180910390fd5b80600560008573ffffffffffffffffffffffffffffffffffffffff1673ffffffffffffffffffffffffffffffffffffffff16815260200190815260200160002060008473ffffffffffffffffffffffffffffffffffffffff1673ffffffffffffffffffffffffffffffffffffffff16815260200190815260200160002060006101000a81548160ff0219169083151502179055508173ffffffffffffffffffffffffffffffffffffffff168373ffffffffffffffffffffffffffffffffffffffff167f17307eab39ab6107e8899845ad3d59bd9653f200f220920489ca2b5937696c3183604051612c6d9190614818565b60405180910390a3505050565b612c858484846125f9565b612c9184848484612ff9565b612cd0576040517f08c379a0000000000000000000000000000000000000000000000000000000008152600401612cc790614945565b60405180910390fd5b50505050565b606060405180602001604052806000815250905090565b60606000821415612d35576040518060400160405280600181526020017f30000000000000000000000000000000000000000000000000000000000000008152509050612e49565b600082905060005b60008214612d67578080612d5090615029565b915050600a82612d609190614e01565b9150612d3d565b60008167ffffffffffffffff811115612d8357612d826151de565b5b6040519080825280601f01601f191660200182016040528015612db55781602001600182028036833780820191505090505b5090505b60008514612e4257600182612dce9190614e8c565b9150600a85612ddd91906150c2565b6030612de99190614dab565b60f81b818381518110612dff57612dfe6151af565b5b60200101907effffffffffffffffffffffffffffffffffffffffffffffffffffffffffffff1916908160001a905350600a85612e3b9190614e01565b9450612db9565b8093505050505b919050565b60007f01ffc9a7000000000000000000000000000000000000000000000000000000007bffffffffffffffffffffffffffffffffffffffffffffffffffffffff1916827bffffffffffffffffffffffffffffffffffffffffffffffffffffffff1916149050919050565b612ec3838383612307565b600073ffffffffffffffffffffffffffffffffffffffff168373ffffffffffffffffffffffffffffffffffffffff161415612f0657612f0181613190565b612f45565b8173ffffffffffffffffffffffffffffffffffffffff168373ffffffffffffffffffffffffffffffffffffffff1614612f4457612f4383826131d9565b5b5b600073ffffffffffffffffffffffffffffffffffffffff168273ffffffffffffffffffffffffffffffffffffffff161415612f8857612f8381613346565b612fc7565b8273ffffffffffffffffffffffffffffffffffffffff168273ffffffffffffffffffffffffffffffffffffffff1614612fc657612fc58282613417565b5b5b505050565b505050565b6000600182612fde613496565b612fe891906150c2565b612ff29190614dab565b9050919050565b600061301a8473ffffffffffffffffffffffffffffffffffffffff166135b1565b15613183578373ffffffffffffffffffffffffffffffffffffffff1663150b7a0261304361245a565b8786866040518563ffffffff1660e01b81526004016130659493929190614743565b602060405180830381600087803b15801561307f57600080fd5b505af19250505080156130b057506040513d601f19601f820116820180604052508101906130ad9190613d76565b60015b613133573d80600081146130e0576040519150601f19603f3d011682016040523d82523d6000602084013e6130e5565b606091505b5060008151141561312b576040517f08c379a000000000000000000000000000000000000000000000000000000000815260040161312290614945565b60405180910390fd5b805181602001fd5b63150b7a0260e01b7bffffffffffffffffffffffffffffffffffffffffffffffffffffffff1916817bffffffffffffffffffffffffffffffffffffffffffffffffffffffff191614915050613188565b600190505b949350505050565b6008805490506009600083815260200190815260200160002081905550600881908060018154018082558091505060019003906000526020600020016000909190919091505550565b600060016131e684611aa1565b6131f09190614e8c565b90506000600760008481526020019081526020016000205490508181146132d5576000600660008673ffffffffffffffffffffffffffffffffffffffff1673ffffffffffffffffffffffffffffffffffffffff168152602001908152602001600020600084815260200190815260200160002054905080600660008773ffffffffffffffffffffffffffffffffffffffff1673ffffffffffffffffffffffffffffffffffffffff168152602001908152602001600020600084815260200190815260200160002081905550816007600083815260200190815260200160002081905550505b6007600084815260200190815260200160002060009055600660008573ffffffffffffffffffffffffffffffffffffffff1673ffffffffffffffffffffffffffffffffffffffff16815260200190815260200160002060008381526020019081526020016000206000905550505050565b6000600160088054905061335a9190614e8c565b905060006009600084815260200190815260200160002054905060006008838154811061338a576133896151af565b5b9060005260206000200154905080600883815481106133ac576133ab6151af565b5b9060005260206000200181905550816009600083815260200190815260200160002081905550600960008581526020019081526020016000206000905560088054806133fb576133fa615180565b5b6001900381819060005260206000200160009055905550505050565b600061342283611aa1565b905081600660008573ffffffffffffffffffffffffffffffffffffffff1673ffffffffffffffffffffffffffffffffffffffff168152602001908152602001600020600083815260200190815260200160002081905550806007600084815260200190815260200160002081905550505050565b6000806134a16135d4565b905080600301548160040160009054906101000a900473ffffffffffffffffffffffffffffffffffffffff1673ffffffffffffffffffffffffffffffffffffffff166370a08231306040518263ffffffff1660e01b81526004016135059190614728565b60206040518083038186803b15801561351d57600080fd5b505afa158015613531573d6000803e3d6000fd5b505050506040513d601f19601f820116820180604052508101906135559190613e3f565b1015613596576040517f08c379a000000000000000000000000000000000000000000000000000000000815260040161358d90614b65565b60405180910390fd5b6135a881600201548260030154613601565b60001c91505090565b6000808273ffffffffffffffffffffffffffffffffffffffff163b119050919050565b6000807fcd0c49d5c8438d0944f64e0d3825bed3b606f318474213a77860c93bca5ed99990508091505090565b60008061360c6135d4565b90508060040160009054906101000a900473ffffffffffffffffffffffffffffffffffffffff1673ffffffffffffffffffffffffffffffffffffffff16634000aea08260000160009054906101000a900473ffffffffffffffffffffffffffffffffffffffff1685876000604051602001613688929190614833565b6040516020818303038152906040526040518463ffffffff1660e01b81526004016136b5939291906147b8565b602060405180830381600087803b1580156136cf57600080fd5b505af11580156136e3573d6000803e3d6000fd5b505050506040513d601f19601f820116820180604052508101906137079190613d1c565b50600061372c856000308560060160008a81526020019081526020016000205461378c565b90506001826006016000878152602001908152602001600020546137509190614dab565b82600601600087815260200190815260200160002081905550600061377586836137c8565b905080836007018190555080935050505092915050565b6000848484846040516020016137a5949392919061485c565b6040516020818303038152906040528051906020012060001c9050949350505050565b600082826040516020016137dd929190614646565b60405160208183030381529060405280519060200120905092915050565b604051806102000160405280600061ffff168152602001600061ffff168152602001600061ffff168152602001600061ffff168152602001600061ffff168152602001600061ffff168152602001600061ffff168152602001600061ffff168152602001600061ffff168152602001600061ffff168152602001600061ffff168152602001600061ffff168152602001600061ffff168152602001600061ffff168152602001600081526020016000151581525090565b60006138c56138c084614ca6565b614c81565b9050828152602081018484840111156138e1576138e0615217565b5b6138ec848285614f59565b509392505050565b600081359050613903816158ce565b92915050565b600081359050613918816158e5565b92915050565b60008151905061392d816158e5565b92915050565b600081359050613942816158fc565b92915050565b600081519050613957816158fc565b92915050565b600082601f8301126139725761397161520d565b5b81356139828482602086016138b2565b91505092915050565b600061020082840312156139a2576139a1615212565b5b6139ad610200614c81565b905060006139bd84828501613b05565b60008301525060206139d184828501613b05565b60208301525060406139e584828501613b05565b60408301525060606139f984828501613b05565b6060830152506080613a0d84828501613b05565b60808301525060a0613a2184828501613b05565b60a08301525060c0613a3584828501613b05565b60c08301525060e0613a4984828501613b05565b60e083015250610100613a5e84828501613b05565b61010083015250610120613a7484828501613b05565b61012083015250610140613a8a84828501613b05565b61014083015250610160613aa084828501613b05565b61016083015250610180613ab684828501613b05565b610180830152506101a0613acc84828501613b05565b6101a0830152506101c0613ae284828501613b1a565b6101c0830152506101e0613af884828501613909565b6101e08301525092915050565b600081359050613b1481615913565b92915050565b600081359050613b298161592a565b92915050565b600081519050613b3e8161592a565b92915050565b600081359050613b5381615941565b92915050565b600060208284031215613b6f57613b6e615221565b5b6000613b7d848285016138f4565b91505092915050565b60008060408385031215613b9d57613b9c615221565b5b6000613bab858286016138f4565b9250506020613bbc858286016138f4565b9150509250929050565b600080600060608486031215613bdf57613bde615221565b5b6000613bed868287016138f4565b9350506020613bfe868287016138f4565b9250506040613c0f86828701613b1a565b9150509250925092565b60008060008060808587031215613c3357613c32615221565b5b6000613c41878288016138f4565b9450506020613c52878288016138f4565b9350506040613c6387828801613b1a565b925050606085013567ffffffffffffffff811115613c8457613c8361521c565b5b613c908782880161395d565b91505092959194509250565b60008060408385031215613cb357613cb2615221565b5b6000613cc1858286016138f4565b9250506020613cd285828601613909565b9150509250929050565b60008060408385031215613cf357613cf2615221565b5b6000613d01858286016138f4565b9250506020613d1285828601613b1a565b9150509250929050565b600060208284031215613d3257613d31615221565b5b6000613d408482850161391e565b91505092915050565b600060208284031215613d5f57613d5e615221565b5b6000613d6d84828501613933565b91505092915050565b600060208284031215613d8c57613d8b615221565b5b6000613d9a84828501613948565b91505092915050565b6000806102208385031215613dbb57613dba615221565b5b6000613dc98582860161398b565b925050610200613ddb85828601613b05565b9150509250929050565b600060208284031215613dfb57613dfa615221565b5b6000613e0984828501613b05565b91505092915050565b600060208284031215613e2857613e27615221565b5b6000613e3684828501613b1a565b91505092915050565b600060208284031215613e5557613e54615221565b5b6000613e6384828501613b2f565b91505092915050565b600060208284031215613e8257613e81615221565b5b6000613e9084828501613b44565b91505092915050565b6000613ea583836145dc565b60208301905092915050565b613eba81614ec0565b82525050565b6000613ecb82614cfc565b613ed58185614d2a565b9350613ee083614cd7565b8060005b83811015613f11578151613ef88882613e99565b9750613f0383614d1d565b925050600181019050613ee4565b5085935050505092915050565b613f2781614ed2565b82525050565b613f3681614ed2565b82525050565b613f4581614ede565b82525050565b613f5c613f5782614ede565b61509c565b82525050565b6000613f6d82614d07565b613f778185614d3b565b9350613f87818560208601614f68565b613f9081615226565b840191505092915050565b6000613fa682614d12565b613fb08185614d57565b9350613fc0818560208601614f68565b613fc981615226565b840191505092915050565b6000613fdf82614d12565b613fe98185614d68565b9350613ff9818560208601614f68565b80840191505092915050565b6000815461401281614f9b565b61401c8186614d57565b9450600182166000811461403757600181146140495761407c565b60ff198316865260208601935061407c565b61405285614ce7565b60005b8381101561407457815481890152600182019150602081019050614055565b808801955050505b50505092915050565b6000815461409281614f9b565b61409c8186614d68565b945060018216600081146140b757600181146140c8576140fb565b60ff198316865281860193506140fb565b6140d185614ce7565b60005b838110156140f3578154818901526001820191506020810190506140d4565b838801955050505b50505092915050565b6000614111601f83614d57565b915061411c82615244565b602082019050919050565b6000614134601583614d57565b915061413f8261526d565b602082019050919050565b6000614157602b83614d57565b915061416282615296565b604082019050919050565b600061417a603283614d57565b9150614185826152e5565b604082019050919050565b600061419d602583614d57565b91506141a882615334565b604082019050919050565b60006141c0601c83614d57565b91506141cb82615383565b602082019050919050565b60006141e3602883614d57565b91506141ee826153ac565b604082019050919050565b6000614206602883614d57565b9150614211826153fb565b604082019050919050565b6000614229602483614d57565b91506142348261544a565b604082019050919050565b600061424c601983614d57565b915061425782615499565b602082019050919050565b600061426f602d83614d57565b915061427a826154c2565b604082019050919050565b6000614292602c83614d57565b915061429d82615511565b604082019050919050565b60006142b5601983614d57565b91506142c082615560565b602082019050919050565b60006142d8603883614d57565b91506142e382615589565b604082019050919050565b60006142fb602a83614d57565b9150614306826155d8565b604082019050919050565b600061431e602983614d57565b915061432982615627565b604082019050919050565b6000614341602083614d57565b915061434c82615676565b602082019050919050565b6000614364602c83614d57565b915061436f8261569f565b604082019050919050565b6000614387602f83614d57565b9150614392826156ee565b604082019050919050565b60006143aa602183614d57565b91506143b58261573d565b604082019050919050565b60006143cd601783614d57565b91506143d88261578c565b602082019050919050565b60006143f0600083614d4c565b91506143fb826157b5565b600082019050919050565b6000614413603183614d57565b915061441e826157b8565b604082019050919050565b6000614436602c83614d57565b915061444182615807565b604082019050919050565b6000614459601583614d57565b915061446482615856565b602082019050919050565b600061447c602483614d57565b91506144878261587f565b604082019050919050565b610200820160008201516144a960008501826145dc565b5060208201516144bc60208501826145dc565b5060408201516144cf60408501826145dc565b5060608201516144e260608501826145dc565b5060808201516144f560808501826145dc565b5060a082015161450860a08501826145dc565b5060c082015161451b60c08501826145dc565b5060e082015161452e60e08501826145dc565b506101008201516145436101008501826145dc565b506101208201516145586101208501826145dc565b5061014082015161456d6101408501826145dc565b506101608201516145826101608501826145dc565b506101808201516145976101808501826145dc565b506101a08201516145ac6101a08501826145dc565b506101c08201516145c16101c0850182614611565b506101e08201516145d66101e0850182613f1e565b50505050565b6145e581614f14565b82525050565b6145f481614f14565b82525050565b61460b61460682614f14565b6150a6565b82525050565b61461a81614f42565b82525050565b61462981614f42565b82525050565b61464061463b82614f42565b6150b8565b82525050565b60006146528285613f4b565b602082019150614662828461462f565b6020820191508190509392505050565b600061467e8285613fd4565b915061468a8284613fd4565b91508190509392505050565b60006146a28285614085565b91506146ae8284614085565b91508190509392505050565b60006146c68287614085565b91506146d28286614085565b91506146de8285613fd4565b91506146ea8284614085565b915081905095945050505050565b6000614703826143e3565b9150819050919050565b600061471982846145fa565b60028201915081905092915050565b600060208201905061473d6000830184613eb1565b92915050565b60006080820190506147586000830187613eb1565b6147656020830186613eb1565b6147726040830185614620565b81810360608301526147848184613f62565b905095945050505050565b60006040820190506147a46000830185613eb1565b6147b160208301846145eb565b9392505050565b60006060820190506147cd6000830186613eb1565b6147da6020830185614620565b81810360408301526147ec8184613f62565b9050949350505050565b600060208201905081810360008301526148108184613ec0565b905092915050565b600060208201905061482d6000830184613f2d565b92915050565b60006040820190506148486000830185613f3c565b6148556020830184614620565b9392505050565b60006080820190506148716000830187613f3c565b61487e6020830186614620565b61488b6040830185613eb1565b6148986060830184614620565b95945050505050565b600060208201905081810360008301526148bb8184613f9b565b905092915050565b600060208201905081810360008301526148dd8184614005565b905092915050565b600060208201905081810360008301526148fe81614104565b9050919050565b6000602082019050818103600083015261491e81614127565b9050919050565b6000602082019050818103600083015261493e8161414a565b9050919050565b6000602082019050818103600083015261495e8161416d565b9050919050565b6000602082019050818103600083015261497e81614190565b9050919050565b6000602082019050818103600083015261499e816141b3565b9050919050565b600060208201905081810360008301526149be816141d6565b9050919050565b600060208201905081810360008301526149de816141f9565b9050919050565b600060208201905081810360008301526149fe8161421c565b9050919050565b60006020820190508181036000830152614a1e8161423f565b9050919050565b60006020820190508181036000830152614a3e81614262565b9050919050565b60006020820190508181036000830152614a5e81614285565b9050919050565b60006020820190508181036000830152614a7e816142a8565b9050919050565b60006020820190508181036000830152614a9e816142cb565b9050919050565b60006020820190508181036000830152614abe816142ee565b9050919050565b60006020820190508181036000830152614ade81614311565b9050919050565b60006020820190508181036000830152614afe81614334565b9050919050565b60006020820190508181036000830152614b1e81614357565b9050919050565b60006020820190508181036000830152614b3e8161437a565b9050919050565b60006020820190508181036000830152614b5e8161439d565b9050919050565b60006020820190508181036000830152614b7e816143c0565b9050919050565b60006020820190508181036000830152614b9e81614406565b9050919050565b60006020820190508181036000830152614bbe81614429565b9050919050565b60006020820190508181036000830152614bde8161444c565b9050919050565b60006020820190508181036000830152614bfe8161446f565b9050919050565b600061020082019050614c1b6000830184614492565b92915050565b6000602082019050614c3660008301846145eb565b92915050565b600061022082019050614c5260008301856145eb565b614c5f6020830184614492565b9392505050565b6000602082019050614c7b6000830184614620565b92915050565b6000614c8b614c9c565b9050614c978282614fcd565b919050565b6000604051905090565b600067ffffffffffffffff821115614cc157614cc06151de565b5b614cca82615226565b9050602081019050919050565b6000819050602082019050919050565b60008190508160005260206000209050919050565b600081519050919050565b600081519050919050565b600081519050919050565b6000602082019050919050565b600082825260208201905092915050565b600082825260208201905092915050565b600081905092915050565b600082825260208201905092915050565b600081905092915050565b6000614d7e82614f14565b9150614d8983614f14565b92508261ffff03821115614da057614d9f6150f3565b5b828201905092915050565b6000614db682614f42565b9150614dc183614f42565b9250827fffffffffffffffffffffffffffffffffffffffffffffffffffffffffffffffff03821115614df657614df56150f3565b5b828201905092915050565b6000614e0c82614f42565b9150614e1783614f42565b925082614e2757614e26615122565b5b828204905092915050565b6000614e3d82614f42565b9150614e4883614f42565b9250817fffffffffffffffffffffffffffffffffffffffffffffffffffffffffffffffff0483118215151615614e8157614e806150f3565b5b828202905092915050565b6000614e9782614f42565b9150614ea283614f42565b925082821015614eb557614eb46150f3565b5b828203905092915050565b6000614ecb82614f22565b9050919050565b60008115159050919050565b6000819050919050565b60007fffffffff0000000000000000000000000000000000000000000000000000000082169050919050565b600061ffff82169050919050565b600073ffffffffffffffffffffffffffffffffffffffff82169050919050565b6000819050919050565b600060ff82169050919050565b82818337600083830152505050565b60005b83811015614f86578082015181840152602081019050614f6b565b83811115614f95576000848401525b50505050565b60006002820490506001821680614fb357607f821691505b60208210811415614fc757614fc6615151565b5b50919050565b614fd682615226565b810181811067ffffffffffffffff82111715614ff557614ff46151de565b5b80604052505050565b600061500982614f14565b915061ffff82141561501e5761501d6150f3565b5b600182019050919050565b600061503482614f42565b91507fffffffffffffffffffffffffffffffffffffffffffffffffffffffffffffffff821415615067576150666150f3565b5b600182019050919050565b600061507d82614f4c565b915060ff821415615091576150906150f3565b5b600182019050919050565b6000819050919050565b60006150b182615237565b9050919050565b6000819050919050565b60006150cd82614f42565b91506150d883614f42565b9250826150e8576150e7615122565b5b828206905092915050565b7f4e487b7100000000000000000000000000000000000000000000000000000000600052601160045260246000fd5b7f4e487b7100000000000000000000000000000000000000000000000000000000600052601260045260246000fd5b7f4e487b7100000000000000000000000000000000000000000000000000000000600052602260045260246000fd5b7f4e487b7100000000000000000000000000000000000000000000000000000000600052603160045260246000fd5b7f4e487b7100000000000000000000000000000000000000000000000000000000600052603260045260246000fd5b7f4e487b7100000000000000000000000000000000000000000000000000000000600052604160045260246000fd5b600080fd5b600080fd5b600080fd5b600080fd5b600080fd5b6000601f19601f8301169050919050565b60008160f01b9050919050565b7f596f752061726520747279696e6720746f206d696e7420746f6f206d616e7900600082015250565b7f4e6f7420656e6f7567682066756e64732073656e740000000000000000000000600082015250565b7f455243373231456e756d657261626c653a206f776e657220696e646578206f7560008201527f74206f6620626f756e6473000000000000000000000000000000000000000000602082015250565b7f4552433732313a207472616e7366657220746f206e6f6e20455243373231526560008201527f63656976657220696d706c656d656e7465720000000000000000000000000000602082015250565b7f4552433732313a207472616e736665722066726f6d20696e636f72726563742060008201527f6f776e6572000000000000000000000000000000000000000000000000000000602082015250565b7f4552433732313a20746f6b656e20616c7265616479206d696e74656400000000600082015250565b7f546869732066756e6374696f6e206973206e6f7420617661696c61626c65207260008201527f69676874206e6f77000000000000000000000000000000000000000000000000602082015250565b7f53656e64696e672066756e647320746f207061796d656e742073706c6974746560008201527f72206661696c6564000000000000000000000000000000000000000000000000602082015250565b7f4552433732313a207472616e7366657220746f20746865207a65726f2061646460008201527f7265737300000000000000000000000000000000000000000000000000000000602082015250565b7f4552433732313a20617070726f766520746f2063616c6c657200000000000000600082015250565b7f4f6e6c79207468652067616d6520636f6e74726163742063616e2063616c6c2060008201527f746869732066756e6374696f6e00000000000000000000000000000000000000602082015250565b7f4552433732313a206f70657261746f7220717565727920666f72206e6f6e657860008201527f697374656e7420746f6b656e0000000000000000000000000000000000000000602082015250565b7f5468697320746f6b656e20646f6573206e6f7420657869737400000000000000600082015250565b7f4552433732313a20617070726f76652063616c6c6572206973206e6f74206f7760008201527f6e6572206e6f7220617070726f76656420666f7220616c6c0000000000000000602082015250565b7f4552433732313a2062616c616e636520717565727920666f7220746865207a6560008201527f726f206164647265737300000000000000000000000000000000000000000000602082015250565b7f4552433732313a206f776e657220717565727920666f72206e6f6e657869737460008201527f656e7420746f6b656e0000000000000000000000000000000000000000000000602082015250565b7f4552433732313a206d696e7420746f20746865207a65726f2061646472657373600082015250565b7f4552433732313a20617070726f76656420717565727920666f72206e6f6e657860008201527f697374656e7420746f6b656e0000000000000000000000000000000000000000602082015250565b7f4552433732314d657461646174613a2055524920717565727920666f72206e6f60008201527f6e6578697374656e7420746f6b656e0000000000000000000000000000000000602082015250565b7f4552433732313a20617070726f76616c20746f2063757272656e74206f776e6560008201527f7200000000000000000000000000000000000000000000000000000000000000602082015250565b7f4e6f7420656e6f756768204c494e4b2062616c616e6365000000000000000000600082015250565b50565b7f4552433732313a207472616e736665722063616c6c6572206973206e6f74206f60008201527f776e6572206e6f7220617070726f766564000000000000000000000000000000602082015250565b7f455243373231456e756d657261626c653a20676c6f62616c20696e646578206f60008201527f7574206f6620626f756e64730000000000000000000000000000000000000000602082015250565b7f546f6f2068696768206f6620616e20616d6f756e740000000000000000000000600082015250565b7f596f752063616e206e6f74206d696e74206d6f7265207468616e20746865206c60008201527f696d697400000000000000000000000000000000000000000000000000000000602082015250565b6158d781614ec0565b81146158e257600080fd5b50565b6158ee81614ed2565b81146158f957600080fd5b50565b61590581614ee8565b811461591057600080fd5b50565b61591c81614f14565b811461592757600080fd5b50565b61593381614f42565b811461593e57600080fd5b50565b61594a81614f4c565b811461595557600080fd5b5056fea2646970667358221220983a579c93973f1d344895cea03a9d88f2bd3cbe58fbe8083cc93fa9f4aa415964736f6c63430008070033",
  "linkReferences": {},
  "deployedLinkReferences": {}
}