{
  "_format": "hh-sol-artifact-1",
  "contractName": "Minter",
  "sourceName": "contracts/minter.sol",
  "abi": [
    {
      "inputs": [
        {
          "internalType": "string",
          "name": "_baseURI",
          "type": "string"
        },
        {
          "internalType": "string",
          "name": "_CID",
          "type": "string"
        },
        {
          "internalType": "string",
          "name": "_notRevealed",
          "type": "string"
        },
        {
          "internalType": "string",
          "name": "_extension",
          "type": "string"
        },
        {
          "internalType": "uint16",
          "name": "_totalLimit",
          "type": "uint16"
        },
        {
          "internalType": "string",
          "name": "_soldOutMessage",
          "type": "string"
        },
        {
          "internalType": "address[]",
          "name": "_rewardedAddresses",
          "type": "address[]"
        },
        {
          "internalType": "address[]",
          "name": "_paymentsTo",
          "type": "address[]"
        }
      ],
      "stateMutability": "nonpayable",
      "type": "constructor"
    },
    {
      "anonymous": false,
      "inputs": [
        {
          "indexed": true,
          "internalType": "address",
          "name": "owner",
          "type": "address"
        },
        {
          "indexed": true,
          "internalType": "address",
          "name": "approved",
          "type": "address"
        },
        {
          "indexed": true,
          "internalType": "uint256",
          "name": "tokenId",
          "type": "uint256"
        }
      ],
      "name": "Approval",
      "type": "event"
    },
    {
      "anonymous": false,
      "inputs": [
        {
          "indexed": true,
          "internalType": "address",
          "name": "owner",
          "type": "address"
        },
        {
          "indexed": true,
          "internalType": "address",
          "name": "operator",
          "type": "address"
        },
        {
          "indexed": false,
          "internalType": "bool",
          "name": "approved",
          "type": "bool"
        }
      ],
      "name": "ApprovalForAll",
      "type": "event"
    },
    {
      "anonymous": false,
      "inputs": [
        {
          "indexed": false,
          "internalType": "address",
          "name": "to",
          "type": "address"
        },
        {
          "indexed": false,
          "internalType": "uint16",
          "name": "tokenId",
          "type": "uint16"
        }
      ],
      "name": "Mint",
      "type": "event"
    },
    {
      "anonymous": false,
      "inputs": [
        {
          "indexed": false,
          "internalType": "address",
          "name": "newAdmin",
          "type": "address"
        }
      ],
      "name": "NewAdmin",
      "type": "event"
    },
    {
      "anonymous": false,
      "inputs": [
        {
          "indexed": false,
          "internalType": "address",
          "name": "gameContract",
          "type": "address"
        }
      ],
      "name": "NewGameContract",
      "type": "event"
    },
    {
      "anonymous": false,
      "inputs": [
        {
          "indexed": false,
          "internalType": "address",
          "name": "winner",
          "type": "address"
        }
      ],
      "name": "PorscheWinner",
      "type": "event"
    },
    {
      "anonymous": false,
      "inputs": [
        {
          "indexed": false,
          "internalType": "uint256",
          "name": "newPrice",
          "type": "uint256"
        }
      ],
      "name": "PriceIncrease",
      "type": "event"
    },
    {
      "anonymous": false,
      "inputs": [
        {
          "indexed": false,
          "internalType": "string",
          "name": "message",
          "type": "string"
        }
      ],
      "name": "SoldOut",
      "type": "event"
    },
    {
      "anonymous": false,
      "inputs": [
        {
          "indexed": false,
          "internalType": "uint16",
          "name": "tokenId",
          "type": "uint16"
        },
        {
          "components": [
            {
              "internalType": "uint16",
              "name": "speed",
              "type": "uint16"
            },
            {
              "internalType": "uint16",
              "name": "strength",
              "type": "uint16"
            },
            {
              "internalType": "uint16",
              "name": "agressiveness",
              "type": "uint16"
            },
            {
              "internalType": "uint16",
              "name": "fightsWon",
              "type": "uint16"
            },
            {
              "internalType": "uint16",
              "name": "fightsLost",
              "type": "uint16"
            },
            {
              "internalType": "uint16",
              "name": "quickPlayRacesWon",
              "type": "uint16"
            },
            {
              "internalType": "uint16",
              "name": "quickPlayRacesLost",
              "type": "uint16"
            },
            {
              "internalType": "uint16",
              "name": "compRacesWon",
              "type": "uint16"
            },
            {
              "internalType": "uint16",
              "name": "compRacesLost",
              "type": "uint16"
            },
            {
              "internalType": "uint16",
              "name": "deathRacesWon",
              "type": "uint16"
            },
            {
              "internalType": "uint16",
              "name": "deathRacesLost",
              "type": "uint16"
            },
            {
              "internalType": "uint16",
              "name": "deathRacesSurvived",
              "type": "uint16"
            },
            {
              "internalType": "uint16",
              "name": "deathRaceFightsWon",
              "type": "uint16"
            },
            {
              "internalType": "uint16",
              "name": "totalRacesTop3Finish",
              "type": "uint16"
            },
            {
              "internalType": "uint256",
              "name": "cooldownTime",
              "type": "uint256"
            },
            {
              "internalType": "bool",
              "name": "foundingRaptor",
              "type": "bool"
            }
          ],
          "indexed": false,
          "internalType": "struct Stats",
          "name": "stats",
          "type": "tuple"
        }
      ],
      "name": "StatsUpdated",
      "type": "event"
    },
    {
      "anonymous": false,
      "inputs": [
        {
          "indexed": true,
          "internalType": "address",
          "name": "from",
          "type": "address"
        },
        {
          "indexed": true,
          "internalType": "address",
          "name": "to",
          "type": "address"
        },
        {
          "indexed": true,
          "internalType": "uint256",
          "name": "tokenId",
          "type": "uint256"
        }
      ],
      "name": "Transfer",
      "type": "event"
    },
    {
      "inputs": [],
      "name": "active",
      "outputs": [
        {
          "internalType": "bool",
          "name": "",
          "type": "bool"
        }
      ],
      "stateMutability": "view",
      "type": "function"
    },
    {
      "inputs": [],
      "name": "admin",
      "outputs": [
        {
          "internalType": "address",
          "name": "",
          "type": "address"
        }
      ],
      "stateMutability": "view",
      "type": "function"
    },
    {
      "inputs": [
        {
          "internalType": "address",
          "name": "to",
          "type": "address"
        },
        {
          "internalType": "uint256",
          "name": "tokenId",
          "type": "uint256"
        }
      ],
      "name": "approve",
      "outputs": [],
      "stateMutability": "nonpayable",
      "type": "function"
    },
    {
      "inputs": [
        {
          "internalType": "address",
          "name": "owner",
          "type": "address"
        }
      ],
      "name": "balanceOf",
      "outputs": [
        {
          "internalType": "uint256",
          "name": "",
          "type": "uint256"
        }
      ],
      "stateMutability": "view",
      "type": "function"
    },
    {
      "inputs": [],
      "name": "flipSaleState",
      "outputs": [],
      "stateMutability": "nonpayable",
      "type": "function"
    },
    {
      "inputs": [
        {
          "internalType": "uint256",
          "name": "tokenId",
          "type": "uint256"
        }
      ],
      "name": "getApproved",
      "outputs": [
        {
          "internalType": "address",
          "name": "",
          "type": "address"
        }
      ],
      "stateMutability": "view",
      "type": "function"
    },
    {
      "inputs": [
        {
          "internalType": "uint8",
          "name": "_amount",
          "type": "uint8"
        }
      ],
      "name": "getPrice",
      "outputs": [
        {
          "internalType": "uint256",
          "name": "givenPrice",
          "type": "uint256"
        }
      ],
      "stateMutability": "view",
      "type": "function"
    },
    {
      "inputs": [
        {
          "internalType": "uint16",
          "name": "_id",
          "type": "uint16"
        }
      ],
      "name": "getStats",
      "outputs": [
        {
          "components": [
            {
              "internalType": "uint16",
              "name": "speed",
              "type": "uint16"
            },
            {
              "internalType": "uint16",
              "name": "strength",
              "type": "uint16"
            },
            {
              "internalType": "uint16",
              "name": "agressiveness",
              "type": "uint16"
            },
            {
              "internalType": "uint16",
              "name": "fightsWon",
              "type": "uint16"
            },
            {
              "internalType": "uint16",
              "name": "fightsLost",
              "type": "uint16"
            },
            {
              "internalType": "uint16",
              "name": "quickPlayRacesWon",
              "type": "uint16"
            },
            {
              "internalType": "uint16",
              "name": "quickPlayRacesLost",
              "type": "uint16"
            },
            {
              "internalType": "uint16",
              "name": "compRacesWon",
              "type": "uint16"
            },
            {
              "internalType": "uint16",
              "name": "compRacesLost",
              "type": "uint16"
            },
            {
              "internalType": "uint16",
              "name": "deathRacesWon",
              "type": "uint16"
            },
            {
              "internalType": "uint16",
              "name": "deathRacesLost",
              "type": "uint16"
            },
            {
              "internalType": "uint16",
              "name": "deathRacesSurvived",
              "type": "uint16"
            },
            {
              "internalType": "uint16",
              "name": "deathRaceFightsWon",
              "type": "uint16"
            },
            {
              "internalType": "uint16",
              "name": "totalRacesTop3Finish",
              "type": "uint16"
            },
            {
              "internalType": "uint256",
              "name": "cooldownTime",
              "type": "uint256"
            },
            {
              "internalType": "bool",
              "name": "foundingRaptor",
              "type": "bool"
            }
          ],
          "internalType": "struct Stats",
          "name": "stats",
          "type": "tuple"
        }
      ],
      "stateMutability": "view",
      "type": "function"
    },
    {
      "inputs": [],
      "name": "getTotalMinted",
      "outputs": [
        {
          "internalType": "uint16",
          "name": "total",
          "type": "uint16"
        }
      ],
      "stateMutability": "view",
      "type": "function"
    },
    {
      "inputs": [
        {
          "internalType": "address",
          "name": "owner",
          "type": "address"
        },
        {
          "internalType": "address",
          "name": "operator",
          "type": "address"
        }
      ],
      "name": "isApprovedForAll",
      "outputs": [
        {
          "internalType": "bool",
          "name": "",
          "type": "bool"
        }
      ],
      "stateMutability": "view",
      "type": "function"
    },
    {
      "inputs": [
        {
          "internalType": "uint8",
          "name": "_amount",
          "type": "uint8"
        }
      ],
      "name": "mint",
      "outputs": [],
      "stateMutability": "payable",
      "type": "function"
    },
    {
      "inputs": [],
      "name": "name",
      "outputs": [
        {
          "internalType": "string",
          "name": "",
          "type": "string"
        }
      ],
      "stateMutability": "view",
      "type": "function"
    },
    {
      "inputs": [
        {
          "internalType": "uint256",
          "name": "tokenId",
          "type": "uint256"
        }
      ],
      "name": "ownerOf",
      "outputs": [
        {
          "internalType": "address",
          "name": "",
          "type": "address"
        }
      ],
      "stateMutability": "view",
      "type": "function"
    },
    {
      "inputs": [
        {
          "internalType": "uint256",
          "name": "",
          "type": "uint256"
        }
      ],
      "name": "paymentsTo",
      "outputs": [
        {
          "internalType": "address",
          "name": "",
          "type": "address"
        }
      ],
      "stateMutability": "view",
      "type": "function"
    },
    {
      "inputs": [],
      "name": "reveal",
      "outputs": [],
      "stateMutability": "nonpayable",
      "type": "function"
    },
    {
      "inputs": [
        {
          "internalType": "address",
          "name": "from",
          "type": "address"
        },
        {
          "internalType": "address",
          "name": "to",
          "type": "address"
        },
        {
          "internalType": "uint256",
          "name": "tokenId",
          "type": "uint256"
        }
      ],
      "name": "safeTransferFrom",
      "outputs": [],
      "stateMutability": "nonpayable",
      "type": "function"
    },
    {
      "inputs": [
        {
          "internalType": "address",
          "name": "from",
          "type": "address"
        },
        {
          "internalType": "address",
          "name": "to",
          "type": "address"
        },
        {
          "internalType": "uint256",
          "name": "tokenId",
          "type": "uint256"
        },
        {
          "internalType": "bytes",
          "name": "_data",
          "type": "bytes"
        }
      ],
      "name": "safeTransferFrom",
      "outputs": [],
      "stateMutability": "nonpayable",
      "type": "function"
    },
    {
      "inputs": [
        {
          "internalType": "address",
          "name": "_admin",
          "type": "address"
        }
      ],
      "name": "setAdmin",
      "outputs": [],
      "stateMutability": "nonpayable",
      "type": "function"
    },
    {
      "inputs": [
        {
          "internalType": "address",
          "name": "operator",
          "type": "address"
        },
        {
          "internalType": "bool",
          "name": "approved",
          "type": "bool"
        }
      ],
      "name": "setApprovalForAll",
      "outputs": [],
      "stateMutability": "nonpayable",
      "type": "function"
    },
    {
      "inputs": [
        {
          "internalType": "uint256",
          "name": "fundsToSplit",
          "type": "uint256"
        }
      ],
      "name": "splitFunds",
      "outputs": [],
      "stateMutability": "payable",
      "type": "function"
    },
    {
      "inputs": [
        {
          "internalType": "bytes4",
          "name": "interfaceId",
          "type": "bytes4"
        }
      ],
      "name": "supportsInterface",
      "outputs": [
        {
          "internalType": "bool",
          "name": "",
          "type": "bool"
        }
      ],
      "stateMutability": "view",
      "type": "function"
    },
    {
      "inputs": [],
      "name": "symbol",
      "outputs": [
        {
          "internalType": "string",
          "name": "",
          "type": "string"
        }
      ],
      "stateMutability": "view",
      "type": "function"
    },
    {
      "inputs": [
        {
          "internalType": "uint256",
          "name": "index",
          "type": "uint256"
        }
      ],
      "name": "tokenByIndex",
      "outputs": [
        {
          "internalType": "uint256",
          "name": "",
          "type": "uint256"
        }
      ],
      "stateMutability": "view",
      "type": "function"
    },
    {
      "inputs": [
        {
          "internalType": "address",
          "name": "owner",
          "type": "address"
        },
        {
          "internalType": "uint256",
          "name": "index",
          "type": "uint256"
        }
      ],
      "name": "tokenOfOwnerByIndex",
      "outputs": [
        {
          "internalType": "uint256",
          "name": "",
          "type": "uint256"
        }
      ],
      "stateMutability": "view",
      "type": "function"
    },
    {
      "inputs": [
        {
          "internalType": "uint256",
          "name": "tokenId",
          "type": "uint256"
        }
      ],
      "name": "tokenURI",
      "outputs": [
        {
          "internalType": "string",
          "name": "",
          "type": "string"
        }
      ],
      "stateMutability": "view",
      "type": "function"
    },
    {
      "inputs": [
        {
          "internalType": "uint16",
          "name": "_tokenId",
          "type": "uint16"
        }
      ],
      "name": "tokenURI",
      "outputs": [
        {
          "internalType": "string",
          "name": "uri",
          "type": "string"
        }
      ],
      "stateMutability": "view",
      "type": "function"
    },
    {
      "inputs": [],
      "name": "totalSupply",
      "outputs": [
        {
          "internalType": "uint256",
          "name": "",
          "type": "uint256"
        }
      ],
      "stateMutability": "view",
      "type": "function"
    },
    {
      "inputs": [
        {
          "internalType": "address",
          "name": "from",
          "type": "address"
        },
        {
          "internalType": "address",
          "name": "to",
          "type": "address"
        },
        {
          "internalType": "uint256",
          "name": "tokenId",
          "type": "uint256"
        }
      ],
      "name": "transferFrom",
      "outputs": [],
      "stateMutability": "nonpayable",
      "type": "function"
    },
    {
      "inputs": [
        {
          "internalType": "address",
          "name": "_gameAddress",
          "type": "address"
        }
      ],
      "name": "updateGameAddress",
      "outputs": [],
      "stateMutability": "nonpayable",
      "type": "function"
    },
    {
      "inputs": [
        {
          "internalType": "address",
          "name": "_paymentTo",
          "type": "address"
        },
        {
          "internalType": "uint8",
          "name": "index",
          "type": "uint8"
        }
      ],
      "name": "updatePaymentTo",
      "outputs": [],
      "stateMutability": "nonpayable",
      "type": "function"
    },
    {
      "inputs": [
        {
          "components": [
            {
              "internalType": "uint16",
              "name": "speed",
              "type": "uint16"
            },
            {
              "internalType": "uint16",
              "name": "strength",
              "type": "uint16"
            },
            {
              "internalType": "uint16",
              "name": "agressiveness",
              "type": "uint16"
            },
            {
              "internalType": "uint16",
              "name": "fightsWon",
              "type": "uint16"
            },
            {
              "internalType": "uint16",
              "name": "fightsLost",
              "type": "uint16"
            },
            {
              "internalType": "uint16",
              "name": "quickPlayRacesWon",
              "type": "uint16"
            },
            {
              "internalType": "uint16",
              "name": "quickPlayRacesLost",
              "type": "uint16"
            },
            {
              "internalType": "uint16",
              "name": "compRacesWon",
              "type": "uint16"
            },
            {
              "internalType": "uint16",
              "name": "compRacesLost",
              "type": "uint16"
            },
            {
              "internalType": "uint16",
              "name": "deathRacesWon",
              "type": "uint16"
            },
            {
              "internalType": "uint16",
              "name": "deathRacesLost",
              "type": "uint16"
            },
            {
              "internalType": "uint16",
              "name": "deathRacesSurvived",
              "type": "uint16"
            },
            {
              "internalType": "uint16",
              "name": "deathRaceFightsWon",
              "type": "uint16"
            },
            {
              "internalType": "uint16",
              "name": "totalRacesTop3Finish",
              "type": "uint16"
            },
            {
              "internalType": "uint256",
              "name": "cooldownTime",
              "type": "uint256"
            },
            {
              "internalType": "bool",
              "name": "foundingRaptor",
              "type": "bool"
            }
          ],
          "internalType": "struct Stats",
          "name": "_stats",
          "type": "tuple"
        },
        {
          "internalType": "uint16",
          "name": "_id",
          "type": "uint16"
        }
      ],
      "name": "updateStats",
      "outputs": [
        {
          "internalType": "bool",
          "name": "",
          "type": "bool"
        }
      ],
      "stateMutability": "nonpayable",
      "type": "function"
    },
    {
      "inputs": [
        {
          "internalType": "address",
          "name": "_wallet",
          "type": "address"
        }
      ],
      "name": "walletOfOwner",
      "outputs": [
        {
          "internalType": "uint16[]",
          "name": "ids",
          "type": "uint16[]"
        }
      ],
      "stateMutability": "view",
      "type": "function"
    },
    {
      "stateMutability": "payable",
      "type": "receive"
    }
  ],
  "bytecode": "0x60806040526040518060600160405280600160ff168152602001600260ff168152602001600260ff1681525060149060036200003d9291906200104e565b503480156200004b57600080fd5b50604051620079fb380380620079fb833981810160405281019062000071919062001395565b6040518060400160405280601181526020017f526163696e6720526170746f72732056320000000000000000000000000000008152506040518060400160405280600281526020017f52520000000000000000000000000000000000000000000000000000000000008152508160009080519060200190620000f5929190620010fc565b5080600190805190602001906200010e929190620010fc565b50505060038251146200012057600080fd5b60038151146200012f57600080fd5b8160139080519060200190620001479291906200118d565b5087600b908051906020019062000160929190620010fc565b5086600c908051906020019062000179929190620010fc565b5085600e908051906020019062000192929190620010fc565b5084600d9080519060200190620001ab929190620010fc565b506001600a60146101000a81548160ff0219169083151502179055506000601260006101000a81548161ffff021916908361ffff16021790555083601260026101000a81548161ffff021916908361ffff160217905550671bc16d674ec8000060118190555062000221620002b160201b60201c565b600a60006101000a81548173ffffffffffffffffffffffffffffffffffffffff021916908373ffffffffffffffffffffffffffffffffffffffff1602179055508060159080519060200190620002799291906200118d565b5082600f908051906020019062000292929190620010fc565b50620002a3620002b960201b60201c565b505050505050505062001b34565b600033905090565b60005b6013805490508160ff161015620007305760005b60148260ff1681548110620002ea57620002e962001988565b5b90600052602060002090602091828204019190069054906101000a900460ff1660ff168160ff16101562000719576001601260008282829054906101000a900461ffff166200033a9190620016fa565b92506101000a81548161ffff021916908361ffff160217905550620003be60138360ff168154811062000372576200037162001988565b5b9060005260206000200160009054906101000a900473ffffffffffffffffffffffffffffffffffffffff16601260009054906101000a900461ffff1661ffff166200073360201b60201c565b62000406601260059054906101000a900473ffffffffffffffffffffffffffffffffffffffff16601260009054906101000a900461ffff1661ffff166200092d60201b60201c565b604051806102000160405280600161ffff168152602001600161ffff168152602001600161ffff168152602001600061ffff168152602001600061ffff168152602001600061ffff168152602001600061ffff168152602001600061ffff168152602001600061ffff168152602001600061ffff168152602001600061ffff168152602001600061ffff168152602001600061ffff168152602001600061ffff1681526020014281526020016001151581525060106000601260009054906101000a900461ffff1661ffff1661ffff16815260200190815260200160002060008201518160000160006101000a81548161ffff021916908361ffff16021790555060208201518160000160026101000a81548161ffff021916908361ffff16021790555060408201518160000160046101000a81548161ffff021916908361ffff16021790555060608201518160000160066101000a81548161ffff021916908361ffff16021790555060808201518160000160086101000a81548161ffff021916908361ffff16021790555060a082015181600001600a6101000a81548161ffff021916908361ffff16021790555060c082015181600001600c6101000a81548161ffff021916908361ffff16021790555060e082015181600001600e6101000a81548161ffff021916908361ffff1602179055506101008201518160000160106101000a81548161ffff021916908361ffff1602179055506101208201518160000160126101000a81548161ffff021916908361ffff1602179055506101408201518160000160146101000a81548161ffff021916908361ffff1602179055506101608201518160000160166101000a81548161ffff021916908361ffff1602179055506101808201518160000160186101000a81548161ffff021916908361ffff1602179055506101a082015181600001601a6101000a81548161ffff021916908361ffff1602179055506101c082015181600101556101e08201518160020160006101000a81548160ff02191690831515021790555090505080806200071090620018cc565b915050620002d0565b5080806200072790620018cc565b915050620002bc565b50565b600073ffffffffffffffffffffffffffffffffffffffff168273ffffffffffffffffffffffffffffffffffffffff161415620007a6576040517f08c379a00000000000000000000000000000000000000000000000000000000081526004016200079d9062001639565b60405180910390fd5b620007b781620009f360201b60201c565b15620007fa576040517f08c379a0000000000000000000000000000000000000000000000000000000008152600401620007f190620015d3565b60405180910390fd5b6200080e6000838362000a5f60201b60201c565b6001600360008473ffffffffffffffffffffffffffffffffffffffff1673ffffffffffffffffffffffffffffffffffffffff168152602001908152602001600020600082825462000860919062001739565b92505081905550816002600083815260200190815260200160002060006101000a81548173ffffffffffffffffffffffffffffffffffffffff021916908373ffffffffffffffffffffffffffffffffffffffff160217905550808273ffffffffffffffffffffffffffffffffffffffff16600073ffffffffffffffffffffffffffffffffffffffff167fddf252ad1be2c89b69c2b068fc378daa952ba7f163c4a11628f55a4df523b3ef60405160405180910390a4620009296000838362000ba660201b60201c565b5050565b816004600083815260200190815260200160002060006101000a81548173ffffffffffffffffffffffffffffffffffffffff021916908373ffffffffffffffffffffffffffffffffffffffff160217905550808273ffffffffffffffffffffffffffffffffffffffff16620009ad8362000bab60201b620014a71760201c565b73ffffffffffffffffffffffffffffffffffffffff167f8c5be1e5ebec7d5bd14f71427d1e84f3dd0314c0f7b2291e5b200ac8c7c3b92560405160405180910390a45050565b60008073ffffffffffffffffffffffffffffffffffffffff166002600084815260200190815260200160002060009054906101000a900473ffffffffffffffffffffffffffffffffffffffff1673ffffffffffffffffffffffffffffffffffffffff1614159050919050565b62000a7783838362000c6060201b620026841760201c565b600073ffffffffffffffffffffffffffffffffffffffff168373ffffffffffffffffffffffffffffffffffffffff16141562000ac45762000abe8162000c6560201b60201c565b62000b0c565b8173ffffffffffffffffffffffffffffffffffffffff168373ffffffffffffffffffffffffffffffffffffffff161462000b0b5762000b0a838262000cae60201b60201c565b5b5b600073ffffffffffffffffffffffffffffffffffffffff168273ffffffffffffffffffffffffffffffffffffffff16141562000b595762000b538162000e2b60201b60201c565b62000ba1565b8273ffffffffffffffffffffffffffffffffffffffff168273ffffffffffffffffffffffffffffffffffffffff161462000ba05762000b9f828262000f0760201b60201c565b5b5b505050565b505050565b6000806002600084815260200190815260200160002060009054906101000a900473ffffffffffffffffffffffffffffffffffffffff169050600073ffffffffffffffffffffffffffffffffffffffff168173ffffffffffffffffffffffffffffffffffffffff16141562000c57576040517f08c379a000000000000000000000000000000000000000000000000000000000815260040162000c4e9062001617565b60405180910390fd5b80915050919050565b505050565b6008805490506009600083815260200190815260200160002081905550600881908060018154018082558091505060019003906000526020600020016000909190919091505550565b6000600162000cc88462000f9360201b62001e571760201c565b62000cd4919062001796565b905060006007600084815260200190815260200160002054905081811462000dba576000600660008673ffffffffffffffffffffffffffffffffffffffff1673ffffffffffffffffffffffffffffffffffffffff168152602001908152602001600020600084815260200190815260200160002054905080600660008773ffffffffffffffffffffffffffffffffffffffff1673ffffffffffffffffffffffffffffffffffffffff168152602001908152602001600020600084815260200190815260200160002081905550816007600083815260200190815260200160002081905550505b6007600084815260200190815260200160002060009055600660008573ffffffffffffffffffffffffffffffffffffffff1673ffffffffffffffffffffffffffffffffffffffff16815260200190815260200160002060008381526020019081526020016000206000905550505050565b6000600160088054905062000e41919062001796565b905060006009600084815260200190815260200160002054905060006008838154811062000e745762000e7362001988565b5b90600052602060002001549050806008838154811062000e995762000e9862001988565b5b90600052602060002001819055508160096000838152602001908152602001600020819055506009600085815260200190815260200160002060009055600880548062000eeb5762000eea62001959565b5b6001900381819060005260206000200160009055905550505050565b600062000f1f8362000f9360201b62001e571760201c565b905081600660008573ffffffffffffffffffffffffffffffffffffffff1673ffffffffffffffffffffffffffffffffffffffff168152602001908152602001600020600083815260200190815260200160002081905550806007600084815260200190815260200160002081905550505050565b60008073ffffffffffffffffffffffffffffffffffffffff168273ffffffffffffffffffffffffffffffffffffffff16141562001007576040517f08c379a000000000000000000000000000000000000000000000000000000000815260040162000ffe90620015f5565b60405180910390fd5b600360008373ffffffffffffffffffffffffffffffffffffffff1673ffffffffffffffffffffffffffffffffffffffff168152602001908152602001600020549050919050565b82805482825590600052602060002090601f01602090048101928215620010e95791602002820160005b83821115620010b857835183826101000a81548160ff021916908360ff160217905550926020019260010160208160000104928301926001030262001078565b8015620010e75782816101000a81549060ff0219169055600101602081600001049283019260010302620010b8565b505b509050620010f891906200121c565b5090565b8280546200110a9062001860565b90600052602060002090601f0160209004810192826200112e57600085556200117a565b82601f106200114957805160ff19168380011785556200117a565b828001600101855582156200117a579182015b82811115620011795782518255916020019190600101906200115c565b5b5090506200118991906200121c565b5090565b82805482825590600052602060002090810192821562001209579160200282015b82811115620012085782518260006101000a81548173ffffffffffffffffffffffffffffffffffffffff021916908373ffffffffffffffffffffffffffffffffffffffff16021790555091602001919060010190620011ae565b5b5090506200121891906200121c565b5090565b5b80821115620012375760008160009055506001016200121d565b5090565b6000620012526200124c8462001684565b6200165b565b90508083825260208201905082856020860282011115620012785762001277620019eb565b5b60005b85811015620012ac578162001291888262001301565b8452602084019350602083019250506001810190506200127b565b5050509392505050565b6000620012cd620012c784620016b3565b6200165b565b905082815260208101848484011115620012ec57620012eb620019f0565b5b620012f98482856200182a565b509392505050565b600081519050620013128162001b00565b92915050565b600082601f83011262001330576200132f620019e6565b5b8151620013428482602086016200123b565b91505092915050565b600082601f830112620013635762001362620019e6565b5b815162001375848260208601620012b6565b91505092915050565b6000815190506200138f8162001b1a565b92915050565b600080600080600080600080610100898b031215620013b957620013b8620019fa565b5b600089015167ffffffffffffffff811115620013da57620013d9620019f5565b5b620013e88b828c016200134b565b985050602089015167ffffffffffffffff8111156200140c576200140b620019f5565b5b6200141a8b828c016200134b565b975050604089015167ffffffffffffffff8111156200143e576200143d620019f5565b5b6200144c8b828c016200134b565b965050606089015167ffffffffffffffff81111562001470576200146f620019f5565b5b6200147e8b828c016200134b565b9550506080620014918b828c016200137e565b94505060a089015167ffffffffffffffff811115620014b557620014b4620019f5565b5b620014c38b828c016200134b565b93505060c089015167ffffffffffffffff811115620014e757620014e6620019f5565b5b620014f58b828c0162001318565b92505060e089015167ffffffffffffffff811115620015195762001518620019f5565b5b620015278b828c0162001318565b9150509295985092959890939650565b600062001546601c83620016e9565b9150620015538262001a10565b602082019050919050565b60006200156d602a83620016e9565b91506200157a8262001a39565b604082019050919050565b600062001594602983620016e9565b9150620015a18262001a88565b604082019050919050565b6000620015bb602083620016e9565b9150620015c88262001ad7565b602082019050919050565b60006020820190508181036000830152620015ee8162001537565b9050919050565b6000602082019050818103600083015262001610816200155e565b9050919050565b60006020820190508181036000830152620016328162001585565b9050919050565b600060208201905081810360008301526200165481620015ac565b9050919050565b6000620016676200167a565b905062001675828262001896565b919050565b6000604051905090565b600067ffffffffffffffff821115620016a257620016a1620019b7565b5b602082029050602081019050919050565b600067ffffffffffffffff821115620016d157620016d0620019b7565b5b620016dc82620019ff565b9050602081019050919050565b600082825260208201905092915050565b60006200170782620017e5565b91506200171483620017e5565b92508261ffff038211156200172e576200172d620018fb565b5b828201905092915050565b6000620017468262001813565b9150620017538362001813565b9250827fffffffffffffffffffffffffffffffffffffffffffffffffffffffffffffffff038211156200178b576200178a620018fb565b5b828201905092915050565b6000620017a38262001813565b9150620017b08362001813565b925082821015620017c657620017c5620018fb565b5b828203905092915050565b6000620017de82620017f3565b9050919050565b600061ffff82169050919050565b600073ffffffffffffffffffffffffffffffffffffffff82169050919050565b6000819050919050565b600060ff82169050919050565b60005b838110156200184a5780820151818401526020810190506200182d565b838111156200185a576000848401525b50505050565b600060028204905060018216806200187957607f821691505b6020821081141562001890576200188f6200192a565b5b50919050565b620018a182620019ff565b810181811067ffffffffffffffff82111715620018c357620018c2620019b7565b5b80604052505050565b6000620018d9826200181d565b915060ff821415620018f057620018ef620018fb565b5b600182019050919050565b7f4e487b7100000000000000000000000000000000000000000000000000000000600052601160045260246000fd5b7f4e487b7100000000000000000000000000000000000000000000000000000000600052602260045260246000fd5b7f4e487b7100000000000000000000000000000000000000000000000000000000600052603160045260246000fd5b7f4e487b7100000000000000000000000000000000000000000000000000000000600052603260045260246000fd5b7f4e487b7100000000000000000000000000000000000000000000000000000000600052604160045260246000fd5b600080fd5b600080fd5b600080fd5b600080fd5b600080fd5b6000601f19601f8301169050919050565b7f4552433732313a20746f6b656e20616c7265616479206d696e74656400000000600082015250565b7f4552433732313a2062616c616e636520717565727920666f7220746865207a6560008201527f726f206164647265737300000000000000000000000000000000000000000000602082015250565b7f4552433732313a206f776e657220717565727920666f72206e6f6e657869737460008201527f656e7420746f6b656e0000000000000000000000000000000000000000000000602082015250565b7f4552433732313a206d696e7420746f20746865207a65726f2061646472657373600082015250565b62001b0b81620017d1565b811462001b1757600080fd5b50565b62001b2581620017e5565b811462001b3157600080fd5b50565b615eb78062001b446000396000f3fe6080604052600436106101e75760003560e01c80634f6ccce711610102578063a22cb46511610095578063db258f9c11610064578063db258f9c14610734578063dd7d84401461075d578063e985e9c51461079a578063f851a440146107d7576101f7565b8063a22cb4651461068e578063a475b5dd146106b7578063b88d4fde146106ce578063c87b56dd146106f7576101f7565b8063704b6c02116100d1578063704b6c02146105c057806370a08231146105e9578063887078be1461062657806395d89b4114610663576101f7565b80634f6ccce7146105015780636352211e1461053e57806367c1fcfe1461057b5780636ecd2306146105a4576101f7565b806323b872dd1161017a57806337f1e7f21161014957806337f1e7f21461042157806341c254ad1461045e57806342842e0e1461049b578063438b6300146104c4576101f7565b806323b872dd146103885780632f1335cf146103b15780632f745c59146103cd57806334918dfd1461040a576101f7565b8063095ea7b3116101b6578063095ea7b3146102cc5780630a8dc157146102f55780630ca1c5c91461033257806318160ddd1461035d576101f7565b806301ffc9a7146101fc57806302fb0c5e1461023957806306fdde0314610264578063081812fc1461028f576101f7565b366101f7576101f534610802565b005b600080fd5b34801561020857600080fd5b50610223600480360381019061021e9190614226565b610a07565b6040516102309190614d29565b60405180910390f35b34801561024557600080fd5b5061024e610a81565b60405161025b9190614d29565b60405180910390f35b34801561027057600080fd5b50610279610a94565b6040516102869190614db2565b60405180910390f35b34801561029b57600080fd5b506102b660048036038101906102b191906142ef565b610b26565b6040516102c39190614c39565b60405180910390f35b3480156102d857600080fd5b506102f360048036038101906102ee9190614179565b610bab565b005b34801561030157600080fd5b5061031c600480360381019061031791906142ef565b610cc3565b6040516103299190614c39565b60405180910390f35b34801561033e57600080fd5b50610347610d02565b6040516103549190615152565b60405180910390f35b34801561036957600080fd5b50610372610d1a565b60405161037f9190615197565b60405180910390f35b34801561039457600080fd5b506103af60048036038101906103aa9190614063565b610d27565b005b6103cb60048036038101906103c691906142ef565b610802565b005b3480156103d957600080fd5b506103f460048036038101906103ef9190614179565b610d87565b6040516104019190615197565b60405180910390f35b34801561041657600080fd5b5061041f610e2c565b005b34801561042d57600080fd5b5061044860048036038101906104439190614349565b610eef565b6040516104559190615197565b60405180910390f35b34801561046a57600080fd5b5061048560048036038101906104809190614280565b610fed565b6040516104929190614d29565b60405180910390f35b3480156104a757600080fd5b506104c260048036038101906104bd9190614063565b611350565b005b3480156104d057600080fd5b506104eb60048036038101906104e69190613ff6565b611370565b6040516104f89190614d07565b60405180910390f35b34801561050d57600080fd5b50610528600480360381019061052391906142ef565b611436565b6040516105359190615197565b60405180910390f35b34801561054a57600080fd5b50610565600480360381019061056091906142ef565b6114a7565b6040516105729190614c39565b60405180910390f35b34801561058757600080fd5b506105a2600480360381019061059d91906141b9565b611559565b005b6105be60048036038101906105b99190614349565b611654565b005b3480156105cc57600080fd5b506105e760048036038101906105e29190613ff6565b611d45565b005b3480156105f557600080fd5b50610610600480360381019061060b9190613ff6565b611e57565b60405161061d9190615197565b60405180910390f35b34801561063257600080fd5b5061064d600480360381019061064891906142c2565b611f0f565b60405161065a9190615136565b60405180910390f35b34801561066f57600080fd5b50610678612176565b6040516106859190614db2565b60405180910390f35b34801561069a57600080fd5b506106b560048036038101906106b09190614139565b612208565b005b3480156106c357600080fd5b506106cc61221e565b005b3480156106da57600080fd5b506106f560048036038101906106f091906140b6565b6122d2565b005b34801561070357600080fd5b5061071e600480360381019061071991906142ef565b612334565b60405161072b9190614db2565b60405180910390f35b34801561074057600080fd5b5061075b60048036038101906107569190613ff6565b6123db565b005b34801561076957600080fd5b50610784600480360381019061077f91906142c2565b6124ed565b6040516107919190614db2565b60405180910390f35b3480156107a657600080fd5b506107c160048036038101906107bc9190614023565b6125ca565b6040516107ce9190614d29565b60405180910390f35b3480156107e357600080fd5b506107ec61265e565b6040516107f99190614c39565b60405180910390f35b47811015610845576040517f08c379a000000000000000000000000000000000000000000000000000000000815260040161083c90614f56565b60405180910390fd5b601560008154811061085a576108596156d5565b5b9060005260206000200160009054906101000a900473ffffffffffffffffffffffffffffffffffffffff1673ffffffffffffffffffffffffffffffffffffffff166108fc60646019846108ad9190615358565b6108b79190615327565b9081150290604051600060405180830381858888f193505050506108da57600080fd5b60156001815481106108ef576108ee6156d5565b5b9060005260206000200160009054906101000a900473ffffffffffffffffffffffffffffffffffffffff1673ffffffffffffffffffffffffffffffffffffffff166108fc60646032846109429190615358565b61094c9190615327565b9081150290604051600060405180830381858888f1935050505061096f57600080fd5b6015600281548110610984576109836156d5565b5b9060005260206000200160009054906101000a900473ffffffffffffffffffffffffffffffffffffffff1673ffffffffffffffffffffffffffffffffffffffff166108fc60646019846109d79190615358565b6109e19190615327565b9081150290604051600060405180830381858888f19350505050610a0457600080fd5b50565b60007f780e9d63000000000000000000000000000000000000000000000000000000007bffffffffffffffffffffffffffffffffffffffffffffffffffffffff1916827bffffffffffffffffffffffffffffffffffffffffffffffffffffffff19161480610a7a5750610a7982612689565b5b9050919050565b600a60149054906101000a900460ff1681565b606060008054610aa3906154c1565b80601f0160208091040260200160405190810160405280929190818152602001828054610acf906154c1565b8015610b1c5780601f10610af157610100808354040283529160200191610b1c565b820191906000526020600020905b815481529060010190602001808311610aff57829003601f168201915b5050505050905090565b6000610b318261276b565b610b70576040517f08c379a0000000000000000000000000000000000000000000000000000000008152600401610b6790615016565b60405180910390fd5b6004600083815260200190815260200160002060009054906101000a900473ffffffffffffffffffffffffffffffffffffffff169050919050565b6000610bb6826114a7565b90508073ffffffffffffffffffffffffffffffffffffffff168373ffffffffffffffffffffffffffffffffffffffff161415610c27576040517f08c379a0000000000000000000000000000000000000000000000000000000008152600401610c1e90615056565b60405180910390fd5b8073ffffffffffffffffffffffffffffffffffffffff16610c466127d7565b73ffffffffffffffffffffffffffffffffffffffff161480610c755750610c7481610c6f6127d7565b6125ca565b5b610cb4576040517f08c379a0000000000000000000000000000000000000000000000000000000008152600401610cab90614f96565b60405180910390fd5b610cbe83836127df565b505050565b60158181548110610cd357600080fd5b906000526020600020016000915054906101000a900473ffffffffffffffffffffffffffffffffffffffff1681565b6000601260009054906101000a900461ffff16905090565b6000600880549050905090565b610d38610d326127d7565b82612898565b610d77576040517f08c379a0000000000000000000000000000000000000000000000000000000008152600401610d6e906150b6565b60405180910390fd5b610d82838383612976565b505050565b6000610d9283611e57565b8210610dd3576040517f08c379a0000000000000000000000000000000000000000000000000000000008152600401610dca90614e56565b60405180910390fd5b600660008473ffffffffffffffffffffffffffffffffffffffff1673ffffffffffffffffffffffffffffffffffffffff168152602001908152602001600020600083815260200190815260200160002054905092915050565b600a60009054906101000a900473ffffffffffffffffffffffffffffffffffffffff1673ffffffffffffffffffffffffffffffffffffffff16610e6d6127d7565b73ffffffffffffffffffffffffffffffffffffffff1614610ec3576040517f08c379a0000000000000000000000000000000000000000000000000000000008152600401610eba90614df6565b60405180910390fd5b600a60149054906101000a900460ff1615600a60146101000a81548160ff021916908315150217905550565b6000600a8260ff161115610f38576040517f08c379a0000000000000000000000000000000000000000000000000000000008152600401610f2f906150f6565b60405180910390fd5b6000610f5b8360ff16601260009054906101000a900461ffff1661ffff16612bdd565b9050600115158115151415610fd357600080610f8e8560ff16601260009054906101000a900461ffff1661ffff16612c46565b915091508060ff166002601154610fa59190615358565b610faf9190615358565b8260ff16601154610fc09190615358565b610fca91906152d1565b93505050610fe7565b8260ff16601154610fe49190615358565b91505b50919050565b6000601260059054906101000a900473ffffffffffffffffffffffffffffffffffffffff1673ffffffffffffffffffffffffffffffffffffffff166110306127d7565b73ffffffffffffffffffffffffffffffffffffffff1614611086576040517f08c379a000000000000000000000000000000000000000000000000000000000815260040161107d90615076565b60405180910390fd5b6110938261ffff1661276b565b6110d2576040517f08c379a00000000000000000000000000000000000000000000000000000000081526004016110c990614f76565b60405180910390fd5b82601060008461ffff1661ffff16815260200190815260200160002060008201518160000160006101000a81548161ffff021916908361ffff16021790555060208201518160000160026101000a81548161ffff021916908361ffff16021790555060408201518160000160046101000a81548161ffff021916908361ffff16021790555060608201518160000160066101000a81548161ffff021916908361ffff16021790555060808201518160000160086101000a81548161ffff021916908361ffff16021790555060a082015181600001600a6101000a81548161ffff021916908361ffff16021790555060c082015181600001600c6101000a81548161ffff021916908361ffff16021790555060e082015181600001600e6101000a81548161ffff021916908361ffff1602179055506101008201518160000160106101000a81548161ffff021916908361ffff1602179055506101208201518160000160126101000a81548161ffff021916908361ffff1602179055506101408201518160000160146101000a81548161ffff021916908361ffff1602179055506101608201518160000160166101000a81548161ffff021916908361ffff1602179055506101808201518160000160186101000a81548161ffff021916908361ffff1602179055506101a082015181600001601a6101000a81548161ffff021916908361ffff1602179055506101c082015181600101556101e08201518160020160006101000a81548160ff0219169083151502179055509050507fa457e75f6da6e906ca05b141584e3af3a2bbbbf1b18d9f5beb8291108b575452828460405161133e92919061516d565b60405180910390a16001905092915050565b61136b838383604051806020016040528060008152506122d2565b505050565b6060600061137d83611e57565b90508061ffff1667ffffffffffffffff81111561139d5761139c615704565b5b6040519080825280602002602001820160405280156113cb5781602001602082028036833780820191505090505b50915060005b8161ffff168161ffff16101561142f576113ef848261ffff16610d87565b838261ffff1681518110611406576114056156d5565b5b602002602001019061ffff16908161ffff1681525050808061142790615524565b9150506113d1565b5050919050565b6000611440610d1a565b8210611481576040517f08c379a0000000000000000000000000000000000000000000000000000000008152600401611478906150d6565b60405180910390fd5b60088281548110611495576114946156d5565b5b90600052602060002001549050919050565b6000806002600084815260200190815260200160002060009054906101000a900473ffffffffffffffffffffffffffffffffffffffff169050600073ffffffffffffffffffffffffffffffffffffffff168173ffffffffffffffffffffffffffffffffffffffff161415611550576040517f08c379a000000000000000000000000000000000000000000000000000000000815260040161154790614fd6565b60405180910390fd5b80915050919050565b600a60009054906101000a900473ffffffffffffffffffffffffffffffffffffffff1673ffffffffffffffffffffffffffffffffffffffff1661159a6127d7565b73ffffffffffffffffffffffffffffffffffffffff16146115f0576040517f08c379a00000000000000000000000000000000000000000000000000000000081526004016115e790614df6565b60405180910390fd5b8160158260ff1681548110611608576116076156d5565b5b9060005260206000200160006101000a81548173ffffffffffffffffffffffffffffffffffffffff021916908373ffffffffffffffffffffffffffffffffffffffff1602179055505050565b600a60149054906101000a900460ff166116a3576040517f08c379a000000000000000000000000000000000000000000000000000000000815260040161169a90614ed6565b60405180910390fd5b600a60009054906101000a900473ffffffffffffffffffffffffffffffffffffffff1673ffffffffffffffffffffffffffffffffffffffff166116e46127d7565b73ffffffffffffffffffffffffffffffffffffffff16146117c45761170881610eef565b3414611749576040517f08c379a000000000000000000000000000000000000000000000000000000000815260040161174090614e36565b60405180910390fd5b61176a8160ff16601260009054906101000a900461ffff1661ffff16612bdd565b156117ba5761177a601154612caf565b6011819055507f18d394ba347d8c318a1db51c85288b956d598b2925be44758ee6f2edb9e2a06b6011546040516117b19190615197565b60405180910390a15b6117c334610802565b5b600a8160ff16111561180b576040517f08c379a000000000000000000000000000000000000000000000000000000000815260040161180290614e16565b60405180910390fd5b601260029054906101000a900461ffff1661ffff168160ff16601260009054906101000a900461ffff1661183f9190615299565b61ffff161115611884576040517f08c379a000000000000000000000000000000000000000000000000000000000815260040161187b90615116565b60405180910390fd5b60005b8160ff168160ff161015611d41576001601260008282829054906101000a900461ffff166118b59190615299565b92506101000a81548161ffff021916908361ffff1602179055506118f46118da6127d7565b601260009054906101000a900461ffff1661ffff16612cbd565b604051806102000160405280600161ffff168152602001600161ffff168152602001600161ffff168152602001600061ffff168152602001600061ffff168152602001600061ffff168152602001600061ffff168152602001600061ffff168152602001600061ffff168152602001600061ffff168152602001600061ffff168152602001600061ffff168152602001600061ffff168152602001600061ffff1681526020014281526020016000151581525060106000601260009054906101000a900461ffff1661ffff1661ffff16815260200190815260200160002060008201518160000160006101000a81548161ffff021916908361ffff16021790555060208201518160000160026101000a81548161ffff021916908361ffff16021790555060408201518160000160046101000a81548161ffff021916908361ffff16021790555060608201518160000160066101000a81548161ffff021916908361ffff16021790555060808201518160000160086101000a81548161ffff021916908361ffff16021790555060a082015181600001600a6101000a81548161ffff021916908361ffff16021790555060c082015181600001600c6101000a81548161ffff021916908361ffff16021790555060e082015181600001600e6101000a81548161ffff021916908361ffff1602179055506101008201518160000160106101000a81548161ffff021916908361ffff1602179055506101208201518160000160126101000a81548161ffff021916908361ffff1602179055506101408201518160000160146101000a81548161ffff021916908361ffff1602179055506101608201518160000160166101000a81548161ffff021916908361ffff1602179055506101808201518160000160186101000a81548161ffff021916908361ffff1602179055506101a082015181600001601a6101000a81548161ffff021916908361ffff1602179055506101c082015181600101556101e08201518160020160006101000a81548160ff021916908315150217905550905050611c31601260059054906101000a900473ffffffffffffffffffffffffffffffffffffffff16601260009054906101000a900461ffff1661ffff166127df565b7f140b33d985b194376cd7209902ffe7167129837ba3e921ef6c1d9952891cd9df611c5a6127d7565b601260009054906101000a900461ffff16604051611c79929190614ca0565b60405180910390a1601260029054906101000a900461ffff1661ffff16601260009054906101000a900461ffff1661ffff161415611d2e577f47927ac1d62bc1ae14fb17e77de64b8e0de58d777adc50086ed8f24eb26e8e64600f604051611ce19190614dd4565b60405180910390a16000611cf3612e97565b90507fb75047a36befaef84e90ca4c55f0673352e2942c569d5726c6cf463a043903f281604051611d249190614c39565b60405180910390a1505b8080611d3990615598565b915050611887565b5050565b600a60009054906101000a900473ffffffffffffffffffffffffffffffffffffffff1673ffffffffffffffffffffffffffffffffffffffff16611d866127d7565b73ffffffffffffffffffffffffffffffffffffffff1614611ddc576040517f08c379a0000000000000000000000000000000000000000000000000000000008152600401611dd390614df6565b60405180910390fd5b80600a60006101000a81548173ffffffffffffffffffffffffffffffffffffffff021916908373ffffffffffffffffffffffffffffffffffffffff1602179055507f71614071b88dee5e0b2ae578a9dd7b2ebbe9ae832ba419dc0242cd065a290b6c81604051611e4c9190614c39565b60405180910390a150565b60008073ffffffffffffffffffffffffffffffffffffffff168273ffffffffffffffffffffffffffffffffffffffff161415611ec8576040517f08c379a0000000000000000000000000000000000000000000000000000000008152600401611ebf90614fb6565b60405180910390fd5b600360008373ffffffffffffffffffffffffffffffffffffffff1673ffffffffffffffffffffffffffffffffffffffff168152602001908152602001600020549050919050565b611f17613c98565b611f248261ffff1661276b565b611f63576040517f08c379a0000000000000000000000000000000000000000000000000000000008152600401611f5a90614f76565b60405180910390fd5b601060008361ffff1661ffff168152602001908152602001600020604051806102000160405290816000820160009054906101000a900461ffff1661ffff1661ffff1681526020016000820160029054906101000a900461ffff1661ffff1661ffff1681526020016000820160049054906101000a900461ffff1661ffff1661ffff1681526020016000820160069054906101000a900461ffff1661ffff1661ffff1681526020016000820160089054906101000a900461ffff1661ffff1661ffff16815260200160008201600a9054906101000a900461ffff1661ffff1661ffff16815260200160008201600c9054906101000a900461ffff1661ffff1661ffff16815260200160008201600e9054906101000a900461ffff1661ffff1661ffff1681526020016000820160109054906101000a900461ffff1661ffff1661ffff1681526020016000820160129054906101000a900461ffff1661ffff1661ffff1681526020016000820160149054906101000a900461ffff1661ffff1661ffff1681526020016000820160169054906101000a900461ffff1661ffff1661ffff1681526020016000820160189054906101000a900461ffff1661ffff1661ffff16815260200160008201601a9054906101000a900461ffff1661ffff1661ffff168152602001600182015481526020016002820160009054906101000a900460ff1615151515815250509050919050565b606060018054612185906154c1565b80601f01602080910402602001604051908101604052809291908181526020018280546121b1906154c1565b80156121fe5780601f106121d3576101008083540402835291602001916121fe565b820191906000526020600020905b8154815290600101906020018083116121e157829003601f168201915b5050505050905090565b61221a6122136127d7565b8383612eba565b5050565b600a60009054906101000a900473ffffffffffffffffffffffffffffffffffffffff1673ffffffffffffffffffffffffffffffffffffffff1661225f6127d7565b73ffffffffffffffffffffffffffffffffffffffff16146122b5576040517f08c379a00000000000000000000000000000000000000000000000000000000081526004016122ac90614df6565b60405180910390fd5b6001601260046101000a81548160ff021916908315150217905550565b6122e36122dd6127d7565b83612898565b612322576040517f08c379a0000000000000000000000000000000000000000000000000000000008152600401612319906150b6565b60405180910390fd5b61232e84848484613027565b50505050565b606061233f8261276b565b61237e576040517f08c379a000000000000000000000000000000000000000000000000000000000815260040161237590615036565b60405180910390fd5b6000612388613083565b905060008151116123a857604051806020016040528060008152506123d3565b806123b28461309a565b6040516020016123c3929190614b72565b6040516020818303038152906040525b915050919050565b600a60009054906101000a900473ffffffffffffffffffffffffffffffffffffffff1673ffffffffffffffffffffffffffffffffffffffff1661241c6127d7565b73ffffffffffffffffffffffffffffffffffffffff1614612472576040517f08c379a000000000000000000000000000000000000000000000000000000000815260040161246990614df6565b60405180910390fd5b80601260056101000a81548173ffffffffffffffffffffffffffffffffffffffff021916908373ffffffffffffffffffffffffffffffffffffffff1602179055507f7b4f10014c23ea33ab4f8cc59c583fa422eca3392c456380a9e6a52be139f407816040516124e29190614c39565b60405180910390a150565b60606124fc8261ffff1661276b565b61253b576040517f08c379a000000000000000000000000000000000000000000000000000000000815260040161253290614f76565b60405180910390fd5b601260049054906101000a900460ff1661257a57600b600e604051602001612564929190614b96565b60405160208183030381529060405290506125c5565b600b600c8360405160200161258f9190614c1e565b604051602081830303815290604052600d6040516020016125b39493929190614bba565b60405160208183030381529060405290505b919050565b6000600560008473ffffffffffffffffffffffffffffffffffffffff1673ffffffffffffffffffffffffffffffffffffffff16815260200190815260200160002060008373ffffffffffffffffffffffffffffffffffffffff1673ffffffffffffffffffffffffffffffffffffffff16815260200190815260200160002060009054906101000a900460ff16905092915050565b600a60009054906101000a900473ffffffffffffffffffffffffffffffffffffffff1681565b505050565b60007f80ac58cd000000000000000000000000000000000000000000000000000000007bffffffffffffffffffffffffffffffffffffffffffffffffffffffff1916827bffffffffffffffffffffffffffffffffffffffffffffffffffffffff1916148061275457507f5b5e139f000000000000000000000000000000000000000000000000000000007bffffffffffffffffffffffffffffffffffffffffffffffffffffffff1916827bffffffffffffffffffffffffffffffffffffffffffffffffffffffff1916145b806127645750612763826131fb565b5b9050919050565b60008073ffffffffffffffffffffffffffffffffffffffff166002600084815260200190815260200160002060009054906101000a900473ffffffffffffffffffffffffffffffffffffffff1673ffffffffffffffffffffffffffffffffffffffff1614159050919050565b600033905090565b816004600083815260200190815260200160002060006101000a81548173ffffffffffffffffffffffffffffffffffffffff021916908373ffffffffffffffffffffffffffffffffffffffff160217905550808273ffffffffffffffffffffffffffffffffffffffff16612852836114a7565b73ffffffffffffffffffffffffffffffffffffffff167f8c5be1e5ebec7d5bd14f71427d1e84f3dd0314c0f7b2291e5b200ac8c7c3b92560405160405180910390a45050565b60006128a38261276b565b6128e2576040517f08c379a00000000000000000000000000000000000000000000000000000000081526004016128d990614f36565b60405180910390fd5b60006128ed836114a7565b90508073ffffffffffffffffffffffffffffffffffffffff168473ffffffffffffffffffffffffffffffffffffffff16148061295c57508373ffffffffffffffffffffffffffffffffffffffff1661294484610b26565b73ffffffffffffffffffffffffffffffffffffffff16145b8061296d575061296c81856125ca565b5b91505092915050565b8273ffffffffffffffffffffffffffffffffffffffff16612996826114a7565b73ffffffffffffffffffffffffffffffffffffffff16146129ec576040517f08c379a00000000000000000000000000000000000000000000000000000000081526004016129e390614e96565b60405180910390fd5b600073ffffffffffffffffffffffffffffffffffffffff168273ffffffffffffffffffffffffffffffffffffffff161415612a5c576040517f08c379a0000000000000000000000000000000000000000000000000000000008152600401612a5390614ef6565b60405180910390fd5b612a67838383613265565b612a726000826127df565b6001600360008573ffffffffffffffffffffffffffffffffffffffff1673ffffffffffffffffffffffffffffffffffffffff1681526020019081526020016000206000828254612ac291906153b2565b925050819055506001600360008473ffffffffffffffffffffffffffffffffffffffff1673ffffffffffffffffffffffffffffffffffffffff1681526020019081526020016000206000828254612b1991906152d1565b92505081905550816002600083815260200190815260200160002060006101000a81548173ffffffffffffffffffffffffffffffffffffffff021916908373ffffffffffffffffffffffffffffffffffffffff160217905550808273ffffffffffffffffffffffffffffffffffffffff168473ffffffffffffffffffffffffffffffffffffffff167fddf252ad1be2c89b69c2b068fc378daa952ba7f163c4a11628f55a4df523b3ef60405160405180910390a4612bd8838383613379565b505050565b60006103e88383612bee91906152d1565b1015612bfd5760009050612c40565b60006103e88484612c0e91906152d1565b612c1891906155e8565b905060008110158015612c2b5750600a81105b15612c3a576001915050612c40565b60009150505b92915050565b60008060005b84811015612ca757612c6a600182612c6491906152d1565b85612bdd565b15612c9457600181612c7c91906152d1565b92508260ff1685612c8d91906153b2565b9150612ca7565b8080612c9f9061554f565b915050612c4c565b509250929050565b6000600182901b9050919050565b600073ffffffffffffffffffffffffffffffffffffffff168273ffffffffffffffffffffffffffffffffffffffff161415612d2d576040517f08c379a0000000000000000000000000000000000000000000000000000000008152600401612d2490614ff6565b60405180910390fd5b612d368161276b565b15612d76576040517f08c379a0000000000000000000000000000000000000000000000000000000008152600401612d6d90614eb6565b60405180910390fd5b612d8260008383613265565b6001600360008473ffffffffffffffffffffffffffffffffffffffff1673ffffffffffffffffffffffffffffffffffffffff1681526020019081526020016000206000828254612dd291906152d1565b92505081905550816002600083815260200190815260200160002060006101000a81548173ffffffffffffffffffffffffffffffffffffffff021916908373ffffffffffffffffffffffffffffffffffffffff160217905550808273ffffffffffffffffffffffffffffffffffffffff16600073ffffffffffffffffffffffffffffffffffffffff167fddf252ad1be2c89b69c2b068fc378daa952ba7f163c4a11628f55a4df523b3ef60405160405180910390a4612e9360008383613379565b5050565b600080612ea561271061337e565b9050612eb48161ffff166114a7565b91505090565b8173ffffffffffffffffffffffffffffffffffffffff168373ffffffffffffffffffffffffffffffffffffffff161415612f29576040517f08c379a0000000000000000000000000000000000000000000000000000000008152600401612f2090614f16565b60405180910390fd5b80600560008573ffffffffffffffffffffffffffffffffffffffff1673ffffffffffffffffffffffffffffffffffffffff16815260200190815260200160002060008473ffffffffffffffffffffffffffffffffffffffff1673ffffffffffffffffffffffffffffffffffffffff16815260200190815260200160002060006101000a81548160ff0219169083151502179055508173ffffffffffffffffffffffffffffffffffffffff168373ffffffffffffffffffffffffffffffffffffffff167f17307eab39ab6107e8899845ad3d59bd9653f200f220920489ca2b5937696c318360405161301a9190614d29565b60405180910390a3505050565b613032848484612976565b61303e848484846133a6565b61307d576040517f08c379a000000000000000000000000000000000000000000000000000000000815260040161307490614e76565b60405180910390fd5b50505050565b606060405180602001604052806000815250905090565b606060008214156130e2576040518060400160405280600181526020017f300000000000000000000000000000000000000000000000000000000000000081525090506131f6565b600082905060005b600082146131145780806130fd9061554f565b915050600a8261310d9190615327565b91506130ea565b60008167ffffffffffffffff8111156131305761312f615704565b5b6040519080825280601f01601f1916602001820160405280156131625781602001600182028036833780820191505090505b5090505b600085146131ef5760018261317b91906153b2565b9150600a8561318a91906155e8565b603061319691906152d1565b60f81b8183815181106131ac576131ab6156d5565b5b60200101907effffffffffffffffffffffffffffffffffffffffffffffffffffffffffffff1916908160001a905350600a856131e89190615327565b9450613166565b8093505050505b919050565b60007f01ffc9a7000000000000000000000000000000000000000000000000000000007bffffffffffffffffffffffffffffffffffffffffffffffffffffffff1916827bffffffffffffffffffffffffffffffffffffffffffffffffffffffff1916149050919050565b613270838383612684565b600073ffffffffffffffffffffffffffffffffffffffff168373ffffffffffffffffffffffffffffffffffffffff1614156132b3576132ae8161353d565b6132f2565b8173ffffffffffffffffffffffffffffffffffffffff168373ffffffffffffffffffffffffffffffffffffffff16146132f1576132f08382613586565b5b5b600073ffffffffffffffffffffffffffffffffffffffff168273ffffffffffffffffffffffffffffffffffffffff16141561333557613330816136f3565b613374565b8273ffffffffffffffffffffffffffffffffffffffff168273ffffffffffffffffffffffffffffffffffffffff16146133735761337282826137c4565b5b5b505050565b505050565b600060018261338b613843565b61339591906155e8565b61339f91906152d1565b9050919050565b60006133c78473ffffffffffffffffffffffffffffffffffffffff1661398c565b15613530578373ffffffffffffffffffffffffffffffffffffffff1663150b7a026133f06127d7565b8786866040518563ffffffff1660e01b81526004016134129493929190614c54565b602060405180830381600087803b15801561342c57600080fd5b505af192505050801561345d57506040513d601f19601f8201168201806040525081019061345a9190614253565b60015b6134e0573d806000811461348d576040519150601f19603f3d011682016040523d82523d6000602084013e613492565b606091505b506000815114156134d8576040517f08c379a00000000000000000000000000000000000000000000000000000000081526004016134cf90614e76565b60405180910390fd5b805181602001fd5b63150b7a0260e01b7bffffffffffffffffffffffffffffffffffffffffffffffffffffffff1916817bffffffffffffffffffffffffffffffffffffffffffffffffffffffff191614915050613535565b600190505b949350505050565b6008805490506009600083815260200190815260200160002081905550600881908060018154018082558091505060019003906000526020600020016000909190919091505550565b6000600161359384611e57565b61359d91906153b2565b9050600060076000848152602001908152602001600020549050818114613682576000600660008673ffffffffffffffffffffffffffffffffffffffff1673ffffffffffffffffffffffffffffffffffffffff168152602001908152602001600020600084815260200190815260200160002054905080600660008773ffffffffffffffffffffffffffffffffffffffff1673ffffffffffffffffffffffffffffffffffffffff168152602001908152602001600020600084815260200190815260200160002081905550816007600083815260200190815260200160002081905550505b6007600084815260200190815260200160002060009055600660008573ffffffffffffffffffffffffffffffffffffffff1673ffffffffffffffffffffffffffffffffffffffff16815260200190815260200160002060008381526020019081526020016000206000905550505050565b6000600160088054905061370791906153b2565b9050600060096000848152602001908152602001600020549050600060088381548110613737576137366156d5565b5b906000526020600020015490508060088381548110613759576137586156d5565b5b9060005260206000200181905550816009600083815260200190815260200160002081905550600960008581526020019081526020016000206000905560088054806137a8576137a76156a6565b5b6001900381819060005260206000200160009055905550505050565b60006137cf83611e57565b905081600660008573ffffffffffffffffffffffffffffffffffffffff1673ffffffffffffffffffffffffffffffffffffffff168152602001908152602001600020600083815260200190815260200160002081905550806007600084815260200190815260200160002081905550505050565b60008061384e6139af565b905080600301548160040160009054906101000a900473ffffffffffffffffffffffffffffffffffffffff1673ffffffffffffffffffffffffffffffffffffffff166370a08231306040518263ffffffff1660e01b81526004016138b29190614c39565b60206040518083038186803b1580156138ca57600080fd5b505afa1580156138de573d6000803e3d6000fd5b505050506040513d601f19601f82011682018060405250810190613902919061431c565b1015613943576040517f08c379a000000000000000000000000000000000000000000000000000000000815260040161393a90615096565b60405180910390fd5b6000613957826002015483600301546139dc565b60001c9050613984816040516020016139709190614bf8565b604051602081830303815290604052613b67565b809250505090565b6000808273ffffffffffffffffffffffffffffffffffffffff163b119050919050565b6000807fcd0c49d5c8438d0944f64e0d3825bed3b606f318474213a77860c93bca5ed99990508091505090565b6000806139e76139af565b90508060040160009054906101000a900473ffffffffffffffffffffffffffffffffffffffff1673ffffffffffffffffffffffffffffffffffffffff16634000aea08260000160009054906101000a900473ffffffffffffffffffffffffffffffffffffffff1685876000604051602001613a63929190614d44565b6040516020818303038152906040526040518463ffffffff1660e01b8152600401613a9093929190614cc9565b602060405180830381600087803b158015613aaa57600080fd5b505af1158015613abe573d6000803e3d6000fd5b505050506040513d601f19601f82011682018060405250810190613ae291906141f9565b506000613b07856000308560060160008a815260200190815260200160002054613c00565b9050600182600601600087815260200190815260200160002054613b2b91906152d1565b826006016000878152602001908152602001600020819055506000613b508683613c3c565b905080836007018190555080935050505092915050565b613bfd81604051602401613b7b9190614db2565b6040516020818303038152906040527f41304fac000000000000000000000000000000000000000000000000000000007bffffffffffffffffffffffffffffffffffffffffffffffffffffffff19166020820180517bffffffffffffffffffffffffffffffffffffffffffffffffffffffff8381831617835250505050613c6f565b50565b600084848484604051602001613c199493929190614d6d565b6040516020818303038152906040528051906020012060001c9050949350505050565b60008282604051602001613c51929190614b46565b60405160208183030381529060405280519060200120905092915050565b60008151905060006a636f6e736f6c652e6c6f679050602083016000808483855afa5050505050565b604051806102000160405280600061ffff168152602001600061ffff168152602001600061ffff168152602001600061ffff168152602001600061ffff168152602001600061ffff168152602001600061ffff168152602001600061ffff168152602001600061ffff168152602001600061ffff168152602001600061ffff168152602001600061ffff168152602001600061ffff168152602001600061ffff168152602001600081526020016000151581525090565b6000613d62613d5d846151d7565b6151b2565b905082815260208101848484011115613d7e57613d7d61573d565b5b613d8984828561547f565b509392505050565b600081359050613da081615df7565b92915050565b600081359050613db581615e0e565b92915050565b600081519050613dca81615e0e565b92915050565b600081359050613ddf81615e25565b92915050565b600081519050613df481615e25565b92915050565b600082601f830112613e0f57613e0e615733565b5b8135613e1f848260208601613d4f565b91505092915050565b60006102008284031215613e3f57613e3e615738565b5b613e4a6102006151b2565b90506000613e5a84828501613fa2565b6000830152506020613e6e84828501613fa2565b6020830152506040613e8284828501613fa2565b6040830152506060613e9684828501613fa2565b6060830152506080613eaa84828501613fa2565b60808301525060a0613ebe84828501613fa2565b60a08301525060c0613ed284828501613fa2565b60c08301525060e0613ee684828501613fa2565b60e083015250610100613efb84828501613fa2565b61010083015250610120613f1184828501613fa2565b61012083015250610140613f2784828501613fa2565b61014083015250610160613f3d84828501613fa2565b61016083015250610180613f5384828501613fa2565b610180830152506101a0613f6984828501613fa2565b6101a0830152506101c0613f7f84828501613fb7565b6101c0830152506101e0613f9584828501613da6565b6101e08301525092915050565b600081359050613fb181615e3c565b92915050565b600081359050613fc681615e53565b92915050565b600081519050613fdb81615e53565b92915050565b600081359050613ff081615e6a565b92915050565b60006020828403121561400c5761400b615747565b5b600061401a84828501613d91565b91505092915050565b6000806040838503121561403a57614039615747565b5b600061404885828601613d91565b925050602061405985828601613d91565b9150509250929050565b60008060006060848603121561407c5761407b615747565b5b600061408a86828701613d91565b935050602061409b86828701613d91565b92505060406140ac86828701613fb7565b9150509250925092565b600080600080608085870312156140d0576140cf615747565b5b60006140de87828801613d91565b94505060206140ef87828801613d91565b935050604061410087828801613fb7565b925050606085013567ffffffffffffffff81111561412157614120615742565b5b61412d87828801613dfa565b91505092959194509250565b600080604083850312156141505761414f615747565b5b600061415e85828601613d91565b925050602061416f85828601613da6565b9150509250929050565b600080604083850312156141905761418f615747565b5b600061419e85828601613d91565b92505060206141af85828601613fb7565b9150509250929050565b600080604083850312156141d0576141cf615747565b5b60006141de85828601613d91565b92505060206141ef85828601613fe1565b9150509250929050565b60006020828403121561420f5761420e615747565b5b600061421d84828501613dbb565b91505092915050565b60006020828403121561423c5761423b615747565b5b600061424a84828501613dd0565b91505092915050565b60006020828403121561426957614268615747565b5b600061427784828501613de5565b91505092915050565b600080610220838503121561429857614297615747565b5b60006142a685828601613e28565b9250506102006142b885828601613fa2565b9150509250929050565b6000602082840312156142d8576142d7615747565b5b60006142e684828501613fa2565b91505092915050565b60006020828403121561430557614304615747565b5b600061431384828501613fb7565b91505092915050565b60006020828403121561433257614331615747565b5b600061434084828501613fcc565b91505092915050565b60006020828403121561435f5761435e615747565b5b600061436d84828501613fe1565b91505092915050565b60006143828383614adc565b60208301905092915050565b614397816153e6565b82525050565b60006143a88261522d565b6143b2818561525b565b93506143bd83615208565b8060005b838110156143ee5781516143d58882614376565b97506143e08361524e565b9250506001810190506143c1565b5085935050505092915050565b614404816153f8565b82525050565b614413816153f8565b82525050565b61442281615404565b82525050565b61443961443482615404565b6155c2565b82525050565b600061444a82615238565b614454818561526c565b935061446481856020860161548e565b61446d8161574c565b840191505092915050565b600061448382615243565b61448d818561527d565b935061449d81856020860161548e565b6144a68161574c565b840191505092915050565b60006144bc82615243565b6144c6818561528e565b93506144d681856020860161548e565b80840191505092915050565b600081546144ef816154c1565b6144f9818661527d565b94506001821660008114614514576001811461452657614559565b60ff1983168652602086019350614559565b61452f85615218565b60005b8381101561455157815481890152600182019150602081019050614532565b808801955050505b50505092915050565b6000815461456f816154c1565b614579818661528e565b9450600182166000811461459457600181146145a5576145d8565b60ff198316865281860193506145d8565b6145ae85615218565b60005b838110156145d0578154818901526001820191506020810190506145b1565b838801955050505b50505092915050565b60006145ee60068361527d565b91506145f98261576a565b602082019050919050565b6000614611601f8361527d565b915061461c82615793565b602082019050919050565b600061463460158361527d565b915061463f826157bc565b602082019050919050565b6000614657602b8361527d565b9150614662826157e5565b604082019050919050565b600061467a60328361527d565b915061468582615834565b604082019050919050565b600061469d60258361527d565b91506146a882615883565b604082019050919050565b60006146c0601c8361527d565b91506146cb826158d2565b602082019050919050565b60006146e360288361527d565b91506146ee826158fb565b604082019050919050565b600061470660248361527d565b91506147118261594a565b604082019050919050565b600061472960198361527d565b915061473482615999565b602082019050919050565b600061474c600c8361528e565b9150614757826159c2565b600c82019050919050565b600061476f602c8361527d565b915061477a826159eb565b604082019050919050565b600061479260208361527d565b915061479d82615a3a565b602082019050919050565b60006147b560198361527d565b91506147c082615a63565b602082019050919050565b60006147d860388361527d565b91506147e382615a8c565b604082019050919050565b60006147fb602a8361527d565b915061480682615adb565b604082019050919050565b600061481e60298361527d565b915061482982615b2a565b604082019050919050565b600061484160208361527d565b915061484c82615b79565b602082019050919050565b6000614864602c8361527d565b915061486f82615ba2565b604082019050919050565b6000614887602f8361527d565b915061489282615bf1565b604082019050919050565b60006148aa60218361527d565b91506148b582615c40565b604082019050919050565b60006148cd60078361527d565b91506148d882615c8f565b602082019050919050565b60006148f060178361527d565b91506148fb82615cb8565b602082019050919050565b600061491360318361527d565b915061491e82615ce1565b604082019050919050565b6000614936602c8361527d565b915061494182615d30565b604082019050919050565b600061495960158361527d565b915061496482615d7f565b602082019050919050565b600061497c60248361527d565b915061498782615da8565b604082019050919050565b610200820160008201516149a96000850182614adc565b5060208201516149bc6020850182614adc565b5060408201516149cf6040850182614adc565b5060608201516149e26060850182614adc565b5060808201516149f56080850182614adc565b5060a0820151614a0860a0850182614adc565b5060c0820151614a1b60c0850182614adc565b5060e0820151614a2e60e0850182614adc565b50610100820151614a43610100850182614adc565b50610120820151614a58610120850182614adc565b50610140820151614a6d610140850182614adc565b50610160820151614a82610160850182614adc565b50610180820151614a97610180850182614adc565b506101a0820151614aac6101a0850182614adc565b506101c0820151614ac16101c0850182614b11565b506101e0820151614ad66101e08501826143fb565b50505050565b614ae58161543a565b82525050565b614af48161543a565b82525050565b614b0b614b068261543a565b6155cc565b82525050565b614b1a81615468565b82525050565b614b2981615468565b82525050565b614b40614b3b82615468565b6155de565b82525050565b6000614b528285614428565b602082019150614b628284614b2f565b6020820191508190509392505050565b6000614b7e82856144b1565b9150614b8a82846144b1565b91508190509392505050565b6000614ba28285614562565b9150614bae8284614562565b91508190509392505050565b6000614bc68287614562565b9150614bd28286614562565b9150614bde82856144b1565b9150614bea8284614562565b915081905095945050505050565b6000614c038261473f565b9150614c0f8284614b2f565b60208201915081905092915050565b6000614c2a8284614afa565b60028201915081905092915050565b6000602082019050614c4e600083018461438e565b92915050565b6000608082019050614c69600083018761438e565b614c76602083018661438e565b614c836040830185614b20565b8181036060830152614c95818461443f565b905095945050505050565b6000604082019050614cb5600083018561438e565b614cc26020830184614aeb565b9392505050565b6000606082019050614cde600083018661438e565b614ceb6020830185614b20565b8181036040830152614cfd818461443f565b9050949350505050565b60006020820190508181036000830152614d21818461439d565b905092915050565b6000602082019050614d3e600083018461440a565b92915050565b6000604082019050614d596000830185614419565b614d666020830184614b20565b9392505050565b6000608082019050614d826000830187614419565b614d8f6020830186614b20565b614d9c604083018561438e565b614da96060830184614b20565b95945050505050565b60006020820190508181036000830152614dcc8184614478565b905092915050565b60006020820190508181036000830152614dee81846144e2565b905092915050565b60006020820190508181036000830152614e0f816145e1565b9050919050565b60006020820190508181036000830152614e2f81614604565b9050919050565b60006020820190508181036000830152614e4f81614627565b9050919050565b60006020820190508181036000830152614e6f8161464a565b9050919050565b60006020820190508181036000830152614e8f8161466d565b9050919050565b60006020820190508181036000830152614eaf81614690565b9050919050565b60006020820190508181036000830152614ecf816146b3565b9050919050565b60006020820190508181036000830152614eef816146d6565b9050919050565b60006020820190508181036000830152614f0f816146f9565b9050919050565b60006020820190508181036000830152614f2f8161471c565b9050919050565b60006020820190508181036000830152614f4f81614762565b9050919050565b60006020820190508181036000830152614f6f81614785565b9050919050565b60006020820190508181036000830152614f8f816147a8565b9050919050565b60006020820190508181036000830152614faf816147cb565b9050919050565b60006020820190508181036000830152614fcf816147ee565b9050919050565b60006020820190508181036000830152614fef81614811565b9050919050565b6000602082019050818103600083015261500f81614834565b9050919050565b6000602082019050818103600083015261502f81614857565b9050919050565b6000602082019050818103600083015261504f8161487a565b9050919050565b6000602082019050818103600083015261506f8161489d565b9050919050565b6000602082019050818103600083015261508f816148c0565b9050919050565b600060208201905081810360008301526150af816148e3565b9050919050565b600060208201905081810360008301526150cf81614906565b9050919050565b600060208201905081810360008301526150ef81614929565b9050919050565b6000602082019050818103600083015261510f8161494c565b9050919050565b6000602082019050818103600083015261512f8161496f565b9050919050565b60006102008201905061514c6000830184614992565b92915050565b60006020820190506151676000830184614aeb565b92915050565b6000610220820190506151836000830185614aeb565b6151906020830184614992565b9392505050565b60006020820190506151ac6000830184614b20565b92915050565b60006151bc6151cd565b90506151c882826154f3565b919050565b6000604051905090565b600067ffffffffffffffff8211156151f2576151f1615704565b5b6151fb8261574c565b9050602081019050919050565b6000819050602082019050919050565b60008190508160005260206000209050919050565b600081519050919050565b600081519050919050565b600081519050919050565b6000602082019050919050565b600082825260208201905092915050565b600082825260208201905092915050565b600082825260208201905092915050565b600081905092915050565b60006152a48261543a565b91506152af8361543a565b92508261ffff038211156152c6576152c5615619565b5b828201905092915050565b60006152dc82615468565b91506152e783615468565b9250827fffffffffffffffffffffffffffffffffffffffffffffffffffffffffffffffff0382111561531c5761531b615619565b5b828201905092915050565b600061533282615468565b915061533d83615468565b92508261534d5761534c615648565b5b828204905092915050565b600061536382615468565b915061536e83615468565b9250817fffffffffffffffffffffffffffffffffffffffffffffffffffffffffffffffff04831182151516156153a7576153a6615619565b5b828202905092915050565b60006153bd82615468565b91506153c883615468565b9250828210156153db576153da615619565b5b828203905092915050565b60006153f182615448565b9050919050565b60008115159050919050565b6000819050919050565b60007fffffffff0000000000000000000000000000000000000000000000000000000082169050919050565b600061ffff82169050919050565b600073ffffffffffffffffffffffffffffffffffffffff82169050919050565b6000819050919050565b600060ff82169050919050565b82818337600083830152505050565b60005b838110156154ac578082015181840152602081019050615491565b838111156154bb576000848401525b50505050565b600060028204905060018216806154d957607f821691505b602082108114156154ed576154ec615677565b5b50919050565b6154fc8261574c565b810181811067ffffffffffffffff8211171561551b5761551a615704565b5b80604052505050565b600061552f8261543a565b915061ffff82141561554457615543615619565b5b600182019050919050565b600061555a82615468565b91507fffffffffffffffffffffffffffffffffffffffffffffffffffffffffffffffff82141561558d5761558c615619565b5b600182019050919050565b60006155a382615472565b915060ff8214156155b7576155b6615619565b5b600182019050919050565b6000819050919050565b60006155d78261575d565b9050919050565b6000819050919050565b60006155f382615468565b91506155fe83615468565b92508261560e5761560d615648565b5b828206905092915050565b7f4e487b7100000000000000000000000000000000000000000000000000000000600052601160045260246000fd5b7f4e487b7100000000000000000000000000000000000000000000000000000000600052601260045260246000fd5b7f4e487b7100000000000000000000000000000000000000000000000000000000600052602260045260246000fd5b7f4e487b7100000000000000000000000000000000000000000000000000000000600052603160045260246000fd5b7f4e487b7100000000000000000000000000000000000000000000000000000000600052603260045260246000fd5b7f4e487b7100000000000000000000000000000000000000000000000000000000600052604160045260246000fd5b600080fd5b600080fd5b600080fd5b600080fd5b600080fd5b6000601f19601f8301169050919050565b60008160f01b9050919050565b7f4f6e6c7920410000000000000000000000000000000000000000000000000000600082015250565b7f596f752061726520747279696e6720746f206d696e7420746f6f206d616e7900600082015250565b7f4e6f7420656e6f7567682066756e64732073656e740000000000000000000000600082015250565b7f455243373231456e756d657261626c653a206f776e657220696e646578206f7560008201527f74206f6620626f756e6473000000000000000000000000000000000000000000602082015250565b7f4552433732313a207472616e7366657220746f206e6f6e20455243373231526560008201527f63656976657220696d706c656d656e7465720000000000000000000000000000602082015250565b7f4552433732313a207472616e736665722066726f6d20696e636f72726563742060008201527f6f776e6572000000000000000000000000000000000000000000000000000000602082015250565b7f4552433732313a20746f6b656e20616c7265616479206d696e74656400000000600082015250565b7f546869732066756e6374696f6e206973206e6f7420617661696c61626c65207260008201527f69676874206e6f77000000000000000000000000000000000000000000000000602082015250565b7f4552433732313a207472616e7366657220746f20746865207a65726f2061646460008201527f7265737300000000000000000000000000000000000000000000000000000000602082015250565b7f4552433732313a20617070726f766520746f2063616c6c657200000000000000600082015250565b7f72616e646f6d206e756d3a200000000000000000000000000000000000000000600082015250565b7f4552433732313a206f70657261746f7220717565727920666f72206e6f6e657860008201527f697374656e7420746f6b656e0000000000000000000000000000000000000000602082015250565b7f436f6e74726163742062616c616e636520697320696e73756666696369656e74600082015250565b7f5468697320746f6b656e20646f6573206e6f7420657869737400000000000000600082015250565b7f4552433732313a20617070726f76652063616c6c6572206973206e6f74206f7760008201527f6e6572206e6f7220617070726f76656420666f7220616c6c0000000000000000602082015250565b7f4552433732313a2062616c616e636520717565727920666f7220746865207a6560008201527f726f206164647265737300000000000000000000000000000000000000000000602082015250565b7f4552433732313a206f776e657220717565727920666f72206e6f6e657869737460008201527f656e7420746f6b656e0000000000000000000000000000000000000000000000602082015250565b7f4552433732313a206d696e7420746f20746865207a65726f2061646472657373600082015250565b7f4552433732313a20617070726f76656420717565727920666f72206e6f6e657860008201527f697374656e7420746f6b656e0000000000000000000000000000000000000000602082015250565b7f4552433732314d657461646174613a2055524920717565727920666f72206e6f60008201527f6e6578697374656e7420746f6b656e0000000000000000000000000000000000602082015250565b7f4552433732313a20617070726f76616c20746f2063757272656e74206f776e6560008201527f7200000000000000000000000000000000000000000000000000000000000000602082015250565b7f6f6e6c7920474300000000000000000000000000000000000000000000000000600082015250565b7f4e6f7420656e6f756768204c494e4b2062616c616e6365000000000000000000600082015250565b7f4552433732313a207472616e736665722063616c6c6572206973206e6f74206f60008201527f776e6572206e6f7220617070726f766564000000000000000000000000000000602082015250565b7f455243373231456e756d657261626c653a20676c6f62616c20696e646578206f60008201527f7574206f6620626f756e64730000000000000000000000000000000000000000602082015250565b7f546f6f2068696768206f6620616e20616d6f756e740000000000000000000000600082015250565b7f596f752063616e206e6f74206d696e74206d6f7265207468616e20746865206c60008201527f696d697400000000000000000000000000000000000000000000000000000000602082015250565b615e00816153e6565b8114615e0b57600080fd5b50565b615e17816153f8565b8114615e2257600080fd5b50565b615e2e8161540e565b8114615e3957600080fd5b50565b615e458161543a565b8114615e5057600080fd5b50565b615e5c81615468565b8114615e6757600080fd5b50565b615e7381615472565b8114615e7e57600080fd5b5056fea2646970667358221220b89e4e331b043c38a52a7fab94158d5959706f9b4fa76e8a9145573dcb8d677364736f6c63430008070033",
  "linkReferences": {},
  "deployedLinkReferences": {}
}