{
  "address": "0xa65dd0666774aaad80bf6f98bdfb5ebc1d5244b5",
  "abi": [
    {
      "inputs": [
        {
          "internalType": "address[]",
          "name": "_rewardedAddresses",
          "type": "address[]"
        },
        {
          "internalType": "address[]",
          "name": "_paymentsTo",
          "type": "address[]"
        },
        {
          "internalType": "address",
          "name": "_vrfCoordinator",
          "type": "address"
        },
        {
          "internalType": "address",
          "name": "_linkToken",
          "type": "address"
        },
        {
          "internalType": "bytes32",
          "name": "_keyHash",
          "type": "bytes32"
        },
        {
          "internalType": "uint256",
          "name": "_OracleFee",
          "type": "uint256"
        }
      ],
      "stateMutability": "nonpayable",
      "type": "constructor"
    },
    {
      "anonymous": false,
      "inputs": [
        {
          "indexed": true,
          "internalType": "address",
          "name": "owner",
          "type": "address"
        },
        {
          "indexed": true,
          "internalType": "address",
          "name": "approved",
          "type": "address"
        },
        {
          "indexed": true,
          "internalType": "uint256",
          "name": "tokenId",
          "type": "uint256"
        }
      ],
      "name": "Approval",
      "type": "event"
    },
    {
      "anonymous": false,
      "inputs": [
        {
          "indexed": true,
          "internalType": "address",
          "name": "owner",
          "type": "address"
        },
        {
          "indexed": true,
          "internalType": "address",
          "name": "operator",
          "type": "address"
        },
        {
          "indexed": false,
          "internalType": "bool",
          "name": "approved",
          "type": "bool"
        }
      ],
      "name": "ApprovalForAll",
      "type": "event"
    },
    {
      "anonymous": false,
      "inputs": [
        {
          "indexed": false,
          "internalType": "address",
          "name": "winner",
          "type": "address"
        }
      ],
      "name": "PorscheWinner",
      "type": "event"
    },
    {
      "anonymous": false,
      "inputs": [
        {
          "indexed": true,
          "internalType": "address",
          "name": "from",
          "type": "address"
        },
        {
          "indexed": true,
          "internalType": "address",
          "name": "to",
          "type": "address"
        },
        {
          "indexed": true,
          "internalType": "uint256",
          "name": "tokenId",
          "type": "uint256"
        }
      ],
      "name": "Transfer",
      "type": "event"
    },
    {
      "inputs": [
        {
          "internalType": "address",
          "name": "to",
          "type": "address"
        },
        {
          "internalType": "uint256",
          "name": "tokenId",
          "type": "uint256"
        }
      ],
      "name": "approve",
      "outputs": [],
      "stateMutability": "nonpayable",
      "type": "function"
    },
    {
      "inputs": [
        {
          "internalType": "address",
          "name": "owner",
          "type": "address"
        }
      ],
      "name": "balanceOf",
      "outputs": [
        {
          "internalType": "uint256",
          "name": "",
          "type": "uint256"
        }
      ],
      "stateMutability": "view",
      "type": "function"
    },
    {
      "inputs": [
        {
          "internalType": "uint256",
          "name": "tokenId",
          "type": "uint256"
        }
      ],
      "name": "burn",
      "outputs": [],
      "stateMutability": "nonpayable",
      "type": "function"
    },
    {
      "inputs": [],
      "name": "flipSaleState",
      "outputs": [],
      "stateMutability": "nonpayable",
      "type": "function"
    },
    {
      "inputs": [
        {
          "internalType": "uint256",
          "name": "tokenId",
          "type": "uint256"
        }
      ],
      "name": "getApproved",
      "outputs": [
        {
          "internalType": "address",
          "name": "",
          "type": "address"
        }
      ],
      "stateMutability": "view",
      "type": "function"
    },
    {
      "inputs": [
        {
          "internalType": "uint16",
          "name": "_raptor",
          "type": "uint16"
        }
      ],
      "name": "getCoolDown",
      "outputs": [
        {
          "internalType": "uint32",
          "name": "",
          "type": "uint32"
        }
      ],
      "stateMutability": "view",
      "type": "function"
    },
    {
      "inputs": [
        {
          "internalType": "uint8",
          "name": "_amount",
          "type": "uint8"
        }
      ],
      "name": "getPrice",
      "outputs": [
        {
          "internalType": "uint256",
          "name": "",
          "type": "uint256"
        }
      ],
      "stateMutability": "view",
      "type": "function"
    },
    {
      "inputs": [
        {
          "internalType": "uint16",
          "name": "_raptor",
          "type": "uint16"
        }
      ],
      "name": "getSpeed",
      "outputs": [
        {
          "internalType": "uint16",
          "name": "",
          "type": "uint16"
        }
      ],
      "stateMutability": "view",
      "type": "function"
    },
    {
      "inputs": [
        {
          "internalType": "uint16",
          "name": "_raptor",
          "type": "uint16"
        }
      ],
      "name": "getStrength",
      "outputs": [
        {
          "internalType": "uint16",
          "name": "",
          "type": "uint16"
        }
      ],
      "stateMutability": "view",
      "type": "function"
    },
    {
      "inputs": [
        {
          "internalType": "uint16",
          "name": "_raptor",
          "type": "uint16"
        },
        {
          "internalType": "uint32",
          "name": "newTime",
          "type": "uint32"
        }
      ],
      "name": "increaseCooldownTime",
      "outputs": [
        {
          "internalType": "bool",
          "name": "",
          "type": "bool"
        }
      ],
      "stateMutability": "nonpayable",
      "type": "function"
    },
    {
      "inputs": [
        {
          "internalType": "address",
          "name": "owner",
          "type": "address"
        },
        {
          "internalType": "address",
          "name": "operator",
          "type": "address"
        }
      ],
      "name": "isApprovedForAll",
      "outputs": [
        {
          "internalType": "bool",
          "name": "",
          "type": "bool"
        }
      ],
      "stateMutability": "view",
      "type": "function"
    },
    {
      "inputs": [
        {
          "internalType": "uint16",
          "name": "raptor",
          "type": "uint16"
        }
      ],
      "name": "isFoundingRaptor",
      "outputs": [
        {
          "internalType": "bool",
          "name": "",
          "type": "bool"
        }
      ],
      "stateMutability": "view",
      "type": "function"
    },
    {
      "inputs": [
        {
          "internalType": "uint8",
          "name": "_amount",
          "type": "uint8"
        }
      ],
      "name": "mint",
      "outputs": [],
      "stateMutability": "payable",
      "type": "function"
    },
    {
      "inputs": [],
      "name": "name",
      "outputs": [
        {
          "internalType": "string",
          "name": "",
          "type": "string"
        }
      ],
      "stateMutability": "view",
      "type": "function"
    },
    {
      "inputs": [
        {
          "internalType": "uint256",
          "name": "tokenId",
          "type": "uint256"
        }
      ],
      "name": "ownerOf",
      "outputs": [
        {
          "internalType": "address",
          "name": "",
          "type": "address"
        }
      ],
      "stateMutability": "view",
      "type": "function"
    },
    {
      "inputs": [
        {
          "internalType": "uint16",
          "name": "",
          "type": "uint16"
        }
      ],
      "name": "raptorStats",
      "outputs": [
        {
          "internalType": "uint16",
          "name": "speed",
          "type": "uint16"
        },
        {
          "internalType": "uint16",
          "name": "strength",
          "type": "uint16"
        },
        {
          "internalType": "uint16",
          "name": "fightsWon",
          "type": "uint16"
        },
        {
          "internalType": "uint16",
          "name": "quickPlayRacesWon",
          "type": "uint16"
        },
        {
          "internalType": "uint16",
          "name": "compRacesWon",
          "type": "uint16"
        },
        {
          "internalType": "uint16",
          "name": "deathRacesWon",
          "type": "uint16"
        },
        {
          "internalType": "uint16",
          "name": "totalRacesTop3Finish",
          "type": "uint16"
        },
        {
          "internalType": "uint32",
          "name": "cooldownTime",
          "type": "uint32"
        }
      ],
      "stateMutability": "view",
      "type": "function"
    },
    {
      "inputs": [
        {
          "internalType": "bytes32",
          "name": "requestId",
          "type": "bytes32"
        },
        {
          "internalType": "uint256",
          "name": "randomness",
          "type": "uint256"
        }
      ],
      "name": "rawFulfillRandomness",
      "outputs": [],
      "stateMutability": "nonpayable",
      "type": "function"
    },
    {
      "inputs": [
        {
          "internalType": "uint16",
          "name": "_raptor",
          "type": "uint16"
        }
      ],
      "name": "resetCooldown",
      "outputs": [
        {
          "internalType": "bool",
          "name": "",
          "type": "bool"
        }
      ],
      "stateMutability": "nonpayable",
      "type": "function"
    },
    {
      "inputs": [],
      "name": "reveal",
      "outputs": [],
      "stateMutability": "nonpayable",
      "type": "function"
    },
    {
      "inputs": [
        {
          "internalType": "address",
          "name": "from",
          "type": "address"
        },
        {
          "internalType": "address",
          "name": "to",
          "type": "address"
        },
        {
          "internalType": "uint256",
          "name": "tokenId",
          "type": "uint256"
        }
      ],
      "name": "safeTransferFrom",
      "outputs": [],
      "stateMutability": "nonpayable",
      "type": "function"
    },
    {
      "inputs": [
        {
          "internalType": "address",
          "name": "from",
          "type": "address"
        },
        {
          "internalType": "address",
          "name": "to",
          "type": "address"
        },
        {
          "internalType": "uint256",
          "name": "tokenId",
          "type": "uint256"
        },
        {
          "internalType": "bytes",
          "name": "_data",
          "type": "bytes"
        }
      ],
      "name": "safeTransferFrom",
      "outputs": [],
      "stateMutability": "nonpayable",
      "type": "function"
    },
    {
      "inputs": [
        {
          "internalType": "address",
          "name": "_admin",
          "type": "address"
        }
      ],
      "name": "setAdmin",
      "outputs": [],
      "stateMutability": "nonpayable",
      "type": "function"
    },
    {
      "inputs": [
        {
          "internalType": "address",
          "name": "operator",
          "type": "address"
        },
        {
          "internalType": "bool",
          "name": "approved",
          "type": "bool"
        }
      ],
      "name": "setApprovalForAll",
      "outputs": [],
      "stateMutability": "nonpayable",
      "type": "function"
    },
    {
      "inputs": [
        {
          "internalType": "uint256",
          "name": "fundsToSplit",
          "type": "uint256"
        }
      ],
      "name": "splitFunds",
      "outputs": [],
      "stateMutability": "payable",
      "type": "function"
    },
    {
      "inputs": [
        {
          "internalType": "bytes4",
          "name": "interfaceId",
          "type": "bytes4"
        }
      ],
      "name": "supportsInterface",
      "outputs": [
        {
          "internalType": "bool",
          "name": "",
          "type": "bool"
        }
      ],
      "stateMutability": "view",
      "type": "function"
    },
    {
      "inputs": [],
      "name": "symbol",
      "outputs": [
        {
          "internalType": "string",
          "name": "",
          "type": "string"
        }
      ],
      "stateMutability": "view",
      "type": "function"
    },
    {
      "inputs": [
        {
          "internalType": "uint256",
          "name": "index",
          "type": "uint256"
        }
      ],
      "name": "tokenByIndex",
      "outputs": [
        {
          "internalType": "uint256",
          "name": "",
          "type": "uint256"
        }
      ],
      "stateMutability": "view",
      "type": "function"
    },
    {
      "inputs": [
        {
          "internalType": "address",
          "name": "owner",
          "type": "address"
        },
        {
          "internalType": "uint256",
          "name": "index",
          "type": "uint256"
        }
      ],
      "name": "tokenOfOwnerByIndex",
      "outputs": [
        {
          "internalType": "uint256",
          "name": "",
          "type": "uint256"
        }
      ],
      "stateMutability": "view",
      "type": "function"
    },
    {
      "inputs": [
        {
          "internalType": "uint256",
          "name": "tokenId",
          "type": "uint256"
        }
      ],
      "name": "tokenURI",
      "outputs": [
        {
          "internalType": "string",
          "name": "",
          "type": "string"
        }
      ],
      "stateMutability": "view",
      "type": "function"
    },
    {
      "inputs": [
        {
          "internalType": "uint16",
          "name": "_tokenId",
          "type": "uint16"
        }
      ],
      "name": "tokenURI",
      "outputs": [
        {
          "internalType": "string",
          "name": "uri",
          "type": "string"
        }
      ],
      "stateMutability": "view",
      "type": "function"
    },
    {
      "inputs": [],
      "name": "totalSupply",
      "outputs": [
        {
          "internalType": "uint256",
          "name": "",
          "type": "uint256"
        }
      ],
      "stateMutability": "view",
      "type": "function"
    },
    {
      "inputs": [
        {
          "internalType": "address",
          "name": "from",
          "type": "address"
        },
        {
          "internalType": "address",
          "name": "to",
          "type": "address"
        },
        {
          "internalType": "uint256",
          "name": "tokenId",
          "type": "uint256"
        }
      ],
      "name": "transferFrom",
      "outputs": [],
      "stateMutability": "nonpayable",
      "type": "function"
    },
    {
      "inputs": [
        {
          "internalType": "address",
          "name": "_coolDown",
          "type": "address"
        }
      ],
      "name": "updateCooldownAddress",
      "outputs": [],
      "stateMutability": "nonpayable",
      "type": "function"
    },
    {
      "inputs": [
        {
          "internalType": "address",
          "name": "_gameAddress",
          "type": "address"
        }
      ],
      "name": "updateGameAddress",
      "outputs": [],
      "stateMutability": "nonpayable",
      "type": "function"
    },
    {
      "inputs": [
        {
          "internalType": "address",
          "name": "_paymentTo",
          "type": "address"
        },
        {
          "internalType": "uint8",
          "name": "index",
          "type": "uint8"
        }
      ],
      "name": "updatePaymentTo",
      "outputs": [],
      "stateMutability": "nonpayable",
      "type": "function"
    },
    {
      "inputs": [
        {
          "internalType": "uint16",
          "name": "_raptor",
          "type": "uint16"
        }
      ],
      "name": "upgradeCompWins",
      "outputs": [
        {
          "internalType": "bool",
          "name": "",
          "type": "bool"
        }
      ],
      "stateMutability": "nonpayable",
      "type": "function"
    },
    {
      "inputs": [
        {
          "internalType": "uint16",
          "name": "_raptor",
          "type": "uint16"
        }
      ],
      "name": "upgradeDRWins",
      "outputs": [
        {
          "internalType": "bool",
          "name": "",
          "type": "bool"
        }
      ],
      "stateMutability": "nonpayable",
      "type": "function"
    },
    {
      "inputs": [
        {
          "internalType": "uint16",
          "name": "_raptor",
          "type": "uint16"
        }
      ],
      "name": "upgradeFightsWon",
      "outputs": [
        {
          "internalType": "bool",
          "name": "",
          "type": "bool"
        }
      ],
      "stateMutability": "nonpayable",
      "type": "function"
    },
    {
      "inputs": [
        {
          "internalType": "uint16",
          "name": "_raptor",
          "type": "uint16"
        }
      ],
      "name": "upgradeQPWins",
      "outputs": [
        {
          "internalType": "bool",
          "name": "",
          "type": "bool"
        }
      ],
      "stateMutability": "nonpayable",
      "type": "function"
    },
    {
      "inputs": [
        {
          "internalType": "uint16",
          "name": "_raptor",
          "type": "uint16"
        },
        {
          "internalType": "uint8",
          "name": "_amount",
          "type": "uint8"
        }
      ],
      "name": "upgradeSpeed",
      "outputs": [
        {
          "internalType": "bool",
          "name": "",
          "type": "bool"
        }
      ],
      "stateMutability": "nonpayable",
      "type": "function"
    },
    {
      "inputs": [
        {
          "internalType": "uint16",
          "name": "_raptor",
          "type": "uint16"
        },
        {
          "internalType": "uint8",
          "name": "_amount",
          "type": "uint8"
        }
      ],
      "name": "upgradeStrength",
      "outputs": [
        {
          "internalType": "bool",
          "name": "",
          "type": "bool"
        }
      ],
      "stateMutability": "nonpayable",
      "type": "function"
    },
    {
      "inputs": [
        {
          "internalType": "uint16",
          "name": "_raptor",
          "type": "uint16"
        }
      ],
      "name": "upgradeTop3Finishes",
      "outputs": [
        {
          "internalType": "bool",
          "name": "",
          "type": "bool"
        }
      ],
      "stateMutability": "nonpayable",
      "type": "function"
    },
    {
      "inputs": [
        {
          "internalType": "address",
          "name": "_wallet",
          "type": "address"
        }
      ],
      "name": "walletOfOwner",
      "outputs": [
        {
          "internalType": "uint16[]",
          "name": "ids",
          "type": "uint16[]"
        }
      ],
      "stateMutability": "view",
      "type": "function"
    },
    {
      "stateMutability": "payable",
      "type": "receive"
    }
  ],
  "transactionHash": "0xa79772438bcecebbb76826c08ed4fc21e880f7c92a4cf3ca3e875343f240b28b",
  "args": [
    [
      "0x589af839fa81de74f5B769297B9Ef0F7F9e171b7",
      "0x49C9d3cF14130Fe776a4c7e27ACa8EC1a4E69bD9",
      "0xc5DDFA987557e3C36AD6aB9685595420666790E0",
      "0x40e96e22896863fBC98F034E0fb70A63cb7818d0",
      "0xDceDF6b96401cb5fb7E9eb98A5Df60403fBA55D5",
      "0xB1AFf1f2BcD23cF19De10f8d730A7bA7a3829317",
      "0x5219B98C50Db6F1698Ce088009d569AfA22796e9",
      "0x0Fa11d1737e70C6E4c1652F5f82e55b403a6aD2F"
    ],
    [
      "0x40e96e22896863fBC98F034E0fb70A63cb7818d0",
      "0xDceDF6b96401cb5fb7E9eb98A5Df60403fBA55D5",
      "0xB1AFf1f2BcD23cF19De10f8d730A7bA7a3829317"
    ],
    "0xb3dCcb4Cf7a26f6cf6B120Cf5A73875B7BBc655B",
    "0x01BE23585060835E02B77ef475b0Cc51aA1e0709",
    "0x2ed0feb3e7fd2022120aa84fab1945545a9f2ffc9076fd6156fa96eaff4c1311",
    {
      "type": "BigNumber",
      "hex": "0x016345785d8a0000"
    }
  ],
  "numDeployments": 2,
  "solcInputHash": "281ec4c82bdd560938c42cc48a0629b5",
  "bytecode": "0x60c06040526040518060400160405280601d81526020017f68747470733a2f2f676174657761792e70696e6174612e636c6f75642f000000815250600c9080519060200190620000519291906200108f565b506040518060400160405280600981526020017f536f6d65204349442f0000000000000000000000000000000000000000000000815250600d90805190602001906200009f9291906200108f565b506040518060400160405280600581526020017f2e4a534f4e000000000000000000000000000000000000000000000000000000815250600e9080519060200190620000ed9291906200108f565b506040518060400160405280601081526020017f4e6f7452657665616c6564204861736800000000000000000000000000000000815250600f90805190602001906200013b9291906200108f565b50671bc16d674ec800006014556000601560006101000a81548161ffff021916908361ffff160217905550612710601560026101000a81548161ffff021916908361ffff160217905550604051806101000160405280600160ff168152602001600160ff168152602001600160ff168152602001600160ff168152602001600160ff168152602001600160ff168152602001600160ff168152602001600160ff168152506018906008620001f192919062001120565b50348015620001ff57600080fd5b50604051620073413803806200734183398181016040528101906200022591906200136f565b83836040518060400160405280601181526020017f526163696e6720526170746f72732056320000000000000000000000000000008152506040518060400160405280600281526020017f52520000000000000000000000000000000000000000000000000000000000008152508160009080519060200190620002ab9291906200108f565b508060019080519060200190620002c49291906200108f565b5050508173ffffffffffffffffffffffffffffffffffffffff1660a08173ffffffffffffffffffffffffffffffffffffffff1660601b815250508073ffffffffffffffffffffffffffffffffffffffff1660808173ffffffffffffffffffffffffffffffffffffffff1660601b815250505050816011819055508060128190555085601790805190602001906200035d929190620011ce565b506001600b60146101000a81548160ff02191690831515021790555062000389620003fe60201b60201c565b600b60006101000a81548173ffffffffffffffffffffffffffffffffffffffff021916908373ffffffffffffffffffffffffffffffffffffffff1602179055508460199080519060200190620003e1929190620011ce565b50620003f26200040660201b60201c565b505050505050620019f9565b600033905090565b60005b6017805490508160ff161015620007715760005b60188260ff168154811062000437576200043662001838565b5b90600052602060002090602091828204019190069054906101000a900460ff1660ff168160ff1610156200075a576001601560008282829054906101000a900461ffff16620004879190620015d6565b92506101000a81548161ffff021916908361ffff1602179055506200050b60178360ff1681548110620004bf57620004be62001838565b5b9060005260206000200160009054906101000a900473ffffffffffffffffffffffffffffffffffffffff16601560009054906101000a900461ffff1661ffff166200077460201b60201c565b62000553601560059054906101000a900473ffffffffffffffffffffffffffffffffffffffff16601560009054906101000a900461ffff1661ffff166200096e60201b60201c565b604051806101000160405280600161ffff168152602001600161ffff168152602001600061ffff168152602001600061ffff168152602001600061ffff168152602001600061ffff168152602001600061ffff1681526020014263ffffffff1681525060136000601560009054906101000a900461ffff1661ffff1661ffff16815260200190815260200160002060008201518160000160006101000a81548161ffff021916908361ffff16021790555060208201518160000160026101000a81548161ffff021916908361ffff16021790555060408201518160000160046101000a81548161ffff021916908361ffff16021790555060608201518160000160066101000a81548161ffff021916908361ffff16021790555060808201518160000160086101000a81548161ffff021916908361ffff16021790555060a082015181600001600a6101000a81548161ffff021916908361ffff16021790555060c082015181600001600c6101000a81548161ffff021916908361ffff16021790555060e082015181600001600e6101000a81548163ffffffff021916908363ffffffff1602179055509050506001601a6000601560009054906101000a900461ffff1661ffff1661ffff16815260200190815260200160002060006101000a81548160ff021916908315150217905550808062000751906200177c565b9150506200041d565b50808062000768906200177c565b91505062000409565b50565b600073ffffffffffffffffffffffffffffffffffffffff168273ffffffffffffffffffffffffffffffffffffffff161415620007e7576040517f08c379a0000000000000000000000000000000000000000000000000000000008152600401620007de906200154b565b60405180910390fd5b620007f88162000a3460201b60201c565b156200083b576040517f08c379a00000000000000000000000000000000000000000000000000000000081526004016200083290620014e5565b60405180910390fd5b6200084f6000838362000aa060201b60201c565b6001600360008473ffffffffffffffffffffffffffffffffffffffff1673ffffffffffffffffffffffffffffffffffffffff1681526020019081526020016000206000828254620008a1919062001615565b92505081905550816002600083815260200190815260200160002060006101000a81548173ffffffffffffffffffffffffffffffffffffffff021916908373ffffffffffffffffffffffffffffffffffffffff160217905550808273ffffffffffffffffffffffffffffffffffffffff16600073ffffffffffffffffffffffffffffffffffffffff167fddf252ad1be2c89b69c2b068fc378daa952ba7f163c4a11628f55a4df523b3ef60405160405180910390a46200096a6000838362000be760201b60201c565b5050565b816004600083815260200190815260200160002060006101000a81548173ffffffffffffffffffffffffffffffffffffffff021916908373ffffffffffffffffffffffffffffffffffffffff160217905550808273ffffffffffffffffffffffffffffffffffffffff16620009ee8362000bec60201b6200157c1760201c565b73ffffffffffffffffffffffffffffffffffffffff167f8c5be1e5ebec7d5bd14f71427d1e84f3dd0314c0f7b2291e5b200ac8c7c3b92560405160405180910390a45050565b60008073ffffffffffffffffffffffffffffffffffffffff166002600084815260200190815260200160002060009054906101000a900473ffffffffffffffffffffffffffffffffffffffff1673ffffffffffffffffffffffffffffffffffffffff1614159050919050565b62000ab883838362000ca160201b6200274d1760201c565b600073ffffffffffffffffffffffffffffffffffffffff168373ffffffffffffffffffffffffffffffffffffffff16141562000b055762000aff8162000ca660201b60201c565b62000b4d565b8173ffffffffffffffffffffffffffffffffffffffff168373ffffffffffffffffffffffffffffffffffffffff161462000b4c5762000b4b838262000cef60201b60201c565b5b5b600073ffffffffffffffffffffffffffffffffffffffff168273ffffffffffffffffffffffffffffffffffffffff16141562000b9a5762000b948162000e6c60201b60201c565b62000be2565b8273ffffffffffffffffffffffffffffffffffffffff168273ffffffffffffffffffffffffffffffffffffffff161462000be15762000be0828262000f4860201b60201c565b5b5b505050565b505050565b6000806002600084815260200190815260200160002060009054906101000a900473ffffffffffffffffffffffffffffffffffffffff169050600073ffffffffffffffffffffffffffffffffffffffff168173ffffffffffffffffffffffffffffffffffffffff16141562000c98576040517f08c379a000000000000000000000000000000000000000000000000000000000815260040162000c8f9062001529565b60405180910390fd5b80915050919050565b505050565b6008805490506009600083815260200190815260200160002081905550600881908060018154018082558091505060019003906000526020600020016000909190919091505550565b6000600162000d098462000fd460201b62001b641760201c565b62000d15919062001672565b905060006007600084815260200190815260200160002054905081811462000dfb576000600660008673ffffffffffffffffffffffffffffffffffffffff1673ffffffffffffffffffffffffffffffffffffffff168152602001908152602001600020600084815260200190815260200160002054905080600660008773ffffffffffffffffffffffffffffffffffffffff1673ffffffffffffffffffffffffffffffffffffffff168152602001908152602001600020600084815260200190815260200160002081905550816007600083815260200190815260200160002081905550505b6007600084815260200190815260200160002060009055600660008573ffffffffffffffffffffffffffffffffffffffff1673ffffffffffffffffffffffffffffffffffffffff16815260200190815260200160002060008381526020019081526020016000206000905550505050565b6000600160088054905062000e82919062001672565b905060006009600084815260200190815260200160002054905060006008838154811062000eb55762000eb462001838565b5b90600052602060002001549050806008838154811062000eda5762000ed962001838565b5b90600052602060002001819055508160096000838152602001908152602001600020819055506009600085815260200190815260200160002060009055600880548062000f2c5762000f2b62001809565b5b6001900381819060005260206000200160009055905550505050565b600062000f608362000fd460201b62001b641760201c565b905081600660008573ffffffffffffffffffffffffffffffffffffffff1673ffffffffffffffffffffffffffffffffffffffff168152602001908152602001600020600083815260200190815260200160002081905550806007600084815260200190815260200160002081905550505050565b60008073ffffffffffffffffffffffffffffffffffffffff168273ffffffffffffffffffffffffffffffffffffffff16141562001048576040517f08c379a00000000000000000000000000000000000000000000000000000000081526004016200103f9062001507565b60405180910390fd5b600360008373ffffffffffffffffffffffffffffffffffffffff1673ffffffffffffffffffffffffffffffffffffffff168152602001908152602001600020549050919050565b8280546200109d9062001710565b90600052602060002090601f016020900481019282620010c157600085556200110d565b82601f10620010dc57805160ff19168380011785556200110d565b828001600101855582156200110d579182015b828111156200110c578251825591602001919060010190620010ef565b5b5090506200111c91906200125d565b5090565b82805482825590600052602060002090601f01602090048101928215620011bb5791602002820160005b838211156200118a57835183826101000a81548160ff021916908360ff16021790555092602001926001016020816000010492830192600103026200114a565b8015620011b95782816101000a81549060ff02191690556001016020816000010492830192600103026200118a565b505b509050620011ca91906200125d565b5090565b8280548282559060005260206000209081019282156200124a579160200282015b82811115620012495782518260006101000a81548173ffffffffffffffffffffffffffffffffffffffff021916908373ffffffffffffffffffffffffffffffffffffffff16021790555091602001919060010190620011ef565b5b5090506200125991906200125d565b5090565b5b80821115620012785760008160009055506001016200125e565b5090565b6000620012936200128d8462001596565b6200156d565b90508083825260208201905082856020860282011115620012b957620012b86200189b565b5b60005b85811015620012ed5781620012d28882620012f7565b845260208401935060208301925050600181019050620012bc565b5050509392505050565b6000815190506200130881620019ab565b92915050565b600082601f83011262001326576200132562001896565b5b8151620013388482602086016200127c565b91505092915050565b6000815190506200135281620019c5565b92915050565b6000815190506200136981620019df565b92915050565b60008060008060008060c087890312156200138f576200138e620018a5565b5b600087015167ffffffffffffffff811115620013b057620013af620018a0565b5b620013be89828a016200130e565b965050602087015167ffffffffffffffff811115620013e257620013e1620018a0565b5b620013f089828a016200130e565b95505060406200140389828a01620012f7565b94505060606200141689828a01620012f7565b93505060806200142989828a0162001341565b92505060a06200143c89828a0162001358565b9150509295509295509295565b600062001458601c83620015c5565b91506200146582620018bb565b602082019050919050565b60006200147f602a83620015c5565b91506200148c82620018e4565b604082019050919050565b6000620014a6602983620015c5565b9150620014b38262001933565b604082019050919050565b6000620014cd602083620015c5565b9150620014da8262001982565b602082019050919050565b60006020820190508181036000830152620015008162001449565b9050919050565b60006020820190508181036000830152620015228162001470565b9050919050565b60006020820190508181036000830152620015448162001497565b9050919050565b600060208201905081810360008301526200156681620014be565b9050919050565b6000620015796200158c565b905062001587828262001746565b919050565b6000604051905090565b600067ffffffffffffffff821115620015b457620015b362001867565b5b602082029050602081019050919050565b600082825260208201905092915050565b6000620015e382620016cb565b9150620015f083620016cb565b92508261ffff038211156200160a5762001609620017ab565b5b828201905092915050565b60006200162282620016f9565b91506200162f83620016f9565b9250827fffffffffffffffffffffffffffffffffffffffffffffffffffffffffffffffff03821115620016675762001666620017ab565b5b828201905092915050565b60006200167f82620016f9565b91506200168c83620016f9565b925082821015620016a257620016a1620017ab565b5b828203905092915050565b6000620016ba82620016d9565b9050919050565b6000819050919050565b600061ffff82169050919050565b600073ffffffffffffffffffffffffffffffffffffffff82169050919050565b6000819050919050565b600060ff82169050919050565b600060028204905060018216806200172957607f821691505b6020821081141562001740576200173f620017da565b5b50919050565b6200175182620018aa565b810181811067ffffffffffffffff8211171562001773576200177262001867565b5b80604052505050565b6000620017898262001703565b915060ff821415620017a0576200179f620017ab565b5b600182019050919050565b7f4e487b7100000000000000000000000000000000000000000000000000000000600052601160045260246000fd5b7f4e487b7100000000000000000000000000000000000000000000000000000000600052602260045260246000fd5b7f4e487b7100000000000000000000000000000000000000000000000000000000600052603160045260246000fd5b7f4e487b7100000000000000000000000000000000000000000000000000000000600052603260045260246000fd5b7f4e487b7100000000000000000000000000000000000000000000000000000000600052604160045260246000fd5b600080fd5b600080fd5b600080fd5b600080fd5b6000601f19601f8301169050919050565b7f4552433732313a20746f6b656e20616c7265616479206d696e74656400000000600082015250565b7f4552433732313a2062616c616e636520717565727920666f7220746865207a6560008201527f726f206164647265737300000000000000000000000000000000000000000000602082015250565b7f4552433732313a206f776e657220717565727920666f72206e6f6e657869737460008201527f656e7420746f6b656e0000000000000000000000000000000000000000000000602082015250565b7f4552433732313a206d696e7420746f20746865207a65726f2061646472657373600082015250565b620019b681620016ad565b8114620019c257600080fd5b50565b620019d081620016c1565b8114620019dc57600080fd5b50565b620019ea81620016f9565b8114620019f657600080fd5b50565b60805160601c60a05160601c61590e62001a3360003960008181611e7501526137a30152600081816131230152613767015261590e6000f3fe6080604052600436106102605760003560e01c80636ecd230611610144578063a22cb465116100b6578063bb5553441161007a578063bb555344146109c1578063c87b56dd146109fe578063db258f9c14610a3b578063dd7d844014610a64578063e508c68714610aa1578063e985e9c514610ade57610270565b8063a22cb465146108de578063a475b5dd14610907578063a57ce6611461091e578063b4dd385e1461095b578063b88d4fde1461099857610270565b80638bffef62116101085780638bffef621461078f5780638cc3b366146107cc57806394985ddd1461081057806395d76d9d1461083957806395d89b41146108765780639d7182ee146108a157610270565b80636ecd2306146106a7578063704b6c02146106c357806370a08231146106ec57806377d3ecd8146107295780637e442efa1461075257610270565b80632f745c59116101dd57806342966c68116101a157806342966c6814610561578063438b63001461058a5780634f6ccce7146105c75780636201917f146106045780636352211e1461064157806367c1fcfe1461067e57610270565b80632f745c591461046a57806334918dfd146104a757806337f1e7f2146104be57806342639a27146104fb57806342842e0e1461053857610270565b80630c7c9707116102245780630c7c97071461038057806310e1e2d2146103bd57806318160ddd146103fa57806323b872dd146104255780632f1335cf1461044e57610270565b806301ffc9a71461027557806306fdde03146102b2578063081812fc146102dd578063095ea7b31461031a5780630a4735361461034357610270565b366102705761026e34610b1b565b005b600080fd5b34801561028157600080fd5b5061029c600480360381019061029791906141bb565b610cdd565b6040516102a99190614999565b60405180910390f35b3480156102be57600080fd5b506102c7610d57565b6040516102d49190614a22565b60405180910390f35b3480156102e957600080fd5b5061030460048036038101906102ff91906142c2565b610de9565b60405161031191906148d2565b60405180910390f35b34801561032657600080fd5b50610341600480360381019061033c91906140ce565b610e6e565b005b34801561034f57600080fd5b5061036a60048036038101906103659190614215565b610f86565b6040516103779190614999565b60405180910390f35b34801561038c57600080fd5b506103a760048036038101906103a29190614215565b611048565b6040516103b49190614999565b60405180910390f35b3480156103c957600080fd5b506103e460048036038101906103df9190614215565b61110a565b6040516103f19190614c84565b60405180910390f35b34801561040657600080fd5b5061040f611140565b60405161041c9190614d1d565b60405180910390f35b34801561043157600080fd5b5061044c60048036038101906104479190613fb8565b61114d565b005b610468600480360381019061046391906142c2565b610b1b565b005b34801561047657600080fd5b50610491600480360381019061048c91906140ce565b6111ad565b60405161049e9190614d1d565b60405180910390f35b3480156104b357600080fd5b506104bc611252565b005b3480156104ca57600080fd5b506104e560048036038101906104e0919061431c565b6112df565b6040516104f29190614d1d565b60405180910390f35b34801561050757600080fd5b50610522600480360381019061051d9190614215565b611305565b60405161052f9190614999565b60405180910390f35b34801561054457600080fd5b5061055f600480360381019061055a9190613fb8565b6113c7565b005b34801561056d57600080fd5b50610588600480360381019061058391906142c2565b6113e7565b005b34801561059657600080fd5b506105b160048036038101906105ac9190613f4b565b61140d565b6040516105be9190614977565b60405180910390f35b3480156105d357600080fd5b506105ee60048036038101906105e991906142c2565b6114d3565b6040516105fb9190614d1d565b60405180910390f35b34801561061057600080fd5b5061062b60048036038101906106269190614215565b611544565b6040516106389190614d38565b60405180910390f35b34801561064d57600080fd5b50610668600480360381019061066391906142c2565b61157c565b60405161067591906148d2565b60405180910390f35b34801561068a57600080fd5b506106a560048036038101906106a0919061410e565b61162e565b005b6106c160048036038101906106bc919061431c565b6116f3565b005b3480156106cf57600080fd5b506106ea60048036038101906106e59190613f4b565b611abf565b005b3480156106f857600080fd5b50610713600480360381019061070e9190613f4b565b611b64565b6040516107209190614d1d565b60405180910390f35b34801561073557600080fd5b50610750600480360381019061074b9190613f4b565b611c1c565b005b34801561075e57600080fd5b5061077960048036038101906107749190614215565b611cc1565b6040516107869190614999565b60405180910390f35b34801561079b57600080fd5b506107b660048036038101906107b19190614215565b611d83565b6040516107c39190614c84565b60405180910390f35b3480156107d857600080fd5b506107f360048036038101906107ee9190614215565b611db9565b604051610807989796959493929190614c9f565b60405180910390f35b34801561081c57600080fd5b506108376004803603810190610832919061417b565b611e73565b005b34801561084557600080fd5b50610860600480360381019061085b9190614215565b611f0f565b60405161086d9190614999565b60405180910390f35b34801561088257600080fd5b5061088b611f41565b6040516108989190614a22565b60405180910390f35b3480156108ad57600080fd5b506108c860048036038101906108c39190614215565b611fd3565b6040516108d59190614999565b60405180910390f35b3480156108ea57600080fd5b506109056004803603810190610900919061408e565b612095565b005b34801561091357600080fd5b5061091c6120ab565b005b34801561092a57600080fd5b5061094560048036038101906109409190614242565b612129565b6040516109529190614999565b60405180910390f35b34801561096757600080fd5b50610982600480360381019061097d9190614282565b6121de565b60405161098f9190614999565b60405180910390f35b3480156109a457600080fd5b506109bf60048036038101906109ba919061400b565b6122a3565b005b3480156109cd57600080fd5b506109e860048036038101906109e39190614282565b612305565b6040516109f59190614999565b60405180910390f35b348015610a0a57600080fd5b50610a256004803603810190610a2091906142c2565b6123ca565b604051610a329190614a22565b60405180910390f35b348015610a4757600080fd5b50610a626004803603810190610a5d9190613f4b565b612471565b005b348015610a7057600080fd5b50610a8b6004803603810190610a869190614215565b612570565b604051610a989190614a22565b60405180910390f35b348015610aad57600080fd5b50610ac86004803603810190610ac39190614215565b612617565b604051610ad59190614999565b60405180910390f35b348015610aea57600080fd5b50610b056004803603810190610b009190613f78565b6126b9565b604051610b129190614999565b60405180910390f35b6019600081548110610b3057610b2f6152c0565b5b9060005260206000200160009054906101000a900473ffffffffffffffffffffffffffffffffffffffff1673ffffffffffffffffffffffffffffffffffffffff166108fc6064601984610b839190614f33565b610b8d9190614f02565b9081150290604051600060405180830381858888f19350505050610bb057600080fd5b6019600181548110610bc557610bc46152c0565b5b9060005260206000200160009054906101000a900473ffffffffffffffffffffffffffffffffffffffff1673ffffffffffffffffffffffffffffffffffffffff166108fc6064603284610c189190614f33565b610c229190614f02565b9081150290604051600060405180830381858888f19350505050610c4557600080fd5b6019600281548110610c5a57610c596152c0565b5b9060005260206000200160009054906101000a900473ffffffffffffffffffffffffffffffffffffffff1673ffffffffffffffffffffffffffffffffffffffff166108fc6064601984610cad9190614f33565b610cb79190614f02565b9081150290604051600060405180830381858888f19350505050610cda57600080fd5b50565b60007f780e9d63000000000000000000000000000000000000000000000000000000007bffffffffffffffffffffffffffffffffffffffffffffffffffffffff1916827bffffffffffffffffffffffffffffffffffffffffffffffffffffffff19161480610d505750610d4f82612752565b5b9050919050565b606060008054610d66906150ac565b80601f0160208091040260200160405190810160405280929190818152602001828054610d92906150ac565b8015610ddf5780601f10610db457610100808354040283529160200191610ddf565b820191906000526020600020905b815481529060010190602001808311610dc257829003601f168201915b5050505050905090565b6000610df482612834565b610e33576040517f08c379a0000000000000000000000000000000000000000000000000000000008152600401610e2a90614bc4565b60405180910390fd5b6004600083815260200190815260200160002060009054906101000a900473ffffffffffffffffffffffffffffffffffffffff169050919050565b6000610e798261157c565b90508073ffffffffffffffffffffffffffffffffffffffff168373ffffffffffffffffffffffffffffffffffffffff161415610eea576040517f08c379a0000000000000000000000000000000000000000000000000000000008152600401610ee190614c24565b60405180910390fd5b8073ffffffffffffffffffffffffffffffffffffffff16610f096128a0565b73ffffffffffffffffffffffffffffffffffffffff161480610f385750610f3781610f326128a0565b6126b9565b5b610f77576040517f08c379a0000000000000000000000000000000000000000000000000000000008152600401610f6e90614b44565b60405180910390fd5b610f8183836128a8565b505050565b6000601560059054906101000a900473ffffffffffffffffffffffffffffffffffffffff1673ffffffffffffffffffffffffffffffffffffffff16610fc96128a0565b73ffffffffffffffffffffffffffffffffffffffff1614610fe957600080fd5b6001601360008461ffff1661ffff168152602001908152602001600020600001600a8282829054906101000a900461ffff166110259190614e3a565b92506101000a81548161ffff021916908361ffff16021790555060019050919050565b6000601560059054906101000a900473ffffffffffffffffffffffffffffffffffffffff1673ffffffffffffffffffffffffffffffffffffffff1661108b6128a0565b73ffffffffffffffffffffffffffffffffffffffff16146110ab57600080fd5b6001601360008461ffff1661ffff168152602001908152602001600020600001600c8282829054906101000a900461ffff166110e79190614e3a565b92506101000a81548161ffff021916908361ffff16021790555060019050919050565b6000601360008361ffff1661ffff16815260200190815260200160002060000160029054906101000a900461ffff169050919050565b6000600880549050905090565b61115e6111586128a0565b82612961565b61119d576040517f08c379a000000000000000000000000000000000000000000000000000000000815260040161119490614c44565b60405180910390fd5b6111a8838383612a3f565b505050565b60006111b883611b64565b82106111f9576040517f08c379a00000000000000000000000000000000000000000000000000000000081526004016111f090614a44565b60405180910390fd5b600660008473ffffffffffffffffffffffffffffffffffffffff1673ffffffffffffffffffffffffffffffffffffffff168152602001908152602001600020600083815260200190815260200160002054905092915050565b600b60009054906101000a900473ffffffffffffffffffffffffffffffffffffffff1673ffffffffffffffffffffffffffffffffffffffff166112936128a0565b73ffffffffffffffffffffffffffffffffffffffff16146112b357600080fd5b600b60149054906101000a900460ff1615600b60146101000a81548160ff021916908315150217905550565b60006112fe82601454601560009054906101000a900461ffff16612ca6565b9050919050565b6000601560059054906101000a900473ffffffffffffffffffffffffffffffffffffffff1673ffffffffffffffffffffffffffffffffffffffff166113486128a0565b73ffffffffffffffffffffffffffffffffffffffff161461136857600080fd5b6001601360008461ffff1661ffff16815260200190815260200160002060000160048282829054906101000a900461ffff166113a49190614e3a565b92506101000a81548161ffff021916908361ffff16021790555060019050919050565b6113e2838383604051806020016040528060008152506122a3565b505050565b6113f86113f26128a0565b82612961565b61140157600080fd5b61140a81612d79565b50565b6060600061141a83611b64565b90508061ffff1667ffffffffffffffff81111561143a576114396152ef565b5b6040519080825280602002602001820160405280156114685781602001602082028036833780820191505090505b50915060005b8161ffff168161ffff1610156114cc5761148c848261ffff166111ad565b838261ffff16815181106114a3576114a26152c0565b5b602002602001019061ffff16908161ffff168152505080806114c49061510f565b91505061146e565b5050919050565b60006114dd611140565b821061151e576040517f08c379a000000000000000000000000000000000000000000000000000000000815260040161151590614c64565b60405180910390fd5b60088281548110611532576115316152c0565b5b90600052602060002001549050919050565b6000601360008361ffff1661ffff168152602001908152602001600020600001600e9054906101000a900463ffffffff169050919050565b6000806002600084815260200190815260200160002060009054906101000a900473ffffffffffffffffffffffffffffffffffffffff169050600073ffffffffffffffffffffffffffffffffffffffff168173ffffffffffffffffffffffffffffffffffffffff161415611625576040517f08c379a000000000000000000000000000000000000000000000000000000000815260040161161c90614b84565b60405180910390fd5b80915050919050565b600b60009054906101000a900473ffffffffffffffffffffffffffffffffffffffff1673ffffffffffffffffffffffffffffffffffffffff1661166f6128a0565b73ffffffffffffffffffffffffffffffffffffffff161461168f57600080fd5b8160198260ff16815481106116a7576116a66152c0565b5b9060005260206000200160006101000a81548173ffffffffffffffffffffffffffffffffffffffff021916908373ffffffffffffffffffffffffffffffffffffffff1602179055505050565b600b60149054906101000a900460ff1661170c57600080fd5b600b60009054906101000a900473ffffffffffffffffffffffffffffffffffffffff1673ffffffffffffffffffffffffffffffffffffffff1661174d6128a0565b73ffffffffffffffffffffffffffffffffffffffff16146117be57611771816112df565b341461177c57600080fd5b61179d8160ff16601560009054906101000a900461ffff1661ffff16612e96565b156117b4576117ad601454612eff565b6014819055505b6117bd34610b1b565b5b600a8160ff1611156117cf57600080fd5b601560029054906101000a900461ffff1661ffff168160ff16601560009054906101000a900461ffff166118039190614e3a565b61ffff16111561181257600080fd5b60005b8160ff168160ff161015611abb576001601560008282829054906101000a900461ffff166118439190614e3a565b92506101000a81548161ffff021916908361ffff1602179055506118826118686128a0565b601560009054906101000a900461ffff1661ffff16612f44565b6118c2601560059054906101000a900473ffffffffffffffffffffffffffffffffffffffff16601560009054906101000a900461ffff1661ffff16610e6e565b604051806101000160405280600161ffff168152602001600161ffff168152602001600061ffff168152602001600061ffff168152602001600061ffff168152602001600061ffff168152602001600061ffff1681526020014263ffffffff1681525060136000601560009054906101000a900461ffff1661ffff1661ffff16815260200190815260200160002060008201518160000160006101000a81548161ffff021916908361ffff16021790555060208201518160000160026101000a81548161ffff021916908361ffff16021790555060408201518160000160046101000a81548161ffff021916908361ffff16021790555060608201518160000160066101000a81548161ffff021916908361ffff16021790555060808201518160000160086101000a81548161ffff021916908361ffff16021790555060a082015181600001600a6101000a81548161ffff021916908361ffff16021790555060c082015181600001600c6101000a81548161ffff021916908361ffff16021790555060e082015181600001600e6101000a81548163ffffffff021916908363ffffffff160217905550905050601560029054906101000a900461ffff1661ffff16601560009054906101000a900461ffff1661ffff161415611aa857611aa761311e565b5b8080611ab390615183565b915050611815565b5050565b600b60009054906101000a900473ffffffffffffffffffffffffffffffffffffffff1673ffffffffffffffffffffffffffffffffffffffff16611b006128a0565b73ffffffffffffffffffffffffffffffffffffffff1614611b2057600080fd5b80600b60006101000a81548173ffffffffffffffffffffffffffffffffffffffff021916908373ffffffffffffffffffffffffffffffffffffffff16021790555050565b60008073ffffffffffffffffffffffffffffffffffffffff168273ffffffffffffffffffffffffffffffffffffffff161415611bd5576040517f08c379a0000000000000000000000000000000000000000000000000000000008152600401611bcc90614b64565b60405180910390fd5b600360008373ffffffffffffffffffffffffffffffffffffffff1673ffffffffffffffffffffffffffffffffffffffff168152602001908152602001600020549050919050565b600b60009054906101000a900473ffffffffffffffffffffffffffffffffffffffff1673ffffffffffffffffffffffffffffffffffffffff16611c5d6128a0565b73ffffffffffffffffffffffffffffffffffffffff1614611c7d57600080fd5b80601660006101000a81548173ffffffffffffffffffffffffffffffffffffffff021916908373ffffffffffffffffffffffffffffffffffffffff16021790555050565b6000601560059054906101000a900473ffffffffffffffffffffffffffffffffffffffff1673ffffffffffffffffffffffffffffffffffffffff16611d046128a0565b73ffffffffffffffffffffffffffffffffffffffff1614611d2457600080fd5b6001601360008461ffff1661ffff16815260200190815260200160002060000160068282829054906101000a900461ffff16611d609190614e3a565b92506101000a81548161ffff021916908361ffff16021790555060019050919050565b6000601360008361ffff1661ffff16815260200190815260200160002060000160009054906101000a900461ffff169050919050565b60136020528060005260406000206000915090508060000160009054906101000a900461ffff16908060000160029054906101000a900461ffff16908060000160049054906101000a900461ffff16908060000160069054906101000a900461ffff16908060000160089054906101000a900461ffff169080600001600a9054906101000a900461ffff169080600001600c9054906101000a900461ffff169080600001600e9054906101000a900463ffffffff16905088565b7f000000000000000000000000000000000000000000000000000000000000000073ffffffffffffffffffffffffffffffffffffffff163373ffffffffffffffffffffffffffffffffffffffff1614611f01576040517f08c379a0000000000000000000000000000000000000000000000000000000008152600401611ef890614c04565b60405180910390fd5b611f0b82826131e6565b5050565b6000601a60008361ffff1661ffff16815260200190815260200160002060009054906101000a900460ff169050919050565b606060018054611f50906150ac565b80601f0160208091040260200160405190810160405280929190818152602001828054611f7c906150ac565b8015611fc95780601f10611f9e57610100808354040283529160200191611fc9565b820191906000526020600020905b815481529060010190602001808311611fac57829003601f168201915b5050505050905090565b6000601560059054906101000a900473ffffffffffffffffffffffffffffffffffffffff1673ffffffffffffffffffffffffffffffffffffffff166120166128a0565b73ffffffffffffffffffffffffffffffffffffffff161461203657600080fd5b6001601360008461ffff1661ffff16815260200190815260200160002060000160088282829054906101000a900461ffff166120729190614e3a565b92506101000a81548161ffff021916908361ffff16021790555060019050919050565b6120a76120a06128a0565b8383613236565b5050565b600b60009054906101000a900473ffffffffffffffffffffffffffffffffffffffff1673ffffffffffffffffffffffffffffffffffffffff166120ec6128a0565b73ffffffffffffffffffffffffffffffffffffffff161461210c57600080fd5b6001601560046101000a81548160ff021916908315150217905550565b6000601560059054906101000a900473ffffffffffffffffffffffffffffffffffffffff1673ffffffffffffffffffffffffffffffffffffffff1661216c6128a0565b73ffffffffffffffffffffffffffffffffffffffff161461218c57600080fd5b81426121989190614ec8565b601360008561ffff1661ffff168152602001908152602001600020600001600e6101000a81548163ffffffff021916908363ffffffff1602179055506001905092915050565b6000601560059054906101000a900473ffffffffffffffffffffffffffffffffffffffff1673ffffffffffffffffffffffffffffffffffffffff166122216128a0565b73ffffffffffffffffffffffffffffffffffffffff161461224157600080fd5b8160ff16601360008561ffff1661ffff16815260200190815260200160002060000160028282829054906101000a900461ffff1661227f9190614e3a565b92506101000a81548161ffff021916908361ffff1602179055506001905092915050565b6122b46122ae6128a0565b83612961565b6122f3576040517f08c379a00000000000000000000000000000000000000000000000000000000081526004016122ea90614c44565b60405180910390fd5b6122ff848484846133a3565b50505050565b6000601560059054906101000a900473ffffffffffffffffffffffffffffffffffffffff1673ffffffffffffffffffffffffffffffffffffffff166123486128a0565b73ffffffffffffffffffffffffffffffffffffffff161461236857600080fd5b8160ff16601360008561ffff1661ffff16815260200190815260200160002060000160008282829054906101000a900461ffff166123a69190614e3a565b92506101000a81548161ffff021916908361ffff1602179055506001905092915050565b60606123d582612834565b612414576040517f08c379a000000000000000000000000000000000000000000000000000000000815260040161240b90614be4565b60405180910390fd5b600061241e6133ff565b9050600081511161243e5760405180602001604052806000815250612469565b8061244884613416565b604051602001612459929190614831565b6040516020818303038152906040525b915050919050565b600b60009054906101000a900473ffffffffffffffffffffffffffffffffffffffff1673ffffffffffffffffffffffffffffffffffffffff166124b26128a0565b73ffffffffffffffffffffffffffffffffffffffff16146124d257600080fd5b6124ff601560059054906101000a900473ffffffffffffffffffffffffffffffffffffffff166000612095565b80601560056101000a81548173ffffffffffffffffffffffffffffffffffffffff021916908373ffffffffffffffffffffffffffffffffffffffff16021790555061256d601560059054906101000a900473ffffffffffffffffffffffffffffffffffffffff166001612095565b50565b606061257f8261ffff16612834565b61258857600080fd5b601560049054906101000a900460ff166125c757600c600f6040516020016125b1929190614855565b6040516020818303038152906040529050612612565b600c600d836040516020016125dc91906148b7565b604051602081830303815290604052600e6040516020016126009493929190614879565b60405160208183030381529060405290505b919050565b6000601660009054906101000a900473ffffffffffffffffffffffffffffffffffffffff1673ffffffffffffffffffffffffffffffffffffffff163373ffffffffffffffffffffffffffffffffffffffff161461267357600080fd5b42601360008461ffff1661ffff168152602001908152602001600020600001600e6101000a81548163ffffffff021916908363ffffffff16021790555060019050919050565b6000600560008473ffffffffffffffffffffffffffffffffffffffff1673ffffffffffffffffffffffffffffffffffffffff16815260200190815260200160002060008373ffffffffffffffffffffffffffffffffffffffff1673ffffffffffffffffffffffffffffffffffffffff16815260200190815260200160002060009054906101000a900460ff16905092915050565b505050565b60007f80ac58cd000000000000000000000000000000000000000000000000000000007bffffffffffffffffffffffffffffffffffffffffffffffffffffffff1916827bffffffffffffffffffffffffffffffffffffffffffffffffffffffff1916148061281d57507f5b5e139f000000000000000000000000000000000000000000000000000000007bffffffffffffffffffffffffffffffffffffffffffffffffffffffff1916827bffffffffffffffffffffffffffffffffffffffffffffffffffffffff1916145b8061282d575061282c82613577565b5b9050919050565b60008073ffffffffffffffffffffffffffffffffffffffff166002600084815260200190815260200160002060009054906101000a900473ffffffffffffffffffffffffffffffffffffffff1673ffffffffffffffffffffffffffffffffffffffff1614159050919050565b600033905090565b816004600083815260200190815260200160002060006101000a81548173ffffffffffffffffffffffffffffffffffffffff021916908373ffffffffffffffffffffffffffffffffffffffff160217905550808273ffffffffffffffffffffffffffffffffffffffff1661291b8361157c565b73ffffffffffffffffffffffffffffffffffffffff167f8c5be1e5ebec7d5bd14f71427d1e84f3dd0314c0f7b2291e5b200ac8c7c3b92560405160405180910390a45050565b600061296c82612834565b6129ab576040517f08c379a00000000000000000000000000000000000000000000000000000000081526004016129a290614b24565b60405180910390fd5b60006129b68361157c565b90508073ffffffffffffffffffffffffffffffffffffffff168473ffffffffffffffffffffffffffffffffffffffff161480612a2557508373ffffffffffffffffffffffffffffffffffffffff16612a0d84610de9565b73ffffffffffffffffffffffffffffffffffffffff16145b80612a365750612a3581856126b9565b5b91505092915050565b8273ffffffffffffffffffffffffffffffffffffffff16612a5f8261157c565b73ffffffffffffffffffffffffffffffffffffffff1614612ab5576040517f08c379a0000000000000000000000000000000000000000000000000000000008152600401612aac90614a84565b60405180910390fd5b600073ffffffffffffffffffffffffffffffffffffffff168273ffffffffffffffffffffffffffffffffffffffff161415612b25576040517f08c379a0000000000000000000000000000000000000000000000000000000008152600401612b1c90614ae4565b60405180910390fd5b612b308383836135e1565b612b3b6000826128a8565b6001600360008573ffffffffffffffffffffffffffffffffffffffff1673ffffffffffffffffffffffffffffffffffffffff1681526020019081526020016000206000828254612b8b9190614f8d565b925050819055506001600360008473ffffffffffffffffffffffffffffffffffffffff1673ffffffffffffffffffffffffffffffffffffffff1681526020019081526020016000206000828254612be29190614e72565b92505081905550816002600083815260200190815260200160002060006101000a81548173ffffffffffffffffffffffffffffffffffffffff021916908373ffffffffffffffffffffffffffffffffffffffff160217905550808273ffffffffffffffffffffffffffffffffffffffff168473ffffffffffffffffffffffffffffffffffffffff167fddf252ad1be2c89b69c2b068fc378daa952ba7f163c4a11628f55a4df523b3ef60405160405180910390a4612ca18383836136f5565b505050565b6000600a8460ff161115612cef576040517f08c379a0000000000000000000000000000000000000000000000000000000008152600401612ce690614ac4565b60405180910390fd5b6000612d028560ff168461ffff16612e96565b90508015612d5f57600080612d1e8760ff168661ffff166136fa565b915091508060ff16600287612d339190614f33565b612d3d9190614f33565b8260ff1687612d4c9190614f33565b612d569190614e72565b93505050612d71565b8460ff1684612d6e9190614f33565b91505b509392505050565b6000612d848261157c565b9050612d92816000846135e1565b612d9d6000836128a8565b6001600360008373ffffffffffffffffffffffffffffffffffffffff1673ffffffffffffffffffffffffffffffffffffffff1681526020019081526020016000206000828254612ded9190614f8d565b925050819055506002600083815260200190815260200160002060006101000a81549073ffffffffffffffffffffffffffffffffffffffff021916905581600073ffffffffffffffffffffffffffffffffffffffff168273ffffffffffffffffffffffffffffffffffffffff167fddf252ad1be2c89b69c2b068fc378daa952ba7f163c4a11628f55a4df523b3ef60405160405180910390a4612e92816000846136f5565b5050565b60006103e88383612ea79190614e72565b1015612eb65760009050612ef9565b60006103e88484612ec79190614e72565b612ed191906151d3565b905060008110158015612ee45750600a81105b15612ef3576001915050612ef9565b60009150505b92915050565b6000600182901b90507f18d394ba347d8c318a1db51c85288b956d598b2925be44758ee6f2edb9e2a06b81604051612f379190614d1d565b60405180910390a1919050565b600073ffffffffffffffffffffffffffffffffffffffff168273ffffffffffffffffffffffffffffffffffffffff161415612fb4576040517f08c379a0000000000000000000000000000000000000000000000000000000008152600401612fab90614ba4565b60405180910390fd5b612fbd81612834565b15612ffd576040517f08c379a0000000000000000000000000000000000000000000000000000000008152600401612ff490614aa4565b60405180910390fd5b613009600083836135e1565b6001600360008473ffffffffffffffffffffffffffffffffffffffff1673ffffffffffffffffffffffffffffffffffffffff16815260200190815260200160002060008282546130599190614e72565b92505081905550816002600083815260200190815260200160002060006101000a81548173ffffffffffffffffffffffffffffffffffffffff021916908373ffffffffffffffffffffffffffffffffffffffff160217905550808273ffffffffffffffffffffffffffffffffffffffff16600073ffffffffffffffffffffffffffffffffffffffff167fddf252ad1be2c89b69c2b068fc378daa952ba7f163c4a11628f55a4df523b3ef60405160405180910390a461311a600083836136f5565b5050565b6012547f000000000000000000000000000000000000000000000000000000000000000073ffffffffffffffffffffffffffffffffffffffff166370a08231306040518263ffffffff1660e01b815260040161317a91906148d2565b60206040518083038186803b15801561319257600080fd5b505afa1580156131a6573d6000803e3d6000fd5b505050506040513d601f19601f820116820180604052508101906131ca91906142ef565b10156131d557600080fd5b6131e3601154601254613763565b50565b7fb75047a36befaef84e90ca4c55f0673352e2942c569d5726c6cf463a043903f261321d6127108361321891906151d3565b61157c565b60405161322a91906148d2565b60405180910390a15050565b8173ffffffffffffffffffffffffffffffffffffffff168373ffffffffffffffffffffffffffffffffffffffff1614156132a5576040517f08c379a000000000000000000000000000000000000000000000000000000000815260040161329c90614b04565b60405180910390fd5b80600560008573ffffffffffffffffffffffffffffffffffffffff1673ffffffffffffffffffffffffffffffffffffffff16815260200190815260200160002060008473ffffffffffffffffffffffffffffffffffffffff1673ffffffffffffffffffffffffffffffffffffffff16815260200190815260200160002060006101000a81548160ff0219169083151502179055508173ffffffffffffffffffffffffffffffffffffffff168373ffffffffffffffffffffffffffffffffffffffff167f17307eab39ab6107e8899845ad3d59bd9653f200f220920489ca2b5937696c31836040516133969190614999565b60405180910390a3505050565b6133ae848484612a3f565b6133ba848484846138c5565b6133f9576040517f08c379a00000000000000000000000000000000000000000000000000000000081526004016133f090614a64565b60405180910390fd5b50505050565b606060405180602001604052806000815250905090565b6060600082141561345e576040518060400160405280600181526020017f30000000000000000000000000000000000000000000000000000000000000008152509050613572565b600082905060005b600082146134905780806134799061513a565b915050600a826134899190614f02565b9150613466565b60008167ffffffffffffffff8111156134ac576134ab6152ef565b5b6040519080825280601f01601f1916602001820160405280156134de5781602001600182028036833780820191505090505b5090505b6000851461356b576001826134f79190614f8d565b9150600a8561350691906151d3565b60306135129190614e72565b60f81b818381518110613528576135276152c0565b5b60200101907effffffffffffffffffffffffffffffffffffffffffffffffffffffffffffff1916908160001a905350600a856135649190614f02565b94506134e2565b8093505050505b919050565b60007f01ffc9a7000000000000000000000000000000000000000000000000000000007bffffffffffffffffffffffffffffffffffffffffffffffffffffffff1916827bffffffffffffffffffffffffffffffffffffffffffffffffffffffff1916149050919050565b6135ec83838361274d565b600073ffffffffffffffffffffffffffffffffffffffff168373ffffffffffffffffffffffffffffffffffffffff16141561362f5761362a81613a5c565b61366e565b8173ffffffffffffffffffffffffffffffffffffffff168373ffffffffffffffffffffffffffffffffffffffff161461366d5761366c8382613aa5565b5b5b600073ffffffffffffffffffffffffffffffffffffffff168273ffffffffffffffffffffffffffffffffffffffff1614156136b1576136ac81613c12565b6136f0565b8273ffffffffffffffffffffffffffffffffffffffff168273ffffffffffffffffffffffffffffffffffffffff16146136ef576136ee8282613ce3565b5b5b505050565b505050565b60008060005b8481101561375b5761371e6001826137189190614e72565b85612e96565b15613748576001816137309190614e72565b92508260ff16856137419190614f8d565b915061375b565b80806137539061513a565b915050613700565b509250929050565b60007f000000000000000000000000000000000000000000000000000000000000000073ffffffffffffffffffffffffffffffffffffffff16634000aea07f0000000000000000000000000000000000000000000000000000000000000000848660006040516020016137d79291906149b4565b6040516020818303038152906040526040518463ffffffff1660e01b815260040161380493929190614939565b602060405180830381600087803b15801561381e57600080fd5b505af1158015613832573d6000803e3d6000fd5b505050506040513d601f19601f82011682018060405250810190613856919061414e565b50600061387984600030600a600089815260200190815260200160002054613d62565b90506001600a60008681526020019081526020016000205461389b9190614e72565b600a6000868152602001908152602001600020819055506138bc8482613d9e565b91505092915050565b60006138e68473ffffffffffffffffffffffffffffffffffffffff16613dd1565b15613a4f578373ffffffffffffffffffffffffffffffffffffffff1663150b7a0261390f6128a0565b8786866040518563ffffffff1660e01b815260040161393194939291906148ed565b602060405180830381600087803b15801561394b57600080fd5b505af192505050801561397c57506040513d601f19601f8201168201806040525081019061397991906141e8565b60015b6139ff573d80600081146139ac576040519150601f19603f3d011682016040523d82523d6000602084013e6139b1565b606091505b506000815114156139f7576040517f08c379a00000000000000000000000000000000000000000000000000000000081526004016139ee90614a64565b60405180910390fd5b805181602001fd5b63150b7a0260e01b7bffffffffffffffffffffffffffffffffffffffffffffffffffffffff1916817bffffffffffffffffffffffffffffffffffffffffffffffffffffffff191614915050613a54565b600190505b949350505050565b6008805490506009600083815260200190815260200160002081905550600881908060018154018082558091505060019003906000526020600020016000909190919091505550565b60006001613ab284611b64565b613abc9190614f8d565b9050600060076000848152602001908152602001600020549050818114613ba1576000600660008673ffffffffffffffffffffffffffffffffffffffff1673ffffffffffffffffffffffffffffffffffffffff168152602001908152602001600020600084815260200190815260200160002054905080600660008773ffffffffffffffffffffffffffffffffffffffff1673ffffffffffffffffffffffffffffffffffffffff168152602001908152602001600020600084815260200190815260200160002081905550816007600083815260200190815260200160002081905550505b6007600084815260200190815260200160002060009055600660008573ffffffffffffffffffffffffffffffffffffffff1673ffffffffffffffffffffffffffffffffffffffff16815260200190815260200160002060008381526020019081526020016000206000905550505050565b60006001600880549050613c269190614f8d565b9050600060096000848152602001908152602001600020549050600060088381548110613c5657613c556152c0565b5b906000526020600020015490508060088381548110613c7857613c776152c0565b5b906000526020600020018190555081600960008381526020019081526020016000208190555060096000858152602001908152602001600020600090556008805480613cc757613cc6615291565b5b6001900381819060005260206000200160009055905550505050565b6000613cee83611b64565b905081600660008573ffffffffffffffffffffffffffffffffffffffff1673ffffffffffffffffffffffffffffffffffffffff168152602001908152602001600020600083815260200190815260200160002081905550806007600084815260200190815260200160002081905550505050565b600084848484604051602001613d7b94939291906149dd565b6040516020818303038152906040528051906020012060001c9050949350505050565b60008282604051602001613db3929190614805565b60405160208183030381529060405280519060200120905092915050565b6000808273ffffffffffffffffffffffffffffffffffffffff163b119050919050565b6000613e07613e0284614d78565b614d53565b905082815260208101848484011115613e2357613e22615323565b5b613e2e84828561506a565b509392505050565b600081359050613e4581615820565b92915050565b600081359050613e5a81615837565b92915050565b600081519050613e6f81615837565b92915050565b600081359050613e848161584e565b92915050565b600081359050613e9981615865565b92915050565b600081519050613eae81615865565b92915050565b600082601f830112613ec957613ec861531e565b5b8135613ed9848260208601613df4565b91505092915050565b600081359050613ef18161587c565b92915050565b600081359050613f0681615893565b92915050565b600081519050613f1b81615893565b92915050565b600081359050613f30816158aa565b92915050565b600081359050613f45816158c1565b92915050565b600060208284031215613f6157613f6061532d565b5b6000613f6f84828501613e36565b91505092915050565b60008060408385031215613f8f57613f8e61532d565b5b6000613f9d85828601613e36565b9250506020613fae85828601613e36565b9150509250929050565b600080600060608486031215613fd157613fd061532d565b5b6000613fdf86828701613e36565b9350506020613ff086828701613e36565b925050604061400186828701613ef7565b9150509250925092565b600080600080608085870312156140255761402461532d565b5b600061403387828801613e36565b945050602061404487828801613e36565b935050604061405587828801613ef7565b925050606085013567ffffffffffffffff81111561407657614075615328565b5b61408287828801613eb4565b91505092959194509250565b600080604083850312156140a5576140a461532d565b5b60006140b385828601613e36565b92505060206140c485828601613e4b565b9150509250929050565b600080604083850312156140e5576140e461532d565b5b60006140f385828601613e36565b925050602061410485828601613ef7565b9150509250929050565b600080604083850312156141255761412461532d565b5b600061413385828601613e36565b925050602061414485828601613f36565b9150509250929050565b6000602082840312156141645761416361532d565b5b600061417284828501613e60565b91505092915050565b600080604083850312156141925761419161532d565b5b60006141a085828601613e75565b92505060206141b185828601613ef7565b9150509250929050565b6000602082840312156141d1576141d061532d565b5b60006141df84828501613e8a565b91505092915050565b6000602082840312156141fe576141fd61532d565b5b600061420c84828501613e9f565b91505092915050565b60006020828403121561422b5761422a61532d565b5b600061423984828501613ee2565b91505092915050565b600080604083850312156142595761425861532d565b5b600061426785828601613ee2565b925050602061427885828601613f21565b9150509250929050565b600080604083850312156142995761429861532d565b5b60006142a785828601613ee2565b92505060206142b885828601613f36565b9150509250929050565b6000602082840312156142d8576142d761532d565b5b60006142e684828501613ef7565b91505092915050565b6000602082840312156143055761430461532d565b5b600061431384828501613f0c565b91505092915050565b6000602082840312156143325761433161532d565b5b600061434084828501613f36565b91505092915050565b6000614355838361479b565b60208301905092915050565b61436a81614fc1565b82525050565b600061437b82614dce565b6143858185614dfc565b935061439083614da9565b8060005b838110156143c15781516143a88882614349565b97506143b383614def565b925050600181019050614394565b5085935050505092915050565b6143d781614fd3565b82525050565b6143e681614fdf565b82525050565b6143fd6143f882614fdf565b6151ad565b82525050565b600061440e82614dd9565b6144188185614e0d565b9350614428818560208601615079565b61443181615332565b840191505092915050565b600061444782614de4565b6144518185614e1e565b9350614461818560208601615079565b61446a81615332565b840191505092915050565b600061448082614de4565b61448a8185614e2f565b935061449a818560208601615079565b80840191505092915050565b600081546144b3816150ac565b6144bd8186614e2f565b945060018216600081146144d857600181146144e95761451c565b60ff1983168652818601935061451c565b6144f285614db9565b60005b83811015614514578154818901526001820191506020810190506144f5565b838801955050505b50505092915050565b6000614532602b83614e1e565b915061453d82615350565b604082019050919050565b6000614555603283614e1e565b91506145608261539f565b604082019050919050565b6000614578602583614e1e565b9150614583826153ee565b604082019050919050565b600061459b601c83614e1e565b91506145a68261543d565b602082019050919050565b60006145be600d83614e1e565b91506145c982615466565b602082019050919050565b60006145e1602483614e1e565b91506145ec8261548f565b604082019050919050565b6000614604601983614e1e565b915061460f826154de565b602082019050919050565b6000614627602c83614e1e565b915061463282615507565b604082019050919050565b600061464a603883614e1e565b915061465582615556565b604082019050919050565b600061466d602a83614e1e565b9150614678826155a5565b604082019050919050565b6000614690602983614e1e565b915061469b826155f4565b604082019050919050565b60006146b3602083614e1e565b91506146be82615643565b602082019050919050565b60006146d6602c83614e1e565b91506146e18261566c565b604082019050919050565b60006146f9602f83614e1e565b9150614704826156bb565b604082019050919050565b600061471c601f83614e1e565b91506147278261570a565b602082019050919050565b600061473f602183614e1e565b915061474a82615733565b604082019050919050565b6000614762603183614e1e565b915061476d82615782565b604082019050919050565b6000614785602c83614e1e565b9150614790826157d1565b604082019050919050565b6147a481615015565b82525050565b6147b381615015565b82525050565b6147ca6147c582615015565b6151b7565b82525050565b6147d981615043565b82525050565b6147f06147eb82615043565b6151c9565b82525050565b6147ff8161504d565b82525050565b600061481182856143ec565b60208201915061482182846147df565b6020820191508190509392505050565b600061483d8285614475565b91506148498284614475565b91508190509392505050565b600061486182856144a6565b915061486d82846144a6565b91508190509392505050565b600061488582876144a6565b915061489182866144a6565b915061489d8285614475565b91506148a982846144a6565b915081905095945050505050565b60006148c382846147b9565b60028201915081905092915050565b60006020820190506148e76000830184614361565b92915050565b60006080820190506149026000830187614361565b61490f6020830186614361565b61491c60408301856147d0565b818103606083015261492e8184614403565b905095945050505050565b600060608201905061494e6000830186614361565b61495b60208301856147d0565b818103604083015261496d8184614403565b9050949350505050565b600060208201905081810360008301526149918184614370565b905092915050565b60006020820190506149ae60008301846143ce565b92915050565b60006040820190506149c960008301856143dd565b6149d660208301846147d0565b9392505050565b60006080820190506149f260008301876143dd565b6149ff60208301866147d0565b614a0c6040830185614361565b614a1960608301846147d0565b95945050505050565b60006020820190508181036000830152614a3c818461443c565b905092915050565b60006020820190508181036000830152614a5d81614525565b9050919050565b60006020820190508181036000830152614a7d81614548565b9050919050565b60006020820190508181036000830152614a9d8161456b565b9050919050565b60006020820190508181036000830152614abd8161458e565b9050919050565b60006020820190508181036000830152614add816145b1565b9050919050565b60006020820190508181036000830152614afd816145d4565b9050919050565b60006020820190508181036000830152614b1d816145f7565b9050919050565b60006020820190508181036000830152614b3d8161461a565b9050919050565b60006020820190508181036000830152614b5d8161463d565b9050919050565b60006020820190508181036000830152614b7d81614660565b9050919050565b60006020820190508181036000830152614b9d81614683565b9050919050565b60006020820190508181036000830152614bbd816146a6565b9050919050565b60006020820190508181036000830152614bdd816146c9565b9050919050565b60006020820190508181036000830152614bfd816146ec565b9050919050565b60006020820190508181036000830152614c1d8161470f565b9050919050565b60006020820190508181036000830152614c3d81614732565b9050919050565b60006020820190508181036000830152614c5d81614755565b9050919050565b60006020820190508181036000830152614c7d81614778565b9050919050565b6000602082019050614c9960008301846147aa565b92915050565b600061010082019050614cb5600083018b6147aa565b614cc2602083018a6147aa565b614ccf60408301896147aa565b614cdc60608301886147aa565b614ce960808301876147aa565b614cf660a08301866147aa565b614d0360c08301856147aa565b614d1060e08301846147f6565b9998505050505050505050565b6000602082019050614d3260008301846147d0565b92915050565b6000602082019050614d4d60008301846147f6565b92915050565b6000614d5d614d6e565b9050614d6982826150de565b919050565b6000604051905090565b600067ffffffffffffffff821115614d9357614d926152ef565b5b614d9c82615332565b9050602081019050919050565b6000819050602082019050919050565b60008190508160005260206000209050919050565b600081519050919050565b600081519050919050565b600081519050919050565b6000602082019050919050565b600082825260208201905092915050565b600082825260208201905092915050565b600082825260208201905092915050565b600081905092915050565b6000614e4582615015565b9150614e5083615015565b92508261ffff03821115614e6757614e66615204565b5b828201905092915050565b6000614e7d82615043565b9150614e8883615043565b9250827fffffffffffffffffffffffffffffffffffffffffffffffffffffffffffffffff03821115614ebd57614ebc615204565b5b828201905092915050565b6000614ed38261504d565b9150614ede8361504d565b92508263ffffffff03821115614ef757614ef6615204565b5b828201905092915050565b6000614f0d82615043565b9150614f1883615043565b925082614f2857614f27615233565b5b828204905092915050565b6000614f3e82615043565b9150614f4983615043565b9250817fffffffffffffffffffffffffffffffffffffffffffffffffffffffffffffffff0483118215151615614f8257614f81615204565b5b828202905092915050565b6000614f9882615043565b9150614fa383615043565b925082821015614fb657614fb5615204565b5b828203905092915050565b6000614fcc82615023565b9050919050565b60008115159050919050565b6000819050919050565b60007fffffffff0000000000000000000000000000000000000000000000000000000082169050919050565b600061ffff82169050919050565b600073ffffffffffffffffffffffffffffffffffffffff82169050919050565b6000819050919050565b600063ffffffff82169050919050565b600060ff82169050919050565b82818337600083830152505050565b60005b8381101561509757808201518184015260208101905061507c565b838111156150a6576000848401525b50505050565b600060028204905060018216806150c457607f821691505b602082108114156150d8576150d7615262565b5b50919050565b6150e782615332565b810181811067ffffffffffffffff82111715615106576151056152ef565b5b80604052505050565b600061511a82615015565b915061ffff82141561512f5761512e615204565b5b600182019050919050565b600061514582615043565b91507fffffffffffffffffffffffffffffffffffffffffffffffffffffffffffffffff82141561517857615177615204565b5b600182019050919050565b600061518e8261505d565b915060ff8214156151a2576151a1615204565b5b600182019050919050565b6000819050919050565b60006151c282615343565b9050919050565b6000819050919050565b60006151de82615043565b91506151e983615043565b9250826151f9576151f8615233565b5b828206905092915050565b7f4e487b7100000000000000000000000000000000000000000000000000000000600052601160045260246000fd5b7f4e487b7100000000000000000000000000000000000000000000000000000000600052601260045260246000fd5b7f4e487b7100000000000000000000000000000000000000000000000000000000600052602260045260246000fd5b7f4e487b7100000000000000000000000000000000000000000000000000000000600052603160045260246000fd5b7f4e487b7100000000000000000000000000000000000000000000000000000000600052603260045260246000fd5b7f4e487b7100000000000000000000000000000000000000000000000000000000600052604160045260246000fd5b600080fd5b600080fd5b600080fd5b600080fd5b6000601f19601f8301169050919050565b60008160f01b9050919050565b7f455243373231456e756d657261626c653a206f776e657220696e646578206f7560008201527f74206f6620626f756e6473000000000000000000000000000000000000000000602082015250565b7f4552433732313a207472616e7366657220746f206e6f6e20455243373231526560008201527f63656976657220696d706c656d656e7465720000000000000000000000000000602082015250565b7f4552433732313a207472616e736665722066726f6d20696e636f72726563742060008201527f6f776e6572000000000000000000000000000000000000000000000000000000602082015250565b7f4552433732313a20746f6b656e20616c7265616479206d696e74656400000000600082015250565b7f4572723a20546f6f206869676800000000000000000000000000000000000000600082015250565b7f4552433732313a207472616e7366657220746f20746865207a65726f2061646460008201527f7265737300000000000000000000000000000000000000000000000000000000602082015250565b7f4552433732313a20617070726f766520746f2063616c6c657200000000000000600082015250565b7f4552433732313a206f70657261746f7220717565727920666f72206e6f6e657860008201527f697374656e7420746f6b656e0000000000000000000000000000000000000000602082015250565b7f4552433732313a20617070726f76652063616c6c6572206973206e6f74206f7760008201527f6e6572206e6f7220617070726f76656420666f7220616c6c0000000000000000602082015250565b7f4552433732313a2062616c616e636520717565727920666f7220746865207a6560008201527f726f206164647265737300000000000000000000000000000000000000000000602082015250565b7f4552433732313a206f776e657220717565727920666f72206e6f6e657869737460008201527f656e7420746f6b656e0000000000000000000000000000000000000000000000602082015250565b7f4552433732313a206d696e7420746f20746865207a65726f2061646472657373600082015250565b7f4552433732313a20617070726f76656420717565727920666f72206e6f6e657860008201527f697374656e7420746f6b656e0000000000000000000000000000000000000000602082015250565b7f4552433732314d657461646174613a2055524920717565727920666f72206e6f60008201527f6e6578697374656e7420746f6b656e0000000000000000000000000000000000602082015250565b7f4f6e6c7920565246436f6f7264696e61746f722063616e2066756c66696c6c00600082015250565b7f4552433732313a20617070726f76616c20746f2063757272656e74206f776e6560008201527f7200000000000000000000000000000000000000000000000000000000000000602082015250565b7f4552433732313a207472616e736665722063616c6c6572206973206e6f74206f60008201527f776e6572206e6f7220617070726f766564000000000000000000000000000000602082015250565b7f455243373231456e756d657261626c653a20676c6f62616c20696e646578206f60008201527f7574206f6620626f756e64730000000000000000000000000000000000000000602082015250565b61582981614fc1565b811461583457600080fd5b50565b61584081614fd3565b811461584b57600080fd5b50565b61585781614fdf565b811461586257600080fd5b50565b61586e81614fe9565b811461587957600080fd5b50565b61588581615015565b811461589057600080fd5b50565b61589c81615043565b81146158a757600080fd5b50565b6158b38161504d565b81146158be57600080fd5b50565b6158ca8161505d565b81146158d557600080fd5b5056fea2646970667358221220313df6224ebad314a8321b83e37766c2834dc88823ca85ff9e8c7893a274b9d164736f6c63430008070033",
  "devdoc": {
    "kind": "dev",
    "methods": {
      "approve(address,uint256)": {
        "details": "See {IERC721-approve}."
      },
      "balanceOf(address)": {
        "details": "See {IERC721-balanceOf}."
      },
      "getApproved(uint256)": {
        "details": "See {IERC721-getApproved}."
      },
      "isApprovedForAll(address,address)": {
        "details": "See {IERC721-isApprovedForAll}."
      },
      "name()": {
        "details": "See {IERC721Metadata-name}."
      },
      "ownerOf(uint256)": {
        "details": "See {IERC721-ownerOf}."
      },
      "safeTransferFrom(address,address,uint256)": {
        "details": "See {IERC721-safeTransferFrom}."
      },
      "safeTransferFrom(address,address,uint256,bytes)": {
        "details": "See {IERC721-safeTransferFrom}."
      },
      "setApprovalForAll(address,bool)": {
        "details": "See {IERC721-setApprovalForAll}."
      },
      "supportsInterface(bytes4)": {
        "details": "See {IERC165-supportsInterface}."
      },
      "symbol()": {
        "details": "See {IERC721Metadata-symbol}."
      },
      "tokenByIndex(uint256)": {
        "details": "See {IERC721Enumerable-tokenByIndex}."
      },
      "tokenOfOwnerByIndex(address,uint256)": {
        "details": "See {IERC721Enumerable-tokenOfOwnerByIndex}."
      },
      "tokenURI(uint256)": {
        "details": "See {IERC721Metadata-tokenURI}."
      },
      "totalSupply()": {
        "details": "See {IERC721Enumerable-totalSupply}."
      },
      "transferFrom(address,address,uint256)": {
        "details": "See {IERC721-transferFrom}."
      }
    },
    "version": 1
  },
  "userdoc": {
    "kind": "user",
    "methods": {},
    "version": 1
  },
  "storageLayout": {
    "storage": [
      {
        "astId": 291,
        "contract": "contracts/minter.sol:MinterV3",
        "label": "_name",
        "offset": 0,
        "slot": "0",
        "type": "t_string_storage"
      },
      {
        "astId": 293,
        "contract": "contracts/minter.sol:MinterV3",
        "label": "_symbol",
        "offset": 0,
        "slot": "1",
        "type": "t_string_storage"
      },
      {
        "astId": 297,
        "contract": "contracts/minter.sol:MinterV3",
        "label": "_owners",
        "offset": 0,
        "slot": "2",
        "type": "t_mapping(t_uint256,t_address)"
      },
      {
        "astId": 301,
        "contract": "contracts/minter.sol:MinterV3",
        "label": "_balances",
        "offset": 0,
        "slot": "3",
        "type": "t_mapping(t_address,t_uint256)"
      },
      {
        "astId": 305,
        "contract": "contracts/minter.sol:MinterV3",
        "label": "_tokenApprovals",
        "offset": 0,
        "slot": "4",
        "type": "t_mapping(t_uint256,t_address)"
      },
      {
        "astId": 311,
        "contract": "contracts/minter.sol:MinterV3",
        "label": "_operatorApprovals",
        "offset": 0,
        "slot": "5",
        "type": "t_mapping(t_address,t_mapping(t_address,t_bool))"
      },
      {
        "astId": 1280,
        "contract": "contracts/minter.sol:MinterV3",
        "label": "_ownedTokens",
        "offset": 0,
        "slot": "6",
        "type": "t_mapping(t_address,t_mapping(t_uint256,t_uint256))"
      },
      {
        "astId": 1284,
        "contract": "contracts/minter.sol:MinterV3",
        "label": "_ownedTokensIndex",
        "offset": 0,
        "slot": "7",
        "type": "t_mapping(t_uint256,t_uint256)"
      },
      {
        "astId": 1287,
        "contract": "contracts/minter.sol:MinterV3",
        "label": "_allTokens",
        "offset": 0,
        "slot": "8",
        "type": "t_array(t_uint256)dyn_storage"
      },
      {
        "astId": 1291,
        "contract": "contracts/minter.sol:MinterV3",
        "label": "_allTokensIndex",
        "offset": 0,
        "slot": "9",
        "type": "t_mapping(t_uint256,t_uint256)"
      },
      {
        "astId": 79,
        "contract": "contracts/minter.sol:MinterV3",
        "label": "nonces",
        "offset": 0,
        "slot": "10",
        "type": "t_mapping(t_bytes32,t_uint256)"
      },
      {
        "astId": 2540,
        "contract": "contracts/minter.sol:MinterV3",
        "label": "admin",
        "offset": 0,
        "slot": "11",
        "type": "t_address"
      },
      {
        "astId": 2542,
        "contract": "contracts/minter.sol:MinterV3",
        "label": "active",
        "offset": 20,
        "slot": "11",
        "type": "t_bool"
      },
      {
        "astId": 2545,
        "contract": "contracts/minter.sol:MinterV3",
        "label": "baseURI",
        "offset": 0,
        "slot": "12",
        "type": "t_string_storage"
      },
      {
        "astId": 2548,
        "contract": "contracts/minter.sol:MinterV3",
        "label": "CID",
        "offset": 0,
        "slot": "13",
        "type": "t_string_storage"
      },
      {
        "astId": 2551,
        "contract": "contracts/minter.sol:MinterV3",
        "label": "extension",
        "offset": 0,
        "slot": "14",
        "type": "t_string_storage"
      },
      {
        "astId": 2554,
        "contract": "contracts/minter.sol:MinterV3",
        "label": "notRevealed",
        "offset": 0,
        "slot": "15",
        "type": "t_string_storage"
      },
      {
        "astId": 2556,
        "contract": "contracts/minter.sol:MinterV3",
        "label": "lastRequestId",
        "offset": 0,
        "slot": "16",
        "type": "t_bytes32"
      },
      {
        "astId": 2558,
        "contract": "contracts/minter.sol:MinterV3",
        "label": "keyHash",
        "offset": 0,
        "slot": "17",
        "type": "t_bytes32"
      },
      {
        "astId": 2560,
        "contract": "contracts/minter.sol:MinterV3",
        "label": "fee",
        "offset": 0,
        "slot": "18",
        "type": "t_uint256"
      },
      {
        "astId": 2565,
        "contract": "contracts/minter.sol:MinterV3",
        "label": "raptorStats",
        "offset": 0,
        "slot": "19",
        "type": "t_mapping(t_uint16,t_struct(Stats)3445_storage)"
      },
      {
        "astId": 2572,
        "contract": "contracts/minter.sol:MinterV3",
        "label": "price",
        "offset": 0,
        "slot": "20",
        "type": "t_uint256"
      },
      {
        "astId": 2575,
        "contract": "contracts/minter.sol:MinterV3",
        "label": "totalMintSupply",
        "offset": 0,
        "slot": "21",
        "type": "t_uint16"
      },
      {
        "astId": 2578,
        "contract": "contracts/minter.sol:MinterV3",
        "label": "totalLimit",
        "offset": 2,
        "slot": "21",
        "type": "t_uint16"
      },
      {
        "astId": 2580,
        "contract": "contracts/minter.sol:MinterV3",
        "label": "revealed",
        "offset": 4,
        "slot": "21",
        "type": "t_bool"
      },
      {
        "astId": 2582,
        "contract": "contracts/minter.sol:MinterV3",
        "label": "gameAddress",
        "offset": 5,
        "slot": "21",
        "type": "t_address"
      },
      {
        "astId": 2584,
        "contract": "contracts/minter.sol:MinterV3",
        "label": "cooldownContract",
        "offset": 0,
        "slot": "22",
        "type": "t_address"
      },
      {
        "astId": 2587,
        "contract": "contracts/minter.sol:MinterV3",
        "label": "rewardedAddresses",
        "offset": 0,
        "slot": "23",
        "type": "t_array(t_address)dyn_storage"
      },
      {
        "astId": 2599,
        "contract": "contracts/minter.sol:MinterV3",
        "label": "rewardedAmounts",
        "offset": 0,
        "slot": "24",
        "type": "t_array(t_uint8)dyn_storage"
      },
      {
        "astId": 2602,
        "contract": "contracts/minter.sol:MinterV3",
        "label": "paymentsTo",
        "offset": 0,
        "slot": "25",
        "type": "t_array(t_address)dyn_storage"
      },
      {
        "astId": 2606,
        "contract": "contracts/minter.sol:MinterV3",
        "label": "foundingRaptor",
        "offset": 0,
        "slot": "26",
        "type": "t_mapping(t_uint16,t_bool)"
      }
    ],
    "types": {
      "t_address": {
        "encoding": "inplace",
        "label": "address",
        "numberOfBytes": "20"
      },
      "t_array(t_address)dyn_storage": {
        "base": "t_address",
        "encoding": "dynamic_array",
        "label": "address[]",
        "numberOfBytes": "32"
      },
      "t_array(t_uint256)dyn_storage": {
        "base": "t_uint256",
        "encoding": "dynamic_array",
        "label": "uint256[]",
        "numberOfBytes": "32"
      },
      "t_array(t_uint8)dyn_storage": {
        "base": "t_uint8",
        "encoding": "dynamic_array",
        "label": "uint8[]",
        "numberOfBytes": "32"
      },
      "t_bool": {
        "encoding": "inplace",
        "label": "bool",
        "numberOfBytes": "1"
      },
      "t_bytes32": {
        "encoding": "inplace",
        "label": "bytes32",
        "numberOfBytes": "32"
      },
      "t_mapping(t_address,t_bool)": {
        "encoding": "mapping",
        "key": "t_address",
        "label": "mapping(address => bool)",
        "numberOfBytes": "32",
        "value": "t_bool"
      },
      "t_mapping(t_address,t_mapping(t_address,t_bool))": {
        "encoding": "mapping",
        "key": "t_address",
        "label": "mapping(address => mapping(address => bool))",
        "numberOfBytes": "32",
        "value": "t_mapping(t_address,t_bool)"
      },
      "t_mapping(t_address,t_mapping(t_uint256,t_uint256))": {
        "encoding": "mapping",
        "key": "t_address",
        "label": "mapping(address => mapping(uint256 => uint256))",
        "numberOfBytes": "32",
        "value": "t_mapping(t_uint256,t_uint256)"
      },
      "t_mapping(t_address,t_uint256)": {
        "encoding": "mapping",
        "key": "t_address",
        "label": "mapping(address => uint256)",
        "numberOfBytes": "32",
        "value": "t_uint256"
      },
      "t_mapping(t_bytes32,t_uint256)": {
        "encoding": "mapping",
        "key": "t_bytes32",
        "label": "mapping(bytes32 => uint256)",
        "numberOfBytes": "32",
        "value": "t_uint256"
      },
      "t_mapping(t_uint16,t_bool)": {
        "encoding": "mapping",
        "key": "t_uint16",
        "label": "mapping(uint16 => bool)",
        "numberOfBytes": "32",
        "value": "t_bool"
      },
      "t_mapping(t_uint16,t_struct(Stats)3445_storage)": {
        "encoding": "mapping",
        "key": "t_uint16",
        "label": "mapping(uint16 => struct Stats)",
        "numberOfBytes": "32",
        "value": "t_struct(Stats)3445_storage"
      },
      "t_mapping(t_uint256,t_address)": {
        "encoding": "mapping",
        "key": "t_uint256",
        "label": "mapping(uint256 => address)",
        "numberOfBytes": "32",
        "value": "t_address"
      },
      "t_mapping(t_uint256,t_uint256)": {
        "encoding": "mapping",
        "key": "t_uint256",
        "label": "mapping(uint256 => uint256)",
        "numberOfBytes": "32",
        "value": "t_uint256"
      },
      "t_string_storage": {
        "encoding": "bytes",
        "label": "string",
        "numberOfBytes": "32"
      },
      "t_struct(Stats)3445_storage": {
        "encoding": "inplace",
        "label": "struct Stats",
        "members": [
          {
            "astId": 3430,
            "contract": "contracts/minter.sol:MinterV3",
            "label": "speed",
            "offset": 0,
            "slot": "0",
            "type": "t_uint16"
          },
          {
            "astId": 3432,
            "contract": "contracts/minter.sol:MinterV3",
            "label": "strength",
            "offset": 2,
            "slot": "0",
            "type": "t_uint16"
          },
          {
            "astId": 3434,
            "contract": "contracts/minter.sol:MinterV3",
            "label": "fightsWon",
            "offset": 4,
            "slot": "0",
            "type": "t_uint16"
          },
          {
            "astId": 3436,
            "contract": "contracts/minter.sol:MinterV3",
            "label": "quickPlayRacesWon",
            "offset": 6,
            "slot": "0",
            "type": "t_uint16"
          },
          {
            "astId": 3438,
            "contract": "contracts/minter.sol:MinterV3",
            "label": "compRacesWon",
            "offset": 8,
            "slot": "0",
            "type": "t_uint16"
          },
          {
            "astId": 3440,
            "contract": "contracts/minter.sol:MinterV3",
            "label": "deathRacesWon",
            "offset": 10,
            "slot": "0",
            "type": "t_uint16"
          },
          {
            "astId": 3442,
            "contract": "contracts/minter.sol:MinterV3",
            "label": "totalRacesTop3Finish",
            "offset": 12,
            "slot": "0",
            "type": "t_uint16"
          },
          {
            "astId": 3444,
            "contract": "contracts/minter.sol:MinterV3",
            "label": "cooldownTime",
            "offset": 14,
            "slot": "0",
            "type": "t_uint32"
          }
        ],
        "numberOfBytes": "32"
      },
      "t_uint16": {
        "encoding": "inplace",
        "label": "uint16",
        "numberOfBytes": "2"
      },
      "t_uint256": {
        "encoding": "inplace",
        "label": "uint256",
        "numberOfBytes": "32"
      },
      "t_uint32": {
        "encoding": "inplace",
        "label": "uint32",
        "numberOfBytes": "4"
      },
      "t_uint8": {
        "encoding": "inplace",
        "label": "uint8",
        "numberOfBytes": "1"
      }
    }
  }
}